{
	"deg.sol": {
		"DegreeVerification": {
			"abi": [
				{
					"inputs": [
						{
							"internalType": "address",
							"name": "_viceChancellor",
							"type": "address"
						},
						{
							"internalType": "address",
							"name": "_chancellor",
							"type": "address"
						},
						{
							"internalType": "address",
							"name": "_registrar",
							"type": "address"
						}
					],
					"stateMutability": "nonpayable",
					"type": "constructor"
				},
				{
					"anonymous": false,
					"inputs": [
						{
							"indexed": true,
							"internalType": "address",
							"name": "approver",
							"type": "address"
						},
						{
							"indexed": true,
							"internalType": "string",
							"name": "rollNo",
							"type": "string"
						},
						{
							"indexed": false,
							"internalType": "enum DegreeVerification.DegreeApprovalStatus",
							"name": "status",
							"type": "uint8"
						}
					],
					"name": "DegreeApproval",
					"type": "event"
				},
				{
					"inputs": [
						{
							"internalType": "string",
							"name": "_rollNo",
							"type": "string"
						},
						{
							"internalType": "string",
							"name": "_name",
							"type": "string"
						}
					],
					"name": "addStudent",
					"outputs": [],
					"stateMutability": "nonpayable",
					"type": "function"
				},
				{
					"inputs": [
						{
							"internalType": "string",
							"name": "_rollNo",
							"type": "string"
						}
					],
					"name": "approveDegree",
					"outputs": [],
					"stateMutability": "nonpayable",
					"type": "function"
				},
				{
					"inputs": [],
					"name": "chancellor",
					"outputs": [
						{
							"internalType": "address",
							"name": "",
							"type": "address"
						}
					],
					"stateMutability": "view",
					"type": "function"
				},
				{
					"inputs": [],
					"name": "dataEntryManager",
					"outputs": [
						{
							"internalType": "address",
							"name": "",
							"type": "address"
						}
					],
					"stateMutability": "view",
					"type": "function"
				},
				{
					"inputs": [
						{
							"internalType": "address",
							"name": "",
							"type": "address"
						}
					],
					"name": "isAuthorized",
					"outputs": [
						{
							"internalType": "bool",
							"name": "",
							"type": "bool"
						}
					],
					"stateMutability": "view",
					"type": "function"
				},
				{
					"inputs": [],
					"name": "registrar",
					"outputs": [
						{
							"internalType": "address",
							"name": "",
							"type": "address"
						}
					],
					"stateMutability": "view",
					"type": "function"
				},
				{
					"inputs": [
						{
							"internalType": "string",
							"name": "_rollNo",
							"type": "string"
						}
					],
					"name": "rejectDegree",
					"outputs": [],
					"stateMutability": "nonpayable",
					"type": "function"
				},
				{
					"inputs": [
						{
							"internalType": "string",
							"name": "",
							"type": "string"
						},
						{
							"internalType": "address",
							"name": "",
							"type": "address"
						}
					],
					"name": "studentApprovals",
					"outputs": [
						{
							"internalType": "bool",
							"name": "",
							"type": "bool"
						}
					],
					"stateMutability": "view",
					"type": "function"
				},
				{
					"inputs": [
						{
							"internalType": "string",
							"name": "",
							"type": "string"
						}
					],
					"name": "students",
					"outputs": [
						{
							"internalType": "string",
							"name": "rollNo",
							"type": "string"
						},
						{
							"internalType": "string",
							"name": "name",
							"type": "string"
						},
						{
							"internalType": "enum DegreeVerification.DegreeApprovalStatus",
							"name": "status",
							"type": "uint8"
						}
					],
					"stateMutability": "view",
					"type": "function"
				},
				{
					"inputs": [],
					"name": "viceChancellor",
					"outputs": [
						{
							"internalType": "address",
							"name": "",
							"type": "address"
						}
					],
					"stateMutability": "view",
					"type": "function"
				}
			],
			"devdoc": {
				"kind": "dev",
				"methods": {},
				"version": 1
			},
			"evm": {
				"assembly": "    /* \"deg.sol\":57:2946  contract DegreeVerification {... */\n  mstore(0x40, 0x80)\n    /* \"deg.sol\":707:1090  constructor(address _viceChancellor, address _chancellor, address _registrar) {... */\n  callvalue\n  dup1\n  iszero\n  tag_1\n  jumpi\n  0x00\n  dup1\n  revert\ntag_1:\n  pop\n  mload(0x40)\n  sub(codesize, bytecodeSize)\n  dup1\n  bytecodeSize\n  dup4\n  codecopy\n  dup2\n  dup2\n  add\n  0x40\n  mstore\n  dup2\n  add\n  swap1\n  tag_2\n  swap2\n  swap1\n  tag_3\n  jump\t// in\ntag_2:\n    /* \"deg.sol\":812:827  _viceChancellor */\n  dup3\n    /* \"deg.sol\":795:809  viceChancellor */\n  0x01\n  0x00\n    /* \"deg.sol\":795:827  viceChancellor = _viceChancellor */\n  0x0100\n  exp\n  dup2\n  sload\n  dup2\n  0xffffffffffffffffffffffffffffffffffffffff\n  mul\n  not\n  and\n  swap1\n  dup4\n  0xffffffffffffffffffffffffffffffffffffffff\n  and\n  mul\n  or\n  swap1\n  sstore\n  pop\n    /* \"deg.sol\":850:861  _chancellor */\n  dup2\n    /* \"deg.sol\":837:847  chancellor */\n  0x02\n  0x00\n    /* \"deg.sol\":837:861  chancellor = _chancellor */\n  0x0100\n  exp\n  dup2\n  sload\n  dup2\n  0xffffffffffffffffffffffffffffffffffffffff\n  mul\n  not\n  and\n  swap1\n  dup4\n  0xffffffffffffffffffffffffffffffffffffffff\n  and\n  mul\n  or\n  swap1\n  sstore\n  pop\n    /* \"deg.sol\":883:893  _registrar */\n  dup1\n    /* \"deg.sol\":871:880  registrar */\n  0x03\n  0x00\n    /* \"deg.sol\":871:893  registrar = _registrar */\n  0x0100\n  exp\n  dup2\n  sload\n  dup2\n  0xffffffffffffffffffffffffffffffffffffffff\n  mul\n  not\n  and\n  swap1\n  dup4\n  0xffffffffffffffffffffffffffffffffffffffff\n  and\n  mul\n  or\n  swap1\n  sstore\n  pop\n    /* \"deg.sol\":996:1000  true */\n  0x01\n    /* \"deg.sol\":964:976  isAuthorized */\n  0x04\n    /* \"deg.sol\":964:993  isAuthorized[_viceChancellor] */\n  0x00\n    /* \"deg.sol\":977:992  _viceChancellor */\n  dup6\n    /* \"deg.sol\":964:993  isAuthorized[_viceChancellor] */\n  0xffffffffffffffffffffffffffffffffffffffff\n  and\n  0xffffffffffffffffffffffffffffffffffffffff\n  and\n  dup2\n  mstore\n  0x20\n  add\n  swap1\n  dup2\n  mstore\n  0x20\n  add\n  0x00\n  keccak256\n  0x00\n    /* \"deg.sol\":964:1000  isAuthorized[_viceChancellor] = true */\n  0x0100\n  exp\n  dup2\n  sload\n  dup2\n  0xff\n  mul\n  not\n  and\n  swap1\n  dup4\n  iszero\n  iszero\n  mul\n  or\n  swap1\n  sstore\n  pop\n    /* \"deg.sol\":1038:1042  true */\n  0x01\n    /* \"deg.sol\":1010:1022  isAuthorized */\n  0x04\n    /* \"deg.sol\":1010:1035  isAuthorized[_chancellor] */\n  0x00\n    /* \"deg.sol\":1023:1034  _chancellor */\n  dup5\n    /* \"deg.sol\":1010:1035  isAuthorized[_chancellor] */\n  0xffffffffffffffffffffffffffffffffffffffff\n  and\n  0xffffffffffffffffffffffffffffffffffffffff\n  and\n  dup2\n  mstore\n  0x20\n  add\n  swap1\n  dup2\n  mstore\n  0x20\n  add\n  0x00\n  keccak256\n  0x00\n    /* \"deg.sol\":1010:1042  isAuthorized[_chancellor] = true */\n  0x0100\n  exp\n  dup2\n  sload\n  dup2\n  0xff\n  mul\n  not\n  and\n  swap1\n  dup4\n  iszero\n  iszero\n  mul\n  or\n  swap1\n  sstore\n  pop\n    /* \"deg.sol\":1079:1083  true */\n  0x01\n    /* \"deg.sol\":1052:1064  isAuthorized */\n  0x04\n    /* \"deg.sol\":1052:1076  isAuthorized[_registrar] */\n  0x00\n    /* \"deg.sol\":1065:1075  _registrar */\n  dup4\n    /* \"deg.sol\":1052:1076  isAuthorized[_registrar] */\n  0xffffffffffffffffffffffffffffffffffffffff\n  and\n  0xffffffffffffffffffffffffffffffffffffffff\n  and\n  dup2\n  mstore\n  0x20\n  add\n  swap1\n  dup2\n  mstore\n  0x20\n  add\n  0x00\n  keccak256\n  0x00\n    /* \"deg.sol\":1052:1083  isAuthorized[_registrar] = true */\n  0x0100\n  exp\n  dup2\n  sload\n  dup2\n  0xff\n  mul\n  not\n  and\n  swap1\n  dup4\n  iszero\n  iszero\n  mul\n  or\n  swap1\n  sstore\n  pop\n    /* \"deg.sol\":707:1090  constructor(address _viceChancellor, address _chancellor, address _registrar) {... */\n  pop\n  pop\n  pop\n    /* \"deg.sol\":57:2946  contract DegreeVerification {... */\n  jump(tag_6)\n    /* \"#utility.yul\":88:205   */\ntag_8:\n    /* \"#utility.yul\":197:198   */\n  0x00\n    /* \"#utility.yul\":194:195   */\n  dup1\n    /* \"#utility.yul\":187:199   */\n  revert\n    /* \"#utility.yul\":334:460   */\ntag_10:\n    /* \"#utility.yul\":371:378   */\n  0x00\n    /* \"#utility.yul\":411:453   */\n  0xffffffffffffffffffffffffffffffffffffffff\n    /* \"#utility.yul\":404:409   */\n  dup3\n    /* \"#utility.yul\":400:454   */\n  and\n    /* \"#utility.yul\":389:454   */\n  swap1\n  pop\n    /* \"#utility.yul\":334:460   */\n  swap2\n  swap1\n  pop\n  jump\t// out\n    /* \"#utility.yul\":466:562   */\ntag_11:\n    /* \"#utility.yul\":503:510   */\n  0x00\n    /* \"#utility.yul\":532:556   */\n  tag_20\n    /* \"#utility.yul\":550:555   */\n  dup3\n    /* \"#utility.yul\":532:556   */\n  tag_10\n  jump\t// in\ntag_20:\n    /* \"#utility.yul\":521:556   */\n  swap1\n  pop\n    /* \"#utility.yul\":466:562   */\n  swap2\n  swap1\n  pop\n  jump\t// out\n    /* \"#utility.yul\":568:690   */\ntag_12:\n    /* \"#utility.yul\":641:665   */\n  tag_22\n    /* \"#utility.yul\":659:664   */\n  dup2\n    /* \"#utility.yul\":641:665   */\n  tag_11\n  jump\t// in\ntag_22:\n    /* \"#utility.yul\":634:639   */\n  dup2\n    /* \"#utility.yul\":631:666   */\n  eq\n    /* \"#utility.yul\":621:684   */\n  tag_23\n  jumpi\n    /* \"#utility.yul\":680:681   */\n  0x00\n    /* \"#utility.yul\":677:678   */\n  dup1\n    /* \"#utility.yul\":670:682   */\n  revert\n    /* \"#utility.yul\":621:684   */\ntag_23:\n    /* \"#utility.yul\":568:690   */\n  pop\n  jump\t// out\n    /* \"#utility.yul\":696:839   */\ntag_13:\n    /* \"#utility.yul\":753:758   */\n  0x00\n    /* \"#utility.yul\":784:790   */\n  dup2\n    /* \"#utility.yul\":778:791   */\n  mload\n    /* \"#utility.yul\":769:791   */\n  swap1\n  pop\n    /* \"#utility.yul\":800:833   */\n  tag_25\n    /* \"#utility.yul\":827:832   */\n  dup2\n    /* \"#utility.yul\":800:833   */\n  tag_12\n  jump\t// in\ntag_25:\n    /* \"#utility.yul\":696:839   */\n  swap3\n  swap2\n  pop\n  pop\n  jump\t// out\n    /* \"#utility.yul\":845:1508   */\ntag_3:\n    /* \"#utility.yul\":933:939   */\n  0x00\n    /* \"#utility.yul\":941:947   */\n  dup1\n    /* \"#utility.yul\":949:955   */\n  0x00\n    /* \"#utility.yul\":998:1000   */\n  0x60\n    /* \"#utility.yul\":986:995   */\n  dup5\n    /* \"#utility.yul\":977:984   */\n  dup7\n    /* \"#utility.yul\":973:996   */\n  sub\n    /* \"#utility.yul\":969:1001   */\n  slt\n    /* \"#utility.yul\":966:1085   */\n  iszero\n  tag_27\n  jumpi\n    /* \"#utility.yul\":1004:1083   */\n  tag_28\n  tag_8\n  jump\t// in\ntag_28:\n    /* \"#utility.yul\":966:1085   */\ntag_27:\n    /* \"#utility.yul\":1124:1125   */\n  0x00\n    /* \"#utility.yul\":1149:1213   */\n  tag_29\n    /* \"#utility.yul\":1205:1212   */\n  dup7\n    /* \"#utility.yul\":1196:1202   */\n  dup3\n    /* \"#utility.yul\":1185:1194   */\n  dup8\n    /* \"#utility.yul\":1181:1203   */\n  add\n    /* \"#utility.yul\":1149:1213   */\n  tag_13\n  jump\t// in\ntag_29:\n    /* \"#utility.yul\":1139:1213   */\n  swap4\n  pop\n    /* \"#utility.yul\":1095:1223   */\n  pop\n    /* \"#utility.yul\":1262:1264   */\n  0x20\n    /* \"#utility.yul\":1288:1352   */\n  tag_30\n    /* \"#utility.yul\":1344:1351   */\n  dup7\n    /* \"#utility.yul\":1335:1341   */\n  dup3\n    /* \"#utility.yul\":1324:1333   */\n  dup8\n    /* \"#utility.yul\":1320:1342   */\n  add\n    /* \"#utility.yul\":1288:1352   */\n  tag_13\n  jump\t// in\ntag_30:\n    /* \"#utility.yul\":1278:1352   */\n  swap3\n  pop\n    /* \"#utility.yul\":1233:1362   */\n  pop\n    /* \"#utility.yul\":1401:1403   */\n  0x40\n    /* \"#utility.yul\":1427:1491   */\n  tag_31\n    /* \"#utility.yul\":1483:1490   */\n  dup7\n    /* \"#utility.yul\":1474:1480   */\n  dup3\n    /* \"#utility.yul\":1463:1472   */\n  dup8\n    /* \"#utility.yul\":1459:1481   */\n  add\n    /* \"#utility.yul\":1427:1491   */\n  tag_13\n  jump\t// in\ntag_31:\n    /* \"#utility.yul\":1417:1491   */\n  swap2\n  pop\n    /* \"#utility.yul\":1372:1501   */\n  pop\n    /* \"#utility.yul\":845:1508   */\n  swap3\n  pop\n  swap3\n  pop\n  swap3\n  jump\t// out\n    /* \"deg.sol\":57:2946  contract DegreeVerification {... */\ntag_6:\n  dataSize(sub_0)\n  dup1\n  dataOffset(sub_0)\n  0x00\n  codecopy\n  0x00\n  return\nstop\n\nsub_0: assembly {\n        /* \"deg.sol\":57:2946  contract DegreeVerification {... */\n      mstore(0x40, 0x80)\n      callvalue\n      dup1\n      iszero\n      tag_1\n      jumpi\n      0x00\n      dup1\n      revert\n    tag_1:\n      pop\n      jumpi(tag_2, lt(calldatasize, 0x04))\n      shr(0xe0, calldataload(0x00))\n      dup1\n      0xd757c5c0\n      gt\n      tag_13\n      jumpi\n      dup1\n      0xd757c5c0\n      eq\n      tag_8\n      jumpi\n      dup1\n      0xe27bb1f7\n      eq\n      tag_9\n      jumpi\n      dup1\n      0xe6b43609\n      eq\n      tag_10\n      jumpi\n      dup1\n      0xfe52fffa\n      eq\n      tag_11\n      jumpi\n      dup1\n      0xfe9fbb80\n      eq\n      tag_12\n      jumpi\n      jump(tag_2)\n    tag_13:\n      dup1\n      0x2b20e397\n      eq\n      tag_3\n      jumpi\n      dup1\n      0x3c406ffe\n      eq\n      tag_4\n      jumpi\n      dup1\n      0x46252acf\n      eq\n      tag_5\n      jumpi\n      dup1\n      0x5d218d67\n      eq\n      tag_6\n      jumpi\n      dup1\n      0xc7ef6bfb\n      eq\n      tag_7\n      jumpi\n    tag_2:\n      0x00\n      dup1\n      revert\n        /* \"deg.sol\":194:218  address public registrar */\n    tag_3:\n      tag_14\n      tag_15\n      jump\t// in\n    tag_14:\n      mload(0x40)\n      tag_16\n      swap2\n      swap1\n      tag_17\n      jump\t// in\n    tag_16:\n      mload(0x40)\n      dup1\n      swap2\n      sub\n      swap1\n      return\n        /* \"deg.sol\":528:595  mapping(string => mapping(address => bool)) public studentApprovals */\n    tag_4:\n      tag_18\n      0x04\n      dup1\n      calldatasize\n      sub\n      dup2\n      add\n      swap1\n      tag_19\n      swap2\n      swap1\n      tag_20\n      jump\t// in\n    tag_19:\n      tag_21\n      jump\t// in\n    tag_18:\n      mload(0x40)\n      tag_22\n      swap2\n      swap1\n      tag_23\n      jump\t// in\n    tag_22:\n      mload(0x40)\n      dup1\n      swap2\n      sub\n      swap1\n      return\n        /* \"deg.sol\":91:122  address public dataEntryManager */\n    tag_5:\n      tag_24\n      tag_25\n      jump\t// in\n    tag_24:\n      mload(0x40)\n      tag_26\n      swap2\n      swap1\n      tag_17\n      jump\t// in\n    tag_26:\n      mload(0x40)\n      dup1\n      swap2\n      sub\n      swap1\n      return\n        /* \"deg.sol\":1753:2516  function approveDegree(string memory _rollNo) external onlyAuthorized {... */\n    tag_6:\n      tag_27\n      0x04\n      dup1\n      calldatasize\n      sub\n      dup2\n      add\n      swap1\n      tag_28\n      swap2\n      swap1\n      tag_29\n      jump\t// in\n    tag_28:\n      tag_30\n      jump\t// in\n    tag_27:\n      stop\n        /* \"deg.sol\":480:522  mapping(string => Student) public students */\n    tag_7:\n      tag_31\n      0x04\n      dup1\n      calldatasize\n      sub\n      dup2\n      add\n      swap1\n      tag_32\n      swap2\n      swap1\n      tag_29\n      jump\t// in\n    tag_32:\n      tag_33\n      jump\t// in\n    tag_31:\n      mload(0x40)\n      tag_34\n      swap4\n      swap3\n      swap2\n      swap1\n      tag_35\n      jump\t// in\n    tag_34:\n      mload(0x40)\n      dup1\n      swap2\n      sub\n      swap1\n      return\n        /* \"deg.sol\":2522:2944  function rejectDegree(string memory _rollNo) external onlyAuthorized {... */\n    tag_8:\n      tag_36\n      0x04\n      dup1\n      calldatasize\n      sub\n      dup2\n      add\n      swap1\n      tag_37\n      swap2\n      swap1\n      tag_29\n      jump\t// in\n    tag_37:\n      tag_38\n      jump\t// in\n    tag_36:\n      stop\n        /* \"deg.sol\":1207:1747  function addStudent(string memory _rollNo, string memory _name) external onlyAuthorized {... */\n    tag_9:\n      tag_39\n      0x04\n      dup1\n      calldatasize\n      sub\n      dup2\n      add\n      swap1\n      tag_40\n      swap2\n      swap1\n      tag_41\n      jump\t// in\n    tag_40:\n      tag_42\n      jump\t// in\n    tag_39:\n      stop\n        /* \"deg.sol\":163:188  address public chancellor */\n    tag_10:\n      tag_43\n      tag_44\n      jump\t// in\n    tag_43:\n      mload(0x40)\n      tag_45\n      swap2\n      swap1\n      tag_17\n      jump\t// in\n    tag_45:\n      mload(0x40)\n      dup1\n      swap2\n      sub\n      swap1\n      return\n        /* \"deg.sol\":128:157  address public viceChancellor */\n    tag_11:\n      tag_46\n      tag_47\n      jump\t// in\n    tag_46:\n      mload(0x40)\n      tag_48\n      swap2\n      swap1\n      tag_17\n      jump\t// in\n    tag_48:\n      mload(0x40)\n      dup1\n      swap2\n      sub\n      swap1\n      return\n        /* \"deg.sol\":430:474  mapping(address => bool) public isAuthorized */\n    tag_12:\n      tag_49\n      0x04\n      dup1\n      calldatasize\n      sub\n      dup2\n      add\n      swap1\n      tag_50\n      swap2\n      swap1\n      tag_51\n      jump\t// in\n    tag_50:\n      tag_52\n      jump\t// in\n    tag_49:\n      mload(0x40)\n      tag_53\n      swap2\n      swap1\n      tag_23\n      jump\t// in\n    tag_53:\n      mload(0x40)\n      dup1\n      swap2\n      sub\n      swap1\n      return\n        /* \"deg.sol\":194:218  address public registrar */\n    tag_15:\n      0x03\n      0x00\n      swap1\n      sload\n      swap1\n      0x0100\n      exp\n      swap1\n      div\n      0xffffffffffffffffffffffffffffffffffffffff\n      and\n      dup2\n      jump\t// out\n        /* \"deg.sol\":528:595  mapping(string => mapping(address => bool)) public studentApprovals */\n    tag_21:\n      0x06\n      dup3\n      dup1\n      mload\n      0x20\n      dup2\n      add\n      dup3\n      add\n      dup1\n      mload\n      dup5\n      dup3\n      mstore\n      0x20\n      dup4\n      add\n      0x20\n      dup6\n      add\n      keccak256\n      dup2\n      dup4\n      mstore\n      dup1\n      swap6\n      pop\n      pop\n      pop\n      pop\n      pop\n      pop\n      0x20\n      mstore\n      dup1\n      0x00\n      mstore\n      keccak256(0x00, 0x40)\n      0x00\n      swap2\n      pop\n      swap2\n      pop\n      swap1\n      sload\n      swap1\n      0x0100\n      exp\n      swap1\n      div\n      0xff\n      and\n      dup2\n      jump\t// out\n        /* \"deg.sol\":91:122  address public dataEntryManager */\n    tag_25:\n      0x00\n      dup1\n      sload\n      swap1\n      0x0100\n      exp\n      swap1\n      div\n      0xffffffffffffffffffffffffffffffffffffffff\n      and\n      dup2\n      jump\t// out\n        /* \"deg.sol\":1753:2516  function approveDegree(string memory _rollNo) external onlyAuthorized {... */\n    tag_30:\n        /* \"deg.sol\":1140:1152  isAuthorized */\n      0x04\n        /* \"deg.sol\":1140:1164  isAuthorized[msg.sender] */\n      0x00\n        /* \"deg.sol\":1153:1163  msg.sender */\n      caller\n        /* \"deg.sol\":1140:1164  isAuthorized[msg.sender] */\n      0xffffffffffffffffffffffffffffffffffffffff\n      and\n      0xffffffffffffffffffffffffffffffffffffffff\n      and\n      dup2\n      mstore\n      0x20\n      add\n      swap1\n      dup2\n      mstore\n      0x20\n      add\n      0x00\n      keccak256\n      0x00\n      swap1\n      sload\n      swap1\n      0x0100\n      exp\n      swap1\n      div\n      0xff\n      and\n        /* \"deg.sol\":1132:1183  require(isAuthorized[msg.sender], \"Not authorized\") */\n      tag_55\n      jumpi\n      mload(0x40)\n      0x08c379a000000000000000000000000000000000000000000000000000000000\n      dup2\n      mstore\n      0x04\n      add\n      tag_56\n      swap1\n      tag_57\n      jump\t// in\n    tag_56:\n      mload(0x40)\n      dup1\n      swap2\n      sub\n      swap1\n      revert\n    tag_55:\n        /* \"deg.sol\":1865:1866  0 */\n      0x00\n        /* \"deg.sol\":1847:1854  _rollNo */\n      dup2\n        /* \"deg.sol\":1841:1862  bytes(_rollNo).length */\n      mload\n        /* \"deg.sol\":1841:1866  bytes(_rollNo).length > 0 */\n      gt\n        /* \"deg.sol\":1833:1898  require(bytes(_rollNo).length > 0, \"Roll number cannot be empty\") */\n      tag_59\n      jumpi\n      mload(0x40)\n      0x08c379a000000000000000000000000000000000000000000000000000000000\n      dup2\n      mstore\n      0x04\n      add\n      tag_60\n      swap1\n      tag_61\n      jump\t// in\n    tag_60:\n      mload(0x40)\n      dup1\n      swap2\n      sub\n      swap1\n      revert\n    tag_59:\n        /* \"deg.sol\":1944:1972  DegreeApprovalStatus.Pending */\n      0x00\n        /* \"deg.sol\":1916:1972  students[_rollNo].status == DegreeApprovalStatus.Pending */\n      0x02\n      dup2\n      gt\n      iszero\n      tag_62\n      jumpi\n      tag_63\n      tag_64\n      jump\t// in\n    tag_63:\n    tag_62:\n        /* \"deg.sol\":1916:1924  students */\n      0x05\n        /* \"deg.sol\":1925:1932  _rollNo */\n      dup3\n        /* \"deg.sol\":1916:1933  students[_rollNo] */\n      mload(0x40)\n      tag_65\n      swap2\n      swap1\n      tag_66\n      jump\t// in\n    tag_65:\n      swap1\n      dup2\n      mstore\n      0x20\n      add\n      mload(0x40)\n      dup1\n      swap2\n      sub\n      swap1\n      keccak256\n        /* \"deg.sol\":1916:1940  students[_rollNo].status */\n      0x02\n      add\n      0x00\n      swap1\n      sload\n      swap1\n      0x0100\n      exp\n      swap1\n      div\n      0xff\n      and\n        /* \"deg.sol\":1916:1972  students[_rollNo].status == DegreeApprovalStatus.Pending */\n      0x02\n      dup2\n      gt\n      iszero\n      tag_67\n      jumpi\n      tag_68\n      tag_64\n      jump\t// in\n    tag_68:\n    tag_67:\n      eq\n        /* \"deg.sol\":1908:2021  require(students[_rollNo].status == DegreeApprovalStatus.Pending, \"Student not found or degree already approved\") */\n      tag_69\n      jumpi\n      mload(0x40)\n      0x08c379a000000000000000000000000000000000000000000000000000000000\n      dup2\n      mstore\n      0x04\n      add\n      tag_70\n      swap1\n      tag_71\n      jump\t// in\n    tag_70:\n      mload(0x40)\n      dup1\n      swap2\n      sub\n      swap1\n      revert\n    tag_69:\n        /* \"deg.sol\":2040:2056  studentApprovals */\n      0x06\n        /* \"deg.sol\":2057:2064  _rollNo */\n      dup2\n        /* \"deg.sol\":2040:2065  studentApprovals[_rollNo] */\n      mload(0x40)\n      tag_72\n      swap2\n      swap1\n      tag_66\n      jump\t// in\n    tag_72:\n      swap1\n      dup2\n      mstore\n      0x20\n      add\n      mload(0x40)\n      dup1\n      swap2\n      sub\n      swap1\n      keccak256\n        /* \"deg.sol\":2040:2077  studentApprovals[_rollNo][msg.sender] */\n      0x00\n        /* \"deg.sol\":2066:2076  msg.sender */\n      caller\n        /* \"deg.sol\":2040:2077  studentApprovals[_rollNo][msg.sender] */\n      0xffffffffffffffffffffffffffffffffffffffff\n      and\n      0xffffffffffffffffffffffffffffffffffffffff\n      and\n      dup2\n      mstore\n      0x20\n      add\n      swap1\n      dup2\n      mstore\n      0x20\n      add\n      0x00\n      keccak256\n      0x00\n      swap1\n      sload\n      swap1\n      0x0100\n      exp\n      swap1\n      div\n      0xff\n      and\n        /* \"deg.sol\":2039:2077  !studentApprovals[_rollNo][msg.sender] */\n      iszero\n        /* \"deg.sol\":2031:2098  require(!studentApprovals[_rollNo][msg.sender], \"Already approved\") */\n      tag_73\n      jumpi\n      mload(0x40)\n      0x08c379a000000000000000000000000000000000000000000000000000000000\n      dup2\n      mstore\n      0x04\n      add\n      tag_74\n      swap1\n      tag_75\n      jump\t// in\n    tag_74:\n      mload(0x40)\n      dup1\n      swap2\n      sub\n      swap1\n      revert\n    tag_73:\n        /* \"deg.sol\":2109:2117  students */\n      0x05\n        /* \"deg.sol\":2118:2125  _rollNo */\n      dup2\n        /* \"deg.sol\":2109:2126  students[_rollNo] */\n      mload(0x40)\n      tag_76\n      swap2\n      swap1\n      tag_66\n      jump\t// in\n    tag_76:\n      swap1\n      dup2\n      mstore\n      0x20\n      add\n      mload(0x40)\n      dup1\n      swap2\n      sub\n      swap1\n      keccak256\n        /* \"deg.sol\":2109:2136  students[_rollNo].approvals */\n      0x03\n      add\n        /* \"deg.sol\":2142:2152  msg.sender */\n      caller\n        /* \"deg.sol\":2109:2153  students[_rollNo].approvals.push(msg.sender) */\n      swap1\n      dup1\n      0x01\n      dup2\n      sload\n      add\n      dup1\n      dup3\n      sstore\n      dup1\n      swap2\n      pop\n      pop\n      0x01\n      swap1\n      sub\n      swap1\n      0x00\n      mstore\n      keccak256(0x00, 0x20)\n      add\n      0x00\n      swap1\n      swap2\n      swap1\n      swap2\n      swap1\n      swap2\n      0x0100\n      exp\n      dup2\n      sload\n      dup2\n      0xffffffffffffffffffffffffffffffffffffffff\n      mul\n      not\n      and\n      swap1\n      dup4\n      0xffffffffffffffffffffffffffffffffffffffff\n      and\n      mul\n      or\n      swap1\n      sstore\n      pop\n        /* \"deg.sol\":2203:2207  true */\n      0x01\n        /* \"deg.sol\":2163:2179  studentApprovals */\n      0x06\n        /* \"deg.sol\":2180:2187  _rollNo */\n      dup3\n        /* \"deg.sol\":2163:2188  studentApprovals[_rollNo] */\n      mload(0x40)\n      tag_78\n      swap2\n      swap1\n      tag_66\n      jump\t// in\n    tag_78:\n      swap1\n      dup2\n      mstore\n      0x20\n      add\n      mload(0x40)\n      dup1\n      swap2\n      sub\n      swap1\n      keccak256\n        /* \"deg.sol\":2163:2200  studentApprovals[_rollNo][msg.sender] */\n      0x00\n        /* \"deg.sol\":2189:2199  msg.sender */\n      caller\n        /* \"deg.sol\":2163:2200  studentApprovals[_rollNo][msg.sender] */\n      0xffffffffffffffffffffffffffffffffffffffff\n      and\n      0xffffffffffffffffffffffffffffffffffffffff\n      and\n      dup2\n      mstore\n      0x20\n      add\n      swap1\n      dup2\n      mstore\n      0x20\n      add\n      0x00\n      keccak256\n      0x00\n        /* \"deg.sol\":2163:2207  studentApprovals[_rollNo][msg.sender] = true */\n      0x0100\n      exp\n      dup2\n      sload\n      dup2\n      0xff\n      mul\n      not\n      and\n      swap1\n      dup4\n      iszero\n      iszero\n      mul\n      or\n      swap1\n      sstore\n      pop\n        /* \"deg.sol\":2249:2256  _rollNo */\n      dup1\n        /* \"deg.sol\":2222:2288  DegreeApproval(msg.sender, _rollNo, DegreeApprovalStatus.Approved) */\n      mload(0x40)\n      tag_79\n      swap2\n      swap1\n      tag_66\n      jump\t// in\n    tag_79:\n      mload(0x40)\n      dup1\n      swap2\n      sub\n      swap1\n      keccak256\n        /* \"deg.sol\":2237:2247  msg.sender */\n      caller\n        /* \"deg.sol\":2222:2288  DegreeApproval(msg.sender, _rollNo, DegreeApprovalStatus.Approved) */\n      0xffffffffffffffffffffffffffffffffffffffff\n      and\n      0xb8c34c3cf12ba37da0c3168c33497d87bd576cfccc7846cfa40cf4a68bf57e4f\n        /* \"deg.sol\":2258:2287  DegreeApprovalStatus.Approved */\n      0x01\n        /* \"deg.sol\":2222:2288  DegreeApproval(msg.sender, _rollNo, DegreeApprovalStatus.Approved) */\n      mload(0x40)\n      tag_80\n      swap2\n      swap1\n      tag_81\n      jump\t// in\n    tag_80:\n      mload(0x40)\n      dup1\n      swap2\n      sub\n      swap1\n      log3\n        /* \"deg.sol\":2387:2388  3 */\n      0x03\n        /* \"deg.sol\":2349:2357  students */\n      0x05\n        /* \"deg.sol\":2358:2365  _rollNo */\n      dup3\n        /* \"deg.sol\":2349:2366  students[_rollNo] */\n      mload(0x40)\n      tag_82\n      swap2\n      swap1\n      tag_66\n      jump\t// in\n    tag_82:\n      swap1\n      dup2\n      mstore\n      0x20\n      add\n      mload(0x40)\n      dup1\n      swap2\n      sub\n      swap1\n      keccak256\n        /* \"deg.sol\":2349:2376  students[_rollNo].approvals */\n      0x03\n      add\n        /* \"deg.sol\":2349:2383  students[_rollNo].approvals.length */\n      dup1\n      sload\n      swap1\n      pop\n        /* \"deg.sol\":2349:2388  students[_rollNo].approvals.length == 3 */\n      sub\n        /* \"deg.sol\":2345:2510  if (students[_rollNo].approvals.length == 3) { // Assuming there are 4 roles in total... */\n      tag_83\n      jumpi\n        /* \"deg.sol\":2470:2499  DegreeApprovalStatus.Approved */\n      0x01\n        /* \"deg.sol\":2443:2451  students */\n      0x05\n        /* \"deg.sol\":2452:2459  _rollNo */\n      dup3\n        /* \"deg.sol\":2443:2460  students[_rollNo] */\n      mload(0x40)\n      tag_84\n      swap2\n      swap1\n      tag_66\n      jump\t// in\n    tag_84:\n      swap1\n      dup2\n      mstore\n      0x20\n      add\n      mload(0x40)\n      dup1\n      swap2\n      sub\n      swap1\n      keccak256\n        /* \"deg.sol\":2443:2467  students[_rollNo].status */\n      0x02\n      add\n      0x00\n        /* \"deg.sol\":2443:2499  students[_rollNo].status = DegreeApprovalStatus.Approved */\n      0x0100\n      exp\n      dup2\n      sload\n      dup2\n      0xff\n      mul\n      not\n      and\n      swap1\n      dup4\n      0x02\n      dup2\n      gt\n      iszero\n      tag_85\n      jumpi\n      tag_86\n      tag_64\n      jump\t// in\n    tag_86:\n    tag_85:\n      mul\n      or\n      swap1\n      sstore\n      pop\n        /* \"deg.sol\":2345:2510  if (students[_rollNo].approvals.length == 3) { // Assuming there are 4 roles in total... */\n    tag_83:\n        /* \"deg.sol\":1753:2516  function approveDegree(string memory _rollNo) external onlyAuthorized {... */\n      pop\n      jump\t// out\n        /* \"deg.sol\":480:522  mapping(string => Student) public students */\n    tag_33:\n      0x05\n      dup2\n      dup1\n      mload\n      0x20\n      dup2\n      add\n      dup3\n      add\n      dup1\n      mload\n      dup5\n      dup3\n      mstore\n      0x20\n      dup4\n      add\n      0x20\n      dup6\n      add\n      keccak256\n      dup2\n      dup4\n      mstore\n      dup1\n      swap6\n      pop\n      pop\n      pop\n      pop\n      pop\n      pop\n      0x00\n      swap2\n      pop\n      swap1\n      pop\n      dup1\n      0x00\n      add\n      dup1\n      sload\n      tag_87\n      swap1\n      tag_88\n      jump\t// in\n    tag_87:\n      dup1\n      0x1f\n      add\n      0x20\n      dup1\n      swap2\n      div\n      mul\n      0x20\n      add\n      mload(0x40)\n      swap1\n      dup2\n      add\n      0x40\n      mstore\n      dup1\n      swap3\n      swap2\n      swap1\n      dup2\n      dup2\n      mstore\n      0x20\n      add\n      dup3\n      dup1\n      sload\n      tag_89\n      swap1\n      tag_88\n      jump\t// in\n    tag_89:\n      dup1\n      iszero\n      tag_90\n      jumpi\n      dup1\n      0x1f\n      lt\n      tag_91\n      jumpi\n      0x0100\n      dup1\n      dup4\n      sload\n      div\n      mul\n      dup4\n      mstore\n      swap2\n      0x20\n      add\n      swap2\n      jump(tag_90)\n    tag_91:\n      dup3\n      add\n      swap2\n      swap1\n      0x00\n      mstore\n      keccak256(0x00, 0x20)\n      swap1\n    tag_92:\n      dup2\n      sload\n      dup2\n      mstore\n      swap1\n      0x01\n      add\n      swap1\n      0x20\n      add\n      dup1\n      dup4\n      gt\n      tag_92\n      jumpi\n      dup3\n      swap1\n      sub\n      0x1f\n      and\n      dup3\n      add\n      swap2\n    tag_90:\n      pop\n      pop\n      pop\n      pop\n      pop\n      swap1\n      dup1\n      0x01\n      add\n      dup1\n      sload\n      tag_93\n      swap1\n      tag_88\n      jump\t// in\n    tag_93:\n      dup1\n      0x1f\n      add\n      0x20\n      dup1\n      swap2\n      div\n      mul\n      0x20\n      add\n      mload(0x40)\n      swap1\n      dup2\n      add\n      0x40\n      mstore\n      dup1\n      swap3\n      swap2\n      swap1\n      dup2\n      dup2\n      mstore\n      0x20\n      add\n      dup3\n      dup1\n      sload\n      tag_94\n      swap1\n      tag_88\n      jump\t// in\n    tag_94:\n      dup1\n      iszero\n      tag_95\n      jumpi\n      dup1\n      0x1f\n      lt\n      tag_96\n      jumpi\n      0x0100\n      dup1\n      dup4\n      sload\n      div\n      mul\n      dup4\n      mstore\n      swap2\n      0x20\n      add\n      swap2\n      jump(tag_95)\n    tag_96:\n      dup3\n      add\n      swap2\n      swap1\n      0x00\n      mstore\n      keccak256(0x00, 0x20)\n      swap1\n    tag_97:\n      dup2\n      sload\n      dup2\n      mstore\n      swap1\n      0x01\n      add\n      swap1\n      0x20\n      add\n      dup1\n      dup4\n      gt\n      tag_97\n      jumpi\n      dup3\n      swap1\n      sub\n      0x1f\n      and\n      dup3\n      add\n      swap2\n    tag_95:\n      pop\n      pop\n      pop\n      pop\n      pop\n      swap1\n      dup1\n      0x02\n      add\n      0x00\n      swap1\n      sload\n      swap1\n      0x0100\n      exp\n      swap1\n      div\n      0xff\n      and\n      swap1\n      pop\n      dup4\n      jump\t// out\n        /* \"deg.sol\":2522:2944  function rejectDegree(string memory _rollNo) external onlyAuthorized {... */\n    tag_38:\n        /* \"deg.sol\":1140:1152  isAuthorized */\n      0x04\n        /* \"deg.sol\":1140:1164  isAuthorized[msg.sender] */\n      0x00\n        /* \"deg.sol\":1153:1163  msg.sender */\n      caller\n        /* \"deg.sol\":1140:1164  isAuthorized[msg.sender] */\n      0xffffffffffffffffffffffffffffffffffffffff\n      and\n      0xffffffffffffffffffffffffffffffffffffffff\n      and\n      dup2\n      mstore\n      0x20\n      add\n      swap1\n      dup2\n      mstore\n      0x20\n      add\n      0x00\n      keccak256\n      0x00\n      swap1\n      sload\n      swap1\n      0x0100\n      exp\n      swap1\n      div\n      0xff\n      and\n        /* \"deg.sol\":1132:1183  require(isAuthorized[msg.sender], \"Not authorized\") */\n      tag_99\n      jumpi\n      mload(0x40)\n      0x08c379a000000000000000000000000000000000000000000000000000000000\n      dup2\n      mstore\n      0x04\n      add\n      tag_100\n      swap1\n      tag_57\n      jump\t// in\n    tag_100:\n      mload(0x40)\n      dup1\n      swap2\n      sub\n      swap1\n      revert\n    tag_99:\n        /* \"deg.sol\":2633:2634  0 */\n      0x00\n        /* \"deg.sol\":2615:2622  _rollNo */\n      dup2\n        /* \"deg.sol\":2609:2630  bytes(_rollNo).length */\n      mload\n        /* \"deg.sol\":2609:2634  bytes(_rollNo).length > 0 */\n      gt\n        /* \"deg.sol\":2601:2666  require(bytes(_rollNo).length > 0, \"Roll number cannot be empty\") */\n      tag_102\n      jumpi\n      mload(0x40)\n      0x08c379a000000000000000000000000000000000000000000000000000000000\n      dup2\n      mstore\n      0x04\n      add\n      tag_103\n      swap1\n      tag_61\n      jump\t// in\n    tag_103:\n      mload(0x40)\n      dup1\n      swap2\n      sub\n      swap1\n      revert\n    tag_102:\n        /* \"deg.sol\":2712:2740  DegreeApprovalStatus.Pending */\n      0x00\n        /* \"deg.sol\":2684:2740  students[_rollNo].status == DegreeApprovalStatus.Pending */\n      0x02\n      dup2\n      gt\n      iszero\n      tag_104\n      jumpi\n      tag_105\n      tag_64\n      jump\t// in\n    tag_105:\n    tag_104:\n        /* \"deg.sol\":2684:2692  students */\n      0x05\n        /* \"deg.sol\":2693:2700  _rollNo */\n      dup3\n        /* \"deg.sol\":2684:2701  students[_rollNo] */\n      mload(0x40)\n      tag_106\n      swap2\n      swap1\n      tag_66\n      jump\t// in\n    tag_106:\n      swap1\n      dup2\n      mstore\n      0x20\n      add\n      mload(0x40)\n      dup1\n      swap2\n      sub\n      swap1\n      keccak256\n        /* \"deg.sol\":2684:2708  students[_rollNo].status */\n      0x02\n      add\n      0x00\n      swap1\n      sload\n      swap1\n      0x0100\n      exp\n      swap1\n      div\n      0xff\n      and\n        /* \"deg.sol\":2684:2740  students[_rollNo].status == DegreeApprovalStatus.Pending */\n      0x02\n      dup2\n      gt\n      iszero\n      tag_107\n      jumpi\n      tag_108\n      tag_64\n      jump\t// in\n    tag_108:\n    tag_107:\n      eq\n        /* \"deg.sol\":2676:2789  require(students[_rollNo].status == DegreeApprovalStatus.Pending, \"Student not found or degree already approved\") */\n      tag_109\n      jumpi\n      mload(0x40)\n      0x08c379a000000000000000000000000000000000000000000000000000000000\n      dup2\n      mstore\n      0x04\n      add\n      tag_110\n      swap1\n      tag_71\n      jump\t// in\n    tag_110:\n      mload(0x40)\n      dup1\n      swap2\n      sub\n      swap1\n      revert\n    tag_109:\n        /* \"deg.sol\":2827:2856  DegreeApprovalStatus.Rejected */\n      0x02\n        /* \"deg.sol\":2800:2808  students */\n      0x05\n        /* \"deg.sol\":2809:2816  _rollNo */\n      dup3\n        /* \"deg.sol\":2800:2817  students[_rollNo] */\n      mload(0x40)\n      tag_111\n      swap2\n      swap1\n      tag_66\n      jump\t// in\n    tag_111:\n      swap1\n      dup2\n      mstore\n      0x20\n      add\n      mload(0x40)\n      dup1\n      swap2\n      sub\n      swap1\n      keccak256\n        /* \"deg.sol\":2800:2824  students[_rollNo].status */\n      0x02\n      add\n      0x00\n        /* \"deg.sol\":2800:2856  students[_rollNo].status = DegreeApprovalStatus.Rejected */\n      0x0100\n      exp\n      dup2\n      sload\n      dup2\n      0xff\n      mul\n      not\n      and\n      swap1\n      dup4\n      0x02\n      dup2\n      gt\n      iszero\n      tag_112\n      jumpi\n      tag_113\n      tag_64\n      jump\t// in\n    tag_113:\n    tag_112:\n      mul\n      or\n      swap1\n      sstore\n      pop\n        /* \"deg.sol\":2898:2905  _rollNo */\n      dup1\n        /* \"deg.sol\":2871:2937  DegreeApproval(msg.sender, _rollNo, DegreeApprovalStatus.Rejected) */\n      mload(0x40)\n      tag_114\n      swap2\n      swap1\n      tag_66\n      jump\t// in\n    tag_114:\n      mload(0x40)\n      dup1\n      swap2\n      sub\n      swap1\n      keccak256\n        /* \"deg.sol\":2886:2896  msg.sender */\n      caller\n        /* \"deg.sol\":2871:2937  DegreeApproval(msg.sender, _rollNo, DegreeApprovalStatus.Rejected) */\n      0xffffffffffffffffffffffffffffffffffffffff\n      and\n      0xb8c34c3cf12ba37da0c3168c33497d87bd576cfccc7846cfa40cf4a68bf57e4f\n        /* \"deg.sol\":2907:2936  DegreeApprovalStatus.Rejected */\n      0x02\n        /* \"deg.sol\":2871:2937  DegreeApproval(msg.sender, _rollNo, DegreeApprovalStatus.Rejected) */\n      mload(0x40)\n      tag_115\n      swap2\n      swap1\n      tag_81\n      jump\t// in\n    tag_115:\n      mload(0x40)\n      dup1\n      swap2\n      sub\n      swap1\n      log3\n        /* \"deg.sol\":2522:2944  function rejectDegree(string memory _rollNo) external onlyAuthorized {... */\n      pop\n      jump\t// out\n        /* \"deg.sol\":1207:1747  function addStudent(string memory _rollNo, string memory _name) external onlyAuthorized {... */\n    tag_42:\n        /* \"deg.sol\":1140:1152  isAuthorized */\n      0x04\n        /* \"deg.sol\":1140:1164  isAuthorized[msg.sender] */\n      0x00\n        /* \"deg.sol\":1153:1163  msg.sender */\n      caller\n        /* \"deg.sol\":1140:1164  isAuthorized[msg.sender] */\n      0xffffffffffffffffffffffffffffffffffffffff\n      and\n      0xffffffffffffffffffffffffffffffffffffffff\n      and\n      dup2\n      mstore\n      0x20\n      add\n      swap1\n      dup2\n      mstore\n      0x20\n      add\n      0x00\n      keccak256\n      0x00\n      swap1\n      sload\n      swap1\n      0x0100\n      exp\n      swap1\n      div\n      0xff\n      and\n        /* \"deg.sol\":1132:1183  require(isAuthorized[msg.sender], \"Not authorized\") */\n      tag_117\n      jumpi\n      mload(0x40)\n      0x08c379a000000000000000000000000000000000000000000000000000000000\n      dup2\n      mstore\n      0x04\n      add\n      tag_118\n      swap1\n      tag_57\n      jump\t// in\n    tag_118:\n      mload(0x40)\n      dup1\n      swap2\n      sub\n      swap1\n      revert\n    tag_117:\n        /* \"deg.sol\":1337:1338  0 */\n      0x00\n        /* \"deg.sol\":1319:1326  _rollNo */\n      dup3\n        /* \"deg.sol\":1313:1334  bytes(_rollNo).length */\n      mload\n        /* \"deg.sol\":1313:1338  bytes(_rollNo).length > 0 */\n      gt\n        /* \"deg.sol\":1305:1370  require(bytes(_rollNo).length > 0, \"Roll number cannot be empty\") */\n      tag_120\n      jumpi\n      mload(0x40)\n      0x08c379a000000000000000000000000000000000000000000000000000000000\n      dup2\n      mstore\n      0x04\n      add\n      tag_121\n      swap1\n      tag_61\n      jump\t// in\n    tag_121:\n      mload(0x40)\n      dup1\n      swap2\n      sub\n      swap1\n      revert\n    tag_120:\n        /* \"deg.sol\":1410:1411  0 */\n      0x00\n        /* \"deg.sol\":1394:1399  _name */\n      dup2\n        /* \"deg.sol\":1388:1407  bytes(_name).length */\n      mload\n        /* \"deg.sol\":1388:1411  bytes(_name).length > 0 */\n      gt\n        /* \"deg.sol\":1380:1436  require(bytes(_name).length > 0, \"Name cannot be empty\") */\n      tag_122\n      jumpi\n      mload(0x40)\n      0x08c379a000000000000000000000000000000000000000000000000000000000\n      dup2\n      mstore\n      0x04\n      add\n      tag_123\n      swap1\n      tag_124\n      jump\t// in\n    tag_123:\n      mload(0x40)\n      dup1\n      swap2\n      sub\n      swap1\n      revert\n    tag_122:\n        /* \"deg.sol\":1482:1510  DegreeApprovalStatus.Pending */\n      0x00\n        /* \"deg.sol\":1454:1510  students[_rollNo].status == DegreeApprovalStatus.Pending */\n      0x02\n      dup2\n      gt\n      iszero\n      tag_125\n      jumpi\n      tag_126\n      tag_64\n      jump\t// in\n    tag_126:\n    tag_125:\n        /* \"deg.sol\":1454:1462  students */\n      0x05\n        /* \"deg.sol\":1463:1470  _rollNo */\n      dup4\n        /* \"deg.sol\":1454:1471  students[_rollNo] */\n      mload(0x40)\n      tag_127\n      swap2\n      swap1\n      tag_66\n      jump\t// in\n    tag_127:\n      swap1\n      dup2\n      mstore\n      0x20\n      add\n      mload(0x40)\n      dup1\n      swap2\n      sub\n      swap1\n      keccak256\n        /* \"deg.sol\":1454:1478  students[_rollNo].status */\n      0x02\n      add\n      0x00\n      swap1\n      sload\n      swap1\n      0x0100\n      exp\n      swap1\n      div\n      0xff\n      and\n        /* \"deg.sol\":1454:1510  students[_rollNo].status == DegreeApprovalStatus.Pending */\n      0x02\n      dup2\n      gt\n      iszero\n      tag_128\n      jumpi\n      tag_129\n      tag_64\n      jump\t// in\n    tag_129:\n    tag_128:\n      eq\n        /* \"deg.sol\":1446:1537  require(students[_rollNo].status == DegreeApprovalStatus.Pending, \"Student already exists\") */\n      tag_130\n      jumpi\n      mload(0x40)\n      0x08c379a000000000000000000000000000000000000000000000000000000000\n      dup2\n      mstore\n      0x04\n      add\n      tag_131\n      swap1\n      tag_132\n      jump\t// in\n    tag_131:\n      mload(0x40)\n      dup1\n      swap2\n      sub\n      swap1\n      revert\n    tag_130:\n        /* \"deg.sol\":1576:1740  Student({... */\n      mload(0x40)\n      dup1\n      0x80\n      add\n      0x40\n      mstore\n      dup1\n        /* \"deg.sol\":1606:1613  _rollNo */\n      dup4\n        /* \"deg.sol\":1576:1740  Student({... */\n      dup2\n      mstore\n      0x20\n      add\n        /* \"deg.sol\":1633:1638  _name */\n      dup3\n        /* \"deg.sol\":1576:1740  Student({... */\n      dup2\n      mstore\n      0x20\n      add\n        /* \"deg.sol\":1660:1688  DegreeApprovalStatus.Pending */\n      0x00\n        /* \"deg.sol\":1576:1740  Student({... */\n      0x02\n      dup2\n      gt\n      iszero\n      tag_133\n      jumpi\n      tag_134\n      tag_64\n      jump\t// in\n    tag_134:\n    tag_133:\n      dup2\n      mstore\n      0x20\n      add\n        /* \"deg.sol\":1727:1728  0 */\n      0x00\n        /* \"deg.sol\":1713:1729  new address[](0) */\n      0xffffffffffffffff\n      dup2\n      gt\n      iszero\n      tag_135\n      jumpi\n      tag_136\n      tag_137\n      jump\t// in\n    tag_136:\n    tag_135:\n      mload(0x40)\n      swap1\n      dup1\n      dup3\n      mstore\n      dup1\n      0x20\n      mul\n      0x20\n      add\n      dup3\n      add\n      0x40\n      mstore\n      dup1\n      iszero\n      tag_138\n      jumpi\n      dup2\n      0x20\n      add\n      0x20\n      dup3\n      mul\n      dup1\n      calldatasize\n      dup4\n      calldatacopy\n      dup1\n      dup3\n      add\n      swap2\n      pop\n      pop\n      swap1\n      pop\n    tag_138:\n      pop\n        /* \"deg.sol\":1576:1740  Student({... */\n      dup2\n      mstore\n      pop\n        /* \"deg.sol\":1556:1564  students */\n      0x05\n        /* \"deg.sol\":1565:1572  _rollNo */\n      dup4\n        /* \"deg.sol\":1556:1573  students[_rollNo] */\n      mload(0x40)\n      tag_139\n      swap2\n      swap1\n      tag_66\n      jump\t// in\n    tag_139:\n      swap1\n      dup2\n      mstore\n      0x20\n      add\n      mload(0x40)\n      dup1\n      swap2\n      sub\n      swap1\n      keccak256\n        /* \"deg.sol\":1556:1740  students[_rollNo] = Student({... */\n      0x00\n      dup3\n      add\n      mload\n      dup2\n      0x00\n      add\n      swap1\n      dup2\n      tag_140\n      swap2\n      swap1\n      tag_141\n      jump\t// in\n    tag_140:\n      pop\n      0x20\n      dup3\n      add\n      mload\n      dup2\n      0x01\n      add\n      swap1\n      dup2\n      tag_142\n      swap2\n      swap1\n      tag_141\n      jump\t// in\n    tag_142:\n      pop\n      0x40\n      dup3\n      add\n      mload\n      dup2\n      0x02\n      add\n      exp(0x0100, 0x00)\n      dup2\n      sload\n      dup2\n      0xff\n      mul\n      not\n      and\n      swap1\n      dup4\n      0x02\n      dup2\n      gt\n      iszero\n      tag_143\n      jumpi\n      tag_144\n      tag_64\n      jump\t// in\n    tag_144:\n    tag_143:\n      mul\n      or\n      swap1\n      sstore\n      pop\n      0x60\n      dup3\n      add\n      mload\n      dup2\n      0x03\n      add\n      swap1\n      dup1\n      mload\n      swap1\n      0x20\n      add\n      swap1\n      tag_145\n      swap3\n      swap2\n      swap1\n      tag_146\n      jump\t// in\n    tag_145:\n      pop\n      swap1\n      pop\n      pop\n        /* \"deg.sol\":1207:1747  function addStudent(string memory _rollNo, string memory _name) external onlyAuthorized {... */\n      pop\n      pop\n      jump\t// out\n        /* \"deg.sol\":163:188  address public chancellor */\n    tag_44:\n      0x02\n      0x00\n      swap1\n      sload\n      swap1\n      0x0100\n      exp\n      swap1\n      div\n      0xffffffffffffffffffffffffffffffffffffffff\n      and\n      dup2\n      jump\t// out\n        /* \"deg.sol\":128:157  address public viceChancellor */\n    tag_47:\n      0x01\n      0x00\n      swap1\n      sload\n      swap1\n      0x0100\n      exp\n      swap1\n      div\n      0xffffffffffffffffffffffffffffffffffffffff\n      and\n      dup2\n      jump\t// out\n        /* \"deg.sol\":430:474  mapping(address => bool) public isAuthorized */\n    tag_52:\n      mstore(0x20, 0x04)\n      dup1\n      0x00\n      mstore\n      keccak256(0x00, 0x40)\n      0x00\n      swap2\n      pop\n      sload\n      swap1\n      0x0100\n      exp\n      swap1\n      div\n      0xff\n      and\n      dup2\n      jump\t// out\n    tag_146:\n      dup3\n      dup1\n      sload\n      dup3\n      dup3\n      sstore\n      swap1\n      0x00\n      mstore\n      keccak256(0x00, 0x20)\n      swap1\n      dup2\n      add\n      swap3\n      dup3\n      iszero\n      tag_147\n      jumpi\n      swap2\n      0x20\n      mul\n      dup3\n      add\n    tag_148:\n      dup3\n      dup2\n      gt\n      iszero\n      tag_149\n      jumpi\n      dup3\n      mload\n      dup3\n      exp(0x0100, 0x00)\n      dup2\n      sload\n      dup2\n      0xffffffffffffffffffffffffffffffffffffffff\n      mul\n      not\n      and\n      swap1\n      dup4\n      0xffffffffffffffffffffffffffffffffffffffff\n      and\n      mul\n      or\n      swap1\n      sstore\n      pop\n      swap2\n      0x20\n      add\n      swap2\n      swap1\n      0x01\n      add\n      swap1\n      jump(tag_148)\n    tag_149:\n    tag_147:\n      pop\n      swap1\n      pop\n      tag_150\n      swap2\n      swap1\n      tag_151\n      jump\t// in\n    tag_150:\n      pop\n      swap1\n      jump\t// out\n    tag_151:\n    tag_152:\n      dup1\n      dup3\n      gt\n      iszero\n      tag_153\n      jumpi\n      0x00\n      dup2\n      0x00\n      swap1\n      sstore\n      pop\n      0x01\n      add\n      jump(tag_152)\n    tag_153:\n      pop\n      swap1\n      jump\t// out\n        /* \"#utility.yul\":7:133   */\n    tag_154:\n        /* \"#utility.yul\":44:51   */\n      0x00\n        /* \"#utility.yul\":84:126   */\n      0xffffffffffffffffffffffffffffffffffffffff\n        /* \"#utility.yul\":77:82   */\n      dup3\n        /* \"#utility.yul\":73:127   */\n      and\n        /* \"#utility.yul\":62:127   */\n      swap1\n      pop\n        /* \"#utility.yul\":7:133   */\n      swap2\n      swap1\n      pop\n      jump\t// out\n        /* \"#utility.yul\":139:235   */\n    tag_155:\n        /* \"#utility.yul\":176:183   */\n      0x00\n        /* \"#utility.yul\":205:229   */\n      tag_215\n        /* \"#utility.yul\":223:228   */\n      dup3\n        /* \"#utility.yul\":205:229   */\n      tag_154\n      jump\t// in\n    tag_215:\n        /* \"#utility.yul\":194:229   */\n      swap1\n      pop\n        /* \"#utility.yul\":139:235   */\n      swap2\n      swap1\n      pop\n      jump\t// out\n        /* \"#utility.yul\":241:359   */\n    tag_156:\n        /* \"#utility.yul\":328:352   */\n      tag_217\n        /* \"#utility.yul\":346:351   */\n      dup2\n        /* \"#utility.yul\":328:352   */\n      tag_155\n      jump\t// in\n    tag_217:\n        /* \"#utility.yul\":323:326   */\n      dup3\n        /* \"#utility.yul\":316:353   */\n      mstore\n        /* \"#utility.yul\":241:359   */\n      pop\n      pop\n      jump\t// out\n        /* \"#utility.yul\":365:587   */\n    tag_17:\n        /* \"#utility.yul\":458:462   */\n      0x00\n        /* \"#utility.yul\":496:498   */\n      0x20\n        /* \"#utility.yul\":485:494   */\n      dup3\n        /* \"#utility.yul\":481:499   */\n      add\n        /* \"#utility.yul\":473:499   */\n      swap1\n      pop\n        /* \"#utility.yul\":509:580   */\n      tag_219\n        /* \"#utility.yul\":577:578   */\n      0x00\n        /* \"#utility.yul\":566:575   */\n      dup4\n        /* \"#utility.yul\":562:579   */\n      add\n        /* \"#utility.yul\":553:559   */\n      dup5\n        /* \"#utility.yul\":509:580   */\n      tag_156\n      jump\t// in\n    tag_219:\n        /* \"#utility.yul\":365:587   */\n      swap3\n      swap2\n      pop\n      pop\n      jump\t// out\n        /* \"#utility.yul\":593:668   */\n    tag_157:\n        /* \"#utility.yul\":626:632   */\n      0x00\n        /* \"#utility.yul\":659:661   */\n      0x40\n        /* \"#utility.yul\":653:662   */\n      mload\n        /* \"#utility.yul\":643:662   */\n      swap1\n      pop\n        /* \"#utility.yul\":593:668   */\n      swap1\n      jump\t// out\n        /* \"#utility.yul\":674:791   */\n    tag_158:\n        /* \"#utility.yul\":783:784   */\n      0x00\n        /* \"#utility.yul\":780:781   */\n      dup1\n        /* \"#utility.yul\":773:785   */\n      revert\n        /* \"#utility.yul\":797:914   */\n    tag_159:\n        /* \"#utility.yul\":906:907   */\n      0x00\n        /* \"#utility.yul\":903:904   */\n      dup1\n        /* \"#utility.yul\":896:908   */\n      revert\n        /* \"#utility.yul\":920:1037   */\n    tag_160:\n        /* \"#utility.yul\":1029:1030   */\n      0x00\n        /* \"#utility.yul\":1026:1027   */\n      dup1\n        /* \"#utility.yul\":1019:1031   */\n      revert\n        /* \"#utility.yul\":1043:1160   */\n    tag_161:\n        /* \"#utility.yul\":1152:1153   */\n      0x00\n        /* \"#utility.yul\":1149:1150   */\n      dup1\n        /* \"#utility.yul\":1142:1154   */\n      revert\n        /* \"#utility.yul\":1166:1268   */\n    tag_162:\n        /* \"#utility.yul\":1207:1213   */\n      0x00\n        /* \"#utility.yul\":1258:1260   */\n      0x1f\n        /* \"#utility.yul\":1254:1261   */\n      not\n        /* \"#utility.yul\":1249:1251   */\n      0x1f\n        /* \"#utility.yul\":1242:1247   */\n      dup4\n        /* \"#utility.yul\":1238:1252   */\n      add\n        /* \"#utility.yul\":1234:1262   */\n      and\n        /* \"#utility.yul\":1224:1262   */\n      swap1\n      pop\n        /* \"#utility.yul\":1166:1268   */\n      swap2\n      swap1\n      pop\n      jump\t// out\n        /* \"#utility.yul\":1274:1454   */\n    tag_137:\n        /* \"#utility.yul\":1322:1399   */\n      0x4e487b7100000000000000000000000000000000000000000000000000000000\n        /* \"#utility.yul\":1319:1320   */\n      0x00\n        /* \"#utility.yul\":1312:1400   */\n      mstore\n        /* \"#utility.yul\":1419:1423   */\n      0x41\n        /* \"#utility.yul\":1416:1417   */\n      0x04\n        /* \"#utility.yul\":1409:1424   */\n      mstore\n        /* \"#utility.yul\":1443:1447   */\n      0x24\n        /* \"#utility.yul\":1440:1441   */\n      0x00\n        /* \"#utility.yul\":1433:1448   */\n      revert\n        /* \"#utility.yul\":1460:1741   */\n    tag_163:\n        /* \"#utility.yul\":1543:1570   */\n      tag_228\n        /* \"#utility.yul\":1565:1569   */\n      dup3\n        /* \"#utility.yul\":1543:1570   */\n      tag_162\n      jump\t// in\n    tag_228:\n        /* \"#utility.yul\":1535:1541   */\n      dup2\n        /* \"#utility.yul\":1531:1571   */\n      add\n        /* \"#utility.yul\":1673:1679   */\n      dup2\n        /* \"#utility.yul\":1661:1671   */\n      dup2\n        /* \"#utility.yul\":1658:1680   */\n      lt\n        /* \"#utility.yul\":1637:1655   */\n      0xffffffffffffffff\n        /* \"#utility.yul\":1625:1635   */\n      dup3\n        /* \"#utility.yul\":1622:1656   */\n      gt\n        /* \"#utility.yul\":1619:1681   */\n      or\n        /* \"#utility.yul\":1616:1704   */\n      iszero\n      tag_229\n      jumpi\n        /* \"#utility.yul\":1684:1702   */\n      tag_230\n      tag_137\n      jump\t// in\n    tag_230:\n        /* \"#utility.yul\":1616:1704   */\n    tag_229:\n        /* \"#utility.yul\":1724:1734   */\n      dup1\n        /* \"#utility.yul\":1720:1722   */\n      0x40\n        /* \"#utility.yul\":1713:1735   */\n      mstore\n        /* \"#utility.yul\":1503:1741   */\n      pop\n        /* \"#utility.yul\":1460:1741   */\n      pop\n      pop\n      jump\t// out\n        /* \"#utility.yul\":1747:1876   */\n    tag_164:\n        /* \"#utility.yul\":1781:1787   */\n      0x00\n        /* \"#utility.yul\":1808:1828   */\n      tag_232\n      tag_157\n      jump\t// in\n    tag_232:\n        /* \"#utility.yul\":1798:1828   */\n      swap1\n      pop\n        /* \"#utility.yul\":1837:1870   */\n      tag_233\n        /* \"#utility.yul\":1865:1869   */\n      dup3\n        /* \"#utility.yul\":1857:1863   */\n      dup3\n        /* \"#utility.yul\":1837:1870   */\n      tag_163\n      jump\t// in\n    tag_233:\n        /* \"#utility.yul\":1747:1876   */\n      swap2\n      swap1\n      pop\n      jump\t// out\n        /* \"#utility.yul\":1882:2190   */\n    tag_165:\n        /* \"#utility.yul\":1944:1948   */\n      0x00\n        /* \"#utility.yul\":2034:2052   */\n      0xffffffffffffffff\n        /* \"#utility.yul\":2026:2032   */\n      dup3\n        /* \"#utility.yul\":2023:2053   */\n      gt\n        /* \"#utility.yul\":2020:2076   */\n      iszero\n      tag_235\n      jumpi\n        /* \"#utility.yul\":2056:2074   */\n      tag_236\n      tag_137\n      jump\t// in\n    tag_236:\n        /* \"#utility.yul\":2020:2076   */\n    tag_235:\n        /* \"#utility.yul\":2094:2123   */\n      tag_237\n        /* \"#utility.yul\":2116:2122   */\n      dup3\n        /* \"#utility.yul\":2094:2123   */\n      tag_162\n      jump\t// in\n    tag_237:\n        /* \"#utility.yul\":2086:2123   */\n      swap1\n      pop\n        /* \"#utility.yul\":2178:2182   */\n      0x20\n        /* \"#utility.yul\":2172:2176   */\n      dup2\n        /* \"#utility.yul\":2168:2183   */\n      add\n        /* \"#utility.yul\":2160:2183   */\n      swap1\n      pop\n        /* \"#utility.yul\":1882:2190   */\n      swap2\n      swap1\n      pop\n      jump\t// out\n        /* \"#utility.yul\":2196:2342   */\n    tag_166:\n        /* \"#utility.yul\":2293:2299   */\n      dup3\n        /* \"#utility.yul\":2288:2291   */\n      dup2\n        /* \"#utility.yul\":2283:2286   */\n      dup4\n        /* \"#utility.yul\":2270:2300   */\n      calldatacopy\n        /* \"#utility.yul\":2334:2335   */\n      0x00\n        /* \"#utility.yul\":2325:2331   */\n      dup4\n        /* \"#utility.yul\":2320:2323   */\n      dup4\n        /* \"#utility.yul\":2316:2332   */\n      add\n        /* \"#utility.yul\":2309:2336   */\n      mstore\n        /* \"#utility.yul\":2196:2342   */\n      pop\n      pop\n      pop\n      jump\t// out\n        /* \"#utility.yul\":2348:2773   */\n    tag_167:\n        /* \"#utility.yul\":2426:2431   */\n      0x00\n        /* \"#utility.yul\":2451:2517   */\n      tag_240\n        /* \"#utility.yul\":2467:2516   */\n      tag_241\n        /* \"#utility.yul\":2509:2515   */\n      dup5\n        /* \"#utility.yul\":2467:2516   */\n      tag_165\n      jump\t// in\n    tag_241:\n        /* \"#utility.yul\":2451:2517   */\n      tag_164\n      jump\t// in\n    tag_240:\n        /* \"#utility.yul\":2442:2517   */\n      swap1\n      pop\n        /* \"#utility.yul\":2540:2546   */\n      dup3\n        /* \"#utility.yul\":2533:2538   */\n      dup2\n        /* \"#utility.yul\":2526:2547   */\n      mstore\n        /* \"#utility.yul\":2578:2582   */\n      0x20\n        /* \"#utility.yul\":2571:2576   */\n      dup2\n        /* \"#utility.yul\":2567:2583   */\n      add\n        /* \"#utility.yul\":2616:2619   */\n      dup5\n        /* \"#utility.yul\":2607:2613   */\n      dup5\n        /* \"#utility.yul\":2602:2605   */\n      dup5\n        /* \"#utility.yul\":2598:2614   */\n      add\n        /* \"#utility.yul\":2595:2620   */\n      gt\n        /* \"#utility.yul\":2592:2704   */\n      iszero\n      tag_242\n      jumpi\n        /* \"#utility.yul\":2623:2702   */\n      tag_243\n      tag_161\n      jump\t// in\n    tag_243:\n        /* \"#utility.yul\":2592:2704   */\n    tag_242:\n        /* \"#utility.yul\":2713:2767   */\n      tag_244\n        /* \"#utility.yul\":2760:2766   */\n      dup5\n        /* \"#utility.yul\":2755:2758   */\n      dup3\n        /* \"#utility.yul\":2750:2753   */\n      dup6\n        /* \"#utility.yul\":2713:2767   */\n      tag_166\n      jump\t// in\n    tag_244:\n        /* \"#utility.yul\":2432:2773   */\n      pop\n        /* \"#utility.yul\":2348:2773   */\n      swap4\n      swap3\n      pop\n      pop\n      pop\n      jump\t// out\n        /* \"#utility.yul\":2793:3133   */\n    tag_168:\n        /* \"#utility.yul\":2849:2854   */\n      0x00\n        /* \"#utility.yul\":2898:2901   */\n      dup3\n        /* \"#utility.yul\":2891:2895   */\n      0x1f\n        /* \"#utility.yul\":2883:2889   */\n      dup4\n        /* \"#utility.yul\":2879:2896   */\n      add\n        /* \"#utility.yul\":2875:2902   */\n      slt\n        /* \"#utility.yul\":2865:2987   */\n      tag_246\n      jumpi\n        /* \"#utility.yul\":2906:2985   */\n      tag_247\n      tag_160\n      jump\t// in\n    tag_247:\n        /* \"#utility.yul\":2865:2987   */\n    tag_246:\n        /* \"#utility.yul\":3023:3029   */\n      dup2\n        /* \"#utility.yul\":3010:3030   */\n      calldataload\n        /* \"#utility.yul\":3048:3127   */\n      tag_248\n        /* \"#utility.yul\":3123:3126   */\n      dup5\n        /* \"#utility.yul\":3115:3121   */\n      dup3\n        /* \"#utility.yul\":3108:3112   */\n      0x20\n        /* \"#utility.yul\":3100:3106   */\n      dup7\n        /* \"#utility.yul\":3096:3113   */\n      add\n        /* \"#utility.yul\":3048:3127   */\n      tag_167\n      jump\t// in\n    tag_248:\n        /* \"#utility.yul\":3039:3127   */\n      swap2\n      pop\n        /* \"#utility.yul\":2855:3133   */\n      pop\n        /* \"#utility.yul\":2793:3133   */\n      swap3\n      swap2\n      pop\n      pop\n      jump\t// out\n        /* \"#utility.yul\":3139:3261   */\n    tag_169:\n        /* \"#utility.yul\":3212:3236   */\n      tag_250\n        /* \"#utility.yul\":3230:3235   */\n      dup2\n        /* \"#utility.yul\":3212:3236   */\n      tag_155\n      jump\t// in\n    tag_250:\n        /* \"#utility.yul\":3205:3210   */\n      dup2\n        /* \"#utility.yul\":3202:3237   */\n      eq\n        /* \"#utility.yul\":3192:3255   */\n      tag_251\n      jumpi\n        /* \"#utility.yul\":3251:3252   */\n      0x00\n        /* \"#utility.yul\":3248:3249   */\n      dup1\n        /* \"#utility.yul\":3241:3253   */\n      revert\n        /* \"#utility.yul\":3192:3255   */\n    tag_251:\n        /* \"#utility.yul\":3139:3261   */\n      pop\n      jump\t// out\n        /* \"#utility.yul\":3267:3406   */\n    tag_170:\n        /* \"#utility.yul\":3313:3318   */\n      0x00\n        /* \"#utility.yul\":3351:3357   */\n      dup2\n        /* \"#utility.yul\":3338:3358   */\n      calldataload\n        /* \"#utility.yul\":3329:3358   */\n      swap1\n      pop\n        /* \"#utility.yul\":3367:3400   */\n      tag_253\n        /* \"#utility.yul\":3394:3399   */\n      dup2\n        /* \"#utility.yul\":3367:3400   */\n      tag_169\n      jump\t// in\n    tag_253:\n        /* \"#utility.yul\":3267:3406   */\n      swap3\n      swap2\n      pop\n      pop\n      jump\t// out\n        /* \"#utility.yul\":3412:4066   */\n    tag_20:\n        /* \"#utility.yul\":3490:3496   */\n      0x00\n        /* \"#utility.yul\":3498:3504   */\n      dup1\n        /* \"#utility.yul\":3547:3549   */\n      0x40\n        /* \"#utility.yul\":3535:3544   */\n      dup4\n        /* \"#utility.yul\":3526:3533   */\n      dup6\n        /* \"#utility.yul\":3522:3545   */\n      sub\n        /* \"#utility.yul\":3518:3550   */\n      slt\n        /* \"#utility.yul\":3515:3634   */\n      iszero\n      tag_255\n      jumpi\n        /* \"#utility.yul\":3553:3632   */\n      tag_256\n      tag_158\n      jump\t// in\n    tag_256:\n        /* \"#utility.yul\":3515:3634   */\n    tag_255:\n        /* \"#utility.yul\":3701:3702   */\n      0x00\n        /* \"#utility.yul\":3690:3699   */\n      dup4\n        /* \"#utility.yul\":3686:3703   */\n      add\n        /* \"#utility.yul\":3673:3704   */\n      calldataload\n        /* \"#utility.yul\":3731:3749   */\n      0xffffffffffffffff\n        /* \"#utility.yul\":3723:3729   */\n      dup2\n        /* \"#utility.yul\":3720:3750   */\n      gt\n        /* \"#utility.yul\":3717:3834   */\n      iszero\n      tag_257\n      jumpi\n        /* \"#utility.yul\":3753:3832   */\n      tag_258\n      tag_159\n      jump\t// in\n    tag_258:\n        /* \"#utility.yul\":3717:3834   */\n    tag_257:\n        /* \"#utility.yul\":3858:3921   */\n      tag_259\n        /* \"#utility.yul\":3913:3920   */\n      dup6\n        /* \"#utility.yul\":3904:3910   */\n      dup3\n        /* \"#utility.yul\":3893:3902   */\n      dup7\n        /* \"#utility.yul\":3889:3911   */\n      add\n        /* \"#utility.yul\":3858:3921   */\n      tag_168\n      jump\t// in\n    tag_259:\n        /* \"#utility.yul\":3848:3921   */\n      swap3\n      pop\n        /* \"#utility.yul\":3644:3931   */\n      pop\n        /* \"#utility.yul\":3970:3972   */\n      0x20\n        /* \"#utility.yul\":3996:4049   */\n      tag_260\n        /* \"#utility.yul\":4041:4048   */\n      dup6\n        /* \"#utility.yul\":4032:4038   */\n      dup3\n        /* \"#utility.yul\":4021:4030   */\n      dup7\n        /* \"#utility.yul\":4017:4039   */\n      add\n        /* \"#utility.yul\":3996:4049   */\n      tag_170\n      jump\t// in\n    tag_260:\n        /* \"#utility.yul\":3986:4049   */\n      swap2\n      pop\n        /* \"#utility.yul\":3941:4059   */\n      pop\n        /* \"#utility.yul\":3412:4066   */\n      swap3\n      pop\n      swap3\n      swap1\n      pop\n      jump\t// out\n        /* \"#utility.yul\":4072:4162   */\n    tag_171:\n        /* \"#utility.yul\":4106:4113   */\n      0x00\n        /* \"#utility.yul\":4149:4154   */\n      dup2\n        /* \"#utility.yul\":4142:4155   */\n      iszero\n        /* \"#utility.yul\":4135:4156   */\n      iszero\n        /* \"#utility.yul\":4124:4156   */\n      swap1\n      pop\n        /* \"#utility.yul\":4072:4162   */\n      swap2\n      swap1\n      pop\n      jump\t// out\n        /* \"#utility.yul\":4168:4277   */\n    tag_172:\n        /* \"#utility.yul\":4249:4270   */\n      tag_263\n        /* \"#utility.yul\":4264:4269   */\n      dup2\n        /* \"#utility.yul\":4249:4270   */\n      tag_171\n      jump\t// in\n    tag_263:\n        /* \"#utility.yul\":4244:4247   */\n      dup3\n        /* \"#utility.yul\":4237:4271   */\n      mstore\n        /* \"#utility.yul\":4168:4277   */\n      pop\n      pop\n      jump\t// out\n        /* \"#utility.yul\":4283:4493   */\n    tag_23:\n        /* \"#utility.yul\":4370:4374   */\n      0x00\n        /* \"#utility.yul\":4408:4410   */\n      0x20\n        /* \"#utility.yul\":4397:4406   */\n      dup3\n        /* \"#utility.yul\":4393:4411   */\n      add\n        /* \"#utility.yul\":4385:4411   */\n      swap1\n      pop\n        /* \"#utility.yul\":4421:4486   */\n      tag_265\n        /* \"#utility.yul\":4483:4484   */\n      0x00\n        /* \"#utility.yul\":4472:4481   */\n      dup4\n        /* \"#utility.yul\":4468:4485   */\n      add\n        /* \"#utility.yul\":4459:4465   */\n      dup5\n        /* \"#utility.yul\":4421:4486   */\n      tag_172\n      jump\t// in\n    tag_265:\n        /* \"#utility.yul\":4283:4493   */\n      swap3\n      swap2\n      pop\n      pop\n      jump\t// out\n        /* \"#utility.yul\":4499:5008   */\n    tag_29:\n        /* \"#utility.yul\":4568:4574   */\n      0x00\n        /* \"#utility.yul\":4617:4619   */\n      0x20\n        /* \"#utility.yul\":4605:4614   */\n      dup3\n        /* \"#utility.yul\":4596:4603   */\n      dup5\n        /* \"#utility.yul\":4592:4615   */\n      sub\n        /* \"#utility.yul\":4588:4620   */\n      slt\n        /* \"#utility.yul\":4585:4704   */\n      iszero\n      tag_267\n      jumpi\n        /* \"#utility.yul\":4623:4702   */\n      tag_268\n      tag_158\n      jump\t// in\n    tag_268:\n        /* \"#utility.yul\":4585:4704   */\n    tag_267:\n        /* \"#utility.yul\":4771:4772   */\n      0x00\n        /* \"#utility.yul\":4760:4769   */\n      dup3\n        /* \"#utility.yul\":4756:4773   */\n      add\n        /* \"#utility.yul\":4743:4774   */\n      calldataload\n        /* \"#utility.yul\":4801:4819   */\n      0xffffffffffffffff\n        /* \"#utility.yul\":4793:4799   */\n      dup2\n        /* \"#utility.yul\":4790:4820   */\n      gt\n        /* \"#utility.yul\":4787:4904   */\n      iszero\n      tag_269\n      jumpi\n        /* \"#utility.yul\":4823:4902   */\n      tag_270\n      tag_159\n      jump\t// in\n    tag_270:\n        /* \"#utility.yul\":4787:4904   */\n    tag_269:\n        /* \"#utility.yul\":4928:4991   */\n      tag_271\n        /* \"#utility.yul\":4983:4990   */\n      dup5\n        /* \"#utility.yul\":4974:4980   */\n      dup3\n        /* \"#utility.yul\":4963:4972   */\n      dup6\n        /* \"#utility.yul\":4959:4981   */\n      add\n        /* \"#utility.yul\":4928:4991   */\n      tag_168\n      jump\t// in\n    tag_271:\n        /* \"#utility.yul\":4918:4991   */\n      swap2\n      pop\n        /* \"#utility.yul\":4714:5001   */\n      pop\n        /* \"#utility.yul\":4499:5008   */\n      swap3\n      swap2\n      pop\n      pop\n      jump\t// out\n        /* \"#utility.yul\":5014:5113   */\n    tag_173:\n        /* \"#utility.yul\":5066:5072   */\n      0x00\n        /* \"#utility.yul\":5100:5105   */\n      dup2\n        /* \"#utility.yul\":5094:5106   */\n      mload\n        /* \"#utility.yul\":5084:5106   */\n      swap1\n      pop\n        /* \"#utility.yul\":5014:5113   */\n      swap2\n      swap1\n      pop\n      jump\t// out\n        /* \"#utility.yul\":5119:5288   */\n    tag_174:\n        /* \"#utility.yul\":5203:5214   */\n      0x00\n        /* \"#utility.yul\":5237:5243   */\n      dup3\n        /* \"#utility.yul\":5232:5235   */\n      dup3\n        /* \"#utility.yul\":5225:5244   */\n      mstore\n        /* \"#utility.yul\":5277:5281   */\n      0x20\n        /* \"#utility.yul\":5272:5275   */\n      dup3\n        /* \"#utility.yul\":5268:5282   */\n      add\n        /* \"#utility.yul\":5253:5282   */\n      swap1\n      pop\n        /* \"#utility.yul\":5119:5288   */\n      swap3\n      swap2\n      pop\n      pop\n      jump\t// out\n        /* \"#utility.yul\":5294:5540   */\n    tag_175:\n        /* \"#utility.yul\":5375:5376   */\n      0x00\n        /* \"#utility.yul\":5385:5498   */\n    tag_275:\n        /* \"#utility.yul\":5399:5405   */\n      dup4\n        /* \"#utility.yul\":5396:5397   */\n      dup2\n        /* \"#utility.yul\":5393:5406   */\n      lt\n        /* \"#utility.yul\":5385:5498   */\n      iszero\n      tag_277\n      jumpi\n        /* \"#utility.yul\":5484:5485   */\n      dup1\n        /* \"#utility.yul\":5479:5482   */\n      dup3\n        /* \"#utility.yul\":5475:5486   */\n      add\n        /* \"#utility.yul\":5469:5487   */\n      mload\n        /* \"#utility.yul\":5465:5466   */\n      dup2\n        /* \"#utility.yul\":5460:5463   */\n      dup5\n        /* \"#utility.yul\":5456:5467   */\n      add\n        /* \"#utility.yul\":5449:5488   */\n      mstore\n        /* \"#utility.yul\":5421:5423   */\n      0x20\n        /* \"#utility.yul\":5418:5419   */\n      dup2\n        /* \"#utility.yul\":5414:5424   */\n      add\n        /* \"#utility.yul\":5409:5424   */\n      swap1\n      pop\n        /* \"#utility.yul\":5385:5498   */\n      jump(tag_275)\n    tag_277:\n        /* \"#utility.yul\":5532:5533   */\n      0x00\n        /* \"#utility.yul\":5523:5529   */\n      dup5\n        /* \"#utility.yul\":5518:5521   */\n      dup5\n        /* \"#utility.yul\":5514:5530   */\n      add\n        /* \"#utility.yul\":5507:5534   */\n      mstore\n        /* \"#utility.yul\":5356:5540   */\n      pop\n        /* \"#utility.yul\":5294:5540   */\n      pop\n      pop\n      pop\n      jump\t// out\n        /* \"#utility.yul\":5546:5923   */\n    tag_176:\n        /* \"#utility.yul\":5634:5637   */\n      0x00\n        /* \"#utility.yul\":5662:5701   */\n      tag_279\n        /* \"#utility.yul\":5695:5700   */\n      dup3\n        /* \"#utility.yul\":5662:5701   */\n      tag_173\n      jump\t// in\n    tag_279:\n        /* \"#utility.yul\":5717:5788   */\n      tag_280\n        /* \"#utility.yul\":5781:5787   */\n      dup2\n        /* \"#utility.yul\":5776:5779   */\n      dup6\n        /* \"#utility.yul\":5717:5788   */\n      tag_174\n      jump\t// in\n    tag_280:\n        /* \"#utility.yul\":5710:5788   */\n      swap4\n      pop\n        /* \"#utility.yul\":5797:5862   */\n      tag_281\n        /* \"#utility.yul\":5855:5861   */\n      dup2\n        /* \"#utility.yul\":5850:5853   */\n      dup6\n        /* \"#utility.yul\":5843:5847   */\n      0x20\n        /* \"#utility.yul\":5836:5841   */\n      dup7\n        /* \"#utility.yul\":5832:5848   */\n      add\n        /* \"#utility.yul\":5797:5862   */\n      tag_175\n      jump\t// in\n    tag_281:\n        /* \"#utility.yul\":5887:5916   */\n      tag_282\n        /* \"#utility.yul\":5909:5915   */\n      dup2\n        /* \"#utility.yul\":5887:5916   */\n      tag_162\n      jump\t// in\n    tag_282:\n        /* \"#utility.yul\":5882:5885   */\n      dup5\n        /* \"#utility.yul\":5878:5917   */\n      add\n        /* \"#utility.yul\":5871:5917   */\n      swap2\n      pop\n        /* \"#utility.yul\":5638:5923   */\n      pop\n        /* \"#utility.yul\":5546:5923   */\n      swap3\n      swap2\n      pop\n      pop\n      jump\t// out\n        /* \"#utility.yul\":5929:6109   */\n    tag_64:\n        /* \"#utility.yul\":5977:6054   */\n      0x4e487b7100000000000000000000000000000000000000000000000000000000\n        /* \"#utility.yul\":5974:5975   */\n      0x00\n        /* \"#utility.yul\":5967:6055   */\n      mstore\n        /* \"#utility.yul\":6074:6078   */\n      0x21\n        /* \"#utility.yul\":6071:6072   */\n      0x04\n        /* \"#utility.yul\":6064:6079   */\n      mstore\n        /* \"#utility.yul\":6098:6102   */\n      0x24\n        /* \"#utility.yul\":6095:6096   */\n      0x00\n        /* \"#utility.yul\":6088:6103   */\n      revert\n        /* \"#utility.yul\":6115:6243   */\n    tag_177:\n        /* \"#utility.yul\":6211:6212   */\n      0x03\n        /* \"#utility.yul\":6204:6209   */\n      dup2\n        /* \"#utility.yul\":6201:6213   */\n      lt\n        /* \"#utility.yul\":6191:6237   */\n      tag_285\n      jumpi\n        /* \"#utility.yul\":6217:6235   */\n      tag_286\n      tag_64\n      jump\t// in\n    tag_286:\n        /* \"#utility.yul\":6191:6237   */\n    tag_285:\n        /* \"#utility.yul\":6115:6243   */\n      pop\n      jump\t// out\n        /* \"#utility.yul\":6249:6406   */\n    tag_178:\n        /* \"#utility.yul\":6309:6316   */\n      0x00\n        /* \"#utility.yul\":6338:6343   */\n      dup2\n        /* \"#utility.yul\":6327:6343   */\n      swap1\n      pop\n        /* \"#utility.yul\":6344:6400   */\n      tag_288\n        /* \"#utility.yul\":6394:6399   */\n      dup3\n        /* \"#utility.yul\":6344:6400   */\n      tag_177\n      jump\t// in\n    tag_288:\n        /* \"#utility.yul\":6249:6406   */\n      swap2\n      swap1\n      pop\n      jump\t// out\n        /* \"#utility.yul\":6412:6569   */\n    tag_179:\n        /* \"#utility.yul\":6483:6492   */\n      0x00\n        /* \"#utility.yul\":6516:6563   */\n      tag_290\n        /* \"#utility.yul\":6557:6562   */\n      dup3\n        /* \"#utility.yul\":6516:6563   */\n      tag_178\n      jump\t// in\n    tag_290:\n        /* \"#utility.yul\":6503:6563   */\n      swap1\n      pop\n        /* \"#utility.yul\":6412:6569   */\n      swap2\n      swap1\n      pop\n      jump\t// out\n        /* \"#utility.yul\":6575:6748   */\n    tag_180:\n        /* \"#utility.yul\":6683:6741   */\n      tag_292\n        /* \"#utility.yul\":6735:6740   */\n      dup2\n        /* \"#utility.yul\":6683:6741   */\n      tag_179\n      jump\t// in\n    tag_292:\n        /* \"#utility.yul\":6678:6681   */\n      dup3\n        /* \"#utility.yul\":6671:6742   */\n      mstore\n        /* \"#utility.yul\":6575:6748   */\n      pop\n      pop\n      jump\t// out\n        /* \"#utility.yul\":6754:7420   */\n    tag_35:\n        /* \"#utility.yul\":6964:6968   */\n      0x00\n        /* \"#utility.yul\":7002:7004   */\n      0x60\n        /* \"#utility.yul\":6991:7000   */\n      dup3\n        /* \"#utility.yul\":6987:7005   */\n      add\n        /* \"#utility.yul\":6979:7005   */\n      swap1\n      pop\n        /* \"#utility.yul\":7051:7060   */\n      dup2\n        /* \"#utility.yul\":7045:7049   */\n      dup2\n        /* \"#utility.yul\":7041:7061   */\n      sub\n        /* \"#utility.yul\":7037:7038   */\n      0x00\n        /* \"#utility.yul\":7026:7035   */\n      dup4\n        /* \"#utility.yul\":7022:7039   */\n      add\n        /* \"#utility.yul\":7015:7062   */\n      mstore\n        /* \"#utility.yul\":7079:7157   */\n      tag_294\n        /* \"#utility.yul\":7152:7156   */\n      dup2\n        /* \"#utility.yul\":7143:7149   */\n      dup7\n        /* \"#utility.yul\":7079:7157   */\n      tag_176\n      jump\t// in\n    tag_294:\n        /* \"#utility.yul\":7071:7157   */\n      swap1\n      pop\n        /* \"#utility.yul\":7204:7213   */\n      dup2\n        /* \"#utility.yul\":7198:7202   */\n      dup2\n        /* \"#utility.yul\":7194:7214   */\n      sub\n        /* \"#utility.yul\":7189:7191   */\n      0x20\n        /* \"#utility.yul\":7178:7187   */\n      dup4\n        /* \"#utility.yul\":7174:7192   */\n      add\n        /* \"#utility.yul\":7167:7215   */\n      mstore\n        /* \"#utility.yul\":7232:7310   */\n      tag_295\n        /* \"#utility.yul\":7305:7309   */\n      dup2\n        /* \"#utility.yul\":7296:7302   */\n      dup6\n        /* \"#utility.yul\":7232:7310   */\n      tag_176\n      jump\t// in\n    tag_295:\n        /* \"#utility.yul\":7224:7310   */\n      swap1\n      pop\n        /* \"#utility.yul\":7320:7413   */\n      tag_296\n        /* \"#utility.yul\":7409:7411   */\n      0x40\n        /* \"#utility.yul\":7398:7407   */\n      dup4\n        /* \"#utility.yul\":7394:7412   */\n      add\n        /* \"#utility.yul\":7385:7391   */\n      dup5\n        /* \"#utility.yul\":7320:7413   */\n      tag_180\n      jump\t// in\n    tag_296:\n        /* \"#utility.yul\":6754:7420   */\n      swap5\n      swap4\n      pop\n      pop\n      pop\n      pop\n      jump\t// out\n        /* \"#utility.yul\":7426:8260   */\n    tag_41:\n        /* \"#utility.yul\":7514:7520   */\n      0x00\n        /* \"#utility.yul\":7522:7528   */\n      dup1\n        /* \"#utility.yul\":7571:7573   */\n      0x40\n        /* \"#utility.yul\":7559:7568   */\n      dup4\n        /* \"#utility.yul\":7550:7557   */\n      dup6\n        /* \"#utility.yul\":7546:7569   */\n      sub\n        /* \"#utility.yul\":7542:7574   */\n      slt\n        /* \"#utility.yul\":7539:7658   */\n      iszero\n      tag_298\n      jumpi\n        /* \"#utility.yul\":7577:7656   */\n      tag_299\n      tag_158\n      jump\t// in\n    tag_299:\n        /* \"#utility.yul\":7539:7658   */\n    tag_298:\n        /* \"#utility.yul\":7725:7726   */\n      0x00\n        /* \"#utility.yul\":7714:7723   */\n      dup4\n        /* \"#utility.yul\":7710:7727   */\n      add\n        /* \"#utility.yul\":7697:7728   */\n      calldataload\n        /* \"#utility.yul\":7755:7773   */\n      0xffffffffffffffff\n        /* \"#utility.yul\":7747:7753   */\n      dup2\n        /* \"#utility.yul\":7744:7774   */\n      gt\n        /* \"#utility.yul\":7741:7858   */\n      iszero\n      tag_300\n      jumpi\n        /* \"#utility.yul\":7777:7856   */\n      tag_301\n      tag_159\n      jump\t// in\n    tag_301:\n        /* \"#utility.yul\":7741:7858   */\n    tag_300:\n        /* \"#utility.yul\":7882:7945   */\n      tag_302\n        /* \"#utility.yul\":7937:7944   */\n      dup6\n        /* \"#utility.yul\":7928:7934   */\n      dup3\n        /* \"#utility.yul\":7917:7926   */\n      dup7\n        /* \"#utility.yul\":7913:7935   */\n      add\n        /* \"#utility.yul\":7882:7945   */\n      tag_168\n      jump\t// in\n    tag_302:\n        /* \"#utility.yul\":7872:7945   */\n      swap3\n      pop\n        /* \"#utility.yul\":7668:7955   */\n      pop\n        /* \"#utility.yul\":8022:8024   */\n      0x20\n        /* \"#utility.yul\":8011:8020   */\n      dup4\n        /* \"#utility.yul\":8007:8025   */\n      add\n        /* \"#utility.yul\":7994:8026   */\n      calldataload\n        /* \"#utility.yul\":8053:8071   */\n      0xffffffffffffffff\n        /* \"#utility.yul\":8045:8051   */\n      dup2\n        /* \"#utility.yul\":8042:8072   */\n      gt\n        /* \"#utility.yul\":8039:8156   */\n      iszero\n      tag_303\n      jumpi\n        /* \"#utility.yul\":8075:8154   */\n      tag_304\n      tag_159\n      jump\t// in\n    tag_304:\n        /* \"#utility.yul\":8039:8156   */\n    tag_303:\n        /* \"#utility.yul\":8180:8243   */\n      tag_305\n        /* \"#utility.yul\":8235:8242   */\n      dup6\n        /* \"#utility.yul\":8226:8232   */\n      dup3\n        /* \"#utility.yul\":8215:8224   */\n      dup7\n        /* \"#utility.yul\":8211:8233   */\n      add\n        /* \"#utility.yul\":8180:8243   */\n      tag_168\n      jump\t// in\n    tag_305:\n        /* \"#utility.yul\":8170:8243   */\n      swap2\n      pop\n        /* \"#utility.yul\":7965:8253   */\n      pop\n        /* \"#utility.yul\":7426:8260   */\n      swap3\n      pop\n      swap3\n      swap1\n      pop\n      jump\t// out\n        /* \"#utility.yul\":8266:8595   */\n    tag_51:\n        /* \"#utility.yul\":8325:8331   */\n      0x00\n        /* \"#utility.yul\":8374:8376   */\n      0x20\n        /* \"#utility.yul\":8362:8371   */\n      dup3\n        /* \"#utility.yul\":8353:8360   */\n      dup5\n        /* \"#utility.yul\":8349:8372   */\n      sub\n        /* \"#utility.yul\":8345:8377   */\n      slt\n        /* \"#utility.yul\":8342:8461   */\n      iszero\n      tag_307\n      jumpi\n        /* \"#utility.yul\":8380:8459   */\n      tag_308\n      tag_158\n      jump\t// in\n    tag_308:\n        /* \"#utility.yul\":8342:8461   */\n    tag_307:\n        /* \"#utility.yul\":8500:8501   */\n      0x00\n        /* \"#utility.yul\":8525:8578   */\n      tag_309\n        /* \"#utility.yul\":8570:8577   */\n      dup5\n        /* \"#utility.yul\":8561:8567   */\n      dup3\n        /* \"#utility.yul\":8550:8559   */\n      dup6\n        /* \"#utility.yul\":8546:8568   */\n      add\n        /* \"#utility.yul\":8525:8578   */\n      tag_170\n      jump\t// in\n    tag_309:\n        /* \"#utility.yul\":8515:8578   */\n      swap2\n      pop\n        /* \"#utility.yul\":8471:8588   */\n      pop\n        /* \"#utility.yul\":8266:8595   */\n      swap3\n      swap2\n      pop\n      pop\n      jump\t// out\n        /* \"#utility.yul\":8601:8765   */\n    tag_181:\n        /* \"#utility.yul\":8741:8757   */\n      0x4e6f7420617574686f72697a6564000000000000000000000000000000000000\n        /* \"#utility.yul\":8737:8738   */\n      0x00\n        /* \"#utility.yul\":8729:8735   */\n      dup3\n        /* \"#utility.yul\":8725:8739   */\n      add\n        /* \"#utility.yul\":8718:8758   */\n      mstore\n        /* \"#utility.yul\":8601:8765   */\n      pop\n      jump\t// out\n        /* \"#utility.yul\":8771:9137   */\n    tag_182:\n        /* \"#utility.yul\":8913:8916   */\n      0x00\n        /* \"#utility.yul\":8934:9001   */\n      tag_312\n        /* \"#utility.yul\":8998:9000   */\n      0x0e\n        /* \"#utility.yul\":8993:8996   */\n      dup4\n        /* \"#utility.yul\":8934:9001   */\n      tag_174\n      jump\t// in\n    tag_312:\n        /* \"#utility.yul\":8927:9001   */\n      swap2\n      pop\n        /* \"#utility.yul\":9010:9103   */\n      tag_313\n        /* \"#utility.yul\":9099:9102   */\n      dup3\n        /* \"#utility.yul\":9010:9103   */\n      tag_181\n      jump\t// in\n    tag_313:\n        /* \"#utility.yul\":9128:9130   */\n      0x20\n        /* \"#utility.yul\":9123:9126   */\n      dup3\n        /* \"#utility.yul\":9119:9131   */\n      add\n        /* \"#utility.yul\":9112:9131   */\n      swap1\n      pop\n        /* \"#utility.yul\":8771:9137   */\n      swap2\n      swap1\n      pop\n      jump\t// out\n        /* \"#utility.yul\":9143:9562   */\n    tag_57:\n        /* \"#utility.yul\":9309:9313   */\n      0x00\n        /* \"#utility.yul\":9347:9349   */\n      0x20\n        /* \"#utility.yul\":9336:9345   */\n      dup3\n        /* \"#utility.yul\":9332:9350   */\n      add\n        /* \"#utility.yul\":9324:9350   */\n      swap1\n      pop\n        /* \"#utility.yul\":9396:9405   */\n      dup2\n        /* \"#utility.yul\":9390:9394   */\n      dup2\n        /* \"#utility.yul\":9386:9406   */\n      sub\n        /* \"#utility.yul\":9382:9383   */\n      0x00\n        /* \"#utility.yul\":9371:9380   */\n      dup4\n        /* \"#utility.yul\":9367:9384   */\n      add\n        /* \"#utility.yul\":9360:9407   */\n      mstore\n        /* \"#utility.yul\":9424:9555   */\n      tag_315\n        /* \"#utility.yul\":9550:9554   */\n      dup2\n        /* \"#utility.yul\":9424:9555   */\n      tag_182\n      jump\t// in\n    tag_315:\n        /* \"#utility.yul\":9416:9555   */\n      swap1\n      pop\n        /* \"#utility.yul\":9143:9562   */\n      swap2\n      swap1\n      pop\n      jump\t// out\n        /* \"#utility.yul\":9568:9745   */\n    tag_183:\n        /* \"#utility.yul\":9708:9737   */\n      0x526f6c6c206e756d6265722063616e6e6f7420626520656d7074790000000000\n        /* \"#utility.yul\":9704:9705   */\n      0x00\n        /* \"#utility.yul\":9696:9702   */\n      dup3\n        /* \"#utility.yul\":9692:9706   */\n      add\n        /* \"#utility.yul\":9685:9738   */\n      mstore\n        /* \"#utility.yul\":9568:9745   */\n      pop\n      jump\t// out\n        /* \"#utility.yul\":9751:10117   */\n    tag_184:\n        /* \"#utility.yul\":9893:9896   */\n      0x00\n        /* \"#utility.yul\":9914:9981   */\n      tag_318\n        /* \"#utility.yul\":9978:9980   */\n      0x1b\n        /* \"#utility.yul\":9973:9976   */\n      dup4\n        /* \"#utility.yul\":9914:9981   */\n      tag_174\n      jump\t// in\n    tag_318:\n        /* \"#utility.yul\":9907:9981   */\n      swap2\n      pop\n        /* \"#utility.yul\":9990:10083   */\n      tag_319\n        /* \"#utility.yul\":10079:10082   */\n      dup3\n        /* \"#utility.yul\":9990:10083   */\n      tag_183\n      jump\t// in\n    tag_319:\n        /* \"#utility.yul\":10108:10110   */\n      0x20\n        /* \"#utility.yul\":10103:10106   */\n      dup3\n        /* \"#utility.yul\":10099:10111   */\n      add\n        /* \"#utility.yul\":10092:10111   */\n      swap1\n      pop\n        /* \"#utility.yul\":9751:10117   */\n      swap2\n      swap1\n      pop\n      jump\t// out\n        /* \"#utility.yul\":10123:10542   */\n    tag_61:\n        /* \"#utility.yul\":10289:10293   */\n      0x00\n        /* \"#utility.yul\":10327:10329   */\n      0x20\n        /* \"#utility.yul\":10316:10325   */\n      dup3\n        /* \"#utility.yul\":10312:10330   */\n      add\n        /* \"#utility.yul\":10304:10330   */\n      swap1\n      pop\n        /* \"#utility.yul\":10376:10385   */\n      dup2\n        /* \"#utility.yul\":10370:10374   */\n      dup2\n        /* \"#utility.yul\":10366:10386   */\n      sub\n        /* \"#utility.yul\":10362:10363   */\n      0x00\n        /* \"#utility.yul\":10351:10360   */\n      dup4\n        /* \"#utility.yul\":10347:10364   */\n      add\n        /* \"#utility.yul\":10340:10387   */\n      mstore\n        /* \"#utility.yul\":10404:10535   */\n      tag_321\n        /* \"#utility.yul\":10530:10534   */\n      dup2\n        /* \"#utility.yul\":10404:10535   */\n      tag_184\n      jump\t// in\n    tag_321:\n        /* \"#utility.yul\":10396:10535   */\n      swap1\n      pop\n        /* \"#utility.yul\":10123:10542   */\n      swap2\n      swap1\n      pop\n      jump\t// out\n        /* \"#utility.yul\":10548:10696   */\n    tag_185:\n        /* \"#utility.yul\":10650:10661   */\n      0x00\n        /* \"#utility.yul\":10687:10690   */\n      dup2\n        /* \"#utility.yul\":10672:10690   */\n      swap1\n      pop\n        /* \"#utility.yul\":10548:10696   */\n      swap3\n      swap2\n      pop\n      pop\n      jump\t// out\n        /* \"#utility.yul\":10702:11092   */\n    tag_186:\n        /* \"#utility.yul\":10808:10811   */\n      0x00\n        /* \"#utility.yul\":10836:10875   */\n      tag_324\n        /* \"#utility.yul\":10869:10874   */\n      dup3\n        /* \"#utility.yul\":10836:10875   */\n      tag_173\n      jump\t// in\n    tag_324:\n        /* \"#utility.yul\":10891:10980   */\n      tag_325\n        /* \"#utility.yul\":10973:10979   */\n      dup2\n        /* \"#utility.yul\":10968:10971   */\n      dup6\n        /* \"#utility.yul\":10891:10980   */\n      tag_185\n      jump\t// in\n    tag_325:\n        /* \"#utility.yul\":10884:10980   */\n      swap4\n      pop\n        /* \"#utility.yul\":10989:11054   */\n      tag_326\n        /* \"#utility.yul\":11047:11053   */\n      dup2\n        /* \"#utility.yul\":11042:11045   */\n      dup6\n        /* \"#utility.yul\":11035:11039   */\n      0x20\n        /* \"#utility.yul\":11028:11033   */\n      dup7\n        /* \"#utility.yul\":11024:11040   */\n      add\n        /* \"#utility.yul\":10989:11054   */\n      tag_175\n      jump\t// in\n    tag_326:\n        /* \"#utility.yul\":11079:11085   */\n      dup1\n        /* \"#utility.yul\":11074:11077   */\n      dup5\n        /* \"#utility.yul\":11070:11086   */\n      add\n        /* \"#utility.yul\":11063:11086   */\n      swap2\n      pop\n        /* \"#utility.yul\":10812:11092   */\n      pop\n        /* \"#utility.yul\":10702:11092   */\n      swap3\n      swap2\n      pop\n      pop\n      jump\t// out\n        /* \"#utility.yul\":11098:11373   */\n    tag_66:\n        /* \"#utility.yul\":11230:11233   */\n      0x00\n        /* \"#utility.yul\":11252:11347   */\n      tag_328\n        /* \"#utility.yul\":11343:11346   */\n      dup3\n        /* \"#utility.yul\":11334:11340   */\n      dup5\n        /* \"#utility.yul\":11252:11347   */\n      tag_186\n      jump\t// in\n    tag_328:\n        /* \"#utility.yul\":11245:11347   */\n      swap2\n      pop\n        /* \"#utility.yul\":11364:11367   */\n      dup2\n        /* \"#utility.yul\":11357:11367   */\n      swap1\n      pop\n        /* \"#utility.yul\":11098:11373   */\n      swap3\n      swap2\n      pop\n      pop\n      jump\t// out\n        /* \"#utility.yul\":11379:11610   */\n    tag_187:\n        /* \"#utility.yul\":11519:11553   */\n      0x53747564656e74206e6f7420666f756e64206f722064656772656520616c7265\n        /* \"#utility.yul\":11515:11516   */\n      0x00\n        /* \"#utility.yul\":11507:11513   */\n      dup3\n        /* \"#utility.yul\":11503:11517   */\n      add\n        /* \"#utility.yul\":11496:11554   */\n      mstore\n        /* \"#utility.yul\":11588:11602   */\n      0x61647920617070726f7665640000000000000000000000000000000000000000\n        /* \"#utility.yul\":11583:11585   */\n      0x20\n        /* \"#utility.yul\":11575:11581   */\n      dup3\n        /* \"#utility.yul\":11571:11586   */\n      add\n        /* \"#utility.yul\":11564:11603   */\n      mstore\n        /* \"#utility.yul\":11379:11610   */\n      pop\n      jump\t// out\n        /* \"#utility.yul\":11616:11982   */\n    tag_188:\n        /* \"#utility.yul\":11758:11761   */\n      0x00\n        /* \"#utility.yul\":11779:11846   */\n      tag_331\n        /* \"#utility.yul\":11843:11845   */\n      0x2c\n        /* \"#utility.yul\":11838:11841   */\n      dup4\n        /* \"#utility.yul\":11779:11846   */\n      tag_174\n      jump\t// in\n    tag_331:\n        /* \"#utility.yul\":11772:11846   */\n      swap2\n      pop\n        /* \"#utility.yul\":11855:11948   */\n      tag_332\n        /* \"#utility.yul\":11944:11947   */\n      dup3\n        /* \"#utility.yul\":11855:11948   */\n      tag_187\n      jump\t// in\n    tag_332:\n        /* \"#utility.yul\":11973:11975   */\n      0x40\n        /* \"#utility.yul\":11968:11971   */\n      dup3\n        /* \"#utility.yul\":11964:11976   */\n      add\n        /* \"#utility.yul\":11957:11976   */\n      swap1\n      pop\n        /* \"#utility.yul\":11616:11982   */\n      swap2\n      swap1\n      pop\n      jump\t// out\n        /* \"#utility.yul\":11988:12407   */\n    tag_71:\n        /* \"#utility.yul\":12154:12158   */\n      0x00\n        /* \"#utility.yul\":12192:12194   */\n      0x20\n        /* \"#utility.yul\":12181:12190   */\n      dup3\n        /* \"#utility.yul\":12177:12195   */\n      add\n        /* \"#utility.yul\":12169:12195   */\n      swap1\n      pop\n        /* \"#utility.yul\":12241:12250   */\n      dup2\n        /* \"#utility.yul\":12235:12239   */\n      dup2\n        /* \"#utility.yul\":12231:12251   */\n      sub\n        /* \"#utility.yul\":12227:12228   */\n      0x00\n        /* \"#utility.yul\":12216:12225   */\n      dup4\n        /* \"#utility.yul\":12212:12229   */\n      add\n        /* \"#utility.yul\":12205:12252   */\n      mstore\n        /* \"#utility.yul\":12269:12400   */\n      tag_334\n        /* \"#utility.yul\":12395:12399   */\n      dup2\n        /* \"#utility.yul\":12269:12400   */\n      tag_188\n      jump\t// in\n    tag_334:\n        /* \"#utility.yul\":12261:12400   */\n      swap1\n      pop\n        /* \"#utility.yul\":11988:12407   */\n      swap2\n      swap1\n      pop\n      jump\t// out\n        /* \"#utility.yul\":12413:12579   */\n    tag_189:\n        /* \"#utility.yul\":12553:12571   */\n      0x416c726561647920617070726f76656400000000000000000000000000000000\n        /* \"#utility.yul\":12549:12550   */\n      0x00\n        /* \"#utility.yul\":12541:12547   */\n      dup3\n        /* \"#utility.yul\":12537:12551   */\n      add\n        /* \"#utility.yul\":12530:12572   */\n      mstore\n        /* \"#utility.yul\":12413:12579   */\n      pop\n      jump\t// out\n        /* \"#utility.yul\":12585:12951   */\n    tag_190:\n        /* \"#utility.yul\":12727:12730   */\n      0x00\n        /* \"#utility.yul\":12748:12815   */\n      tag_337\n        /* \"#utility.yul\":12812:12814   */\n      0x10\n        /* \"#utility.yul\":12807:12810   */\n      dup4\n        /* \"#utility.yul\":12748:12815   */\n      tag_174\n      jump\t// in\n    tag_337:\n        /* \"#utility.yul\":12741:12815   */\n      swap2\n      pop\n        /* \"#utility.yul\":12824:12917   */\n      tag_338\n        /* \"#utility.yul\":12913:12916   */\n      dup3\n        /* \"#utility.yul\":12824:12917   */\n      tag_189\n      jump\t// in\n    tag_338:\n        /* \"#utility.yul\":12942:12944   */\n      0x20\n        /* \"#utility.yul\":12937:12940   */\n      dup3\n        /* \"#utility.yul\":12933:12945   */\n      add\n        /* \"#utility.yul\":12926:12945   */\n      swap1\n      pop\n        /* \"#utility.yul\":12585:12951   */\n      swap2\n      swap1\n      pop\n      jump\t// out\n        /* \"#utility.yul\":12957:13376   */\n    tag_75:\n        /* \"#utility.yul\":13123:13127   */\n      0x00\n        /* \"#utility.yul\":13161:13163   */\n      0x20\n        /* \"#utility.yul\":13150:13159   */\n      dup3\n        /* \"#utility.yul\":13146:13164   */\n      add\n        /* \"#utility.yul\":13138:13164   */\n      swap1\n      pop\n        /* \"#utility.yul\":13210:13219   */\n      dup2\n        /* \"#utility.yul\":13204:13208   */\n      dup2\n        /* \"#utility.yul\":13200:13220   */\n      sub\n        /* \"#utility.yul\":13196:13197   */\n      0x00\n        /* \"#utility.yul\":13185:13194   */\n      dup4\n        /* \"#utility.yul\":13181:13198   */\n      add\n        /* \"#utility.yul\":13174:13221   */\n      mstore\n        /* \"#utility.yul\":13238:13369   */\n      tag_340\n        /* \"#utility.yul\":13364:13368   */\n      dup2\n        /* \"#utility.yul\":13238:13369   */\n      tag_190\n      jump\t// in\n    tag_340:\n        /* \"#utility.yul\":13230:13369   */\n      swap1\n      pop\n        /* \"#utility.yul\":12957:13376   */\n      swap2\n      swap1\n      pop\n      jump\t// out\n        /* \"#utility.yul\":13382:13646   */\n    tag_81:\n        /* \"#utility.yul\":13496:13500   */\n      0x00\n        /* \"#utility.yul\":13534:13536   */\n      0x20\n        /* \"#utility.yul\":13523:13532   */\n      dup3\n        /* \"#utility.yul\":13519:13537   */\n      add\n        /* \"#utility.yul\":13511:13537   */\n      swap1\n      pop\n        /* \"#utility.yul\":13547:13639   */\n      tag_342\n        /* \"#utility.yul\":13636:13637   */\n      0x00\n        /* \"#utility.yul\":13625:13634   */\n      dup4\n        /* \"#utility.yul\":13621:13638   */\n      add\n        /* \"#utility.yul\":13612:13618   */\n      dup5\n        /* \"#utility.yul\":13547:13639   */\n      tag_180\n      jump\t// in\n    tag_342:\n        /* \"#utility.yul\":13382:13646   */\n      swap3\n      swap2\n      pop\n      pop\n      jump\t// out\n        /* \"#utility.yul\":13652:13832   */\n    tag_191:\n        /* \"#utility.yul\":13700:13777   */\n      0x4e487b7100000000000000000000000000000000000000000000000000000000\n        /* \"#utility.yul\":13697:13698   */\n      0x00\n        /* \"#utility.yul\":13690:13778   */\n      mstore\n        /* \"#utility.yul\":13797:13801   */\n      0x22\n        /* \"#utility.yul\":13794:13795   */\n      0x04\n        /* \"#utility.yul\":13787:13802   */\n      mstore\n        /* \"#utility.yul\":13821:13825   */\n      0x24\n        /* \"#utility.yul\":13818:13819   */\n      0x00\n        /* \"#utility.yul\":13811:13826   */\n      revert\n        /* \"#utility.yul\":13838:14158   */\n    tag_88:\n        /* \"#utility.yul\":13882:13888   */\n      0x00\n        /* \"#utility.yul\":13919:13920   */\n      0x02\n        /* \"#utility.yul\":13913:13917   */\n      dup3\n        /* \"#utility.yul\":13909:13921   */\n      div\n        /* \"#utility.yul\":13899:13921   */\n      swap1\n      pop\n        /* \"#utility.yul\":13966:13967   */\n      0x01\n        /* \"#utility.yul\":13960:13964   */\n      dup3\n        /* \"#utility.yul\":13956:13968   */\n      and\n        /* \"#utility.yul\":13987:14005   */\n      dup1\n        /* \"#utility.yul\":13977:14058   */\n      tag_345\n      jumpi\n        /* \"#utility.yul\":14043:14047   */\n      0x7f\n        /* \"#utility.yul\":14035:14041   */\n      dup3\n        /* \"#utility.yul\":14031:14048   */\n      and\n        /* \"#utility.yul\":14021:14048   */\n      swap2\n      pop\n        /* \"#utility.yul\":13977:14058   */\n    tag_345:\n        /* \"#utility.yul\":14105:14107   */\n      0x20\n        /* \"#utility.yul\":14097:14103   */\n      dup3\n        /* \"#utility.yul\":14094:14108   */\n      lt\n        /* \"#utility.yul\":14074:14092   */\n      dup2\n        /* \"#utility.yul\":14071:14109   */\n      sub\n        /* \"#utility.yul\":14068:14152   */\n      tag_346\n      jumpi\n        /* \"#utility.yul\":14124:14142   */\n      tag_347\n      tag_191\n      jump\t// in\n    tag_347:\n        /* \"#utility.yul\":14068:14152   */\n    tag_346:\n        /* \"#utility.yul\":13889:14158   */\n      pop\n        /* \"#utility.yul\":13838:14158   */\n      swap2\n      swap1\n      pop\n      jump\t// out\n        /* \"#utility.yul\":14164:14334   */\n    tag_192:\n        /* \"#utility.yul\":14304:14326   */\n      0x4e616d652063616e6e6f7420626520656d707479000000000000000000000000\n        /* \"#utility.yul\":14300:14301   */\n      0x00\n        /* \"#utility.yul\":14292:14298   */\n      dup3\n        /* \"#utility.yul\":14288:14302   */\n      add\n        /* \"#utility.yul\":14281:14327   */\n      mstore\n        /* \"#utility.yul\":14164:14334   */\n      pop\n      jump\t// out\n        /* \"#utility.yul\":14340:14706   */\n    tag_193:\n        /* \"#utility.yul\":14482:14485   */\n      0x00\n        /* \"#utility.yul\":14503:14570   */\n      tag_350\n        /* \"#utility.yul\":14567:14569   */\n      0x14\n        /* \"#utility.yul\":14562:14565   */\n      dup4\n        /* \"#utility.yul\":14503:14570   */\n      tag_174\n      jump\t// in\n    tag_350:\n        /* \"#utility.yul\":14496:14570   */\n      swap2\n      pop\n        /* \"#utility.yul\":14579:14672   */\n      tag_351\n        /* \"#utility.yul\":14668:14671   */\n      dup3\n        /* \"#utility.yul\":14579:14672   */\n      tag_192\n      jump\t// in\n    tag_351:\n        /* \"#utility.yul\":14697:14699   */\n      0x20\n        /* \"#utility.yul\":14692:14695   */\n      dup3\n        /* \"#utility.yul\":14688:14700   */\n      add\n        /* \"#utility.yul\":14681:14700   */\n      swap1\n      pop\n        /* \"#utility.yul\":14340:14706   */\n      swap2\n      swap1\n      pop\n      jump\t// out\n        /* \"#utility.yul\":14712:15131   */\n    tag_124:\n        /* \"#utility.yul\":14878:14882   */\n      0x00\n        /* \"#utility.yul\":14916:14918   */\n      0x20\n        /* \"#utility.yul\":14905:14914   */\n      dup3\n        /* \"#utility.yul\":14901:14919   */\n      add\n        /* \"#utility.yul\":14893:14919   */\n      swap1\n      pop\n        /* \"#utility.yul\":14965:14974   */\n      dup2\n        /* \"#utility.yul\":14959:14963   */\n      dup2\n        /* \"#utility.yul\":14955:14975   */\n      sub\n        /* \"#utility.yul\":14951:14952   */\n      0x00\n        /* \"#utility.yul\":14940:14949   */\n      dup4\n        /* \"#utility.yul\":14936:14953   */\n      add\n        /* \"#utility.yul\":14929:14976   */\n      mstore\n        /* \"#utility.yul\":14993:15124   */\n      tag_353\n        /* \"#utility.yul\":15119:15123   */\n      dup2\n        /* \"#utility.yul\":14993:15124   */\n      tag_193\n      jump\t// in\n    tag_353:\n        /* \"#utility.yul\":14985:15124   */\n      swap1\n      pop\n        /* \"#utility.yul\":14712:15131   */\n      swap2\n      swap1\n      pop\n      jump\t// out\n        /* \"#utility.yul\":15137:15309   */\n    tag_194:\n        /* \"#utility.yul\":15277:15301   */\n      0x53747564656e7420616c72656164792065786973747300000000000000000000\n        /* \"#utility.yul\":15273:15274   */\n      0x00\n        /* \"#utility.yul\":15265:15271   */\n      dup3\n        /* \"#utility.yul\":15261:15275   */\n      add\n        /* \"#utility.yul\":15254:15302   */\n      mstore\n        /* \"#utility.yul\":15137:15309   */\n      pop\n      jump\t// out\n        /* \"#utility.yul\":15315:15681   */\n    tag_195:\n        /* \"#utility.yul\":15457:15460   */\n      0x00\n        /* \"#utility.yul\":15478:15545   */\n      tag_356\n        /* \"#utility.yul\":15542:15544   */\n      0x16\n        /* \"#utility.yul\":15537:15540   */\n      dup4\n        /* \"#utility.yul\":15478:15545   */\n      tag_174\n      jump\t// in\n    tag_356:\n        /* \"#utility.yul\":15471:15545   */\n      swap2\n      pop\n        /* \"#utility.yul\":15554:15647   */\n      tag_357\n        /* \"#utility.yul\":15643:15646   */\n      dup3\n        /* \"#utility.yul\":15554:15647   */\n      tag_194\n      jump\t// in\n    tag_357:\n        /* \"#utility.yul\":15672:15674   */\n      0x20\n        /* \"#utility.yul\":15667:15670   */\n      dup3\n        /* \"#utility.yul\":15663:15675   */\n      add\n        /* \"#utility.yul\":15656:15675   */\n      swap1\n      pop\n        /* \"#utility.yul\":15315:15681   */\n      swap2\n      swap1\n      pop\n      jump\t// out\n        /* \"#utility.yul\":15687:16106   */\n    tag_132:\n        /* \"#utility.yul\":15853:15857   */\n      0x00\n        /* \"#utility.yul\":15891:15893   */\n      0x20\n        /* \"#utility.yul\":15880:15889   */\n      dup3\n        /* \"#utility.yul\":15876:15894   */\n      add\n        /* \"#utility.yul\":15868:15894   */\n      swap1\n      pop\n        /* \"#utility.yul\":15940:15949   */\n      dup2\n        /* \"#utility.yul\":15934:15938   */\n      dup2\n        /* \"#utility.yul\":15930:15950   */\n      sub\n        /* \"#utility.yul\":15926:15927   */\n      0x00\n        /* \"#utility.yul\":15915:15924   */\n      dup4\n        /* \"#utility.yul\":15911:15928   */\n      add\n        /* \"#utility.yul\":15904:15951   */\n      mstore\n        /* \"#utility.yul\":15968:16099   */\n      tag_359\n        /* \"#utility.yul\":16094:16098   */\n      dup2\n        /* \"#utility.yul\":15968:16099   */\n      tag_195\n      jump\t// in\n    tag_359:\n        /* \"#utility.yul\":15960:16099   */\n      swap1\n      pop\n        /* \"#utility.yul\":15687:16106   */\n      swap2\n      swap1\n      pop\n      jump\t// out\n        /* \"#utility.yul\":16112:16253   */\n    tag_196:\n        /* \"#utility.yul\":16161:16165   */\n      0x00\n        /* \"#utility.yul\":16184:16187   */\n      dup2\n        /* \"#utility.yul\":16176:16187   */\n      swap1\n      pop\n        /* \"#utility.yul\":16207:16210   */\n      dup2\n        /* \"#utility.yul\":16204:16205   */\n      0x00\n        /* \"#utility.yul\":16197:16211   */\n      mstore\n        /* \"#utility.yul\":16241:16245   */\n      0x20\n        /* \"#utility.yul\":16238:16239   */\n      0x00\n        /* \"#utility.yul\":16228:16246   */\n      keccak256\n        /* \"#utility.yul\":16220:16246   */\n      swap1\n      pop\n        /* \"#utility.yul\":16112:16253   */\n      swap2\n      swap1\n      pop\n      jump\t// out\n        /* \"#utility.yul\":16259:16352   */\n    tag_197:\n        /* \"#utility.yul\":16296:16302   */\n      0x00\n        /* \"#utility.yul\":16343:16345   */\n      0x20\n        /* \"#utility.yul\":16338:16340   */\n      0x1f\n        /* \"#utility.yul\":16331:16336   */\n      dup4\n        /* \"#utility.yul\":16327:16341   */\n      add\n        /* \"#utility.yul\":16323:16346   */\n      div\n        /* \"#utility.yul\":16313:16346   */\n      swap1\n      pop\n        /* \"#utility.yul\":16259:16352   */\n      swap2\n      swap1\n      pop\n      jump\t// out\n        /* \"#utility.yul\":16358:16465   */\n    tag_198:\n        /* \"#utility.yul\":16402:16410   */\n      0x00\n        /* \"#utility.yul\":16452:16457   */\n      dup3\n        /* \"#utility.yul\":16446:16450   */\n      dup3\n        /* \"#utility.yul\":16442:16458   */\n      shl\n        /* \"#utility.yul\":16421:16458   */\n      swap1\n      pop\n        /* \"#utility.yul\":16358:16465   */\n      swap3\n      swap2\n      pop\n      pop\n      jump\t// out\n        /* \"#utility.yul\":16471:16864   */\n    tag_199:\n        /* \"#utility.yul\":16540:16546   */\n      0x00\n        /* \"#utility.yul\":16590:16591   */\n      0x08\n        /* \"#utility.yul\":16578:16588   */\n      dup4\n        /* \"#utility.yul\":16574:16592   */\n      mul\n        /* \"#utility.yul\":16613:16710   */\n      tag_364\n        /* \"#utility.yul\":16643:16709   */\n      0xffffffffffffffffffffffffffffffffffffffffffffffffffffffffffffffff\n        /* \"#utility.yul\":16632:16641   */\n      dup3\n        /* \"#utility.yul\":16613:16710   */\n      tag_198\n      jump\t// in\n    tag_364:\n        /* \"#utility.yul\":16731:16770   */\n      tag_365\n        /* \"#utility.yul\":16761:16769   */\n      dup7\n        /* \"#utility.yul\":16750:16759   */\n      dup4\n        /* \"#utility.yul\":16731:16770   */\n      tag_198\n      jump\t// in\n    tag_365:\n        /* \"#utility.yul\":16719:16770   */\n      swap6\n      pop\n        /* \"#utility.yul\":16803:16807   */\n      dup1\n        /* \"#utility.yul\":16799:16808   */\n      not\n        /* \"#utility.yul\":16792:16797   */\n      dup5\n        /* \"#utility.yul\":16788:16809   */\n      and\n        /* \"#utility.yul\":16779:16809   */\n      swap4\n      pop\n        /* \"#utility.yul\":16852:16856   */\n      dup1\n        /* \"#utility.yul\":16842:16850   */\n      dup7\n        /* \"#utility.yul\":16838:16857   */\n      and\n        /* \"#utility.yul\":16831:16836   */\n      dup5\n        /* \"#utility.yul\":16828:16858   */\n      or\n        /* \"#utility.yul\":16818:16858   */\n      swap3\n      pop\n        /* \"#utility.yul\":16547:16864   */\n      pop\n      pop\n        /* \"#utility.yul\":16471:16864   */\n      swap4\n      swap3\n      pop\n      pop\n      pop\n      jump\t// out\n        /* \"#utility.yul\":16870:16947   */\n    tag_200:\n        /* \"#utility.yul\":16907:16914   */\n      0x00\n        /* \"#utility.yul\":16936:16941   */\n      dup2\n        /* \"#utility.yul\":16925:16941   */\n      swap1\n      pop\n        /* \"#utility.yul\":16870:16947   */\n      swap2\n      swap1\n      pop\n      jump\t// out\n        /* \"#utility.yul\":16953:17013   */\n    tag_201:\n        /* \"#utility.yul\":16981:16984   */\n      0x00\n        /* \"#utility.yul\":17002:17007   */\n      dup2\n        /* \"#utility.yul\":16995:17007   */\n      swap1\n      pop\n        /* \"#utility.yul\":16953:17013   */\n      swap2\n      swap1\n      pop\n      jump\t// out\n        /* \"#utility.yul\":17019:17161   */\n    tag_202:\n        /* \"#utility.yul\":17069:17078   */\n      0x00\n        /* \"#utility.yul\":17102:17155   */\n      tag_369\n        /* \"#utility.yul\":17120:17154   */\n      tag_370\n        /* \"#utility.yul\":17129:17153   */\n      tag_371\n        /* \"#utility.yul\":17147:17152   */\n      dup5\n        /* \"#utility.yul\":17129:17153   */\n      tag_200\n      jump\t// in\n    tag_371:\n        /* \"#utility.yul\":17120:17154   */\n      tag_201\n      jump\t// in\n    tag_370:\n        /* \"#utility.yul\":17102:17155   */\n      tag_200\n      jump\t// in\n    tag_369:\n        /* \"#utility.yul\":17089:17155   */\n      swap1\n      pop\n        /* \"#utility.yul\":17019:17161   */\n      swap2\n      swap1\n      pop\n      jump\t// out\n        /* \"#utility.yul\":17167:17242   */\n    tag_203:\n        /* \"#utility.yul\":17210:17213   */\n      0x00\n        /* \"#utility.yul\":17231:17236   */\n      dup2\n        /* \"#utility.yul\":17224:17236   */\n      swap1\n      pop\n        /* \"#utility.yul\":17167:17242   */\n      swap2\n      swap1\n      pop\n      jump\t// out\n        /* \"#utility.yul\":17248:17517   */\n    tag_204:\n        /* \"#utility.yul\":17358:17397   */\n      tag_374\n        /* \"#utility.yul\":17389:17396   */\n      dup4\n        /* \"#utility.yul\":17358:17397   */\n      tag_202\n      jump\t// in\n    tag_374:\n        /* \"#utility.yul\":17419:17510   */\n      tag_375\n        /* \"#utility.yul\":17468:17509   */\n      tag_376\n        /* \"#utility.yul\":17492:17508   */\n      dup3\n        /* \"#utility.yul\":17468:17509   */\n      tag_203\n      jump\t// in\n    tag_376:\n        /* \"#utility.yul\":17460:17466   */\n      dup5\n        /* \"#utility.yul\":17453:17457   */\n      dup5\n        /* \"#utility.yul\":17447:17458   */\n      sload\n        /* \"#utility.yul\":17419:17510   */\n      tag_199\n      jump\t// in\n    tag_375:\n        /* \"#utility.yul\":17413:17417   */\n      dup3\n        /* \"#utility.yul\":17406:17511   */\n      sstore\n        /* \"#utility.yul\":17324:17517   */\n      pop\n        /* \"#utility.yul\":17248:17517   */\n      pop\n      pop\n      pop\n      jump\t// out\n        /* \"#utility.yul\":17523:17596   */\n    tag_205:\n        /* \"#utility.yul\":17568:17571   */\n      0x00\n        /* \"#utility.yul\":17523:17596   */\n      swap1\n      jump\t// out\n        /* \"#utility.yul\":17602:17791   */\n    tag_206:\n        /* \"#utility.yul\":17679:17711   */\n      tag_379\n      tag_205\n      jump\t// in\n    tag_379:\n        /* \"#utility.yul\":17720:17785   */\n      tag_380\n        /* \"#utility.yul\":17778:17784   */\n      dup2\n        /* \"#utility.yul\":17770:17776   */\n      dup5\n        /* \"#utility.yul\":17764:17768   */\n      dup5\n        /* \"#utility.yul\":17720:17785   */\n      tag_204\n      jump\t// in\n    tag_380:\n        /* \"#utility.yul\":17655:17791   */\n      pop\n        /* \"#utility.yul\":17602:17791   */\n      pop\n      pop\n      jump\t// out\n        /* \"#utility.yul\":17797:17983   */\n    tag_207:\n        /* \"#utility.yul\":17857:17977   */\n    tag_382:\n        /* \"#utility.yul\":17874:17877   */\n      dup2\n        /* \"#utility.yul\":17867:17872   */\n      dup2\n        /* \"#utility.yul\":17864:17878   */\n      lt\n        /* \"#utility.yul\":17857:17977   */\n      iszero\n      tag_384\n      jumpi\n        /* \"#utility.yul\":17928:17967   */\n      tag_385\n        /* \"#utility.yul\":17965:17966   */\n      0x00\n        /* \"#utility.yul\":17958:17963   */\n      dup3\n        /* \"#utility.yul\":17928:17967   */\n      tag_206\n      jump\t// in\n    tag_385:\n        /* \"#utility.yul\":17901:17902   */\n      0x01\n        /* \"#utility.yul\":17894:17899   */\n      dup2\n        /* \"#utility.yul\":17890:17903   */\n      add\n        /* \"#utility.yul\":17881:17903   */\n      swap1\n      pop\n        /* \"#utility.yul\":17857:17977   */\n      jump(tag_382)\n    tag_384:\n        /* \"#utility.yul\":17797:17983   */\n      pop\n      pop\n      jump\t// out\n        /* \"#utility.yul\":17989:18532   */\n    tag_208:\n        /* \"#utility.yul\":18090:18092   */\n      0x1f\n        /* \"#utility.yul\":18085:18088   */\n      dup3\n        /* \"#utility.yul\":18082:18093   */\n      gt\n        /* \"#utility.yul\":18079:18525   */\n      iszero\n      tag_387\n      jumpi\n        /* \"#utility.yul\":18124:18162   */\n      tag_388\n        /* \"#utility.yul\":18156:18161   */\n      dup2\n        /* \"#utility.yul\":18124:18162   */\n      tag_196\n      jump\t// in\n    tag_388:\n        /* \"#utility.yul\":18208:18237   */\n      tag_389\n        /* \"#utility.yul\":18226:18236   */\n      dup5\n        /* \"#utility.yul\":18208:18237   */\n      tag_197\n      jump\t// in\n    tag_389:\n        /* \"#utility.yul\":18198:18206   */\n      dup2\n        /* \"#utility.yul\":18194:18238   */\n      add\n        /* \"#utility.yul\":18391:18393   */\n      0x20\n        /* \"#utility.yul\":18379:18389   */\n      dup6\n        /* \"#utility.yul\":18376:18394   */\n      lt\n        /* \"#utility.yul\":18373:18422   */\n      iszero\n      tag_390\n      jumpi\n        /* \"#utility.yul\":18412:18420   */\n      dup2\n        /* \"#utility.yul\":18397:18420   */\n      swap1\n      pop\n        /* \"#utility.yul\":18373:18422   */\n    tag_390:\n        /* \"#utility.yul\":18435:18515   */\n      tag_391\n        /* \"#utility.yul\":18491:18513   */\n      tag_392\n        /* \"#utility.yul\":18509:18512   */\n      dup6\n        /* \"#utility.yul\":18491:18513   */\n      tag_197\n      jump\t// in\n    tag_392:\n        /* \"#utility.yul\":18481:18489   */\n      dup4\n        /* \"#utility.yul\":18477:18514   */\n      add\n        /* \"#utility.yul\":18464:18475   */\n      dup3\n        /* \"#utility.yul\":18435:18515   */\n      tag_207\n      jump\t// in\n    tag_391:\n        /* \"#utility.yul\":18094:18525   */\n      pop\n      pop\n        /* \"#utility.yul\":18079:18525   */\n    tag_387:\n        /* \"#utility.yul\":17989:18532   */\n      pop\n      pop\n      pop\n      jump\t// out\n        /* \"#utility.yul\":18538:18655   */\n    tag_209:\n        /* \"#utility.yul\":18592:18600   */\n      0x00\n        /* \"#utility.yul\":18642:18647   */\n      dup3\n        /* \"#utility.yul\":18636:18640   */\n      dup3\n        /* \"#utility.yul\":18632:18648   */\n      shr\n        /* \"#utility.yul\":18611:18648   */\n      swap1\n      pop\n        /* \"#utility.yul\":18538:18655   */\n      swap3\n      swap2\n      pop\n      pop\n      jump\t// out\n        /* \"#utility.yul\":18661:18830   */\n    tag_210:\n        /* \"#utility.yul\":18705:18711   */\n      0x00\n        /* \"#utility.yul\":18738:18789   */\n      tag_395\n        /* \"#utility.yul\":18786:18787   */\n      0x00\n        /* \"#utility.yul\":18782:18788   */\n      not\n        /* \"#utility.yul\":18774:18779   */\n      dup5\n        /* \"#utility.yul\":18771:18772   */\n      0x08\n        /* \"#utility.yul\":18767:18780   */\n      mul\n        /* \"#utility.yul\":18738:18789   */\n      tag_209\n      jump\t// in\n    tag_395:\n        /* \"#utility.yul\":18734:18790   */\n      not\n        /* \"#utility.yul\":18819:18823   */\n      dup1\n        /* \"#utility.yul\":18813:18817   */\n      dup4\n        /* \"#utility.yul\":18809:18824   */\n      and\n        /* \"#utility.yul\":18799:18824   */\n      swap2\n      pop\n        /* \"#utility.yul\":18712:18830   */\n      pop\n        /* \"#utility.yul\":18661:18830   */\n      swap3\n      swap2\n      pop\n      pop\n      jump\t// out\n        /* \"#utility.yul\":18835:19130   */\n    tag_211:\n        /* \"#utility.yul\":18911:18915   */\n      0x00\n        /* \"#utility.yul\":19057:19086   */\n      tag_397\n        /* \"#utility.yul\":19082:19085   */\n      dup4\n        /* \"#utility.yul\":19076:19080   */\n      dup4\n        /* \"#utility.yul\":19057:19086   */\n      tag_210\n      jump\t// in\n    tag_397:\n        /* \"#utility.yul\":19049:19086   */\n      swap2\n      pop\n        /* \"#utility.yul\":19119:19122   */\n      dup3\n        /* \"#utility.yul\":19116:19117   */\n      0x02\n        /* \"#utility.yul\":19112:19123   */\n      mul\n        /* \"#utility.yul\":19106:19110   */\n      dup3\n        /* \"#utility.yul\":19103:19124   */\n      or\n        /* \"#utility.yul\":19095:19124   */\n      swap1\n      pop\n        /* \"#utility.yul\":18835:19130   */\n      swap3\n      swap2\n      pop\n      pop\n      jump\t// out\n        /* \"#utility.yul\":19135:20530   */\n    tag_141:\n        /* \"#utility.yul\":19252:19289   */\n      tag_399\n        /* \"#utility.yul\":19285:19288   */\n      dup3\n        /* \"#utility.yul\":19252:19289   */\n      tag_173\n      jump\t// in\n    tag_399:\n        /* \"#utility.yul\":19354:19372   */\n      0xffffffffffffffff\n        /* \"#utility.yul\":19346:19352   */\n      dup2\n        /* \"#utility.yul\":19343:19373   */\n      gt\n        /* \"#utility.yul\":19340:19396   */\n      iszero\n      tag_400\n      jumpi\n        /* \"#utility.yul\":19376:19394   */\n      tag_401\n      tag_137\n      jump\t// in\n    tag_401:\n        /* \"#utility.yul\":19340:19396   */\n    tag_400:\n        /* \"#utility.yul\":19420:19458   */\n      tag_402\n        /* \"#utility.yul\":19452:19456   */\n      dup3\n        /* \"#utility.yul\":19446:19457   */\n      sload\n        /* \"#utility.yul\":19420:19458   */\n      tag_88\n      jump\t// in\n    tag_402:\n        /* \"#utility.yul\":19505:19572   */\n      tag_403\n        /* \"#utility.yul\":19565:19571   */\n      dup3\n        /* \"#utility.yul\":19557:19563   */\n      dup3\n        /* \"#utility.yul\":19551:19555   */\n      dup6\n        /* \"#utility.yul\":19505:19572   */\n      tag_208\n      jump\t// in\n    tag_403:\n        /* \"#utility.yul\":19599:19600   */\n      0x00\n        /* \"#utility.yul\":19623:19627   */\n      0x20\n        /* \"#utility.yul\":19610:19627   */\n      swap1\n      pop\n        /* \"#utility.yul\":19655:19657   */\n      0x1f\n        /* \"#utility.yul\":19647:19653   */\n      dup4\n        /* \"#utility.yul\":19644:19658   */\n      gt\n        /* \"#utility.yul\":19672:19673   */\n      0x01\n        /* \"#utility.yul\":19667:20285   */\n      dup2\n      eq\n      tag_405\n      jumpi\n        /* \"#utility.yul\":20329:20330   */\n      0x00\n        /* \"#utility.yul\":20346:20352   */\n      dup5\n        /* \"#utility.yul\":20343:20420   */\n      iszero\n      tag_406\n      jumpi\n        /* \"#utility.yul\":20395:20404   */\n      dup3\n        /* \"#utility.yul\":20390:20393   */\n      dup8\n        /* \"#utility.yul\":20386:20405   */\n      add\n        /* \"#utility.yul\":20380:20406   */\n      mload\n        /* \"#utility.yul\":20371:20406   */\n      swap1\n      pop\n        /* \"#utility.yul\":20343:20420   */\n    tag_406:\n        /* \"#utility.yul\":20446:20513   */\n      tag_407\n        /* \"#utility.yul\":20506:20512   */\n      dup6\n        /* \"#utility.yul\":20499:20504   */\n      dup3\n        /* \"#utility.yul\":20446:20513   */\n      tag_211\n      jump\t// in\n    tag_407:\n        /* \"#utility.yul\":20440:20444   */\n      dup7\n        /* \"#utility.yul\":20433:20514   */\n      sstore\n        /* \"#utility.yul\":20302:20524   */\n      pop\n        /* \"#utility.yul\":19637:20524   */\n      jump(tag_404)\n        /* \"#utility.yul\":19667:20285   */\n    tag_405:\n        /* \"#utility.yul\":19719:19723   */\n      0x1f\n        /* \"#utility.yul\":19715:19724   */\n      not\n        /* \"#utility.yul\":19707:19713   */\n      dup5\n        /* \"#utility.yul\":19703:19725   */\n      and\n        /* \"#utility.yul\":19753:19790   */\n      tag_408\n        /* \"#utility.yul\":19785:19789   */\n      dup7\n        /* \"#utility.yul\":19753:19790   */\n      tag_196\n      jump\t// in\n    tag_408:\n        /* \"#utility.yul\":19812:19813   */\n      0x00\n        /* \"#utility.yul\":19826:20034   */\n    tag_409:\n        /* \"#utility.yul\":19840:19847   */\n      dup3\n        /* \"#utility.yul\":19837:19838   */\n      dup2\n        /* \"#utility.yul\":19834:19848   */\n      lt\n        /* \"#utility.yul\":19826:20034   */\n      iszero\n      tag_411\n      jumpi\n        /* \"#utility.yul\":19919:19928   */\n      dup5\n        /* \"#utility.yul\":19914:19917   */\n      dup10\n        /* \"#utility.yul\":19910:19929   */\n      add\n        /* \"#utility.yul\":19904:19930   */\n      mload\n        /* \"#utility.yul\":19896:19902   */\n      dup3\n        /* \"#utility.yul\":19889:19931   */\n      sstore\n        /* \"#utility.yul\":19970:19971   */\n      0x01\n        /* \"#utility.yul\":19962:19968   */\n      dup3\n        /* \"#utility.yul\":19958:19972   */\n      add\n        /* \"#utility.yul\":19948:19972   */\n      swap2\n      pop\n        /* \"#utility.yul\":20017:20019   */\n      0x20\n        /* \"#utility.yul\":20006:20015   */\n      dup6\n        /* \"#utility.yul\":20002:20020   */\n      add\n        /* \"#utility.yul\":19989:20020   */\n      swap5\n      pop\n        /* \"#utility.yul\":19863:19867   */\n      0x20\n        /* \"#utility.yul\":19860:19861   */\n      dup2\n        /* \"#utility.yul\":19856:19868   */\n      add\n        /* \"#utility.yul\":19851:19868   */\n      swap1\n      pop\n        /* \"#utility.yul\":19826:20034   */\n      jump(tag_409)\n    tag_411:\n        /* \"#utility.yul\":20062:20068   */\n      dup7\n        /* \"#utility.yul\":20053:20060   */\n      dup4\n        /* \"#utility.yul\":20050:20069   */\n      lt\n        /* \"#utility.yul\":20047:20226   */\n      iszero\n      tag_412\n      jumpi\n        /* \"#utility.yul\":20120:20129   */\n      dup5\n        /* \"#utility.yul\":20115:20118   */\n      dup10\n        /* \"#utility.yul\":20111:20130   */\n      add\n        /* \"#utility.yul\":20105:20131   */\n      mload\n        /* \"#utility.yul\":20163:20211   */\n      tag_413\n        /* \"#utility.yul\":20205:20209   */\n      0x1f\n        /* \"#utility.yul\":20197:20203   */\n      dup10\n        /* \"#utility.yul\":20193:20210   */\n      and\n        /* \"#utility.yul\":20182:20191   */\n      dup3\n        /* \"#utility.yul\":20163:20211   */\n      tag_210\n      jump\t// in\n    tag_413:\n        /* \"#utility.yul\":20155:20161   */\n      dup4\n        /* \"#utility.yul\":20148:20212   */\n      sstore\n        /* \"#utility.yul\":20070:20226   */\n      pop\n        /* \"#utility.yul\":20047:20226   */\n    tag_412:\n        /* \"#utility.yul\":20272:20273   */\n      0x01\n        /* \"#utility.yul\":20268:20269   */\n      0x02\n        /* \"#utility.yul\":20260:20266   */\n      dup9\n        /* \"#utility.yul\":20256:20270   */\n      mul\n        /* \"#utility.yul\":20252:20274   */\n      add\n        /* \"#utility.yul\":20246:20250   */\n      dup9\n        /* \"#utility.yul\":20239:20275   */\n      sstore\n        /* \"#utility.yul\":19674:20285   */\n      pop\n      pop\n      pop\n        /* \"#utility.yul\":19637:20524   */\n    tag_404:\n      pop\n        /* \"#utility.yul\":19227:20530   */\n      pop\n      pop\n      pop\n        /* \"#utility.yul\":19135:20530   */\n      pop\n      pop\n      jump\t// out\n\n    auxdata: 0xa2646970667358221220253a937848370d05d48c1c2d0b82c8eaf3d73d02684cb8c3080dd2822aadfc1464736f6c63430008150033\n}\n",
				"bytecode": {
					"linkReferences": {},
					"object": "608060405234801562000010575f80fd5b5060405162001ac738038062001ac7833981810160405281019062000036919062000263565b8260015f6101000a81548173ffffffffffffffffffffffffffffffffffffffff021916908373ffffffffffffffffffffffffffffffffffffffff1602179055508160025f6101000a81548173ffffffffffffffffffffffffffffffffffffffff021916908373ffffffffffffffffffffffffffffffffffffffff1602179055508060035f6101000a81548173ffffffffffffffffffffffffffffffffffffffff021916908373ffffffffffffffffffffffffffffffffffffffff160217905550600160045f8573ffffffffffffffffffffffffffffffffffffffff1673ffffffffffffffffffffffffffffffffffffffff1681526020019081526020015f205f6101000a81548160ff021916908315150217905550600160045f8473ffffffffffffffffffffffffffffffffffffffff1673ffffffffffffffffffffffffffffffffffffffff1681526020019081526020015f205f6101000a81548160ff021916908315150217905550600160045f8373ffffffffffffffffffffffffffffffffffffffff1673ffffffffffffffffffffffffffffffffffffffff1681526020019081526020015f205f6101000a81548160ff021916908315150217905550505050620002bc565b5f80fd5b5f73ffffffffffffffffffffffffffffffffffffffff82169050919050565b5f6200022d8262000202565b9050919050565b6200023f8162000221565b81146200024a575f80fd5b50565b5f815190506200025d8162000234565b92915050565b5f805f606084860312156200027d576200027c620001fe565b5b5f6200028c868287016200024d565b93505060206200029f868287016200024d565b9250506040620002b2868287016200024d565b9150509250925092565b6117fd80620002ca5f395ff3fe608060405234801561000f575f80fd5b506004361061009c575f3560e01c8063d757c5c011610064578063d757c5c01461015a578063e27bb1f714610176578063e6b4360914610192578063fe52fffa146101b0578063fe9fbb80146101ce5761009c565b80632b20e397146100a05780633c406ffe146100be57806346252acf146100ee5780635d218d671461010c578063c7ef6bfb14610128575b5f80fd5b6100a86101fe565b6040516100b59190610dc1565b60405180910390f35b6100d860048036038101906100d39190610f51565b610223565b6040516100e59190610fc5565b60405180910390f35b6100f6610265565b6040516101039190610dc1565b60405180910390f35b61012660048036038101906101219190610fde565b610288565b005b610142600480360381019061013d9190610fde565b61065b565b60405161015193929190611112565b60405180910390f35b610174600480360381019061016f9190610fde565b6107b1565b005b610190600480360381019061018b9190611155565b6109c1565b005b61019a610c79565b6040516101a79190610dc1565b60405180910390f35b6101b8610c9e565b6040516101c59190610dc1565b60405180910390f35b6101e860048036038101906101e391906111cb565b610cc3565b6040516101f59190610fc5565b60405180910390f35b60035f9054906101000a900473ffffffffffffffffffffffffffffffffffffffff1681565b600682805160208101820180518482526020830160208501208183528095505050505050602052805f5260405f205f915091509054906101000a900460ff1681565b5f8054906101000a900473ffffffffffffffffffffffffffffffffffffffff1681565b60045f3373ffffffffffffffffffffffffffffffffffffffff1673ffffffffffffffffffffffffffffffffffffffff1681526020019081526020015f205f9054906101000a900460ff16610311576040517f08c379a000000000000000000000000000000000000000000000000000000000815260040161030890611240565b60405180910390fd5b5f815111610354576040517f08c379a000000000000000000000000000000000000000000000000000000000815260040161034b906112a8565b60405180910390fd5b5f60028111156103675761036661109f565b5b6005826040516103779190611300565b90815260200160405180910390206002015f9054906101000a900460ff1660028111156103a7576103a661109f565b5b146103e7576040517f08c379a00000000000000000000000000000000000000000000000000000000081526004016103de90611386565b60405180910390fd5b6006816040516103f79190611300565b90815260200160405180910390205f3373ffffffffffffffffffffffffffffffffffffffff1673ffffffffffffffffffffffffffffffffffffffff1681526020019081526020015f205f9054906101000a900460ff161561048d576040517f08c379a0000000000000000000000000000000000000000000000000000000008152600401610484906113ee565b60405180910390fd5b60058160405161049d9190611300565b908152602001604051809103902060030133908060018154018082558091505060019003905f5260205f20015f9091909190916101000a81548173ffffffffffffffffffffffffffffffffffffffff021916908373ffffffffffffffffffffffffffffffffffffffff160217905550600160068260405161051e9190611300565b90815260200160405180910390205f3373ffffffffffffffffffffffffffffffffffffffff1673ffffffffffffffffffffffffffffffffffffffff1681526020019081526020015f205f6101000a81548160ff0219169083151502179055508060405161058b9190611300565b60405180910390203373ffffffffffffffffffffffffffffffffffffffff167fb8c34c3cf12ba37da0c3168c33497d87bd576cfccc7846cfa40cf4a68bf57e4f60016040516105da919061140c565b60405180910390a360036005826040516105f49190611300565b908152602001604051809103902060030180549050036106585760016005826040516106209190611300565b90815260200160405180910390206002015f6101000a81548160ff021916908360028111156106525761065161109f565b5b02179055505b50565b6005818051602081018201805184825260208301602085012081835280955050505050505f91509050805f01805461069290611452565b80601f01602080910402602001604051908101604052809291908181526020018280546106be90611452565b80156107095780601f106106e057610100808354040283529160200191610709565b820191905f5260205f20905b8154815290600101906020018083116106ec57829003601f168201915b50505050509080600101805461071e90611452565b80601f016020809104026020016040519081016040528092919081815260200182805461074a90611452565b80156107955780601f1061076c57610100808354040283529160200191610795565b820191905f5260205f20905b81548152906001019060200180831161077857829003601f168201915b505050505090806002015f9054906101000a900460ff16905083565b60045f3373ffffffffffffffffffffffffffffffffffffffff1673ffffffffffffffffffffffffffffffffffffffff1681526020019081526020015f205f9054906101000a900460ff1661083a576040517f08c379a000000000000000000000000000000000000000000000000000000000815260040161083190611240565b60405180910390fd5b5f81511161087d576040517f08c379a0000000000000000000000000000000000000000000000000000000008152600401610874906112a8565b60405180910390fd5b5f60028111156108905761088f61109f565b5b6005826040516108a09190611300565b90815260200160405180910390206002015f9054906101000a900460ff1660028111156108d0576108cf61109f565b5b14610910576040517f08c379a000000000000000000000000000000000000000000000000000000000815260040161090790611386565b60405180910390fd5b60026005826040516109229190611300565b90815260200160405180910390206002015f6101000a81548160ff021916908360028111156109545761095361109f565b5b0217905550806040516109679190611300565b60405180910390203373ffffffffffffffffffffffffffffffffffffffff167fb8c34c3cf12ba37da0c3168c33497d87bd576cfccc7846cfa40cf4a68bf57e4f60026040516109b6919061140c565b60405180910390a350565b60045f3373ffffffffffffffffffffffffffffffffffffffff1673ffffffffffffffffffffffffffffffffffffffff1681526020019081526020015f205f9054906101000a900460ff16610a4a576040517f08c379a0000000000000000000000000000000000000000000000000000000008152600401610a4190611240565b60405180910390fd5b5f825111610a8d576040517f08c379a0000000000000000000000000000000000000000000000000000000008152600401610a84906112a8565b60405180910390fd5b5f815111610ad0576040517f08c379a0000000000000000000000000000000000000000000000000000000008152600401610ac7906114cc565b60405180910390fd5b5f6002811115610ae357610ae261109f565b5b600583604051610af39190611300565b90815260200160405180910390206002015f9054906101000a900460ff166002811115610b2357610b2261109f565b5b14610b63576040517f08c379a0000000000000000000000000000000000000000000000000000000008152600401610b5a90611534565b60405180910390fd5b60405180608001604052808381526020018281526020015f6002811115610b8d57610b8c61109f565b5b81526020015f67ffffffffffffffff811115610bac57610bab610e03565b5b604051908082528060200260200182016040528015610bda5781602001602082028036833780820191505090505b50815250600583604051610bee9190611300565b90815260200160405180910390205f820151815f019081610c0f91906116f8565b506020820151816001019081610c2591906116f8565b506040820151816002015f6101000a81548160ff02191690836002811115610c5057610c4f61109f565b5b02179055506060820151816003019080519060200190610c71929190610ce0565b509050505050565b60025f9054906101000a900473ffffffffffffffffffffffffffffffffffffffff1681565b60015f9054906101000a900473ffffffffffffffffffffffffffffffffffffffff1681565b6004602052805f5260405f205f915054906101000a900460ff1681565b828054828255905f5260205f20908101928215610d56579160200282015b82811115610d55578251825f6101000a81548173ffffffffffffffffffffffffffffffffffffffff021916908373ffffffffffffffffffffffffffffffffffffffff16021790555091602001919060010190610cfe565b5b509050610d639190610d67565b5090565b5b80821115610d7e575f815f905550600101610d68565b5090565b5f73ffffffffffffffffffffffffffffffffffffffff82169050919050565b5f610dab82610d82565b9050919050565b610dbb81610da1565b82525050565b5f602082019050610dd45f830184610db2565b92915050565b5f604051905090565b5f80fd5b5f80fd5b5f80fd5b5f80fd5b5f601f19601f8301169050919050565b7f4e487b71000000000000000000000000000000000000000000000000000000005f52604160045260245ffd5b610e3982610df3565b810181811067ffffffffffffffff82111715610e5857610e57610e03565b5b80604052505050565b5f610e6a610dda565b9050610e768282610e30565b919050565b5f67ffffffffffffffff821115610e9557610e94610e03565b5b610e9e82610df3565b9050602081019050919050565b828183375f83830152505050565b5f610ecb610ec684610e7b565b610e61565b905082815260208101848484011115610ee757610ee6610def565b5b610ef2848285610eab565b509392505050565b5f82601f830112610f0e57610f0d610deb565b5b8135610f1e848260208601610eb9565b91505092915050565b610f3081610da1565b8114610f3a575f80fd5b50565b5f81359050610f4b81610f27565b92915050565b5f8060408385031215610f6757610f66610de3565b5b5f83013567ffffffffffffffff811115610f8457610f83610de7565b5b610f9085828601610efa565b9250506020610fa185828601610f3d565b9150509250929050565b5f8115159050919050565b610fbf81610fab565b82525050565b5f602082019050610fd85f830184610fb6565b92915050565b5f60208284031215610ff357610ff2610de3565b5b5f82013567ffffffffffffffff8111156110105761100f610de7565b5b61101c84828501610efa565b91505092915050565b5f81519050919050565b5f82825260208201905092915050565b5f5b8381101561105c578082015181840152602081019050611041565b5f8484015250505050565b5f61107182611025565b61107b818561102f565b935061108b81856020860161103f565b61109481610df3565b840191505092915050565b7f4e487b71000000000000000000000000000000000000000000000000000000005f52602160045260245ffd5b600381106110dd576110dc61109f565b5b50565b5f8190506110ed826110cc565b919050565b5f6110fc826110e0565b9050919050565b61110c816110f2565b82525050565b5f6060820190508181035f83015261112a8186611067565b9050818103602083015261113e8185611067565b905061114d6040830184611103565b949350505050565b5f806040838503121561116b5761116a610de3565b5b5f83013567ffffffffffffffff81111561118857611187610de7565b5b61119485828601610efa565b925050602083013567ffffffffffffffff8111156111b5576111b4610de7565b5b6111c185828601610efa565b9150509250929050565b5f602082840312156111e0576111df610de3565b5b5f6111ed84828501610f3d565b91505092915050565b7f4e6f7420617574686f72697a65640000000000000000000000000000000000005f82015250565b5f61122a600e8361102f565b9150611235826111f6565b602082019050919050565b5f6020820190508181035f8301526112578161121e565b9050919050565b7f526f6c6c206e756d6265722063616e6e6f7420626520656d70747900000000005f82015250565b5f611292601b8361102f565b915061129d8261125e565b602082019050919050565b5f6020820190508181035f8301526112bf81611286565b9050919050565b5f81905092915050565b5f6112da82611025565b6112e481856112c6565b93506112f481856020860161103f565b80840191505092915050565b5f61130b82846112d0565b915081905092915050565b7f53747564656e74206e6f7420666f756e64206f722064656772656520616c72655f8201527f61647920617070726f7665640000000000000000000000000000000000000000602082015250565b5f611370602c8361102f565b915061137b82611316565b604082019050919050565b5f6020820190508181035f83015261139d81611364565b9050919050565b7f416c726561647920617070726f766564000000000000000000000000000000005f82015250565b5f6113d860108361102f565b91506113e3826113a4565b602082019050919050565b5f6020820190508181035f830152611405816113cc565b9050919050565b5f60208201905061141f5f830184611103565b92915050565b7f4e487b71000000000000000000000000000000000000000000000000000000005f52602260045260245ffd5b5f600282049050600182168061146957607f821691505b60208210810361147c5761147b611425565b5b50919050565b7f4e616d652063616e6e6f7420626520656d7074790000000000000000000000005f82015250565b5f6114b660148361102f565b91506114c182611482565b602082019050919050565b5f6020820190508181035f8301526114e3816114aa565b9050919050565b7f53747564656e7420616c726561647920657869737473000000000000000000005f82015250565b5f61151e60168361102f565b9150611529826114ea565b602082019050919050565b5f6020820190508181035f83015261154b81611512565b9050919050565b5f819050815f5260205f209050919050565b5f6020601f8301049050919050565b5f82821b905092915050565b5f600883026115ae7fffffffffffffffffffffffffffffffffffffffffffffffffffffffffffffffff82611573565b6115b88683611573565b95508019841693508086168417925050509392505050565b5f819050919050565b5f819050919050565b5f6115fc6115f76115f2846115d0565b6115d9565b6115d0565b9050919050565b5f819050919050565b611615836115e2565b61162961162182611603565b84845461157f565b825550505050565b5f90565b61163d611631565b61164881848461160c565b505050565b5b8181101561166b576116605f82611635565b60018101905061164e565b5050565b601f8211156116b05761168181611552565b61168a84611564565b81016020851015611699578190505b6116ad6116a585611564565b83018261164d565b50505b505050565b5f82821c905092915050565b5f6116d05f19846008026116b5565b1980831691505092915050565b5f6116e883836116c1565b9150826002028217905092915050565b61170182611025565b67ffffffffffffffff81111561171a57611719610e03565b5b6117248254611452565b61172f82828561166f565b5f60209050601f831160018114611760575f841561174e578287015190505b61175885826116dd565b8655506117bf565b601f19841661176e86611552565b5f5b8281101561179557848901518255600182019150602085019450602081019050611770565b868310156117b257848901516117ae601f8916826116c1565b8355505b6001600288020188555050505b50505050505056fea2646970667358221220253a937848370d05d48c1c2d0b82c8eaf3d73d02684cb8c3080dd2822aadfc1464736f6c63430008150033",
					"opcodes": "PUSH1 0x80 PUSH1 0x40 MSTORE CALLVALUE DUP1 ISZERO PUSH3 0x10 JUMPI PUSH0 DUP1 REVERT JUMPDEST POP PUSH1 0x40 MLOAD PUSH3 0x1AC7 CODESIZE SUB DUP1 PUSH3 0x1AC7 DUP4 CODECOPY DUP2 DUP2 ADD PUSH1 0x40 MSTORE DUP2 ADD SWAP1 PUSH3 0x36 SWAP2 SWAP1 PUSH3 0x263 JUMP JUMPDEST DUP3 PUSH1 0x1 PUSH0 PUSH2 0x100 EXP DUP2 SLOAD DUP2 PUSH20 0xFFFFFFFFFFFFFFFFFFFFFFFFFFFFFFFFFFFFFFFF MUL NOT AND SWAP1 DUP4 PUSH20 0xFFFFFFFFFFFFFFFFFFFFFFFFFFFFFFFFFFFFFFFF AND MUL OR SWAP1 SSTORE POP DUP2 PUSH1 0x2 PUSH0 PUSH2 0x100 EXP DUP2 SLOAD DUP2 PUSH20 0xFFFFFFFFFFFFFFFFFFFFFFFFFFFFFFFFFFFFFFFF MUL NOT AND SWAP1 DUP4 PUSH20 0xFFFFFFFFFFFFFFFFFFFFFFFFFFFFFFFFFFFFFFFF AND MUL OR SWAP1 SSTORE POP DUP1 PUSH1 0x3 PUSH0 PUSH2 0x100 EXP DUP2 SLOAD DUP2 PUSH20 0xFFFFFFFFFFFFFFFFFFFFFFFFFFFFFFFFFFFFFFFF MUL NOT AND SWAP1 DUP4 PUSH20 0xFFFFFFFFFFFFFFFFFFFFFFFFFFFFFFFFFFFFFFFF AND MUL OR SWAP1 SSTORE POP PUSH1 0x1 PUSH1 0x4 PUSH0 DUP6 PUSH20 0xFFFFFFFFFFFFFFFFFFFFFFFFFFFFFFFFFFFFFFFF AND PUSH20 0xFFFFFFFFFFFFFFFFFFFFFFFFFFFFFFFFFFFFFFFF AND DUP2 MSTORE PUSH1 0x20 ADD SWAP1 DUP2 MSTORE PUSH1 0x20 ADD PUSH0 KECCAK256 PUSH0 PUSH2 0x100 EXP DUP2 SLOAD DUP2 PUSH1 0xFF MUL NOT AND SWAP1 DUP4 ISZERO ISZERO MUL OR SWAP1 SSTORE POP PUSH1 0x1 PUSH1 0x4 PUSH0 DUP5 PUSH20 0xFFFFFFFFFFFFFFFFFFFFFFFFFFFFFFFFFFFFFFFF AND PUSH20 0xFFFFFFFFFFFFFFFFFFFFFFFFFFFFFFFFFFFFFFFF AND DUP2 MSTORE PUSH1 0x20 ADD SWAP1 DUP2 MSTORE PUSH1 0x20 ADD PUSH0 KECCAK256 PUSH0 PUSH2 0x100 EXP DUP2 SLOAD DUP2 PUSH1 0xFF MUL NOT AND SWAP1 DUP4 ISZERO ISZERO MUL OR SWAP1 SSTORE POP PUSH1 0x1 PUSH1 0x4 PUSH0 DUP4 PUSH20 0xFFFFFFFFFFFFFFFFFFFFFFFFFFFFFFFFFFFFFFFF AND PUSH20 0xFFFFFFFFFFFFFFFFFFFFFFFFFFFFFFFFFFFFFFFF AND DUP2 MSTORE PUSH1 0x20 ADD SWAP1 DUP2 MSTORE PUSH1 0x20 ADD PUSH0 KECCAK256 PUSH0 PUSH2 0x100 EXP DUP2 SLOAD DUP2 PUSH1 0xFF MUL NOT AND SWAP1 DUP4 ISZERO ISZERO MUL OR SWAP1 SSTORE POP POP POP POP PUSH3 0x2BC JUMP JUMPDEST PUSH0 DUP1 REVERT JUMPDEST PUSH0 PUSH20 0xFFFFFFFFFFFFFFFFFFFFFFFFFFFFFFFFFFFFFFFF DUP3 AND SWAP1 POP SWAP2 SWAP1 POP JUMP JUMPDEST PUSH0 PUSH3 0x22D DUP3 PUSH3 0x202 JUMP JUMPDEST SWAP1 POP SWAP2 SWAP1 POP JUMP JUMPDEST PUSH3 0x23F DUP2 PUSH3 0x221 JUMP JUMPDEST DUP2 EQ PUSH3 0x24A JUMPI PUSH0 DUP1 REVERT JUMPDEST POP JUMP JUMPDEST PUSH0 DUP2 MLOAD SWAP1 POP PUSH3 0x25D DUP2 PUSH3 0x234 JUMP JUMPDEST SWAP3 SWAP2 POP POP JUMP JUMPDEST PUSH0 DUP1 PUSH0 PUSH1 0x60 DUP5 DUP7 SUB SLT ISZERO PUSH3 0x27D JUMPI PUSH3 0x27C PUSH3 0x1FE JUMP JUMPDEST JUMPDEST PUSH0 PUSH3 0x28C DUP7 DUP3 DUP8 ADD PUSH3 0x24D JUMP JUMPDEST SWAP4 POP POP PUSH1 0x20 PUSH3 0x29F DUP7 DUP3 DUP8 ADD PUSH3 0x24D JUMP JUMPDEST SWAP3 POP POP PUSH1 0x40 PUSH3 0x2B2 DUP7 DUP3 DUP8 ADD PUSH3 0x24D JUMP JUMPDEST SWAP2 POP POP SWAP3 POP SWAP3 POP SWAP3 JUMP JUMPDEST PUSH2 0x17FD DUP1 PUSH3 0x2CA PUSH0 CODECOPY PUSH0 RETURN INVALID PUSH1 0x80 PUSH1 0x40 MSTORE CALLVALUE DUP1 ISZERO PUSH2 0xF JUMPI PUSH0 DUP1 REVERT JUMPDEST POP PUSH1 0x4 CALLDATASIZE LT PUSH2 0x9C JUMPI PUSH0 CALLDATALOAD PUSH1 0xE0 SHR DUP1 PUSH4 0xD757C5C0 GT PUSH2 0x64 JUMPI DUP1 PUSH4 0xD757C5C0 EQ PUSH2 0x15A JUMPI DUP1 PUSH4 0xE27BB1F7 EQ PUSH2 0x176 JUMPI DUP1 PUSH4 0xE6B43609 EQ PUSH2 0x192 JUMPI DUP1 PUSH4 0xFE52FFFA EQ PUSH2 0x1B0 JUMPI DUP1 PUSH4 0xFE9FBB80 EQ PUSH2 0x1CE JUMPI PUSH2 0x9C JUMP JUMPDEST DUP1 PUSH4 0x2B20E397 EQ PUSH2 0xA0 JUMPI DUP1 PUSH4 0x3C406FFE EQ PUSH2 0xBE JUMPI DUP1 PUSH4 0x46252ACF EQ PUSH2 0xEE JUMPI DUP1 PUSH4 0x5D218D67 EQ PUSH2 0x10C JUMPI DUP1 PUSH4 0xC7EF6BFB EQ PUSH2 0x128 JUMPI JUMPDEST PUSH0 DUP1 REVERT JUMPDEST PUSH2 0xA8 PUSH2 0x1FE JUMP JUMPDEST PUSH1 0x40 MLOAD PUSH2 0xB5 SWAP2 SWAP1 PUSH2 0xDC1 JUMP JUMPDEST PUSH1 0x40 MLOAD DUP1 SWAP2 SUB SWAP1 RETURN JUMPDEST PUSH2 0xD8 PUSH1 0x4 DUP1 CALLDATASIZE SUB DUP2 ADD SWAP1 PUSH2 0xD3 SWAP2 SWAP1 PUSH2 0xF51 JUMP JUMPDEST PUSH2 0x223 JUMP JUMPDEST PUSH1 0x40 MLOAD PUSH2 0xE5 SWAP2 SWAP1 PUSH2 0xFC5 JUMP JUMPDEST PUSH1 0x40 MLOAD DUP1 SWAP2 SUB SWAP1 RETURN JUMPDEST PUSH2 0xF6 PUSH2 0x265 JUMP JUMPDEST PUSH1 0x40 MLOAD PUSH2 0x103 SWAP2 SWAP1 PUSH2 0xDC1 JUMP JUMPDEST PUSH1 0x40 MLOAD DUP1 SWAP2 SUB SWAP1 RETURN JUMPDEST PUSH2 0x126 PUSH1 0x4 DUP1 CALLDATASIZE SUB DUP2 ADD SWAP1 PUSH2 0x121 SWAP2 SWAP1 PUSH2 0xFDE JUMP JUMPDEST PUSH2 0x288 JUMP JUMPDEST STOP JUMPDEST PUSH2 0x142 PUSH1 0x4 DUP1 CALLDATASIZE SUB DUP2 ADD SWAP1 PUSH2 0x13D SWAP2 SWAP1 PUSH2 0xFDE JUMP JUMPDEST PUSH2 0x65B JUMP JUMPDEST PUSH1 0x40 MLOAD PUSH2 0x151 SWAP4 SWAP3 SWAP2 SWAP1 PUSH2 0x1112 JUMP JUMPDEST PUSH1 0x40 MLOAD DUP1 SWAP2 SUB SWAP1 RETURN JUMPDEST PUSH2 0x174 PUSH1 0x4 DUP1 CALLDATASIZE SUB DUP2 ADD SWAP1 PUSH2 0x16F SWAP2 SWAP1 PUSH2 0xFDE JUMP JUMPDEST PUSH2 0x7B1 JUMP JUMPDEST STOP JUMPDEST PUSH2 0x190 PUSH1 0x4 DUP1 CALLDATASIZE SUB DUP2 ADD SWAP1 PUSH2 0x18B SWAP2 SWAP1 PUSH2 0x1155 JUMP JUMPDEST PUSH2 0x9C1 JUMP JUMPDEST STOP JUMPDEST PUSH2 0x19A PUSH2 0xC79 JUMP JUMPDEST PUSH1 0x40 MLOAD PUSH2 0x1A7 SWAP2 SWAP1 PUSH2 0xDC1 JUMP JUMPDEST PUSH1 0x40 MLOAD DUP1 SWAP2 SUB SWAP1 RETURN JUMPDEST PUSH2 0x1B8 PUSH2 0xC9E JUMP JUMPDEST PUSH1 0x40 MLOAD PUSH2 0x1C5 SWAP2 SWAP1 PUSH2 0xDC1 JUMP JUMPDEST PUSH1 0x40 MLOAD DUP1 SWAP2 SUB SWAP1 RETURN JUMPDEST PUSH2 0x1E8 PUSH1 0x4 DUP1 CALLDATASIZE SUB DUP2 ADD SWAP1 PUSH2 0x1E3 SWAP2 SWAP1 PUSH2 0x11CB JUMP JUMPDEST PUSH2 0xCC3 JUMP JUMPDEST PUSH1 0x40 MLOAD PUSH2 0x1F5 SWAP2 SWAP1 PUSH2 0xFC5 JUMP JUMPDEST PUSH1 0x40 MLOAD DUP1 SWAP2 SUB SWAP1 RETURN JUMPDEST PUSH1 0x3 PUSH0 SWAP1 SLOAD SWAP1 PUSH2 0x100 EXP SWAP1 DIV PUSH20 0xFFFFFFFFFFFFFFFFFFFFFFFFFFFFFFFFFFFFFFFF AND DUP2 JUMP JUMPDEST PUSH1 0x6 DUP3 DUP1 MLOAD PUSH1 0x20 DUP2 ADD DUP3 ADD DUP1 MLOAD DUP5 DUP3 MSTORE PUSH1 0x20 DUP4 ADD PUSH1 0x20 DUP6 ADD KECCAK256 DUP2 DUP4 MSTORE DUP1 SWAP6 POP POP POP POP POP POP PUSH1 0x20 MSTORE DUP1 PUSH0 MSTORE PUSH1 0x40 PUSH0 KECCAK256 PUSH0 SWAP2 POP SWAP2 POP SWAP1 SLOAD SWAP1 PUSH2 0x100 EXP SWAP1 DIV PUSH1 0xFF AND DUP2 JUMP JUMPDEST PUSH0 DUP1 SLOAD SWAP1 PUSH2 0x100 EXP SWAP1 DIV PUSH20 0xFFFFFFFFFFFFFFFFFFFFFFFFFFFFFFFFFFFFFFFF AND DUP2 JUMP JUMPDEST PUSH1 0x4 PUSH0 CALLER PUSH20 0xFFFFFFFFFFFFFFFFFFFFFFFFFFFFFFFFFFFFFFFF AND PUSH20 0xFFFFFFFFFFFFFFFFFFFFFFFFFFFFFFFFFFFFFFFF AND DUP2 MSTORE PUSH1 0x20 ADD SWAP1 DUP2 MSTORE PUSH1 0x20 ADD PUSH0 KECCAK256 PUSH0 SWAP1 SLOAD SWAP1 PUSH2 0x100 EXP SWAP1 DIV PUSH1 0xFF AND PUSH2 0x311 JUMPI PUSH1 0x40 MLOAD PUSH32 0x8C379A000000000000000000000000000000000000000000000000000000000 DUP2 MSTORE PUSH1 0x4 ADD PUSH2 0x308 SWAP1 PUSH2 0x1240 JUMP JUMPDEST PUSH1 0x40 MLOAD DUP1 SWAP2 SUB SWAP1 REVERT JUMPDEST PUSH0 DUP2 MLOAD GT PUSH2 0x354 JUMPI PUSH1 0x40 MLOAD PUSH32 0x8C379A000000000000000000000000000000000000000000000000000000000 DUP2 MSTORE PUSH1 0x4 ADD PUSH2 0x34B SWAP1 PUSH2 0x12A8 JUMP JUMPDEST PUSH1 0x40 MLOAD DUP1 SWAP2 SUB SWAP1 REVERT JUMPDEST PUSH0 PUSH1 0x2 DUP2 GT ISZERO PUSH2 0x367 JUMPI PUSH2 0x366 PUSH2 0x109F JUMP JUMPDEST JUMPDEST PUSH1 0x5 DUP3 PUSH1 0x40 MLOAD PUSH2 0x377 SWAP2 SWAP1 PUSH2 0x1300 JUMP JUMPDEST SWAP1 DUP2 MSTORE PUSH1 0x20 ADD PUSH1 0x40 MLOAD DUP1 SWAP2 SUB SWAP1 KECCAK256 PUSH1 0x2 ADD PUSH0 SWAP1 SLOAD SWAP1 PUSH2 0x100 EXP SWAP1 DIV PUSH1 0xFF AND PUSH1 0x2 DUP2 GT ISZERO PUSH2 0x3A7 JUMPI PUSH2 0x3A6 PUSH2 0x109F JUMP JUMPDEST JUMPDEST EQ PUSH2 0x3E7 JUMPI PUSH1 0x40 MLOAD PUSH32 0x8C379A000000000000000000000000000000000000000000000000000000000 DUP2 MSTORE PUSH1 0x4 ADD PUSH2 0x3DE SWAP1 PUSH2 0x1386 JUMP JUMPDEST PUSH1 0x40 MLOAD DUP1 SWAP2 SUB SWAP1 REVERT JUMPDEST PUSH1 0x6 DUP2 PUSH1 0x40 MLOAD PUSH2 0x3F7 SWAP2 SWAP1 PUSH2 0x1300 JUMP JUMPDEST SWAP1 DUP2 MSTORE PUSH1 0x20 ADD PUSH1 0x40 MLOAD DUP1 SWAP2 SUB SWAP1 KECCAK256 PUSH0 CALLER PUSH20 0xFFFFFFFFFFFFFFFFFFFFFFFFFFFFFFFFFFFFFFFF AND PUSH20 0xFFFFFFFFFFFFFFFFFFFFFFFFFFFFFFFFFFFFFFFF AND DUP2 MSTORE PUSH1 0x20 ADD SWAP1 DUP2 MSTORE PUSH1 0x20 ADD PUSH0 KECCAK256 PUSH0 SWAP1 SLOAD SWAP1 PUSH2 0x100 EXP SWAP1 DIV PUSH1 0xFF AND ISZERO PUSH2 0x48D JUMPI PUSH1 0x40 MLOAD PUSH32 0x8C379A000000000000000000000000000000000000000000000000000000000 DUP2 MSTORE PUSH1 0x4 ADD PUSH2 0x484 SWAP1 PUSH2 0x13EE JUMP JUMPDEST PUSH1 0x40 MLOAD DUP1 SWAP2 SUB SWAP1 REVERT JUMPDEST PUSH1 0x5 DUP2 PUSH1 0x40 MLOAD PUSH2 0x49D SWAP2 SWAP1 PUSH2 0x1300 JUMP JUMPDEST SWAP1 DUP2 MSTORE PUSH1 0x20 ADD PUSH1 0x40 MLOAD DUP1 SWAP2 SUB SWAP1 KECCAK256 PUSH1 0x3 ADD CALLER SWAP1 DUP1 PUSH1 0x1 DUP2 SLOAD ADD DUP1 DUP3 SSTORE DUP1 SWAP2 POP POP PUSH1 0x1 SWAP1 SUB SWAP1 PUSH0 MSTORE PUSH1 0x20 PUSH0 KECCAK256 ADD PUSH0 SWAP1 SWAP2 SWAP1 SWAP2 SWAP1 SWAP2 PUSH2 0x100 EXP DUP2 SLOAD DUP2 PUSH20 0xFFFFFFFFFFFFFFFFFFFFFFFFFFFFFFFFFFFFFFFF MUL NOT AND SWAP1 DUP4 PUSH20 0xFFFFFFFFFFFFFFFFFFFFFFFFFFFFFFFFFFFFFFFF AND MUL OR SWAP1 SSTORE POP PUSH1 0x1 PUSH1 0x6 DUP3 PUSH1 0x40 MLOAD PUSH2 0x51E SWAP2 SWAP1 PUSH2 0x1300 JUMP JUMPDEST SWAP1 DUP2 MSTORE PUSH1 0x20 ADD PUSH1 0x40 MLOAD DUP1 SWAP2 SUB SWAP1 KECCAK256 PUSH0 CALLER PUSH20 0xFFFFFFFFFFFFFFFFFFFFFFFFFFFFFFFFFFFFFFFF AND PUSH20 0xFFFFFFFFFFFFFFFFFFFFFFFFFFFFFFFFFFFFFFFF AND DUP2 MSTORE PUSH1 0x20 ADD SWAP1 DUP2 MSTORE PUSH1 0x20 ADD PUSH0 KECCAK256 PUSH0 PUSH2 0x100 EXP DUP2 SLOAD DUP2 PUSH1 0xFF MUL NOT AND SWAP1 DUP4 ISZERO ISZERO MUL OR SWAP1 SSTORE POP DUP1 PUSH1 0x40 MLOAD PUSH2 0x58B SWAP2 SWAP1 PUSH2 0x1300 JUMP JUMPDEST PUSH1 0x40 MLOAD DUP1 SWAP2 SUB SWAP1 KECCAK256 CALLER PUSH20 0xFFFFFFFFFFFFFFFFFFFFFFFFFFFFFFFFFFFFFFFF AND PUSH32 0xB8C34C3CF12BA37DA0C3168C33497D87BD576CFCCC7846CFA40CF4A68BF57E4F PUSH1 0x1 PUSH1 0x40 MLOAD PUSH2 0x5DA SWAP2 SWAP1 PUSH2 0x140C JUMP JUMPDEST PUSH1 0x40 MLOAD DUP1 SWAP2 SUB SWAP1 LOG3 PUSH1 0x3 PUSH1 0x5 DUP3 PUSH1 0x40 MLOAD PUSH2 0x5F4 SWAP2 SWAP1 PUSH2 0x1300 JUMP JUMPDEST SWAP1 DUP2 MSTORE PUSH1 0x20 ADD PUSH1 0x40 MLOAD DUP1 SWAP2 SUB SWAP1 KECCAK256 PUSH1 0x3 ADD DUP1 SLOAD SWAP1 POP SUB PUSH2 0x658 JUMPI PUSH1 0x1 PUSH1 0x5 DUP3 PUSH1 0x40 MLOAD PUSH2 0x620 SWAP2 SWAP1 PUSH2 0x1300 JUMP JUMPDEST SWAP1 DUP2 MSTORE PUSH1 0x20 ADD PUSH1 0x40 MLOAD DUP1 SWAP2 SUB SWAP1 KECCAK256 PUSH1 0x2 ADD PUSH0 PUSH2 0x100 EXP DUP2 SLOAD DUP2 PUSH1 0xFF MUL NOT AND SWAP1 DUP4 PUSH1 0x2 DUP2 GT ISZERO PUSH2 0x652 JUMPI PUSH2 0x651 PUSH2 0x109F JUMP JUMPDEST JUMPDEST MUL OR SWAP1 SSTORE POP JUMPDEST POP JUMP JUMPDEST PUSH1 0x5 DUP2 DUP1 MLOAD PUSH1 0x20 DUP2 ADD DUP3 ADD DUP1 MLOAD DUP5 DUP3 MSTORE PUSH1 0x20 DUP4 ADD PUSH1 0x20 DUP6 ADD KECCAK256 DUP2 DUP4 MSTORE DUP1 SWAP6 POP POP POP POP POP POP PUSH0 SWAP2 POP SWAP1 POP DUP1 PUSH0 ADD DUP1 SLOAD PUSH2 0x692 SWAP1 PUSH2 0x1452 JUMP JUMPDEST DUP1 PUSH1 0x1F ADD PUSH1 0x20 DUP1 SWAP2 DIV MUL PUSH1 0x20 ADD PUSH1 0x40 MLOAD SWAP1 DUP2 ADD PUSH1 0x40 MSTORE DUP1 SWAP3 SWAP2 SWAP1 DUP2 DUP2 MSTORE PUSH1 0x20 ADD DUP3 DUP1 SLOAD PUSH2 0x6BE SWAP1 PUSH2 0x1452 JUMP JUMPDEST DUP1 ISZERO PUSH2 0x709 JUMPI DUP1 PUSH1 0x1F LT PUSH2 0x6E0 JUMPI PUSH2 0x100 DUP1 DUP4 SLOAD DIV MUL DUP4 MSTORE SWAP2 PUSH1 0x20 ADD SWAP2 PUSH2 0x709 JUMP JUMPDEST DUP3 ADD SWAP2 SWAP1 PUSH0 MSTORE PUSH1 0x20 PUSH0 KECCAK256 SWAP1 JUMPDEST DUP2 SLOAD DUP2 MSTORE SWAP1 PUSH1 0x1 ADD SWAP1 PUSH1 0x20 ADD DUP1 DUP4 GT PUSH2 0x6EC JUMPI DUP3 SWAP1 SUB PUSH1 0x1F AND DUP3 ADD SWAP2 JUMPDEST POP POP POP POP POP SWAP1 DUP1 PUSH1 0x1 ADD DUP1 SLOAD PUSH2 0x71E SWAP1 PUSH2 0x1452 JUMP JUMPDEST DUP1 PUSH1 0x1F ADD PUSH1 0x20 DUP1 SWAP2 DIV MUL PUSH1 0x20 ADD PUSH1 0x40 MLOAD SWAP1 DUP2 ADD PUSH1 0x40 MSTORE DUP1 SWAP3 SWAP2 SWAP1 DUP2 DUP2 MSTORE PUSH1 0x20 ADD DUP3 DUP1 SLOAD PUSH2 0x74A SWAP1 PUSH2 0x1452 JUMP JUMPDEST DUP1 ISZERO PUSH2 0x795 JUMPI DUP1 PUSH1 0x1F LT PUSH2 0x76C JUMPI PUSH2 0x100 DUP1 DUP4 SLOAD DIV MUL DUP4 MSTORE SWAP2 PUSH1 0x20 ADD SWAP2 PUSH2 0x795 JUMP JUMPDEST DUP3 ADD SWAP2 SWAP1 PUSH0 MSTORE PUSH1 0x20 PUSH0 KECCAK256 SWAP1 JUMPDEST DUP2 SLOAD DUP2 MSTORE SWAP1 PUSH1 0x1 ADD SWAP1 PUSH1 0x20 ADD DUP1 DUP4 GT PUSH2 0x778 JUMPI DUP3 SWAP1 SUB PUSH1 0x1F AND DUP3 ADD SWAP2 JUMPDEST POP POP POP POP POP SWAP1 DUP1 PUSH1 0x2 ADD PUSH0 SWAP1 SLOAD SWAP1 PUSH2 0x100 EXP SWAP1 DIV PUSH1 0xFF AND SWAP1 POP DUP4 JUMP JUMPDEST PUSH1 0x4 PUSH0 CALLER PUSH20 0xFFFFFFFFFFFFFFFFFFFFFFFFFFFFFFFFFFFFFFFF AND PUSH20 0xFFFFFFFFFFFFFFFFFFFFFFFFFFFFFFFFFFFFFFFF AND DUP2 MSTORE PUSH1 0x20 ADD SWAP1 DUP2 MSTORE PUSH1 0x20 ADD PUSH0 KECCAK256 PUSH0 SWAP1 SLOAD SWAP1 PUSH2 0x100 EXP SWAP1 DIV PUSH1 0xFF AND PUSH2 0x83A JUMPI PUSH1 0x40 MLOAD PUSH32 0x8C379A000000000000000000000000000000000000000000000000000000000 DUP2 MSTORE PUSH1 0x4 ADD PUSH2 0x831 SWAP1 PUSH2 0x1240 JUMP JUMPDEST PUSH1 0x40 MLOAD DUP1 SWAP2 SUB SWAP1 REVERT JUMPDEST PUSH0 DUP2 MLOAD GT PUSH2 0x87D JUMPI PUSH1 0x40 MLOAD PUSH32 0x8C379A000000000000000000000000000000000000000000000000000000000 DUP2 MSTORE PUSH1 0x4 ADD PUSH2 0x874 SWAP1 PUSH2 0x12A8 JUMP JUMPDEST PUSH1 0x40 MLOAD DUP1 SWAP2 SUB SWAP1 REVERT JUMPDEST PUSH0 PUSH1 0x2 DUP2 GT ISZERO PUSH2 0x890 JUMPI PUSH2 0x88F PUSH2 0x109F JUMP JUMPDEST JUMPDEST PUSH1 0x5 DUP3 PUSH1 0x40 MLOAD PUSH2 0x8A0 SWAP2 SWAP1 PUSH2 0x1300 JUMP JUMPDEST SWAP1 DUP2 MSTORE PUSH1 0x20 ADD PUSH1 0x40 MLOAD DUP1 SWAP2 SUB SWAP1 KECCAK256 PUSH1 0x2 ADD PUSH0 SWAP1 SLOAD SWAP1 PUSH2 0x100 EXP SWAP1 DIV PUSH1 0xFF AND PUSH1 0x2 DUP2 GT ISZERO PUSH2 0x8D0 JUMPI PUSH2 0x8CF PUSH2 0x109F JUMP JUMPDEST JUMPDEST EQ PUSH2 0x910 JUMPI PUSH1 0x40 MLOAD PUSH32 0x8C379A000000000000000000000000000000000000000000000000000000000 DUP2 MSTORE PUSH1 0x4 ADD PUSH2 0x907 SWAP1 PUSH2 0x1386 JUMP JUMPDEST PUSH1 0x40 MLOAD DUP1 SWAP2 SUB SWAP1 REVERT JUMPDEST PUSH1 0x2 PUSH1 0x5 DUP3 PUSH1 0x40 MLOAD PUSH2 0x922 SWAP2 SWAP1 PUSH2 0x1300 JUMP JUMPDEST SWAP1 DUP2 MSTORE PUSH1 0x20 ADD PUSH1 0x40 MLOAD DUP1 SWAP2 SUB SWAP1 KECCAK256 PUSH1 0x2 ADD PUSH0 PUSH2 0x100 EXP DUP2 SLOAD DUP2 PUSH1 0xFF MUL NOT AND SWAP1 DUP4 PUSH1 0x2 DUP2 GT ISZERO PUSH2 0x954 JUMPI PUSH2 0x953 PUSH2 0x109F JUMP JUMPDEST JUMPDEST MUL OR SWAP1 SSTORE POP DUP1 PUSH1 0x40 MLOAD PUSH2 0x967 SWAP2 SWAP1 PUSH2 0x1300 JUMP JUMPDEST PUSH1 0x40 MLOAD DUP1 SWAP2 SUB SWAP1 KECCAK256 CALLER PUSH20 0xFFFFFFFFFFFFFFFFFFFFFFFFFFFFFFFFFFFFFFFF AND PUSH32 0xB8C34C3CF12BA37DA0C3168C33497D87BD576CFCCC7846CFA40CF4A68BF57E4F PUSH1 0x2 PUSH1 0x40 MLOAD PUSH2 0x9B6 SWAP2 SWAP1 PUSH2 0x140C JUMP JUMPDEST PUSH1 0x40 MLOAD DUP1 SWAP2 SUB SWAP1 LOG3 POP JUMP JUMPDEST PUSH1 0x4 PUSH0 CALLER PUSH20 0xFFFFFFFFFFFFFFFFFFFFFFFFFFFFFFFFFFFFFFFF AND PUSH20 0xFFFFFFFFFFFFFFFFFFFFFFFFFFFFFFFFFFFFFFFF AND DUP2 MSTORE PUSH1 0x20 ADD SWAP1 DUP2 MSTORE PUSH1 0x20 ADD PUSH0 KECCAK256 PUSH0 SWAP1 SLOAD SWAP1 PUSH2 0x100 EXP SWAP1 DIV PUSH1 0xFF AND PUSH2 0xA4A JUMPI PUSH1 0x40 MLOAD PUSH32 0x8C379A000000000000000000000000000000000000000000000000000000000 DUP2 MSTORE PUSH1 0x4 ADD PUSH2 0xA41 SWAP1 PUSH2 0x1240 JUMP JUMPDEST PUSH1 0x40 MLOAD DUP1 SWAP2 SUB SWAP1 REVERT JUMPDEST PUSH0 DUP3 MLOAD GT PUSH2 0xA8D JUMPI PUSH1 0x40 MLOAD PUSH32 0x8C379A000000000000000000000000000000000000000000000000000000000 DUP2 MSTORE PUSH1 0x4 ADD PUSH2 0xA84 SWAP1 PUSH2 0x12A8 JUMP JUMPDEST PUSH1 0x40 MLOAD DUP1 SWAP2 SUB SWAP1 REVERT JUMPDEST PUSH0 DUP2 MLOAD GT PUSH2 0xAD0 JUMPI PUSH1 0x40 MLOAD PUSH32 0x8C379A000000000000000000000000000000000000000000000000000000000 DUP2 MSTORE PUSH1 0x4 ADD PUSH2 0xAC7 SWAP1 PUSH2 0x14CC JUMP JUMPDEST PUSH1 0x40 MLOAD DUP1 SWAP2 SUB SWAP1 REVERT JUMPDEST PUSH0 PUSH1 0x2 DUP2 GT ISZERO PUSH2 0xAE3 JUMPI PUSH2 0xAE2 PUSH2 0x109F JUMP JUMPDEST JUMPDEST PUSH1 0x5 DUP4 PUSH1 0x40 MLOAD PUSH2 0xAF3 SWAP2 SWAP1 PUSH2 0x1300 JUMP JUMPDEST SWAP1 DUP2 MSTORE PUSH1 0x20 ADD PUSH1 0x40 MLOAD DUP1 SWAP2 SUB SWAP1 KECCAK256 PUSH1 0x2 ADD PUSH0 SWAP1 SLOAD SWAP1 PUSH2 0x100 EXP SWAP1 DIV PUSH1 0xFF AND PUSH1 0x2 DUP2 GT ISZERO PUSH2 0xB23 JUMPI PUSH2 0xB22 PUSH2 0x109F JUMP JUMPDEST JUMPDEST EQ PUSH2 0xB63 JUMPI PUSH1 0x40 MLOAD PUSH32 0x8C379A000000000000000000000000000000000000000000000000000000000 DUP2 MSTORE PUSH1 0x4 ADD PUSH2 0xB5A SWAP1 PUSH2 0x1534 JUMP JUMPDEST PUSH1 0x40 MLOAD DUP1 SWAP2 SUB SWAP1 REVERT JUMPDEST PUSH1 0x40 MLOAD DUP1 PUSH1 0x80 ADD PUSH1 0x40 MSTORE DUP1 DUP4 DUP2 MSTORE PUSH1 0x20 ADD DUP3 DUP2 MSTORE PUSH1 0x20 ADD PUSH0 PUSH1 0x2 DUP2 GT ISZERO PUSH2 0xB8D JUMPI PUSH2 0xB8C PUSH2 0x109F JUMP JUMPDEST JUMPDEST DUP2 MSTORE PUSH1 0x20 ADD PUSH0 PUSH8 0xFFFFFFFFFFFFFFFF DUP2 GT ISZERO PUSH2 0xBAC JUMPI PUSH2 0xBAB PUSH2 0xE03 JUMP JUMPDEST JUMPDEST PUSH1 0x40 MLOAD SWAP1 DUP1 DUP3 MSTORE DUP1 PUSH1 0x20 MUL PUSH1 0x20 ADD DUP3 ADD PUSH1 0x40 MSTORE DUP1 ISZERO PUSH2 0xBDA JUMPI DUP2 PUSH1 0x20 ADD PUSH1 0x20 DUP3 MUL DUP1 CALLDATASIZE DUP4 CALLDATACOPY DUP1 DUP3 ADD SWAP2 POP POP SWAP1 POP JUMPDEST POP DUP2 MSTORE POP PUSH1 0x5 DUP4 PUSH1 0x40 MLOAD PUSH2 0xBEE SWAP2 SWAP1 PUSH2 0x1300 JUMP JUMPDEST SWAP1 DUP2 MSTORE PUSH1 0x20 ADD PUSH1 0x40 MLOAD DUP1 SWAP2 SUB SWAP1 KECCAK256 PUSH0 DUP3 ADD MLOAD DUP2 PUSH0 ADD SWAP1 DUP2 PUSH2 0xC0F SWAP2 SWAP1 PUSH2 0x16F8 JUMP JUMPDEST POP PUSH1 0x20 DUP3 ADD MLOAD DUP2 PUSH1 0x1 ADD SWAP1 DUP2 PUSH2 0xC25 SWAP2 SWAP1 PUSH2 0x16F8 JUMP JUMPDEST POP PUSH1 0x40 DUP3 ADD MLOAD DUP2 PUSH1 0x2 ADD PUSH0 PUSH2 0x100 EXP DUP2 SLOAD DUP2 PUSH1 0xFF MUL NOT AND SWAP1 DUP4 PUSH1 0x2 DUP2 GT ISZERO PUSH2 0xC50 JUMPI PUSH2 0xC4F PUSH2 0x109F JUMP JUMPDEST JUMPDEST MUL OR SWAP1 SSTORE POP PUSH1 0x60 DUP3 ADD MLOAD DUP2 PUSH1 0x3 ADD SWAP1 DUP1 MLOAD SWAP1 PUSH1 0x20 ADD SWAP1 PUSH2 0xC71 SWAP3 SWAP2 SWAP1 PUSH2 0xCE0 JUMP JUMPDEST POP SWAP1 POP POP POP POP JUMP JUMPDEST PUSH1 0x2 PUSH0 SWAP1 SLOAD SWAP1 PUSH2 0x100 EXP SWAP1 DIV PUSH20 0xFFFFFFFFFFFFFFFFFFFFFFFFFFFFFFFFFFFFFFFF AND DUP2 JUMP JUMPDEST PUSH1 0x1 PUSH0 SWAP1 SLOAD SWAP1 PUSH2 0x100 EXP SWAP1 DIV PUSH20 0xFFFFFFFFFFFFFFFFFFFFFFFFFFFFFFFFFFFFFFFF AND DUP2 JUMP JUMPDEST PUSH1 0x4 PUSH1 0x20 MSTORE DUP1 PUSH0 MSTORE PUSH1 0x40 PUSH0 KECCAK256 PUSH0 SWAP2 POP SLOAD SWAP1 PUSH2 0x100 EXP SWAP1 DIV PUSH1 0xFF AND DUP2 JUMP JUMPDEST DUP3 DUP1 SLOAD DUP3 DUP3 SSTORE SWAP1 PUSH0 MSTORE PUSH1 0x20 PUSH0 KECCAK256 SWAP1 DUP2 ADD SWAP3 DUP3 ISZERO PUSH2 0xD56 JUMPI SWAP2 PUSH1 0x20 MUL DUP3 ADD JUMPDEST DUP3 DUP2 GT ISZERO PUSH2 0xD55 JUMPI DUP3 MLOAD DUP3 PUSH0 PUSH2 0x100 EXP DUP2 SLOAD DUP2 PUSH20 0xFFFFFFFFFFFFFFFFFFFFFFFFFFFFFFFFFFFFFFFF MUL NOT AND SWAP1 DUP4 PUSH20 0xFFFFFFFFFFFFFFFFFFFFFFFFFFFFFFFFFFFFFFFF AND MUL OR SWAP1 SSTORE POP SWAP2 PUSH1 0x20 ADD SWAP2 SWAP1 PUSH1 0x1 ADD SWAP1 PUSH2 0xCFE JUMP JUMPDEST JUMPDEST POP SWAP1 POP PUSH2 0xD63 SWAP2 SWAP1 PUSH2 0xD67 JUMP JUMPDEST POP SWAP1 JUMP JUMPDEST JUMPDEST DUP1 DUP3 GT ISZERO PUSH2 0xD7E JUMPI PUSH0 DUP2 PUSH0 SWAP1 SSTORE POP PUSH1 0x1 ADD PUSH2 0xD68 JUMP JUMPDEST POP SWAP1 JUMP JUMPDEST PUSH0 PUSH20 0xFFFFFFFFFFFFFFFFFFFFFFFFFFFFFFFFFFFFFFFF DUP3 AND SWAP1 POP SWAP2 SWAP1 POP JUMP JUMPDEST PUSH0 PUSH2 0xDAB DUP3 PUSH2 0xD82 JUMP JUMPDEST SWAP1 POP SWAP2 SWAP1 POP JUMP JUMPDEST PUSH2 0xDBB DUP2 PUSH2 0xDA1 JUMP JUMPDEST DUP3 MSTORE POP POP JUMP JUMPDEST PUSH0 PUSH1 0x20 DUP3 ADD SWAP1 POP PUSH2 0xDD4 PUSH0 DUP4 ADD DUP5 PUSH2 0xDB2 JUMP JUMPDEST SWAP3 SWAP2 POP POP JUMP JUMPDEST PUSH0 PUSH1 0x40 MLOAD SWAP1 POP SWAP1 JUMP JUMPDEST PUSH0 DUP1 REVERT JUMPDEST PUSH0 DUP1 REVERT JUMPDEST PUSH0 DUP1 REVERT JUMPDEST PUSH0 DUP1 REVERT JUMPDEST PUSH0 PUSH1 0x1F NOT PUSH1 0x1F DUP4 ADD AND SWAP1 POP SWAP2 SWAP1 POP JUMP JUMPDEST PUSH32 0x4E487B7100000000000000000000000000000000000000000000000000000000 PUSH0 MSTORE PUSH1 0x41 PUSH1 0x4 MSTORE PUSH1 0x24 PUSH0 REVERT JUMPDEST PUSH2 0xE39 DUP3 PUSH2 0xDF3 JUMP JUMPDEST DUP2 ADD DUP2 DUP2 LT PUSH8 0xFFFFFFFFFFFFFFFF DUP3 GT OR ISZERO PUSH2 0xE58 JUMPI PUSH2 0xE57 PUSH2 0xE03 JUMP JUMPDEST JUMPDEST DUP1 PUSH1 0x40 MSTORE POP POP POP JUMP JUMPDEST PUSH0 PUSH2 0xE6A PUSH2 0xDDA JUMP JUMPDEST SWAP1 POP PUSH2 0xE76 DUP3 DUP3 PUSH2 0xE30 JUMP JUMPDEST SWAP2 SWAP1 POP JUMP JUMPDEST PUSH0 PUSH8 0xFFFFFFFFFFFFFFFF DUP3 GT ISZERO PUSH2 0xE95 JUMPI PUSH2 0xE94 PUSH2 0xE03 JUMP JUMPDEST JUMPDEST PUSH2 0xE9E DUP3 PUSH2 0xDF3 JUMP JUMPDEST SWAP1 POP PUSH1 0x20 DUP2 ADD SWAP1 POP SWAP2 SWAP1 POP JUMP JUMPDEST DUP3 DUP2 DUP4 CALLDATACOPY PUSH0 DUP4 DUP4 ADD MSTORE POP POP POP JUMP JUMPDEST PUSH0 PUSH2 0xECB PUSH2 0xEC6 DUP5 PUSH2 0xE7B JUMP JUMPDEST PUSH2 0xE61 JUMP JUMPDEST SWAP1 POP DUP3 DUP2 MSTORE PUSH1 0x20 DUP2 ADD DUP5 DUP5 DUP5 ADD GT ISZERO PUSH2 0xEE7 JUMPI PUSH2 0xEE6 PUSH2 0xDEF JUMP JUMPDEST JUMPDEST PUSH2 0xEF2 DUP5 DUP3 DUP6 PUSH2 0xEAB JUMP JUMPDEST POP SWAP4 SWAP3 POP POP POP JUMP JUMPDEST PUSH0 DUP3 PUSH1 0x1F DUP4 ADD SLT PUSH2 0xF0E JUMPI PUSH2 0xF0D PUSH2 0xDEB JUMP JUMPDEST JUMPDEST DUP2 CALLDATALOAD PUSH2 0xF1E DUP5 DUP3 PUSH1 0x20 DUP7 ADD PUSH2 0xEB9 JUMP JUMPDEST SWAP2 POP POP SWAP3 SWAP2 POP POP JUMP JUMPDEST PUSH2 0xF30 DUP2 PUSH2 0xDA1 JUMP JUMPDEST DUP2 EQ PUSH2 0xF3A JUMPI PUSH0 DUP1 REVERT JUMPDEST POP JUMP JUMPDEST PUSH0 DUP2 CALLDATALOAD SWAP1 POP PUSH2 0xF4B DUP2 PUSH2 0xF27 JUMP JUMPDEST SWAP3 SWAP2 POP POP JUMP JUMPDEST PUSH0 DUP1 PUSH1 0x40 DUP4 DUP6 SUB SLT ISZERO PUSH2 0xF67 JUMPI PUSH2 0xF66 PUSH2 0xDE3 JUMP JUMPDEST JUMPDEST PUSH0 DUP4 ADD CALLDATALOAD PUSH8 0xFFFFFFFFFFFFFFFF DUP2 GT ISZERO PUSH2 0xF84 JUMPI PUSH2 0xF83 PUSH2 0xDE7 JUMP JUMPDEST JUMPDEST PUSH2 0xF90 DUP6 DUP3 DUP7 ADD PUSH2 0xEFA JUMP JUMPDEST SWAP3 POP POP PUSH1 0x20 PUSH2 0xFA1 DUP6 DUP3 DUP7 ADD PUSH2 0xF3D JUMP JUMPDEST SWAP2 POP POP SWAP3 POP SWAP3 SWAP1 POP JUMP JUMPDEST PUSH0 DUP2 ISZERO ISZERO SWAP1 POP SWAP2 SWAP1 POP JUMP JUMPDEST PUSH2 0xFBF DUP2 PUSH2 0xFAB JUMP JUMPDEST DUP3 MSTORE POP POP JUMP JUMPDEST PUSH0 PUSH1 0x20 DUP3 ADD SWAP1 POP PUSH2 0xFD8 PUSH0 DUP4 ADD DUP5 PUSH2 0xFB6 JUMP JUMPDEST SWAP3 SWAP2 POP POP JUMP JUMPDEST PUSH0 PUSH1 0x20 DUP3 DUP5 SUB SLT ISZERO PUSH2 0xFF3 JUMPI PUSH2 0xFF2 PUSH2 0xDE3 JUMP JUMPDEST JUMPDEST PUSH0 DUP3 ADD CALLDATALOAD PUSH8 0xFFFFFFFFFFFFFFFF DUP2 GT ISZERO PUSH2 0x1010 JUMPI PUSH2 0x100F PUSH2 0xDE7 JUMP JUMPDEST JUMPDEST PUSH2 0x101C DUP5 DUP3 DUP6 ADD PUSH2 0xEFA JUMP JUMPDEST SWAP2 POP POP SWAP3 SWAP2 POP POP JUMP JUMPDEST PUSH0 DUP2 MLOAD SWAP1 POP SWAP2 SWAP1 POP JUMP JUMPDEST PUSH0 DUP3 DUP3 MSTORE PUSH1 0x20 DUP3 ADD SWAP1 POP SWAP3 SWAP2 POP POP JUMP JUMPDEST PUSH0 JUMPDEST DUP4 DUP2 LT ISZERO PUSH2 0x105C JUMPI DUP1 DUP3 ADD MLOAD DUP2 DUP5 ADD MSTORE PUSH1 0x20 DUP2 ADD SWAP1 POP PUSH2 0x1041 JUMP JUMPDEST PUSH0 DUP5 DUP5 ADD MSTORE POP POP POP POP JUMP JUMPDEST PUSH0 PUSH2 0x1071 DUP3 PUSH2 0x1025 JUMP JUMPDEST PUSH2 0x107B DUP2 DUP6 PUSH2 0x102F JUMP JUMPDEST SWAP4 POP PUSH2 0x108B DUP2 DUP6 PUSH1 0x20 DUP7 ADD PUSH2 0x103F JUMP JUMPDEST PUSH2 0x1094 DUP2 PUSH2 0xDF3 JUMP JUMPDEST DUP5 ADD SWAP2 POP POP SWAP3 SWAP2 POP POP JUMP JUMPDEST PUSH32 0x4E487B7100000000000000000000000000000000000000000000000000000000 PUSH0 MSTORE PUSH1 0x21 PUSH1 0x4 MSTORE PUSH1 0x24 PUSH0 REVERT JUMPDEST PUSH1 0x3 DUP2 LT PUSH2 0x10DD JUMPI PUSH2 0x10DC PUSH2 0x109F JUMP JUMPDEST JUMPDEST POP JUMP JUMPDEST PUSH0 DUP2 SWAP1 POP PUSH2 0x10ED DUP3 PUSH2 0x10CC JUMP JUMPDEST SWAP2 SWAP1 POP JUMP JUMPDEST PUSH0 PUSH2 0x10FC DUP3 PUSH2 0x10E0 JUMP JUMPDEST SWAP1 POP SWAP2 SWAP1 POP JUMP JUMPDEST PUSH2 0x110C DUP2 PUSH2 0x10F2 JUMP JUMPDEST DUP3 MSTORE POP POP JUMP JUMPDEST PUSH0 PUSH1 0x60 DUP3 ADD SWAP1 POP DUP2 DUP2 SUB PUSH0 DUP4 ADD MSTORE PUSH2 0x112A DUP2 DUP7 PUSH2 0x1067 JUMP JUMPDEST SWAP1 POP DUP2 DUP2 SUB PUSH1 0x20 DUP4 ADD MSTORE PUSH2 0x113E DUP2 DUP6 PUSH2 0x1067 JUMP JUMPDEST SWAP1 POP PUSH2 0x114D PUSH1 0x40 DUP4 ADD DUP5 PUSH2 0x1103 JUMP JUMPDEST SWAP5 SWAP4 POP POP POP POP JUMP JUMPDEST PUSH0 DUP1 PUSH1 0x40 DUP4 DUP6 SUB SLT ISZERO PUSH2 0x116B JUMPI PUSH2 0x116A PUSH2 0xDE3 JUMP JUMPDEST JUMPDEST PUSH0 DUP4 ADD CALLDATALOAD PUSH8 0xFFFFFFFFFFFFFFFF DUP2 GT ISZERO PUSH2 0x1188 JUMPI PUSH2 0x1187 PUSH2 0xDE7 JUMP JUMPDEST JUMPDEST PUSH2 0x1194 DUP6 DUP3 DUP7 ADD PUSH2 0xEFA JUMP JUMPDEST SWAP3 POP POP PUSH1 0x20 DUP4 ADD CALLDATALOAD PUSH8 0xFFFFFFFFFFFFFFFF DUP2 GT ISZERO PUSH2 0x11B5 JUMPI PUSH2 0x11B4 PUSH2 0xDE7 JUMP JUMPDEST JUMPDEST PUSH2 0x11C1 DUP6 DUP3 DUP7 ADD PUSH2 0xEFA JUMP JUMPDEST SWAP2 POP POP SWAP3 POP SWAP3 SWAP1 POP JUMP JUMPDEST PUSH0 PUSH1 0x20 DUP3 DUP5 SUB SLT ISZERO PUSH2 0x11E0 JUMPI PUSH2 0x11DF PUSH2 0xDE3 JUMP JUMPDEST JUMPDEST PUSH0 PUSH2 0x11ED DUP5 DUP3 DUP6 ADD PUSH2 0xF3D JUMP JUMPDEST SWAP2 POP POP SWAP3 SWAP2 POP POP JUMP JUMPDEST PUSH32 0x4E6F7420617574686F72697A6564000000000000000000000000000000000000 PUSH0 DUP3 ADD MSTORE POP JUMP JUMPDEST PUSH0 PUSH2 0x122A PUSH1 0xE DUP4 PUSH2 0x102F JUMP JUMPDEST SWAP2 POP PUSH2 0x1235 DUP3 PUSH2 0x11F6 JUMP JUMPDEST PUSH1 0x20 DUP3 ADD SWAP1 POP SWAP2 SWAP1 POP JUMP JUMPDEST PUSH0 PUSH1 0x20 DUP3 ADD SWAP1 POP DUP2 DUP2 SUB PUSH0 DUP4 ADD MSTORE PUSH2 0x1257 DUP2 PUSH2 0x121E JUMP JUMPDEST SWAP1 POP SWAP2 SWAP1 POP JUMP JUMPDEST PUSH32 0x526F6C6C206E756D6265722063616E6E6F7420626520656D7074790000000000 PUSH0 DUP3 ADD MSTORE POP JUMP JUMPDEST PUSH0 PUSH2 0x1292 PUSH1 0x1B DUP4 PUSH2 0x102F JUMP JUMPDEST SWAP2 POP PUSH2 0x129D DUP3 PUSH2 0x125E JUMP JUMPDEST PUSH1 0x20 DUP3 ADD SWAP1 POP SWAP2 SWAP1 POP JUMP JUMPDEST PUSH0 PUSH1 0x20 DUP3 ADD SWAP1 POP DUP2 DUP2 SUB PUSH0 DUP4 ADD MSTORE PUSH2 0x12BF DUP2 PUSH2 0x1286 JUMP JUMPDEST SWAP1 POP SWAP2 SWAP1 POP JUMP JUMPDEST PUSH0 DUP2 SWAP1 POP SWAP3 SWAP2 POP POP JUMP JUMPDEST PUSH0 PUSH2 0x12DA DUP3 PUSH2 0x1025 JUMP JUMPDEST PUSH2 0x12E4 DUP2 DUP6 PUSH2 0x12C6 JUMP JUMPDEST SWAP4 POP PUSH2 0x12F4 DUP2 DUP6 PUSH1 0x20 DUP7 ADD PUSH2 0x103F JUMP JUMPDEST DUP1 DUP5 ADD SWAP2 POP POP SWAP3 SWAP2 POP POP JUMP JUMPDEST PUSH0 PUSH2 0x130B DUP3 DUP5 PUSH2 0x12D0 JUMP JUMPDEST SWAP2 POP DUP2 SWAP1 POP SWAP3 SWAP2 POP POP JUMP JUMPDEST PUSH32 0x53747564656E74206E6F7420666F756E64206F722064656772656520616C7265 PUSH0 DUP3 ADD MSTORE PUSH32 0x61647920617070726F7665640000000000000000000000000000000000000000 PUSH1 0x20 DUP3 ADD MSTORE POP JUMP JUMPDEST PUSH0 PUSH2 0x1370 PUSH1 0x2C DUP4 PUSH2 0x102F JUMP JUMPDEST SWAP2 POP PUSH2 0x137B DUP3 PUSH2 0x1316 JUMP JUMPDEST PUSH1 0x40 DUP3 ADD SWAP1 POP SWAP2 SWAP1 POP JUMP JUMPDEST PUSH0 PUSH1 0x20 DUP3 ADD SWAP1 POP DUP2 DUP2 SUB PUSH0 DUP4 ADD MSTORE PUSH2 0x139D DUP2 PUSH2 0x1364 JUMP JUMPDEST SWAP1 POP SWAP2 SWAP1 POP JUMP JUMPDEST PUSH32 0x416C726561647920617070726F76656400000000000000000000000000000000 PUSH0 DUP3 ADD MSTORE POP JUMP JUMPDEST PUSH0 PUSH2 0x13D8 PUSH1 0x10 DUP4 PUSH2 0x102F JUMP JUMPDEST SWAP2 POP PUSH2 0x13E3 DUP3 PUSH2 0x13A4 JUMP JUMPDEST PUSH1 0x20 DUP3 ADD SWAP1 POP SWAP2 SWAP1 POP JUMP JUMPDEST PUSH0 PUSH1 0x20 DUP3 ADD SWAP1 POP DUP2 DUP2 SUB PUSH0 DUP4 ADD MSTORE PUSH2 0x1405 DUP2 PUSH2 0x13CC JUMP JUMPDEST SWAP1 POP SWAP2 SWAP1 POP JUMP JUMPDEST PUSH0 PUSH1 0x20 DUP3 ADD SWAP1 POP PUSH2 0x141F PUSH0 DUP4 ADD DUP5 PUSH2 0x1103 JUMP JUMPDEST SWAP3 SWAP2 POP POP JUMP JUMPDEST PUSH32 0x4E487B7100000000000000000000000000000000000000000000000000000000 PUSH0 MSTORE PUSH1 0x22 PUSH1 0x4 MSTORE PUSH1 0x24 PUSH0 REVERT JUMPDEST PUSH0 PUSH1 0x2 DUP3 DIV SWAP1 POP PUSH1 0x1 DUP3 AND DUP1 PUSH2 0x1469 JUMPI PUSH1 0x7F DUP3 AND SWAP2 POP JUMPDEST PUSH1 0x20 DUP3 LT DUP2 SUB PUSH2 0x147C JUMPI PUSH2 0x147B PUSH2 0x1425 JUMP JUMPDEST JUMPDEST POP SWAP2 SWAP1 POP JUMP JUMPDEST PUSH32 0x4E616D652063616E6E6F7420626520656D707479000000000000000000000000 PUSH0 DUP3 ADD MSTORE POP JUMP JUMPDEST PUSH0 PUSH2 0x14B6 PUSH1 0x14 DUP4 PUSH2 0x102F JUMP JUMPDEST SWAP2 POP PUSH2 0x14C1 DUP3 PUSH2 0x1482 JUMP JUMPDEST PUSH1 0x20 DUP3 ADD SWAP1 POP SWAP2 SWAP1 POP JUMP JUMPDEST PUSH0 PUSH1 0x20 DUP3 ADD SWAP1 POP DUP2 DUP2 SUB PUSH0 DUP4 ADD MSTORE PUSH2 0x14E3 DUP2 PUSH2 0x14AA JUMP JUMPDEST SWAP1 POP SWAP2 SWAP1 POP JUMP JUMPDEST PUSH32 0x53747564656E7420616C72656164792065786973747300000000000000000000 PUSH0 DUP3 ADD MSTORE POP JUMP JUMPDEST PUSH0 PUSH2 0x151E PUSH1 0x16 DUP4 PUSH2 0x102F JUMP JUMPDEST SWAP2 POP PUSH2 0x1529 DUP3 PUSH2 0x14EA JUMP JUMPDEST PUSH1 0x20 DUP3 ADD SWAP1 POP SWAP2 SWAP1 POP JUMP JUMPDEST PUSH0 PUSH1 0x20 DUP3 ADD SWAP1 POP DUP2 DUP2 SUB PUSH0 DUP4 ADD MSTORE PUSH2 0x154B DUP2 PUSH2 0x1512 JUMP JUMPDEST SWAP1 POP SWAP2 SWAP1 POP JUMP JUMPDEST PUSH0 DUP2 SWAP1 POP DUP2 PUSH0 MSTORE PUSH1 0x20 PUSH0 KECCAK256 SWAP1 POP SWAP2 SWAP1 POP JUMP JUMPDEST PUSH0 PUSH1 0x20 PUSH1 0x1F DUP4 ADD DIV SWAP1 POP SWAP2 SWAP1 POP JUMP JUMPDEST PUSH0 DUP3 DUP3 SHL SWAP1 POP SWAP3 SWAP2 POP POP JUMP JUMPDEST PUSH0 PUSH1 0x8 DUP4 MUL PUSH2 0x15AE PUSH32 0xFFFFFFFFFFFFFFFFFFFFFFFFFFFFFFFFFFFFFFFFFFFFFFFFFFFFFFFFFFFFFFFF DUP3 PUSH2 0x1573 JUMP JUMPDEST PUSH2 0x15B8 DUP7 DUP4 PUSH2 0x1573 JUMP JUMPDEST SWAP6 POP DUP1 NOT DUP5 AND SWAP4 POP DUP1 DUP7 AND DUP5 OR SWAP3 POP POP POP SWAP4 SWAP3 POP POP POP JUMP JUMPDEST PUSH0 DUP2 SWAP1 POP SWAP2 SWAP1 POP JUMP JUMPDEST PUSH0 DUP2 SWAP1 POP SWAP2 SWAP1 POP JUMP JUMPDEST PUSH0 PUSH2 0x15FC PUSH2 0x15F7 PUSH2 0x15F2 DUP5 PUSH2 0x15D0 JUMP JUMPDEST PUSH2 0x15D9 JUMP JUMPDEST PUSH2 0x15D0 JUMP JUMPDEST SWAP1 POP SWAP2 SWAP1 POP JUMP JUMPDEST PUSH0 DUP2 SWAP1 POP SWAP2 SWAP1 POP JUMP JUMPDEST PUSH2 0x1615 DUP4 PUSH2 0x15E2 JUMP JUMPDEST PUSH2 0x1629 PUSH2 0x1621 DUP3 PUSH2 0x1603 JUMP JUMPDEST DUP5 DUP5 SLOAD PUSH2 0x157F JUMP JUMPDEST DUP3 SSTORE POP POP POP POP JUMP JUMPDEST PUSH0 SWAP1 JUMP JUMPDEST PUSH2 0x163D PUSH2 0x1631 JUMP JUMPDEST PUSH2 0x1648 DUP2 DUP5 DUP5 PUSH2 0x160C JUMP JUMPDEST POP POP POP JUMP JUMPDEST JUMPDEST DUP2 DUP2 LT ISZERO PUSH2 0x166B JUMPI PUSH2 0x1660 PUSH0 DUP3 PUSH2 0x1635 JUMP JUMPDEST PUSH1 0x1 DUP2 ADD SWAP1 POP PUSH2 0x164E JUMP JUMPDEST POP POP JUMP JUMPDEST PUSH1 0x1F DUP3 GT ISZERO PUSH2 0x16B0 JUMPI PUSH2 0x1681 DUP2 PUSH2 0x1552 JUMP JUMPDEST PUSH2 0x168A DUP5 PUSH2 0x1564 JUMP JUMPDEST DUP2 ADD PUSH1 0x20 DUP6 LT ISZERO PUSH2 0x1699 JUMPI DUP2 SWAP1 POP JUMPDEST PUSH2 0x16AD PUSH2 0x16A5 DUP6 PUSH2 0x1564 JUMP JUMPDEST DUP4 ADD DUP3 PUSH2 0x164D JUMP JUMPDEST POP POP JUMPDEST POP POP POP JUMP JUMPDEST PUSH0 DUP3 DUP3 SHR SWAP1 POP SWAP3 SWAP2 POP POP JUMP JUMPDEST PUSH0 PUSH2 0x16D0 PUSH0 NOT DUP5 PUSH1 0x8 MUL PUSH2 0x16B5 JUMP JUMPDEST NOT DUP1 DUP4 AND SWAP2 POP POP SWAP3 SWAP2 POP POP JUMP JUMPDEST PUSH0 PUSH2 0x16E8 DUP4 DUP4 PUSH2 0x16C1 JUMP JUMPDEST SWAP2 POP DUP3 PUSH1 0x2 MUL DUP3 OR SWAP1 POP SWAP3 SWAP2 POP POP JUMP JUMPDEST PUSH2 0x1701 DUP3 PUSH2 0x1025 JUMP JUMPDEST PUSH8 0xFFFFFFFFFFFFFFFF DUP2 GT ISZERO PUSH2 0x171A JUMPI PUSH2 0x1719 PUSH2 0xE03 JUMP JUMPDEST JUMPDEST PUSH2 0x1724 DUP3 SLOAD PUSH2 0x1452 JUMP JUMPDEST PUSH2 0x172F DUP3 DUP3 DUP6 PUSH2 0x166F JUMP JUMPDEST PUSH0 PUSH1 0x20 SWAP1 POP PUSH1 0x1F DUP4 GT PUSH1 0x1 DUP2 EQ PUSH2 0x1760 JUMPI PUSH0 DUP5 ISZERO PUSH2 0x174E JUMPI DUP3 DUP8 ADD MLOAD SWAP1 POP JUMPDEST PUSH2 0x1758 DUP6 DUP3 PUSH2 0x16DD JUMP JUMPDEST DUP7 SSTORE POP PUSH2 0x17BF JUMP JUMPDEST PUSH1 0x1F NOT DUP5 AND PUSH2 0x176E DUP7 PUSH2 0x1552 JUMP JUMPDEST PUSH0 JUMPDEST DUP3 DUP2 LT ISZERO PUSH2 0x1795 JUMPI DUP5 DUP10 ADD MLOAD DUP3 SSTORE PUSH1 0x1 DUP3 ADD SWAP2 POP PUSH1 0x20 DUP6 ADD SWAP5 POP PUSH1 0x20 DUP2 ADD SWAP1 POP PUSH2 0x1770 JUMP JUMPDEST DUP7 DUP4 LT ISZERO PUSH2 0x17B2 JUMPI DUP5 DUP10 ADD MLOAD PUSH2 0x17AE PUSH1 0x1F DUP10 AND DUP3 PUSH2 0x16C1 JUMP JUMPDEST DUP4 SSTORE POP JUMPDEST PUSH1 0x1 PUSH1 0x2 DUP9 MUL ADD DUP9 SSTORE POP POP POP JUMPDEST POP POP POP POP POP POP JUMP INVALID LOG2 PUSH5 0x6970667358 0x22 SLT KECCAK256 0x25 GASPRICE SWAP4 PUSH25 0x48370D05D48C1C2D0B82C8EAF3D73D02684CB8C3080DD2822A 0xAD 0xFC EQ PUSH5 0x736F6C6343 STOP ADDMOD ISZERO STOP CALLER "
				},
				"gasEstimates": {
					"creation": {
						"codeDepositCost": "1228200",
						"executionCost": "infinite",
						"totalCost": "infinite"
					},
					"external": {
						"addStudent(string,string)": "infinite",
						"approveDegree(string)": "infinite",
						"chancellor()": "2552",
						"dataEntryManager()": "2550",
						"isAuthorized(address)": "2921",
						"registrar()": "2509",
						"rejectDegree(string)": "infinite",
						"studentApprovals(string,address)": "infinite",
						"students(string)": "infinite",
						"viceChancellor()": "2574"
					}
				},
				"methodIdentifiers": {
					"addStudent(string,string)": "e27bb1f7",
					"approveDegree(string)": "5d218d67",
					"chancellor()": "e6b43609",
					"dataEntryManager()": "46252acf",
					"isAuthorized(address)": "fe9fbb80",
					"registrar()": "2b20e397",
					"rejectDegree(string)": "d757c5c0",
					"studentApprovals(string,address)": "3c406ffe",
					"students(string)": "c7ef6bfb",
					"viceChancellor()": "fe52fffa"
				}
			},
			"storageLayout": {
				"storage": [
					{
						"astId": 3,
						"contract": "deg.sol:DegreeVerification",
						"label": "dataEntryManager",
						"offset": 0,
						"slot": "0",
						"type": "t_address"
					},
					{
						"astId": 5,
						"contract": "deg.sol:DegreeVerification",
						"label": "viceChancellor",
						"offset": 0,
						"slot": "1",
						"type": "t_address"
					},
					{
						"astId": 7,
						"contract": "deg.sol:DegreeVerification",
						"label": "chancellor",
						"offset": 0,
						"slot": "2",
						"type": "t_address"
					},
					{
						"astId": 9,
						"contract": "deg.sol:DegreeVerification",
						"label": "registrar",
						"offset": 0,
						"slot": "3",
						"type": "t_address"
					},
					{
						"astId": 28,
						"contract": "deg.sol:DegreeVerification",
						"label": "isAuthorized",
						"offset": 0,
						"slot": "4",
						"type": "t_mapping(t_address,t_bool)"
					},
					{
						"astId": 33,
						"contract": "deg.sol:DegreeVerification",
						"label": "students",
						"offset": 0,
						"slot": "5",
						"type": "t_mapping(t_string_memory_ptr,t_struct(Student)24_storage)"
					},
					{
						"astId": 39,
						"contract": "deg.sol:DegreeVerification",
						"label": "studentApprovals",
						"offset": 0,
						"slot": "6",
						"type": "t_mapping(t_string_memory_ptr,t_mapping(t_address,t_bool))"
					}
				],
				"types": {
					"t_address": {
						"encoding": "inplace",
						"label": "address",
						"numberOfBytes": "20"
					},
					"t_array(t_address)dyn_storage": {
						"base": "t_address",
						"encoding": "dynamic_array",
						"label": "address[]",
						"numberOfBytes": "32"
					},
					"t_bool": {
						"encoding": "inplace",
						"label": "bool",
						"numberOfBytes": "1"
					},
					"t_enum(DegreeApprovalStatus)13": {
						"encoding": "inplace",
						"label": "enum DegreeVerification.DegreeApprovalStatus",
						"numberOfBytes": "1"
					},
					"t_mapping(t_address,t_bool)": {
						"encoding": "mapping",
						"key": "t_address",
						"label": "mapping(address => bool)",
						"numberOfBytes": "32",
						"value": "t_bool"
					},
					"t_mapping(t_string_memory_ptr,t_mapping(t_address,t_bool))": {
						"encoding": "mapping",
						"key": "t_string_memory_ptr",
						"label": "mapping(string => mapping(address => bool))",
						"numberOfBytes": "32",
						"value": "t_mapping(t_address,t_bool)"
					},
					"t_mapping(t_string_memory_ptr,t_struct(Student)24_storage)": {
						"encoding": "mapping",
						"key": "t_string_memory_ptr",
						"label": "mapping(string => struct DegreeVerification.Student)",
						"numberOfBytes": "32",
						"value": "t_struct(Student)24_storage"
					},
					"t_string_memory_ptr": {
						"encoding": "bytes",
						"label": "string",
						"numberOfBytes": "32"
					},
					"t_string_storage": {
						"encoding": "bytes",
						"label": "string",
						"numberOfBytes": "32"
					},
					"t_struct(Student)24_storage": {
						"encoding": "inplace",
						"label": "struct DegreeVerification.Student",
						"members": [
							{
								"astId": 15,
								"contract": "deg.sol:DegreeVerification",
								"label": "rollNo",
								"offset": 0,
								"slot": "0",
								"type": "t_string_storage"
							},
							{
								"astId": 17,
								"contract": "deg.sol:DegreeVerification",
								"label": "name",
								"offset": 0,
								"slot": "1",
								"type": "t_string_storage"
							},
							{
								"astId": 20,
								"contract": "deg.sol:DegreeVerification",
								"label": "status",
								"offset": 0,
								"slot": "2",
								"type": "t_enum(DegreeApprovalStatus)13"
							},
							{
								"astId": 23,
								"contract": "deg.sol:DegreeVerification",
								"label": "approvals",
								"offset": 0,
								"slot": "3",
								"type": "t_array(t_address)dyn_storage"
							}
						],
						"numberOfBytes": "128"
					}
				}
			},
			"userdoc": {
				"kind": "user",
				"methods": {},
				"version": 1
			}
		}
	}
}