{
	"practice.sol": {
		"studentDetails": {
			"abi": [
				{
					"inputs": [
						{
							"internalType": "address",
							"name": "ad",
							"type": "address"
						}
					],
					"name": "getter",
					"outputs": [
						{
							"components": [
								{
									"internalType": "uint256",
									"name": "roll",
									"type": "uint256"
								},
								{
									"internalType": "string",
									"name": "name",
									"type": "string"
								},
								{
									"internalType": "uint256",
									"name": "aadhar",
									"type": "uint256"
								}
							],
							"internalType": "struct studentDetails.det",
							"name": "",
							"type": "tuple"
						}
					],
					"stateMutability": "view",
					"type": "function"
				},
				{
					"inputs": [
						{
							"internalType": "uint256",
							"name": "_roll",
							"type": "uint256"
						},
						{
							"internalType": "string",
							"name": "_name",
							"type": "string"
						},
						{
							"internalType": "uint256",
							"name": "_aadhar",
							"type": "uint256"
						}
					],
					"name": "setter",
					"outputs": [],
					"stateMutability": "nonpayable",
					"type": "function"
				}
			],
			"devdoc": {
				"kind": "dev",
				"methods": {},
				"version": 1
			},
			"evm": {
				"assembly": "    /* \"practice.sol\":58:527  contract studentDetails{... */\n  mstore(0x40, 0x80)\n  callvalue\n  dup1\n  iszero\n  tag_1\n  jumpi\n  0x00\n  dup1\n  revert\ntag_1:\n  pop\n  dataSize(sub_0)\n  dup1\n  dataOffset(sub_0)\n  0x00\n  codecopy\n  0x00\n  return\nstop\n\nsub_0: assembly {\n        /* \"practice.sol\":58:527  contract studentDetails{... */\n      mstore(0x40, 0x80)\n      callvalue\n      dup1\n      iszero\n      tag_1\n      jumpi\n      0x00\n      dup1\n      revert\n    tag_1:\n      pop\n      jumpi(tag_2, lt(calldatasize, 0x04))\n      shr(0xe0, calldataload(0x00))\n      dup1\n      0x0c22cf41\n      eq\n      tag_3\n      jumpi\n      dup1\n      0xf88b1641\n      eq\n      tag_4\n      jumpi\n    tag_2:\n      0x00\n      dup1\n      revert\n        /* \"practice.sol\":213:425  function setter(uint256 _roll, string memory _name, uint256 _aadhar) public{... */\n    tag_3:\n      tag_5\n      0x04\n      dup1\n      calldatasize\n      sub\n      dup2\n      add\n      swap1\n      tag_6\n      swap2\n      swap1\n      tag_7\n      jump\t// in\n    tag_6:\n      tag_8\n      jump\t// in\n    tag_5:\n      stop\n        /* \"practice.sol\":431:525  function getter(address ad) public view returns(det memory){... */\n    tag_4:\n      tag_9\n      0x04\n      dup1\n      calldatasize\n      sub\n      dup2\n      add\n      swap1\n      tag_10\n      swap2\n      swap1\n      tag_11\n      jump\t// in\n    tag_10:\n      tag_12\n      jump\t// in\n    tag_9:\n      mload(0x40)\n      tag_13\n      swap2\n      swap1\n      tag_14\n      jump\t// in\n    tag_13:\n      mload(0x40)\n      dup1\n      swap2\n      sub\n      swap1\n      return\n        /* \"practice.sol\":213:425  function setter(uint256 _roll, string memory _name, uint256 _aadhar) public{... */\n    tag_8:\n        /* \"practice.sol\":298:310  det memory x */\n      tag_16\n      tag_17\n      jump\t// in\n    tag_16:\n        /* \"practice.sol\":330:335  _roll */\n      dup4\n        /* \"practice.sol\":321:322  x */\n      dup2\n        /* \"practice.sol\":321:327  x.roll */\n      0x00\n      add\n        /* \"practice.sol\":321:335  x.roll = _roll */\n      dup2\n      dup2\n      mstore\n      pop\n      pop\n        /* \"practice.sol\":354:359  _name */\n      dup3\n        /* \"practice.sol\":345:346  x */\n      dup2\n        /* \"practice.sol\":345:351  x.name */\n      0x20\n      add\n        /* \"practice.sol\":345:359  x.name = _name */\n      dup2\n      swap1\n      mstore\n      pop\n        /* \"practice.sol\":380:387  _aadhar */\n      dup2\n        /* \"practice.sol\":369:370  x */\n      dup2\n        /* \"practice.sol\":369:377  x.aadhar */\n      0x40\n      add\n        /* \"practice.sol\":369:387  x.aadhar = _aadhar */\n      dup2\n      dup2\n      mstore\n      pop\n      pop\n        /* \"practice.sol\":417:418  x */\n      dup1\n        /* \"practice.sol\":397:404  details */\n      0x00\n        /* \"practice.sol\":397:416  details[msg.sender] */\n      dup1\n        /* \"practice.sol\":405:415  msg.sender */\n      caller\n        /* \"practice.sol\":397:416  details[msg.sender] */\n      0xffffffffffffffffffffffffffffffffffffffff\n      and\n      0xffffffffffffffffffffffffffffffffffffffff\n      and\n      dup2\n      mstore\n      0x20\n      add\n      swap1\n      dup2\n      mstore\n      0x20\n      add\n      0x00\n      keccak256\n        /* \"practice.sol\":397:418  details[msg.sender]=x */\n      0x00\n      dup3\n      add\n      mload\n      dup2\n      0x00\n      add\n      sstore\n      0x20\n      dup3\n      add\n      mload\n      dup2\n      0x01\n      add\n      swap1\n      dup2\n      tag_18\n      swap2\n      swap1\n      tag_19\n      jump\t// in\n    tag_18:\n      pop\n      0x40\n      dup3\n      add\n      mload\n      dup2\n      0x02\n      add\n      sstore\n      swap1\n      pop\n      pop\n        /* \"practice.sol\":288:425  {... */\n      pop\n        /* \"practice.sol\":213:425  function setter(uint256 _roll, string memory _name, uint256 _aadhar) public{... */\n      pop\n      pop\n      pop\n      jump\t// out\n        /* \"practice.sol\":431:525  function getter(address ad) public view returns(det memory){... */\n    tag_12:\n        /* \"practice.sol\":479:489  det memory */\n      tag_20\n      tag_17\n      jump\t// in\n    tag_20:\n        /* \"practice.sol\":507:514  details */\n      0x00\n        /* \"practice.sol\":507:518  details[ad] */\n      dup1\n        /* \"practice.sol\":515:517  ad */\n      dup4\n        /* \"practice.sol\":507:518  details[ad] */\n      0xffffffffffffffffffffffffffffffffffffffff\n      and\n      0xffffffffffffffffffffffffffffffffffffffff\n      and\n      dup2\n      mstore\n      0x20\n      add\n      swap1\n      dup2\n      mstore\n      0x20\n      add\n      0x00\n      keccak256\n        /* \"practice.sol\":500:518  return details[ad] */\n      mload(0x40)\n      dup1\n      0x60\n      add\n      0x40\n      mstore\n      swap1\n      dup2\n      0x00\n      dup3\n      add\n      sload\n      dup2\n      mstore\n      0x20\n      add\n      0x01\n      dup3\n      add\n      dup1\n      sload\n      tag_22\n      swap1\n      tag_23\n      jump\t// in\n    tag_22:\n      dup1\n      0x1f\n      add\n      0x20\n      dup1\n      swap2\n      div\n      mul\n      0x20\n      add\n      mload(0x40)\n      swap1\n      dup2\n      add\n      0x40\n      mstore\n      dup1\n      swap3\n      swap2\n      swap1\n      dup2\n      dup2\n      mstore\n      0x20\n      add\n      dup3\n      dup1\n      sload\n      tag_24\n      swap1\n      tag_23\n      jump\t// in\n    tag_24:\n      dup1\n      iszero\n      tag_25\n      jumpi\n      dup1\n      0x1f\n      lt\n      tag_26\n      jumpi\n      0x0100\n      dup1\n      dup4\n      sload\n      div\n      mul\n      dup4\n      mstore\n      swap2\n      0x20\n      add\n      swap2\n      jump(tag_25)\n    tag_26:\n      dup3\n      add\n      swap2\n      swap1\n      0x00\n      mstore\n      keccak256(0x00, 0x20)\n      swap1\n    tag_27:\n      dup2\n      sload\n      dup2\n      mstore\n      swap1\n      0x01\n      add\n      swap1\n      0x20\n      add\n      dup1\n      dup4\n      gt\n      tag_27\n      jumpi\n      dup3\n      swap1\n      sub\n      0x1f\n      and\n      dup3\n      add\n      swap2\n    tag_25:\n      pop\n      pop\n      pop\n      pop\n      pop\n      dup2\n      mstore\n      0x20\n      add\n      0x02\n      dup3\n      add\n      sload\n      dup2\n      mstore\n      pop\n      pop\n      swap1\n      pop\n        /* \"practice.sol\":431:525  function getter(address ad) public view returns(det memory){... */\n      swap2\n      swap1\n      pop\n      jump\t// out\n    tag_17:\n      mload(0x40)\n      dup1\n      0x60\n      add\n      0x40\n      mstore\n      dup1\n      0x00\n      dup2\n      mstore\n      0x20\n      add\n      0x60\n      dup2\n      mstore\n      0x20\n      add\n      0x00\n      dup2\n      mstore\n      pop\n      swap1\n      jump\t// out\n        /* \"#utility.yul\":7:82   */\n    tag_28:\n        /* \"#utility.yul\":40:46   */\n      0x00\n        /* \"#utility.yul\":73:75   */\n      0x40\n        /* \"#utility.yul\":67:76   */\n      mload\n        /* \"#utility.yul\":57:76   */\n      swap1\n      pop\n        /* \"#utility.yul\":7:82   */\n      swap1\n      jump\t// out\n        /* \"#utility.yul\":88:205   */\n    tag_29:\n        /* \"#utility.yul\":197:198   */\n      0x00\n        /* \"#utility.yul\":194:195   */\n      dup1\n        /* \"#utility.yul\":187:199   */\n      revert\n        /* \"#utility.yul\":211:328   */\n    tag_30:\n        /* \"#utility.yul\":320:321   */\n      0x00\n        /* \"#utility.yul\":317:318   */\n      dup1\n        /* \"#utility.yul\":310:322   */\n      revert\n        /* \"#utility.yul\":334:411   */\n    tag_31:\n        /* \"#utility.yul\":371:378   */\n      0x00\n        /* \"#utility.yul\":400:405   */\n      dup2\n        /* \"#utility.yul\":389:405   */\n      swap1\n      pop\n        /* \"#utility.yul\":334:411   */\n      swap2\n      swap1\n      pop\n      jump\t// out\n        /* \"#utility.yul\":417:539   */\n    tag_32:\n        /* \"#utility.yul\":490:514   */\n      tag_76\n        /* \"#utility.yul\":508:513   */\n      dup2\n        /* \"#utility.yul\":490:514   */\n      tag_31\n      jump\t// in\n    tag_76:\n        /* \"#utility.yul\":483:488   */\n      dup2\n        /* \"#utility.yul\":480:515   */\n      eq\n        /* \"#utility.yul\":470:533   */\n      tag_77\n      jumpi\n        /* \"#utility.yul\":529:530   */\n      0x00\n        /* \"#utility.yul\":526:527   */\n      dup1\n        /* \"#utility.yul\":519:531   */\n      revert\n        /* \"#utility.yul\":470:533   */\n    tag_77:\n        /* \"#utility.yul\":417:539   */\n      pop\n      jump\t// out\n        /* \"#utility.yul\":545:684   */\n    tag_33:\n        /* \"#utility.yul\":591:596   */\n      0x00\n        /* \"#utility.yul\":629:635   */\n      dup2\n        /* \"#utility.yul\":616:636   */\n      calldataload\n        /* \"#utility.yul\":607:636   */\n      swap1\n      pop\n        /* \"#utility.yul\":645:678   */\n      tag_79\n        /* \"#utility.yul\":672:677   */\n      dup2\n        /* \"#utility.yul\":645:678   */\n      tag_32\n      jump\t// in\n    tag_79:\n        /* \"#utility.yul\":545:684   */\n      swap3\n      swap2\n      pop\n      pop\n      jump\t// out\n        /* \"#utility.yul\":690:807   */\n    tag_34:\n        /* \"#utility.yul\":799:800   */\n      0x00\n        /* \"#utility.yul\":796:797   */\n      dup1\n        /* \"#utility.yul\":789:801   */\n      revert\n        /* \"#utility.yul\":813:930   */\n    tag_35:\n        /* \"#utility.yul\":922:923   */\n      0x00\n        /* \"#utility.yul\":919:920   */\n      dup1\n        /* \"#utility.yul\":912:924   */\n      revert\n        /* \"#utility.yul\":936:1038   */\n    tag_36:\n        /* \"#utility.yul\":977:983   */\n      0x00\n        /* \"#utility.yul\":1028:1030   */\n      0x1f\n        /* \"#utility.yul\":1024:1031   */\n      not\n        /* \"#utility.yul\":1019:1021   */\n      0x1f\n        /* \"#utility.yul\":1012:1017   */\n      dup4\n        /* \"#utility.yul\":1008:1022   */\n      add\n        /* \"#utility.yul\":1004:1032   */\n      and\n        /* \"#utility.yul\":994:1032   */\n      swap1\n      pop\n        /* \"#utility.yul\":936:1038   */\n      swap2\n      swap1\n      pop\n      jump\t// out\n        /* \"#utility.yul\":1044:1224   */\n    tag_37:\n        /* \"#utility.yul\":1092:1169   */\n      0x4e487b7100000000000000000000000000000000000000000000000000000000\n        /* \"#utility.yul\":1089:1090   */\n      0x00\n        /* \"#utility.yul\":1082:1170   */\n      mstore\n        /* \"#utility.yul\":1189:1193   */\n      0x41\n        /* \"#utility.yul\":1186:1187   */\n      0x04\n        /* \"#utility.yul\":1179:1194   */\n      mstore\n        /* \"#utility.yul\":1213:1217   */\n      0x24\n        /* \"#utility.yul\":1210:1211   */\n      0x00\n        /* \"#utility.yul\":1203:1218   */\n      revert\n        /* \"#utility.yul\":1230:1511   */\n    tag_38:\n        /* \"#utility.yul\":1313:1340   */\n      tag_85\n        /* \"#utility.yul\":1335:1339   */\n      dup3\n        /* \"#utility.yul\":1313:1340   */\n      tag_36\n      jump\t// in\n    tag_85:\n        /* \"#utility.yul\":1305:1311   */\n      dup2\n        /* \"#utility.yul\":1301:1341   */\n      add\n        /* \"#utility.yul\":1443:1449   */\n      dup2\n        /* \"#utility.yul\":1431:1441   */\n      dup2\n        /* \"#utility.yul\":1428:1450   */\n      lt\n        /* \"#utility.yul\":1407:1425   */\n      0xffffffffffffffff\n        /* \"#utility.yul\":1395:1405   */\n      dup3\n        /* \"#utility.yul\":1392:1426   */\n      gt\n        /* \"#utility.yul\":1389:1451   */\n      or\n        /* \"#utility.yul\":1386:1474   */\n      iszero\n      tag_86\n      jumpi\n        /* \"#utility.yul\":1454:1472   */\n      tag_87\n      tag_37\n      jump\t// in\n    tag_87:\n        /* \"#utility.yul\":1386:1474   */\n    tag_86:\n        /* \"#utility.yul\":1494:1504   */\n      dup1\n        /* \"#utility.yul\":1490:1492   */\n      0x40\n        /* \"#utility.yul\":1483:1505   */\n      mstore\n        /* \"#utility.yul\":1273:1511   */\n      pop\n        /* \"#utility.yul\":1230:1511   */\n      pop\n      pop\n      jump\t// out\n        /* \"#utility.yul\":1517:1646   */\n    tag_39:\n        /* \"#utility.yul\":1551:1557   */\n      0x00\n        /* \"#utility.yul\":1578:1598   */\n      tag_89\n      tag_28\n      jump\t// in\n    tag_89:\n        /* \"#utility.yul\":1568:1598   */\n      swap1\n      pop\n        /* \"#utility.yul\":1607:1640   */\n      tag_90\n        /* \"#utility.yul\":1635:1639   */\n      dup3\n        /* \"#utility.yul\":1627:1633   */\n      dup3\n        /* \"#utility.yul\":1607:1640   */\n      tag_38\n      jump\t// in\n    tag_90:\n        /* \"#utility.yul\":1517:1646   */\n      swap2\n      swap1\n      pop\n      jump\t// out\n        /* \"#utility.yul\":1652:1960   */\n    tag_40:\n        /* \"#utility.yul\":1714:1718   */\n      0x00\n        /* \"#utility.yul\":1804:1822   */\n      0xffffffffffffffff\n        /* \"#utility.yul\":1796:1802   */\n      dup3\n        /* \"#utility.yul\":1793:1823   */\n      gt\n        /* \"#utility.yul\":1790:1846   */\n      iszero\n      tag_92\n      jumpi\n        /* \"#utility.yul\":1826:1844   */\n      tag_93\n      tag_37\n      jump\t// in\n    tag_93:\n        /* \"#utility.yul\":1790:1846   */\n    tag_92:\n        /* \"#utility.yul\":1864:1893   */\n      tag_94\n        /* \"#utility.yul\":1886:1892   */\n      dup3\n        /* \"#utility.yul\":1864:1893   */\n      tag_36\n      jump\t// in\n    tag_94:\n        /* \"#utility.yul\":1856:1893   */\n      swap1\n      pop\n        /* \"#utility.yul\":1948:1952   */\n      0x20\n        /* \"#utility.yul\":1942:1946   */\n      dup2\n        /* \"#utility.yul\":1938:1953   */\n      add\n        /* \"#utility.yul\":1930:1953   */\n      swap1\n      pop\n        /* \"#utility.yul\":1652:1960   */\n      swap2\n      swap1\n      pop\n      jump\t// out\n        /* \"#utility.yul\":1966:2112   */\n    tag_41:\n        /* \"#utility.yul\":2063:2069   */\n      dup3\n        /* \"#utility.yul\":2058:2061   */\n      dup2\n        /* \"#utility.yul\":2053:2056   */\n      dup4\n        /* \"#utility.yul\":2040:2070   */\n      calldatacopy\n        /* \"#utility.yul\":2104:2105   */\n      0x00\n        /* \"#utility.yul\":2095:2101   */\n      dup4\n        /* \"#utility.yul\":2090:2093   */\n      dup4\n        /* \"#utility.yul\":2086:2102   */\n      add\n        /* \"#utility.yul\":2079:2106   */\n      mstore\n        /* \"#utility.yul\":1966:2112   */\n      pop\n      pop\n      pop\n      jump\t// out\n        /* \"#utility.yul\":2118:2543   */\n    tag_42:\n        /* \"#utility.yul\":2196:2201   */\n      0x00\n        /* \"#utility.yul\":2221:2287   */\n      tag_97\n        /* \"#utility.yul\":2237:2286   */\n      tag_98\n        /* \"#utility.yul\":2279:2285   */\n      dup5\n        /* \"#utility.yul\":2237:2286   */\n      tag_40\n      jump\t// in\n    tag_98:\n        /* \"#utility.yul\":2221:2287   */\n      tag_39\n      jump\t// in\n    tag_97:\n        /* \"#utility.yul\":2212:2287   */\n      swap1\n      pop\n        /* \"#utility.yul\":2310:2316   */\n      dup3\n        /* \"#utility.yul\":2303:2308   */\n      dup2\n        /* \"#utility.yul\":2296:2317   */\n      mstore\n        /* \"#utility.yul\":2348:2352   */\n      0x20\n        /* \"#utility.yul\":2341:2346   */\n      dup2\n        /* \"#utility.yul\":2337:2353   */\n      add\n        /* \"#utility.yul\":2386:2389   */\n      dup5\n        /* \"#utility.yul\":2377:2383   */\n      dup5\n        /* \"#utility.yul\":2372:2375   */\n      dup5\n        /* \"#utility.yul\":2368:2384   */\n      add\n        /* \"#utility.yul\":2365:2390   */\n      gt\n        /* \"#utility.yul\":2362:2474   */\n      iszero\n      tag_99\n      jumpi\n        /* \"#utility.yul\":2393:2472   */\n      tag_100\n      tag_35\n      jump\t// in\n    tag_100:\n        /* \"#utility.yul\":2362:2474   */\n    tag_99:\n        /* \"#utility.yul\":2483:2537   */\n      tag_101\n        /* \"#utility.yul\":2530:2536   */\n      dup5\n        /* \"#utility.yul\":2525:2528   */\n      dup3\n        /* \"#utility.yul\":2520:2523   */\n      dup6\n        /* \"#utility.yul\":2483:2537   */\n      tag_41\n      jump\t// in\n    tag_101:\n        /* \"#utility.yul\":2202:2543   */\n      pop\n        /* \"#utility.yul\":2118:2543   */\n      swap4\n      swap3\n      pop\n      pop\n      pop\n      jump\t// out\n        /* \"#utility.yul\":2563:2903   */\n    tag_43:\n        /* \"#utility.yul\":2619:2624   */\n      0x00\n        /* \"#utility.yul\":2668:2671   */\n      dup3\n        /* \"#utility.yul\":2661:2665   */\n      0x1f\n        /* \"#utility.yul\":2653:2659   */\n      dup4\n        /* \"#utility.yul\":2649:2666   */\n      add\n        /* \"#utility.yul\":2645:2672   */\n      slt\n        /* \"#utility.yul\":2635:2757   */\n      tag_103\n      jumpi\n        /* \"#utility.yul\":2676:2755   */\n      tag_104\n      tag_34\n      jump\t// in\n    tag_104:\n        /* \"#utility.yul\":2635:2757   */\n    tag_103:\n        /* \"#utility.yul\":2793:2799   */\n      dup2\n        /* \"#utility.yul\":2780:2800   */\n      calldataload\n        /* \"#utility.yul\":2818:2897   */\n      tag_105\n        /* \"#utility.yul\":2893:2896   */\n      dup5\n        /* \"#utility.yul\":2885:2891   */\n      dup3\n        /* \"#utility.yul\":2878:2882   */\n      0x20\n        /* \"#utility.yul\":2870:2876   */\n      dup7\n        /* \"#utility.yul\":2866:2883   */\n      add\n        /* \"#utility.yul\":2818:2897   */\n      tag_42\n      jump\t// in\n    tag_105:\n        /* \"#utility.yul\":2809:2897   */\n      swap2\n      pop\n        /* \"#utility.yul\":2625:2903   */\n      pop\n        /* \"#utility.yul\":2563:2903   */\n      swap3\n      swap2\n      pop\n      pop\n      jump\t// out\n        /* \"#utility.yul\":2909:3708   */\n    tag_7:\n        /* \"#utility.yul\":2996:3002   */\n      0x00\n        /* \"#utility.yul\":3004:3010   */\n      dup1\n        /* \"#utility.yul\":3012:3018   */\n      0x00\n        /* \"#utility.yul\":3061:3063   */\n      0x60\n        /* \"#utility.yul\":3049:3058   */\n      dup5\n        /* \"#utility.yul\":3040:3047   */\n      dup7\n        /* \"#utility.yul\":3036:3059   */\n      sub\n        /* \"#utility.yul\":3032:3064   */\n      slt\n        /* \"#utility.yul\":3029:3148   */\n      iszero\n      tag_107\n      jumpi\n        /* \"#utility.yul\":3067:3146   */\n      tag_108\n      tag_29\n      jump\t// in\n    tag_108:\n        /* \"#utility.yul\":3029:3148   */\n    tag_107:\n        /* \"#utility.yul\":3187:3188   */\n      0x00\n        /* \"#utility.yul\":3212:3265   */\n      tag_109\n        /* \"#utility.yul\":3257:3264   */\n      dup7\n        /* \"#utility.yul\":3248:3254   */\n      dup3\n        /* \"#utility.yul\":3237:3246   */\n      dup8\n        /* \"#utility.yul\":3233:3255   */\n      add\n        /* \"#utility.yul\":3212:3265   */\n      tag_33\n      jump\t// in\n    tag_109:\n        /* \"#utility.yul\":3202:3265   */\n      swap4\n      pop\n        /* \"#utility.yul\":3158:3275   */\n      pop\n        /* \"#utility.yul\":3342:3344   */\n      0x20\n        /* \"#utility.yul\":3331:3340   */\n      dup5\n        /* \"#utility.yul\":3327:3345   */\n      add\n        /* \"#utility.yul\":3314:3346   */\n      calldataload\n        /* \"#utility.yul\":3373:3391   */\n      0xffffffffffffffff\n        /* \"#utility.yul\":3365:3371   */\n      dup2\n        /* \"#utility.yul\":3362:3392   */\n      gt\n        /* \"#utility.yul\":3359:3476   */\n      iszero\n      tag_110\n      jumpi\n        /* \"#utility.yul\":3395:3474   */\n      tag_111\n      tag_30\n      jump\t// in\n    tag_111:\n        /* \"#utility.yul\":3359:3476   */\n    tag_110:\n        /* \"#utility.yul\":3500:3563   */\n      tag_112\n        /* \"#utility.yul\":3555:3562   */\n      dup7\n        /* \"#utility.yul\":3546:3552   */\n      dup3\n        /* \"#utility.yul\":3535:3544   */\n      dup8\n        /* \"#utility.yul\":3531:3553   */\n      add\n        /* \"#utility.yul\":3500:3563   */\n      tag_43\n      jump\t// in\n    tag_112:\n        /* \"#utility.yul\":3490:3563   */\n      swap3\n      pop\n        /* \"#utility.yul\":3285:3573   */\n      pop\n        /* \"#utility.yul\":3612:3614   */\n      0x40\n        /* \"#utility.yul\":3638:3691   */\n      tag_113\n        /* \"#utility.yul\":3683:3690   */\n      dup7\n        /* \"#utility.yul\":3674:3680   */\n      dup3\n        /* \"#utility.yul\":3663:3672   */\n      dup8\n        /* \"#utility.yul\":3659:3681   */\n      add\n        /* \"#utility.yul\":3638:3691   */\n      tag_33\n      jump\t// in\n    tag_113:\n        /* \"#utility.yul\":3628:3691   */\n      swap2\n      pop\n        /* \"#utility.yul\":3583:3701   */\n      pop\n        /* \"#utility.yul\":2909:3708   */\n      swap3\n      pop\n      swap3\n      pop\n      swap3\n      jump\t// out\n        /* \"#utility.yul\":3714:3840   */\n    tag_44:\n        /* \"#utility.yul\":3751:3758   */\n      0x00\n        /* \"#utility.yul\":3791:3833   */\n      0xffffffffffffffffffffffffffffffffffffffff\n        /* \"#utility.yul\":3784:3789   */\n      dup3\n        /* \"#utility.yul\":3780:3834   */\n      and\n        /* \"#utility.yul\":3769:3834   */\n      swap1\n      pop\n        /* \"#utility.yul\":3714:3840   */\n      swap2\n      swap1\n      pop\n      jump\t// out\n        /* \"#utility.yul\":3846:3942   */\n    tag_45:\n        /* \"#utility.yul\":3883:3890   */\n      0x00\n        /* \"#utility.yul\":3912:3936   */\n      tag_116\n        /* \"#utility.yul\":3930:3935   */\n      dup3\n        /* \"#utility.yul\":3912:3936   */\n      tag_44\n      jump\t// in\n    tag_116:\n        /* \"#utility.yul\":3901:3936   */\n      swap1\n      pop\n        /* \"#utility.yul\":3846:3942   */\n      swap2\n      swap1\n      pop\n      jump\t// out\n        /* \"#utility.yul\":3948:4070   */\n    tag_46:\n        /* \"#utility.yul\":4021:4045   */\n      tag_118\n        /* \"#utility.yul\":4039:4044   */\n      dup2\n        /* \"#utility.yul\":4021:4045   */\n      tag_45\n      jump\t// in\n    tag_118:\n        /* \"#utility.yul\":4014:4019   */\n      dup2\n        /* \"#utility.yul\":4011:4046   */\n      eq\n        /* \"#utility.yul\":4001:4064   */\n      tag_119\n      jumpi\n        /* \"#utility.yul\":4060:4061   */\n      0x00\n        /* \"#utility.yul\":4057:4058   */\n      dup1\n        /* \"#utility.yul\":4050:4062   */\n      revert\n        /* \"#utility.yul\":4001:4064   */\n    tag_119:\n        /* \"#utility.yul\":3948:4070   */\n      pop\n      jump\t// out\n        /* \"#utility.yul\":4076:4215   */\n    tag_47:\n        /* \"#utility.yul\":4122:4127   */\n      0x00\n        /* \"#utility.yul\":4160:4166   */\n      dup2\n        /* \"#utility.yul\":4147:4167   */\n      calldataload\n        /* \"#utility.yul\":4138:4167   */\n      swap1\n      pop\n        /* \"#utility.yul\":4176:4209   */\n      tag_121\n        /* \"#utility.yul\":4203:4208   */\n      dup2\n        /* \"#utility.yul\":4176:4209   */\n      tag_46\n      jump\t// in\n    tag_121:\n        /* \"#utility.yul\":4076:4215   */\n      swap3\n      swap2\n      pop\n      pop\n      jump\t// out\n        /* \"#utility.yul\":4221:4550   */\n    tag_11:\n        /* \"#utility.yul\":4280:4286   */\n      0x00\n        /* \"#utility.yul\":4329:4331   */\n      0x20\n        /* \"#utility.yul\":4317:4326   */\n      dup3\n        /* \"#utility.yul\":4308:4315   */\n      dup5\n        /* \"#utility.yul\":4304:4327   */\n      sub\n        /* \"#utility.yul\":4300:4332   */\n      slt\n        /* \"#utility.yul\":4297:4416   */\n      iszero\n      tag_123\n      jumpi\n        /* \"#utility.yul\":4335:4414   */\n      tag_124\n      tag_29\n      jump\t// in\n    tag_124:\n        /* \"#utility.yul\":4297:4416   */\n    tag_123:\n        /* \"#utility.yul\":4455:4456   */\n      0x00\n        /* \"#utility.yul\":4480:4533   */\n      tag_125\n        /* \"#utility.yul\":4525:4532   */\n      dup5\n        /* \"#utility.yul\":4516:4522   */\n      dup3\n        /* \"#utility.yul\":4505:4514   */\n      dup6\n        /* \"#utility.yul\":4501:4523   */\n      add\n        /* \"#utility.yul\":4480:4533   */\n      tag_47\n      jump\t// in\n    tag_125:\n        /* \"#utility.yul\":4470:4533   */\n      swap2\n      pop\n        /* \"#utility.yul\":4426:4543   */\n      pop\n        /* \"#utility.yul\":4221:4550   */\n      swap3\n      swap2\n      pop\n      pop\n      jump\t// out\n        /* \"#utility.yul\":4556:4664   */\n    tag_48:\n        /* \"#utility.yul\":4633:4657   */\n      tag_127\n        /* \"#utility.yul\":4651:4656   */\n      dup2\n        /* \"#utility.yul\":4633:4657   */\n      tag_31\n      jump\t// in\n    tag_127:\n        /* \"#utility.yul\":4628:4631   */\n      dup3\n        /* \"#utility.yul\":4621:4658   */\n      mstore\n        /* \"#utility.yul\":4556:4664   */\n      pop\n      pop\n      jump\t// out\n        /* \"#utility.yul\":4670:4769   */\n    tag_49:\n        /* \"#utility.yul\":4722:4728   */\n      0x00\n        /* \"#utility.yul\":4756:4761   */\n      dup2\n        /* \"#utility.yul\":4750:4762   */\n      mload\n        /* \"#utility.yul\":4740:4762   */\n      swap1\n      pop\n        /* \"#utility.yul\":4670:4769   */\n      swap2\n      swap1\n      pop\n      jump\t// out\n        /* \"#utility.yul\":4775:4934   */\n    tag_50:\n        /* \"#utility.yul\":4849:4860   */\n      0x00\n        /* \"#utility.yul\":4883:4889   */\n      dup3\n        /* \"#utility.yul\":4878:4881   */\n      dup3\n        /* \"#utility.yul\":4871:4890   */\n      mstore\n        /* \"#utility.yul\":4923:4927   */\n      0x20\n        /* \"#utility.yul\":4918:4921   */\n      dup3\n        /* \"#utility.yul\":4914:4928   */\n      add\n        /* \"#utility.yul\":4899:4928   */\n      swap1\n      pop\n        /* \"#utility.yul\":4775:4934   */\n      swap3\n      swap2\n      pop\n      pop\n      jump\t// out\n        /* \"#utility.yul\":4940:5186   */\n    tag_51:\n        /* \"#utility.yul\":5021:5022   */\n      0x00\n        /* \"#utility.yul\":5031:5144   */\n    tag_131:\n        /* \"#utility.yul\":5045:5051   */\n      dup4\n        /* \"#utility.yul\":5042:5043   */\n      dup2\n        /* \"#utility.yul\":5039:5052   */\n      lt\n        /* \"#utility.yul\":5031:5144   */\n      iszero\n      tag_133\n      jumpi\n        /* \"#utility.yul\":5130:5131   */\n      dup1\n        /* \"#utility.yul\":5125:5128   */\n      dup3\n        /* \"#utility.yul\":5121:5132   */\n      add\n        /* \"#utility.yul\":5115:5133   */\n      mload\n        /* \"#utility.yul\":5111:5112   */\n      dup2\n        /* \"#utility.yul\":5106:5109   */\n      dup5\n        /* \"#utility.yul\":5102:5113   */\n      add\n        /* \"#utility.yul\":5095:5134   */\n      mstore\n        /* \"#utility.yul\":5067:5069   */\n      0x20\n        /* \"#utility.yul\":5064:5065   */\n      dup2\n        /* \"#utility.yul\":5060:5070   */\n      add\n        /* \"#utility.yul\":5055:5070   */\n      swap1\n      pop\n        /* \"#utility.yul\":5031:5144   */\n      jump(tag_131)\n    tag_133:\n        /* \"#utility.yul\":5178:5179   */\n      0x00\n        /* \"#utility.yul\":5169:5175   */\n      dup5\n        /* \"#utility.yul\":5164:5167   */\n      dup5\n        /* \"#utility.yul\":5160:5176   */\n      add\n        /* \"#utility.yul\":5153:5180   */\n      mstore\n        /* \"#utility.yul\":5002:5186   */\n      pop\n        /* \"#utility.yul\":4940:5186   */\n      pop\n      pop\n      pop\n      jump\t// out\n        /* \"#utility.yul\":5192:5549   */\n    tag_52:\n        /* \"#utility.yul\":5270:5273   */\n      0x00\n        /* \"#utility.yul\":5298:5337   */\n      tag_135\n        /* \"#utility.yul\":5331:5336   */\n      dup3\n        /* \"#utility.yul\":5298:5337   */\n      tag_49\n      jump\t// in\n    tag_135:\n        /* \"#utility.yul\":5353:5414   */\n      tag_136\n        /* \"#utility.yul\":5407:5413   */\n      dup2\n        /* \"#utility.yul\":5402:5405   */\n      dup6\n        /* \"#utility.yul\":5353:5414   */\n      tag_50\n      jump\t// in\n    tag_136:\n        /* \"#utility.yul\":5346:5414   */\n      swap4\n      pop\n        /* \"#utility.yul\":5423:5488   */\n      tag_137\n        /* \"#utility.yul\":5481:5487   */\n      dup2\n        /* \"#utility.yul\":5476:5479   */\n      dup6\n        /* \"#utility.yul\":5469:5473   */\n      0x20\n        /* \"#utility.yul\":5462:5467   */\n      dup7\n        /* \"#utility.yul\":5458:5474   */\n      add\n        /* \"#utility.yul\":5423:5488   */\n      tag_51\n      jump\t// in\n    tag_137:\n        /* \"#utility.yul\":5513:5542   */\n      tag_138\n        /* \"#utility.yul\":5535:5541   */\n      dup2\n        /* \"#utility.yul\":5513:5542   */\n      tag_36\n      jump\t// in\n    tag_138:\n        /* \"#utility.yul\":5508:5511   */\n      dup5\n        /* \"#utility.yul\":5504:5543   */\n      add\n        /* \"#utility.yul\":5497:5543   */\n      swap2\n      pop\n        /* \"#utility.yul\":5274:5549   */\n      pop\n        /* \"#utility.yul\":5192:5549   */\n      swap3\n      swap2\n      pop\n      pop\n      jump\t// out\n        /* \"#utility.yul\":5617:6385   */\n    tag_53:\n        /* \"#utility.yul\":5722:5725   */\n      0x00\n        /* \"#utility.yul\":5758:5762   */\n      0x60\n        /* \"#utility.yul\":5753:5756   */\n      dup4\n        /* \"#utility.yul\":5749:5763   */\n      add\n        /* \"#utility.yul\":5845:5849   */\n      0x00\n        /* \"#utility.yul\":5838:5843   */\n      dup4\n        /* \"#utility.yul\":5834:5850   */\n      add\n        /* \"#utility.yul\":5828:5851   */\n      mload\n        /* \"#utility.yul\":5864:5927   */\n      tag_140\n        /* \"#utility.yul\":5921:5925   */\n      0x00\n        /* \"#utility.yul\":5916:5919   */\n      dup7\n        /* \"#utility.yul\":5912:5926   */\n      add\n        /* \"#utility.yul\":5898:5910   */\n      dup3\n        /* \"#utility.yul\":5864:5927   */\n      tag_48\n      jump\t// in\n    tag_140:\n        /* \"#utility.yul\":5773:5937   */\n      pop\n        /* \"#utility.yul\":6019:6023   */\n      0x20\n        /* \"#utility.yul\":6012:6017   */\n      dup4\n        /* \"#utility.yul\":6008:6024   */\n      add\n        /* \"#utility.yul\":6002:6025   */\n      mload\n        /* \"#utility.yul\":6072:6075   */\n      dup5\n        /* \"#utility.yul\":6066:6070   */\n      dup3\n        /* \"#utility.yul\":6062:6076   */\n      sub\n        /* \"#utility.yul\":6055:6059   */\n      0x20\n        /* \"#utility.yul\":6050:6053   */\n      dup7\n        /* \"#utility.yul\":6046:6060   */\n      add\n        /* \"#utility.yul\":6039:6077   */\n      mstore\n        /* \"#utility.yul\":6098:6171   */\n      tag_141\n        /* \"#utility.yul\":6166:6170   */\n      dup3\n        /* \"#utility.yul\":6152:6164   */\n      dup3\n        /* \"#utility.yul\":6098:6171   */\n      tag_52\n      jump\t// in\n    tag_141:\n        /* \"#utility.yul\":6090:6171   */\n      swap2\n      pop\n        /* \"#utility.yul\":5947:6182   */\n      pop\n        /* \"#utility.yul\":6266:6270   */\n      0x40\n        /* \"#utility.yul\":6259:6264   */\n      dup4\n        /* \"#utility.yul\":6255:6271   */\n      add\n        /* \"#utility.yul\":6249:6272   */\n      mload\n        /* \"#utility.yul\":6285:6348   */\n      tag_142\n        /* \"#utility.yul\":6342:6346   */\n      0x40\n        /* \"#utility.yul\":6337:6340   */\n      dup7\n        /* \"#utility.yul\":6333:6347   */\n      add\n        /* \"#utility.yul\":6319:6331   */\n      dup3\n        /* \"#utility.yul\":6285:6348   */\n      tag_48\n      jump\t// in\n    tag_142:\n        /* \"#utility.yul\":6192:6358   */\n      pop\n        /* \"#utility.yul\":6375:6379   */\n      dup1\n        /* \"#utility.yul\":6368:6379   */\n      swap2\n      pop\n        /* \"#utility.yul\":5727:6385   */\n      pop\n        /* \"#utility.yul\":5617:6385   */\n      swap3\n      swap2\n      pop\n      pop\n      jump\t// out\n        /* \"#utility.yul\":6391:6736   */\n    tag_14:\n        /* \"#utility.yul\":6520:6524   */\n      0x00\n        /* \"#utility.yul\":6558:6560   */\n      0x20\n        /* \"#utility.yul\":6547:6556   */\n      dup3\n        /* \"#utility.yul\":6543:6561   */\n      add\n        /* \"#utility.yul\":6535:6561   */\n      swap1\n      pop\n        /* \"#utility.yul\":6607:6616   */\n      dup2\n        /* \"#utility.yul\":6601:6605   */\n      dup2\n        /* \"#utility.yul\":6597:6617   */\n      sub\n        /* \"#utility.yul\":6593:6594   */\n      0x00\n        /* \"#utility.yul\":6582:6591   */\n      dup4\n        /* \"#utility.yul\":6578:6595   */\n      add\n        /* \"#utility.yul\":6571:6618   */\n      mstore\n        /* \"#utility.yul\":6635:6729   */\n      tag_144\n        /* \"#utility.yul\":6724:6728   */\n      dup2\n        /* \"#utility.yul\":6715:6721   */\n      dup5\n        /* \"#utility.yul\":6635:6729   */\n      tag_53\n      jump\t// in\n    tag_144:\n        /* \"#utility.yul\":6627:6729   */\n      swap1\n      pop\n        /* \"#utility.yul\":6391:6736   */\n      swap3\n      swap2\n      pop\n      pop\n      jump\t// out\n        /* \"#utility.yul\":6742:6922   */\n    tag_54:\n        /* \"#utility.yul\":6790:6867   */\n      0x4e487b7100000000000000000000000000000000000000000000000000000000\n        /* \"#utility.yul\":6787:6788   */\n      0x00\n        /* \"#utility.yul\":6780:6868   */\n      mstore\n        /* \"#utility.yul\":6887:6891   */\n      0x22\n        /* \"#utility.yul\":6884:6885   */\n      0x04\n        /* \"#utility.yul\":6877:6892   */\n      mstore\n        /* \"#utility.yul\":6911:6915   */\n      0x24\n        /* \"#utility.yul\":6908:6909   */\n      0x00\n        /* \"#utility.yul\":6901:6916   */\n      revert\n        /* \"#utility.yul\":6928:7248   */\n    tag_23:\n        /* \"#utility.yul\":6972:6978   */\n      0x00\n        /* \"#utility.yul\":7009:7010   */\n      0x02\n        /* \"#utility.yul\":7003:7007   */\n      dup3\n        /* \"#utility.yul\":6999:7011   */\n      div\n        /* \"#utility.yul\":6989:7011   */\n      swap1\n      pop\n        /* \"#utility.yul\":7056:7057   */\n      0x01\n        /* \"#utility.yul\":7050:7054   */\n      dup3\n        /* \"#utility.yul\":7046:7058   */\n      and\n        /* \"#utility.yul\":7077:7095   */\n      dup1\n        /* \"#utility.yul\":7067:7148   */\n      tag_147\n      jumpi\n        /* \"#utility.yul\":7133:7137   */\n      0x7f\n        /* \"#utility.yul\":7125:7131   */\n      dup3\n        /* \"#utility.yul\":7121:7138   */\n      and\n        /* \"#utility.yul\":7111:7138   */\n      swap2\n      pop\n        /* \"#utility.yul\":7067:7148   */\n    tag_147:\n        /* \"#utility.yul\":7195:7197   */\n      0x20\n        /* \"#utility.yul\":7187:7193   */\n      dup3\n        /* \"#utility.yul\":7184:7198   */\n      lt\n        /* \"#utility.yul\":7164:7182   */\n      dup2\n        /* \"#utility.yul\":7161:7199   */\n      sub\n        /* \"#utility.yul\":7158:7242   */\n      tag_148\n      jumpi\n        /* \"#utility.yul\":7214:7232   */\n      tag_149\n      tag_54\n      jump\t// in\n    tag_149:\n        /* \"#utility.yul\":7158:7242   */\n    tag_148:\n        /* \"#utility.yul\":6979:7248   */\n      pop\n        /* \"#utility.yul\":6928:7248   */\n      swap2\n      swap1\n      pop\n      jump\t// out\n        /* \"#utility.yul\":7254:7395   */\n    tag_55:\n        /* \"#utility.yul\":7303:7307   */\n      0x00\n        /* \"#utility.yul\":7326:7329   */\n      dup2\n        /* \"#utility.yul\":7318:7329   */\n      swap1\n      pop\n        /* \"#utility.yul\":7349:7352   */\n      dup2\n        /* \"#utility.yul\":7346:7347   */\n      0x00\n        /* \"#utility.yul\":7339:7353   */\n      mstore\n        /* \"#utility.yul\":7383:7387   */\n      0x20\n        /* \"#utility.yul\":7380:7381   */\n      0x00\n        /* \"#utility.yul\":7370:7388   */\n      keccak256\n        /* \"#utility.yul\":7362:7388   */\n      swap1\n      pop\n        /* \"#utility.yul\":7254:7395   */\n      swap2\n      swap1\n      pop\n      jump\t// out\n        /* \"#utility.yul\":7401:7494   */\n    tag_56:\n        /* \"#utility.yul\":7438:7444   */\n      0x00\n        /* \"#utility.yul\":7485:7487   */\n      0x20\n        /* \"#utility.yul\":7480:7482   */\n      0x1f\n        /* \"#utility.yul\":7473:7478   */\n      dup4\n        /* \"#utility.yul\":7469:7483   */\n      add\n        /* \"#utility.yul\":7465:7488   */\n      div\n        /* \"#utility.yul\":7455:7488   */\n      swap1\n      pop\n        /* \"#utility.yul\":7401:7494   */\n      swap2\n      swap1\n      pop\n      jump\t// out\n        /* \"#utility.yul\":7500:7607   */\n    tag_57:\n        /* \"#utility.yul\":7544:7552   */\n      0x00\n        /* \"#utility.yul\":7594:7599   */\n      dup3\n        /* \"#utility.yul\":7588:7592   */\n      dup3\n        /* \"#utility.yul\":7584:7600   */\n      shl\n        /* \"#utility.yul\":7563:7600   */\n      swap1\n      pop\n        /* \"#utility.yul\":7500:7607   */\n      swap3\n      swap2\n      pop\n      pop\n      jump\t// out\n        /* \"#utility.yul\":7613:8006   */\n    tag_58:\n        /* \"#utility.yul\":7682:7688   */\n      0x00\n        /* \"#utility.yul\":7732:7733   */\n      0x08\n        /* \"#utility.yul\":7720:7730   */\n      dup4\n        /* \"#utility.yul\":7716:7734   */\n      mul\n        /* \"#utility.yul\":7755:7852   */\n      tag_154\n        /* \"#utility.yul\":7785:7851   */\n      0xffffffffffffffffffffffffffffffffffffffffffffffffffffffffffffffff\n        /* \"#utility.yul\":7774:7783   */\n      dup3\n        /* \"#utility.yul\":7755:7852   */\n      tag_57\n      jump\t// in\n    tag_154:\n        /* \"#utility.yul\":7873:7912   */\n      tag_155\n        /* \"#utility.yul\":7903:7911   */\n      dup7\n        /* \"#utility.yul\":7892:7901   */\n      dup4\n        /* \"#utility.yul\":7873:7912   */\n      tag_57\n      jump\t// in\n    tag_155:\n        /* \"#utility.yul\":7861:7912   */\n      swap6\n      pop\n        /* \"#utility.yul\":7945:7949   */\n      dup1\n        /* \"#utility.yul\":7941:7950   */\n      not\n        /* \"#utility.yul\":7934:7939   */\n      dup5\n        /* \"#utility.yul\":7930:7951   */\n      and\n        /* \"#utility.yul\":7921:7951   */\n      swap4\n      pop\n        /* \"#utility.yul\":7994:7998   */\n      dup1\n        /* \"#utility.yul\":7984:7992   */\n      dup7\n        /* \"#utility.yul\":7980:7999   */\n      and\n        /* \"#utility.yul\":7973:7978   */\n      dup5\n        /* \"#utility.yul\":7970:8000   */\n      or\n        /* \"#utility.yul\":7960:8000   */\n      swap3\n      pop\n        /* \"#utility.yul\":7689:8006   */\n      pop\n      pop\n        /* \"#utility.yul\":7613:8006   */\n      swap4\n      swap3\n      pop\n      pop\n      pop\n      jump\t// out\n        /* \"#utility.yul\":8012:8072   */\n    tag_59:\n        /* \"#utility.yul\":8040:8043   */\n      0x00\n        /* \"#utility.yul\":8061:8066   */\n      dup2\n        /* \"#utility.yul\":8054:8066   */\n      swap1\n      pop\n        /* \"#utility.yul\":8012:8072   */\n      swap2\n      swap1\n      pop\n      jump\t// out\n        /* \"#utility.yul\":8078:8220   */\n    tag_60:\n        /* \"#utility.yul\":8128:8137   */\n      0x00\n        /* \"#utility.yul\":8161:8214   */\n      tag_158\n        /* \"#utility.yul\":8179:8213   */\n      tag_159\n        /* \"#utility.yul\":8188:8212   */\n      tag_160\n        /* \"#utility.yul\":8206:8211   */\n      dup5\n        /* \"#utility.yul\":8188:8212   */\n      tag_31\n      jump\t// in\n    tag_160:\n        /* \"#utility.yul\":8179:8213   */\n      tag_59\n      jump\t// in\n    tag_159:\n        /* \"#utility.yul\":8161:8214   */\n      tag_31\n      jump\t// in\n    tag_158:\n        /* \"#utility.yul\":8148:8214   */\n      swap1\n      pop\n        /* \"#utility.yul\":8078:8220   */\n      swap2\n      swap1\n      pop\n      jump\t// out\n        /* \"#utility.yul\":8226:8301   */\n    tag_61:\n        /* \"#utility.yul\":8269:8272   */\n      0x00\n        /* \"#utility.yul\":8290:8295   */\n      dup2\n        /* \"#utility.yul\":8283:8295   */\n      swap1\n      pop\n        /* \"#utility.yul\":8226:8301   */\n      swap2\n      swap1\n      pop\n      jump\t// out\n        /* \"#utility.yul\":8307:8576   */\n    tag_62:\n        /* \"#utility.yul\":8417:8456   */\n      tag_163\n        /* \"#utility.yul\":8448:8455   */\n      dup4\n        /* \"#utility.yul\":8417:8456   */\n      tag_60\n      jump\t// in\n    tag_163:\n        /* \"#utility.yul\":8478:8569   */\n      tag_164\n        /* \"#utility.yul\":8527:8568   */\n      tag_165\n        /* \"#utility.yul\":8551:8567   */\n      dup3\n        /* \"#utility.yul\":8527:8568   */\n      tag_61\n      jump\t// in\n    tag_165:\n        /* \"#utility.yul\":8519:8525   */\n      dup5\n        /* \"#utility.yul\":8512:8516   */\n      dup5\n        /* \"#utility.yul\":8506:8517   */\n      sload\n        /* \"#utility.yul\":8478:8569   */\n      tag_58\n      jump\t// in\n    tag_164:\n        /* \"#utility.yul\":8472:8476   */\n      dup3\n        /* \"#utility.yul\":8465:8570   */\n      sstore\n        /* \"#utility.yul\":8383:8576   */\n      pop\n        /* \"#utility.yul\":8307:8576   */\n      pop\n      pop\n      pop\n      jump\t// out\n        /* \"#utility.yul\":8582:8655   */\n    tag_63:\n        /* \"#utility.yul\":8627:8630   */\n      0x00\n        /* \"#utility.yul\":8582:8655   */\n      swap1\n      jump\t// out\n        /* \"#utility.yul\":8661:8850   */\n    tag_64:\n        /* \"#utility.yul\":8738:8770   */\n      tag_168\n      tag_63\n      jump\t// in\n    tag_168:\n        /* \"#utility.yul\":8779:8844   */\n      tag_169\n        /* \"#utility.yul\":8837:8843   */\n      dup2\n        /* \"#utility.yul\":8829:8835   */\n      dup5\n        /* \"#utility.yul\":8823:8827   */\n      dup5\n        /* \"#utility.yul\":8779:8844   */\n      tag_62\n      jump\t// in\n    tag_169:\n        /* \"#utility.yul\":8714:8850   */\n      pop\n        /* \"#utility.yul\":8661:8850   */\n      pop\n      pop\n      jump\t// out\n        /* \"#utility.yul\":8856:9042   */\n    tag_65:\n        /* \"#utility.yul\":8916:9036   */\n    tag_171:\n        /* \"#utility.yul\":8933:8936   */\n      dup2\n        /* \"#utility.yul\":8926:8931   */\n      dup2\n        /* \"#utility.yul\":8923:8937   */\n      lt\n        /* \"#utility.yul\":8916:9036   */\n      iszero\n      tag_173\n      jumpi\n        /* \"#utility.yul\":8987:9026   */\n      tag_174\n        /* \"#utility.yul\":9024:9025   */\n      0x00\n        /* \"#utility.yul\":9017:9022   */\n      dup3\n        /* \"#utility.yul\":8987:9026   */\n      tag_64\n      jump\t// in\n    tag_174:\n        /* \"#utility.yul\":8960:8961   */\n      0x01\n        /* \"#utility.yul\":8953:8958   */\n      dup2\n        /* \"#utility.yul\":8949:8962   */\n      add\n        /* \"#utility.yul\":8940:8962   */\n      swap1\n      pop\n        /* \"#utility.yul\":8916:9036   */\n      jump(tag_171)\n    tag_173:\n        /* \"#utility.yul\":8856:9042   */\n      pop\n      pop\n      jump\t// out\n        /* \"#utility.yul\":9048:9591   */\n    tag_66:\n        /* \"#utility.yul\":9149:9151   */\n      0x1f\n        /* \"#utility.yul\":9144:9147   */\n      dup3\n        /* \"#utility.yul\":9141:9152   */\n      gt\n        /* \"#utility.yul\":9138:9584   */\n      iszero\n      tag_176\n      jumpi\n        /* \"#utility.yul\":9183:9221   */\n      tag_177\n        /* \"#utility.yul\":9215:9220   */\n      dup2\n        /* \"#utility.yul\":9183:9221   */\n      tag_55\n      jump\t// in\n    tag_177:\n        /* \"#utility.yul\":9267:9296   */\n      tag_178\n        /* \"#utility.yul\":9285:9295   */\n      dup5\n        /* \"#utility.yul\":9267:9296   */\n      tag_56\n      jump\t// in\n    tag_178:\n        /* \"#utility.yul\":9257:9265   */\n      dup2\n        /* \"#utility.yul\":9253:9297   */\n      add\n        /* \"#utility.yul\":9450:9452   */\n      0x20\n        /* \"#utility.yul\":9438:9448   */\n      dup6\n        /* \"#utility.yul\":9435:9453   */\n      lt\n        /* \"#utility.yul\":9432:9481   */\n      iszero\n      tag_179\n      jumpi\n        /* \"#utility.yul\":9471:9479   */\n      dup2\n        /* \"#utility.yul\":9456:9479   */\n      swap1\n      pop\n        /* \"#utility.yul\":9432:9481   */\n    tag_179:\n        /* \"#utility.yul\":9494:9574   */\n      tag_180\n        /* \"#utility.yul\":9550:9572   */\n      tag_181\n        /* \"#utility.yul\":9568:9571   */\n      dup6\n        /* \"#utility.yul\":9550:9572   */\n      tag_56\n      jump\t// in\n    tag_181:\n        /* \"#utility.yul\":9540:9548   */\n      dup4\n        /* \"#utility.yul\":9536:9573   */\n      add\n        /* \"#utility.yul\":9523:9534   */\n      dup3\n        /* \"#utility.yul\":9494:9574   */\n      tag_65\n      jump\t// in\n    tag_180:\n        /* \"#utility.yul\":9153:9584   */\n      pop\n      pop\n        /* \"#utility.yul\":9138:9584   */\n    tag_176:\n        /* \"#utility.yul\":9048:9591   */\n      pop\n      pop\n      pop\n      jump\t// out\n        /* \"#utility.yul\":9597:9714   */\n    tag_67:\n        /* \"#utility.yul\":9651:9659   */\n      0x00\n        /* \"#utility.yul\":9701:9706   */\n      dup3\n        /* \"#utility.yul\":9695:9699   */\n      dup3\n        /* \"#utility.yul\":9691:9707   */\n      shr\n        /* \"#utility.yul\":9670:9707   */\n      swap1\n      pop\n        /* \"#utility.yul\":9597:9714   */\n      swap3\n      swap2\n      pop\n      pop\n      jump\t// out\n        /* \"#utility.yul\":9720:9889   */\n    tag_68:\n        /* \"#utility.yul\":9764:9770   */\n      0x00\n        /* \"#utility.yul\":9797:9848   */\n      tag_184\n        /* \"#utility.yul\":9845:9846   */\n      0x00\n        /* \"#utility.yul\":9841:9847   */\n      not\n        /* \"#utility.yul\":9833:9838   */\n      dup5\n        /* \"#utility.yul\":9830:9831   */\n      0x08\n        /* \"#utility.yul\":9826:9839   */\n      mul\n        /* \"#utility.yul\":9797:9848   */\n      tag_67\n      jump\t// in\n    tag_184:\n        /* \"#utility.yul\":9793:9849   */\n      not\n        /* \"#utility.yul\":9878:9882   */\n      dup1\n        /* \"#utility.yul\":9872:9876   */\n      dup4\n        /* \"#utility.yul\":9868:9883   */\n      and\n        /* \"#utility.yul\":9858:9883   */\n      swap2\n      pop\n        /* \"#utility.yul\":9771:9889   */\n      pop\n        /* \"#utility.yul\":9720:9889   */\n      swap3\n      swap2\n      pop\n      pop\n      jump\t// out\n        /* \"#utility.yul\":9894:10189   */\n    tag_69:\n        /* \"#utility.yul\":9970:9974   */\n      0x00\n        /* \"#utility.yul\":10116:10145   */\n      tag_186\n        /* \"#utility.yul\":10141:10144   */\n      dup4\n        /* \"#utility.yul\":10135:10139   */\n      dup4\n        /* \"#utility.yul\":10116:10145   */\n      tag_68\n      jump\t// in\n    tag_186:\n        /* \"#utility.yul\":10108:10145   */\n      swap2\n      pop\n        /* \"#utility.yul\":10178:10181   */\n      dup3\n        /* \"#utility.yul\":10175:10176   */\n      0x02\n        /* \"#utility.yul\":10171:10182   */\n      mul\n        /* \"#utility.yul\":10165:10169   */\n      dup3\n        /* \"#utility.yul\":10162:10183   */\n      or\n        /* \"#utility.yul\":10154:10183   */\n      swap1\n      pop\n        /* \"#utility.yul\":9894:10189   */\n      swap3\n      swap2\n      pop\n      pop\n      jump\t// out\n        /* \"#utility.yul\":10194:11589   */\n    tag_19:\n        /* \"#utility.yul\":10311:10348   */\n      tag_188\n        /* \"#utility.yul\":10344:10347   */\n      dup3\n        /* \"#utility.yul\":10311:10348   */\n      tag_49\n      jump\t// in\n    tag_188:\n        /* \"#utility.yul\":10413:10431   */\n      0xffffffffffffffff\n        /* \"#utility.yul\":10405:10411   */\n      dup2\n        /* \"#utility.yul\":10402:10432   */\n      gt\n        /* \"#utility.yul\":10399:10455   */\n      iszero\n      tag_189\n      jumpi\n        /* \"#utility.yul\":10435:10453   */\n      tag_190\n      tag_37\n      jump\t// in\n    tag_190:\n        /* \"#utility.yul\":10399:10455   */\n    tag_189:\n        /* \"#utility.yul\":10479:10517   */\n      tag_191\n        /* \"#utility.yul\":10511:10515   */\n      dup3\n        /* \"#utility.yul\":10505:10516   */\n      sload\n        /* \"#utility.yul\":10479:10517   */\n      tag_23\n      jump\t// in\n    tag_191:\n        /* \"#utility.yul\":10564:10631   */\n      tag_192\n        /* \"#utility.yul\":10624:10630   */\n      dup3\n        /* \"#utility.yul\":10616:10622   */\n      dup3\n        /* \"#utility.yul\":10610:10614   */\n      dup6\n        /* \"#utility.yul\":10564:10631   */\n      tag_66\n      jump\t// in\n    tag_192:\n        /* \"#utility.yul\":10658:10659   */\n      0x00\n        /* \"#utility.yul\":10682:10686   */\n      0x20\n        /* \"#utility.yul\":10669:10686   */\n      swap1\n      pop\n        /* \"#utility.yul\":10714:10716   */\n      0x1f\n        /* \"#utility.yul\":10706:10712   */\n      dup4\n        /* \"#utility.yul\":10703:10717   */\n      gt\n        /* \"#utility.yul\":10731:10732   */\n      0x01\n        /* \"#utility.yul\":10726:11344   */\n      dup2\n      eq\n      tag_194\n      jumpi\n        /* \"#utility.yul\":11388:11389   */\n      0x00\n        /* \"#utility.yul\":11405:11411   */\n      dup5\n        /* \"#utility.yul\":11402:11479   */\n      iszero\n      tag_195\n      jumpi\n        /* \"#utility.yul\":11454:11463   */\n      dup3\n        /* \"#utility.yul\":11449:11452   */\n      dup8\n        /* \"#utility.yul\":11445:11464   */\n      add\n        /* \"#utility.yul\":11439:11465   */\n      mload\n        /* \"#utility.yul\":11430:11465   */\n      swap1\n      pop\n        /* \"#utility.yul\":11402:11479   */\n    tag_195:\n        /* \"#utility.yul\":11505:11572   */\n      tag_196\n        /* \"#utility.yul\":11565:11571   */\n      dup6\n        /* \"#utility.yul\":11558:11563   */\n      dup3\n        /* \"#utility.yul\":11505:11572   */\n      tag_69\n      jump\t// in\n    tag_196:\n        /* \"#utility.yul\":11499:11503   */\n      dup7\n        /* \"#utility.yul\":11492:11573   */\n      sstore\n        /* \"#utility.yul\":11361:11583   */\n      pop\n        /* \"#utility.yul\":10696:11583   */\n      jump(tag_193)\n        /* \"#utility.yul\":10726:11344   */\n    tag_194:\n        /* \"#utility.yul\":10778:10782   */\n      0x1f\n        /* \"#utility.yul\":10774:10783   */\n      not\n        /* \"#utility.yul\":10766:10772   */\n      dup5\n        /* \"#utility.yul\":10762:10784   */\n      and\n        /* \"#utility.yul\":10812:10849   */\n      tag_197\n        /* \"#utility.yul\":10844:10848   */\n      dup7\n        /* \"#utility.yul\":10812:10849   */\n      tag_55\n      jump\t// in\n    tag_197:\n        /* \"#utility.yul\":10871:10872   */\n      0x00\n        /* \"#utility.yul\":10885:11093   */\n    tag_198:\n        /* \"#utility.yul\":10899:10906   */\n      dup3\n        /* \"#utility.yul\":10896:10897   */\n      dup2\n        /* \"#utility.yul\":10893:10907   */\n      lt\n        /* \"#utility.yul\":10885:11093   */\n      iszero\n      tag_200\n      jumpi\n        /* \"#utility.yul\":10978:10987   */\n      dup5\n        /* \"#utility.yul\":10973:10976   */\n      dup10\n        /* \"#utility.yul\":10969:10988   */\n      add\n        /* \"#utility.yul\":10963:10989   */\n      mload\n        /* \"#utility.yul\":10955:10961   */\n      dup3\n        /* \"#utility.yul\":10948:10990   */\n      sstore\n        /* \"#utility.yul\":11029:11030   */\n      0x01\n        /* \"#utility.yul\":11021:11027   */\n      dup3\n        /* \"#utility.yul\":11017:11031   */\n      add\n        /* \"#utility.yul\":11007:11031   */\n      swap2\n      pop\n        /* \"#utility.yul\":11076:11078   */\n      0x20\n        /* \"#utility.yul\":11065:11074   */\n      dup6\n        /* \"#utility.yul\":11061:11079   */\n      add\n        /* \"#utility.yul\":11048:11079   */\n      swap5\n      pop\n        /* \"#utility.yul\":10922:10926   */\n      0x20\n        /* \"#utility.yul\":10919:10920   */\n      dup2\n        /* \"#utility.yul\":10915:10927   */\n      add\n        /* \"#utility.yul\":10910:10927   */\n      swap1\n      pop\n        /* \"#utility.yul\":10885:11093   */\n      jump(tag_198)\n    tag_200:\n        /* \"#utility.yul\":11121:11127   */\n      dup7\n        /* \"#utility.yul\":11112:11119   */\n      dup4\n        /* \"#utility.yul\":11109:11128   */\n      lt\n        /* \"#utility.yul\":11106:11285   */\n      iszero\n      tag_201\n      jumpi\n        /* \"#utility.yul\":11179:11188   */\n      dup5\n        /* \"#utility.yul\":11174:11177   */\n      dup10\n        /* \"#utility.yul\":11170:11189   */\n      add\n        /* \"#utility.yul\":11164:11190   */\n      mload\n        /* \"#utility.yul\":11222:11270   */\n      tag_202\n        /* \"#utility.yul\":11264:11268   */\n      0x1f\n        /* \"#utility.yul\":11256:11262   */\n      dup10\n        /* \"#utility.yul\":11252:11269   */\n      and\n        /* \"#utility.yul\":11241:11250   */\n      dup3\n        /* \"#utility.yul\":11222:11270   */\n      tag_68\n      jump\t// in\n    tag_202:\n        /* \"#utility.yul\":11214:11220   */\n      dup4\n        /* \"#utility.yul\":11207:11271   */\n      sstore\n        /* \"#utility.yul\":11129:11285   */\n      pop\n        /* \"#utility.yul\":11106:11285   */\n    tag_201:\n        /* \"#utility.yul\":11331:11332   */\n      0x01\n        /* \"#utility.yul\":11327:11328   */\n      0x02\n        /* \"#utility.yul\":11319:11325   */\n      dup9\n        /* \"#utility.yul\":11315:11329   */\n      mul\n        /* \"#utility.yul\":11311:11333   */\n      add\n        /* \"#utility.yul\":11305:11309   */\n      dup9\n        /* \"#utility.yul\":11298:11334   */\n      sstore\n        /* \"#utility.yul\":10733:11344   */\n      pop\n      pop\n      pop\n        /* \"#utility.yul\":10696:11583   */\n    tag_193:\n      pop\n        /* \"#utility.yul\":10286:11589   */\n      pop\n      pop\n      pop\n        /* \"#utility.yul\":10194:11589   */\n      pop\n      pop\n      jump\t// out\n\n    auxdata: 0xa264697066735822122011f10ecc989a9b3cefaea2dd566deae230ad5f2c9701366768c631de7dc4608864736f6c63430008150033\n}\n",
				"bytecode": {
					"linkReferences": {},
					"object": "608060405234801561000f575f80fd5b506108948061001d5f395ff3fe608060405234801561000f575f80fd5b5060043610610034575f3560e01c80630c22cf4114610038578063f88b164114610054575b5f80fd5b610052600480360381019061004d91906103ae565b610084565b005b61006e60048036038101906100699190610474565b610116565b60405161007b9190610575565b60405180910390f35b61008c61020f565b83815f01818152505082816020018190525081816040018181525050805f803373ffffffffffffffffffffffffffffffffffffffff1673ffffffffffffffffffffffffffffffffffffffff1681526020019081526020015f205f820151815f01556020820151816001019081610102919061078f565b506040820151816002015590505050505050565b61011e61020f565b5f808373ffffffffffffffffffffffffffffffffffffffff1673ffffffffffffffffffffffffffffffffffffffff1681526020019081526020015f206040518060600160405290815f820154815260200160018201805461017e906105c2565b80601f01602080910402602001604051908101604052809291908181526020018280546101aa906105c2565b80156101f55780601f106101cc576101008083540402835291602001916101f5565b820191905f5260205f20905b8154815290600101906020018083116101d857829003601f168201915b505050505081526020016002820154815250509050919050565b60405180606001604052805f8152602001606081526020015f81525090565b5f604051905090565b5f80fd5b5f80fd5b5f819050919050565b6102518161023f565b811461025b575f80fd5b50565b5f8135905061026c81610248565b92915050565b5f80fd5b5f80fd5b5f601f19601f8301169050919050565b7f4e487b71000000000000000000000000000000000000000000000000000000005f52604160045260245ffd5b6102c08261027a565b810181811067ffffffffffffffff821117156102df576102de61028a565b5b80604052505050565b5f6102f161022e565b90506102fd82826102b7565b919050565b5f67ffffffffffffffff82111561031c5761031b61028a565b5b6103258261027a565b9050602081019050919050565b828183375f83830152505050565b5f61035261034d84610302565b6102e8565b90508281526020810184848401111561036e5761036d610276565b5b610379848285610332565b509392505050565b5f82601f83011261039557610394610272565b5b81356103a5848260208601610340565b91505092915050565b5f805f606084860312156103c5576103c4610237565b5b5f6103d28682870161025e565b935050602084013567ffffffffffffffff8111156103f3576103f261023b565b5b6103ff86828701610381565b92505060406104108682870161025e565b9150509250925092565b5f73ffffffffffffffffffffffffffffffffffffffff82169050919050565b5f6104438261041a565b9050919050565b61045381610439565b811461045d575f80fd5b50565b5f8135905061046e8161044a565b92915050565b5f6020828403121561048957610488610237565b5b5f61049684828501610460565b91505092915050565b6104a88161023f565b82525050565b5f81519050919050565b5f82825260208201905092915050565b5f5b838110156104e55780820151818401526020810190506104ca565b5f8484015250505050565b5f6104fa826104ae565b61050481856104b8565b93506105148185602086016104c8565b61051d8161027a565b840191505092915050565b5f606083015f83015161053d5f86018261049f565b506020830151848203602086015261055582826104f0565b915050604083015161056a604086018261049f565b508091505092915050565b5f6020820190508181035f83015261058d8184610528565b905092915050565b7f4e487b71000000000000000000000000000000000000000000000000000000005f52602260045260245ffd5b5f60028204905060018216806105d957607f821691505b6020821081036105ec576105eb610595565b5b50919050565b5f819050815f5260205f209050919050565b5f6020601f8301049050919050565b5f82821b905092915050565b5f6008830261064e7fffffffffffffffffffffffffffffffffffffffffffffffffffffffffffffffff82610613565b6106588683610613565b95508019841693508086168417925050509392505050565b5f819050919050565b5f61069361068e6106898461023f565b610670565b61023f565b9050919050565b5f819050919050565b6106ac83610679565b6106c06106b88261069a565b84845461061f565b825550505050565b5f90565b6106d46106c8565b6106df8184846106a3565b505050565b5b81811015610702576106f75f826106cc565b6001810190506106e5565b5050565b601f82111561074757610718816105f2565b61072184610604565b81016020851015610730578190505b61074461073c85610604565b8301826106e4565b50505b505050565b5f82821c905092915050565b5f6107675f198460080261074c565b1980831691505092915050565b5f61077f8383610758565b9150826002028217905092915050565b610798826104ae565b67ffffffffffffffff8111156107b1576107b061028a565b5b6107bb82546105c2565b6107c6828285610706565b5f60209050601f8311600181146107f7575f84156107e5578287015190505b6107ef8582610774565b865550610856565b601f198416610805866105f2565b5f5b8281101561082c57848901518255600182019150602085019450602081019050610807565b868310156108495784890151610845601f891682610758565b8355505b6001600288020188555050505b50505050505056fea264697066735822122011f10ecc989a9b3cefaea2dd566deae230ad5f2c9701366768c631de7dc4608864736f6c63430008150033",
					"opcodes": "PUSH1 0x80 PUSH1 0x40 MSTORE CALLVALUE DUP1 ISZERO PUSH2 0xF JUMPI PUSH0 DUP1 REVERT JUMPDEST POP PUSH2 0x894 DUP1 PUSH2 0x1D PUSH0 CODECOPY PUSH0 RETURN INVALID PUSH1 0x80 PUSH1 0x40 MSTORE CALLVALUE DUP1 ISZERO PUSH2 0xF JUMPI PUSH0 DUP1 REVERT JUMPDEST POP PUSH1 0x4 CALLDATASIZE LT PUSH2 0x34 JUMPI PUSH0 CALLDATALOAD PUSH1 0xE0 SHR DUP1 PUSH4 0xC22CF41 EQ PUSH2 0x38 JUMPI DUP1 PUSH4 0xF88B1641 EQ PUSH2 0x54 JUMPI JUMPDEST PUSH0 DUP1 REVERT JUMPDEST PUSH2 0x52 PUSH1 0x4 DUP1 CALLDATASIZE SUB DUP2 ADD SWAP1 PUSH2 0x4D SWAP2 SWAP1 PUSH2 0x3AE JUMP JUMPDEST PUSH2 0x84 JUMP JUMPDEST STOP JUMPDEST PUSH2 0x6E PUSH1 0x4 DUP1 CALLDATASIZE SUB DUP2 ADD SWAP1 PUSH2 0x69 SWAP2 SWAP1 PUSH2 0x474 JUMP JUMPDEST PUSH2 0x116 JUMP JUMPDEST PUSH1 0x40 MLOAD PUSH2 0x7B SWAP2 SWAP1 PUSH2 0x575 JUMP JUMPDEST PUSH1 0x40 MLOAD DUP1 SWAP2 SUB SWAP1 RETURN JUMPDEST PUSH2 0x8C PUSH2 0x20F JUMP JUMPDEST DUP4 DUP2 PUSH0 ADD DUP2 DUP2 MSTORE POP POP DUP3 DUP2 PUSH1 0x20 ADD DUP2 SWAP1 MSTORE POP DUP2 DUP2 PUSH1 0x40 ADD DUP2 DUP2 MSTORE POP POP DUP1 PUSH0 DUP1 CALLER PUSH20 0xFFFFFFFFFFFFFFFFFFFFFFFFFFFFFFFFFFFFFFFF AND PUSH20 0xFFFFFFFFFFFFFFFFFFFFFFFFFFFFFFFFFFFFFFFF AND DUP2 MSTORE PUSH1 0x20 ADD SWAP1 DUP2 MSTORE PUSH1 0x20 ADD PUSH0 KECCAK256 PUSH0 DUP3 ADD MLOAD DUP2 PUSH0 ADD SSTORE PUSH1 0x20 DUP3 ADD MLOAD DUP2 PUSH1 0x1 ADD SWAP1 DUP2 PUSH2 0x102 SWAP2 SWAP1 PUSH2 0x78F JUMP JUMPDEST POP PUSH1 0x40 DUP3 ADD MLOAD DUP2 PUSH1 0x2 ADD SSTORE SWAP1 POP POP POP POP POP POP JUMP JUMPDEST PUSH2 0x11E PUSH2 0x20F JUMP JUMPDEST PUSH0 DUP1 DUP4 PUSH20 0xFFFFFFFFFFFFFFFFFFFFFFFFFFFFFFFFFFFFFFFF AND PUSH20 0xFFFFFFFFFFFFFFFFFFFFFFFFFFFFFFFFFFFFFFFF AND DUP2 MSTORE PUSH1 0x20 ADD SWAP1 DUP2 MSTORE PUSH1 0x20 ADD PUSH0 KECCAK256 PUSH1 0x40 MLOAD DUP1 PUSH1 0x60 ADD PUSH1 0x40 MSTORE SWAP1 DUP2 PUSH0 DUP3 ADD SLOAD DUP2 MSTORE PUSH1 0x20 ADD PUSH1 0x1 DUP3 ADD DUP1 SLOAD PUSH2 0x17E SWAP1 PUSH2 0x5C2 JUMP JUMPDEST DUP1 PUSH1 0x1F ADD PUSH1 0x20 DUP1 SWAP2 DIV MUL PUSH1 0x20 ADD PUSH1 0x40 MLOAD SWAP1 DUP2 ADD PUSH1 0x40 MSTORE DUP1 SWAP3 SWAP2 SWAP1 DUP2 DUP2 MSTORE PUSH1 0x20 ADD DUP3 DUP1 SLOAD PUSH2 0x1AA SWAP1 PUSH2 0x5C2 JUMP JUMPDEST DUP1 ISZERO PUSH2 0x1F5 JUMPI DUP1 PUSH1 0x1F LT PUSH2 0x1CC JUMPI PUSH2 0x100 DUP1 DUP4 SLOAD DIV MUL DUP4 MSTORE SWAP2 PUSH1 0x20 ADD SWAP2 PUSH2 0x1F5 JUMP JUMPDEST DUP3 ADD SWAP2 SWAP1 PUSH0 MSTORE PUSH1 0x20 PUSH0 KECCAK256 SWAP1 JUMPDEST DUP2 SLOAD DUP2 MSTORE SWAP1 PUSH1 0x1 ADD SWAP1 PUSH1 0x20 ADD DUP1 DUP4 GT PUSH2 0x1D8 JUMPI DUP3 SWAP1 SUB PUSH1 0x1F AND DUP3 ADD SWAP2 JUMPDEST POP POP POP POP POP DUP2 MSTORE PUSH1 0x20 ADD PUSH1 0x2 DUP3 ADD SLOAD DUP2 MSTORE POP POP SWAP1 POP SWAP2 SWAP1 POP JUMP JUMPDEST PUSH1 0x40 MLOAD DUP1 PUSH1 0x60 ADD PUSH1 0x40 MSTORE DUP1 PUSH0 DUP2 MSTORE PUSH1 0x20 ADD PUSH1 0x60 DUP2 MSTORE PUSH1 0x20 ADD PUSH0 DUP2 MSTORE POP SWAP1 JUMP JUMPDEST PUSH0 PUSH1 0x40 MLOAD SWAP1 POP SWAP1 JUMP JUMPDEST PUSH0 DUP1 REVERT JUMPDEST PUSH0 DUP1 REVERT JUMPDEST PUSH0 DUP2 SWAP1 POP SWAP2 SWAP1 POP JUMP JUMPDEST PUSH2 0x251 DUP2 PUSH2 0x23F JUMP JUMPDEST DUP2 EQ PUSH2 0x25B JUMPI PUSH0 DUP1 REVERT JUMPDEST POP JUMP JUMPDEST PUSH0 DUP2 CALLDATALOAD SWAP1 POP PUSH2 0x26C DUP2 PUSH2 0x248 JUMP JUMPDEST SWAP3 SWAP2 POP POP JUMP JUMPDEST PUSH0 DUP1 REVERT JUMPDEST PUSH0 DUP1 REVERT JUMPDEST PUSH0 PUSH1 0x1F NOT PUSH1 0x1F DUP4 ADD AND SWAP1 POP SWAP2 SWAP1 POP JUMP JUMPDEST PUSH32 0x4E487B7100000000000000000000000000000000000000000000000000000000 PUSH0 MSTORE PUSH1 0x41 PUSH1 0x4 MSTORE PUSH1 0x24 PUSH0 REVERT JUMPDEST PUSH2 0x2C0 DUP3 PUSH2 0x27A JUMP JUMPDEST DUP2 ADD DUP2 DUP2 LT PUSH8 0xFFFFFFFFFFFFFFFF DUP3 GT OR ISZERO PUSH2 0x2DF JUMPI PUSH2 0x2DE PUSH2 0x28A JUMP JUMPDEST JUMPDEST DUP1 PUSH1 0x40 MSTORE POP POP POP JUMP JUMPDEST PUSH0 PUSH2 0x2F1 PUSH2 0x22E JUMP JUMPDEST SWAP1 POP PUSH2 0x2FD DUP3 DUP3 PUSH2 0x2B7 JUMP JUMPDEST SWAP2 SWAP1 POP JUMP JUMPDEST PUSH0 PUSH8 0xFFFFFFFFFFFFFFFF DUP3 GT ISZERO PUSH2 0x31C JUMPI PUSH2 0x31B PUSH2 0x28A JUMP JUMPDEST JUMPDEST PUSH2 0x325 DUP3 PUSH2 0x27A JUMP JUMPDEST SWAP1 POP PUSH1 0x20 DUP2 ADD SWAP1 POP SWAP2 SWAP1 POP JUMP JUMPDEST DUP3 DUP2 DUP4 CALLDATACOPY PUSH0 DUP4 DUP4 ADD MSTORE POP POP POP JUMP JUMPDEST PUSH0 PUSH2 0x352 PUSH2 0x34D DUP5 PUSH2 0x302 JUMP JUMPDEST PUSH2 0x2E8 JUMP JUMPDEST SWAP1 POP DUP3 DUP2 MSTORE PUSH1 0x20 DUP2 ADD DUP5 DUP5 DUP5 ADD GT ISZERO PUSH2 0x36E JUMPI PUSH2 0x36D PUSH2 0x276 JUMP JUMPDEST JUMPDEST PUSH2 0x379 DUP5 DUP3 DUP6 PUSH2 0x332 JUMP JUMPDEST POP SWAP4 SWAP3 POP POP POP JUMP JUMPDEST PUSH0 DUP3 PUSH1 0x1F DUP4 ADD SLT PUSH2 0x395 JUMPI PUSH2 0x394 PUSH2 0x272 JUMP JUMPDEST JUMPDEST DUP2 CALLDATALOAD PUSH2 0x3A5 DUP5 DUP3 PUSH1 0x20 DUP7 ADD PUSH2 0x340 JUMP JUMPDEST SWAP2 POP POP SWAP3 SWAP2 POP POP JUMP JUMPDEST PUSH0 DUP1 PUSH0 PUSH1 0x60 DUP5 DUP7 SUB SLT ISZERO PUSH2 0x3C5 JUMPI PUSH2 0x3C4 PUSH2 0x237 JUMP JUMPDEST JUMPDEST PUSH0 PUSH2 0x3D2 DUP7 DUP3 DUP8 ADD PUSH2 0x25E JUMP JUMPDEST SWAP4 POP POP PUSH1 0x20 DUP5 ADD CALLDATALOAD PUSH8 0xFFFFFFFFFFFFFFFF DUP2 GT ISZERO PUSH2 0x3F3 JUMPI PUSH2 0x3F2 PUSH2 0x23B JUMP JUMPDEST JUMPDEST PUSH2 0x3FF DUP7 DUP3 DUP8 ADD PUSH2 0x381 JUMP JUMPDEST SWAP3 POP POP PUSH1 0x40 PUSH2 0x410 DUP7 DUP3 DUP8 ADD PUSH2 0x25E JUMP JUMPDEST SWAP2 POP POP SWAP3 POP SWAP3 POP SWAP3 JUMP JUMPDEST PUSH0 PUSH20 0xFFFFFFFFFFFFFFFFFFFFFFFFFFFFFFFFFFFFFFFF DUP3 AND SWAP1 POP SWAP2 SWAP1 POP JUMP JUMPDEST PUSH0 PUSH2 0x443 DUP3 PUSH2 0x41A JUMP JUMPDEST SWAP1 POP SWAP2 SWAP1 POP JUMP JUMPDEST PUSH2 0x453 DUP2 PUSH2 0x439 JUMP JUMPDEST DUP2 EQ PUSH2 0x45D JUMPI PUSH0 DUP1 REVERT JUMPDEST POP JUMP JUMPDEST PUSH0 DUP2 CALLDATALOAD SWAP1 POP PUSH2 0x46E DUP2 PUSH2 0x44A JUMP JUMPDEST SWAP3 SWAP2 POP POP JUMP JUMPDEST PUSH0 PUSH1 0x20 DUP3 DUP5 SUB SLT ISZERO PUSH2 0x489 JUMPI PUSH2 0x488 PUSH2 0x237 JUMP JUMPDEST JUMPDEST PUSH0 PUSH2 0x496 DUP5 DUP3 DUP6 ADD PUSH2 0x460 JUMP JUMPDEST SWAP2 POP POP SWAP3 SWAP2 POP POP JUMP JUMPDEST PUSH2 0x4A8 DUP2 PUSH2 0x23F JUMP JUMPDEST DUP3 MSTORE POP POP JUMP JUMPDEST PUSH0 DUP2 MLOAD SWAP1 POP SWAP2 SWAP1 POP JUMP JUMPDEST PUSH0 DUP3 DUP3 MSTORE PUSH1 0x20 DUP3 ADD SWAP1 POP SWAP3 SWAP2 POP POP JUMP JUMPDEST PUSH0 JUMPDEST DUP4 DUP2 LT ISZERO PUSH2 0x4E5 JUMPI DUP1 DUP3 ADD MLOAD DUP2 DUP5 ADD MSTORE PUSH1 0x20 DUP2 ADD SWAP1 POP PUSH2 0x4CA JUMP JUMPDEST PUSH0 DUP5 DUP5 ADD MSTORE POP POP POP POP JUMP JUMPDEST PUSH0 PUSH2 0x4FA DUP3 PUSH2 0x4AE JUMP JUMPDEST PUSH2 0x504 DUP2 DUP6 PUSH2 0x4B8 JUMP JUMPDEST SWAP4 POP PUSH2 0x514 DUP2 DUP6 PUSH1 0x20 DUP7 ADD PUSH2 0x4C8 JUMP JUMPDEST PUSH2 0x51D DUP2 PUSH2 0x27A JUMP JUMPDEST DUP5 ADD SWAP2 POP POP SWAP3 SWAP2 POP POP JUMP JUMPDEST PUSH0 PUSH1 0x60 DUP4 ADD PUSH0 DUP4 ADD MLOAD PUSH2 0x53D PUSH0 DUP7 ADD DUP3 PUSH2 0x49F JUMP JUMPDEST POP PUSH1 0x20 DUP4 ADD MLOAD DUP5 DUP3 SUB PUSH1 0x20 DUP7 ADD MSTORE PUSH2 0x555 DUP3 DUP3 PUSH2 0x4F0 JUMP JUMPDEST SWAP2 POP POP PUSH1 0x40 DUP4 ADD MLOAD PUSH2 0x56A PUSH1 0x40 DUP7 ADD DUP3 PUSH2 0x49F JUMP JUMPDEST POP DUP1 SWAP2 POP POP SWAP3 SWAP2 POP POP JUMP JUMPDEST PUSH0 PUSH1 0x20 DUP3 ADD SWAP1 POP DUP2 DUP2 SUB PUSH0 DUP4 ADD MSTORE PUSH2 0x58D DUP2 DUP5 PUSH2 0x528 JUMP JUMPDEST SWAP1 POP SWAP3 SWAP2 POP POP JUMP JUMPDEST PUSH32 0x4E487B7100000000000000000000000000000000000000000000000000000000 PUSH0 MSTORE PUSH1 0x22 PUSH1 0x4 MSTORE PUSH1 0x24 PUSH0 REVERT JUMPDEST PUSH0 PUSH1 0x2 DUP3 DIV SWAP1 POP PUSH1 0x1 DUP3 AND DUP1 PUSH2 0x5D9 JUMPI PUSH1 0x7F DUP3 AND SWAP2 POP JUMPDEST PUSH1 0x20 DUP3 LT DUP2 SUB PUSH2 0x5EC JUMPI PUSH2 0x5EB PUSH2 0x595 JUMP JUMPDEST JUMPDEST POP SWAP2 SWAP1 POP JUMP JUMPDEST PUSH0 DUP2 SWAP1 POP DUP2 PUSH0 MSTORE PUSH1 0x20 PUSH0 KECCAK256 SWAP1 POP SWAP2 SWAP1 POP JUMP JUMPDEST PUSH0 PUSH1 0x20 PUSH1 0x1F DUP4 ADD DIV SWAP1 POP SWAP2 SWAP1 POP JUMP JUMPDEST PUSH0 DUP3 DUP3 SHL SWAP1 POP SWAP3 SWAP2 POP POP JUMP JUMPDEST PUSH0 PUSH1 0x8 DUP4 MUL PUSH2 0x64E PUSH32 0xFFFFFFFFFFFFFFFFFFFFFFFFFFFFFFFFFFFFFFFFFFFFFFFFFFFFFFFFFFFFFFFF DUP3 PUSH2 0x613 JUMP JUMPDEST PUSH2 0x658 DUP7 DUP4 PUSH2 0x613 JUMP JUMPDEST SWAP6 POP DUP1 NOT DUP5 AND SWAP4 POP DUP1 DUP7 AND DUP5 OR SWAP3 POP POP POP SWAP4 SWAP3 POP POP POP JUMP JUMPDEST PUSH0 DUP2 SWAP1 POP SWAP2 SWAP1 POP JUMP JUMPDEST PUSH0 PUSH2 0x693 PUSH2 0x68E PUSH2 0x689 DUP5 PUSH2 0x23F JUMP JUMPDEST PUSH2 0x670 JUMP JUMPDEST PUSH2 0x23F JUMP JUMPDEST SWAP1 POP SWAP2 SWAP1 POP JUMP JUMPDEST PUSH0 DUP2 SWAP1 POP SWAP2 SWAP1 POP JUMP JUMPDEST PUSH2 0x6AC DUP4 PUSH2 0x679 JUMP JUMPDEST PUSH2 0x6C0 PUSH2 0x6B8 DUP3 PUSH2 0x69A JUMP JUMPDEST DUP5 DUP5 SLOAD PUSH2 0x61F JUMP JUMPDEST DUP3 SSTORE POP POP POP POP JUMP JUMPDEST PUSH0 SWAP1 JUMP JUMPDEST PUSH2 0x6D4 PUSH2 0x6C8 JUMP JUMPDEST PUSH2 0x6DF DUP2 DUP5 DUP5 PUSH2 0x6A3 JUMP JUMPDEST POP POP POP JUMP JUMPDEST JUMPDEST DUP2 DUP2 LT ISZERO PUSH2 0x702 JUMPI PUSH2 0x6F7 PUSH0 DUP3 PUSH2 0x6CC JUMP JUMPDEST PUSH1 0x1 DUP2 ADD SWAP1 POP PUSH2 0x6E5 JUMP JUMPDEST POP POP JUMP JUMPDEST PUSH1 0x1F DUP3 GT ISZERO PUSH2 0x747 JUMPI PUSH2 0x718 DUP2 PUSH2 0x5F2 JUMP JUMPDEST PUSH2 0x721 DUP5 PUSH2 0x604 JUMP JUMPDEST DUP2 ADD PUSH1 0x20 DUP6 LT ISZERO PUSH2 0x730 JUMPI DUP2 SWAP1 POP JUMPDEST PUSH2 0x744 PUSH2 0x73C DUP6 PUSH2 0x604 JUMP JUMPDEST DUP4 ADD DUP3 PUSH2 0x6E4 JUMP JUMPDEST POP POP JUMPDEST POP POP POP JUMP JUMPDEST PUSH0 DUP3 DUP3 SHR SWAP1 POP SWAP3 SWAP2 POP POP JUMP JUMPDEST PUSH0 PUSH2 0x767 PUSH0 NOT DUP5 PUSH1 0x8 MUL PUSH2 0x74C JUMP JUMPDEST NOT DUP1 DUP4 AND SWAP2 POP POP SWAP3 SWAP2 POP POP JUMP JUMPDEST PUSH0 PUSH2 0x77F DUP4 DUP4 PUSH2 0x758 JUMP JUMPDEST SWAP2 POP DUP3 PUSH1 0x2 MUL DUP3 OR SWAP1 POP SWAP3 SWAP2 POP POP JUMP JUMPDEST PUSH2 0x798 DUP3 PUSH2 0x4AE JUMP JUMPDEST PUSH8 0xFFFFFFFFFFFFFFFF DUP2 GT ISZERO PUSH2 0x7B1 JUMPI PUSH2 0x7B0 PUSH2 0x28A JUMP JUMPDEST JUMPDEST PUSH2 0x7BB DUP3 SLOAD PUSH2 0x5C2 JUMP JUMPDEST PUSH2 0x7C6 DUP3 DUP3 DUP6 PUSH2 0x706 JUMP JUMPDEST PUSH0 PUSH1 0x20 SWAP1 POP PUSH1 0x1F DUP4 GT PUSH1 0x1 DUP2 EQ PUSH2 0x7F7 JUMPI PUSH0 DUP5 ISZERO PUSH2 0x7E5 JUMPI DUP3 DUP8 ADD MLOAD SWAP1 POP JUMPDEST PUSH2 0x7EF DUP6 DUP3 PUSH2 0x774 JUMP JUMPDEST DUP7 SSTORE POP PUSH2 0x856 JUMP JUMPDEST PUSH1 0x1F NOT DUP5 AND PUSH2 0x805 DUP7 PUSH2 0x5F2 JUMP JUMPDEST PUSH0 JUMPDEST DUP3 DUP2 LT ISZERO PUSH2 0x82C JUMPI DUP5 DUP10 ADD MLOAD DUP3 SSTORE PUSH1 0x1 DUP3 ADD SWAP2 POP PUSH1 0x20 DUP6 ADD SWAP5 POP PUSH1 0x20 DUP2 ADD SWAP1 POP PUSH2 0x807 JUMP JUMPDEST DUP7 DUP4 LT ISZERO PUSH2 0x849 JUMPI DUP5 DUP10 ADD MLOAD PUSH2 0x845 PUSH1 0x1F DUP10 AND DUP3 PUSH2 0x758 JUMP JUMPDEST DUP4 SSTORE POP JUMPDEST PUSH1 0x1 PUSH1 0x2 DUP9 MUL ADD DUP9 SSTORE POP POP POP JUMPDEST POP POP POP POP POP POP JUMP INVALID LOG2 PUSH5 0x6970667358 0x22 SLT KECCAK256 GT CALL 0xE 0xCC SWAP9 SWAP11 SWAP12 EXTCODECOPY 0xEF 0xAE LOG2 0xDD JUMP PUSH14 0xEAE230AD5F2C9701366768C631DE PUSH30 0xC4608864736F6C6343000815003300000000000000000000000000000000 "
				},
				"gasEstimates": {
					"creation": {
						"codeDepositCost": "439200",
						"executionCost": "472",
						"totalCost": "439672"
					},
					"external": {
						"getter(address)": "infinite",
						"setter(uint256,string,uint256)": "infinite"
					}
				},
				"methodIdentifiers": {
					"getter(address)": "f88b1641",
					"setter(uint256,string,uint256)": "0c22cf41"
				}
			},
			"storageLayout": {
				"storage": [
					{
						"astId": 13,
						"contract": "practice.sol:studentDetails",
						"label": "details",
						"offset": 0,
						"slot": "0",
						"type": "t_mapping(t_address,t_struct(det)8_storage)"
					}
				],
				"types": {
					"t_address": {
						"encoding": "inplace",
						"label": "address",
						"numberOfBytes": "20"
					},
					"t_mapping(t_address,t_struct(det)8_storage)": {
						"encoding": "mapping",
						"key": "t_address",
						"label": "mapping(address => struct studentDetails.det)",
						"numberOfBytes": "32",
						"value": "t_struct(det)8_storage"
					},
					"t_string_storage": {
						"encoding": "bytes",
						"label": "string",
						"numberOfBytes": "32"
					},
					"t_struct(det)8_storage": {
						"encoding": "inplace",
						"label": "struct studentDetails.det",
						"members": [
							{
								"astId": 3,
								"contract": "practice.sol:studentDetails",
								"label": "roll",
								"offset": 0,
								"slot": "0",
								"type": "t_uint256"
							},
							{
								"astId": 5,
								"contract": "practice.sol:studentDetails",
								"label": "name",
								"offset": 0,
								"slot": "1",
								"type": "t_string_storage"
							},
							{
								"astId": 7,
								"contract": "practice.sol:studentDetails",
								"label": "aadhar",
								"offset": 0,
								"slot": "2",
								"type": "t_uint256"
							}
						],
						"numberOfBytes": "96"
					},
					"t_uint256": {
						"encoding": "inplace",
						"label": "uint256",
						"numberOfBytes": "32"
					}
				}
			},
			"userdoc": {
				"kind": "user",
				"methods": {},
				"version": 1
			}
		}
	}
}