{
	"degree.sol": {
		"Degree": {
			"abi": [
				{
					"inputs": [],
					"stateMutability": "nonpayable",
					"type": "constructor"
				},
				{
					"inputs": [],
					"name": "getAllStudentDetails",
					"outputs": [
						{
							"components": [
								{
									"internalType": "uint256",
									"name": "rollNo",
									"type": "uint256"
								},
								{
									"internalType": "string",
									"name": "name",
									"type": "string"
								},
								{
									"internalType": "uint256",
									"name": "marks",
									"type": "uint256"
								},
								{
									"internalType": "string",
									"name": "deenPermission",
									"type": "string"
								},
								{
									"internalType": "string",
									"name": "registrarPermission",
									"type": "string"
								},
								{
									"internalType": "string",
									"name": "VCPermission",
									"type": "string"
								},
								{
									"internalType": "bytes32",
									"name": "hashcode",
									"type": "bytes32"
								}
							],
							"internalType": "struct Degree.StudentDetails[]",
							"name": "",
							"type": "tuple[]"
						}
					],
					"stateMutability": "view",
					"type": "function"
				},
				{
					"inputs": [
						{
							"internalType": "bytes32",
							"name": "_hash",
							"type": "bytes32"
						}
					],
					"name": "getStudentDetailsByHash",
					"outputs": [
						{
							"components": [
								{
									"internalType": "uint256",
									"name": "rollNo",
									"type": "uint256"
								},
								{
									"internalType": "string",
									"name": "name",
									"type": "string"
								},
								{
									"internalType": "uint256",
									"name": "marks",
									"type": "uint256"
								},
								{
									"internalType": "string",
									"name": "deenPermission",
									"type": "string"
								},
								{
									"internalType": "string",
									"name": "registrarPermission",
									"type": "string"
								},
								{
									"internalType": "string",
									"name": "VCPermission",
									"type": "string"
								},
								{
									"internalType": "bytes32",
									"name": "hashcode",
									"type": "bytes32"
								}
							],
							"internalType": "struct Degree.StudentDetails",
							"name": "",
							"type": "tuple"
						}
					],
					"stateMutability": "view",
					"type": "function"
				},
				{
					"inputs": [
						{
							"internalType": "uint256",
							"name": "_index",
							"type": "uint256"
						}
					],
					"name": "getStudentDetailsByIndex",
					"outputs": [
						{
							"components": [
								{
									"internalType": "uint256",
									"name": "rollNo",
									"type": "uint256"
								},
								{
									"internalType": "string",
									"name": "name",
									"type": "string"
								},
								{
									"internalType": "uint256",
									"name": "marks",
									"type": "uint256"
								},
								{
									"internalType": "string",
									"name": "deenPermission",
									"type": "string"
								},
								{
									"internalType": "string",
									"name": "registrarPermission",
									"type": "string"
								},
								{
									"internalType": "string",
									"name": "VCPermission",
									"type": "string"
								},
								{
									"internalType": "bytes32",
									"name": "hashcode",
									"type": "bytes32"
								}
							],
							"internalType": "struct Degree.StudentDetails",
							"name": "",
							"type": "tuple"
						}
					],
					"stateMutability": "view",
					"type": "function"
				},
				{
					"inputs": [
						{
							"internalType": "uint256",
							"name": "_rollNo",
							"type": "uint256"
						},
						{
							"internalType": "string",
							"name": "_name",
							"type": "string"
						},
						{
							"internalType": "uint256",
							"name": "_marks",
							"type": "uint256"
						}
					],
					"name": "registrarAdvice",
					"outputs": [],
					"stateMutability": "nonpayable",
					"type": "function"
				}
			],
			"devdoc": {
				"kind": "dev",
				"methods": {},
				"version": 1
			},
			"evm": {
				"assembly": "    /* \"degree.sol\":57:1557  contract Degree {... */\n  mstore(0x40, 0x80)\n    /* \"degree.sol\":389:430  constructor() {... */\n  callvalue\n  dup1\n  iszero\n  tag_1\n  jumpi\n  0x00\n  dup1\n  revert\ntag_1:\n  pop\n    /* \"degree.sol\":417:427  msg.sender */\n  caller\n    /* \"degree.sol\":409:414  owner */\n  0x00\n  dup1\n    /* \"degree.sol\":409:427  owner = msg.sender */\n  0x0100\n  exp\n  dup2\n  sload\n  dup2\n  0xffffffffffffffffffffffffffffffffffffffff\n  mul\n  not\n  and\n  swap1\n  dup4\n  0xffffffffffffffffffffffffffffffffffffffff\n  and\n  mul\n  or\n  swap1\n  sstore\n  pop\n    /* \"degree.sol\":57:1557  contract Degree {... */\n  dataSize(sub_0)\n  dup1\n  dataOffset(sub_0)\n  0x00\n  codecopy\n  0x00\n  return\nstop\n\nsub_0: assembly {\n        /* \"degree.sol\":57:1557  contract Degree {... */\n      mstore(0x40, 0x80)\n      callvalue\n      dup1\n      iszero\n      tag_1\n      jumpi\n      0x00\n      dup1\n      revert\n    tag_1:\n      pop\n      jumpi(tag_2, lt(calldatasize, 0x04))\n      shr(0xe0, calldataload(0x00))\n      dup1\n      0x1ff529f0\n      eq\n      tag_3\n      jumpi\n      dup1\n      0x88caebd0\n      eq\n      tag_4\n      jumpi\n      dup1\n      0xa748ab2a\n      eq\n      tag_5\n      jumpi\n      dup1\n      0xe2551c41\n      eq\n      tag_6\n      jumpi\n    tag_2:\n      0x00\n      dup1\n      revert\n        /* \"degree.sol\":433:1015  function registrarAdvice(uint _rollNo, string memory _name, uint _marks) public {... */\n    tag_3:\n      tag_7\n      0x04\n      dup1\n      calldatasize\n      sub\n      dup2\n      add\n      swap1\n      tag_8\n      swap2\n      swap1\n      tag_9\n      jump\t// in\n    tag_8:\n      tag_10\n      jump\t// in\n    tag_7:\n      stop\n        /* \"degree.sol\":1443:1555  function getAllStudentDetails() public view returns (StudentDetails[] memory) {... */\n    tag_4:\n      tag_11\n      tag_12\n      jump\t// in\n    tag_11:\n      mload(0x40)\n      tag_13\n      swap2\n      swap1\n      tag_14\n      jump\t// in\n    tag_13:\n      mload(0x40)\n      dup1\n      swap2\n      sub\n      swap1\n      return\n        /* \"degree.sol\":1017:1256  function getStudentDetailsByHash(bytes32 _hash) public view returns (StudentDetails memory) {... */\n    tag_5:\n      tag_15\n      0x04\n      dup1\n      calldatasize\n      sub\n      dup2\n      add\n      swap1\n      tag_16\n      swap2\n      swap1\n      tag_17\n      jump\t// in\n    tag_16:\n      tag_18\n      jump\t// in\n    tag_15:\n      mload(0x40)\n      tag_19\n      swap2\n      swap1\n      tag_20\n      jump\t// in\n    tag_19:\n      mload(0x40)\n      dup1\n      swap2\n      sub\n      swap1\n      return\n        /* \"degree.sol\":1258:1441  function getStudentDetailsByIndex(uint _index) public view returns (StudentDetails memory) {... */\n    tag_6:\n      tag_21\n      0x04\n      dup1\n      calldatasize\n      sub\n      dup2\n      add\n      swap1\n      tag_22\n      swap2\n      swap1\n      tag_23\n      jump\t// in\n    tag_22:\n      tag_24\n      jump\t// in\n    tag_21:\n      mload(0x40)\n      tag_25\n      swap2\n      swap1\n      tag_20\n      jump\t// in\n    tag_25:\n      mload(0x40)\n      dup1\n      swap2\n      sub\n      swap1\n      return\n        /* \"degree.sol\":433:1015  function registrarAdvice(uint _rollNo, string memory _name, uint _marks) public {... */\n    tag_10:\n        /* \"degree.sol\":541:546  owner */\n      0x00\n      dup1\n      sload\n      swap1\n      0x0100\n      exp\n      swap1\n      div\n      0xffffffffffffffffffffffffffffffffffffffff\n      and\n        /* \"degree.sol\":527:546  msg.sender == owner */\n      0xffffffffffffffffffffffffffffffffffffffff\n      and\n        /* \"degree.sol\":527:537  msg.sender */\n      caller\n        /* \"degree.sol\":527:546  msg.sender == owner */\n      0xffffffffffffffffffffffffffffffffffffffff\n      and\n      eq\n        /* \"degree.sol\":519:573  require(msg.sender == owner, \"You are not authorized\") */\n      tag_27\n      jumpi\n      mload(0x40)\n      0x08c379a000000000000000000000000000000000000000000000000000000000\n      dup2\n      mstore\n      0x04\n      add\n      tag_28\n      swap1\n      tag_29\n      jump\t// in\n    tag_28:\n      mload(0x40)\n      dup1\n      swap2\n      sub\n      swap1\n      revert\n    tag_27:\n        /* \"degree.sol\":588:603  usedRollNumbers */\n      0x03\n        /* \"degree.sol\":588:612  usedRollNumbers[_rollNo] */\n      0x00\n        /* \"degree.sol\":604:611  _rollNo */\n      dup5\n        /* \"degree.sol\":588:612  usedRollNumbers[_rollNo] */\n      dup2\n      mstore\n      0x20\n      add\n      swap1\n      dup2\n      mstore\n      0x20\n      add\n      0x00\n      keccak256\n      0x00\n      swap1\n      sload\n      swap1\n      0x0100\n      exp\n      swap1\n      div\n      0xff\n      and\n        /* \"degree.sol\":587:612  !usedRollNumbers[_rollNo] */\n      iszero\n        /* \"degree.sol\":579:641  require(!usedRollNumbers[_rollNo], \"Roll number already used\") */\n      tag_30\n      jumpi\n      mload(0x40)\n      0x08c379a000000000000000000000000000000000000000000000000000000000\n      dup2\n      mstore\n      0x04\n      add\n      tag_31\n      swap1\n      tag_32\n      jump\t// in\n    tag_31:\n      mload(0x40)\n      dup1\n      swap2\n      sub\n      swap1\n      revert\n    tag_30:\n        /* \"degree.sol\":661:663  33 */\n      0x21\n        /* \"degree.sol\":651:657  _marks */\n      dup2\n        /* \"degree.sol\":651:663  _marks >= 33 */\n      lt\n        /* \"degree.sol\":647:1013  if (_marks >= 33) {... */\n      tag_33\n      jumpi\n        /* \"degree.sol\":675:693  bytes32 hashNumber */\n      0x00\n        /* \"degree.sol\":723:730  _rollNo */\n      dup4\n        /* \"degree.sol\":731:736  _name */\n      dup4\n        /* \"degree.sol\":706:737  abi.encodePacked(_rollNo,_name) */\n      add(0x20, mload(0x40))\n      tag_34\n      swap3\n      swap2\n      swap1\n      tag_35\n      jump\t// in\n    tag_34:\n      mload(0x40)\n      0x20\n      dup2\n      dup4\n      sub\n      sub\n      dup2\n      mstore\n      swap1\n      0x40\n      mstore\n        /* \"degree.sol\":696:738  keccak256(abi.encodePacked(_rollNo,_name)) */\n      dup1\n      mload\n      swap1\n      0x20\n      add\n      keccak256\n        /* \"degree.sol\":675:738  bytes32 hashNumber = keccak256(abi.encodePacked(_rollNo,_name)) */\n      swap1\n      pop\n        /* \"degree.sol\":748:772  StudentDetails memory s1 */\n      0x00\n        /* \"degree.sol\":775:847  StudentDetails(_rollNo, _name, _marks,\"Pass\", \"Pass\", \"Pass\",hashNumber) */\n      mload(0x40)\n      dup1\n      0xe0\n      add\n      0x40\n      mstore\n      dup1\n        /* \"degree.sol\":790:797  _rollNo */\n      dup7\n        /* \"degree.sol\":775:847  StudentDetails(_rollNo, _name, _marks,\"Pass\", \"Pass\", \"Pass\",hashNumber) */\n      dup2\n      mstore\n      0x20\n      add\n        /* \"degree.sol\":799:804  _name */\n      dup6\n        /* \"degree.sol\":775:847  StudentDetails(_rollNo, _name, _marks,\"Pass\", \"Pass\", \"Pass\",hashNumber) */\n      dup2\n      mstore\n      0x20\n      add\n        /* \"degree.sol\":806:812  _marks */\n      dup5\n        /* \"degree.sol\":775:847  StudentDetails(_rollNo, _name, _marks,\"Pass\", \"Pass\", \"Pass\",hashNumber) */\n      dup2\n      mstore\n      0x20\n      add\n      mload(0x40)\n      dup1\n      0x40\n      add\n      0x40\n      mstore\n      dup1\n      0x04\n      dup2\n      mstore\n      0x20\n      add\n      0x5061737300000000000000000000000000000000000000000000000000000000\n      dup2\n      mstore\n      pop\n      dup2\n      mstore\n      0x20\n      add\n      mload(0x40)\n      dup1\n      0x40\n      add\n      0x40\n      mstore\n      dup1\n      0x04\n      dup2\n      mstore\n      0x20\n      add\n      0x5061737300000000000000000000000000000000000000000000000000000000\n      dup2\n      mstore\n      pop\n      dup2\n      mstore\n      0x20\n      add\n      mload(0x40)\n      dup1\n      0x40\n      add\n      0x40\n      mstore\n      dup1\n      0x04\n      dup2\n      mstore\n      0x20\n      add\n      0x5061737300000000000000000000000000000000000000000000000000000000\n      dup2\n      mstore\n      pop\n      dup2\n      mstore\n      0x20\n      add\n        /* \"degree.sol\":836:846  hashNumber */\n      dup4\n        /* \"degree.sol\":775:847  StudentDetails(_rollNo, _name, _marks,\"Pass\", \"Pass\", \"Pass\",hashNumber) */\n      dup2\n      mstore\n      pop\n        /* \"degree.sol\":748:847  StudentDetails memory s1 = StudentDetails(_rollNo, _name, _marks,\"Pass\", \"Pass\", \"Pass\",hashNumber) */\n      swap1\n      pop\n        /* \"degree.sol\":857:867  passesList */\n      0x01\n        /* \"degree.sol\":873:875  s1 */\n      dup2\n        /* \"degree.sol\":857:876  passesList.push(s1) */\n      swap1\n      dup1\n      0x01\n      dup2\n      sload\n      add\n      dup1\n      dup3\n      sstore\n      dup1\n      swap2\n      pop\n      pop\n      0x01\n      swap1\n      sub\n      swap1\n      0x00\n      mstore\n      keccak256(0x00, 0x20)\n      swap1\n      0x07\n      mul\n      add\n      0x00\n      swap1\n      swap2\n      swap1\n      swap2\n      swap1\n      swap2\n      pop\n      0x00\n      dup3\n      add\n      mload\n      dup2\n      0x00\n      add\n      sstore\n      0x20\n      dup3\n      add\n      mload\n      dup2\n      0x01\n      add\n      swap1\n      dup2\n      tag_37\n      swap2\n      swap1\n      tag_38\n      jump\t// in\n    tag_37:\n      pop\n      0x40\n      dup3\n      add\n      mload\n      dup2\n      0x02\n      add\n      sstore\n      0x60\n      dup3\n      add\n      mload\n      dup2\n      0x03\n      add\n      swap1\n      dup2\n      tag_39\n      swap2\n      swap1\n      tag_38\n      jump\t// in\n    tag_39:\n      pop\n      0x80\n      dup3\n      add\n      mload\n      dup2\n      0x04\n      add\n      swap1\n      dup2\n      tag_40\n      swap2\n      swap1\n      tag_38\n      jump\t// in\n    tag_40:\n      pop\n      0xa0\n      dup3\n      add\n      mload\n      dup2\n      0x05\n      add\n      swap1\n      dup2\n      tag_41\n      swap2\n      swap1\n      tag_38\n      jump\t// in\n    tag_41:\n      pop\n      0xc0\n      dup3\n      add\n      mload\n      dup2\n      0x06\n      add\n      sstore\n      pop\n      pop\n        /* \"degree.sol\":932:933  1 */\n      0x01\n        /* \"degree.sol\":912:922  passesList */\n      dup1\n        /* \"degree.sol\":912:929  passesList.length */\n      dup1\n      sload\n      swap1\n      pop\n        /* \"degree.sol\":912:933  passesList.length - 1 */\n      tag_42\n      swap2\n      swap1\n      tag_43\n      jump\t// in\n    tag_42:\n        /* \"degree.sol\":886:897  hashToIndex */\n      0x02\n        /* \"degree.sol\":886:909  hashToIndex[hashNumber] */\n      0x00\n        /* \"degree.sol\":898:908  hashNumber */\n      dup5\n        /* \"degree.sol\":886:909  hashToIndex[hashNumber] */\n      dup2\n      mstore\n      0x20\n      add\n      swap1\n      dup2\n      mstore\n      0x20\n      add\n      0x00\n      keccak256\n        /* \"degree.sol\":886:933  hashToIndex[hashNumber] = passesList.length - 1 */\n      dup2\n      swap1\n      sstore\n      pop\n        /* \"degree.sol\":970:974  true */\n      0x01\n        /* \"degree.sol\":943:958  usedRollNumbers */\n      0x03\n        /* \"degree.sol\":943:967  usedRollNumbers[_rollNo] */\n      0x00\n        /* \"degree.sol\":959:966  _rollNo */\n      dup8\n        /* \"degree.sol\":943:967  usedRollNumbers[_rollNo] */\n      dup2\n      mstore\n      0x20\n      add\n      swap1\n      dup2\n      mstore\n      0x20\n      add\n      0x00\n      keccak256\n      0x00\n        /* \"degree.sol\":943:974  usedRollNumbers[_rollNo] = true */\n      0x0100\n      exp\n      dup2\n      sload\n      dup2\n      0xff\n      mul\n      not\n      and\n      swap1\n      dup4\n      iszero\n      iszero\n      mul\n      or\n      swap1\n      sstore\n      pop\n        /* \"degree.sol\":665:1013  {... */\n      pop\n      pop\n        /* \"degree.sol\":647:1013  if (_marks >= 33) {... */\n    tag_33:\n        /* \"degree.sol\":433:1015  function registrarAdvice(uint _rollNo, string memory _name, uint _marks) public {... */\n      pop\n      pop\n      pop\n      jump\t// out\n        /* \"degree.sol\":1443:1555  function getAllStudentDetails() public view returns (StudentDetails[] memory) {... */\n    tag_12:\n        /* \"degree.sol\":1496:1519  StudentDetails[] memory */\n      0x60\n        /* \"degree.sol\":1538:1548  passesList */\n      0x01\n        /* \"degree.sol\":1531:1548  return passesList */\n      dup1\n      sload\n      dup1\n      0x20\n      mul\n      0x20\n      add\n      mload(0x40)\n      swap1\n      dup2\n      add\n      0x40\n      mstore\n      dup1\n      swap3\n      swap2\n      swap1\n      dup2\n      dup2\n      mstore\n      0x20\n      add\n      0x00\n      swap1\n    tag_45:\n      dup3\n      dup3\n      lt\n      iszero\n      tag_46\n      jumpi\n      dup4\n      dup3\n      swap1\n      0x00\n      mstore\n      keccak256(0x00, 0x20)\n      swap1\n      0x07\n      mul\n      add\n      mload(0x40)\n      dup1\n      0xe0\n      add\n      0x40\n      mstore\n      swap1\n      dup2\n      0x00\n      dup3\n      add\n      sload\n      dup2\n      mstore\n      0x20\n      add\n      0x01\n      dup3\n      add\n      dup1\n      sload\n      tag_48\n      swap1\n      tag_49\n      jump\t// in\n    tag_48:\n      dup1\n      0x1f\n      add\n      0x20\n      dup1\n      swap2\n      div\n      mul\n      0x20\n      add\n      mload(0x40)\n      swap1\n      dup2\n      add\n      0x40\n      mstore\n      dup1\n      swap3\n      swap2\n      swap1\n      dup2\n      dup2\n      mstore\n      0x20\n      add\n      dup3\n      dup1\n      sload\n      tag_50\n      swap1\n      tag_49\n      jump\t// in\n    tag_50:\n      dup1\n      iszero\n      tag_51\n      jumpi\n      dup1\n      0x1f\n      lt\n      tag_52\n      jumpi\n      0x0100\n      dup1\n      dup4\n      sload\n      div\n      mul\n      dup4\n      mstore\n      swap2\n      0x20\n      add\n      swap2\n      jump(tag_51)\n    tag_52:\n      dup3\n      add\n      swap2\n      swap1\n      0x00\n      mstore\n      keccak256(0x00, 0x20)\n      swap1\n    tag_53:\n      dup2\n      sload\n      dup2\n      mstore\n      swap1\n      0x01\n      add\n      swap1\n      0x20\n      add\n      dup1\n      dup4\n      gt\n      tag_53\n      jumpi\n      dup3\n      swap1\n      sub\n      0x1f\n      and\n      dup3\n      add\n      swap2\n    tag_51:\n      pop\n      pop\n      pop\n      pop\n      pop\n      dup2\n      mstore\n      0x20\n      add\n      0x02\n      dup3\n      add\n      sload\n      dup2\n      mstore\n      0x20\n      add\n      0x03\n      dup3\n      add\n      dup1\n      sload\n      tag_54\n      swap1\n      tag_49\n      jump\t// in\n    tag_54:\n      dup1\n      0x1f\n      add\n      0x20\n      dup1\n      swap2\n      div\n      mul\n      0x20\n      add\n      mload(0x40)\n      swap1\n      dup2\n      add\n      0x40\n      mstore\n      dup1\n      swap3\n      swap2\n      swap1\n      dup2\n      dup2\n      mstore\n      0x20\n      add\n      dup3\n      dup1\n      sload\n      tag_55\n      swap1\n      tag_49\n      jump\t// in\n    tag_55:\n      dup1\n      iszero\n      tag_56\n      jumpi\n      dup1\n      0x1f\n      lt\n      tag_57\n      jumpi\n      0x0100\n      dup1\n      dup4\n      sload\n      div\n      mul\n      dup4\n      mstore\n      swap2\n      0x20\n      add\n      swap2\n      jump(tag_56)\n    tag_57:\n      dup3\n      add\n      swap2\n      swap1\n      0x00\n      mstore\n      keccak256(0x00, 0x20)\n      swap1\n    tag_58:\n      dup2\n      sload\n      dup2\n      mstore\n      swap1\n      0x01\n      add\n      swap1\n      0x20\n      add\n      dup1\n      dup4\n      gt\n      tag_58\n      jumpi\n      dup3\n      swap1\n      sub\n      0x1f\n      and\n      dup3\n      add\n      swap2\n    tag_56:\n      pop\n      pop\n      pop\n      pop\n      pop\n      dup2\n      mstore\n      0x20\n      add\n      0x04\n      dup3\n      add\n      dup1\n      sload\n      tag_59\n      swap1\n      tag_49\n      jump\t// in\n    tag_59:\n      dup1\n      0x1f\n      add\n      0x20\n      dup1\n      swap2\n      div\n      mul\n      0x20\n      add\n      mload(0x40)\n      swap1\n      dup2\n      add\n      0x40\n      mstore\n      dup1\n      swap3\n      swap2\n      swap1\n      dup2\n      dup2\n      mstore\n      0x20\n      add\n      dup3\n      dup1\n      sload\n      tag_60\n      swap1\n      tag_49\n      jump\t// in\n    tag_60:\n      dup1\n      iszero\n      tag_61\n      jumpi\n      dup1\n      0x1f\n      lt\n      tag_62\n      jumpi\n      0x0100\n      dup1\n      dup4\n      sload\n      div\n      mul\n      dup4\n      mstore\n      swap2\n      0x20\n      add\n      swap2\n      jump(tag_61)\n    tag_62:\n      dup3\n      add\n      swap2\n      swap1\n      0x00\n      mstore\n      keccak256(0x00, 0x20)\n      swap1\n    tag_63:\n      dup2\n      sload\n      dup2\n      mstore\n      swap1\n      0x01\n      add\n      swap1\n      0x20\n      add\n      dup1\n      dup4\n      gt\n      tag_63\n      jumpi\n      dup3\n      swap1\n      sub\n      0x1f\n      and\n      dup3\n      add\n      swap2\n    tag_61:\n      pop\n      pop\n      pop\n      pop\n      pop\n      dup2\n      mstore\n      0x20\n      add\n      0x05\n      dup3\n      add\n      dup1\n      sload\n      tag_64\n      swap1\n      tag_49\n      jump\t// in\n    tag_64:\n      dup1\n      0x1f\n      add\n      0x20\n      dup1\n      swap2\n      div\n      mul\n      0x20\n      add\n      mload(0x40)\n      swap1\n      dup2\n      add\n      0x40\n      mstore\n      dup1\n      swap3\n      swap2\n      swap1\n      dup2\n      dup2\n      mstore\n      0x20\n      add\n      dup3\n      dup1\n      sload\n      tag_65\n      swap1\n      tag_49\n      jump\t// in\n    tag_65:\n      dup1\n      iszero\n      tag_66\n      jumpi\n      dup1\n      0x1f\n      lt\n      tag_67\n      jumpi\n      0x0100\n      dup1\n      dup4\n      sload\n      div\n      mul\n      dup4\n      mstore\n      swap2\n      0x20\n      add\n      swap2\n      jump(tag_66)\n    tag_67:\n      dup3\n      add\n      swap2\n      swap1\n      0x00\n      mstore\n      keccak256(0x00, 0x20)\n      swap1\n    tag_68:\n      dup2\n      sload\n      dup2\n      mstore\n      swap1\n      0x01\n      add\n      swap1\n      0x20\n      add\n      dup1\n      dup4\n      gt\n      tag_68\n      jumpi\n      dup3\n      swap1\n      sub\n      0x1f\n      and\n      dup3\n      add\n      swap2\n    tag_66:\n      pop\n      pop\n      pop\n      pop\n      pop\n      dup2\n      mstore\n      0x20\n      add\n      0x06\n      dup3\n      add\n      sload\n      dup2\n      mstore\n      pop\n      pop\n      dup2\n      mstore\n      0x20\n      add\n      swap1\n      0x01\n      add\n      swap1\n      jump(tag_45)\n    tag_46:\n      pop\n      pop\n      pop\n      pop\n      swap1\n      pop\n        /* \"degree.sol\":1443:1555  function getAllStudentDetails() public view returns (StudentDetails[] memory) {... */\n      swap1\n      jump\t// out\n        /* \"degree.sol\":1017:1256  function getStudentDetailsByHash(bytes32 _hash) public view returns (StudentDetails memory) {... */\n    tag_18:\n        /* \"degree.sol\":1086:1107  StudentDetails memory */\n      tag_69\n      tag_70\n      jump\t// in\n    tag_69:\n        /* \"degree.sol\":1115:1125  uint index */\n      0x00\n        /* \"degree.sol\":1128:1139  hashToIndex */\n      0x02\n        /* \"degree.sol\":1128:1146  hashToIndex[_hash] */\n      0x00\n        /* \"degree.sol\":1140:1145  _hash */\n      dup5\n        /* \"degree.sol\":1128:1146  hashToIndex[_hash] */\n      dup2\n      mstore\n      0x20\n      add\n      swap1\n      dup2\n      mstore\n      0x20\n      add\n      0x00\n      keccak256\n      sload\n        /* \"degree.sol\":1115:1146  uint index = hashToIndex[_hash] */\n      swap1\n      pop\n        /* \"degree.sol\":1168:1178  passesList */\n      0x01\n        /* \"degree.sol\":1168:1185  passesList.length */\n      dup1\n      sload\n      swap1\n      pop\n        /* \"degree.sol\":1160:1165  index */\n      dup2\n        /* \"degree.sol\":1160:1185  index < passesList.length */\n      lt\n        /* \"degree.sol\":1152:1223  require(index < passesList.length, \"Data not found for the given hash\") */\n      tag_72\n      jumpi\n      mload(0x40)\n      0x08c379a000000000000000000000000000000000000000000000000000000000\n      dup2\n      mstore\n      0x04\n      add\n      tag_73\n      swap1\n      tag_74\n      jump\t// in\n    tag_73:\n      mload(0x40)\n      dup1\n      swap2\n      sub\n      swap1\n      revert\n    tag_72:\n        /* \"degree.sol\":1236:1246  passesList */\n      0x01\n        /* \"degree.sol\":1247:1252  index */\n      dup2\n        /* \"degree.sol\":1236:1253  passesList[index] */\n      dup2\n      sload\n      dup2\n      lt\n      tag_75\n      jumpi\n      tag_76\n      tag_77\n      jump\t// in\n    tag_76:\n    tag_75:\n      swap1\n      0x00\n      mstore\n      keccak256(0x00, 0x20)\n      swap1\n      0x07\n      mul\n      add\n        /* \"degree.sol\":1229:1253  return passesList[index] */\n      mload(0x40)\n      dup1\n      0xe0\n      add\n      0x40\n      mstore\n      swap1\n      dup2\n      0x00\n      dup3\n      add\n      sload\n      dup2\n      mstore\n      0x20\n      add\n      0x01\n      dup3\n      add\n      dup1\n      sload\n      tag_79\n      swap1\n      tag_49\n      jump\t// in\n    tag_79:\n      dup1\n      0x1f\n      add\n      0x20\n      dup1\n      swap2\n      div\n      mul\n      0x20\n      add\n      mload(0x40)\n      swap1\n      dup2\n      add\n      0x40\n      mstore\n      dup1\n      swap3\n      swap2\n      swap1\n      dup2\n      dup2\n      mstore\n      0x20\n      add\n      dup3\n      dup1\n      sload\n      tag_80\n      swap1\n      tag_49\n      jump\t// in\n    tag_80:\n      dup1\n      iszero\n      tag_81\n      jumpi\n      dup1\n      0x1f\n      lt\n      tag_82\n      jumpi\n      0x0100\n      dup1\n      dup4\n      sload\n      div\n      mul\n      dup4\n      mstore\n      swap2\n      0x20\n      add\n      swap2\n      jump(tag_81)\n    tag_82:\n      dup3\n      add\n      swap2\n      swap1\n      0x00\n      mstore\n      keccak256(0x00, 0x20)\n      swap1\n    tag_83:\n      dup2\n      sload\n      dup2\n      mstore\n      swap1\n      0x01\n      add\n      swap1\n      0x20\n      add\n      dup1\n      dup4\n      gt\n      tag_83\n      jumpi\n      dup3\n      swap1\n      sub\n      0x1f\n      and\n      dup3\n      add\n      swap2\n    tag_81:\n      pop\n      pop\n      pop\n      pop\n      pop\n      dup2\n      mstore\n      0x20\n      add\n      0x02\n      dup3\n      add\n      sload\n      dup2\n      mstore\n      0x20\n      add\n      0x03\n      dup3\n      add\n      dup1\n      sload\n      tag_84\n      swap1\n      tag_49\n      jump\t// in\n    tag_84:\n      dup1\n      0x1f\n      add\n      0x20\n      dup1\n      swap2\n      div\n      mul\n      0x20\n      add\n      mload(0x40)\n      swap1\n      dup2\n      add\n      0x40\n      mstore\n      dup1\n      swap3\n      swap2\n      swap1\n      dup2\n      dup2\n      mstore\n      0x20\n      add\n      dup3\n      dup1\n      sload\n      tag_85\n      swap1\n      tag_49\n      jump\t// in\n    tag_85:\n      dup1\n      iszero\n      tag_86\n      jumpi\n      dup1\n      0x1f\n      lt\n      tag_87\n      jumpi\n      0x0100\n      dup1\n      dup4\n      sload\n      div\n      mul\n      dup4\n      mstore\n      swap2\n      0x20\n      add\n      swap2\n      jump(tag_86)\n    tag_87:\n      dup3\n      add\n      swap2\n      swap1\n      0x00\n      mstore\n      keccak256(0x00, 0x20)\n      swap1\n    tag_88:\n      dup2\n      sload\n      dup2\n      mstore\n      swap1\n      0x01\n      add\n      swap1\n      0x20\n      add\n      dup1\n      dup4\n      gt\n      tag_88\n      jumpi\n      dup3\n      swap1\n      sub\n      0x1f\n      and\n      dup3\n      add\n      swap2\n    tag_86:\n      pop\n      pop\n      pop\n      pop\n      pop\n      dup2\n      mstore\n      0x20\n      add\n      0x04\n      dup3\n      add\n      dup1\n      sload\n      tag_89\n      swap1\n      tag_49\n      jump\t// in\n    tag_89:\n      dup1\n      0x1f\n      add\n      0x20\n      dup1\n      swap2\n      div\n      mul\n      0x20\n      add\n      mload(0x40)\n      swap1\n      dup2\n      add\n      0x40\n      mstore\n      dup1\n      swap3\n      swap2\n      swap1\n      dup2\n      dup2\n      mstore\n      0x20\n      add\n      dup3\n      dup1\n      sload\n      tag_90\n      swap1\n      tag_49\n      jump\t// in\n    tag_90:\n      dup1\n      iszero\n      tag_91\n      jumpi\n      dup1\n      0x1f\n      lt\n      tag_92\n      jumpi\n      0x0100\n      dup1\n      dup4\n      sload\n      div\n      mul\n      dup4\n      mstore\n      swap2\n      0x20\n      add\n      swap2\n      jump(tag_91)\n    tag_92:\n      dup3\n      add\n      swap2\n      swap1\n      0x00\n      mstore\n      keccak256(0x00, 0x20)\n      swap1\n    tag_93:\n      dup2\n      sload\n      dup2\n      mstore\n      swap1\n      0x01\n      add\n      swap1\n      0x20\n      add\n      dup1\n      dup4\n      gt\n      tag_93\n      jumpi\n      dup3\n      swap1\n      sub\n      0x1f\n      and\n      dup3\n      add\n      swap2\n    tag_91:\n      pop\n      pop\n      pop\n      pop\n      pop\n      dup2\n      mstore\n      0x20\n      add\n      0x05\n      dup3\n      add\n      dup1\n      sload\n      tag_94\n      swap1\n      tag_49\n      jump\t// in\n    tag_94:\n      dup1\n      0x1f\n      add\n      0x20\n      dup1\n      swap2\n      div\n      mul\n      0x20\n      add\n      mload(0x40)\n      swap1\n      dup2\n      add\n      0x40\n      mstore\n      dup1\n      swap3\n      swap2\n      swap1\n      dup2\n      dup2\n      mstore\n      0x20\n      add\n      dup3\n      dup1\n      sload\n      tag_95\n      swap1\n      tag_49\n      jump\t// in\n    tag_95:\n      dup1\n      iszero\n      tag_96\n      jumpi\n      dup1\n      0x1f\n      lt\n      tag_97\n      jumpi\n      0x0100\n      dup1\n      dup4\n      sload\n      div\n      mul\n      dup4\n      mstore\n      swap2\n      0x20\n      add\n      swap2\n      jump(tag_96)\n    tag_97:\n      dup3\n      add\n      swap2\n      swap1\n      0x00\n      mstore\n      keccak256(0x00, 0x20)\n      swap1\n    tag_98:\n      dup2\n      sload\n      dup2\n      mstore\n      swap1\n      0x01\n      add\n      swap1\n      0x20\n      add\n      dup1\n      dup4\n      gt\n      tag_98\n      jumpi\n      dup3\n      swap1\n      sub\n      0x1f\n      and\n      dup3\n      add\n      swap2\n    tag_96:\n      pop\n      pop\n      pop\n      pop\n      pop\n      dup2\n      mstore\n      0x20\n      add\n      0x06\n      dup3\n      add\n      sload\n      dup2\n      mstore\n      pop\n      pop\n      swap2\n      pop\n      pop\n        /* \"degree.sol\":1017:1256  function getStudentDetailsByHash(bytes32 _hash) public view returns (StudentDetails memory) {... */\n      swap2\n      swap1\n      pop\n      jump\t// out\n        /* \"degree.sol\":1258:1441  function getStudentDetailsByIndex(uint _index) public view returns (StudentDetails memory) {... */\n    tag_24:\n        /* \"degree.sol\":1326:1347  StudentDetails memory */\n      tag_99\n      tag_70\n      jump\t// in\n    tag_99:\n        /* \"degree.sol\":1372:1382  passesList */\n      0x01\n        /* \"degree.sol\":1372:1389  passesList.length */\n      dup1\n      sload\n      swap1\n      pop\n        /* \"degree.sol\":1363:1369  _index */\n      dup3\n        /* \"degree.sol\":1363:1389  _index < passesList.length */\n      lt\n        /* \"degree.sol\":1355:1407  require(_index < passesList.length, \"Invalid index\") */\n      tag_101\n      jumpi\n      mload(0x40)\n      0x08c379a000000000000000000000000000000000000000000000000000000000\n      dup2\n      mstore\n      0x04\n      add\n      tag_102\n      swap1\n      tag_103\n      jump\t// in\n    tag_102:\n      mload(0x40)\n      dup1\n      swap2\n      sub\n      swap1\n      revert\n    tag_101:\n        /* \"degree.sol\":1420:1430  passesList */\n      0x01\n        /* \"degree.sol\":1431:1437  _index */\n      dup3\n        /* \"degree.sol\":1420:1438  passesList[_index] */\n      dup2\n      sload\n      dup2\n      lt\n      tag_104\n      jumpi\n      tag_105\n      tag_77\n      jump\t// in\n    tag_105:\n    tag_104:\n      swap1\n      0x00\n      mstore\n      keccak256(0x00, 0x20)\n      swap1\n      0x07\n      mul\n      add\n        /* \"degree.sol\":1413:1438  return passesList[_index] */\n      mload(0x40)\n      dup1\n      0xe0\n      add\n      0x40\n      mstore\n      swap1\n      dup2\n      0x00\n      dup3\n      add\n      sload\n      dup2\n      mstore\n      0x20\n      add\n      0x01\n      dup3\n      add\n      dup1\n      sload\n      tag_107\n      swap1\n      tag_49\n      jump\t// in\n    tag_107:\n      dup1\n      0x1f\n      add\n      0x20\n      dup1\n      swap2\n      div\n      mul\n      0x20\n      add\n      mload(0x40)\n      swap1\n      dup2\n      add\n      0x40\n      mstore\n      dup1\n      swap3\n      swap2\n      swap1\n      dup2\n      dup2\n      mstore\n      0x20\n      add\n      dup3\n      dup1\n      sload\n      tag_108\n      swap1\n      tag_49\n      jump\t// in\n    tag_108:\n      dup1\n      iszero\n      tag_109\n      jumpi\n      dup1\n      0x1f\n      lt\n      tag_110\n      jumpi\n      0x0100\n      dup1\n      dup4\n      sload\n      div\n      mul\n      dup4\n      mstore\n      swap2\n      0x20\n      add\n      swap2\n      jump(tag_109)\n    tag_110:\n      dup3\n      add\n      swap2\n      swap1\n      0x00\n      mstore\n      keccak256(0x00, 0x20)\n      swap1\n    tag_111:\n      dup2\n      sload\n      dup2\n      mstore\n      swap1\n      0x01\n      add\n      swap1\n      0x20\n      add\n      dup1\n      dup4\n      gt\n      tag_111\n      jumpi\n      dup3\n      swap1\n      sub\n      0x1f\n      and\n      dup3\n      add\n      swap2\n    tag_109:\n      pop\n      pop\n      pop\n      pop\n      pop\n      dup2\n      mstore\n      0x20\n      add\n      0x02\n      dup3\n      add\n      sload\n      dup2\n      mstore\n      0x20\n      add\n      0x03\n      dup3\n      add\n      dup1\n      sload\n      tag_112\n      swap1\n      tag_49\n      jump\t// in\n    tag_112:\n      dup1\n      0x1f\n      add\n      0x20\n      dup1\n      swap2\n      div\n      mul\n      0x20\n      add\n      mload(0x40)\n      swap1\n      dup2\n      add\n      0x40\n      mstore\n      dup1\n      swap3\n      swap2\n      swap1\n      dup2\n      dup2\n      mstore\n      0x20\n      add\n      dup3\n      dup1\n      sload\n      tag_113\n      swap1\n      tag_49\n      jump\t// in\n    tag_113:\n      dup1\n      iszero\n      tag_114\n      jumpi\n      dup1\n      0x1f\n      lt\n      tag_115\n      jumpi\n      0x0100\n      dup1\n      dup4\n      sload\n      div\n      mul\n      dup4\n      mstore\n      swap2\n      0x20\n      add\n      swap2\n      jump(tag_114)\n    tag_115:\n      dup3\n      add\n      swap2\n      swap1\n      0x00\n      mstore\n      keccak256(0x00, 0x20)\n      swap1\n    tag_116:\n      dup2\n      sload\n      dup2\n      mstore\n      swap1\n      0x01\n      add\n      swap1\n      0x20\n      add\n      dup1\n      dup4\n      gt\n      tag_116\n      jumpi\n      dup3\n      swap1\n      sub\n      0x1f\n      and\n      dup3\n      add\n      swap2\n    tag_114:\n      pop\n      pop\n      pop\n      pop\n      pop\n      dup2\n      mstore\n      0x20\n      add\n      0x04\n      dup3\n      add\n      dup1\n      sload\n      tag_117\n      swap1\n      tag_49\n      jump\t// in\n    tag_117:\n      dup1\n      0x1f\n      add\n      0x20\n      dup1\n      swap2\n      div\n      mul\n      0x20\n      add\n      mload(0x40)\n      swap1\n      dup2\n      add\n      0x40\n      mstore\n      dup1\n      swap3\n      swap2\n      swap1\n      dup2\n      dup2\n      mstore\n      0x20\n      add\n      dup3\n      dup1\n      sload\n      tag_118\n      swap1\n      tag_49\n      jump\t// in\n    tag_118:\n      dup1\n      iszero\n      tag_119\n      jumpi\n      dup1\n      0x1f\n      lt\n      tag_120\n      jumpi\n      0x0100\n      dup1\n      dup4\n      sload\n      div\n      mul\n      dup4\n      mstore\n      swap2\n      0x20\n      add\n      swap2\n      jump(tag_119)\n    tag_120:\n      dup3\n      add\n      swap2\n      swap1\n      0x00\n      mstore\n      keccak256(0x00, 0x20)\n      swap1\n    tag_121:\n      dup2\n      sload\n      dup2\n      mstore\n      swap1\n      0x01\n      add\n      swap1\n      0x20\n      add\n      dup1\n      dup4\n      gt\n      tag_121\n      jumpi\n      dup3\n      swap1\n      sub\n      0x1f\n      and\n      dup3\n      add\n      swap2\n    tag_119:\n      pop\n      pop\n      pop\n      pop\n      pop\n      dup2\n      mstore\n      0x20\n      add\n      0x05\n      dup3\n      add\n      dup1\n      sload\n      tag_122\n      swap1\n      tag_49\n      jump\t// in\n    tag_122:\n      dup1\n      0x1f\n      add\n      0x20\n      dup1\n      swap2\n      div\n      mul\n      0x20\n      add\n      mload(0x40)\n      swap1\n      dup2\n      add\n      0x40\n      mstore\n      dup1\n      swap3\n      swap2\n      swap1\n      dup2\n      dup2\n      mstore\n      0x20\n      add\n      dup3\n      dup1\n      sload\n      tag_123\n      swap1\n      tag_49\n      jump\t// in\n    tag_123:\n      dup1\n      iszero\n      tag_124\n      jumpi\n      dup1\n      0x1f\n      lt\n      tag_125\n      jumpi\n      0x0100\n      dup1\n      dup4\n      sload\n      div\n      mul\n      dup4\n      mstore\n      swap2\n      0x20\n      add\n      swap2\n      jump(tag_124)\n    tag_125:\n      dup3\n      add\n      swap2\n      swap1\n      0x00\n      mstore\n      keccak256(0x00, 0x20)\n      swap1\n    tag_126:\n      dup2\n      sload\n      dup2\n      mstore\n      swap1\n      0x01\n      add\n      swap1\n      0x20\n      add\n      dup1\n      dup4\n      gt\n      tag_126\n      jumpi\n      dup3\n      swap1\n      sub\n      0x1f\n      and\n      dup3\n      add\n      swap2\n    tag_124:\n      pop\n      pop\n      pop\n      pop\n      pop\n      dup2\n      mstore\n      0x20\n      add\n      0x06\n      dup3\n      add\n      sload\n      dup2\n      mstore\n      pop\n      pop\n      swap1\n      pop\n        /* \"degree.sol\":1258:1441  function getStudentDetailsByIndex(uint _index) public view returns (StudentDetails memory) {... */\n      swap2\n      swap1\n      pop\n      jump\t// out\n    tag_70:\n      mload(0x40)\n      dup1\n      0xe0\n      add\n      0x40\n      mstore\n      dup1\n      0x00\n      dup2\n      mstore\n      0x20\n      add\n      0x60\n      dup2\n      mstore\n      0x20\n      add\n      0x00\n      dup2\n      mstore\n      0x20\n      add\n      0x60\n      dup2\n      mstore\n      0x20\n      add\n      0x60\n      dup2\n      mstore\n      0x20\n      add\n      0x60\n      dup2\n      mstore\n      0x20\n      add\n      0x00\n      dup1\n      not\n      and\n      dup2\n      mstore\n      pop\n      swap1\n      jump\t// out\n        /* \"#utility.yul\":7:82   */\n    tag_127:\n        /* \"#utility.yul\":40:46   */\n      0x00\n        /* \"#utility.yul\":73:75   */\n      0x40\n        /* \"#utility.yul\":67:76   */\n      mload\n        /* \"#utility.yul\":57:76   */\n      swap1\n      pop\n        /* \"#utility.yul\":7:82   */\n      swap1\n      jump\t// out\n        /* \"#utility.yul\":88:205   */\n    tag_128:\n        /* \"#utility.yul\":197:198   */\n      0x00\n        /* \"#utility.yul\":194:195   */\n      dup1\n        /* \"#utility.yul\":187:199   */\n      revert\n        /* \"#utility.yul\":211:328   */\n    tag_129:\n        /* \"#utility.yul\":320:321   */\n      0x00\n        /* \"#utility.yul\":317:318   */\n      dup1\n        /* \"#utility.yul\":310:322   */\n      revert\n        /* \"#utility.yul\":334:411   */\n    tag_130:\n        /* \"#utility.yul\":371:378   */\n      0x00\n        /* \"#utility.yul\":400:405   */\n      dup2\n        /* \"#utility.yul\":389:405   */\n      swap1\n      pop\n        /* \"#utility.yul\":334:411   */\n      swap2\n      swap1\n      pop\n      jump\t// out\n        /* \"#utility.yul\":417:539   */\n    tag_131:\n        /* \"#utility.yul\":490:514   */\n      tag_196\n        /* \"#utility.yul\":508:513   */\n      dup2\n        /* \"#utility.yul\":490:514   */\n      tag_130\n      jump\t// in\n    tag_196:\n        /* \"#utility.yul\":483:488   */\n      dup2\n        /* \"#utility.yul\":480:515   */\n      eq\n        /* \"#utility.yul\":470:533   */\n      tag_197\n      jumpi\n        /* \"#utility.yul\":529:530   */\n      0x00\n        /* \"#utility.yul\":526:527   */\n      dup1\n        /* \"#utility.yul\":519:531   */\n      revert\n        /* \"#utility.yul\":470:533   */\n    tag_197:\n        /* \"#utility.yul\":417:539   */\n      pop\n      jump\t// out\n        /* \"#utility.yul\":545:684   */\n    tag_132:\n        /* \"#utility.yul\":591:596   */\n      0x00\n        /* \"#utility.yul\":629:635   */\n      dup2\n        /* \"#utility.yul\":616:636   */\n      calldataload\n        /* \"#utility.yul\":607:636   */\n      swap1\n      pop\n        /* \"#utility.yul\":645:678   */\n      tag_199\n        /* \"#utility.yul\":672:677   */\n      dup2\n        /* \"#utility.yul\":645:678   */\n      tag_131\n      jump\t// in\n    tag_199:\n        /* \"#utility.yul\":545:684   */\n      swap3\n      swap2\n      pop\n      pop\n      jump\t// out\n        /* \"#utility.yul\":690:807   */\n    tag_133:\n        /* \"#utility.yul\":799:800   */\n      0x00\n        /* \"#utility.yul\":796:797   */\n      dup1\n        /* \"#utility.yul\":789:801   */\n      revert\n        /* \"#utility.yul\":813:930   */\n    tag_134:\n        /* \"#utility.yul\":922:923   */\n      0x00\n        /* \"#utility.yul\":919:920   */\n      dup1\n        /* \"#utility.yul\":912:924   */\n      revert\n        /* \"#utility.yul\":936:1038   */\n    tag_135:\n        /* \"#utility.yul\":977:983   */\n      0x00\n        /* \"#utility.yul\":1028:1030   */\n      0x1f\n        /* \"#utility.yul\":1024:1031   */\n      not\n        /* \"#utility.yul\":1019:1021   */\n      0x1f\n        /* \"#utility.yul\":1012:1017   */\n      dup4\n        /* \"#utility.yul\":1008:1022   */\n      add\n        /* \"#utility.yul\":1004:1032   */\n      and\n        /* \"#utility.yul\":994:1032   */\n      swap1\n      pop\n        /* \"#utility.yul\":936:1038   */\n      swap2\n      swap1\n      pop\n      jump\t// out\n        /* \"#utility.yul\":1044:1224   */\n    tag_136:\n        /* \"#utility.yul\":1092:1169   */\n      0x4e487b7100000000000000000000000000000000000000000000000000000000\n        /* \"#utility.yul\":1089:1090   */\n      0x00\n        /* \"#utility.yul\":1082:1170   */\n      mstore\n        /* \"#utility.yul\":1189:1193   */\n      0x41\n        /* \"#utility.yul\":1186:1187   */\n      0x04\n        /* \"#utility.yul\":1179:1194   */\n      mstore\n        /* \"#utility.yul\":1213:1217   */\n      0x24\n        /* \"#utility.yul\":1210:1211   */\n      0x00\n        /* \"#utility.yul\":1203:1218   */\n      revert\n        /* \"#utility.yul\":1230:1511   */\n    tag_137:\n        /* \"#utility.yul\":1313:1340   */\n      tag_205\n        /* \"#utility.yul\":1335:1339   */\n      dup3\n        /* \"#utility.yul\":1313:1340   */\n      tag_135\n      jump\t// in\n    tag_205:\n        /* \"#utility.yul\":1305:1311   */\n      dup2\n        /* \"#utility.yul\":1301:1341   */\n      add\n        /* \"#utility.yul\":1443:1449   */\n      dup2\n        /* \"#utility.yul\":1431:1441   */\n      dup2\n        /* \"#utility.yul\":1428:1450   */\n      lt\n        /* \"#utility.yul\":1407:1425   */\n      0xffffffffffffffff\n        /* \"#utility.yul\":1395:1405   */\n      dup3\n        /* \"#utility.yul\":1392:1426   */\n      gt\n        /* \"#utility.yul\":1389:1451   */\n      or\n        /* \"#utility.yul\":1386:1474   */\n      iszero\n      tag_206\n      jumpi\n        /* \"#utility.yul\":1454:1472   */\n      tag_207\n      tag_136\n      jump\t// in\n    tag_207:\n        /* \"#utility.yul\":1386:1474   */\n    tag_206:\n        /* \"#utility.yul\":1494:1504   */\n      dup1\n        /* \"#utility.yul\":1490:1492   */\n      0x40\n        /* \"#utility.yul\":1483:1505   */\n      mstore\n        /* \"#utility.yul\":1273:1511   */\n      pop\n        /* \"#utility.yul\":1230:1511   */\n      pop\n      pop\n      jump\t// out\n        /* \"#utility.yul\":1517:1646   */\n    tag_138:\n        /* \"#utility.yul\":1551:1557   */\n      0x00\n        /* \"#utility.yul\":1578:1598   */\n      tag_209\n      tag_127\n      jump\t// in\n    tag_209:\n        /* \"#utility.yul\":1568:1598   */\n      swap1\n      pop\n        /* \"#utility.yul\":1607:1640   */\n      tag_210\n        /* \"#utility.yul\":1635:1639   */\n      dup3\n        /* \"#utility.yul\":1627:1633   */\n      dup3\n        /* \"#utility.yul\":1607:1640   */\n      tag_137\n      jump\t// in\n    tag_210:\n        /* \"#utility.yul\":1517:1646   */\n      swap2\n      swap1\n      pop\n      jump\t// out\n        /* \"#utility.yul\":1652:1960   */\n    tag_139:\n        /* \"#utility.yul\":1714:1718   */\n      0x00\n        /* \"#utility.yul\":1804:1822   */\n      0xffffffffffffffff\n        /* \"#utility.yul\":1796:1802   */\n      dup3\n        /* \"#utility.yul\":1793:1823   */\n      gt\n        /* \"#utility.yul\":1790:1846   */\n      iszero\n      tag_212\n      jumpi\n        /* \"#utility.yul\":1826:1844   */\n      tag_213\n      tag_136\n      jump\t// in\n    tag_213:\n        /* \"#utility.yul\":1790:1846   */\n    tag_212:\n        /* \"#utility.yul\":1864:1893   */\n      tag_214\n        /* \"#utility.yul\":1886:1892   */\n      dup3\n        /* \"#utility.yul\":1864:1893   */\n      tag_135\n      jump\t// in\n    tag_214:\n        /* \"#utility.yul\":1856:1893   */\n      swap1\n      pop\n        /* \"#utility.yul\":1948:1952   */\n      0x20\n        /* \"#utility.yul\":1942:1946   */\n      dup2\n        /* \"#utility.yul\":1938:1953   */\n      add\n        /* \"#utility.yul\":1930:1953   */\n      swap1\n      pop\n        /* \"#utility.yul\":1652:1960   */\n      swap2\n      swap1\n      pop\n      jump\t// out\n        /* \"#utility.yul\":1966:2112   */\n    tag_140:\n        /* \"#utility.yul\":2063:2069   */\n      dup3\n        /* \"#utility.yul\":2058:2061   */\n      dup2\n        /* \"#utility.yul\":2053:2056   */\n      dup4\n        /* \"#utility.yul\":2040:2070   */\n      calldatacopy\n        /* \"#utility.yul\":2104:2105   */\n      0x00\n        /* \"#utility.yul\":2095:2101   */\n      dup4\n        /* \"#utility.yul\":2090:2093   */\n      dup4\n        /* \"#utility.yul\":2086:2102   */\n      add\n        /* \"#utility.yul\":2079:2106   */\n      mstore\n        /* \"#utility.yul\":1966:2112   */\n      pop\n      pop\n      pop\n      jump\t// out\n        /* \"#utility.yul\":2118:2543   */\n    tag_141:\n        /* \"#utility.yul\":2196:2201   */\n      0x00\n        /* \"#utility.yul\":2221:2287   */\n      tag_217\n        /* \"#utility.yul\":2237:2286   */\n      tag_218\n        /* \"#utility.yul\":2279:2285   */\n      dup5\n        /* \"#utility.yul\":2237:2286   */\n      tag_139\n      jump\t// in\n    tag_218:\n        /* \"#utility.yul\":2221:2287   */\n      tag_138\n      jump\t// in\n    tag_217:\n        /* \"#utility.yul\":2212:2287   */\n      swap1\n      pop\n        /* \"#utility.yul\":2310:2316   */\n      dup3\n        /* \"#utility.yul\":2303:2308   */\n      dup2\n        /* \"#utility.yul\":2296:2317   */\n      mstore\n        /* \"#utility.yul\":2348:2352   */\n      0x20\n        /* \"#utility.yul\":2341:2346   */\n      dup2\n        /* \"#utility.yul\":2337:2353   */\n      add\n        /* \"#utility.yul\":2386:2389   */\n      dup5\n        /* \"#utility.yul\":2377:2383   */\n      dup5\n        /* \"#utility.yul\":2372:2375   */\n      dup5\n        /* \"#utility.yul\":2368:2384   */\n      add\n        /* \"#utility.yul\":2365:2390   */\n      gt\n        /* \"#utility.yul\":2362:2474   */\n      iszero\n      tag_219\n      jumpi\n        /* \"#utility.yul\":2393:2472   */\n      tag_220\n      tag_134\n      jump\t// in\n    tag_220:\n        /* \"#utility.yul\":2362:2474   */\n    tag_219:\n        /* \"#utility.yul\":2483:2537   */\n      tag_221\n        /* \"#utility.yul\":2530:2536   */\n      dup5\n        /* \"#utility.yul\":2525:2528   */\n      dup3\n        /* \"#utility.yul\":2520:2523   */\n      dup6\n        /* \"#utility.yul\":2483:2537   */\n      tag_140\n      jump\t// in\n    tag_221:\n        /* \"#utility.yul\":2202:2543   */\n      pop\n        /* \"#utility.yul\":2118:2543   */\n      swap4\n      swap3\n      pop\n      pop\n      pop\n      jump\t// out\n        /* \"#utility.yul\":2563:2903   */\n    tag_142:\n        /* \"#utility.yul\":2619:2624   */\n      0x00\n        /* \"#utility.yul\":2668:2671   */\n      dup3\n        /* \"#utility.yul\":2661:2665   */\n      0x1f\n        /* \"#utility.yul\":2653:2659   */\n      dup4\n        /* \"#utility.yul\":2649:2666   */\n      add\n        /* \"#utility.yul\":2645:2672   */\n      slt\n        /* \"#utility.yul\":2635:2757   */\n      tag_223\n      jumpi\n        /* \"#utility.yul\":2676:2755   */\n      tag_224\n      tag_133\n      jump\t// in\n    tag_224:\n        /* \"#utility.yul\":2635:2757   */\n    tag_223:\n        /* \"#utility.yul\":2793:2799   */\n      dup2\n        /* \"#utility.yul\":2780:2800   */\n      calldataload\n        /* \"#utility.yul\":2818:2897   */\n      tag_225\n        /* \"#utility.yul\":2893:2896   */\n      dup5\n        /* \"#utility.yul\":2885:2891   */\n      dup3\n        /* \"#utility.yul\":2878:2882   */\n      0x20\n        /* \"#utility.yul\":2870:2876   */\n      dup7\n        /* \"#utility.yul\":2866:2883   */\n      add\n        /* \"#utility.yul\":2818:2897   */\n      tag_141\n      jump\t// in\n    tag_225:\n        /* \"#utility.yul\":2809:2897   */\n      swap2\n      pop\n        /* \"#utility.yul\":2625:2903   */\n      pop\n        /* \"#utility.yul\":2563:2903   */\n      swap3\n      swap2\n      pop\n      pop\n      jump\t// out\n        /* \"#utility.yul\":2909:3708   */\n    tag_9:\n        /* \"#utility.yul\":2996:3002   */\n      0x00\n        /* \"#utility.yul\":3004:3010   */\n      dup1\n        /* \"#utility.yul\":3012:3018   */\n      0x00\n        /* \"#utility.yul\":3061:3063   */\n      0x60\n        /* \"#utility.yul\":3049:3058   */\n      dup5\n        /* \"#utility.yul\":3040:3047   */\n      dup7\n        /* \"#utility.yul\":3036:3059   */\n      sub\n        /* \"#utility.yul\":3032:3064   */\n      slt\n        /* \"#utility.yul\":3029:3148   */\n      iszero\n      tag_227\n      jumpi\n        /* \"#utility.yul\":3067:3146   */\n      tag_228\n      tag_128\n      jump\t// in\n    tag_228:\n        /* \"#utility.yul\":3029:3148   */\n    tag_227:\n        /* \"#utility.yul\":3187:3188   */\n      0x00\n        /* \"#utility.yul\":3212:3265   */\n      tag_229\n        /* \"#utility.yul\":3257:3264   */\n      dup7\n        /* \"#utility.yul\":3248:3254   */\n      dup3\n        /* \"#utility.yul\":3237:3246   */\n      dup8\n        /* \"#utility.yul\":3233:3255   */\n      add\n        /* \"#utility.yul\":3212:3265   */\n      tag_132\n      jump\t// in\n    tag_229:\n        /* \"#utility.yul\":3202:3265   */\n      swap4\n      pop\n        /* \"#utility.yul\":3158:3275   */\n      pop\n        /* \"#utility.yul\":3342:3344   */\n      0x20\n        /* \"#utility.yul\":3331:3340   */\n      dup5\n        /* \"#utility.yul\":3327:3345   */\n      add\n        /* \"#utility.yul\":3314:3346   */\n      calldataload\n        /* \"#utility.yul\":3373:3391   */\n      0xffffffffffffffff\n        /* \"#utility.yul\":3365:3371   */\n      dup2\n        /* \"#utility.yul\":3362:3392   */\n      gt\n        /* \"#utility.yul\":3359:3476   */\n      iszero\n      tag_230\n      jumpi\n        /* \"#utility.yul\":3395:3474   */\n      tag_231\n      tag_129\n      jump\t// in\n    tag_231:\n        /* \"#utility.yul\":3359:3476   */\n    tag_230:\n        /* \"#utility.yul\":3500:3563   */\n      tag_232\n        /* \"#utility.yul\":3555:3562   */\n      dup7\n        /* \"#utility.yul\":3546:3552   */\n      dup3\n        /* \"#utility.yul\":3535:3544   */\n      dup8\n        /* \"#utility.yul\":3531:3553   */\n      add\n        /* \"#utility.yul\":3500:3563   */\n      tag_142\n      jump\t// in\n    tag_232:\n        /* \"#utility.yul\":3490:3563   */\n      swap3\n      pop\n        /* \"#utility.yul\":3285:3573   */\n      pop\n        /* \"#utility.yul\":3612:3614   */\n      0x40\n        /* \"#utility.yul\":3638:3691   */\n      tag_233\n        /* \"#utility.yul\":3683:3690   */\n      dup7\n        /* \"#utility.yul\":3674:3680   */\n      dup3\n        /* \"#utility.yul\":3663:3672   */\n      dup8\n        /* \"#utility.yul\":3659:3681   */\n      add\n        /* \"#utility.yul\":3638:3691   */\n      tag_132\n      jump\t// in\n    tag_233:\n        /* \"#utility.yul\":3628:3691   */\n      swap2\n      pop\n        /* \"#utility.yul\":3583:3701   */\n      pop\n        /* \"#utility.yul\":2909:3708   */\n      swap3\n      pop\n      swap3\n      pop\n      swap3\n      jump\t// out\n        /* \"#utility.yul\":3714:3858   */\n    tag_143:\n        /* \"#utility.yul\":3811:3817   */\n      0x00\n        /* \"#utility.yul\":3845:3850   */\n      dup2\n        /* \"#utility.yul\":3839:3851   */\n      mload\n        /* \"#utility.yul\":3829:3851   */\n      swap1\n      pop\n        /* \"#utility.yul\":3714:3858   */\n      swap2\n      swap1\n      pop\n      jump\t// out\n        /* \"#utility.yul\":3864:4078   */\n    tag_144:\n        /* \"#utility.yul\":3993:4004   */\n      0x00\n        /* \"#utility.yul\":4027:4033   */\n      dup3\n        /* \"#utility.yul\":4022:4025   */\n      dup3\n        /* \"#utility.yul\":4015:4034   */\n      mstore\n        /* \"#utility.yul\":4067:4071   */\n      0x20\n        /* \"#utility.yul\":4062:4065   */\n      dup3\n        /* \"#utility.yul\":4058:4072   */\n      add\n        /* \"#utility.yul\":4043:4072   */\n      swap1\n      pop\n        /* \"#utility.yul\":3864:4078   */\n      swap3\n      swap2\n      pop\n      pop\n      jump\t// out\n        /* \"#utility.yul\":4084:4246   */\n    tag_145:\n        /* \"#utility.yul\":4181:4185   */\n      0x00\n        /* \"#utility.yul\":4204:4207   */\n      dup2\n        /* \"#utility.yul\":4196:4207   */\n      swap1\n      pop\n        /* \"#utility.yul\":4234:4238   */\n      0x20\n        /* \"#utility.yul\":4229:4232   */\n      dup3\n        /* \"#utility.yul\":4225:4239   */\n      add\n        /* \"#utility.yul\":4217:4239   */\n      swap1\n      pop\n        /* \"#utility.yul\":4084:4246   */\n      swap2\n      swap1\n      pop\n      jump\t// out\n        /* \"#utility.yul\":4252:4360   */\n    tag_146:\n        /* \"#utility.yul\":4329:4353   */\n      tag_238\n        /* \"#utility.yul\":4347:4352   */\n      dup2\n        /* \"#utility.yul\":4329:4353   */\n      tag_130\n      jump\t// in\n    tag_238:\n        /* \"#utility.yul\":4324:4327   */\n      dup3\n        /* \"#utility.yul\":4317:4354   */\n      mstore\n        /* \"#utility.yul\":4252:4360   */\n      pop\n      pop\n      jump\t// out\n        /* \"#utility.yul\":4366:4465   */\n    tag_147:\n        /* \"#utility.yul\":4418:4424   */\n      0x00\n        /* \"#utility.yul\":4452:4457   */\n      dup2\n        /* \"#utility.yul\":4446:4458   */\n      mload\n        /* \"#utility.yul\":4436:4458   */\n      swap1\n      pop\n        /* \"#utility.yul\":4366:4465   */\n      swap2\n      swap1\n      pop\n      jump\t// out\n        /* \"#utility.yul\":4471:4630   */\n    tag_148:\n        /* \"#utility.yul\":4545:4556   */\n      0x00\n        /* \"#utility.yul\":4579:4585   */\n      dup3\n        /* \"#utility.yul\":4574:4577   */\n      dup3\n        /* \"#utility.yul\":4567:4586   */\n      mstore\n        /* \"#utility.yul\":4619:4623   */\n      0x20\n        /* \"#utility.yul\":4614:4617   */\n      dup3\n        /* \"#utility.yul\":4610:4624   */\n      add\n        /* \"#utility.yul\":4595:4624   */\n      swap1\n      pop\n        /* \"#utility.yul\":4471:4630   */\n      swap3\n      swap2\n      pop\n      pop\n      jump\t// out\n        /* \"#utility.yul\":4636:4882   */\n    tag_149:\n        /* \"#utility.yul\":4717:4718   */\n      0x00\n        /* \"#utility.yul\":4727:4840   */\n    tag_242:\n        /* \"#utility.yul\":4741:4747   */\n      dup4\n        /* \"#utility.yul\":4738:4739   */\n      dup2\n        /* \"#utility.yul\":4735:4748   */\n      lt\n        /* \"#utility.yul\":4727:4840   */\n      iszero\n      tag_244\n      jumpi\n        /* \"#utility.yul\":4826:4827   */\n      dup1\n        /* \"#utility.yul\":4821:4824   */\n      dup3\n        /* \"#utility.yul\":4817:4828   */\n      add\n        /* \"#utility.yul\":4811:4829   */\n      mload\n        /* \"#utility.yul\":4807:4808   */\n      dup2\n        /* \"#utility.yul\":4802:4805   */\n      dup5\n        /* \"#utility.yul\":4798:4809   */\n      add\n        /* \"#utility.yul\":4791:4830   */\n      mstore\n        /* \"#utility.yul\":4763:4765   */\n      0x20\n        /* \"#utility.yul\":4760:4761   */\n      dup2\n        /* \"#utility.yul\":4756:4766   */\n      add\n        /* \"#utility.yul\":4751:4766   */\n      swap1\n      pop\n        /* \"#utility.yul\":4727:4840   */\n      jump(tag_242)\n    tag_244:\n        /* \"#utility.yul\":4874:4875   */\n      0x00\n        /* \"#utility.yul\":4865:4871   */\n      dup5\n        /* \"#utility.yul\":4860:4863   */\n      dup5\n        /* \"#utility.yul\":4856:4872   */\n      add\n        /* \"#utility.yul\":4849:4876   */\n      mstore\n        /* \"#utility.yul\":4698:4882   */\n      pop\n        /* \"#utility.yul\":4636:4882   */\n      pop\n      pop\n      pop\n      jump\t// out\n        /* \"#utility.yul\":4888:5245   */\n    tag_150:\n        /* \"#utility.yul\":4966:4969   */\n      0x00\n        /* \"#utility.yul\":4994:5033   */\n      tag_246\n        /* \"#utility.yul\":5027:5032   */\n      dup3\n        /* \"#utility.yul\":4994:5033   */\n      tag_147\n      jump\t// in\n    tag_246:\n        /* \"#utility.yul\":5049:5110   */\n      tag_247\n        /* \"#utility.yul\":5103:5109   */\n      dup2\n        /* \"#utility.yul\":5098:5101   */\n      dup6\n        /* \"#utility.yul\":5049:5110   */\n      tag_148\n      jump\t// in\n    tag_247:\n        /* \"#utility.yul\":5042:5110   */\n      swap4\n      pop\n        /* \"#utility.yul\":5119:5184   */\n      tag_248\n        /* \"#utility.yul\":5177:5183   */\n      dup2\n        /* \"#utility.yul\":5172:5175   */\n      dup6\n        /* \"#utility.yul\":5165:5169   */\n      0x20\n        /* \"#utility.yul\":5158:5163   */\n      dup7\n        /* \"#utility.yul\":5154:5170   */\n      add\n        /* \"#utility.yul\":5119:5184   */\n      tag_149\n      jump\t// in\n    tag_248:\n        /* \"#utility.yul\":5209:5238   */\n      tag_249\n        /* \"#utility.yul\":5231:5237   */\n      dup2\n        /* \"#utility.yul\":5209:5238   */\n      tag_135\n      jump\t// in\n    tag_249:\n        /* \"#utility.yul\":5204:5207   */\n      dup5\n        /* \"#utility.yul\":5200:5239   */\n      add\n        /* \"#utility.yul\":5193:5239   */\n      swap2\n      pop\n        /* \"#utility.yul\":4970:5245   */\n      pop\n        /* \"#utility.yul\":4888:5245   */\n      swap3\n      swap2\n      pop\n      pop\n      jump\t// out\n        /* \"#utility.yul\":5251:5328   */\n    tag_151:\n        /* \"#utility.yul\":5288:5295   */\n      0x00\n        /* \"#utility.yul\":5317:5322   */\n      dup2\n        /* \"#utility.yul\":5306:5322   */\n      swap1\n      pop\n        /* \"#utility.yul\":5251:5328   */\n      swap2\n      swap1\n      pop\n      jump\t// out\n        /* \"#utility.yul\":5334:5442   */\n    tag_152:\n        /* \"#utility.yul\":5411:5435   */\n      tag_252\n        /* \"#utility.yul\":5429:5434   */\n      dup2\n        /* \"#utility.yul\":5411:5435   */\n      tag_151\n      jump\t// in\n    tag_252:\n        /* \"#utility.yul\":5406:5409   */\n      dup3\n        /* \"#utility.yul\":5399:5436   */\n      mstore\n        /* \"#utility.yul\":5334:5442   */\n      pop\n      pop\n      jump\t// out\n        /* \"#utility.yul\":5516:7245   */\n    tag_153:\n        /* \"#utility.yul\":5635:5638   */\n      0x00\n        /* \"#utility.yul\":5671:5675   */\n      0xe0\n        /* \"#utility.yul\":5666:5669   */\n      dup4\n        /* \"#utility.yul\":5662:5676   */\n      add\n        /* \"#utility.yul\":5760:5764   */\n      0x00\n        /* \"#utility.yul\":5753:5758   */\n      dup4\n        /* \"#utility.yul\":5749:5765   */\n      add\n        /* \"#utility.yul\":5743:5766   */\n      mload\n        /* \"#utility.yul\":5779:5842   */\n      tag_254\n        /* \"#utility.yul\":5836:5840   */\n      0x00\n        /* \"#utility.yul\":5831:5834   */\n      dup7\n        /* \"#utility.yul\":5827:5841   */\n      add\n        /* \"#utility.yul\":5813:5825   */\n      dup3\n        /* \"#utility.yul\":5779:5842   */\n      tag_146\n      jump\t// in\n    tag_254:\n        /* \"#utility.yul\":5686:5852   */\n      pop\n        /* \"#utility.yul\":5934:5938   */\n      0x20\n        /* \"#utility.yul\":5927:5932   */\n      dup4\n        /* \"#utility.yul\":5923:5939   */\n      add\n        /* \"#utility.yul\":5917:5940   */\n      mload\n        /* \"#utility.yul\":5987:5990   */\n      dup5\n        /* \"#utility.yul\":5981:5985   */\n      dup3\n        /* \"#utility.yul\":5977:5991   */\n      sub\n        /* \"#utility.yul\":5970:5974   */\n      0x20\n        /* \"#utility.yul\":5965:5968   */\n      dup7\n        /* \"#utility.yul\":5961:5975   */\n      add\n        /* \"#utility.yul\":5954:5992   */\n      mstore\n        /* \"#utility.yul\":6013:6086   */\n      tag_255\n        /* \"#utility.yul\":6081:6085   */\n      dup3\n        /* \"#utility.yul\":6067:6079   */\n      dup3\n        /* \"#utility.yul\":6013:6086   */\n      tag_150\n      jump\t// in\n    tag_255:\n        /* \"#utility.yul\":6005:6086   */\n      swap2\n      pop\n        /* \"#utility.yul\":5862:6097   */\n      pop\n        /* \"#utility.yul\":6180:6184   */\n      0x40\n        /* \"#utility.yul\":6173:6178   */\n      dup4\n        /* \"#utility.yul\":6169:6185   */\n      add\n        /* \"#utility.yul\":6163:6186   */\n      mload\n        /* \"#utility.yul\":6199:6262   */\n      tag_256\n        /* \"#utility.yul\":6256:6260   */\n      0x40\n        /* \"#utility.yul\":6251:6254   */\n      dup7\n        /* \"#utility.yul\":6247:6261   */\n      add\n        /* \"#utility.yul\":6233:6245   */\n      dup3\n        /* \"#utility.yul\":6199:6262   */\n      tag_146\n      jump\t// in\n    tag_256:\n        /* \"#utility.yul\":6107:6272   */\n      pop\n        /* \"#utility.yul\":6364:6368   */\n      0x60\n        /* \"#utility.yul\":6357:6362   */\n      dup4\n        /* \"#utility.yul\":6353:6369   */\n      add\n        /* \"#utility.yul\":6347:6370   */\n      mload\n        /* \"#utility.yul\":6417:6420   */\n      dup5\n        /* \"#utility.yul\":6411:6415   */\n      dup3\n        /* \"#utility.yul\":6407:6421   */\n      sub\n        /* \"#utility.yul\":6400:6404   */\n      0x60\n        /* \"#utility.yul\":6395:6398   */\n      dup7\n        /* \"#utility.yul\":6391:6405   */\n      add\n        /* \"#utility.yul\":6384:6422   */\n      mstore\n        /* \"#utility.yul\":6443:6516   */\n      tag_257\n        /* \"#utility.yul\":6511:6515   */\n      dup3\n        /* \"#utility.yul\":6497:6509   */\n      dup3\n        /* \"#utility.yul\":6443:6516   */\n      tag_150\n      jump\t// in\n    tag_257:\n        /* \"#utility.yul\":6435:6516   */\n      swap2\n      pop\n        /* \"#utility.yul\":6282:6527   */\n      pop\n        /* \"#utility.yul\":6624:6628   */\n      0x80\n        /* \"#utility.yul\":6617:6622   */\n      dup4\n        /* \"#utility.yul\":6613:6629   */\n      add\n        /* \"#utility.yul\":6607:6630   */\n      mload\n        /* \"#utility.yul\":6677:6680   */\n      dup5\n        /* \"#utility.yul\":6671:6675   */\n      dup3\n        /* \"#utility.yul\":6667:6681   */\n      sub\n        /* \"#utility.yul\":6660:6664   */\n      0x80\n        /* \"#utility.yul\":6655:6658   */\n      dup7\n        /* \"#utility.yul\":6651:6665   */\n      add\n        /* \"#utility.yul\":6644:6682   */\n      mstore\n        /* \"#utility.yul\":6703:6776   */\n      tag_258\n        /* \"#utility.yul\":6771:6775   */\n      dup3\n        /* \"#utility.yul\":6757:6769   */\n      dup3\n        /* \"#utility.yul\":6703:6776   */\n      tag_150\n      jump\t// in\n    tag_258:\n        /* \"#utility.yul\":6695:6776   */\n      swap2\n      pop\n        /* \"#utility.yul\":6537:6787   */\n      pop\n        /* \"#utility.yul\":6877:6881   */\n      0xa0\n        /* \"#utility.yul\":6870:6875   */\n      dup4\n        /* \"#utility.yul\":6866:6882   */\n      add\n        /* \"#utility.yul\":6860:6883   */\n      mload\n        /* \"#utility.yul\":6930:6933   */\n      dup5\n        /* \"#utility.yul\":6924:6928   */\n      dup3\n        /* \"#utility.yul\":6920:6934   */\n      sub\n        /* \"#utility.yul\":6913:6917   */\n      0xa0\n        /* \"#utility.yul\":6908:6911   */\n      dup7\n        /* \"#utility.yul\":6904:6918   */\n      add\n        /* \"#utility.yul\":6897:6935   */\n      mstore\n        /* \"#utility.yul\":6956:7029   */\n      tag_259\n        /* \"#utility.yul\":7024:7028   */\n      dup3\n        /* \"#utility.yul\":7010:7022   */\n      dup3\n        /* \"#utility.yul\":6956:7029   */\n      tag_150\n      jump\t// in\n    tag_259:\n        /* \"#utility.yul\":6948:7029   */\n      swap2\n      pop\n        /* \"#utility.yul\":6797:7040   */\n      pop\n        /* \"#utility.yul\":7126:7130   */\n      0xc0\n        /* \"#utility.yul\":7119:7124   */\n      dup4\n        /* \"#utility.yul\":7115:7131   */\n      add\n        /* \"#utility.yul\":7109:7132   */\n      mload\n        /* \"#utility.yul\":7145:7208   */\n      tag_260\n        /* \"#utility.yul\":7202:7206   */\n      0xc0\n        /* \"#utility.yul\":7197:7200   */\n      dup7\n        /* \"#utility.yul\":7193:7207   */\n      add\n        /* \"#utility.yul\":7179:7191   */\n      dup3\n        /* \"#utility.yul\":7145:7208   */\n      tag_152\n      jump\t// in\n    tag_260:\n        /* \"#utility.yul\":7050:7218   */\n      pop\n        /* \"#utility.yul\":7235:7239   */\n      dup1\n        /* \"#utility.yul\":7228:7239   */\n      swap2\n      pop\n        /* \"#utility.yul\":5640:7245   */\n      pop\n        /* \"#utility.yul\":5516:7245   */\n      swap3\n      swap2\n      pop\n      pop\n      jump\t// out\n        /* \"#utility.yul\":7251:7527   */\n    tag_154:\n        /* \"#utility.yul\":7380:7390   */\n      0x00\n        /* \"#utility.yul\":7415:7521   */\n      tag_262\n        /* \"#utility.yul\":7517:7520   */\n      dup4\n        /* \"#utility.yul\":7509:7515   */\n      dup4\n        /* \"#utility.yul\":7415:7521   */\n      tag_153\n      jump\t// in\n    tag_262:\n        /* \"#utility.yul\":7401:7521   */\n      swap1\n      pop\n        /* \"#utility.yul\":7251:7527   */\n      swap3\n      swap2\n      pop\n      pop\n      jump\t// out\n        /* \"#utility.yul\":7533:7676   */\n    tag_155:\n        /* \"#utility.yul\":7633:7637   */\n      0x00\n        /* \"#utility.yul\":7665:7669   */\n      0x20\n        /* \"#utility.yul\":7660:7663   */\n      dup3\n        /* \"#utility.yul\":7656:7670   */\n      add\n        /* \"#utility.yul\":7648:7670   */\n      swap1\n      pop\n        /* \"#utility.yul\":7533:7676   */\n      swap2\n      swap1\n      pop\n      jump\t// out\n        /* \"#utility.yul\":7754:8905   */\n    tag_156:\n        /* \"#utility.yul\":7933:7936   */\n      0x00\n        /* \"#utility.yul\":7962:8046   */\n      tag_265\n        /* \"#utility.yul\":8040:8045   */\n      dup3\n        /* \"#utility.yul\":7962:8046   */\n      tag_143\n      jump\t// in\n    tag_265:\n        /* \"#utility.yul\":8062:8178   */\n      tag_266\n        /* \"#utility.yul\":8171:8177   */\n      dup2\n        /* \"#utility.yul\":8166:8169   */\n      dup6\n        /* \"#utility.yul\":8062:8178   */\n      tag_144\n      jump\t// in\n    tag_266:\n        /* \"#utility.yul\":8055:8178   */\n      swap4\n      pop\n        /* \"#utility.yul\":8204:8207   */\n      dup4\n        /* \"#utility.yul\":8249:8253   */\n      0x20\n        /* \"#utility.yul\":8241:8247   */\n      dup3\n        /* \"#utility.yul\":8237:8254   */\n      mul\n        /* \"#utility.yul\":8232:8235   */\n      dup6\n        /* \"#utility.yul\":8228:8255   */\n      add\n        /* \"#utility.yul\":8279:8365   */\n      tag_267\n        /* \"#utility.yul\":8359:8364   */\n      dup6\n        /* \"#utility.yul\":8279:8365   */\n      tag_145\n      jump\t// in\n    tag_267:\n        /* \"#utility.yul\":8388:8395   */\n      dup1\n        /* \"#utility.yul\":8419:8420   */\n      0x00\n        /* \"#utility.yul\":8404:8860   */\n    tag_268:\n        /* \"#utility.yul\":8429:8435   */\n      dup6\n        /* \"#utility.yul\":8426:8427   */\n      dup2\n        /* \"#utility.yul\":8423:8436   */\n      lt\n        /* \"#utility.yul\":8404:8860   */\n      iszero\n      tag_270\n      jumpi\n        /* \"#utility.yul\":8500:8509   */\n      dup5\n        /* \"#utility.yul\":8494:8498   */\n      dup5\n        /* \"#utility.yul\":8490:8510   */\n      sub\n        /* \"#utility.yul\":8485:8488   */\n      dup10\n        /* \"#utility.yul\":8478:8511   */\n      mstore\n        /* \"#utility.yul\":8551:8557   */\n      dup2\n        /* \"#utility.yul\":8545:8558   */\n      mload\n        /* \"#utility.yul\":8579:8703   */\n      tag_271\n        /* \"#utility.yul\":8698:8702   */\n      dup6\n        /* \"#utility.yul\":8683:8696   */\n      dup3\n        /* \"#utility.yul\":8579:8703   */\n      tag_154\n      jump\t// in\n    tag_271:\n        /* \"#utility.yul\":8571:8703   */\n      swap5\n      pop\n        /* \"#utility.yul\":8726:8816   */\n      tag_272\n        /* \"#utility.yul\":8809:8815   */\n      dup4\n        /* \"#utility.yul\":8726:8816   */\n      tag_155\n      jump\t// in\n    tag_272:\n        /* \"#utility.yul\":8716:8816   */\n      swap3\n      pop\n        /* \"#utility.yul\":8845:8849   */\n      0x20\n        /* \"#utility.yul\":8840:8843   */\n      dup11\n        /* \"#utility.yul\":8836:8850   */\n      add\n        /* \"#utility.yul\":8829:8850   */\n      swap10\n      pop\n        /* \"#utility.yul\":8464:8860   */\n      pop\n        /* \"#utility.yul\":8451:8452   */\n      0x01\n        /* \"#utility.yul\":8448:8449   */\n      dup2\n        /* \"#utility.yul\":8444:8453   */\n      add\n        /* \"#utility.yul\":8439:8453   */\n      swap1\n      pop\n        /* \"#utility.yul\":8404:8860   */\n      jump(tag_268)\n    tag_270:\n        /* \"#utility.yul\":8408:8422   */\n      pop\n        /* \"#utility.yul\":8876:8880   */\n      dup3\n        /* \"#utility.yul\":8869:8880   */\n      swap8\n      pop\n        /* \"#utility.yul\":8896:8899   */\n      dup8\n        /* \"#utility.yul\":8889:8899   */\n      swap6\n      pop\n        /* \"#utility.yul\":7938:8905   */\n      pop\n      pop\n      pop\n      pop\n      pop\n        /* \"#utility.yul\":7754:8905   */\n      swap3\n      swap2\n      pop\n      pop\n      jump\t// out\n        /* \"#utility.yul\":8911:9404   */\n    tag_14:\n        /* \"#utility.yul\":9114:9118   */\n      0x00\n        /* \"#utility.yul\":9152:9154   */\n      0x20\n        /* \"#utility.yul\":9141:9150   */\n      dup3\n        /* \"#utility.yul\":9137:9155   */\n      add\n        /* \"#utility.yul\":9129:9155   */\n      swap1\n      pop\n        /* \"#utility.yul\":9201:9210   */\n      dup2\n        /* \"#utility.yul\":9195:9199   */\n      dup2\n        /* \"#utility.yul\":9191:9211   */\n      sub\n        /* \"#utility.yul\":9187:9188   */\n      0x00\n        /* \"#utility.yul\":9176:9185   */\n      dup4\n        /* \"#utility.yul\":9172:9189   */\n      add\n        /* \"#utility.yul\":9165:9212   */\n      mstore\n        /* \"#utility.yul\":9229:9397   */\n      tag_274\n        /* \"#utility.yul\":9392:9396   */\n      dup2\n        /* \"#utility.yul\":9383:9389   */\n      dup5\n        /* \"#utility.yul\":9229:9397   */\n      tag_156\n      jump\t// in\n    tag_274:\n        /* \"#utility.yul\":9221:9397   */\n      swap1\n      pop\n        /* \"#utility.yul\":8911:9404   */\n      swap3\n      swap2\n      pop\n      pop\n      jump\t// out\n        /* \"#utility.yul\":9410:9532   */\n    tag_157:\n        /* \"#utility.yul\":9483:9507   */\n      tag_276\n        /* \"#utility.yul\":9501:9506   */\n      dup2\n        /* \"#utility.yul\":9483:9507   */\n      tag_151\n      jump\t// in\n    tag_276:\n        /* \"#utility.yul\":9476:9481   */\n      dup2\n        /* \"#utility.yul\":9473:9508   */\n      eq\n        /* \"#utility.yul\":9463:9526   */\n      tag_277\n      jumpi\n        /* \"#utility.yul\":9522:9523   */\n      0x00\n        /* \"#utility.yul\":9519:9520   */\n      dup1\n        /* \"#utility.yul\":9512:9524   */\n      revert\n        /* \"#utility.yul\":9463:9526   */\n    tag_277:\n        /* \"#utility.yul\":9410:9532   */\n      pop\n      jump\t// out\n        /* \"#utility.yul\":9538:9677   */\n    tag_158:\n        /* \"#utility.yul\":9584:9589   */\n      0x00\n        /* \"#utility.yul\":9622:9628   */\n      dup2\n        /* \"#utility.yul\":9609:9629   */\n      calldataload\n        /* \"#utility.yul\":9600:9629   */\n      swap1\n      pop\n        /* \"#utility.yul\":9638:9671   */\n      tag_279\n        /* \"#utility.yul\":9665:9670   */\n      dup2\n        /* \"#utility.yul\":9638:9671   */\n      tag_157\n      jump\t// in\n    tag_279:\n        /* \"#utility.yul\":9538:9677   */\n      swap3\n      swap2\n      pop\n      pop\n      jump\t// out\n        /* \"#utility.yul\":9683:10012   */\n    tag_17:\n        /* \"#utility.yul\":9742:9748   */\n      0x00\n        /* \"#utility.yul\":9791:9793   */\n      0x20\n        /* \"#utility.yul\":9779:9788   */\n      dup3\n        /* \"#utility.yul\":9770:9777   */\n      dup5\n        /* \"#utility.yul\":9766:9789   */\n      sub\n        /* \"#utility.yul\":9762:9794   */\n      slt\n        /* \"#utility.yul\":9759:9878   */\n      iszero\n      tag_281\n      jumpi\n        /* \"#utility.yul\":9797:9876   */\n      tag_282\n      tag_128\n      jump\t// in\n    tag_282:\n        /* \"#utility.yul\":9759:9878   */\n    tag_281:\n        /* \"#utility.yul\":9917:9918   */\n      0x00\n        /* \"#utility.yul\":9942:9995   */\n      tag_283\n        /* \"#utility.yul\":9987:9994   */\n      dup5\n        /* \"#utility.yul\":9978:9984   */\n      dup3\n        /* \"#utility.yul\":9967:9976   */\n      dup6\n        /* \"#utility.yul\":9963:9985   */\n      add\n        /* \"#utility.yul\":9942:9995   */\n      tag_158\n      jump\t// in\n    tag_283:\n        /* \"#utility.yul\":9932:9995   */\n      swap2\n      pop\n        /* \"#utility.yul\":9888:10005   */\n      pop\n        /* \"#utility.yul\":9683:10012   */\n      swap3\n      swap2\n      pop\n      pop\n      jump\t// out\n        /* \"#utility.yul\":10086:11825   */\n    tag_159:\n        /* \"#utility.yul\":10215:10218   */\n      0x00\n        /* \"#utility.yul\":10251:10255   */\n      0xe0\n        /* \"#utility.yul\":10246:10249   */\n      dup4\n        /* \"#utility.yul\":10242:10256   */\n      add\n        /* \"#utility.yul\":10340:10344   */\n      0x00\n        /* \"#utility.yul\":10333:10338   */\n      dup4\n        /* \"#utility.yul\":10329:10345   */\n      add\n        /* \"#utility.yul\":10323:10346   */\n      mload\n        /* \"#utility.yul\":10359:10422   */\n      tag_285\n        /* \"#utility.yul\":10416:10420   */\n      0x00\n        /* \"#utility.yul\":10411:10414   */\n      dup7\n        /* \"#utility.yul\":10407:10421   */\n      add\n        /* \"#utility.yul\":10393:10405   */\n      dup3\n        /* \"#utility.yul\":10359:10422   */\n      tag_146\n      jump\t// in\n    tag_285:\n        /* \"#utility.yul\":10266:10432   */\n      pop\n        /* \"#utility.yul\":10514:10518   */\n      0x20\n        /* \"#utility.yul\":10507:10512   */\n      dup4\n        /* \"#utility.yul\":10503:10519   */\n      add\n        /* \"#utility.yul\":10497:10520   */\n      mload\n        /* \"#utility.yul\":10567:10570   */\n      dup5\n        /* \"#utility.yul\":10561:10565   */\n      dup3\n        /* \"#utility.yul\":10557:10571   */\n      sub\n        /* \"#utility.yul\":10550:10554   */\n      0x20\n        /* \"#utility.yul\":10545:10548   */\n      dup7\n        /* \"#utility.yul\":10541:10555   */\n      add\n        /* \"#utility.yul\":10534:10572   */\n      mstore\n        /* \"#utility.yul\":10593:10666   */\n      tag_286\n        /* \"#utility.yul\":10661:10665   */\n      dup3\n        /* \"#utility.yul\":10647:10659   */\n      dup3\n        /* \"#utility.yul\":10593:10666   */\n      tag_150\n      jump\t// in\n    tag_286:\n        /* \"#utility.yul\":10585:10666   */\n      swap2\n      pop\n        /* \"#utility.yul\":10442:10677   */\n      pop\n        /* \"#utility.yul\":10760:10764   */\n      0x40\n        /* \"#utility.yul\":10753:10758   */\n      dup4\n        /* \"#utility.yul\":10749:10765   */\n      add\n        /* \"#utility.yul\":10743:10766   */\n      mload\n        /* \"#utility.yul\":10779:10842   */\n      tag_287\n        /* \"#utility.yul\":10836:10840   */\n      0x40\n        /* \"#utility.yul\":10831:10834   */\n      dup7\n        /* \"#utility.yul\":10827:10841   */\n      add\n        /* \"#utility.yul\":10813:10825   */\n      dup3\n        /* \"#utility.yul\":10779:10842   */\n      tag_146\n      jump\t// in\n    tag_287:\n        /* \"#utility.yul\":10687:10852   */\n      pop\n        /* \"#utility.yul\":10944:10948   */\n      0x60\n        /* \"#utility.yul\":10937:10942   */\n      dup4\n        /* \"#utility.yul\":10933:10949   */\n      add\n        /* \"#utility.yul\":10927:10950   */\n      mload\n        /* \"#utility.yul\":10997:11000   */\n      dup5\n        /* \"#utility.yul\":10991:10995   */\n      dup3\n        /* \"#utility.yul\":10987:11001   */\n      sub\n        /* \"#utility.yul\":10980:10984   */\n      0x60\n        /* \"#utility.yul\":10975:10978   */\n      dup7\n        /* \"#utility.yul\":10971:10985   */\n      add\n        /* \"#utility.yul\":10964:11002   */\n      mstore\n        /* \"#utility.yul\":11023:11096   */\n      tag_288\n        /* \"#utility.yul\":11091:11095   */\n      dup3\n        /* \"#utility.yul\":11077:11089   */\n      dup3\n        /* \"#utility.yul\":11023:11096   */\n      tag_150\n      jump\t// in\n    tag_288:\n        /* \"#utility.yul\":11015:11096   */\n      swap2\n      pop\n        /* \"#utility.yul\":10862:11107   */\n      pop\n        /* \"#utility.yul\":11204:11208   */\n      0x80\n        /* \"#utility.yul\":11197:11202   */\n      dup4\n        /* \"#utility.yul\":11193:11209   */\n      add\n        /* \"#utility.yul\":11187:11210   */\n      mload\n        /* \"#utility.yul\":11257:11260   */\n      dup5\n        /* \"#utility.yul\":11251:11255   */\n      dup3\n        /* \"#utility.yul\":11247:11261   */\n      sub\n        /* \"#utility.yul\":11240:11244   */\n      0x80\n        /* \"#utility.yul\":11235:11238   */\n      dup7\n        /* \"#utility.yul\":11231:11245   */\n      add\n        /* \"#utility.yul\":11224:11262   */\n      mstore\n        /* \"#utility.yul\":11283:11356   */\n      tag_289\n        /* \"#utility.yul\":11351:11355   */\n      dup3\n        /* \"#utility.yul\":11337:11349   */\n      dup3\n        /* \"#utility.yul\":11283:11356   */\n      tag_150\n      jump\t// in\n    tag_289:\n        /* \"#utility.yul\":11275:11356   */\n      swap2\n      pop\n        /* \"#utility.yul\":11117:11367   */\n      pop\n        /* \"#utility.yul\":11457:11461   */\n      0xa0\n        /* \"#utility.yul\":11450:11455   */\n      dup4\n        /* \"#utility.yul\":11446:11462   */\n      add\n        /* \"#utility.yul\":11440:11463   */\n      mload\n        /* \"#utility.yul\":11510:11513   */\n      dup5\n        /* \"#utility.yul\":11504:11508   */\n      dup3\n        /* \"#utility.yul\":11500:11514   */\n      sub\n        /* \"#utility.yul\":11493:11497   */\n      0xa0\n        /* \"#utility.yul\":11488:11491   */\n      dup7\n        /* \"#utility.yul\":11484:11498   */\n      add\n        /* \"#utility.yul\":11477:11515   */\n      mstore\n        /* \"#utility.yul\":11536:11609   */\n      tag_290\n        /* \"#utility.yul\":11604:11608   */\n      dup3\n        /* \"#utility.yul\":11590:11602   */\n      dup3\n        /* \"#utility.yul\":11536:11609   */\n      tag_150\n      jump\t// in\n    tag_290:\n        /* \"#utility.yul\":11528:11609   */\n      swap2\n      pop\n        /* \"#utility.yul\":11377:11620   */\n      pop\n        /* \"#utility.yul\":11706:11710   */\n      0xc0\n        /* \"#utility.yul\":11699:11704   */\n      dup4\n        /* \"#utility.yul\":11695:11711   */\n      add\n        /* \"#utility.yul\":11689:11712   */\n      mload\n        /* \"#utility.yul\":11725:11788   */\n      tag_291\n        /* \"#utility.yul\":11782:11786   */\n      0xc0\n        /* \"#utility.yul\":11777:11780   */\n      dup7\n        /* \"#utility.yul\":11773:11787   */\n      add\n        /* \"#utility.yul\":11759:11771   */\n      dup3\n        /* \"#utility.yul\":11725:11788   */\n      tag_152\n      jump\t// in\n    tag_291:\n        /* \"#utility.yul\":11630:11798   */\n      pop\n        /* \"#utility.yul\":11815:11819   */\n      dup1\n        /* \"#utility.yul\":11808:11819   */\n      swap2\n      pop\n        /* \"#utility.yul\":10220:11825   */\n      pop\n        /* \"#utility.yul\":10086:11825   */\n      swap3\n      swap2\n      pop\n      pop\n      jump\t// out\n        /* \"#utility.yul\":11831:12224   */\n    tag_20:\n        /* \"#utility.yul\":11984:11988   */\n      0x00\n        /* \"#utility.yul\":12022:12024   */\n      0x20\n        /* \"#utility.yul\":12011:12020   */\n      dup3\n        /* \"#utility.yul\":12007:12025   */\n      add\n        /* \"#utility.yul\":11999:12025   */\n      swap1\n      pop\n        /* \"#utility.yul\":12071:12080   */\n      dup2\n        /* \"#utility.yul\":12065:12069   */\n      dup2\n        /* \"#utility.yul\":12061:12081   */\n      sub\n        /* \"#utility.yul\":12057:12058   */\n      0x00\n        /* \"#utility.yul\":12046:12055   */\n      dup4\n        /* \"#utility.yul\":12042:12059   */\n      add\n        /* \"#utility.yul\":12035:12082   */\n      mstore\n        /* \"#utility.yul\":12099:12217   */\n      tag_293\n        /* \"#utility.yul\":12212:12216   */\n      dup2\n        /* \"#utility.yul\":12203:12209   */\n      dup5\n        /* \"#utility.yul\":12099:12217   */\n      tag_159\n      jump\t// in\n    tag_293:\n        /* \"#utility.yul\":12091:12217   */\n      swap1\n      pop\n        /* \"#utility.yul\":11831:12224   */\n      swap3\n      swap2\n      pop\n      pop\n      jump\t// out\n        /* \"#utility.yul\":12230:12559   */\n    tag_23:\n        /* \"#utility.yul\":12289:12295   */\n      0x00\n        /* \"#utility.yul\":12338:12340   */\n      0x20\n        /* \"#utility.yul\":12326:12335   */\n      dup3\n        /* \"#utility.yul\":12317:12324   */\n      dup5\n        /* \"#utility.yul\":12313:12336   */\n      sub\n        /* \"#utility.yul\":12309:12341   */\n      slt\n        /* \"#utility.yul\":12306:12425   */\n      iszero\n      tag_295\n      jumpi\n        /* \"#utility.yul\":12344:12423   */\n      tag_296\n      tag_128\n      jump\t// in\n    tag_296:\n        /* \"#utility.yul\":12306:12425   */\n    tag_295:\n        /* \"#utility.yul\":12464:12465   */\n      0x00\n        /* \"#utility.yul\":12489:12542   */\n      tag_297\n        /* \"#utility.yul\":12534:12541   */\n      dup5\n        /* \"#utility.yul\":12525:12531   */\n      dup3\n        /* \"#utility.yul\":12514:12523   */\n      dup6\n        /* \"#utility.yul\":12510:12532   */\n      add\n        /* \"#utility.yul\":12489:12542   */\n      tag_132\n      jump\t// in\n    tag_297:\n        /* \"#utility.yul\":12479:12542   */\n      swap2\n      pop\n        /* \"#utility.yul\":12435:12552   */\n      pop\n        /* \"#utility.yul\":12230:12559   */\n      swap3\n      swap2\n      pop\n      pop\n      jump\t// out\n        /* \"#utility.yul\":12565:12734   */\n    tag_160:\n        /* \"#utility.yul\":12649:12660   */\n      0x00\n        /* \"#utility.yul\":12683:12689   */\n      dup3\n        /* \"#utility.yul\":12678:12681   */\n      dup3\n        /* \"#utility.yul\":12671:12690   */\n      mstore\n        /* \"#utility.yul\":12723:12727   */\n      0x20\n        /* \"#utility.yul\":12718:12721   */\n      dup3\n        /* \"#utility.yul\":12714:12728   */\n      add\n        /* \"#utility.yul\":12699:12728   */\n      swap1\n      pop\n        /* \"#utility.yul\":12565:12734   */\n      swap3\n      swap2\n      pop\n      pop\n      jump\t// out\n        /* \"#utility.yul\":12740:12912   */\n    tag_161:\n        /* \"#utility.yul\":12880:12904   */\n      0x596f7520617265206e6f7420617574686f72697a656400000000000000000000\n        /* \"#utility.yul\":12876:12877   */\n      0x00\n        /* \"#utility.yul\":12868:12874   */\n      dup3\n        /* \"#utility.yul\":12864:12878   */\n      add\n        /* \"#utility.yul\":12857:12905   */\n      mstore\n        /* \"#utility.yul\":12740:12912   */\n      pop\n      jump\t// out\n        /* \"#utility.yul\":12918:13284   */\n    tag_162:\n        /* \"#utility.yul\":13060:13063   */\n      0x00\n        /* \"#utility.yul\":13081:13148   */\n      tag_301\n        /* \"#utility.yul\":13145:13147   */\n      0x16\n        /* \"#utility.yul\":13140:13143   */\n      dup4\n        /* \"#utility.yul\":13081:13148   */\n      tag_160\n      jump\t// in\n    tag_301:\n        /* \"#utility.yul\":13074:13148   */\n      swap2\n      pop\n        /* \"#utility.yul\":13157:13250   */\n      tag_302\n        /* \"#utility.yul\":13246:13249   */\n      dup3\n        /* \"#utility.yul\":13157:13250   */\n      tag_161\n      jump\t// in\n    tag_302:\n        /* \"#utility.yul\":13275:13277   */\n      0x20\n        /* \"#utility.yul\":13270:13273   */\n      dup3\n        /* \"#utility.yul\":13266:13278   */\n      add\n        /* \"#utility.yul\":13259:13278   */\n      swap1\n      pop\n        /* \"#utility.yul\":12918:13284   */\n      swap2\n      swap1\n      pop\n      jump\t// out\n        /* \"#utility.yul\":13290:13709   */\n    tag_29:\n        /* \"#utility.yul\":13456:13460   */\n      0x00\n        /* \"#utility.yul\":13494:13496   */\n      0x20\n        /* \"#utility.yul\":13483:13492   */\n      dup3\n        /* \"#utility.yul\":13479:13497   */\n      add\n        /* \"#utility.yul\":13471:13497   */\n      swap1\n      pop\n        /* \"#utility.yul\":13543:13552   */\n      dup2\n        /* \"#utility.yul\":13537:13541   */\n      dup2\n        /* \"#utility.yul\":13533:13553   */\n      sub\n        /* \"#utility.yul\":13529:13530   */\n      0x00\n        /* \"#utility.yul\":13518:13527   */\n      dup4\n        /* \"#utility.yul\":13514:13531   */\n      add\n        /* \"#utility.yul\":13507:13554   */\n      mstore\n        /* \"#utility.yul\":13571:13702   */\n      tag_304\n        /* \"#utility.yul\":13697:13701   */\n      dup2\n        /* \"#utility.yul\":13571:13702   */\n      tag_162\n      jump\t// in\n    tag_304:\n        /* \"#utility.yul\":13563:13702   */\n      swap1\n      pop\n        /* \"#utility.yul\":13290:13709   */\n      swap2\n      swap1\n      pop\n      jump\t// out\n        /* \"#utility.yul\":13715:13889   */\n    tag_163:\n        /* \"#utility.yul\":13855:13881   */\n      0x526f6c6c206e756d62657220616c726561647920757365640000000000000000\n        /* \"#utility.yul\":13851:13852   */\n      0x00\n        /* \"#utility.yul\":13843:13849   */\n      dup3\n        /* \"#utility.yul\":13839:13853   */\n      add\n        /* \"#utility.yul\":13832:13882   */\n      mstore\n        /* \"#utility.yul\":13715:13889   */\n      pop\n      jump\t// out\n        /* \"#utility.yul\":13895:14261   */\n    tag_164:\n        /* \"#utility.yul\":14037:14040   */\n      0x00\n        /* \"#utility.yul\":14058:14125   */\n      tag_307\n        /* \"#utility.yul\":14122:14124   */\n      0x18\n        /* \"#utility.yul\":14117:14120   */\n      dup4\n        /* \"#utility.yul\":14058:14125   */\n      tag_160\n      jump\t// in\n    tag_307:\n        /* \"#utility.yul\":14051:14125   */\n      swap2\n      pop\n        /* \"#utility.yul\":14134:14227   */\n      tag_308\n        /* \"#utility.yul\":14223:14226   */\n      dup3\n        /* \"#utility.yul\":14134:14227   */\n      tag_163\n      jump\t// in\n    tag_308:\n        /* \"#utility.yul\":14252:14254   */\n      0x20\n        /* \"#utility.yul\":14247:14250   */\n      dup3\n        /* \"#utility.yul\":14243:14255   */\n      add\n        /* \"#utility.yul\":14236:14255   */\n      swap1\n      pop\n        /* \"#utility.yul\":13895:14261   */\n      swap2\n      swap1\n      pop\n      jump\t// out\n        /* \"#utility.yul\":14267:14686   */\n    tag_32:\n        /* \"#utility.yul\":14433:14437   */\n      0x00\n        /* \"#utility.yul\":14471:14473   */\n      0x20\n        /* \"#utility.yul\":14460:14469   */\n      dup3\n        /* \"#utility.yul\":14456:14474   */\n      add\n        /* \"#utility.yul\":14448:14474   */\n      swap1\n      pop\n        /* \"#utility.yul\":14520:14529   */\n      dup2\n        /* \"#utility.yul\":14514:14518   */\n      dup2\n        /* \"#utility.yul\":14510:14530   */\n      sub\n        /* \"#utility.yul\":14506:14507   */\n      0x00\n        /* \"#utility.yul\":14495:14504   */\n      dup4\n        /* \"#utility.yul\":14491:14508   */\n      add\n        /* \"#utility.yul\":14484:14531   */\n      mstore\n        /* \"#utility.yul\":14548:14679   */\n      tag_310\n        /* \"#utility.yul\":14674:14678   */\n      dup2\n        /* \"#utility.yul\":14548:14679   */\n      tag_164\n      jump\t// in\n    tag_310:\n        /* \"#utility.yul\":14540:14679   */\n      swap1\n      pop\n        /* \"#utility.yul\":14267:14686   */\n      swap2\n      swap1\n      pop\n      jump\t// out\n        /* \"#utility.yul\":14692:14771   */\n    tag_165:\n        /* \"#utility.yul\":14731:14738   */\n      0x00\n        /* \"#utility.yul\":14760:14765   */\n      dup2\n        /* \"#utility.yul\":14749:14765   */\n      swap1\n      pop\n        /* \"#utility.yul\":14692:14771   */\n      swap2\n      swap1\n      pop\n      jump\t// out\n        /* \"#utility.yul\":14777:14934   */\n    tag_166:\n        /* \"#utility.yul\":14882:14927   */\n      tag_313\n        /* \"#utility.yul\":14902:14926   */\n      tag_314\n        /* \"#utility.yul\":14920:14925   */\n      dup3\n        /* \"#utility.yul\":14902:14926   */\n      tag_130\n      jump\t// in\n    tag_314:\n        /* \"#utility.yul\":14882:14927   */\n      tag_165\n      jump\t// in\n    tag_313:\n        /* \"#utility.yul\":14877:14880   */\n      dup3\n        /* \"#utility.yul\":14870:14928   */\n      mstore\n        /* \"#utility.yul\":14777:14934   */\n      pop\n      pop\n      jump\t// out\n        /* \"#utility.yul\":14940:15088   */\n    tag_167:\n        /* \"#utility.yul\":15042:15053   */\n      0x00\n        /* \"#utility.yul\":15079:15082   */\n      dup2\n        /* \"#utility.yul\":15064:15082   */\n      swap1\n      pop\n        /* \"#utility.yul\":14940:15088   */\n      swap3\n      swap2\n      pop\n      pop\n      jump\t// out\n        /* \"#utility.yul\":15094:15484   */\n    tag_168:\n        /* \"#utility.yul\":15200:15203   */\n      0x00\n        /* \"#utility.yul\":15228:15267   */\n      tag_317\n        /* \"#utility.yul\":15261:15266   */\n      dup3\n        /* \"#utility.yul\":15228:15267   */\n      tag_147\n      jump\t// in\n    tag_317:\n        /* \"#utility.yul\":15283:15372   */\n      tag_318\n        /* \"#utility.yul\":15365:15371   */\n      dup2\n        /* \"#utility.yul\":15360:15363   */\n      dup6\n        /* \"#utility.yul\":15283:15372   */\n      tag_167\n      jump\t// in\n    tag_318:\n        /* \"#utility.yul\":15276:15372   */\n      swap4\n      pop\n        /* \"#utility.yul\":15381:15446   */\n      tag_319\n        /* \"#utility.yul\":15439:15445   */\n      dup2\n        /* \"#utility.yul\":15434:15437   */\n      dup6\n        /* \"#utility.yul\":15427:15431   */\n      0x20\n        /* \"#utility.yul\":15420:15425   */\n      dup7\n        /* \"#utility.yul\":15416:15432   */\n      add\n        /* \"#utility.yul\":15381:15446   */\n      tag_149\n      jump\t// in\n    tag_319:\n        /* \"#utility.yul\":15471:15477   */\n      dup1\n        /* \"#utility.yul\":15466:15469   */\n      dup5\n        /* \"#utility.yul\":15462:15478   */\n      add\n        /* \"#utility.yul\":15455:15478   */\n      swap2\n      pop\n        /* \"#utility.yul\":15204:15484   */\n      pop\n        /* \"#utility.yul\":15094:15484   */\n      swap3\n      swap2\n      pop\n      pop\n      jump\t// out\n        /* \"#utility.yul\":15490:15906   */\n    tag_35:\n        /* \"#utility.yul\":15650:15653   */\n      0x00\n        /* \"#utility.yul\":15665:15740   */\n      tag_321\n        /* \"#utility.yul\":15736:15739   */\n      dup3\n        /* \"#utility.yul\":15727:15733   */\n      dup6\n        /* \"#utility.yul\":15665:15740   */\n      tag_166\n      jump\t// in\n    tag_321:\n        /* \"#utility.yul\":15765:15767   */\n      0x20\n        /* \"#utility.yul\":15760:15763   */\n      dup3\n        /* \"#utility.yul\":15756:15768   */\n      add\n        /* \"#utility.yul\":15749:15768   */\n      swap2\n      pop\n        /* \"#utility.yul\":15785:15880   */\n      tag_322\n        /* \"#utility.yul\":15876:15879   */\n      dup3\n        /* \"#utility.yul\":15867:15873   */\n      dup5\n        /* \"#utility.yul\":15785:15880   */\n      tag_168\n      jump\t// in\n    tag_322:\n        /* \"#utility.yul\":15778:15880   */\n      swap2\n      pop\n        /* \"#utility.yul\":15897:15900   */\n      dup2\n        /* \"#utility.yul\":15890:15900   */\n      swap1\n      pop\n        /* \"#utility.yul\":15490:15906   */\n      swap4\n      swap3\n      pop\n      pop\n      pop\n      jump\t// out\n        /* \"#utility.yul\":15912:16092   */\n    tag_169:\n        /* \"#utility.yul\":15960:16037   */\n      0x4e487b7100000000000000000000000000000000000000000000000000000000\n        /* \"#utility.yul\":15957:15958   */\n      0x00\n        /* \"#utility.yul\":15950:16038   */\n      mstore\n        /* \"#utility.yul\":16057:16061   */\n      0x22\n        /* \"#utility.yul\":16054:16055   */\n      0x04\n        /* \"#utility.yul\":16047:16062   */\n      mstore\n        /* \"#utility.yul\":16081:16085   */\n      0x24\n        /* \"#utility.yul\":16078:16079   */\n      0x00\n        /* \"#utility.yul\":16071:16086   */\n      revert\n        /* \"#utility.yul\":16098:16418   */\n    tag_49:\n        /* \"#utility.yul\":16142:16148   */\n      0x00\n        /* \"#utility.yul\":16179:16180   */\n      0x02\n        /* \"#utility.yul\":16173:16177   */\n      dup3\n        /* \"#utility.yul\":16169:16181   */\n      div\n        /* \"#utility.yul\":16159:16181   */\n      swap1\n      pop\n        /* \"#utility.yul\":16226:16227   */\n      0x01\n        /* \"#utility.yul\":16220:16224   */\n      dup3\n        /* \"#utility.yul\":16216:16228   */\n      and\n        /* \"#utility.yul\":16247:16265   */\n      dup1\n        /* \"#utility.yul\":16237:16318   */\n      tag_325\n      jumpi\n        /* \"#utility.yul\":16303:16307   */\n      0x7f\n        /* \"#utility.yul\":16295:16301   */\n      dup3\n        /* \"#utility.yul\":16291:16308   */\n      and\n        /* \"#utility.yul\":16281:16308   */\n      swap2\n      pop\n        /* \"#utility.yul\":16237:16318   */\n    tag_325:\n        /* \"#utility.yul\":16365:16367   */\n      0x20\n        /* \"#utility.yul\":16357:16363   */\n      dup3\n        /* \"#utility.yul\":16354:16368   */\n      lt\n        /* \"#utility.yul\":16334:16352   */\n      dup2\n        /* \"#utility.yul\":16331:16369   */\n      sub\n        /* \"#utility.yul\":16328:16412   */\n      tag_326\n      jumpi\n        /* \"#utility.yul\":16384:16402   */\n      tag_327\n      tag_169\n      jump\t// in\n    tag_327:\n        /* \"#utility.yul\":16328:16412   */\n    tag_326:\n        /* \"#utility.yul\":16149:16418   */\n      pop\n        /* \"#utility.yul\":16098:16418   */\n      swap2\n      swap1\n      pop\n      jump\t// out\n        /* \"#utility.yul\":16424:16565   */\n    tag_170:\n        /* \"#utility.yul\":16473:16477   */\n      0x00\n        /* \"#utility.yul\":16496:16499   */\n      dup2\n        /* \"#utility.yul\":16488:16499   */\n      swap1\n      pop\n        /* \"#utility.yul\":16519:16522   */\n      dup2\n        /* \"#utility.yul\":16516:16517   */\n      0x00\n        /* \"#utility.yul\":16509:16523   */\n      mstore\n        /* \"#utility.yul\":16553:16557   */\n      0x20\n        /* \"#utility.yul\":16550:16551   */\n      0x00\n        /* \"#utility.yul\":16540:16558   */\n      keccak256\n        /* \"#utility.yul\":16532:16558   */\n      swap1\n      pop\n        /* \"#utility.yul\":16424:16565   */\n      swap2\n      swap1\n      pop\n      jump\t// out\n        /* \"#utility.yul\":16571:16664   */\n    tag_171:\n        /* \"#utility.yul\":16608:16614   */\n      0x00\n        /* \"#utility.yul\":16655:16657   */\n      0x20\n        /* \"#utility.yul\":16650:16652   */\n      0x1f\n        /* \"#utility.yul\":16643:16648   */\n      dup4\n        /* \"#utility.yul\":16639:16653   */\n      add\n        /* \"#utility.yul\":16635:16658   */\n      div\n        /* \"#utility.yul\":16625:16658   */\n      swap1\n      pop\n        /* \"#utility.yul\":16571:16664   */\n      swap2\n      swap1\n      pop\n      jump\t// out\n        /* \"#utility.yul\":16670:16777   */\n    tag_172:\n        /* \"#utility.yul\":16714:16722   */\n      0x00\n        /* \"#utility.yul\":16764:16769   */\n      dup3\n        /* \"#utility.yul\":16758:16762   */\n      dup3\n        /* \"#utility.yul\":16754:16770   */\n      shl\n        /* \"#utility.yul\":16733:16770   */\n      swap1\n      pop\n        /* \"#utility.yul\":16670:16777   */\n      swap3\n      swap2\n      pop\n      pop\n      jump\t// out\n        /* \"#utility.yul\":16783:17176   */\n    tag_173:\n        /* \"#utility.yul\":16852:16858   */\n      0x00\n        /* \"#utility.yul\":16902:16903   */\n      0x08\n        /* \"#utility.yul\":16890:16900   */\n      dup4\n        /* \"#utility.yul\":16886:16904   */\n      mul\n        /* \"#utility.yul\":16925:17022   */\n      tag_332\n        /* \"#utility.yul\":16955:17021   */\n      0xffffffffffffffffffffffffffffffffffffffffffffffffffffffffffffffff\n        /* \"#utility.yul\":16944:16953   */\n      dup3\n        /* \"#utility.yul\":16925:17022   */\n      tag_172\n      jump\t// in\n    tag_332:\n        /* \"#utility.yul\":17043:17082   */\n      tag_333\n        /* \"#utility.yul\":17073:17081   */\n      dup7\n        /* \"#utility.yul\":17062:17071   */\n      dup4\n        /* \"#utility.yul\":17043:17082   */\n      tag_172\n      jump\t// in\n    tag_333:\n        /* \"#utility.yul\":17031:17082   */\n      swap6\n      pop\n        /* \"#utility.yul\":17115:17119   */\n      dup1\n        /* \"#utility.yul\":17111:17120   */\n      not\n        /* \"#utility.yul\":17104:17109   */\n      dup5\n        /* \"#utility.yul\":17100:17121   */\n      and\n        /* \"#utility.yul\":17091:17121   */\n      swap4\n      pop\n        /* \"#utility.yul\":17164:17168   */\n      dup1\n        /* \"#utility.yul\":17154:17162   */\n      dup7\n        /* \"#utility.yul\":17150:17169   */\n      and\n        /* \"#utility.yul\":17143:17148   */\n      dup5\n        /* \"#utility.yul\":17140:17170   */\n      or\n        /* \"#utility.yul\":17130:17170   */\n      swap3\n      pop\n        /* \"#utility.yul\":16859:17176   */\n      pop\n      pop\n        /* \"#utility.yul\":16783:17176   */\n      swap4\n      swap3\n      pop\n      pop\n      pop\n      jump\t// out\n        /* \"#utility.yul\":17182:17242   */\n    tag_174:\n        /* \"#utility.yul\":17210:17213   */\n      0x00\n        /* \"#utility.yul\":17231:17236   */\n      dup2\n        /* \"#utility.yul\":17224:17236   */\n      swap1\n      pop\n        /* \"#utility.yul\":17182:17242   */\n      swap2\n      swap1\n      pop\n      jump\t// out\n        /* \"#utility.yul\":17248:17390   */\n    tag_175:\n        /* \"#utility.yul\":17298:17307   */\n      0x00\n        /* \"#utility.yul\":17331:17384   */\n      tag_336\n        /* \"#utility.yul\":17349:17383   */\n      tag_337\n        /* \"#utility.yul\":17358:17382   */\n      tag_338\n        /* \"#utility.yul\":17376:17381   */\n      dup5\n        /* \"#utility.yul\":17358:17382   */\n      tag_130\n      jump\t// in\n    tag_338:\n        /* \"#utility.yul\":17349:17383   */\n      tag_174\n      jump\t// in\n    tag_337:\n        /* \"#utility.yul\":17331:17384   */\n      tag_130\n      jump\t// in\n    tag_336:\n        /* \"#utility.yul\":17318:17384   */\n      swap1\n      pop\n        /* \"#utility.yul\":17248:17390   */\n      swap2\n      swap1\n      pop\n      jump\t// out\n        /* \"#utility.yul\":17396:17471   */\n    tag_176:\n        /* \"#utility.yul\":17439:17442   */\n      0x00\n        /* \"#utility.yul\":17460:17465   */\n      dup2\n        /* \"#utility.yul\":17453:17465   */\n      swap1\n      pop\n        /* \"#utility.yul\":17396:17471   */\n      swap2\n      swap1\n      pop\n      jump\t// out\n        /* \"#utility.yul\":17477:17746   */\n    tag_177:\n        /* \"#utility.yul\":17587:17626   */\n      tag_341\n        /* \"#utility.yul\":17618:17625   */\n      dup4\n        /* \"#utility.yul\":17587:17626   */\n      tag_175\n      jump\t// in\n    tag_341:\n        /* \"#utility.yul\":17648:17739   */\n      tag_342\n        /* \"#utility.yul\":17697:17738   */\n      tag_343\n        /* \"#utility.yul\":17721:17737   */\n      dup3\n        /* \"#utility.yul\":17697:17738   */\n      tag_176\n      jump\t// in\n    tag_343:\n        /* \"#utility.yul\":17689:17695   */\n      dup5\n        /* \"#utility.yul\":17682:17686   */\n      dup5\n        /* \"#utility.yul\":17676:17687   */\n      sload\n        /* \"#utility.yul\":17648:17739   */\n      tag_173\n      jump\t// in\n    tag_342:\n        /* \"#utility.yul\":17642:17646   */\n      dup3\n        /* \"#utility.yul\":17635:17740   */\n      sstore\n        /* \"#utility.yul\":17553:17746   */\n      pop\n        /* \"#utility.yul\":17477:17746   */\n      pop\n      pop\n      pop\n      jump\t// out\n        /* \"#utility.yul\":17752:17825   */\n    tag_178:\n        /* \"#utility.yul\":17797:17800   */\n      0x00\n        /* \"#utility.yul\":17752:17825   */\n      swap1\n      jump\t// out\n        /* \"#utility.yul\":17831:18020   */\n    tag_179:\n        /* \"#utility.yul\":17908:17940   */\n      tag_346\n      tag_178\n      jump\t// in\n    tag_346:\n        /* \"#utility.yul\":17949:18014   */\n      tag_347\n        /* \"#utility.yul\":18007:18013   */\n      dup2\n        /* \"#utility.yul\":17999:18005   */\n      dup5\n        /* \"#utility.yul\":17993:17997   */\n      dup5\n        /* \"#utility.yul\":17949:18014   */\n      tag_177\n      jump\t// in\n    tag_347:\n        /* \"#utility.yul\":17884:18020   */\n      pop\n        /* \"#utility.yul\":17831:18020   */\n      pop\n      pop\n      jump\t// out\n        /* \"#utility.yul\":18026:18212   */\n    tag_180:\n        /* \"#utility.yul\":18086:18206   */\n    tag_349:\n        /* \"#utility.yul\":18103:18106   */\n      dup2\n        /* \"#utility.yul\":18096:18101   */\n      dup2\n        /* \"#utility.yul\":18093:18107   */\n      lt\n        /* \"#utility.yul\":18086:18206   */\n      iszero\n      tag_351\n      jumpi\n        /* \"#utility.yul\":18157:18196   */\n      tag_352\n        /* \"#utility.yul\":18194:18195   */\n      0x00\n        /* \"#utility.yul\":18187:18192   */\n      dup3\n        /* \"#utility.yul\":18157:18196   */\n      tag_179\n      jump\t// in\n    tag_352:\n        /* \"#utility.yul\":18130:18131   */\n      0x01\n        /* \"#utility.yul\":18123:18128   */\n      dup2\n        /* \"#utility.yul\":18119:18132   */\n      add\n        /* \"#utility.yul\":18110:18132   */\n      swap1\n      pop\n        /* \"#utility.yul\":18086:18206   */\n      jump(tag_349)\n    tag_351:\n        /* \"#utility.yul\":18026:18212   */\n      pop\n      pop\n      jump\t// out\n        /* \"#utility.yul\":18218:18761   */\n    tag_181:\n        /* \"#utility.yul\":18319:18321   */\n      0x1f\n        /* \"#utility.yul\":18314:18317   */\n      dup3\n        /* \"#utility.yul\":18311:18322   */\n      gt\n        /* \"#utility.yul\":18308:18754   */\n      iszero\n      tag_354\n      jumpi\n        /* \"#utility.yul\":18353:18391   */\n      tag_355\n        /* \"#utility.yul\":18385:18390   */\n      dup2\n        /* \"#utility.yul\":18353:18391   */\n      tag_170\n      jump\t// in\n    tag_355:\n        /* \"#utility.yul\":18437:18466   */\n      tag_356\n        /* \"#utility.yul\":18455:18465   */\n      dup5\n        /* \"#utility.yul\":18437:18466   */\n      tag_171\n      jump\t// in\n    tag_356:\n        /* \"#utility.yul\":18427:18435   */\n      dup2\n        /* \"#utility.yul\":18423:18467   */\n      add\n        /* \"#utility.yul\":18620:18622   */\n      0x20\n        /* \"#utility.yul\":18608:18618   */\n      dup6\n        /* \"#utility.yul\":18605:18623   */\n      lt\n        /* \"#utility.yul\":18602:18651   */\n      iszero\n      tag_357\n      jumpi\n        /* \"#utility.yul\":18641:18649   */\n      dup2\n        /* \"#utility.yul\":18626:18649   */\n      swap1\n      pop\n        /* \"#utility.yul\":18602:18651   */\n    tag_357:\n        /* \"#utility.yul\":18664:18744   */\n      tag_358\n        /* \"#utility.yul\":18720:18742   */\n      tag_359\n        /* \"#utility.yul\":18738:18741   */\n      dup6\n        /* \"#utility.yul\":18720:18742   */\n      tag_171\n      jump\t// in\n    tag_359:\n        /* \"#utility.yul\":18710:18718   */\n      dup4\n        /* \"#utility.yul\":18706:18743   */\n      add\n        /* \"#utility.yul\":18693:18704   */\n      dup3\n        /* \"#utility.yul\":18664:18744   */\n      tag_180\n      jump\t// in\n    tag_358:\n        /* \"#utility.yul\":18323:18754   */\n      pop\n      pop\n        /* \"#utility.yul\":18308:18754   */\n    tag_354:\n        /* \"#utility.yul\":18218:18761   */\n      pop\n      pop\n      pop\n      jump\t// out\n        /* \"#utility.yul\":18767:18884   */\n    tag_182:\n        /* \"#utility.yul\":18821:18829   */\n      0x00\n        /* \"#utility.yul\":18871:18876   */\n      dup3\n        /* \"#utility.yul\":18865:18869   */\n      dup3\n        /* \"#utility.yul\":18861:18877   */\n      shr\n        /* \"#utility.yul\":18840:18877   */\n      swap1\n      pop\n        /* \"#utility.yul\":18767:18884   */\n      swap3\n      swap2\n      pop\n      pop\n      jump\t// out\n        /* \"#utility.yul\":18890:19059   */\n    tag_183:\n        /* \"#utility.yul\":18934:18940   */\n      0x00\n        /* \"#utility.yul\":18967:19018   */\n      tag_362\n        /* \"#utility.yul\":19015:19016   */\n      0x00\n        /* \"#utility.yul\":19011:19017   */\n      not\n        /* \"#utility.yul\":19003:19008   */\n      dup5\n        /* \"#utility.yul\":19000:19001   */\n      0x08\n        /* \"#utility.yul\":18996:19009   */\n      mul\n        /* \"#utility.yul\":18967:19018   */\n      tag_182\n      jump\t// in\n    tag_362:\n        /* \"#utility.yul\":18963:19019   */\n      not\n        /* \"#utility.yul\":19048:19052   */\n      dup1\n        /* \"#utility.yul\":19042:19046   */\n      dup4\n        /* \"#utility.yul\":19038:19053   */\n      and\n        /* \"#utility.yul\":19028:19053   */\n      swap2\n      pop\n        /* \"#utility.yul\":18941:19059   */\n      pop\n        /* \"#utility.yul\":18890:19059   */\n      swap3\n      swap2\n      pop\n      pop\n      jump\t// out\n        /* \"#utility.yul\":19064:19359   */\n    tag_184:\n        /* \"#utility.yul\":19140:19144   */\n      0x00\n        /* \"#utility.yul\":19286:19315   */\n      tag_364\n        /* \"#utility.yul\":19311:19314   */\n      dup4\n        /* \"#utility.yul\":19305:19309   */\n      dup4\n        /* \"#utility.yul\":19286:19315   */\n      tag_183\n      jump\t// in\n    tag_364:\n        /* \"#utility.yul\":19278:19315   */\n      swap2\n      pop\n        /* \"#utility.yul\":19348:19351   */\n      dup3\n        /* \"#utility.yul\":19345:19346   */\n      0x02\n        /* \"#utility.yul\":19341:19352   */\n      mul\n        /* \"#utility.yul\":19335:19339   */\n      dup3\n        /* \"#utility.yul\":19332:19353   */\n      or\n        /* \"#utility.yul\":19324:19353   */\n      swap1\n      pop\n        /* \"#utility.yul\":19064:19359   */\n      swap3\n      swap2\n      pop\n      pop\n      jump\t// out\n        /* \"#utility.yul\":19364:20759   */\n    tag_38:\n        /* \"#utility.yul\":19481:19518   */\n      tag_366\n        /* \"#utility.yul\":19514:19517   */\n      dup3\n        /* \"#utility.yul\":19481:19518   */\n      tag_147\n      jump\t// in\n    tag_366:\n        /* \"#utility.yul\":19583:19601   */\n      0xffffffffffffffff\n        /* \"#utility.yul\":19575:19581   */\n      dup2\n        /* \"#utility.yul\":19572:19602   */\n      gt\n        /* \"#utility.yul\":19569:19625   */\n      iszero\n      tag_367\n      jumpi\n        /* \"#utility.yul\":19605:19623   */\n      tag_368\n      tag_136\n      jump\t// in\n    tag_368:\n        /* \"#utility.yul\":19569:19625   */\n    tag_367:\n        /* \"#utility.yul\":19649:19687   */\n      tag_369\n        /* \"#utility.yul\":19681:19685   */\n      dup3\n        /* \"#utility.yul\":19675:19686   */\n      sload\n        /* \"#utility.yul\":19649:19687   */\n      tag_49\n      jump\t// in\n    tag_369:\n        /* \"#utility.yul\":19734:19801   */\n      tag_370\n        /* \"#utility.yul\":19794:19800   */\n      dup3\n        /* \"#utility.yul\":19786:19792   */\n      dup3\n        /* \"#utility.yul\":19780:19784   */\n      dup6\n        /* \"#utility.yul\":19734:19801   */\n      tag_181\n      jump\t// in\n    tag_370:\n        /* \"#utility.yul\":19828:19829   */\n      0x00\n        /* \"#utility.yul\":19852:19856   */\n      0x20\n        /* \"#utility.yul\":19839:19856   */\n      swap1\n      pop\n        /* \"#utility.yul\":19884:19886   */\n      0x1f\n        /* \"#utility.yul\":19876:19882   */\n      dup4\n        /* \"#utility.yul\":19873:19887   */\n      gt\n        /* \"#utility.yul\":19901:19902   */\n      0x01\n        /* \"#utility.yul\":19896:20514   */\n      dup2\n      eq\n      tag_372\n      jumpi\n        /* \"#utility.yul\":20558:20559   */\n      0x00\n        /* \"#utility.yul\":20575:20581   */\n      dup5\n        /* \"#utility.yul\":20572:20649   */\n      iszero\n      tag_373\n      jumpi\n        /* \"#utility.yul\":20624:20633   */\n      dup3\n        /* \"#utility.yul\":20619:20622   */\n      dup8\n        /* \"#utility.yul\":20615:20634   */\n      add\n        /* \"#utility.yul\":20609:20635   */\n      mload\n        /* \"#utility.yul\":20600:20635   */\n      swap1\n      pop\n        /* \"#utility.yul\":20572:20649   */\n    tag_373:\n        /* \"#utility.yul\":20675:20742   */\n      tag_374\n        /* \"#utility.yul\":20735:20741   */\n      dup6\n        /* \"#utility.yul\":20728:20733   */\n      dup3\n        /* \"#utility.yul\":20675:20742   */\n      tag_184\n      jump\t// in\n    tag_374:\n        /* \"#utility.yul\":20669:20673   */\n      dup7\n        /* \"#utility.yul\":20662:20743   */\n      sstore\n        /* \"#utility.yul\":20531:20753   */\n      pop\n        /* \"#utility.yul\":19866:20753   */\n      jump(tag_371)\n        /* \"#utility.yul\":19896:20514   */\n    tag_372:\n        /* \"#utility.yul\":19948:19952   */\n      0x1f\n        /* \"#utility.yul\":19944:19953   */\n      not\n        /* \"#utility.yul\":19936:19942   */\n      dup5\n        /* \"#utility.yul\":19932:19954   */\n      and\n        /* \"#utility.yul\":19982:20019   */\n      tag_375\n        /* \"#utility.yul\":20014:20018   */\n      dup7\n        /* \"#utility.yul\":19982:20019   */\n      tag_170\n      jump\t// in\n    tag_375:\n        /* \"#utility.yul\":20041:20042   */\n      0x00\n        /* \"#utility.yul\":20055:20263   */\n    tag_376:\n        /* \"#utility.yul\":20069:20076   */\n      dup3\n        /* \"#utility.yul\":20066:20067   */\n      dup2\n        /* \"#utility.yul\":20063:20077   */\n      lt\n        /* \"#utility.yul\":20055:20263   */\n      iszero\n      tag_378\n      jumpi\n        /* \"#utility.yul\":20148:20157   */\n      dup5\n        /* \"#utility.yul\":20143:20146   */\n      dup10\n        /* \"#utility.yul\":20139:20158   */\n      add\n        /* \"#utility.yul\":20133:20159   */\n      mload\n        /* \"#utility.yul\":20125:20131   */\n      dup3\n        /* \"#utility.yul\":20118:20160   */\n      sstore\n        /* \"#utility.yul\":20199:20200   */\n      0x01\n        /* \"#utility.yul\":20191:20197   */\n      dup3\n        /* \"#utility.yul\":20187:20201   */\n      add\n        /* \"#utility.yul\":20177:20201   */\n      swap2\n      pop\n        /* \"#utility.yul\":20246:20248   */\n      0x20\n        /* \"#utility.yul\":20235:20244   */\n      dup6\n        /* \"#utility.yul\":20231:20249   */\n      add\n        /* \"#utility.yul\":20218:20249   */\n      swap5\n      pop\n        /* \"#utility.yul\":20092:20096   */\n      0x20\n        /* \"#utility.yul\":20089:20090   */\n      dup2\n        /* \"#utility.yul\":20085:20097   */\n      add\n        /* \"#utility.yul\":20080:20097   */\n      swap1\n      pop\n        /* \"#utility.yul\":20055:20263   */\n      jump(tag_376)\n    tag_378:\n        /* \"#utility.yul\":20291:20297   */\n      dup7\n        /* \"#utility.yul\":20282:20289   */\n      dup4\n        /* \"#utility.yul\":20279:20298   */\n      lt\n        /* \"#utility.yul\":20276:20455   */\n      iszero\n      tag_379\n      jumpi\n        /* \"#utility.yul\":20349:20358   */\n      dup5\n        /* \"#utility.yul\":20344:20347   */\n      dup10\n        /* \"#utility.yul\":20340:20359   */\n      add\n        /* \"#utility.yul\":20334:20360   */\n      mload\n        /* \"#utility.yul\":20392:20440   */\n      tag_380\n        /* \"#utility.yul\":20434:20438   */\n      0x1f\n        /* \"#utility.yul\":20426:20432   */\n      dup10\n        /* \"#utility.yul\":20422:20439   */\n      and\n        /* \"#utility.yul\":20411:20420   */\n      dup3\n        /* \"#utility.yul\":20392:20440   */\n      tag_183\n      jump\t// in\n    tag_380:\n        /* \"#utility.yul\":20384:20390   */\n      dup4\n        /* \"#utility.yul\":20377:20441   */\n      sstore\n        /* \"#utility.yul\":20299:20455   */\n      pop\n        /* \"#utility.yul\":20276:20455   */\n    tag_379:\n        /* \"#utility.yul\":20501:20502   */\n      0x01\n        /* \"#utility.yul\":20497:20498   */\n      0x02\n        /* \"#utility.yul\":20489:20495   */\n      dup9\n        /* \"#utility.yul\":20485:20499   */\n      mul\n        /* \"#utility.yul\":20481:20503   */\n      add\n        /* \"#utility.yul\":20475:20479   */\n      dup9\n        /* \"#utility.yul\":20468:20504   */\n      sstore\n        /* \"#utility.yul\":19903:20514   */\n      pop\n      pop\n      pop\n        /* \"#utility.yul\":19866:20753   */\n    tag_371:\n      pop\n        /* \"#utility.yul\":19456:20759   */\n      pop\n      pop\n      pop\n        /* \"#utility.yul\":19364:20759   */\n      pop\n      pop\n      jump\t// out\n        /* \"#utility.yul\":20765:20945   */\n    tag_185:\n        /* \"#utility.yul\":20813:20890   */\n      0x4e487b7100000000000000000000000000000000000000000000000000000000\n        /* \"#utility.yul\":20810:20811   */\n      0x00\n        /* \"#utility.yul\":20803:20891   */\n      mstore\n        /* \"#utility.yul\":20910:20914   */\n      0x11\n        /* \"#utility.yul\":20907:20908   */\n      0x04\n        /* \"#utility.yul\":20900:20915   */\n      mstore\n        /* \"#utility.yul\":20934:20938   */\n      0x24\n        /* \"#utility.yul\":20931:20932   */\n      0x00\n        /* \"#utility.yul\":20924:20939   */\n      revert\n        /* \"#utility.yul\":20951:21145   */\n    tag_43:\n        /* \"#utility.yul\":20991:20995   */\n      0x00\n        /* \"#utility.yul\":21011:21031   */\n      tag_383\n        /* \"#utility.yul\":21029:21030   */\n      dup3\n        /* \"#utility.yul\":21011:21031   */\n      tag_130\n      jump\t// in\n    tag_383:\n        /* \"#utility.yul\":21006:21031   */\n      swap2\n      pop\n        /* \"#utility.yul\":21045:21065   */\n      tag_384\n        /* \"#utility.yul\":21063:21064   */\n      dup4\n        /* \"#utility.yul\":21045:21065   */\n      tag_130\n      jump\t// in\n    tag_384:\n        /* \"#utility.yul\":21040:21065   */\n      swap3\n      pop\n        /* \"#utility.yul\":21089:21090   */\n      dup3\n        /* \"#utility.yul\":21086:21087   */\n      dup3\n        /* \"#utility.yul\":21082:21091   */\n      sub\n        /* \"#utility.yul\":21074:21091   */\n      swap1\n      pop\n        /* \"#utility.yul\":21113:21114   */\n      dup2\n        /* \"#utility.yul\":21107:21111   */\n      dup2\n        /* \"#utility.yul\":21104:21115   */\n      gt\n        /* \"#utility.yul\":21101:21138   */\n      iszero\n      tag_385\n      jumpi\n        /* \"#utility.yul\":21118:21136   */\n      tag_386\n      tag_185\n      jump\t// in\n    tag_386:\n        /* \"#utility.yul\":21101:21138   */\n    tag_385:\n        /* \"#utility.yul\":20951:21145   */\n      swap3\n      swap2\n      pop\n      pop\n      jump\t// out\n        /* \"#utility.yul\":21151:21371   */\n    tag_186:\n        /* \"#utility.yul\":21291:21325   */\n      0x44617461206e6f7420666f756e6420666f722074686520676976656e20686173\n        /* \"#utility.yul\":21287:21288   */\n      0x00\n        /* \"#utility.yul\":21279:21285   */\n      dup3\n        /* \"#utility.yul\":21275:21289   */\n      add\n        /* \"#utility.yul\":21268:21326   */\n      mstore\n        /* \"#utility.yul\":21360:21363   */\n      0x6800000000000000000000000000000000000000000000000000000000000000\n        /* \"#utility.yul\":21355:21357   */\n      0x20\n        /* \"#utility.yul\":21347:21353   */\n      dup3\n        /* \"#utility.yul\":21343:21358   */\n      add\n        /* \"#utility.yul\":21336:21364   */\n      mstore\n        /* \"#utility.yul\":21151:21371   */\n      pop\n      jump\t// out\n        /* \"#utility.yul\":21377:21743   */\n    tag_187:\n        /* \"#utility.yul\":21519:21522   */\n      0x00\n        /* \"#utility.yul\":21540:21607   */\n      tag_389\n        /* \"#utility.yul\":21604:21606   */\n      0x21\n        /* \"#utility.yul\":21599:21602   */\n      dup4\n        /* \"#utility.yul\":21540:21607   */\n      tag_160\n      jump\t// in\n    tag_389:\n        /* \"#utility.yul\":21533:21607   */\n      swap2\n      pop\n        /* \"#utility.yul\":21616:21709   */\n      tag_390\n        /* \"#utility.yul\":21705:21708   */\n      dup3\n        /* \"#utility.yul\":21616:21709   */\n      tag_186\n      jump\t// in\n    tag_390:\n        /* \"#utility.yul\":21734:21736   */\n      0x40\n        /* \"#utility.yul\":21729:21732   */\n      dup3\n        /* \"#utility.yul\":21725:21737   */\n      add\n        /* \"#utility.yul\":21718:21737   */\n      swap1\n      pop\n        /* \"#utility.yul\":21377:21743   */\n      swap2\n      swap1\n      pop\n      jump\t// out\n        /* \"#utility.yul\":21749:22168   */\n    tag_74:\n        /* \"#utility.yul\":21915:21919   */\n      0x00\n        /* \"#utility.yul\":21953:21955   */\n      0x20\n        /* \"#utility.yul\":21942:21951   */\n      dup3\n        /* \"#utility.yul\":21938:21956   */\n      add\n        /* \"#utility.yul\":21930:21956   */\n      swap1\n      pop\n        /* \"#utility.yul\":22002:22011   */\n      dup2\n        /* \"#utility.yul\":21996:22000   */\n      dup2\n        /* \"#utility.yul\":21992:22012   */\n      sub\n        /* \"#utility.yul\":21988:21989   */\n      0x00\n        /* \"#utility.yul\":21977:21986   */\n      dup4\n        /* \"#utility.yul\":21973:21990   */\n      add\n        /* \"#utility.yul\":21966:22013   */\n      mstore\n        /* \"#utility.yul\":22030:22161   */\n      tag_392\n        /* \"#utility.yul\":22156:22160   */\n      dup2\n        /* \"#utility.yul\":22030:22161   */\n      tag_187\n      jump\t// in\n    tag_392:\n        /* \"#utility.yul\":22022:22161   */\n      swap1\n      pop\n        /* \"#utility.yul\":21749:22168   */\n      swap2\n      swap1\n      pop\n      jump\t// out\n        /* \"#utility.yul\":22174:22354   */\n    tag_77:\n        /* \"#utility.yul\":22222:22299   */\n      0x4e487b7100000000000000000000000000000000000000000000000000000000\n        /* \"#utility.yul\":22219:22220   */\n      0x00\n        /* \"#utility.yul\":22212:22300   */\n      mstore\n        /* \"#utility.yul\":22319:22323   */\n      0x32\n        /* \"#utility.yul\":22316:22317   */\n      0x04\n        /* \"#utility.yul\":22309:22324   */\n      mstore\n        /* \"#utility.yul\":22343:22347   */\n      0x24\n        /* \"#utility.yul\":22340:22341   */\n      0x00\n        /* \"#utility.yul\":22333:22348   */\n      revert\n        /* \"#utility.yul\":22360:22523   */\n    tag_188:\n        /* \"#utility.yul\":22500:22515   */\n      0x496e76616c696420696e64657800000000000000000000000000000000000000\n        /* \"#utility.yul\":22496:22497   */\n      0x00\n        /* \"#utility.yul\":22488:22494   */\n      dup3\n        /* \"#utility.yul\":22484:22498   */\n      add\n        /* \"#utility.yul\":22477:22516   */\n      mstore\n        /* \"#utility.yul\":22360:22523   */\n      pop\n      jump\t// out\n        /* \"#utility.yul\":22529:22895   */\n    tag_189:\n        /* \"#utility.yul\":22671:22674   */\n      0x00\n        /* \"#utility.yul\":22692:22759   */\n      tag_396\n        /* \"#utility.yul\":22756:22758   */\n      0x0d\n        /* \"#utility.yul\":22751:22754   */\n      dup4\n        /* \"#utility.yul\":22692:22759   */\n      tag_160\n      jump\t// in\n    tag_396:\n        /* \"#utility.yul\":22685:22759   */\n      swap2\n      pop\n        /* \"#utility.yul\":22768:22861   */\n      tag_397\n        /* \"#utility.yul\":22857:22860   */\n      dup3\n        /* \"#utility.yul\":22768:22861   */\n      tag_188\n      jump\t// in\n    tag_397:\n        /* \"#utility.yul\":22886:22888   */\n      0x20\n        /* \"#utility.yul\":22881:22884   */\n      dup3\n        /* \"#utility.yul\":22877:22889   */\n      add\n        /* \"#utility.yul\":22870:22889   */\n      swap1\n      pop\n        /* \"#utility.yul\":22529:22895   */\n      swap2\n      swap1\n      pop\n      jump\t// out\n        /* \"#utility.yul\":22901:23320   */\n    tag_103:\n        /* \"#utility.yul\":23067:23071   */\n      0x00\n        /* \"#utility.yul\":23105:23107   */\n      0x20\n        /* \"#utility.yul\":23094:23103   */\n      dup3\n        /* \"#utility.yul\":23090:23108   */\n      add\n        /* \"#utility.yul\":23082:23108   */\n      swap1\n      pop\n        /* \"#utility.yul\":23154:23163   */\n      dup2\n        /* \"#utility.yul\":23148:23152   */\n      dup2\n        /* \"#utility.yul\":23144:23164   */\n      sub\n        /* \"#utility.yul\":23140:23141   */\n      0x00\n        /* \"#utility.yul\":23129:23138   */\n      dup4\n        /* \"#utility.yul\":23125:23142   */\n      add\n        /* \"#utility.yul\":23118:23165   */\n      mstore\n        /* \"#utility.yul\":23182:23313   */\n      tag_399\n        /* \"#utility.yul\":23308:23312   */\n      dup2\n        /* \"#utility.yul\":23182:23313   */\n      tag_189\n      jump\t// in\n    tag_399:\n        /* \"#utility.yul\":23174:23313   */\n      swap1\n      pop\n        /* \"#utility.yul\":22901:23320   */\n      swap2\n      swap1\n      pop\n      jump\t// out\n\n    auxdata: 0xa2646970667358221220e689aabd6e80cd4b3543600b71c1001b32921505e1ee1248c953b40b1c7eb5a464736f6c63430008150033\n}\n",
				"bytecode": {
					"linkReferences": {},
					"object": "608060405234801561000f575f80fd5b50335f806101000a81548173ffffffffffffffffffffffffffffffffffffffff021916908373ffffffffffffffffffffffffffffffffffffffff1602179055506117e18061005c5f395ff3fe608060405234801561000f575f80fd5b506004361061004a575f3560e01c80631ff529f01461004e57806388caebd01461006a578063a748ab2a14610088578063e2551c41146100b8575b5f80fd5b61006860048036038101906100639190610e1a565b6100e8565b005b6100726103d2565b60405161007f9190611090565b60405180910390f35b6100a2600480360381019061009d91906110da565b61068b565b6040516100af91906111b3565b60405180910390f35b6100d260048036038101906100cd91906111d3565b61097f565b6040516100df91906111b3565b60405180910390f35b5f8054906101000a900473ffffffffffffffffffffffffffffffffffffffff1673ffffffffffffffffffffffffffffffffffffffff163373ffffffffffffffffffffffffffffffffffffffff1614610175576040517f08c379a000000000000000000000000000000000000000000000000000000000815260040161016c90611258565b60405180910390fd5b60035f8481526020019081526020015f205f9054906101000a900460ff16156101d3576040517f08c379a00000000000000000000000000000000000000000000000000000000081526004016101ca906112c0565b60405180910390fd5b602181106103cd575f83836040516020016101ef929190611338565b6040516020818303038152906040528051906020012090505f6040518060e001604052808681526020018581526020018481526020016040518060400160405280600481526020017f506173730000000000000000000000000000000000000000000000000000000081525081526020016040518060400160405280600481526020017f506173730000000000000000000000000000000000000000000000000000000081525081526020016040518060400160405280600481526020017f50617373000000000000000000000000000000000000000000000000000000008152508152602001838152509050600181908060018154018082558091505060019003905f5260205f2090600702015f909190919091505f820151815f015560208201518160010190816103229190611559565b506040820151816002015560608201518160030190816103429190611559565b5060808201518160040190816103589190611559565b5060a082015181600501908161036e9190611559565b5060c0820151816006015550506001808054905061038c9190611655565b60025f8481526020019081526020015f2081905550600160035f8781526020019081526020015f205f6101000a81548160ff02191690831515021790555050505b505050565b60606001805480602002602001604051908101604052809291908181526020015f905b82821015610682578382905f5260205f2090600702016040518060e00160405290815f820154815260200160018201805461042f9061138c565b80601f016020809104026020016040519081016040528092919081815260200182805461045b9061138c565b80156104a65780601f1061047d576101008083540402835291602001916104a6565b820191905f5260205f20905b81548152906001019060200180831161048957829003601f168201915b50505050508152602001600282015481526020016003820180546104c99061138c565b80601f01602080910402602001604051908101604052809291908181526020018280546104f59061138c565b80156105405780601f1061051757610100808354040283529160200191610540565b820191905f5260205f20905b81548152906001019060200180831161052357829003601f168201915b505050505081526020016004820180546105599061138c565b80601f01602080910402602001604051908101604052809291908181526020018280546105859061138c565b80156105d05780601f106105a7576101008083540402835291602001916105d0565b820191905f5260205f20905b8154815290600101906020018083116105b357829003601f168201915b505050505081526020016005820180546105e99061138c565b80601f01602080910402602001604051908101604052809291908181526020018280546106159061138c565b80156106605780601f1061063757610100808354040283529160200191610660565b820191905f5260205f20905b81548152906001019060200180831161064357829003601f168201915b50505050508152602001600682015481525050815260200190600101906103f5565b50505050905090565b610693610c5d565b5f60025f8481526020019081526020015f2054905060018054905081106106ef576040517f08c379a00000000000000000000000000000000000000000000000000000000081526004016106e6906116f8565b60405180910390fd5b6001818154811061070357610702611716565b5b905f5260205f2090600702016040518060e00160405290815f82015481526020016001820180546107339061138c565b80601f016020809104026020016040519081016040528092919081815260200182805461075f9061138c565b80156107aa5780601f10610781576101008083540402835291602001916107aa565b820191905f5260205f20905b81548152906001019060200180831161078d57829003601f168201915b50505050508152602001600282015481526020016003820180546107cd9061138c565b80601f01602080910402602001604051908101604052809291908181526020018280546107f99061138c565b80156108445780601f1061081b57610100808354040283529160200191610844565b820191905f5260205f20905b81548152906001019060200180831161082757829003601f168201915b5050505050815260200160048201805461085d9061138c565b80601f01602080910402602001604051908101604052809291908181526020018280546108899061138c565b80156108d45780601f106108ab576101008083540402835291602001916108d4565b820191905f5260205f20905b8154815290600101906020018083116108b757829003601f168201915b505050505081526020016005820180546108ed9061138c565b80601f01602080910402602001604051908101604052809291908181526020018280546109199061138c565b80156109645780601f1061093b57610100808354040283529160200191610964565b820191905f5260205f20905b81548152906001019060200180831161094757829003601f168201915b50505050508152602001600682015481525050915050919050565b610987610c5d565b60018054905082106109ce576040517f08c379a00000000000000000000000000000000000000000000000000000000081526004016109c59061178d565b60405180910390fd5b600182815481106109e2576109e1611716565b5b905f5260205f2090600702016040518060e00160405290815f8201548152602001600182018054610a129061138c565b80601f0160208091040260200160405190810160405280929190818152602001828054610a3e9061138c565b8015610a895780601f10610a6057610100808354040283529160200191610a89565b820191905f5260205f20905b815481529060010190602001808311610a6c57829003601f168201915b5050505050815260200160028201548152602001600382018054610aac9061138c565b80601f0160208091040260200160405190810160405280929190818152602001828054610ad89061138c565b8015610b235780601f10610afa57610100808354040283529160200191610b23565b820191905f5260205f20905b815481529060010190602001808311610b0657829003601f168201915b50505050508152602001600482018054610b3c9061138c565b80601f0160208091040260200160405190810160405280929190818152602001828054610b689061138c565b8015610bb35780601f10610b8a57610100808354040283529160200191610bb3565b820191905f5260205f20905b815481529060010190602001808311610b9657829003601f168201915b50505050508152602001600582018054610bcc9061138c565b80601f0160208091040260200160405190810160405280929190818152602001828054610bf89061138c565b8015610c435780601f10610c1a57610100808354040283529160200191610c43565b820191905f5260205f20905b815481529060010190602001808311610c2657829003601f168201915b505050505081526020016006820154815250509050919050565b6040518060e001604052805f8152602001606081526020015f81526020016060815260200160608152602001606081526020015f80191681525090565b5f604051905090565b5f80fd5b5f80fd5b5f819050919050565b610cbd81610cab565b8114610cc7575f80fd5b50565b5f81359050610cd881610cb4565b92915050565b5f80fd5b5f80fd5b5f601f19601f8301169050919050565b7f4e487b71000000000000000000000000000000000000000000000000000000005f52604160045260245ffd5b610d2c82610ce6565b810181811067ffffffffffffffff82111715610d4b57610d4a610cf6565b5b80604052505050565b5f610d5d610c9a565b9050610d698282610d23565b919050565b5f67ffffffffffffffff821115610d8857610d87610cf6565b5b610d9182610ce6565b9050602081019050919050565b828183375f83830152505050565b5f610dbe610db984610d6e565b610d54565b905082815260208101848484011115610dda57610dd9610ce2565b5b610de5848285610d9e565b509392505050565b5f82601f830112610e0157610e00610cde565b5b8135610e11848260208601610dac565b91505092915050565b5f805f60608486031215610e3157610e30610ca3565b5b5f610e3e86828701610cca565b935050602084013567ffffffffffffffff811115610e5f57610e5e610ca7565b5b610e6b86828701610ded565b9250506040610e7c86828701610cca565b9150509250925092565b5f81519050919050565b5f82825260208201905092915050565b5f819050602082019050919050565b610eb881610cab565b82525050565b5f81519050919050565b5f82825260208201905092915050565b5f5b83811015610ef5578082015181840152602081019050610eda565b5f8484015250505050565b5f610f0a82610ebe565b610f148185610ec8565b9350610f24818560208601610ed8565b610f2d81610ce6565b840191505092915050565b5f819050919050565b610f4a81610f38565b82525050565b5f60e083015f830151610f655f860182610eaf565b5060208301518482036020860152610f7d8282610f00565b9150506040830151610f926040860182610eaf565b5060608301518482036060860152610faa8282610f00565b91505060808301518482036080860152610fc48282610f00565b91505060a083015184820360a0860152610fde8282610f00565b91505060c0830151610ff360c0860182610f41565b508091505092915050565b5f6110098383610f50565b905092915050565b5f602082019050919050565b5f61102782610e86565b6110318185610e90565b93508360208202850161104385610ea0565b805f5b8581101561107e578484038952815161105f8582610ffe565b945061106a83611011565b925060208a01995050600181019050611046565b50829750879550505050505092915050565b5f6020820190508181035f8301526110a8818461101d565b905092915050565b6110b981610f38565b81146110c3575f80fd5b50565b5f813590506110d4816110b0565b92915050565b5f602082840312156110ef576110ee610ca3565b5b5f6110fc848285016110c6565b91505092915050565b5f60e083015f83015161111a5f860182610eaf565b50602083015184820360208601526111328282610f00565b91505060408301516111476040860182610eaf565b506060830151848203606086015261115f8282610f00565b915050608083015184820360808601526111798282610f00565b91505060a083015184820360a08601526111938282610f00565b91505060c08301516111a860c0860182610f41565b508091505092915050565b5f6020820190508181035f8301526111cb8184611105565b905092915050565b5f602082840312156111e8576111e7610ca3565b5b5f6111f584828501610cca565b91505092915050565b5f82825260208201905092915050565b7f596f7520617265206e6f7420617574686f72697a6564000000000000000000005f82015250565b5f6112426016836111fe565b915061124d8261120e565b602082019050919050565b5f6020820190508181035f83015261126f81611236565b9050919050565b7f526f6c6c206e756d62657220616c7265616479207573656400000000000000005f82015250565b5f6112aa6018836111fe565b91506112b582611276565b602082019050919050565b5f6020820190508181035f8301526112d78161129e565b9050919050565b5f819050919050565b6112f86112f382610cab565b6112de565b82525050565b5f81905092915050565b5f61131282610ebe565b61131c81856112fe565b935061132c818560208601610ed8565b80840191505092915050565b5f61134382856112e7565b6020820191506113538284611308565b91508190509392505050565b7f4e487b71000000000000000000000000000000000000000000000000000000005f52602260045260245ffd5b5f60028204905060018216806113a357607f821691505b6020821081036113b6576113b561135f565b5b50919050565b5f819050815f5260205f209050919050565b5f6020601f8301049050919050565b5f82821b905092915050565b5f600883026114187fffffffffffffffffffffffffffffffffffffffffffffffffffffffffffffffff826113dd565b61142286836113dd565b95508019841693508086168417925050509392505050565b5f819050919050565b5f61145d61145861145384610cab565b61143a565b610cab565b9050919050565b5f819050919050565b61147683611443565b61148a61148282611464565b8484546113e9565b825550505050565b5f90565b61149e611492565b6114a981848461146d565b505050565b5b818110156114cc576114c15f82611496565b6001810190506114af565b5050565b601f821115611511576114e2816113bc565b6114eb846113ce565b810160208510156114fa578190505b61150e611506856113ce565b8301826114ae565b50505b505050565b5f82821c905092915050565b5f6115315f1984600802611516565b1980831691505092915050565b5f6115498383611522565b9150826002028217905092915050565b61156282610ebe565b67ffffffffffffffff81111561157b5761157a610cf6565b5b611585825461138c565b6115908282856114d0565b5f60209050601f8311600181146115c1575f84156115af578287015190505b6115b9858261153e565b865550611620565b601f1984166115cf866113bc565b5f5b828110156115f6578489015182556001820191506020850194506020810190506115d1565b86831015611613578489015161160f601f891682611522565b8355505b6001600288020188555050505b505050505050565b7f4e487b71000000000000000000000000000000000000000000000000000000005f52601160045260245ffd5b5f61165f82610cab565b915061166a83610cab565b925082820390508181111561168257611681611628565b5b92915050565b7f44617461206e6f7420666f756e6420666f722074686520676976656e206861735f8201527f6800000000000000000000000000000000000000000000000000000000000000602082015250565b5f6116e26021836111fe565b91506116ed82611688565b604082019050919050565b5f6020820190508181035f83015261170f816116d6565b9050919050565b7f4e487b71000000000000000000000000000000000000000000000000000000005f52603260045260245ffd5b7f496e76616c696420696e646578000000000000000000000000000000000000005f82015250565b5f611777600d836111fe565b915061178282611743565b602082019050919050565b5f6020820190508181035f8301526117a48161176b565b905091905056fea2646970667358221220e689aabd6e80cd4b3543600b71c1001b32921505e1ee1248c953b40b1c7eb5a464736f6c63430008150033",
					"opcodes": "PUSH1 0x80 PUSH1 0x40 MSTORE CALLVALUE DUP1 ISZERO PUSH2 0xF JUMPI PUSH0 DUP1 REVERT JUMPDEST POP CALLER PUSH0 DUP1 PUSH2 0x100 EXP DUP2 SLOAD DUP2 PUSH20 0xFFFFFFFFFFFFFFFFFFFFFFFFFFFFFFFFFFFFFFFF MUL NOT AND SWAP1 DUP4 PUSH20 0xFFFFFFFFFFFFFFFFFFFFFFFFFFFFFFFFFFFFFFFF AND MUL OR SWAP1 SSTORE POP PUSH2 0x17E1 DUP1 PUSH2 0x5C PUSH0 CODECOPY PUSH0 RETURN INVALID PUSH1 0x80 PUSH1 0x40 MSTORE CALLVALUE DUP1 ISZERO PUSH2 0xF JUMPI PUSH0 DUP1 REVERT JUMPDEST POP PUSH1 0x4 CALLDATASIZE LT PUSH2 0x4A JUMPI PUSH0 CALLDATALOAD PUSH1 0xE0 SHR DUP1 PUSH4 0x1FF529F0 EQ PUSH2 0x4E JUMPI DUP1 PUSH4 0x88CAEBD0 EQ PUSH2 0x6A JUMPI DUP1 PUSH4 0xA748AB2A EQ PUSH2 0x88 JUMPI DUP1 PUSH4 0xE2551C41 EQ PUSH2 0xB8 JUMPI JUMPDEST PUSH0 DUP1 REVERT JUMPDEST PUSH2 0x68 PUSH1 0x4 DUP1 CALLDATASIZE SUB DUP2 ADD SWAP1 PUSH2 0x63 SWAP2 SWAP1 PUSH2 0xE1A JUMP JUMPDEST PUSH2 0xE8 JUMP JUMPDEST STOP JUMPDEST PUSH2 0x72 PUSH2 0x3D2 JUMP JUMPDEST PUSH1 0x40 MLOAD PUSH2 0x7F SWAP2 SWAP1 PUSH2 0x1090 JUMP JUMPDEST PUSH1 0x40 MLOAD DUP1 SWAP2 SUB SWAP1 RETURN JUMPDEST PUSH2 0xA2 PUSH1 0x4 DUP1 CALLDATASIZE SUB DUP2 ADD SWAP1 PUSH2 0x9D SWAP2 SWAP1 PUSH2 0x10DA JUMP JUMPDEST PUSH2 0x68B JUMP JUMPDEST PUSH1 0x40 MLOAD PUSH2 0xAF SWAP2 SWAP1 PUSH2 0x11B3 JUMP JUMPDEST PUSH1 0x40 MLOAD DUP1 SWAP2 SUB SWAP1 RETURN JUMPDEST PUSH2 0xD2 PUSH1 0x4 DUP1 CALLDATASIZE SUB DUP2 ADD SWAP1 PUSH2 0xCD SWAP2 SWAP1 PUSH2 0x11D3 JUMP JUMPDEST PUSH2 0x97F JUMP JUMPDEST PUSH1 0x40 MLOAD PUSH2 0xDF SWAP2 SWAP1 PUSH2 0x11B3 JUMP JUMPDEST PUSH1 0x40 MLOAD DUP1 SWAP2 SUB SWAP1 RETURN JUMPDEST PUSH0 DUP1 SLOAD SWAP1 PUSH2 0x100 EXP SWAP1 DIV PUSH20 0xFFFFFFFFFFFFFFFFFFFFFFFFFFFFFFFFFFFFFFFF AND PUSH20 0xFFFFFFFFFFFFFFFFFFFFFFFFFFFFFFFFFFFFFFFF AND CALLER PUSH20 0xFFFFFFFFFFFFFFFFFFFFFFFFFFFFFFFFFFFFFFFF AND EQ PUSH2 0x175 JUMPI PUSH1 0x40 MLOAD PUSH32 0x8C379A000000000000000000000000000000000000000000000000000000000 DUP2 MSTORE PUSH1 0x4 ADD PUSH2 0x16C SWAP1 PUSH2 0x1258 JUMP JUMPDEST PUSH1 0x40 MLOAD DUP1 SWAP2 SUB SWAP1 REVERT JUMPDEST PUSH1 0x3 PUSH0 DUP5 DUP2 MSTORE PUSH1 0x20 ADD SWAP1 DUP2 MSTORE PUSH1 0x20 ADD PUSH0 KECCAK256 PUSH0 SWAP1 SLOAD SWAP1 PUSH2 0x100 EXP SWAP1 DIV PUSH1 0xFF AND ISZERO PUSH2 0x1D3 JUMPI PUSH1 0x40 MLOAD PUSH32 0x8C379A000000000000000000000000000000000000000000000000000000000 DUP2 MSTORE PUSH1 0x4 ADD PUSH2 0x1CA SWAP1 PUSH2 0x12C0 JUMP JUMPDEST PUSH1 0x40 MLOAD DUP1 SWAP2 SUB SWAP1 REVERT JUMPDEST PUSH1 0x21 DUP2 LT PUSH2 0x3CD JUMPI PUSH0 DUP4 DUP4 PUSH1 0x40 MLOAD PUSH1 0x20 ADD PUSH2 0x1EF SWAP3 SWAP2 SWAP1 PUSH2 0x1338 JUMP JUMPDEST PUSH1 0x40 MLOAD PUSH1 0x20 DUP2 DUP4 SUB SUB DUP2 MSTORE SWAP1 PUSH1 0x40 MSTORE DUP1 MLOAD SWAP1 PUSH1 0x20 ADD KECCAK256 SWAP1 POP PUSH0 PUSH1 0x40 MLOAD DUP1 PUSH1 0xE0 ADD PUSH1 0x40 MSTORE DUP1 DUP7 DUP2 MSTORE PUSH1 0x20 ADD DUP6 DUP2 MSTORE PUSH1 0x20 ADD DUP5 DUP2 MSTORE PUSH1 0x20 ADD PUSH1 0x40 MLOAD DUP1 PUSH1 0x40 ADD PUSH1 0x40 MSTORE DUP1 PUSH1 0x4 DUP2 MSTORE PUSH1 0x20 ADD PUSH32 0x5061737300000000000000000000000000000000000000000000000000000000 DUP2 MSTORE POP DUP2 MSTORE PUSH1 0x20 ADD PUSH1 0x40 MLOAD DUP1 PUSH1 0x40 ADD PUSH1 0x40 MSTORE DUP1 PUSH1 0x4 DUP2 MSTORE PUSH1 0x20 ADD PUSH32 0x5061737300000000000000000000000000000000000000000000000000000000 DUP2 MSTORE POP DUP2 MSTORE PUSH1 0x20 ADD PUSH1 0x40 MLOAD DUP1 PUSH1 0x40 ADD PUSH1 0x40 MSTORE DUP1 PUSH1 0x4 DUP2 MSTORE PUSH1 0x20 ADD PUSH32 0x5061737300000000000000000000000000000000000000000000000000000000 DUP2 MSTORE POP DUP2 MSTORE PUSH1 0x20 ADD DUP4 DUP2 MSTORE POP SWAP1 POP PUSH1 0x1 DUP2 SWAP1 DUP1 PUSH1 0x1 DUP2 SLOAD ADD DUP1 DUP3 SSTORE DUP1 SWAP2 POP POP PUSH1 0x1 SWAP1 SUB SWAP1 PUSH0 MSTORE PUSH1 0x20 PUSH0 KECCAK256 SWAP1 PUSH1 0x7 MUL ADD PUSH0 SWAP1 SWAP2 SWAP1 SWAP2 SWAP1 SWAP2 POP PUSH0 DUP3 ADD MLOAD DUP2 PUSH0 ADD SSTORE PUSH1 0x20 DUP3 ADD MLOAD DUP2 PUSH1 0x1 ADD SWAP1 DUP2 PUSH2 0x322 SWAP2 SWAP1 PUSH2 0x1559 JUMP JUMPDEST POP PUSH1 0x40 DUP3 ADD MLOAD DUP2 PUSH1 0x2 ADD SSTORE PUSH1 0x60 DUP3 ADD MLOAD DUP2 PUSH1 0x3 ADD SWAP1 DUP2 PUSH2 0x342 SWAP2 SWAP1 PUSH2 0x1559 JUMP JUMPDEST POP PUSH1 0x80 DUP3 ADD MLOAD DUP2 PUSH1 0x4 ADD SWAP1 DUP2 PUSH2 0x358 SWAP2 SWAP1 PUSH2 0x1559 JUMP JUMPDEST POP PUSH1 0xA0 DUP3 ADD MLOAD DUP2 PUSH1 0x5 ADD SWAP1 DUP2 PUSH2 0x36E SWAP2 SWAP1 PUSH2 0x1559 JUMP JUMPDEST POP PUSH1 0xC0 DUP3 ADD MLOAD DUP2 PUSH1 0x6 ADD SSTORE POP POP PUSH1 0x1 DUP1 DUP1 SLOAD SWAP1 POP PUSH2 0x38C SWAP2 SWAP1 PUSH2 0x1655 JUMP JUMPDEST PUSH1 0x2 PUSH0 DUP5 DUP2 MSTORE PUSH1 0x20 ADD SWAP1 DUP2 MSTORE PUSH1 0x20 ADD PUSH0 KECCAK256 DUP2 SWAP1 SSTORE POP PUSH1 0x1 PUSH1 0x3 PUSH0 DUP8 DUP2 MSTORE PUSH1 0x20 ADD SWAP1 DUP2 MSTORE PUSH1 0x20 ADD PUSH0 KECCAK256 PUSH0 PUSH2 0x100 EXP DUP2 SLOAD DUP2 PUSH1 0xFF MUL NOT AND SWAP1 DUP4 ISZERO ISZERO MUL OR SWAP1 SSTORE POP POP POP JUMPDEST POP POP POP JUMP JUMPDEST PUSH1 0x60 PUSH1 0x1 DUP1 SLOAD DUP1 PUSH1 0x20 MUL PUSH1 0x20 ADD PUSH1 0x40 MLOAD SWAP1 DUP2 ADD PUSH1 0x40 MSTORE DUP1 SWAP3 SWAP2 SWAP1 DUP2 DUP2 MSTORE PUSH1 0x20 ADD PUSH0 SWAP1 JUMPDEST DUP3 DUP3 LT ISZERO PUSH2 0x682 JUMPI DUP4 DUP3 SWAP1 PUSH0 MSTORE PUSH1 0x20 PUSH0 KECCAK256 SWAP1 PUSH1 0x7 MUL ADD PUSH1 0x40 MLOAD DUP1 PUSH1 0xE0 ADD PUSH1 0x40 MSTORE SWAP1 DUP2 PUSH0 DUP3 ADD SLOAD DUP2 MSTORE PUSH1 0x20 ADD PUSH1 0x1 DUP3 ADD DUP1 SLOAD PUSH2 0x42F SWAP1 PUSH2 0x138C JUMP JUMPDEST DUP1 PUSH1 0x1F ADD PUSH1 0x20 DUP1 SWAP2 DIV MUL PUSH1 0x20 ADD PUSH1 0x40 MLOAD SWAP1 DUP2 ADD PUSH1 0x40 MSTORE DUP1 SWAP3 SWAP2 SWAP1 DUP2 DUP2 MSTORE PUSH1 0x20 ADD DUP3 DUP1 SLOAD PUSH2 0x45B SWAP1 PUSH2 0x138C JUMP JUMPDEST DUP1 ISZERO PUSH2 0x4A6 JUMPI DUP1 PUSH1 0x1F LT PUSH2 0x47D JUMPI PUSH2 0x100 DUP1 DUP4 SLOAD DIV MUL DUP4 MSTORE SWAP2 PUSH1 0x20 ADD SWAP2 PUSH2 0x4A6 JUMP JUMPDEST DUP3 ADD SWAP2 SWAP1 PUSH0 MSTORE PUSH1 0x20 PUSH0 KECCAK256 SWAP1 JUMPDEST DUP2 SLOAD DUP2 MSTORE SWAP1 PUSH1 0x1 ADD SWAP1 PUSH1 0x20 ADD DUP1 DUP4 GT PUSH2 0x489 JUMPI DUP3 SWAP1 SUB PUSH1 0x1F AND DUP3 ADD SWAP2 JUMPDEST POP POP POP POP POP DUP2 MSTORE PUSH1 0x20 ADD PUSH1 0x2 DUP3 ADD SLOAD DUP2 MSTORE PUSH1 0x20 ADD PUSH1 0x3 DUP3 ADD DUP1 SLOAD PUSH2 0x4C9 SWAP1 PUSH2 0x138C JUMP JUMPDEST DUP1 PUSH1 0x1F ADD PUSH1 0x20 DUP1 SWAP2 DIV MUL PUSH1 0x20 ADD PUSH1 0x40 MLOAD SWAP1 DUP2 ADD PUSH1 0x40 MSTORE DUP1 SWAP3 SWAP2 SWAP1 DUP2 DUP2 MSTORE PUSH1 0x20 ADD DUP3 DUP1 SLOAD PUSH2 0x4F5 SWAP1 PUSH2 0x138C JUMP JUMPDEST DUP1 ISZERO PUSH2 0x540 JUMPI DUP1 PUSH1 0x1F LT PUSH2 0x517 JUMPI PUSH2 0x100 DUP1 DUP4 SLOAD DIV MUL DUP4 MSTORE SWAP2 PUSH1 0x20 ADD SWAP2 PUSH2 0x540 JUMP JUMPDEST DUP3 ADD SWAP2 SWAP1 PUSH0 MSTORE PUSH1 0x20 PUSH0 KECCAK256 SWAP1 JUMPDEST DUP2 SLOAD DUP2 MSTORE SWAP1 PUSH1 0x1 ADD SWAP1 PUSH1 0x20 ADD DUP1 DUP4 GT PUSH2 0x523 JUMPI DUP3 SWAP1 SUB PUSH1 0x1F AND DUP3 ADD SWAP2 JUMPDEST POP POP POP POP POP DUP2 MSTORE PUSH1 0x20 ADD PUSH1 0x4 DUP3 ADD DUP1 SLOAD PUSH2 0x559 SWAP1 PUSH2 0x138C JUMP JUMPDEST DUP1 PUSH1 0x1F ADD PUSH1 0x20 DUP1 SWAP2 DIV MUL PUSH1 0x20 ADD PUSH1 0x40 MLOAD SWAP1 DUP2 ADD PUSH1 0x40 MSTORE DUP1 SWAP3 SWAP2 SWAP1 DUP2 DUP2 MSTORE PUSH1 0x20 ADD DUP3 DUP1 SLOAD PUSH2 0x585 SWAP1 PUSH2 0x138C JUMP JUMPDEST DUP1 ISZERO PUSH2 0x5D0 JUMPI DUP1 PUSH1 0x1F LT PUSH2 0x5A7 JUMPI PUSH2 0x100 DUP1 DUP4 SLOAD DIV MUL DUP4 MSTORE SWAP2 PUSH1 0x20 ADD SWAP2 PUSH2 0x5D0 JUMP JUMPDEST DUP3 ADD SWAP2 SWAP1 PUSH0 MSTORE PUSH1 0x20 PUSH0 KECCAK256 SWAP1 JUMPDEST DUP2 SLOAD DUP2 MSTORE SWAP1 PUSH1 0x1 ADD SWAP1 PUSH1 0x20 ADD DUP1 DUP4 GT PUSH2 0x5B3 JUMPI DUP3 SWAP1 SUB PUSH1 0x1F AND DUP3 ADD SWAP2 JUMPDEST POP POP POP POP POP DUP2 MSTORE PUSH1 0x20 ADD PUSH1 0x5 DUP3 ADD DUP1 SLOAD PUSH2 0x5E9 SWAP1 PUSH2 0x138C JUMP JUMPDEST DUP1 PUSH1 0x1F ADD PUSH1 0x20 DUP1 SWAP2 DIV MUL PUSH1 0x20 ADD PUSH1 0x40 MLOAD SWAP1 DUP2 ADD PUSH1 0x40 MSTORE DUP1 SWAP3 SWAP2 SWAP1 DUP2 DUP2 MSTORE PUSH1 0x20 ADD DUP3 DUP1 SLOAD PUSH2 0x615 SWAP1 PUSH2 0x138C JUMP JUMPDEST DUP1 ISZERO PUSH2 0x660 JUMPI DUP1 PUSH1 0x1F LT PUSH2 0x637 JUMPI PUSH2 0x100 DUP1 DUP4 SLOAD DIV MUL DUP4 MSTORE SWAP2 PUSH1 0x20 ADD SWAP2 PUSH2 0x660 JUMP JUMPDEST DUP3 ADD SWAP2 SWAP1 PUSH0 MSTORE PUSH1 0x20 PUSH0 KECCAK256 SWAP1 JUMPDEST DUP2 SLOAD DUP2 MSTORE SWAP1 PUSH1 0x1 ADD SWAP1 PUSH1 0x20 ADD DUP1 DUP4 GT PUSH2 0x643 JUMPI DUP3 SWAP1 SUB PUSH1 0x1F AND DUP3 ADD SWAP2 JUMPDEST POP POP POP POP POP DUP2 MSTORE PUSH1 0x20 ADD PUSH1 0x6 DUP3 ADD SLOAD DUP2 MSTORE POP POP DUP2 MSTORE PUSH1 0x20 ADD SWAP1 PUSH1 0x1 ADD SWAP1 PUSH2 0x3F5 JUMP JUMPDEST POP POP POP POP SWAP1 POP SWAP1 JUMP JUMPDEST PUSH2 0x693 PUSH2 0xC5D JUMP JUMPDEST PUSH0 PUSH1 0x2 PUSH0 DUP5 DUP2 MSTORE PUSH1 0x20 ADD SWAP1 DUP2 MSTORE PUSH1 0x20 ADD PUSH0 KECCAK256 SLOAD SWAP1 POP PUSH1 0x1 DUP1 SLOAD SWAP1 POP DUP2 LT PUSH2 0x6EF JUMPI PUSH1 0x40 MLOAD PUSH32 0x8C379A000000000000000000000000000000000000000000000000000000000 DUP2 MSTORE PUSH1 0x4 ADD PUSH2 0x6E6 SWAP1 PUSH2 0x16F8 JUMP JUMPDEST PUSH1 0x40 MLOAD DUP1 SWAP2 SUB SWAP1 REVERT JUMPDEST PUSH1 0x1 DUP2 DUP2 SLOAD DUP2 LT PUSH2 0x703 JUMPI PUSH2 0x702 PUSH2 0x1716 JUMP JUMPDEST JUMPDEST SWAP1 PUSH0 MSTORE PUSH1 0x20 PUSH0 KECCAK256 SWAP1 PUSH1 0x7 MUL ADD PUSH1 0x40 MLOAD DUP1 PUSH1 0xE0 ADD PUSH1 0x40 MSTORE SWAP1 DUP2 PUSH0 DUP3 ADD SLOAD DUP2 MSTORE PUSH1 0x20 ADD PUSH1 0x1 DUP3 ADD DUP1 SLOAD PUSH2 0x733 SWAP1 PUSH2 0x138C JUMP JUMPDEST DUP1 PUSH1 0x1F ADD PUSH1 0x20 DUP1 SWAP2 DIV MUL PUSH1 0x20 ADD PUSH1 0x40 MLOAD SWAP1 DUP2 ADD PUSH1 0x40 MSTORE DUP1 SWAP3 SWAP2 SWAP1 DUP2 DUP2 MSTORE PUSH1 0x20 ADD DUP3 DUP1 SLOAD PUSH2 0x75F SWAP1 PUSH2 0x138C JUMP JUMPDEST DUP1 ISZERO PUSH2 0x7AA JUMPI DUP1 PUSH1 0x1F LT PUSH2 0x781 JUMPI PUSH2 0x100 DUP1 DUP4 SLOAD DIV MUL DUP4 MSTORE SWAP2 PUSH1 0x20 ADD SWAP2 PUSH2 0x7AA JUMP JUMPDEST DUP3 ADD SWAP2 SWAP1 PUSH0 MSTORE PUSH1 0x20 PUSH0 KECCAK256 SWAP1 JUMPDEST DUP2 SLOAD DUP2 MSTORE SWAP1 PUSH1 0x1 ADD SWAP1 PUSH1 0x20 ADD DUP1 DUP4 GT PUSH2 0x78D JUMPI DUP3 SWAP1 SUB PUSH1 0x1F AND DUP3 ADD SWAP2 JUMPDEST POP POP POP POP POP DUP2 MSTORE PUSH1 0x20 ADD PUSH1 0x2 DUP3 ADD SLOAD DUP2 MSTORE PUSH1 0x20 ADD PUSH1 0x3 DUP3 ADD DUP1 SLOAD PUSH2 0x7CD SWAP1 PUSH2 0x138C JUMP JUMPDEST DUP1 PUSH1 0x1F ADD PUSH1 0x20 DUP1 SWAP2 DIV MUL PUSH1 0x20 ADD PUSH1 0x40 MLOAD SWAP1 DUP2 ADD PUSH1 0x40 MSTORE DUP1 SWAP3 SWAP2 SWAP1 DUP2 DUP2 MSTORE PUSH1 0x20 ADD DUP3 DUP1 SLOAD PUSH2 0x7F9 SWAP1 PUSH2 0x138C JUMP JUMPDEST DUP1 ISZERO PUSH2 0x844 JUMPI DUP1 PUSH1 0x1F LT PUSH2 0x81B JUMPI PUSH2 0x100 DUP1 DUP4 SLOAD DIV MUL DUP4 MSTORE SWAP2 PUSH1 0x20 ADD SWAP2 PUSH2 0x844 JUMP JUMPDEST DUP3 ADD SWAP2 SWAP1 PUSH0 MSTORE PUSH1 0x20 PUSH0 KECCAK256 SWAP1 JUMPDEST DUP2 SLOAD DUP2 MSTORE SWAP1 PUSH1 0x1 ADD SWAP1 PUSH1 0x20 ADD DUP1 DUP4 GT PUSH2 0x827 JUMPI DUP3 SWAP1 SUB PUSH1 0x1F AND DUP3 ADD SWAP2 JUMPDEST POP POP POP POP POP DUP2 MSTORE PUSH1 0x20 ADD PUSH1 0x4 DUP3 ADD DUP1 SLOAD PUSH2 0x85D SWAP1 PUSH2 0x138C JUMP JUMPDEST DUP1 PUSH1 0x1F ADD PUSH1 0x20 DUP1 SWAP2 DIV MUL PUSH1 0x20 ADD PUSH1 0x40 MLOAD SWAP1 DUP2 ADD PUSH1 0x40 MSTORE DUP1 SWAP3 SWAP2 SWAP1 DUP2 DUP2 MSTORE PUSH1 0x20 ADD DUP3 DUP1 SLOAD PUSH2 0x889 SWAP1 PUSH2 0x138C JUMP JUMPDEST DUP1 ISZERO PUSH2 0x8D4 JUMPI DUP1 PUSH1 0x1F LT PUSH2 0x8AB JUMPI PUSH2 0x100 DUP1 DUP4 SLOAD DIV MUL DUP4 MSTORE SWAP2 PUSH1 0x20 ADD SWAP2 PUSH2 0x8D4 JUMP JUMPDEST DUP3 ADD SWAP2 SWAP1 PUSH0 MSTORE PUSH1 0x20 PUSH0 KECCAK256 SWAP1 JUMPDEST DUP2 SLOAD DUP2 MSTORE SWAP1 PUSH1 0x1 ADD SWAP1 PUSH1 0x20 ADD DUP1 DUP4 GT PUSH2 0x8B7 JUMPI DUP3 SWAP1 SUB PUSH1 0x1F AND DUP3 ADD SWAP2 JUMPDEST POP POP POP POP POP DUP2 MSTORE PUSH1 0x20 ADD PUSH1 0x5 DUP3 ADD DUP1 SLOAD PUSH2 0x8ED SWAP1 PUSH2 0x138C JUMP JUMPDEST DUP1 PUSH1 0x1F ADD PUSH1 0x20 DUP1 SWAP2 DIV MUL PUSH1 0x20 ADD PUSH1 0x40 MLOAD SWAP1 DUP2 ADD PUSH1 0x40 MSTORE DUP1 SWAP3 SWAP2 SWAP1 DUP2 DUP2 MSTORE PUSH1 0x20 ADD DUP3 DUP1 SLOAD PUSH2 0x919 SWAP1 PUSH2 0x138C JUMP JUMPDEST DUP1 ISZERO PUSH2 0x964 JUMPI DUP1 PUSH1 0x1F LT PUSH2 0x93B JUMPI PUSH2 0x100 DUP1 DUP4 SLOAD DIV MUL DUP4 MSTORE SWAP2 PUSH1 0x20 ADD SWAP2 PUSH2 0x964 JUMP JUMPDEST DUP3 ADD SWAP2 SWAP1 PUSH0 MSTORE PUSH1 0x20 PUSH0 KECCAK256 SWAP1 JUMPDEST DUP2 SLOAD DUP2 MSTORE SWAP1 PUSH1 0x1 ADD SWAP1 PUSH1 0x20 ADD DUP1 DUP4 GT PUSH2 0x947 JUMPI DUP3 SWAP1 SUB PUSH1 0x1F AND DUP3 ADD SWAP2 JUMPDEST POP POP POP POP POP DUP2 MSTORE PUSH1 0x20 ADD PUSH1 0x6 DUP3 ADD SLOAD DUP2 MSTORE POP POP SWAP2 POP POP SWAP2 SWAP1 POP JUMP JUMPDEST PUSH2 0x987 PUSH2 0xC5D JUMP JUMPDEST PUSH1 0x1 DUP1 SLOAD SWAP1 POP DUP3 LT PUSH2 0x9CE JUMPI PUSH1 0x40 MLOAD PUSH32 0x8C379A000000000000000000000000000000000000000000000000000000000 DUP2 MSTORE PUSH1 0x4 ADD PUSH2 0x9C5 SWAP1 PUSH2 0x178D JUMP JUMPDEST PUSH1 0x40 MLOAD DUP1 SWAP2 SUB SWAP1 REVERT JUMPDEST PUSH1 0x1 DUP3 DUP2 SLOAD DUP2 LT PUSH2 0x9E2 JUMPI PUSH2 0x9E1 PUSH2 0x1716 JUMP JUMPDEST JUMPDEST SWAP1 PUSH0 MSTORE PUSH1 0x20 PUSH0 KECCAK256 SWAP1 PUSH1 0x7 MUL ADD PUSH1 0x40 MLOAD DUP1 PUSH1 0xE0 ADD PUSH1 0x40 MSTORE SWAP1 DUP2 PUSH0 DUP3 ADD SLOAD DUP2 MSTORE PUSH1 0x20 ADD PUSH1 0x1 DUP3 ADD DUP1 SLOAD PUSH2 0xA12 SWAP1 PUSH2 0x138C JUMP JUMPDEST DUP1 PUSH1 0x1F ADD PUSH1 0x20 DUP1 SWAP2 DIV MUL PUSH1 0x20 ADD PUSH1 0x40 MLOAD SWAP1 DUP2 ADD PUSH1 0x40 MSTORE DUP1 SWAP3 SWAP2 SWAP1 DUP2 DUP2 MSTORE PUSH1 0x20 ADD DUP3 DUP1 SLOAD PUSH2 0xA3E SWAP1 PUSH2 0x138C JUMP JUMPDEST DUP1 ISZERO PUSH2 0xA89 JUMPI DUP1 PUSH1 0x1F LT PUSH2 0xA60 JUMPI PUSH2 0x100 DUP1 DUP4 SLOAD DIV MUL DUP4 MSTORE SWAP2 PUSH1 0x20 ADD SWAP2 PUSH2 0xA89 JUMP JUMPDEST DUP3 ADD SWAP2 SWAP1 PUSH0 MSTORE PUSH1 0x20 PUSH0 KECCAK256 SWAP1 JUMPDEST DUP2 SLOAD DUP2 MSTORE SWAP1 PUSH1 0x1 ADD SWAP1 PUSH1 0x20 ADD DUP1 DUP4 GT PUSH2 0xA6C JUMPI DUP3 SWAP1 SUB PUSH1 0x1F AND DUP3 ADD SWAP2 JUMPDEST POP POP POP POP POP DUP2 MSTORE PUSH1 0x20 ADD PUSH1 0x2 DUP3 ADD SLOAD DUP2 MSTORE PUSH1 0x20 ADD PUSH1 0x3 DUP3 ADD DUP1 SLOAD PUSH2 0xAAC SWAP1 PUSH2 0x138C JUMP JUMPDEST DUP1 PUSH1 0x1F ADD PUSH1 0x20 DUP1 SWAP2 DIV MUL PUSH1 0x20 ADD PUSH1 0x40 MLOAD SWAP1 DUP2 ADD PUSH1 0x40 MSTORE DUP1 SWAP3 SWAP2 SWAP1 DUP2 DUP2 MSTORE PUSH1 0x20 ADD DUP3 DUP1 SLOAD PUSH2 0xAD8 SWAP1 PUSH2 0x138C JUMP JUMPDEST DUP1 ISZERO PUSH2 0xB23 JUMPI DUP1 PUSH1 0x1F LT PUSH2 0xAFA JUMPI PUSH2 0x100 DUP1 DUP4 SLOAD DIV MUL DUP4 MSTORE SWAP2 PUSH1 0x20 ADD SWAP2 PUSH2 0xB23 JUMP JUMPDEST DUP3 ADD SWAP2 SWAP1 PUSH0 MSTORE PUSH1 0x20 PUSH0 KECCAK256 SWAP1 JUMPDEST DUP2 SLOAD DUP2 MSTORE SWAP1 PUSH1 0x1 ADD SWAP1 PUSH1 0x20 ADD DUP1 DUP4 GT PUSH2 0xB06 JUMPI DUP3 SWAP1 SUB PUSH1 0x1F AND DUP3 ADD SWAP2 JUMPDEST POP POP POP POP POP DUP2 MSTORE PUSH1 0x20 ADD PUSH1 0x4 DUP3 ADD DUP1 SLOAD PUSH2 0xB3C SWAP1 PUSH2 0x138C JUMP JUMPDEST DUP1 PUSH1 0x1F ADD PUSH1 0x20 DUP1 SWAP2 DIV MUL PUSH1 0x20 ADD PUSH1 0x40 MLOAD SWAP1 DUP2 ADD PUSH1 0x40 MSTORE DUP1 SWAP3 SWAP2 SWAP1 DUP2 DUP2 MSTORE PUSH1 0x20 ADD DUP3 DUP1 SLOAD PUSH2 0xB68 SWAP1 PUSH2 0x138C JUMP JUMPDEST DUP1 ISZERO PUSH2 0xBB3 JUMPI DUP1 PUSH1 0x1F LT PUSH2 0xB8A JUMPI PUSH2 0x100 DUP1 DUP4 SLOAD DIV MUL DUP4 MSTORE SWAP2 PUSH1 0x20 ADD SWAP2 PUSH2 0xBB3 JUMP JUMPDEST DUP3 ADD SWAP2 SWAP1 PUSH0 MSTORE PUSH1 0x20 PUSH0 KECCAK256 SWAP1 JUMPDEST DUP2 SLOAD DUP2 MSTORE SWAP1 PUSH1 0x1 ADD SWAP1 PUSH1 0x20 ADD DUP1 DUP4 GT PUSH2 0xB96 JUMPI DUP3 SWAP1 SUB PUSH1 0x1F AND DUP3 ADD SWAP2 JUMPDEST POP POP POP POP POP DUP2 MSTORE PUSH1 0x20 ADD PUSH1 0x5 DUP3 ADD DUP1 SLOAD PUSH2 0xBCC SWAP1 PUSH2 0x138C JUMP JUMPDEST DUP1 PUSH1 0x1F ADD PUSH1 0x20 DUP1 SWAP2 DIV MUL PUSH1 0x20 ADD PUSH1 0x40 MLOAD SWAP1 DUP2 ADD PUSH1 0x40 MSTORE DUP1 SWAP3 SWAP2 SWAP1 DUP2 DUP2 MSTORE PUSH1 0x20 ADD DUP3 DUP1 SLOAD PUSH2 0xBF8 SWAP1 PUSH2 0x138C JUMP JUMPDEST DUP1 ISZERO PUSH2 0xC43 JUMPI DUP1 PUSH1 0x1F LT PUSH2 0xC1A JUMPI PUSH2 0x100 DUP1 DUP4 SLOAD DIV MUL DUP4 MSTORE SWAP2 PUSH1 0x20 ADD SWAP2 PUSH2 0xC43 JUMP JUMPDEST DUP3 ADD SWAP2 SWAP1 PUSH0 MSTORE PUSH1 0x20 PUSH0 KECCAK256 SWAP1 JUMPDEST DUP2 SLOAD DUP2 MSTORE SWAP1 PUSH1 0x1 ADD SWAP1 PUSH1 0x20 ADD DUP1 DUP4 GT PUSH2 0xC26 JUMPI DUP3 SWAP1 SUB PUSH1 0x1F AND DUP3 ADD SWAP2 JUMPDEST POP POP POP POP POP DUP2 MSTORE PUSH1 0x20 ADD PUSH1 0x6 DUP3 ADD SLOAD DUP2 MSTORE POP POP SWAP1 POP SWAP2 SWAP1 POP JUMP JUMPDEST PUSH1 0x40 MLOAD DUP1 PUSH1 0xE0 ADD PUSH1 0x40 MSTORE DUP1 PUSH0 DUP2 MSTORE PUSH1 0x20 ADD PUSH1 0x60 DUP2 MSTORE PUSH1 0x20 ADD PUSH0 DUP2 MSTORE PUSH1 0x20 ADD PUSH1 0x60 DUP2 MSTORE PUSH1 0x20 ADD PUSH1 0x60 DUP2 MSTORE PUSH1 0x20 ADD PUSH1 0x60 DUP2 MSTORE PUSH1 0x20 ADD PUSH0 DUP1 NOT AND DUP2 MSTORE POP SWAP1 JUMP JUMPDEST PUSH0 PUSH1 0x40 MLOAD SWAP1 POP SWAP1 JUMP JUMPDEST PUSH0 DUP1 REVERT JUMPDEST PUSH0 DUP1 REVERT JUMPDEST PUSH0 DUP2 SWAP1 POP SWAP2 SWAP1 POP JUMP JUMPDEST PUSH2 0xCBD DUP2 PUSH2 0xCAB JUMP JUMPDEST DUP2 EQ PUSH2 0xCC7 JUMPI PUSH0 DUP1 REVERT JUMPDEST POP JUMP JUMPDEST PUSH0 DUP2 CALLDATALOAD SWAP1 POP PUSH2 0xCD8 DUP2 PUSH2 0xCB4 JUMP JUMPDEST SWAP3 SWAP2 POP POP JUMP JUMPDEST PUSH0 DUP1 REVERT JUMPDEST PUSH0 DUP1 REVERT JUMPDEST PUSH0 PUSH1 0x1F NOT PUSH1 0x1F DUP4 ADD AND SWAP1 POP SWAP2 SWAP1 POP JUMP JUMPDEST PUSH32 0x4E487B7100000000000000000000000000000000000000000000000000000000 PUSH0 MSTORE PUSH1 0x41 PUSH1 0x4 MSTORE PUSH1 0x24 PUSH0 REVERT JUMPDEST PUSH2 0xD2C DUP3 PUSH2 0xCE6 JUMP JUMPDEST DUP2 ADD DUP2 DUP2 LT PUSH8 0xFFFFFFFFFFFFFFFF DUP3 GT OR ISZERO PUSH2 0xD4B JUMPI PUSH2 0xD4A PUSH2 0xCF6 JUMP JUMPDEST JUMPDEST DUP1 PUSH1 0x40 MSTORE POP POP POP JUMP JUMPDEST PUSH0 PUSH2 0xD5D PUSH2 0xC9A JUMP JUMPDEST SWAP1 POP PUSH2 0xD69 DUP3 DUP3 PUSH2 0xD23 JUMP JUMPDEST SWAP2 SWAP1 POP JUMP JUMPDEST PUSH0 PUSH8 0xFFFFFFFFFFFFFFFF DUP3 GT ISZERO PUSH2 0xD88 JUMPI PUSH2 0xD87 PUSH2 0xCF6 JUMP JUMPDEST JUMPDEST PUSH2 0xD91 DUP3 PUSH2 0xCE6 JUMP JUMPDEST SWAP1 POP PUSH1 0x20 DUP2 ADD SWAP1 POP SWAP2 SWAP1 POP JUMP JUMPDEST DUP3 DUP2 DUP4 CALLDATACOPY PUSH0 DUP4 DUP4 ADD MSTORE POP POP POP JUMP JUMPDEST PUSH0 PUSH2 0xDBE PUSH2 0xDB9 DUP5 PUSH2 0xD6E JUMP JUMPDEST PUSH2 0xD54 JUMP JUMPDEST SWAP1 POP DUP3 DUP2 MSTORE PUSH1 0x20 DUP2 ADD DUP5 DUP5 DUP5 ADD GT ISZERO PUSH2 0xDDA JUMPI PUSH2 0xDD9 PUSH2 0xCE2 JUMP JUMPDEST JUMPDEST PUSH2 0xDE5 DUP5 DUP3 DUP6 PUSH2 0xD9E JUMP JUMPDEST POP SWAP4 SWAP3 POP POP POP JUMP JUMPDEST PUSH0 DUP3 PUSH1 0x1F DUP4 ADD SLT PUSH2 0xE01 JUMPI PUSH2 0xE00 PUSH2 0xCDE JUMP JUMPDEST JUMPDEST DUP2 CALLDATALOAD PUSH2 0xE11 DUP5 DUP3 PUSH1 0x20 DUP7 ADD PUSH2 0xDAC JUMP JUMPDEST SWAP2 POP POP SWAP3 SWAP2 POP POP JUMP JUMPDEST PUSH0 DUP1 PUSH0 PUSH1 0x60 DUP5 DUP7 SUB SLT ISZERO PUSH2 0xE31 JUMPI PUSH2 0xE30 PUSH2 0xCA3 JUMP JUMPDEST JUMPDEST PUSH0 PUSH2 0xE3E DUP7 DUP3 DUP8 ADD PUSH2 0xCCA JUMP JUMPDEST SWAP4 POP POP PUSH1 0x20 DUP5 ADD CALLDATALOAD PUSH8 0xFFFFFFFFFFFFFFFF DUP2 GT ISZERO PUSH2 0xE5F JUMPI PUSH2 0xE5E PUSH2 0xCA7 JUMP JUMPDEST JUMPDEST PUSH2 0xE6B DUP7 DUP3 DUP8 ADD PUSH2 0xDED JUMP JUMPDEST SWAP3 POP POP PUSH1 0x40 PUSH2 0xE7C DUP7 DUP3 DUP8 ADD PUSH2 0xCCA JUMP JUMPDEST SWAP2 POP POP SWAP3 POP SWAP3 POP SWAP3 JUMP JUMPDEST PUSH0 DUP2 MLOAD SWAP1 POP SWAP2 SWAP1 POP JUMP JUMPDEST PUSH0 DUP3 DUP3 MSTORE PUSH1 0x20 DUP3 ADD SWAP1 POP SWAP3 SWAP2 POP POP JUMP JUMPDEST PUSH0 DUP2 SWAP1 POP PUSH1 0x20 DUP3 ADD SWAP1 POP SWAP2 SWAP1 POP JUMP JUMPDEST PUSH2 0xEB8 DUP2 PUSH2 0xCAB JUMP JUMPDEST DUP3 MSTORE POP POP JUMP JUMPDEST PUSH0 DUP2 MLOAD SWAP1 POP SWAP2 SWAP1 POP JUMP JUMPDEST PUSH0 DUP3 DUP3 MSTORE PUSH1 0x20 DUP3 ADD SWAP1 POP SWAP3 SWAP2 POP POP JUMP JUMPDEST PUSH0 JUMPDEST DUP4 DUP2 LT ISZERO PUSH2 0xEF5 JUMPI DUP1 DUP3 ADD MLOAD DUP2 DUP5 ADD MSTORE PUSH1 0x20 DUP2 ADD SWAP1 POP PUSH2 0xEDA JUMP JUMPDEST PUSH0 DUP5 DUP5 ADD MSTORE POP POP POP POP JUMP JUMPDEST PUSH0 PUSH2 0xF0A DUP3 PUSH2 0xEBE JUMP JUMPDEST PUSH2 0xF14 DUP2 DUP6 PUSH2 0xEC8 JUMP JUMPDEST SWAP4 POP PUSH2 0xF24 DUP2 DUP6 PUSH1 0x20 DUP7 ADD PUSH2 0xED8 JUMP JUMPDEST PUSH2 0xF2D DUP2 PUSH2 0xCE6 JUMP JUMPDEST DUP5 ADD SWAP2 POP POP SWAP3 SWAP2 POP POP JUMP JUMPDEST PUSH0 DUP2 SWAP1 POP SWAP2 SWAP1 POP JUMP JUMPDEST PUSH2 0xF4A DUP2 PUSH2 0xF38 JUMP JUMPDEST DUP3 MSTORE POP POP JUMP JUMPDEST PUSH0 PUSH1 0xE0 DUP4 ADD PUSH0 DUP4 ADD MLOAD PUSH2 0xF65 PUSH0 DUP7 ADD DUP3 PUSH2 0xEAF JUMP JUMPDEST POP PUSH1 0x20 DUP4 ADD MLOAD DUP5 DUP3 SUB PUSH1 0x20 DUP7 ADD MSTORE PUSH2 0xF7D DUP3 DUP3 PUSH2 0xF00 JUMP JUMPDEST SWAP2 POP POP PUSH1 0x40 DUP4 ADD MLOAD PUSH2 0xF92 PUSH1 0x40 DUP7 ADD DUP3 PUSH2 0xEAF JUMP JUMPDEST POP PUSH1 0x60 DUP4 ADD MLOAD DUP5 DUP3 SUB PUSH1 0x60 DUP7 ADD MSTORE PUSH2 0xFAA DUP3 DUP3 PUSH2 0xF00 JUMP JUMPDEST SWAP2 POP POP PUSH1 0x80 DUP4 ADD MLOAD DUP5 DUP3 SUB PUSH1 0x80 DUP7 ADD MSTORE PUSH2 0xFC4 DUP3 DUP3 PUSH2 0xF00 JUMP JUMPDEST SWAP2 POP POP PUSH1 0xA0 DUP4 ADD MLOAD DUP5 DUP3 SUB PUSH1 0xA0 DUP7 ADD MSTORE PUSH2 0xFDE DUP3 DUP3 PUSH2 0xF00 JUMP JUMPDEST SWAP2 POP POP PUSH1 0xC0 DUP4 ADD MLOAD PUSH2 0xFF3 PUSH1 0xC0 DUP7 ADD DUP3 PUSH2 0xF41 JUMP JUMPDEST POP DUP1 SWAP2 POP POP SWAP3 SWAP2 POP POP JUMP JUMPDEST PUSH0 PUSH2 0x1009 DUP4 DUP4 PUSH2 0xF50 JUMP JUMPDEST SWAP1 POP SWAP3 SWAP2 POP POP JUMP JUMPDEST PUSH0 PUSH1 0x20 DUP3 ADD SWAP1 POP SWAP2 SWAP1 POP JUMP JUMPDEST PUSH0 PUSH2 0x1027 DUP3 PUSH2 0xE86 JUMP JUMPDEST PUSH2 0x1031 DUP2 DUP6 PUSH2 0xE90 JUMP JUMPDEST SWAP4 POP DUP4 PUSH1 0x20 DUP3 MUL DUP6 ADD PUSH2 0x1043 DUP6 PUSH2 0xEA0 JUMP JUMPDEST DUP1 PUSH0 JUMPDEST DUP6 DUP2 LT ISZERO PUSH2 0x107E JUMPI DUP5 DUP5 SUB DUP10 MSTORE DUP2 MLOAD PUSH2 0x105F DUP6 DUP3 PUSH2 0xFFE JUMP JUMPDEST SWAP5 POP PUSH2 0x106A DUP4 PUSH2 0x1011 JUMP JUMPDEST SWAP3 POP PUSH1 0x20 DUP11 ADD SWAP10 POP POP PUSH1 0x1 DUP2 ADD SWAP1 POP PUSH2 0x1046 JUMP JUMPDEST POP DUP3 SWAP8 POP DUP8 SWAP6 POP POP POP POP POP POP SWAP3 SWAP2 POP POP JUMP JUMPDEST PUSH0 PUSH1 0x20 DUP3 ADD SWAP1 POP DUP2 DUP2 SUB PUSH0 DUP4 ADD MSTORE PUSH2 0x10A8 DUP2 DUP5 PUSH2 0x101D JUMP JUMPDEST SWAP1 POP SWAP3 SWAP2 POP POP JUMP JUMPDEST PUSH2 0x10B9 DUP2 PUSH2 0xF38 JUMP JUMPDEST DUP2 EQ PUSH2 0x10C3 JUMPI PUSH0 DUP1 REVERT JUMPDEST POP JUMP JUMPDEST PUSH0 DUP2 CALLDATALOAD SWAP1 POP PUSH2 0x10D4 DUP2 PUSH2 0x10B0 JUMP JUMPDEST SWAP3 SWAP2 POP POP JUMP JUMPDEST PUSH0 PUSH1 0x20 DUP3 DUP5 SUB SLT ISZERO PUSH2 0x10EF JUMPI PUSH2 0x10EE PUSH2 0xCA3 JUMP JUMPDEST JUMPDEST PUSH0 PUSH2 0x10FC DUP5 DUP3 DUP6 ADD PUSH2 0x10C6 JUMP JUMPDEST SWAP2 POP POP SWAP3 SWAP2 POP POP JUMP JUMPDEST PUSH0 PUSH1 0xE0 DUP4 ADD PUSH0 DUP4 ADD MLOAD PUSH2 0x111A PUSH0 DUP7 ADD DUP3 PUSH2 0xEAF JUMP JUMPDEST POP PUSH1 0x20 DUP4 ADD MLOAD DUP5 DUP3 SUB PUSH1 0x20 DUP7 ADD MSTORE PUSH2 0x1132 DUP3 DUP3 PUSH2 0xF00 JUMP JUMPDEST SWAP2 POP POP PUSH1 0x40 DUP4 ADD MLOAD PUSH2 0x1147 PUSH1 0x40 DUP7 ADD DUP3 PUSH2 0xEAF JUMP JUMPDEST POP PUSH1 0x60 DUP4 ADD MLOAD DUP5 DUP3 SUB PUSH1 0x60 DUP7 ADD MSTORE PUSH2 0x115F DUP3 DUP3 PUSH2 0xF00 JUMP JUMPDEST SWAP2 POP POP PUSH1 0x80 DUP4 ADD MLOAD DUP5 DUP3 SUB PUSH1 0x80 DUP7 ADD MSTORE PUSH2 0x1179 DUP3 DUP3 PUSH2 0xF00 JUMP JUMPDEST SWAP2 POP POP PUSH1 0xA0 DUP4 ADD MLOAD DUP5 DUP3 SUB PUSH1 0xA0 DUP7 ADD MSTORE PUSH2 0x1193 DUP3 DUP3 PUSH2 0xF00 JUMP JUMPDEST SWAP2 POP POP PUSH1 0xC0 DUP4 ADD MLOAD PUSH2 0x11A8 PUSH1 0xC0 DUP7 ADD DUP3 PUSH2 0xF41 JUMP JUMPDEST POP DUP1 SWAP2 POP POP SWAP3 SWAP2 POP POP JUMP JUMPDEST PUSH0 PUSH1 0x20 DUP3 ADD SWAP1 POP DUP2 DUP2 SUB PUSH0 DUP4 ADD MSTORE PUSH2 0x11CB DUP2 DUP5 PUSH2 0x1105 JUMP JUMPDEST SWAP1 POP SWAP3 SWAP2 POP POP JUMP JUMPDEST PUSH0 PUSH1 0x20 DUP3 DUP5 SUB SLT ISZERO PUSH2 0x11E8 JUMPI PUSH2 0x11E7 PUSH2 0xCA3 JUMP JUMPDEST JUMPDEST PUSH0 PUSH2 0x11F5 DUP5 DUP3 DUP6 ADD PUSH2 0xCCA JUMP JUMPDEST SWAP2 POP POP SWAP3 SWAP2 POP POP JUMP JUMPDEST PUSH0 DUP3 DUP3 MSTORE PUSH1 0x20 DUP3 ADD SWAP1 POP SWAP3 SWAP2 POP POP JUMP JUMPDEST PUSH32 0x596F7520617265206E6F7420617574686F72697A656400000000000000000000 PUSH0 DUP3 ADD MSTORE POP JUMP JUMPDEST PUSH0 PUSH2 0x1242 PUSH1 0x16 DUP4 PUSH2 0x11FE JUMP JUMPDEST SWAP2 POP PUSH2 0x124D DUP3 PUSH2 0x120E JUMP JUMPDEST PUSH1 0x20 DUP3 ADD SWAP1 POP SWAP2 SWAP1 POP JUMP JUMPDEST PUSH0 PUSH1 0x20 DUP3 ADD SWAP1 POP DUP2 DUP2 SUB PUSH0 DUP4 ADD MSTORE PUSH2 0x126F DUP2 PUSH2 0x1236 JUMP JUMPDEST SWAP1 POP SWAP2 SWAP1 POP JUMP JUMPDEST PUSH32 0x526F6C6C206E756D62657220616C726561647920757365640000000000000000 PUSH0 DUP3 ADD MSTORE POP JUMP JUMPDEST PUSH0 PUSH2 0x12AA PUSH1 0x18 DUP4 PUSH2 0x11FE JUMP JUMPDEST SWAP2 POP PUSH2 0x12B5 DUP3 PUSH2 0x1276 JUMP JUMPDEST PUSH1 0x20 DUP3 ADD SWAP1 POP SWAP2 SWAP1 POP JUMP JUMPDEST PUSH0 PUSH1 0x20 DUP3 ADD SWAP1 POP DUP2 DUP2 SUB PUSH0 DUP4 ADD MSTORE PUSH2 0x12D7 DUP2 PUSH2 0x129E JUMP JUMPDEST SWAP1 POP SWAP2 SWAP1 POP JUMP JUMPDEST PUSH0 DUP2 SWAP1 POP SWAP2 SWAP1 POP JUMP JUMPDEST PUSH2 0x12F8 PUSH2 0x12F3 DUP3 PUSH2 0xCAB JUMP JUMPDEST PUSH2 0x12DE JUMP JUMPDEST DUP3 MSTORE POP POP JUMP JUMPDEST PUSH0 DUP2 SWAP1 POP SWAP3 SWAP2 POP POP JUMP JUMPDEST PUSH0 PUSH2 0x1312 DUP3 PUSH2 0xEBE JUMP JUMPDEST PUSH2 0x131C DUP2 DUP6 PUSH2 0x12FE JUMP JUMPDEST SWAP4 POP PUSH2 0x132C DUP2 DUP6 PUSH1 0x20 DUP7 ADD PUSH2 0xED8 JUMP JUMPDEST DUP1 DUP5 ADD SWAP2 POP POP SWAP3 SWAP2 POP POP JUMP JUMPDEST PUSH0 PUSH2 0x1343 DUP3 DUP6 PUSH2 0x12E7 JUMP JUMPDEST PUSH1 0x20 DUP3 ADD SWAP2 POP PUSH2 0x1353 DUP3 DUP5 PUSH2 0x1308 JUMP JUMPDEST SWAP2 POP DUP2 SWAP1 POP SWAP4 SWAP3 POP POP POP JUMP JUMPDEST PUSH32 0x4E487B7100000000000000000000000000000000000000000000000000000000 PUSH0 MSTORE PUSH1 0x22 PUSH1 0x4 MSTORE PUSH1 0x24 PUSH0 REVERT JUMPDEST PUSH0 PUSH1 0x2 DUP3 DIV SWAP1 POP PUSH1 0x1 DUP3 AND DUP1 PUSH2 0x13A3 JUMPI PUSH1 0x7F DUP3 AND SWAP2 POP JUMPDEST PUSH1 0x20 DUP3 LT DUP2 SUB PUSH2 0x13B6 JUMPI PUSH2 0x13B5 PUSH2 0x135F JUMP JUMPDEST JUMPDEST POP SWAP2 SWAP1 POP JUMP JUMPDEST PUSH0 DUP2 SWAP1 POP DUP2 PUSH0 MSTORE PUSH1 0x20 PUSH0 KECCAK256 SWAP1 POP SWAP2 SWAP1 POP JUMP JUMPDEST PUSH0 PUSH1 0x20 PUSH1 0x1F DUP4 ADD DIV SWAP1 POP SWAP2 SWAP1 POP JUMP JUMPDEST PUSH0 DUP3 DUP3 SHL SWAP1 POP SWAP3 SWAP2 POP POP JUMP JUMPDEST PUSH0 PUSH1 0x8 DUP4 MUL PUSH2 0x1418 PUSH32 0xFFFFFFFFFFFFFFFFFFFFFFFFFFFFFFFFFFFFFFFFFFFFFFFFFFFFFFFFFFFFFFFF DUP3 PUSH2 0x13DD JUMP JUMPDEST PUSH2 0x1422 DUP7 DUP4 PUSH2 0x13DD JUMP JUMPDEST SWAP6 POP DUP1 NOT DUP5 AND SWAP4 POP DUP1 DUP7 AND DUP5 OR SWAP3 POP POP POP SWAP4 SWAP3 POP POP POP JUMP JUMPDEST PUSH0 DUP2 SWAP1 POP SWAP2 SWAP1 POP JUMP JUMPDEST PUSH0 PUSH2 0x145D PUSH2 0x1458 PUSH2 0x1453 DUP5 PUSH2 0xCAB JUMP JUMPDEST PUSH2 0x143A JUMP JUMPDEST PUSH2 0xCAB JUMP JUMPDEST SWAP1 POP SWAP2 SWAP1 POP JUMP JUMPDEST PUSH0 DUP2 SWAP1 POP SWAP2 SWAP1 POP JUMP JUMPDEST PUSH2 0x1476 DUP4 PUSH2 0x1443 JUMP JUMPDEST PUSH2 0x148A PUSH2 0x1482 DUP3 PUSH2 0x1464 JUMP JUMPDEST DUP5 DUP5 SLOAD PUSH2 0x13E9 JUMP JUMPDEST DUP3 SSTORE POP POP POP POP JUMP JUMPDEST PUSH0 SWAP1 JUMP JUMPDEST PUSH2 0x149E PUSH2 0x1492 JUMP JUMPDEST PUSH2 0x14A9 DUP2 DUP5 DUP5 PUSH2 0x146D JUMP JUMPDEST POP POP POP JUMP JUMPDEST JUMPDEST DUP2 DUP2 LT ISZERO PUSH2 0x14CC JUMPI PUSH2 0x14C1 PUSH0 DUP3 PUSH2 0x1496 JUMP JUMPDEST PUSH1 0x1 DUP2 ADD SWAP1 POP PUSH2 0x14AF JUMP JUMPDEST POP POP JUMP JUMPDEST PUSH1 0x1F DUP3 GT ISZERO PUSH2 0x1511 JUMPI PUSH2 0x14E2 DUP2 PUSH2 0x13BC JUMP JUMPDEST PUSH2 0x14EB DUP5 PUSH2 0x13CE JUMP JUMPDEST DUP2 ADD PUSH1 0x20 DUP6 LT ISZERO PUSH2 0x14FA JUMPI DUP2 SWAP1 POP JUMPDEST PUSH2 0x150E PUSH2 0x1506 DUP6 PUSH2 0x13CE JUMP JUMPDEST DUP4 ADD DUP3 PUSH2 0x14AE JUMP JUMPDEST POP POP JUMPDEST POP POP POP JUMP JUMPDEST PUSH0 DUP3 DUP3 SHR SWAP1 POP SWAP3 SWAP2 POP POP JUMP JUMPDEST PUSH0 PUSH2 0x1531 PUSH0 NOT DUP5 PUSH1 0x8 MUL PUSH2 0x1516 JUMP JUMPDEST NOT DUP1 DUP4 AND SWAP2 POP POP SWAP3 SWAP2 POP POP JUMP JUMPDEST PUSH0 PUSH2 0x1549 DUP4 DUP4 PUSH2 0x1522 JUMP JUMPDEST SWAP2 POP DUP3 PUSH1 0x2 MUL DUP3 OR SWAP1 POP SWAP3 SWAP2 POP POP JUMP JUMPDEST PUSH2 0x1562 DUP3 PUSH2 0xEBE JUMP JUMPDEST PUSH8 0xFFFFFFFFFFFFFFFF DUP2 GT ISZERO PUSH2 0x157B JUMPI PUSH2 0x157A PUSH2 0xCF6 JUMP JUMPDEST JUMPDEST PUSH2 0x1585 DUP3 SLOAD PUSH2 0x138C JUMP JUMPDEST PUSH2 0x1590 DUP3 DUP3 DUP6 PUSH2 0x14D0 JUMP JUMPDEST PUSH0 PUSH1 0x20 SWAP1 POP PUSH1 0x1F DUP4 GT PUSH1 0x1 DUP2 EQ PUSH2 0x15C1 JUMPI PUSH0 DUP5 ISZERO PUSH2 0x15AF JUMPI DUP3 DUP8 ADD MLOAD SWAP1 POP JUMPDEST PUSH2 0x15B9 DUP6 DUP3 PUSH2 0x153E JUMP JUMPDEST DUP7 SSTORE POP PUSH2 0x1620 JUMP JUMPDEST PUSH1 0x1F NOT DUP5 AND PUSH2 0x15CF DUP7 PUSH2 0x13BC JUMP JUMPDEST PUSH0 JUMPDEST DUP3 DUP2 LT ISZERO PUSH2 0x15F6 JUMPI DUP5 DUP10 ADD MLOAD DUP3 SSTORE PUSH1 0x1 DUP3 ADD SWAP2 POP PUSH1 0x20 DUP6 ADD SWAP5 POP PUSH1 0x20 DUP2 ADD SWAP1 POP PUSH2 0x15D1 JUMP JUMPDEST DUP7 DUP4 LT ISZERO PUSH2 0x1613 JUMPI DUP5 DUP10 ADD MLOAD PUSH2 0x160F PUSH1 0x1F DUP10 AND DUP3 PUSH2 0x1522 JUMP JUMPDEST DUP4 SSTORE POP JUMPDEST PUSH1 0x1 PUSH1 0x2 DUP9 MUL ADD DUP9 SSTORE POP POP POP JUMPDEST POP POP POP POP POP POP JUMP JUMPDEST PUSH32 0x4E487B7100000000000000000000000000000000000000000000000000000000 PUSH0 MSTORE PUSH1 0x11 PUSH1 0x4 MSTORE PUSH1 0x24 PUSH0 REVERT JUMPDEST PUSH0 PUSH2 0x165F DUP3 PUSH2 0xCAB JUMP JUMPDEST SWAP2 POP PUSH2 0x166A DUP4 PUSH2 0xCAB JUMP JUMPDEST SWAP3 POP DUP3 DUP3 SUB SWAP1 POP DUP2 DUP2 GT ISZERO PUSH2 0x1682 JUMPI PUSH2 0x1681 PUSH2 0x1628 JUMP JUMPDEST JUMPDEST SWAP3 SWAP2 POP POP JUMP JUMPDEST PUSH32 0x44617461206E6F7420666F756E6420666F722074686520676976656E20686173 PUSH0 DUP3 ADD MSTORE PUSH32 0x6800000000000000000000000000000000000000000000000000000000000000 PUSH1 0x20 DUP3 ADD MSTORE POP JUMP JUMPDEST PUSH0 PUSH2 0x16E2 PUSH1 0x21 DUP4 PUSH2 0x11FE JUMP JUMPDEST SWAP2 POP PUSH2 0x16ED DUP3 PUSH2 0x1688 JUMP JUMPDEST PUSH1 0x40 DUP3 ADD SWAP1 POP SWAP2 SWAP1 POP JUMP JUMPDEST PUSH0 PUSH1 0x20 DUP3 ADD SWAP1 POP DUP2 DUP2 SUB PUSH0 DUP4 ADD MSTORE PUSH2 0x170F DUP2 PUSH2 0x16D6 JUMP JUMPDEST SWAP1 POP SWAP2 SWAP1 POP JUMP JUMPDEST PUSH32 0x4E487B7100000000000000000000000000000000000000000000000000000000 PUSH0 MSTORE PUSH1 0x32 PUSH1 0x4 MSTORE PUSH1 0x24 PUSH0 REVERT JUMPDEST PUSH32 0x496E76616C696420696E64657800000000000000000000000000000000000000 PUSH0 DUP3 ADD MSTORE POP JUMP JUMPDEST PUSH0 PUSH2 0x1777 PUSH1 0xD DUP4 PUSH2 0x11FE JUMP JUMPDEST SWAP2 POP PUSH2 0x1782 DUP3 PUSH2 0x1743 JUMP JUMPDEST PUSH1 0x20 DUP3 ADD SWAP1 POP SWAP2 SWAP1 POP JUMP JUMPDEST PUSH0 PUSH1 0x20 DUP3 ADD SWAP1 POP DUP2 DUP2 SUB PUSH0 DUP4 ADD MSTORE PUSH2 0x17A4 DUP2 PUSH2 0x176B JUMP JUMPDEST SWAP1 POP SWAP2 SWAP1 POP JUMP INVALID LOG2 PUSH5 0x6970667358 0x22 SLT KECCAK256 0xE6 DUP10 0xAA 0xBD PUSH15 0x80CD4B3543600B71C1001B32921505 0xE1 0xEE SLT BASEFEE 0xC9 MSTORE8 0xB4 SIGNEXTEND SHR PUSH31 0xB5A464736F6C63430008150033000000000000000000000000000000000000 "
				},
				"gasEstimates": {
					"creation": {
						"codeDepositCost": "1222600",
						"executionCost": "25538",
						"totalCost": "1248138"
					},
					"external": {
						"getAllStudentDetails()": "infinite",
						"getStudentDetailsByHash(bytes32)": "infinite",
						"getStudentDetailsByIndex(uint256)": "infinite",
						"registrarAdvice(uint256,string,uint256)": "infinite"
					}
				},
				"methodIdentifiers": {
					"getAllStudentDetails()": "88caebd0",
					"getStudentDetailsByHash(bytes32)": "a748ab2a",
					"getStudentDetailsByIndex(uint256)": "e2551c41",
					"registrarAdvice(uint256,string,uint256)": "1ff529f0"
				}
			},
			"storageLayout": {
				"storage": [
					{
						"astId": 3,
						"contract": "degree.sol:Degree",
						"label": "owner",
						"offset": 0,
						"slot": "0",
						"type": "t_address"
					},
					{
						"astId": 22,
						"contract": "degree.sol:Degree",
						"label": "passesList",
						"offset": 0,
						"slot": "1",
						"type": "t_array(t_struct(StudentDetails)18_storage)dyn_storage"
					},
					{
						"astId": 26,
						"contract": "degree.sol:Degree",
						"label": "hashToIndex",
						"offset": 0,
						"slot": "2",
						"type": "t_mapping(t_bytes32,t_uint256)"
					},
					{
						"astId": 30,
						"contract": "degree.sol:Degree",
						"label": "usedRollNumbers",
						"offset": 0,
						"slot": "3",
						"type": "t_mapping(t_uint256,t_bool)"
					}
				],
				"types": {
					"t_address": {
						"encoding": "inplace",
						"label": "address",
						"numberOfBytes": "20"
					},
					"t_array(t_struct(StudentDetails)18_storage)dyn_storage": {
						"base": "t_struct(StudentDetails)18_storage",
						"encoding": "dynamic_array",
						"label": "struct Degree.StudentDetails[]",
						"numberOfBytes": "32"
					},
					"t_bool": {
						"encoding": "inplace",
						"label": "bool",
						"numberOfBytes": "1"
					},
					"t_bytes32": {
						"encoding": "inplace",
						"label": "bytes32",
						"numberOfBytes": "32"
					},
					"t_mapping(t_bytes32,t_uint256)": {
						"encoding": "mapping",
						"key": "t_bytes32",
						"label": "mapping(bytes32 => uint256)",
						"numberOfBytes": "32",
						"value": "t_uint256"
					},
					"t_mapping(t_uint256,t_bool)": {
						"encoding": "mapping",
						"key": "t_uint256",
						"label": "mapping(uint256 => bool)",
						"numberOfBytes": "32",
						"value": "t_bool"
					},
					"t_string_storage": {
						"encoding": "bytes",
						"label": "string",
						"numberOfBytes": "32"
					},
					"t_struct(StudentDetails)18_storage": {
						"encoding": "inplace",
						"label": "struct Degree.StudentDetails",
						"members": [
							{
								"astId": 5,
								"contract": "degree.sol:Degree",
								"label": "rollNo",
								"offset": 0,
								"slot": "0",
								"type": "t_uint256"
							},
							{
								"astId": 7,
								"contract": "degree.sol:Degree",
								"label": "name",
								"offset": 0,
								"slot": "1",
								"type": "t_string_storage"
							},
							{
								"astId": 9,
								"contract": "degree.sol:Degree",
								"label": "marks",
								"offset": 0,
								"slot": "2",
								"type": "t_uint256"
							},
							{
								"astId": 11,
								"contract": "degree.sol:Degree",
								"label": "deenPermission",
								"offset": 0,
								"slot": "3",
								"type": "t_string_storage"
							},
							{
								"astId": 13,
								"contract": "degree.sol:Degree",
								"label": "registrarPermission",
								"offset": 0,
								"slot": "4",
								"type": "t_string_storage"
							},
							{
								"astId": 15,
								"contract": "degree.sol:Degree",
								"label": "VCPermission",
								"offset": 0,
								"slot": "5",
								"type": "t_string_storage"
							},
							{
								"astId": 17,
								"contract": "degree.sol:Degree",
								"label": "hashcode",
								"offset": 0,
								"slot": "6",
								"type": "t_bytes32"
							}
						],
						"numberOfBytes": "224"
					},
					"t_uint256": {
						"encoding": "inplace",
						"label": "uint256",
						"numberOfBytes": "32"
					}
				}
			},
			"userdoc": {
				"kind": "user",
				"methods": {},
				"version": 1
			}
		}
	}
}