{
	"stk.sol": {
		"StakingContract": {
			"abi": [
				{
					"inputs": [
						{
							"internalType": "address",
							"name": "_tokenAddress",
							"type": "address"
						}
					],
					"stateMutability": "nonpayable",
					"type": "constructor"
				},
				{
					"anonymous": false,
					"inputs": [
						{
							"indexed": true,
							"internalType": "address",
							"name": "user",
							"type": "address"
						},
						{
							"indexed": false,
							"internalType": "uint256",
							"name": "amount",
							"type": "uint256"
						}
					],
					"name": "RewardClaimed",
					"type": "event"
				},
				{
					"anonymous": false,
					"inputs": [
						{
							"indexed": true,
							"internalType": "address",
							"name": "user",
							"type": "address"
						},
						{
							"indexed": false,
							"internalType": "uint256",
							"name": "amount",
							"type": "uint256"
						},
						{
							"indexed": false,
							"internalType": "uint256",
							"name": "duration",
							"type": "uint256"
						}
					],
					"name": "Staked",
					"type": "event"
				},
				{
					"anonymous": false,
					"inputs": [
						{
							"indexed": true,
							"internalType": "address",
							"name": "user",
							"type": "address"
						},
						{
							"indexed": false,
							"internalType": "uint256",
							"name": "amount",
							"type": "uint256"
						}
					],
					"name": "Unstaked",
					"type": "event"
				},
				{
					"inputs": [
						{
							"internalType": "address",
							"name": "_user",
							"type": "address"
						}
					],
					"name": "calculateReward",
					"outputs": [
						{
							"internalType": "uint256",
							"name": "",
							"type": "uint256"
						}
					],
					"stateMutability": "view",
					"type": "function"
				},
				{
					"inputs": [],
					"name": "claimReward",
					"outputs": [],
					"stateMutability": "nonpayable",
					"type": "function"
				},
				{
					"inputs": [
						{
							"internalType": "address",
							"name": "_user",
							"type": "address"
						}
					],
					"name": "getRewardBalance",
					"outputs": [
						{
							"internalType": "uint256",
							"name": "",
							"type": "uint256"
						}
					],
					"stateMutability": "view",
					"type": "function"
				},
				{
					"inputs": [
						{
							"internalType": "address",
							"name": "_user",
							"type": "address"
						}
					],
					"name": "getStakeCount",
					"outputs": [
						{
							"internalType": "uint256",
							"name": "",
							"type": "uint256"
						}
					],
					"stateMutability": "view",
					"type": "function"
				},
				{
					"inputs": [
						{
							"internalType": "address",
							"name": "_user",
							"type": "address"
						},
						{
							"internalType": "uint256",
							"name": "_index",
							"type": "uint256"
						}
					],
					"name": "getStakeDetails",
					"outputs": [
						{
							"internalType": "uint256",
							"name": "",
							"type": "uint256"
						},
						{
							"internalType": "uint256",
							"name": "",
							"type": "uint256"
						}
					],
					"stateMutability": "view",
					"type": "function"
				},
				{
					"inputs": [],
					"name": "minStakeAmount",
					"outputs": [
						{
							"internalType": "uint256",
							"name": "",
							"type": "uint256"
						}
					],
					"stateMutability": "view",
					"type": "function"
				},
				{
					"inputs": [],
					"name": "rewardRate",
					"outputs": [
						{
							"internalType": "uint256",
							"name": "",
							"type": "uint256"
						}
					],
					"stateMutability": "view",
					"type": "function"
				},
				{
					"inputs": [
						{
							"internalType": "uint256",
							"name": "_amount",
							"type": "uint256"
						},
						{
							"internalType": "uint256",
							"name": "_duration",
							"type": "uint256"
						}
					],
					"name": "stake",
					"outputs": [],
					"stateMutability": "nonpayable",
					"type": "function"
				},
				{
					"inputs": [],
					"name": "token",
					"outputs": [
						{
							"internalType": "contract IERC20",
							"name": "",
							"type": "address"
						}
					],
					"stateMutability": "view",
					"type": "function"
				},
				{
					"inputs": [
						{
							"internalType": "uint256",
							"name": "_index",
							"type": "uint256"
						}
					],
					"name": "unstake",
					"outputs": [],
					"stateMutability": "nonpayable",
					"type": "function"
				}
			],
			"devdoc": {
				"kind": "dev",
				"methods": {},
				"version": 1
			},
			"evm": {
				"assembly": "    /* \"stk.sol\":225:3749  contract StakingContract is Context {... */\n  mstore(0x40, 0x80)\n    /* \"stk.sol\":386:387  1 */\n  0x01\n    /* \"stk.sol\":358:387  uint256 public rewardRate = 1 */\n  dup1\n  sstore\n    /* \"stk.sol\":456:459  100 */\n  0x64\n    /* \"stk.sol\":424:459  uint256 public minStakeAmount = 100 */\n  0x02\n  sstore\n    /* \"stk.sol\":964:1045  constructor(address _tokenAddress) {... */\n  callvalue\n  dup1\n  iszero\n  tag_1\n  jumpi\n  0x00\n  dup1\n  revert\ntag_1:\n  pop\n  mload(0x40)\n  sub(codesize, bytecodeSize)\n  dup1\n  bytecodeSize\n  dup4\n  codecopy\n  dup2\n  dup2\n  add\n  0x40\n  mstore\n  dup2\n  add\n  swap1\n  tag_2\n  swap2\n  swap1\n  tag_3\n  jump\t// in\ntag_2:\n    /* \"stk.sol\":1024:1037  _tokenAddress */\n  dup1\n    /* \"stk.sol\":1009:1014  token */\n  0x00\n  dup1\n    /* \"stk.sol\":1009:1038  token = IERC20(_tokenAddress) */\n  0x0100\n  exp\n  dup2\n  sload\n  dup2\n  0xffffffffffffffffffffffffffffffffffffffff\n  mul\n  not\n  and\n  swap1\n  dup4\n  0xffffffffffffffffffffffffffffffffffffffff\n  and\n  mul\n  or\n  swap1\n  sstore\n  pop\n    /* \"stk.sol\":964:1045  constructor(address _tokenAddress) {... */\n  pop\n    /* \"stk.sol\":225:3749  contract StakingContract is Context {... */\n  jump(tag_6)\n    /* \"#utility.yul\":88:205   */\ntag_8:\n    /* \"#utility.yul\":197:198   */\n  0x00\n    /* \"#utility.yul\":194:195   */\n  dup1\n    /* \"#utility.yul\":187:199   */\n  revert\n    /* \"#utility.yul\":334:460   */\ntag_10:\n    /* \"#utility.yul\":371:378   */\n  0x00\n    /* \"#utility.yul\":411:453   */\n  0xffffffffffffffffffffffffffffffffffffffff\n    /* \"#utility.yul\":404:409   */\n  dup3\n    /* \"#utility.yul\":400:454   */\n  and\n    /* \"#utility.yul\":389:454   */\n  swap1\n  pop\n    /* \"#utility.yul\":334:460   */\n  swap2\n  swap1\n  pop\n  jump\t// out\n    /* \"#utility.yul\":466:562   */\ntag_11:\n    /* \"#utility.yul\":503:510   */\n  0x00\n    /* \"#utility.yul\":532:556   */\n  tag_20\n    /* \"#utility.yul\":550:555   */\n  dup3\n    /* \"#utility.yul\":532:556   */\n  tag_10\n  jump\t// in\ntag_20:\n    /* \"#utility.yul\":521:556   */\n  swap1\n  pop\n    /* \"#utility.yul\":466:562   */\n  swap2\n  swap1\n  pop\n  jump\t// out\n    /* \"#utility.yul\":568:690   */\ntag_12:\n    /* \"#utility.yul\":641:665   */\n  tag_22\n    /* \"#utility.yul\":659:664   */\n  dup2\n    /* \"#utility.yul\":641:665   */\n  tag_11\n  jump\t// in\ntag_22:\n    /* \"#utility.yul\":634:639   */\n  dup2\n    /* \"#utility.yul\":631:666   */\n  eq\n    /* \"#utility.yul\":621:684   */\n  tag_23\n  jumpi\n    /* \"#utility.yul\":680:681   */\n  0x00\n    /* \"#utility.yul\":677:678   */\n  dup1\n    /* \"#utility.yul\":670:682   */\n  revert\n    /* \"#utility.yul\":621:684   */\ntag_23:\n    /* \"#utility.yul\":568:690   */\n  pop\n  jump\t// out\n    /* \"#utility.yul\":696:839   */\ntag_13:\n    /* \"#utility.yul\":753:758   */\n  0x00\n    /* \"#utility.yul\":784:790   */\n  dup2\n    /* \"#utility.yul\":778:791   */\n  mload\n    /* \"#utility.yul\":769:791   */\n  swap1\n  pop\n    /* \"#utility.yul\":800:833   */\n  tag_25\n    /* \"#utility.yul\":827:832   */\n  dup2\n    /* \"#utility.yul\":800:833   */\n  tag_12\n  jump\t// in\ntag_25:\n    /* \"#utility.yul\":696:839   */\n  swap3\n  swap2\n  pop\n  pop\n  jump\t// out\n    /* \"#utility.yul\":845:1196   */\ntag_3:\n    /* \"#utility.yul\":915:921   */\n  0x00\n    /* \"#utility.yul\":964:966   */\n  0x20\n    /* \"#utility.yul\":952:961   */\n  dup3\n    /* \"#utility.yul\":943:950   */\n  dup5\n    /* \"#utility.yul\":939:962   */\n  sub\n    /* \"#utility.yul\":935:967   */\n  slt\n    /* \"#utility.yul\":932:1051   */\n  iszero\n  tag_27\n  jumpi\n    /* \"#utility.yul\":970:1049   */\n  tag_28\n  tag_8\n  jump\t// in\ntag_28:\n    /* \"#utility.yul\":932:1051   */\ntag_27:\n    /* \"#utility.yul\":1090:1091   */\n  0x00\n    /* \"#utility.yul\":1115:1179   */\n  tag_29\n    /* \"#utility.yul\":1171:1178   */\n  dup5\n    /* \"#utility.yul\":1162:1168   */\n  dup3\n    /* \"#utility.yul\":1151:1160   */\n  dup6\n    /* \"#utility.yul\":1147:1169   */\n  add\n    /* \"#utility.yul\":1115:1179   */\n  tag_13\n  jump\t// in\ntag_29:\n    /* \"#utility.yul\":1105:1179   */\n  swap2\n  pop\n    /* \"#utility.yul\":1061:1189   */\n  pop\n    /* \"#utility.yul\":845:1196   */\n  swap3\n  swap2\n  pop\n  pop\n  jump\t// out\n    /* \"stk.sol\":225:3749  contract StakingContract is Context {... */\ntag_6:\n  dataSize(sub_0)\n  dup1\n  dataOffset(sub_0)\n  0x00\n  codecopy\n  0x00\n  return\nstop\n\nsub_0: assembly {\n        /* \"stk.sol\":225:3749  contract StakingContract is Context {... */\n      mstore(0x40, 0x80)\n      callvalue\n      dup1\n      iszero\n      tag_1\n      jumpi\n      0x00\n      dup1\n      revert\n    tag_1:\n      pop\n      jumpi(tag_2, lt(calldatasize, 0x04))\n      shr(0xe0, calldataload(0x00))\n      dup1\n      0xcf57ee69\n      gt\n      tag_13\n      jumpi\n      dup1\n      0xcf57ee69\n      eq\n      tag_8\n      jumpi\n      dup1\n      0xd5a849e9\n      eq\n      tag_9\n      jumpi\n      dup1\n      0xd82e3962\n      eq\n      tag_10\n      jumpi\n      dup1\n      0xf1887684\n      eq\n      tag_11\n      jumpi\n      dup1\n      0xfc0c546a\n      eq\n      tag_12\n      jumpi\n      jump(tag_2)\n    tag_13:\n      dup1\n      0x0f0a4fef\n      eq\n      tag_3\n      jumpi\n      dup1\n      0x2e17de78\n      eq\n      tag_4\n      jumpi\n      dup1\n      0x7b0472f0\n      eq\n      tag_5\n      jumpi\n      dup1\n      0x7b0a47ee\n      eq\n      tag_6\n      jumpi\n      dup1\n      0xb88a802f\n      eq\n      tag_7\n      jumpi\n    tag_2:\n      0x00\n      dup1\n      revert\n        /* \"stk.sol\":3293:3581  function getStakeDetails(address _user, uint256 _index) external view returns (uint256, uint256) {... */\n    tag_3:\n      tag_14\n      0x04\n      dup1\n      calldatasize\n      sub\n      dup2\n      add\n      swap1\n      tag_15\n      swap2\n      swap1\n      tag_16\n      jump\t// in\n    tag_15:\n      tag_17\n      jump\t// in\n    tag_14:\n      mload(0x40)\n      tag_18\n      swap3\n      swap2\n      swap1\n      tag_19\n      jump\t// in\n    tag_18:\n      mload(0x40)\n      dup1\n      swap2\n      sub\n      swap1\n      return\n        /* \"stk.sol\":1542:2134  function unstake(uint256 _index) external {... */\n    tag_4:\n      tag_20\n      0x04\n      dup1\n      calldatasize\n      sub\n      dup2\n      add\n      swap1\n      tag_21\n      swap2\n      swap1\n      tag_22\n      jump\t// in\n    tag_21:\n      tag_23\n      jump\t// in\n    tag_20:\n      stop\n        /* \"stk.sol\":1071:1514  function stake(uint256 _amount, uint256 _duration) external {... */\n    tag_5:\n      tag_24\n      0x04\n      dup1\n      calldatasize\n      sub\n      dup2\n      add\n      swap1\n      tag_25\n      swap2\n      swap1\n      tag_26\n      jump\t// in\n    tag_25:\n      tag_27\n      jump\t// in\n    tag_24:\n      stop\n        /* \"stk.sol\":358:387  uint256 public rewardRate = 1 */\n    tag_6:\n      tag_28\n      tag_29\n      jump\t// in\n    tag_28:\n      mload(0x40)\n      tag_30\n      swap2\n      swap1\n      tag_31\n      jump\t// in\n    tag_30:\n      mload(0x40)\n      dup1\n      swap2\n      sub\n      swap1\n      return\n        /* \"stk.sol\":2161:2488  function claimReward() external {... */\n    tag_7:\n      tag_32\n      tag_33\n      jump\t// in\n    tag_32:\n      stop\n        /* \"stk.sol\":3137:3251  function getStakeCount(address _user) external view returns (uint256) {... */\n    tag_8:\n      tag_34\n      0x04\n      dup1\n      calldatasize\n      sub\n      dup2\n      add\n      swap1\n      tag_35\n      swap2\n      swap1\n      tag_36\n      jump\t// in\n    tag_35:\n      tag_37\n      jump\t// in\n    tag_34:\n      mload(0x40)\n      tag_38\n      swap2\n      swap1\n      tag_31\n      jump\t// in\n    tag_38:\n      mload(0x40)\n      dup1\n      swap2\n      sub\n      swap1\n      return\n        /* \"stk.sol\":3630:3741  function getRewardBalance(address _user) external view returns (uint256) {... */\n    tag_9:\n      tag_39\n      0x04\n      dup1\n      calldatasize\n      sub\n      dup2\n      add\n      swap1\n      tag_40\n      swap2\n      swap1\n      tag_36\n      jump\t// in\n    tag_40:\n      tag_41\n      jump\t// in\n    tag_39:\n      mload(0x40)\n      tag_42\n      swap2\n      swap1\n      tag_31\n      jump\t// in\n    tag_42:\n      mload(0x40)\n      dup1\n      swap2\n      sub\n      swap1\n      return\n        /* \"stk.sol\":2541:3088  function calculateReward(address _user) public view returns (uint256) {... */\n    tag_10:\n      tag_43\n      0x04\n      dup1\n      calldatasize\n      sub\n      dup2\n      add\n      swap1\n      tag_44\n      swap2\n      swap1\n      tag_36\n      jump\t// in\n    tag_44:\n      tag_45\n      jump\t// in\n    tag_43:\n      mload(0x40)\n      tag_46\n      swap2\n      swap1\n      tag_31\n      jump\t// in\n    tag_46:\n      mload(0x40)\n      dup1\n      swap2\n      sub\n      swap1\n      return\n        /* \"stk.sol\":424:459  uint256 public minStakeAmount = 100 */\n    tag_11:\n      tag_47\n      tag_48\n      jump\t// in\n    tag_47:\n      mload(0x40)\n      tag_49\n      swap2\n      swap1\n      tag_31\n      jump\t// in\n    tag_49:\n      mload(0x40)\n      dup1\n      swap2\n      sub\n      swap1\n      return\n        /* \"stk.sol\":300:319  IERC20 public token */\n    tag_12:\n      tag_50\n      tag_51\n      jump\t// in\n    tag_50:\n      mload(0x40)\n      tag_52\n      swap2\n      swap1\n      tag_53\n      jump\t// in\n    tag_52:\n      mload(0x40)\n      dup1\n      swap2\n      sub\n      swap1\n      return\n        /* \"stk.sol\":3293:3581  function getStakeDetails(address _user, uint256 _index) external view returns (uint256, uint256) {... */\n    tag_17:\n        /* \"stk.sol\":3372:3379  uint256 */\n      0x00\n        /* \"stk.sol\":3381:3388  uint256 */\n      dup1\n        /* \"stk.sol\":3417:3423  stakes */\n      0x03\n        /* \"stk.sol\":3417:3430  stakes[_user] */\n      0x00\n        /* \"stk.sol\":3424:3429  _user */\n      dup6\n        /* \"stk.sol\":3417:3430  stakes[_user] */\n      0xffffffffffffffffffffffffffffffffffffffff\n      and\n      0xffffffffffffffffffffffffffffffffffffffff\n      and\n      dup2\n      mstore\n      0x20\n      add\n      swap1\n      dup2\n      mstore\n      0x20\n      add\n      0x00\n      keccak256\n        /* \"stk.sol\":3417:3437  stakes[_user].length */\n      dup1\n      sload\n      swap1\n      pop\n        /* \"stk.sol\":3408:3414  _index */\n      dup4\n        /* \"stk.sol\":3408:3437  _index < stakes[_user].length */\n      lt\n        /* \"stk.sol\":3400:3461  require(_index < stakes[_user].length, \"Invalid stake index\") */\n      tag_55\n      jumpi\n      mload(0x40)\n      0x08c379a000000000000000000000000000000000000000000000000000000000\n      dup2\n      mstore\n      0x04\n      add\n      tag_56\n      swap1\n      tag_57\n      jump\t// in\n    tag_56:\n      mload(0x40)\n      dup1\n      swap2\n      sub\n      swap1\n      revert\n    tag_55:\n        /* \"stk.sol\":3471:3494  Stake storage stakeInfo */\n      0x00\n        /* \"stk.sol\":3497:3503  stakes */\n      0x03\n        /* \"stk.sol\":3497:3510  stakes[_user] */\n      0x00\n        /* \"stk.sol\":3504:3509  _user */\n      dup7\n        /* \"stk.sol\":3497:3510  stakes[_user] */\n      0xffffffffffffffffffffffffffffffffffffffff\n      and\n      0xffffffffffffffffffffffffffffffffffffffff\n      and\n      dup2\n      mstore\n      0x20\n      add\n      swap1\n      dup2\n      mstore\n      0x20\n      add\n      0x00\n      keccak256\n        /* \"stk.sol\":3511:3517  _index */\n      dup5\n        /* \"stk.sol\":3497:3518  stakes[_user][_index] */\n      dup2\n      sload\n      dup2\n      lt\n      tag_58\n      jumpi\n      tag_59\n      tag_60\n      jump\t// in\n    tag_59:\n    tag_58:\n      swap1\n      0x00\n      mstore\n      keccak256(0x00, 0x20)\n      swap1\n      0x03\n      mul\n      add\n        /* \"stk.sol\":3471:3518  Stake storage stakeInfo = stakes[_user][_index] */\n      swap1\n      pop\n        /* \"stk.sol\":3536:3545  stakeInfo */\n      dup1\n        /* \"stk.sol\":3536:3552  stakeInfo.amount */\n      0x00\n      add\n      sload\n        /* \"stk.sol\":3554:3563  stakeInfo */\n      dup2\n        /* \"stk.sol\":3554:3573  stakeInfo.startTime */\n      0x01\n      add\n      sload\n        /* \"stk.sol\":3528:3574  return (stakeInfo.amount, stakeInfo.startTime) */\n      swap3\n      pop\n      swap3\n      pop\n      pop\n        /* \"stk.sol\":3293:3581  function getStakeDetails(address _user, uint256 _index) external view returns (uint256, uint256) {... */\n      swap3\n      pop\n      swap3\n      swap1\n      pop\n      jump\t// out\n        /* \"stk.sol\":1542:2134  function unstake(uint256 _index) external {... */\n    tag_23:\n        /* \"stk.sol\":1611:1617  stakes */\n      0x03\n        /* \"stk.sol\":1611:1631  stakes[_msgSender()] */\n      0x00\n        /* \"stk.sol\":1618:1630  _msgSender() */\n      tag_63\n        /* \"stk.sol\":1618:1628  _msgSender */\n      tag_64\n        /* \"stk.sol\":1618:1630  _msgSender() */\n      jump\t// in\n    tag_63:\n        /* \"stk.sol\":1611:1631  stakes[_msgSender()] */\n      0xffffffffffffffffffffffffffffffffffffffff\n      and\n      0xffffffffffffffffffffffffffffffffffffffff\n      and\n      dup2\n      mstore\n      0x20\n      add\n      swap1\n      dup2\n      mstore\n      0x20\n      add\n      0x00\n      keccak256\n        /* \"stk.sol\":1611:1638  stakes[_msgSender()].length */\n      dup1\n      sload\n      swap1\n      pop\n        /* \"stk.sol\":1602:1608  _index */\n      dup2\n        /* \"stk.sol\":1602:1638  _index < stakes[_msgSender()].length */\n      lt\n        /* \"stk.sol\":1594:1662  require(_index < stakes[_msgSender()].length, \"Invalid stake index\") */\n      tag_65\n      jumpi\n      mload(0x40)\n      0x08c379a000000000000000000000000000000000000000000000000000000000\n      dup2\n      mstore\n      0x04\n      add\n      tag_66\n      swap1\n      tag_57\n      jump\t// in\n    tag_66:\n      mload(0x40)\n      dup1\n      swap2\n      sub\n      swap1\n      revert\n    tag_65:\n        /* \"stk.sol\":1672:1695  Stake storage stakeInfo */\n      0x00\n        /* \"stk.sol\":1698:1704  stakes */\n      0x03\n        /* \"stk.sol\":1698:1718  stakes[_msgSender()] */\n      0x00\n        /* \"stk.sol\":1705:1717  _msgSender() */\n      tag_67\n        /* \"stk.sol\":1705:1715  _msgSender */\n      tag_64\n        /* \"stk.sol\":1705:1717  _msgSender() */\n      jump\t// in\n    tag_67:\n        /* \"stk.sol\":1698:1718  stakes[_msgSender()] */\n      0xffffffffffffffffffffffffffffffffffffffff\n      and\n      0xffffffffffffffffffffffffffffffffffffffff\n      and\n      dup2\n      mstore\n      0x20\n      add\n      swap1\n      dup2\n      mstore\n      0x20\n      add\n      0x00\n      keccak256\n        /* \"stk.sol\":1719:1725  _index */\n      dup3\n        /* \"stk.sol\":1698:1726  stakes[_msgSender()][_index] */\n      dup2\n      sload\n      dup2\n      lt\n      tag_68\n      jumpi\n      tag_69\n      tag_60\n      jump\t// in\n    tag_69:\n    tag_68:\n      swap1\n      0x00\n      mstore\n      keccak256(0x00, 0x20)\n      swap1\n      0x03\n      mul\n      add\n        /* \"stk.sol\":1672:1726  Stake storage stakeInfo = stakes[_msgSender()][_index] */\n      swap1\n      pop\n        /* \"stk.sol\":1763:1772  stakeInfo */\n      dup1\n        /* \"stk.sol\":1763:1782  stakeInfo.startTime */\n      0x01\n      add\n      sload\n        /* \"stk.sol\":1744:1759  block.timestamp */\n      timestamp\n        /* \"stk.sol\":1744:1782  block.timestamp >= stakeInfo.startTime */\n      lt\n      iszero\n        /* \"stk.sol\":1736:1815  require(block.timestamp >= stakeInfo.startTime, \"Staking period not completed\") */\n      tag_71\n      jumpi\n      mload(0x40)\n      0x08c379a000000000000000000000000000000000000000000000000000000000\n      dup2\n      mstore\n      0x04\n      add\n      tag_72\n      swap1\n      tag_73\n      jump\t// in\n    tag_72:\n      mload(0x40)\n      dup1\n      swap2\n      sub\n      swap1\n      revert\n    tag_71:\n        /* \"stk.sol\":1826:1846  uint256 stakedAmount */\n      0x00\n        /* \"stk.sol\":1849:1858  stakeInfo */\n      dup2\n        /* \"stk.sol\":1849:1865  stakeInfo.amount */\n      0x00\n      add\n      sload\n        /* \"stk.sol\":1826:1865  uint256 stakedAmount = stakeInfo.amount */\n      swap1\n      pop\n        /* \"stk.sol\":1906:1912  stakes */\n      0x03\n        /* \"stk.sol\":1906:1926  stakes[_msgSender()] */\n      0x00\n        /* \"stk.sol\":1913:1925  _msgSender() */\n      tag_74\n        /* \"stk.sol\":1913:1923  _msgSender */\n      tag_64\n        /* \"stk.sol\":1913:1925  _msgSender() */\n      jump\t// in\n    tag_74:\n        /* \"stk.sol\":1906:1926  stakes[_msgSender()] */\n      0xffffffffffffffffffffffffffffffffffffffff\n      and\n      0xffffffffffffffffffffffffffffffffffffffff\n      and\n      dup2\n      mstore\n      0x20\n      add\n      swap1\n      dup2\n      mstore\n      0x20\n      add\n      0x00\n      keccak256\n        /* \"stk.sol\":1957:1958  1 */\n      0x01\n        /* \"stk.sol\":1927:1933  stakes */\n      0x03\n        /* \"stk.sol\":1927:1947  stakes[_msgSender()] */\n      0x00\n        /* \"stk.sol\":1934:1946  _msgSender() */\n      tag_75\n        /* \"stk.sol\":1934:1944  _msgSender */\n      tag_64\n        /* \"stk.sol\":1934:1946  _msgSender() */\n      jump\t// in\n    tag_75:\n        /* \"stk.sol\":1927:1947  stakes[_msgSender()] */\n      0xffffffffffffffffffffffffffffffffffffffff\n      and\n      0xffffffffffffffffffffffffffffffffffffffff\n      and\n      dup2\n      mstore\n      0x20\n      add\n      swap1\n      dup2\n      mstore\n      0x20\n      add\n      0x00\n      keccak256\n        /* \"stk.sol\":1927:1954  stakes[_msgSender()].length */\n      dup1\n      sload\n      swap1\n      pop\n        /* \"stk.sol\":1927:1958  stakes[_msgSender()].length - 1 */\n      tag_76\n      swap2\n      swap1\n      tag_77\n      jump\t// in\n    tag_76:\n        /* \"stk.sol\":1906:1959  stakes[_msgSender()][stakes[_msgSender()].length - 1] */\n      dup2\n      sload\n      dup2\n      lt\n      tag_78\n      jumpi\n      tag_79\n      tag_60\n      jump\t// in\n    tag_79:\n    tag_78:\n      swap1\n      0x00\n      mstore\n      keccak256(0x00, 0x20)\n      swap1\n      0x03\n      mul\n      add\n        /* \"stk.sol\":1875:1881  stakes */\n      0x03\n        /* \"stk.sol\":1875:1895  stakes[_msgSender()] */\n      0x00\n        /* \"stk.sol\":1882:1894  _msgSender() */\n      tag_81\n        /* \"stk.sol\":1882:1892  _msgSender */\n      tag_64\n        /* \"stk.sol\":1882:1894  _msgSender() */\n      jump\t// in\n    tag_81:\n        /* \"stk.sol\":1875:1895  stakes[_msgSender()] */\n      0xffffffffffffffffffffffffffffffffffffffff\n      and\n      0xffffffffffffffffffffffffffffffffffffffff\n      and\n      dup2\n      mstore\n      0x20\n      add\n      swap1\n      dup2\n      mstore\n      0x20\n      add\n      0x00\n      keccak256\n        /* \"stk.sol\":1896:1902  _index */\n      dup5\n        /* \"stk.sol\":1875:1903  stakes[_msgSender()][_index] */\n      dup2\n      sload\n      dup2\n      lt\n      tag_82\n      jumpi\n      tag_83\n      tag_60\n      jump\t// in\n    tag_83:\n    tag_82:\n      swap1\n      0x00\n      mstore\n      keccak256(0x00, 0x20)\n      swap1\n      0x03\n      mul\n      add\n        /* \"stk.sol\":1875:1959  stakes[_msgSender()][_index] = stakes[_msgSender()][stakes[_msgSender()].length - 1] */\n      0x00\n      dup3\n      add\n      sload\n      dup2\n      0x00\n      add\n      sstore\n      0x01\n      dup3\n      add\n      sload\n      dup2\n      0x01\n      add\n      sstore\n      0x02\n      dup3\n      add\n      sload\n      dup2\n      0x02\n      add\n      sstore\n      swap1\n      pop\n      pop\n        /* \"stk.sol\":1969:1975  stakes */\n      0x03\n        /* \"stk.sol\":1969:1989  stakes[_msgSender()] */\n      0x00\n        /* \"stk.sol\":1976:1988  _msgSender() */\n      tag_85\n        /* \"stk.sol\":1976:1986  _msgSender */\n      tag_64\n        /* \"stk.sol\":1976:1988  _msgSender() */\n      jump\t// in\n    tag_85:\n        /* \"stk.sol\":1969:1989  stakes[_msgSender()] */\n      0xffffffffffffffffffffffffffffffffffffffff\n      and\n      0xffffffffffffffffffffffffffffffffffffffff\n      and\n      dup2\n      mstore\n      0x20\n      add\n      swap1\n      dup2\n      mstore\n      0x20\n      add\n      0x00\n      keccak256\n        /* \"stk.sol\":1969:1995  stakes[_msgSender()].pop() */\n      dup1\n      sload\n      dup1\n      tag_86\n      jumpi\n      tag_87\n      tag_88\n      jump\t// in\n    tag_87:\n    tag_86:\n      0x01\n      swap1\n      sub\n      dup2\n      dup2\n      swap1\n      0x00\n      mstore\n      keccak256(0x00, 0x20)\n      swap1\n      0x03\n      mul\n      add\n      0x00\n      dup1\n      dup3\n      add\n      0x00\n      swap1\n      sstore\n      0x01\n      dup3\n      add\n      0x00\n      swap1\n      sstore\n      0x02\n      dup3\n      add\n      0x00\n      swap1\n      sstore\n      pop\n      pop\n      swap1\n      sstore\n        /* \"stk.sol\":2014:2019  token */\n      0x00\n      dup1\n      sload\n      swap1\n      0x0100\n      exp\n      swap1\n      div\n      0xffffffffffffffffffffffffffffffffffffffff\n      and\n        /* \"stk.sol\":2014:2028  token.transfer */\n      0xffffffffffffffffffffffffffffffffffffffff\n      and\n      0xa9059cbb\n        /* \"stk.sol\":2029:2041  _msgSender() */\n      tag_90\n        /* \"stk.sol\":2029:2039  _msgSender */\n      tag_64\n        /* \"stk.sol\":2029:2041  _msgSender() */\n      jump\t// in\n    tag_90:\n        /* \"stk.sol\":2043:2055  stakedAmount */\n      dup4\n        /* \"stk.sol\":2014:2056  token.transfer(_msgSender(), stakedAmount) */\n      mload(0x40)\n      dup4\n      0xffffffff\n      and\n      0xe0\n      shl\n      dup2\n      mstore\n      0x04\n      add\n      tag_91\n      swap3\n      swap2\n      swap1\n      tag_92\n      jump\t// in\n    tag_91:\n      0x20\n      mload(0x40)\n      dup1\n      dup4\n      sub\n      dup2\n      0x00\n      dup8\n      gas\n      call\n      iszero\n      dup1\n      iszero\n      tag_94\n      jumpi\n      returndatasize\n      0x00\n      dup1\n      returndatacopy\n      revert(0x00, returndatasize)\n    tag_94:\n      pop\n      pop\n      pop\n      pop\n      mload(0x40)\n      returndatasize\n      not(0x1f)\n      0x1f\n      dup3\n      add\n      and\n      dup3\n      add\n      dup1\n      0x40\n      mstore\n      pop\n      dup2\n      add\n      swap1\n      tag_95\n      swap2\n      swap1\n      tag_96\n      jump\t// in\n    tag_95:\n        /* \"stk.sol\":2006:2076  require(token.transfer(_msgSender(), stakedAmount), \"Transfer failed\") */\n      tag_97\n      jumpi\n      mload(0x40)\n      0x08c379a000000000000000000000000000000000000000000000000000000000\n      dup2\n      mstore\n      0x04\n      add\n      tag_98\n      swap1\n      tag_99\n      jump\t// in\n    tag_98:\n      mload(0x40)\n      dup1\n      swap2\n      sub\n      swap1\n      revert\n    tag_97:\n        /* \"stk.sol\":2100:2112  _msgSender() */\n      tag_100\n        /* \"stk.sol\":2100:2110  _msgSender */\n      tag_64\n        /* \"stk.sol\":2100:2112  _msgSender() */\n      jump\t// in\n    tag_100:\n        /* \"stk.sol\":2091:2127  Unstaked(_msgSender(), stakedAmount) */\n      0xffffffffffffffffffffffffffffffffffffffff\n      and\n      0x0f5bb82176feb1b5e747e28471aa92156a04d9f3ab9f45f28e2d704232b93f75\n        /* \"stk.sol\":2114:2126  stakedAmount */\n      dup3\n        /* \"stk.sol\":2091:2127  Unstaked(_msgSender(), stakedAmount) */\n      mload(0x40)\n      tag_101\n      swap2\n      swap1\n      tag_31\n      jump\t// in\n    tag_101:\n      mload(0x40)\n      dup1\n      swap2\n      sub\n      swap1\n      log2\n        /* \"stk.sol\":1584:2134  {... */\n      pop\n      pop\n        /* \"stk.sol\":1542:2134  function unstake(uint256 _index) external {... */\n      pop\n      jump\t// out\n        /* \"stk.sol\":1071:1514  function stake(uint256 _amount, uint256 _duration) external {... */\n    tag_27:\n        /* \"stk.sol\":1160:1174  minStakeAmount */\n      sload(0x02)\n        /* \"stk.sol\":1149:1156  _amount */\n      dup3\n        /* \"stk.sol\":1149:1174  _amount >= minStakeAmount */\n      lt\n      iszero\n        /* \"stk.sol\":1141:1208  require(_amount >= minStakeAmount, \"Amount is below minimum stake\") */\n      tag_103\n      jumpi\n      mload(0x40)\n      0x08c379a000000000000000000000000000000000000000000000000000000000\n      dup2\n      mstore\n      0x04\n      add\n      tag_104\n      swap1\n      tag_105\n      jump\t// in\n    tag_104:\n      mload(0x40)\n      dup1\n      swap2\n      sub\n      swap1\n      revert\n    tag_103:\n        /* \"stk.sol\":1238:1239  0 */\n      0x00\n        /* \"stk.sol\":1226:1235  _duration */\n      dup2\n        /* \"stk.sol\":1226:1239  _duration > 0 */\n      gt\n        /* \"stk.sol\":1218:1278  require(_duration > 0, \"Duration must be greater than zero\") */\n      tag_106\n      jumpi\n      mload(0x40)\n      0x08c379a000000000000000000000000000000000000000000000000000000000\n      dup2\n      mstore\n      0x04\n      add\n      tag_107\n      swap1\n      tag_108\n      jump\t// in\n    tag_107:\n      mload(0x40)\n      dup1\n      swap2\n      sub\n      swap1\n      revert\n    tag_106:\n        /* \"stk.sol\":1296:1301  token */\n      0x00\n      dup1\n      sload\n      swap1\n      0x0100\n      exp\n      swap1\n      div\n      0xffffffffffffffffffffffffffffffffffffffff\n      and\n        /* \"stk.sol\":1296:1314  token.transferFrom */\n      0xffffffffffffffffffffffffffffffffffffffff\n      and\n      0x23b872dd\n        /* \"stk.sol\":1315:1327  _msgSender() */\n      tag_109\n        /* \"stk.sol\":1315:1325  _msgSender */\n      tag_64\n        /* \"stk.sol\":1315:1327  _msgSender() */\n      jump\t// in\n    tag_109:\n        /* \"stk.sol\":1337:1341  this */\n      address\n        /* \"stk.sol\":1344:1351  _amount */\n      dup6\n        /* \"stk.sol\":1296:1352  token.transferFrom(_msgSender(), address(this), _amount) */\n      mload(0x40)\n      dup5\n      0xffffffff\n      and\n      0xe0\n      shl\n      dup2\n      mstore\n      0x04\n      add\n      tag_110\n      swap4\n      swap3\n      swap2\n      swap1\n      tag_111\n      jump\t// in\n    tag_110:\n      0x20\n      mload(0x40)\n      dup1\n      dup4\n      sub\n      dup2\n      0x00\n      dup8\n      gas\n      call\n      iszero\n      dup1\n      iszero\n      tag_113\n      jumpi\n      returndatasize\n      0x00\n      dup1\n      returndatacopy\n      revert(0x00, returndatasize)\n    tag_113:\n      pop\n      pop\n      pop\n      pop\n      mload(0x40)\n      returndatasize\n      not(0x1f)\n      0x1f\n      dup3\n      add\n      and\n      dup3\n      add\n      dup1\n      0x40\n      mstore\n      pop\n      dup2\n      add\n      swap1\n      tag_114\n      swap2\n      swap1\n      tag_96\n      jump\t// in\n    tag_114:\n        /* \"stk.sol\":1288:1372  require(token.transferFrom(_msgSender(), address(this), _amount), \"Transfer failed\") */\n      tag_115\n      jumpi\n      mload(0x40)\n      0x08c379a000000000000000000000000000000000000000000000000000000000\n      dup2\n      mstore\n      0x04\n      add\n      tag_116\n      swap1\n      tag_99\n      jump\t// in\n    tag_116:\n      mload(0x40)\n      dup1\n      swap2\n      sub\n      swap1\n      revert\n    tag_115:\n        /* \"stk.sol\":1383:1389  stakes */\n      0x03\n        /* \"stk.sol\":1383:1403  stakes[_msgSender()] */\n      0x00\n        /* \"stk.sol\":1390:1402  _msgSender() */\n      tag_117\n        /* \"stk.sol\":1390:1400  _msgSender */\n      tag_64\n        /* \"stk.sol\":1390:1402  _msgSender() */\n      jump\t// in\n    tag_117:\n        /* \"stk.sol\":1383:1403  stakes[_msgSender()] */\n      0xffffffffffffffffffffffffffffffffffffffff\n      and\n      0xffffffffffffffffffffffffffffffffffffffff\n      and\n      dup2\n      mstore\n      0x20\n      add\n      swap1\n      dup2\n      mstore\n      0x20\n      add\n      0x00\n      keccak256\n        /* \"stk.sol\":1409:1451  Stake(_amount, block.timestamp, _duration) */\n      mload(0x40)\n      dup1\n      0x60\n      add\n      0x40\n      mstore\n      dup1\n        /* \"stk.sol\":1415:1422  _amount */\n      dup5\n        /* \"stk.sol\":1409:1451  Stake(_amount, block.timestamp, _duration) */\n      dup2\n      mstore\n      0x20\n      add\n        /* \"stk.sol\":1424:1439  block.timestamp */\n      timestamp\n        /* \"stk.sol\":1409:1451  Stake(_amount, block.timestamp, _duration) */\n      dup2\n      mstore\n      0x20\n      add\n        /* \"stk.sol\":1441:1450  _duration */\n      dup4\n        /* \"stk.sol\":1409:1451  Stake(_amount, block.timestamp, _duration) */\n      dup2\n      mstore\n      pop\n        /* \"stk.sol\":1383:1452  stakes[_msgSender()].push(Stake(_amount, block.timestamp, _duration)) */\n      swap1\n      dup1\n      0x01\n      dup2\n      sload\n      add\n      dup1\n      dup3\n      sstore\n      dup1\n      swap2\n      pop\n      pop\n      0x01\n      swap1\n      sub\n      swap1\n      0x00\n      mstore\n      keccak256(0x00, 0x20)\n      swap1\n      0x03\n      mul\n      add\n      0x00\n      swap1\n      swap2\n      swap1\n      swap2\n      swap1\n      swap2\n      pop\n      0x00\n      dup3\n      add\n      mload\n      dup2\n      0x00\n      add\n      sstore\n      0x20\n      dup3\n      add\n      mload\n      dup2\n      0x01\n      add\n      sstore\n      0x40\n      dup3\n      add\n      mload\n      dup2\n      0x02\n      add\n      sstore\n      pop\n      pop\n        /* \"stk.sol\":1474:1486  _msgSender() */\n      tag_119\n        /* \"stk.sol\":1474:1484  _msgSender */\n      tag_64\n        /* \"stk.sol\":1474:1486  _msgSender() */\n      jump\t// in\n    tag_119:\n        /* \"stk.sol\":1467:1507  Staked(_msgSender(), _amount, _duration) */\n      0xffffffffffffffffffffffffffffffffffffffff\n      and\n      0x1449c6dd7851abc30abf37f57715f492010519147cc2652fbc38202c18a6ee90\n        /* \"stk.sol\":1488:1495  _amount */\n      dup4\n        /* \"stk.sol\":1497:1506  _duration */\n      dup4\n        /* \"stk.sol\":1467:1507  Staked(_msgSender(), _amount, _duration) */\n      mload(0x40)\n      tag_120\n      swap3\n      swap2\n      swap1\n      tag_19\n      jump\t// in\n    tag_120:\n      mload(0x40)\n      dup1\n      swap2\n      sub\n      swap1\n      log2\n        /* \"stk.sol\":1071:1514  function stake(uint256 _amount, uint256 _duration) external {... */\n      pop\n      pop\n      jump\t// out\n        /* \"stk.sol\":358:387  uint256 public rewardRate = 1 */\n    tag_29:\n      sload(0x01)\n      dup2\n      jump\t// out\n        /* \"stk.sol\":2161:2488  function claimReward() external {... */\n    tag_33:\n        /* \"stk.sol\":2203:2222  uint256 totalReward */\n      0x00\n        /* \"stk.sol\":2225:2254  calculateReward(_msgSender()) */\n      tag_122\n        /* \"stk.sol\":2241:2253  _msgSender() */\n      tag_123\n        /* \"stk.sol\":2241:2251  _msgSender */\n      tag_64\n        /* \"stk.sol\":2241:2253  _msgSender() */\n      jump\t// in\n    tag_123:\n        /* \"stk.sol\":2225:2240  calculateReward */\n      tag_45\n        /* \"stk.sol\":2225:2254  calculateReward(_msgSender()) */\n      jump\t// in\n    tag_122:\n        /* \"stk.sol\":2203:2254  uint256 totalReward = calculateReward(_msgSender()) */\n      swap1\n      pop\n        /* \"stk.sol\":2286:2287  0 */\n      0x00\n        /* \"stk.sol\":2272:2283  totalReward */\n      dup2\n        /* \"stk.sol\":2272:2287  totalReward > 0 */\n      gt\n        /* \"stk.sol\":2264:2311  require(totalReward > 0, \"No rewards to claim\") */\n      tag_124\n      jumpi\n      mload(0x40)\n      0x08c379a000000000000000000000000000000000000000000000000000000000\n      dup2\n      mstore\n      0x04\n      add\n      tag_125\n      swap1\n      tag_126\n      jump\t// in\n    tag_125:\n      mload(0x40)\n      dup1\n      swap2\n      sub\n      swap1\n      revert\n    tag_124:\n        /* \"stk.sol\":2346:2347  0 */\n      0x00\n        /* \"stk.sol\":2322:2329  rewards */\n      0x04\n        /* \"stk.sol\":2322:2343  rewards[_msgSender()] */\n      0x00\n        /* \"stk.sol\":2330:2342  _msgSender() */\n      tag_127\n        /* \"stk.sol\":2330:2340  _msgSender */\n      tag_64\n        /* \"stk.sol\":2330:2342  _msgSender() */\n      jump\t// in\n    tag_127:\n        /* \"stk.sol\":2322:2343  rewards[_msgSender()] */\n      0xffffffffffffffffffffffffffffffffffffffff\n      and\n      0xffffffffffffffffffffffffffffffffffffffff\n      and\n      dup2\n      mstore\n      0x20\n      add\n      swap1\n      dup2\n      mstore\n      0x20\n      add\n      0x00\n      keccak256\n        /* \"stk.sol\":2322:2347  rewards[_msgSender()] = 0 */\n      dup2\n      swap1\n      sstore\n      pop\n        /* \"stk.sol\":2365:2370  token */\n      0x00\n      dup1\n      sload\n      swap1\n      0x0100\n      exp\n      swap1\n      div\n      0xffffffffffffffffffffffffffffffffffffffff\n      and\n        /* \"stk.sol\":2365:2379  token.transfer */\n      0xffffffffffffffffffffffffffffffffffffffff\n      and\n      0xa9059cbb\n        /* \"stk.sol\":2380:2392  _msgSender() */\n      tag_128\n        /* \"stk.sol\":2380:2390  _msgSender */\n      tag_64\n        /* \"stk.sol\":2380:2392  _msgSender() */\n      jump\t// in\n    tag_128:\n        /* \"stk.sol\":2394:2405  totalReward */\n      dup4\n        /* \"stk.sol\":2365:2406  token.transfer(_msgSender(), totalReward) */\n      mload(0x40)\n      dup4\n      0xffffffff\n      and\n      0xe0\n      shl\n      dup2\n      mstore\n      0x04\n      add\n      tag_129\n      swap3\n      swap2\n      swap1\n      tag_92\n      jump\t// in\n    tag_129:\n      0x20\n      mload(0x40)\n      dup1\n      dup4\n      sub\n      dup2\n      0x00\n      dup8\n      gas\n      call\n      iszero\n      dup1\n      iszero\n      tag_131\n      jumpi\n      returndatasize\n      0x00\n      dup1\n      returndatacopy\n      revert(0x00, returndatasize)\n    tag_131:\n      pop\n      pop\n      pop\n      pop\n      mload(0x40)\n      returndatasize\n      not(0x1f)\n      0x1f\n      dup3\n      add\n      and\n      dup3\n      add\n      dup1\n      0x40\n      mstore\n      pop\n      dup2\n      add\n      swap1\n      tag_132\n      swap2\n      swap1\n      tag_96\n      jump\t// in\n    tag_132:\n        /* \"stk.sol\":2357:2426  require(token.transfer(_msgSender(), totalReward), \"Transfer failed\") */\n      tag_133\n      jumpi\n      mload(0x40)\n      0x08c379a000000000000000000000000000000000000000000000000000000000\n      dup2\n      mstore\n      0x04\n      add\n      tag_134\n      swap1\n      tag_99\n      jump\t// in\n    tag_134:\n      mload(0x40)\n      dup1\n      swap2\n      sub\n      swap1\n      revert\n    tag_133:\n        /* \"stk.sol\":2455:2467  _msgSender() */\n      tag_135\n        /* \"stk.sol\":2455:2465  _msgSender */\n      tag_64\n        /* \"stk.sol\":2455:2467  _msgSender() */\n      jump\t// in\n    tag_135:\n        /* \"stk.sol\":2441:2481  RewardClaimed(_msgSender(), totalReward) */\n      0xffffffffffffffffffffffffffffffffffffffff\n      and\n      0x106f923f993c2149d49b4255ff723acafa1f2d94393f561d3eda32ae348f7241\n        /* \"stk.sol\":2469:2480  totalReward */\n      dup3\n        /* \"stk.sol\":2441:2481  RewardClaimed(_msgSender(), totalReward) */\n      mload(0x40)\n      tag_136\n      swap2\n      swap1\n      tag_31\n      jump\t// in\n    tag_136:\n      mload(0x40)\n      dup1\n      swap2\n      sub\n      swap1\n      log2\n        /* \"stk.sol\":2193:2488  {... */\n      pop\n        /* \"stk.sol\":2161:2488  function claimReward() external {... */\n      jump\t// out\n        /* \"stk.sol\":3137:3251  function getStakeCount(address _user) external view returns (uint256) {... */\n    tag_37:\n        /* \"stk.sol\":3198:3205  uint256 */\n      0x00\n        /* \"stk.sol\":3224:3230  stakes */\n      0x03\n        /* \"stk.sol\":3224:3237  stakes[_user] */\n      0x00\n        /* \"stk.sol\":3231:3236  _user */\n      dup4\n        /* \"stk.sol\":3224:3237  stakes[_user] */\n      0xffffffffffffffffffffffffffffffffffffffff\n      and\n      0xffffffffffffffffffffffffffffffffffffffff\n      and\n      dup2\n      mstore\n      0x20\n      add\n      swap1\n      dup2\n      mstore\n      0x20\n      add\n      0x00\n      keccak256\n        /* \"stk.sol\":3224:3244  stakes[_user].length */\n      dup1\n      sload\n      swap1\n      pop\n        /* \"stk.sol\":3217:3244  return stakes[_user].length */\n      swap1\n      pop\n        /* \"stk.sol\":3137:3251  function getStakeCount(address _user) external view returns (uint256) {... */\n      swap2\n      swap1\n      pop\n      jump\t// out\n        /* \"stk.sol\":3630:3741  function getRewardBalance(address _user) external view returns (uint256) {... */\n    tag_41:\n        /* \"stk.sol\":3694:3701  uint256 */\n      0x00\n        /* \"stk.sol\":3720:3727  rewards */\n      0x04\n        /* \"stk.sol\":3720:3734  rewards[_user] */\n      0x00\n        /* \"stk.sol\":3728:3733  _user */\n      dup4\n        /* \"stk.sol\":3720:3734  rewards[_user] */\n      0xffffffffffffffffffffffffffffffffffffffff\n      and\n      0xffffffffffffffffffffffffffffffffffffffff\n      and\n      dup2\n      mstore\n      0x20\n      add\n      swap1\n      dup2\n      mstore\n      0x20\n      add\n      0x00\n      keccak256\n      sload\n        /* \"stk.sol\":3713:3734  return rewards[_user] */\n      swap1\n      pop\n        /* \"stk.sol\":3630:3741  function getRewardBalance(address _user) external view returns (uint256) {... */\n      swap2\n      swap1\n      pop\n      jump\t// out\n        /* \"stk.sol\":2541:3088  function calculateReward(address _user) public view returns (uint256) {... */\n    tag_45:\n        /* \"stk.sol\":2602:2609  uint256 */\n      0x00\n        /* \"stk.sol\":2621:2640  uint256 totalReward */\n      dup1\n        /* \"stk.sol\":2643:2644  0 */\n      0x00\n        /* \"stk.sol\":2621:2644  uint256 totalReward = 0 */\n      swap1\n      pop\n        /* \"stk.sol\":2654:2680  Stake[] storage userStakes */\n      0x00\n        /* \"stk.sol\":2683:2689  stakes */\n      0x03\n        /* \"stk.sol\":2683:2696  stakes[_user] */\n      0x00\n        /* \"stk.sol\":2690:2695  _user */\n      dup6\n        /* \"stk.sol\":2683:2696  stakes[_user] */\n      0xffffffffffffffffffffffffffffffffffffffff\n      and\n      0xffffffffffffffffffffffffffffffffffffffff\n      and\n      dup2\n      mstore\n      0x20\n      add\n      swap1\n      dup2\n      mstore\n      0x20\n      add\n      0x00\n      keccak256\n        /* \"stk.sol\":2654:2696  Stake[] storage userStakes = stakes[_user] */\n      swap1\n      pop\n        /* \"stk.sol\":2712:2721  uint256 i */\n      0x00\n        /* \"stk.sol\":2707:3053  for (uint256 i = 0; i < userStakes.length; i++) {... */\n    tag_140:\n        /* \"stk.sol\":2731:2741  userStakes */\n      dup2\n        /* \"stk.sol\":2731:2748  userStakes.length */\n      dup1\n      sload\n      swap1\n      pop\n        /* \"stk.sol\":2727:2728  i */\n      dup2\n        /* \"stk.sol\":2727:2748  i < userStakes.length */\n      lt\n        /* \"stk.sol\":2707:3053  for (uint256 i = 0; i < userStakes.length; i++) {... */\n      iszero\n      tag_141\n      jumpi\n        /* \"stk.sol\":2769:2792  Stake storage stakeInfo */\n      0x00\n        /* \"stk.sol\":2795:2805  userStakes */\n      dup3\n        /* \"stk.sol\":2806:2807  i */\n      dup3\n        /* \"stk.sol\":2795:2808  userStakes[i] */\n      dup2\n      sload\n      dup2\n      lt\n      tag_143\n      jumpi\n      tag_144\n      tag_60\n      jump\t// in\n    tag_144:\n    tag_143:\n      swap1\n      0x00\n      mstore\n      keccak256(0x00, 0x20)\n      swap1\n      0x03\n      mul\n      add\n        /* \"stk.sol\":2769:2808  Stake storage stakeInfo = userStakes[i] */\n      swap1\n      pop\n        /* \"stk.sol\":2822:2841  uint256 elapsedTime */\n      0x00\n        /* \"stk.sol\":2844:2884  block.timestamp.sub(stakeInfo.startTime) */\n      tag_146\n        /* \"stk.sol\":2864:2873  stakeInfo */\n      dup3\n        /* \"stk.sol\":2864:2883  stakeInfo.startTime */\n      0x01\n      add\n      sload\n        /* \"stk.sol\":2844:2859  block.timestamp */\n      timestamp\n        /* \"stk.sol\":2844:2863  block.timestamp.sub */\n      tag_147\n      swap1\n        /* \"stk.sol\":2844:2884  block.timestamp.sub(stakeInfo.startTime) */\n      swap2\n      swap1\n      0xffffffff\n      and\n      jump\t// in\n    tag_146:\n        /* \"stk.sol\":2822:2884  uint256 elapsedTime = block.timestamp.sub(stakeInfo.startTime) */\n      swap1\n      pop\n        /* \"stk.sol\":2898:2912  uint256 reward */\n      0x00\n        /* \"stk.sol\":2915:2974  stakeInfo.amount.mul(elapsedTime).mul(rewardRate).div(1e18) */\n      tag_148\n        /* \"stk.sol\":2969:2973  1e18 */\n      0x0de0b6b3a7640000\n        /* \"stk.sol\":2915:2964  stakeInfo.amount.mul(elapsedTime).mul(rewardRate) */\n      tag_149\n        /* \"stk.sol\":2953:2963  rewardRate */\n      sload(0x01)\n        /* \"stk.sol\":2915:2948  stakeInfo.amount.mul(elapsedTime) */\n      tag_150\n        /* \"stk.sol\":2936:2947  elapsedTime */\n      dup7\n        /* \"stk.sol\":2915:2924  stakeInfo */\n      dup9\n        /* \"stk.sol\":2915:2931  stakeInfo.amount */\n      0x00\n      add\n      sload\n        /* \"stk.sol\":2915:2935  stakeInfo.amount.mul */\n      tag_151\n      swap1\n        /* \"stk.sol\":2915:2948  stakeInfo.amount.mul(elapsedTime) */\n      swap2\n      swap1\n      0xffffffff\n      and\n      jump\t// in\n    tag_150:\n        /* \"stk.sol\":2915:2952  stakeInfo.amount.mul(elapsedTime).mul */\n      tag_151\n      swap1\n        /* \"stk.sol\":2915:2964  stakeInfo.amount.mul(elapsedTime).mul(rewardRate) */\n      swap2\n      swap1\n      0xffffffff\n      and\n      jump\t// in\n    tag_149:\n        /* \"stk.sol\":2915:2968  stakeInfo.amount.mul(elapsedTime).mul(rewardRate).div */\n      tag_152\n      swap1\n        /* \"stk.sol\":2915:2974  stakeInfo.amount.mul(elapsedTime).mul(rewardRate).div(1e18) */\n      swap2\n      swap1\n      0xffffffff\n      and\n      jump\t// in\n    tag_148:\n        /* \"stk.sol\":2898:2974  uint256 reward = stakeInfo.amount.mul(elapsedTime).mul(rewardRate).div(1e18) */\n      swap1\n      pop\n        /* \"stk.sol\":3019:3042  totalReward.add(reward) */\n      tag_153\n        /* \"stk.sol\":3035:3041  reward */\n      dup2\n        /* \"stk.sol\":3019:3030  totalReward */\n      dup8\n        /* \"stk.sol\":3019:3034  totalReward.add */\n      tag_154\n      swap1\n        /* \"stk.sol\":3019:3042  totalReward.add(reward) */\n      swap2\n      swap1\n      0xffffffff\n      and\n      jump\t// in\n    tag_153:\n        /* \"stk.sol\":3005:3042  totalReward = totalReward.add(reward) */\n      swap6\n      pop\n        /* \"stk.sol\":2755:3053  {... */\n      pop\n      pop\n      pop\n        /* \"stk.sol\":2750:2753  i++ */\n      dup1\n      dup1\n      tag_155\n      swap1\n      tag_156\n      jump\t// in\n    tag_155:\n      swap2\n      pop\n      pop\n        /* \"stk.sol\":2707:3053  for (uint256 i = 0; i < userStakes.length; i++) {... */\n      jump(tag_140)\n    tag_141:\n      pop\n        /* \"stk.sol\":3070:3081  totalReward */\n      dup2\n        /* \"stk.sol\":3063:3081  return totalReward */\n      swap3\n      pop\n      pop\n      pop\n        /* \"stk.sol\":2541:3088  function calculateReward(address _user) public view returns (uint256) {... */\n      swap2\n      swap1\n      pop\n      jump\t// out\n        /* \"stk.sol\":424:459  uint256 public minStakeAmount = 100 */\n    tag_48:\n      sload(0x02)\n      dup2\n      jump\t// out\n        /* \"stk.sol\":300:319  IERC20 public token */\n    tag_51:\n      0x00\n      dup1\n      sload\n      swap1\n      0x0100\n      exp\n      swap1\n      div\n      0xffffffffffffffffffffffffffffffffffffffff\n      and\n      dup2\n      jump\t// out\n        /* \"@openzeppelin/contracts/utils/Context.sol\":640:736  function _msgSender() internal view virtual returns (address) {... */\n    tag_64:\n        /* \"@openzeppelin/contracts/utils/Context.sol\":693:700  address */\n      0x00\n        /* \"@openzeppelin/contracts/utils/Context.sol\":719:729  msg.sender */\n      caller\n        /* \"@openzeppelin/contracts/utils/Context.sol\":712:729  return msg.sender */\n      swap1\n      pop\n        /* \"@openzeppelin/contracts/utils/Context.sol\":640:736  function _msgSender() internal view virtual returns (address) {... */\n      swap1\n      jump\t// out\n        /* \"@openzeppelin/contracts/utils/math/SafeMath.sol\":3122:3218  function sub(uint256 a, uint256 b) internal pure returns (uint256) {... */\n    tag_147:\n        /* \"@openzeppelin/contracts/utils/math/SafeMath.sol\":3180:3187  uint256 */\n      0x00\n        /* \"@openzeppelin/contracts/utils/math/SafeMath.sol\":3210:3211  b */\n      dup2\n        /* \"@openzeppelin/contracts/utils/math/SafeMath.sol\":3206:3207  a */\n      dup4\n        /* \"@openzeppelin/contracts/utils/math/SafeMath.sol\":3206:3211  a - b */\n      tag_159\n      swap2\n      swap1\n      tag_77\n      jump\t// in\n    tag_159:\n        /* \"@openzeppelin/contracts/utils/math/SafeMath.sol\":3199:3211  return a - b */\n      swap1\n      pop\n        /* \"@openzeppelin/contracts/utils/math/SafeMath.sol\":3122:3218  function sub(uint256 a, uint256 b) internal pure returns (uint256) {... */\n      swap3\n      swap2\n      pop\n      pop\n      jump\t// out\n        /* \"@openzeppelin/contracts/utils/math/SafeMath.sol\":3465:3561  function mul(uint256 a, uint256 b) internal pure returns (uint256) {... */\n    tag_151:\n        /* \"@openzeppelin/contracts/utils/math/SafeMath.sol\":3523:3530  uint256 */\n      0x00\n        /* \"@openzeppelin/contracts/utils/math/SafeMath.sol\":3553:3554  b */\n      dup2\n        /* \"@openzeppelin/contracts/utils/math/SafeMath.sol\":3549:3550  a */\n      dup4\n        /* \"@openzeppelin/contracts/utils/math/SafeMath.sol\":3549:3554  a * b */\n      tag_161\n      swap2\n      swap1\n      tag_162\n      jump\t// in\n    tag_161:\n        /* \"@openzeppelin/contracts/utils/math/SafeMath.sol\":3542:3554  return a * b */\n      swap1\n      pop\n        /* \"@openzeppelin/contracts/utils/math/SafeMath.sol\":3465:3561  function mul(uint256 a, uint256 b) internal pure returns (uint256) {... */\n      swap3\n      swap2\n      pop\n      pop\n      jump\t// out\n        /* \"@openzeppelin/contracts/utils/math/SafeMath.sol\":3850:3946  function div(uint256 a, uint256 b) internal pure returns (uint256) {... */\n    tag_152:\n        /* \"@openzeppelin/contracts/utils/math/SafeMath.sol\":3908:3915  uint256 */\n      0x00\n        /* \"@openzeppelin/contracts/utils/math/SafeMath.sol\":3938:3939  b */\n      dup2\n        /* \"@openzeppelin/contracts/utils/math/SafeMath.sol\":3934:3935  a */\n      dup4\n        /* \"@openzeppelin/contracts/utils/math/SafeMath.sol\":3934:3939  a / b */\n      tag_164\n      swap2\n      swap1\n      tag_165\n      jump\t// in\n    tag_164:\n        /* \"@openzeppelin/contracts/utils/math/SafeMath.sol\":3927:3939  return a / b */\n      swap1\n      pop\n        /* \"@openzeppelin/contracts/utils/math/SafeMath.sol\":3850:3946  function div(uint256 a, uint256 b) internal pure returns (uint256) {... */\n      swap3\n      swap2\n      pop\n      pop\n      jump\t// out\n        /* \"@openzeppelin/contracts/utils/math/SafeMath.sol\":2755:2851  function add(uint256 a, uint256 b) internal pure returns (uint256) {... */\n    tag_154:\n        /* \"@openzeppelin/contracts/utils/math/SafeMath.sol\":2813:2820  uint256 */\n      0x00\n        /* \"@openzeppelin/contracts/utils/math/SafeMath.sol\":2843:2844  b */\n      dup2\n        /* \"@openzeppelin/contracts/utils/math/SafeMath.sol\":2839:2840  a */\n      dup4\n        /* \"@openzeppelin/contracts/utils/math/SafeMath.sol\":2839:2844  a + b */\n      tag_167\n      swap2\n      swap1\n      tag_168\n      jump\t// in\n    tag_167:\n        /* \"@openzeppelin/contracts/utils/math/SafeMath.sol\":2832:2844  return a + b */\n      swap1\n      pop\n        /* \"@openzeppelin/contracts/utils/math/SafeMath.sol\":2755:2851  function add(uint256 a, uint256 b) internal pure returns (uint256) {... */\n      swap3\n      swap2\n      pop\n      pop\n      jump\t// out\n        /* \"#utility.yul\":88:205   */\n    tag_170:\n        /* \"#utility.yul\":197:198   */\n      0x00\n        /* \"#utility.yul\":194:195   */\n      dup1\n        /* \"#utility.yul\":187:199   */\n      revert\n        /* \"#utility.yul\":334:460   */\n    tag_172:\n        /* \"#utility.yul\":371:378   */\n      0x00\n        /* \"#utility.yul\":411:453   */\n      0xffffffffffffffffffffffffffffffffffffffff\n        /* \"#utility.yul\":404:409   */\n      dup3\n        /* \"#utility.yul\":400:454   */\n      and\n        /* \"#utility.yul\":389:454   */\n      swap1\n      pop\n        /* \"#utility.yul\":334:460   */\n      swap2\n      swap1\n      pop\n      jump\t// out\n        /* \"#utility.yul\":466:562   */\n    tag_173:\n        /* \"#utility.yul\":503:510   */\n      0x00\n        /* \"#utility.yul\":532:556   */\n      tag_210\n        /* \"#utility.yul\":550:555   */\n      dup3\n        /* \"#utility.yul\":532:556   */\n      tag_172\n      jump\t// in\n    tag_210:\n        /* \"#utility.yul\":521:556   */\n      swap1\n      pop\n        /* \"#utility.yul\":466:562   */\n      swap2\n      swap1\n      pop\n      jump\t// out\n        /* \"#utility.yul\":568:690   */\n    tag_174:\n        /* \"#utility.yul\":641:665   */\n      tag_212\n        /* \"#utility.yul\":659:664   */\n      dup2\n        /* \"#utility.yul\":641:665   */\n      tag_173\n      jump\t// in\n    tag_212:\n        /* \"#utility.yul\":634:639   */\n      dup2\n        /* \"#utility.yul\":631:666   */\n      eq\n        /* \"#utility.yul\":621:684   */\n      tag_213\n      jumpi\n        /* \"#utility.yul\":680:681   */\n      0x00\n        /* \"#utility.yul\":677:678   */\n      dup1\n        /* \"#utility.yul\":670:682   */\n      revert\n        /* \"#utility.yul\":621:684   */\n    tag_213:\n        /* \"#utility.yul\":568:690   */\n      pop\n      jump\t// out\n        /* \"#utility.yul\":696:835   */\n    tag_175:\n        /* \"#utility.yul\":742:747   */\n      0x00\n        /* \"#utility.yul\":780:786   */\n      dup2\n        /* \"#utility.yul\":767:787   */\n      calldataload\n        /* \"#utility.yul\":758:787   */\n      swap1\n      pop\n        /* \"#utility.yul\":796:829   */\n      tag_215\n        /* \"#utility.yul\":823:828   */\n      dup2\n        /* \"#utility.yul\":796:829   */\n      tag_174\n      jump\t// in\n    tag_215:\n        /* \"#utility.yul\":696:835   */\n      swap3\n      swap2\n      pop\n      pop\n      jump\t// out\n        /* \"#utility.yul\":841:918   */\n    tag_176:\n        /* \"#utility.yul\":878:885   */\n      0x00\n        /* \"#utility.yul\":907:912   */\n      dup2\n        /* \"#utility.yul\":896:912   */\n      swap1\n      pop\n        /* \"#utility.yul\":841:918   */\n      swap2\n      swap1\n      pop\n      jump\t// out\n        /* \"#utility.yul\":924:1046   */\n    tag_177:\n        /* \"#utility.yul\":997:1021   */\n      tag_218\n        /* \"#utility.yul\":1015:1020   */\n      dup2\n        /* \"#utility.yul\":997:1021   */\n      tag_176\n      jump\t// in\n    tag_218:\n        /* \"#utility.yul\":990:995   */\n      dup2\n        /* \"#utility.yul\":987:1022   */\n      eq\n        /* \"#utility.yul\":977:1040   */\n      tag_219\n      jumpi\n        /* \"#utility.yul\":1036:1037   */\n      0x00\n        /* \"#utility.yul\":1033:1034   */\n      dup1\n        /* \"#utility.yul\":1026:1038   */\n      revert\n        /* \"#utility.yul\":977:1040   */\n    tag_219:\n        /* \"#utility.yul\":924:1046   */\n      pop\n      jump\t// out\n        /* \"#utility.yul\":1052:1191   */\n    tag_178:\n        /* \"#utility.yul\":1098:1103   */\n      0x00\n        /* \"#utility.yul\":1136:1142   */\n      dup2\n        /* \"#utility.yul\":1123:1143   */\n      calldataload\n        /* \"#utility.yul\":1114:1143   */\n      swap1\n      pop\n        /* \"#utility.yul\":1152:1185   */\n      tag_221\n        /* \"#utility.yul\":1179:1184   */\n      dup2\n        /* \"#utility.yul\":1152:1185   */\n      tag_177\n      jump\t// in\n    tag_221:\n        /* \"#utility.yul\":1052:1191   */\n      swap3\n      swap2\n      pop\n      pop\n      jump\t// out\n        /* \"#utility.yul\":1197:1671   */\n    tag_16:\n        /* \"#utility.yul\":1265:1271   */\n      0x00\n        /* \"#utility.yul\":1273:1279   */\n      dup1\n        /* \"#utility.yul\":1322:1324   */\n      0x40\n        /* \"#utility.yul\":1310:1319   */\n      dup4\n        /* \"#utility.yul\":1301:1308   */\n      dup6\n        /* \"#utility.yul\":1297:1320   */\n      sub\n        /* \"#utility.yul\":1293:1325   */\n      slt\n        /* \"#utility.yul\":1290:1409   */\n      iszero\n      tag_223\n      jumpi\n        /* \"#utility.yul\":1328:1407   */\n      tag_224\n      tag_170\n      jump\t// in\n    tag_224:\n        /* \"#utility.yul\":1290:1409   */\n    tag_223:\n        /* \"#utility.yul\":1448:1449   */\n      0x00\n        /* \"#utility.yul\":1473:1526   */\n      tag_225\n        /* \"#utility.yul\":1518:1525   */\n      dup6\n        /* \"#utility.yul\":1509:1515   */\n      dup3\n        /* \"#utility.yul\":1498:1507   */\n      dup7\n        /* \"#utility.yul\":1494:1516   */\n      add\n        /* \"#utility.yul\":1473:1526   */\n      tag_175\n      jump\t// in\n    tag_225:\n        /* \"#utility.yul\":1463:1526   */\n      swap3\n      pop\n        /* \"#utility.yul\":1419:1536   */\n      pop\n        /* \"#utility.yul\":1575:1577   */\n      0x20\n        /* \"#utility.yul\":1601:1654   */\n      tag_226\n        /* \"#utility.yul\":1646:1653   */\n      dup6\n        /* \"#utility.yul\":1637:1643   */\n      dup3\n        /* \"#utility.yul\":1626:1635   */\n      dup7\n        /* \"#utility.yul\":1622:1644   */\n      add\n        /* \"#utility.yul\":1601:1654   */\n      tag_178\n      jump\t// in\n    tag_226:\n        /* \"#utility.yul\":1591:1654   */\n      swap2\n      pop\n        /* \"#utility.yul\":1546:1664   */\n      pop\n        /* \"#utility.yul\":1197:1671   */\n      swap3\n      pop\n      swap3\n      swap1\n      pop\n      jump\t// out\n        /* \"#utility.yul\":1677:1795   */\n    tag_179:\n        /* \"#utility.yul\":1764:1788   */\n      tag_228\n        /* \"#utility.yul\":1782:1787   */\n      dup2\n        /* \"#utility.yul\":1764:1788   */\n      tag_176\n      jump\t// in\n    tag_228:\n        /* \"#utility.yul\":1759:1762   */\n      dup3\n        /* \"#utility.yul\":1752:1789   */\n      mstore\n        /* \"#utility.yul\":1677:1795   */\n      pop\n      pop\n      jump\t// out\n        /* \"#utility.yul\":1801:2133   */\n    tag_19:\n        /* \"#utility.yul\":1922:1926   */\n      0x00\n        /* \"#utility.yul\":1960:1962   */\n      0x40\n        /* \"#utility.yul\":1949:1958   */\n      dup3\n        /* \"#utility.yul\":1945:1963   */\n      add\n        /* \"#utility.yul\":1937:1963   */\n      swap1\n      pop\n        /* \"#utility.yul\":1973:2044   */\n      tag_230\n        /* \"#utility.yul\":2041:2042   */\n      0x00\n        /* \"#utility.yul\":2030:2039   */\n      dup4\n        /* \"#utility.yul\":2026:2043   */\n      add\n        /* \"#utility.yul\":2017:2023   */\n      dup6\n        /* \"#utility.yul\":1973:2044   */\n      tag_179\n      jump\t// in\n    tag_230:\n        /* \"#utility.yul\":2054:2126   */\n      tag_231\n        /* \"#utility.yul\":2122:2124   */\n      0x20\n        /* \"#utility.yul\":2111:2120   */\n      dup4\n        /* \"#utility.yul\":2107:2125   */\n      add\n        /* \"#utility.yul\":2098:2104   */\n      dup5\n        /* \"#utility.yul\":2054:2126   */\n      tag_179\n      jump\t// in\n    tag_231:\n        /* \"#utility.yul\":1801:2133   */\n      swap4\n      swap3\n      pop\n      pop\n      pop\n      jump\t// out\n        /* \"#utility.yul\":2139:2468   */\n    tag_22:\n        /* \"#utility.yul\":2198:2204   */\n      0x00\n        /* \"#utility.yul\":2247:2249   */\n      0x20\n        /* \"#utility.yul\":2235:2244   */\n      dup3\n        /* \"#utility.yul\":2226:2233   */\n      dup5\n        /* \"#utility.yul\":2222:2245   */\n      sub\n        /* \"#utility.yul\":2218:2250   */\n      slt\n        /* \"#utility.yul\":2215:2334   */\n      iszero\n      tag_233\n      jumpi\n        /* \"#utility.yul\":2253:2332   */\n      tag_234\n      tag_170\n      jump\t// in\n    tag_234:\n        /* \"#utility.yul\":2215:2334   */\n    tag_233:\n        /* \"#utility.yul\":2373:2374   */\n      0x00\n        /* \"#utility.yul\":2398:2451   */\n      tag_235\n        /* \"#utility.yul\":2443:2450   */\n      dup5\n        /* \"#utility.yul\":2434:2440   */\n      dup3\n        /* \"#utility.yul\":2423:2432   */\n      dup6\n        /* \"#utility.yul\":2419:2441   */\n      add\n        /* \"#utility.yul\":2398:2451   */\n      tag_178\n      jump\t// in\n    tag_235:\n        /* \"#utility.yul\":2388:2451   */\n      swap2\n      pop\n        /* \"#utility.yul\":2344:2461   */\n      pop\n        /* \"#utility.yul\":2139:2468   */\n      swap3\n      swap2\n      pop\n      pop\n      jump\t// out\n        /* \"#utility.yul\":2474:2948   */\n    tag_26:\n        /* \"#utility.yul\":2542:2548   */\n      0x00\n        /* \"#utility.yul\":2550:2556   */\n      dup1\n        /* \"#utility.yul\":2599:2601   */\n      0x40\n        /* \"#utility.yul\":2587:2596   */\n      dup4\n        /* \"#utility.yul\":2578:2585   */\n      dup6\n        /* \"#utility.yul\":2574:2597   */\n      sub\n        /* \"#utility.yul\":2570:2602   */\n      slt\n        /* \"#utility.yul\":2567:2686   */\n      iszero\n      tag_237\n      jumpi\n        /* \"#utility.yul\":2605:2684   */\n      tag_238\n      tag_170\n      jump\t// in\n    tag_238:\n        /* \"#utility.yul\":2567:2686   */\n    tag_237:\n        /* \"#utility.yul\":2725:2726   */\n      0x00\n        /* \"#utility.yul\":2750:2803   */\n      tag_239\n        /* \"#utility.yul\":2795:2802   */\n      dup6\n        /* \"#utility.yul\":2786:2792   */\n      dup3\n        /* \"#utility.yul\":2775:2784   */\n      dup7\n        /* \"#utility.yul\":2771:2793   */\n      add\n        /* \"#utility.yul\":2750:2803   */\n      tag_178\n      jump\t// in\n    tag_239:\n        /* \"#utility.yul\":2740:2803   */\n      swap3\n      pop\n        /* \"#utility.yul\":2696:2813   */\n      pop\n        /* \"#utility.yul\":2852:2854   */\n      0x20\n        /* \"#utility.yul\":2878:2931   */\n      tag_240\n        /* \"#utility.yul\":2923:2930   */\n      dup6\n        /* \"#utility.yul\":2914:2920   */\n      dup3\n        /* \"#utility.yul\":2903:2912   */\n      dup7\n        /* \"#utility.yul\":2899:2921   */\n      add\n        /* \"#utility.yul\":2878:2931   */\n      tag_178\n      jump\t// in\n    tag_240:\n        /* \"#utility.yul\":2868:2931   */\n      swap2\n      pop\n        /* \"#utility.yul\":2823:2941   */\n      pop\n        /* \"#utility.yul\":2474:2948   */\n      swap3\n      pop\n      swap3\n      swap1\n      pop\n      jump\t// out\n        /* \"#utility.yul\":2954:3176   */\n    tag_31:\n        /* \"#utility.yul\":3047:3051   */\n      0x00\n        /* \"#utility.yul\":3085:3087   */\n      0x20\n        /* \"#utility.yul\":3074:3083   */\n      dup3\n        /* \"#utility.yul\":3070:3088   */\n      add\n        /* \"#utility.yul\":3062:3088   */\n      swap1\n      pop\n        /* \"#utility.yul\":3098:3169   */\n      tag_242\n        /* \"#utility.yul\":3166:3167   */\n      0x00\n        /* \"#utility.yul\":3155:3164   */\n      dup4\n        /* \"#utility.yul\":3151:3168   */\n      add\n        /* \"#utility.yul\":3142:3148   */\n      dup5\n        /* \"#utility.yul\":3098:3169   */\n      tag_179\n      jump\t// in\n    tag_242:\n        /* \"#utility.yul\":2954:3176   */\n      swap3\n      swap2\n      pop\n      pop\n      jump\t// out\n        /* \"#utility.yul\":3182:3511   */\n    tag_36:\n        /* \"#utility.yul\":3241:3247   */\n      0x00\n        /* \"#utility.yul\":3290:3292   */\n      0x20\n        /* \"#utility.yul\":3278:3287   */\n      dup3\n        /* \"#utility.yul\":3269:3276   */\n      dup5\n        /* \"#utility.yul\":3265:3288   */\n      sub\n        /* \"#utility.yul\":3261:3293   */\n      slt\n        /* \"#utility.yul\":3258:3377   */\n      iszero\n      tag_244\n      jumpi\n        /* \"#utility.yul\":3296:3375   */\n      tag_245\n      tag_170\n      jump\t// in\n    tag_245:\n        /* \"#utility.yul\":3258:3377   */\n    tag_244:\n        /* \"#utility.yul\":3416:3417   */\n      0x00\n        /* \"#utility.yul\":3441:3494   */\n      tag_246\n        /* \"#utility.yul\":3486:3493   */\n      dup5\n        /* \"#utility.yul\":3477:3483   */\n      dup3\n        /* \"#utility.yul\":3466:3475   */\n      dup6\n        /* \"#utility.yul\":3462:3484   */\n      add\n        /* \"#utility.yul\":3441:3494   */\n      tag_175\n      jump\t// in\n    tag_246:\n        /* \"#utility.yul\":3431:3494   */\n      swap2\n      pop\n        /* \"#utility.yul\":3387:3504   */\n      pop\n        /* \"#utility.yul\":3182:3511   */\n      swap3\n      swap2\n      pop\n      pop\n      jump\t// out\n        /* \"#utility.yul\":3517:3577   */\n    tag_180:\n        /* \"#utility.yul\":3545:3548   */\n      0x00\n        /* \"#utility.yul\":3566:3571   */\n      dup2\n        /* \"#utility.yul\":3559:3571   */\n      swap1\n      pop\n        /* \"#utility.yul\":3517:3577   */\n      swap2\n      swap1\n      pop\n      jump\t// out\n        /* \"#utility.yul\":3583:3725   */\n    tag_181:\n        /* \"#utility.yul\":3633:3642   */\n      0x00\n        /* \"#utility.yul\":3666:3719   */\n      tag_249\n        /* \"#utility.yul\":3684:3718   */\n      tag_250\n        /* \"#utility.yul\":3693:3717   */\n      tag_251\n        /* \"#utility.yul\":3711:3716   */\n      dup5\n        /* \"#utility.yul\":3693:3717   */\n      tag_172\n      jump\t// in\n    tag_251:\n        /* \"#utility.yul\":3684:3718   */\n      tag_180\n      jump\t// in\n    tag_250:\n        /* \"#utility.yul\":3666:3719   */\n      tag_172\n      jump\t// in\n    tag_249:\n        /* \"#utility.yul\":3653:3719   */\n      swap1\n      pop\n        /* \"#utility.yul\":3583:3725   */\n      swap2\n      swap1\n      pop\n      jump\t// out\n        /* \"#utility.yul\":3731:3857   */\n    tag_182:\n        /* \"#utility.yul\":3781:3790   */\n      0x00\n        /* \"#utility.yul\":3814:3851   */\n      tag_253\n        /* \"#utility.yul\":3845:3850   */\n      dup3\n        /* \"#utility.yul\":3814:3851   */\n      tag_181\n      jump\t// in\n    tag_253:\n        /* \"#utility.yul\":3801:3851   */\n      swap1\n      pop\n        /* \"#utility.yul\":3731:3857   */\n      swap2\n      swap1\n      pop\n      jump\t// out\n        /* \"#utility.yul\":3863:4002   */\n    tag_183:\n        /* \"#utility.yul\":3926:3935   */\n      0x00\n        /* \"#utility.yul\":3959:3996   */\n      tag_255\n        /* \"#utility.yul\":3990:3995   */\n      dup3\n        /* \"#utility.yul\":3959:3996   */\n      tag_182\n      jump\t// in\n    tag_255:\n        /* \"#utility.yul\":3946:3996   */\n      swap1\n      pop\n        /* \"#utility.yul\":3863:4002   */\n      swap2\n      swap1\n      pop\n      jump\t// out\n        /* \"#utility.yul\":4008:4165   */\n    tag_184:\n        /* \"#utility.yul\":4108:4158   */\n      tag_257\n        /* \"#utility.yul\":4152:4157   */\n      dup2\n        /* \"#utility.yul\":4108:4158   */\n      tag_183\n      jump\t// in\n    tag_257:\n        /* \"#utility.yul\":4103:4106   */\n      dup3\n        /* \"#utility.yul\":4096:4159   */\n      mstore\n        /* \"#utility.yul\":4008:4165   */\n      pop\n      pop\n      jump\t// out\n        /* \"#utility.yul\":4171:4419   */\n    tag_53:\n        /* \"#utility.yul\":4277:4281   */\n      0x00\n        /* \"#utility.yul\":4315:4317   */\n      0x20\n        /* \"#utility.yul\":4304:4313   */\n      dup3\n        /* \"#utility.yul\":4300:4318   */\n      add\n        /* \"#utility.yul\":4292:4318   */\n      swap1\n      pop\n        /* \"#utility.yul\":4328:4412   */\n      tag_259\n        /* \"#utility.yul\":4409:4410   */\n      0x00\n        /* \"#utility.yul\":4398:4407   */\n      dup4\n        /* \"#utility.yul\":4394:4411   */\n      add\n        /* \"#utility.yul\":4385:4391   */\n      dup5\n        /* \"#utility.yul\":4328:4412   */\n      tag_184\n      jump\t// in\n    tag_259:\n        /* \"#utility.yul\":4171:4419   */\n      swap3\n      swap2\n      pop\n      pop\n      jump\t// out\n        /* \"#utility.yul\":4425:4594   */\n    tag_185:\n        /* \"#utility.yul\":4509:4520   */\n      0x00\n        /* \"#utility.yul\":4543:4549   */\n      dup3\n        /* \"#utility.yul\":4538:4541   */\n      dup3\n        /* \"#utility.yul\":4531:4550   */\n      mstore\n        /* \"#utility.yul\":4583:4587   */\n      0x20\n        /* \"#utility.yul\":4578:4581   */\n      dup3\n        /* \"#utility.yul\":4574:4588   */\n      add\n        /* \"#utility.yul\":4559:4588   */\n      swap1\n      pop\n        /* \"#utility.yul\":4425:4594   */\n      swap3\n      swap2\n      pop\n      pop\n      jump\t// out\n        /* \"#utility.yul\":4600:4769   */\n    tag_186:\n        /* \"#utility.yul\":4740:4761   */\n      0x496e76616c6964207374616b6520696e64657800000000000000000000000000\n        /* \"#utility.yul\":4736:4737   */\n      0x00\n        /* \"#utility.yul\":4728:4734   */\n      dup3\n        /* \"#utility.yul\":4724:4738   */\n      add\n        /* \"#utility.yul\":4717:4762   */\n      mstore\n        /* \"#utility.yul\":4600:4769   */\n      pop\n      jump\t// out\n        /* \"#utility.yul\":4775:5141   */\n    tag_187:\n        /* \"#utility.yul\":4917:4920   */\n      0x00\n        /* \"#utility.yul\":4938:5005   */\n      tag_263\n        /* \"#utility.yul\":5002:5004   */\n      0x13\n        /* \"#utility.yul\":4997:5000   */\n      dup4\n        /* \"#utility.yul\":4938:5005   */\n      tag_185\n      jump\t// in\n    tag_263:\n        /* \"#utility.yul\":4931:5005   */\n      swap2\n      pop\n        /* \"#utility.yul\":5014:5107   */\n      tag_264\n        /* \"#utility.yul\":5103:5106   */\n      dup3\n        /* \"#utility.yul\":5014:5107   */\n      tag_186\n      jump\t// in\n    tag_264:\n        /* \"#utility.yul\":5132:5134   */\n      0x20\n        /* \"#utility.yul\":5127:5130   */\n      dup3\n        /* \"#utility.yul\":5123:5135   */\n      add\n        /* \"#utility.yul\":5116:5135   */\n      swap1\n      pop\n        /* \"#utility.yul\":4775:5141   */\n      swap2\n      swap1\n      pop\n      jump\t// out\n        /* \"#utility.yul\":5147:5566   */\n    tag_57:\n        /* \"#utility.yul\":5313:5317   */\n      0x00\n        /* \"#utility.yul\":5351:5353   */\n      0x20\n        /* \"#utility.yul\":5340:5349   */\n      dup3\n        /* \"#utility.yul\":5336:5354   */\n      add\n        /* \"#utility.yul\":5328:5354   */\n      swap1\n      pop\n        /* \"#utility.yul\":5400:5409   */\n      dup2\n        /* \"#utility.yul\":5394:5398   */\n      dup2\n        /* \"#utility.yul\":5390:5410   */\n      sub\n        /* \"#utility.yul\":5386:5387   */\n      0x00\n        /* \"#utility.yul\":5375:5384   */\n      dup4\n        /* \"#utility.yul\":5371:5388   */\n      add\n        /* \"#utility.yul\":5364:5411   */\n      mstore\n        /* \"#utility.yul\":5428:5559   */\n      tag_266\n        /* \"#utility.yul\":5554:5558   */\n      dup2\n        /* \"#utility.yul\":5428:5559   */\n      tag_187\n      jump\t// in\n    tag_266:\n        /* \"#utility.yul\":5420:5559   */\n      swap1\n      pop\n        /* \"#utility.yul\":5147:5566   */\n      swap2\n      swap1\n      pop\n      jump\t// out\n        /* \"#utility.yul\":5572:5752   */\n    tag_60:\n        /* \"#utility.yul\":5620:5697   */\n      0x4e487b7100000000000000000000000000000000000000000000000000000000\n        /* \"#utility.yul\":5617:5618   */\n      0x00\n        /* \"#utility.yul\":5610:5698   */\n      mstore\n        /* \"#utility.yul\":5717:5721   */\n      0x32\n        /* \"#utility.yul\":5714:5715   */\n      0x04\n        /* \"#utility.yul\":5707:5722   */\n      mstore\n        /* \"#utility.yul\":5741:5745   */\n      0x24\n        /* \"#utility.yul\":5738:5739   */\n      0x00\n        /* \"#utility.yul\":5731:5746   */\n      revert\n        /* \"#utility.yul\":5758:5936   */\n    tag_188:\n        /* \"#utility.yul\":5898:5928   */\n      0x5374616b696e6720706572696f64206e6f7420636f6d706c6574656400000000\n        /* \"#utility.yul\":5894:5895   */\n      0x00\n        /* \"#utility.yul\":5886:5892   */\n      dup3\n        /* \"#utility.yul\":5882:5896   */\n      add\n        /* \"#utility.yul\":5875:5929   */\n      mstore\n        /* \"#utility.yul\":5758:5936   */\n      pop\n      jump\t// out\n        /* \"#utility.yul\":5942:6308   */\n    tag_189:\n        /* \"#utility.yul\":6084:6087   */\n      0x00\n        /* \"#utility.yul\":6105:6172   */\n      tag_270\n        /* \"#utility.yul\":6169:6171   */\n      0x1c\n        /* \"#utility.yul\":6164:6167   */\n      dup4\n        /* \"#utility.yul\":6105:6172   */\n      tag_185\n      jump\t// in\n    tag_270:\n        /* \"#utility.yul\":6098:6172   */\n      swap2\n      pop\n        /* \"#utility.yul\":6181:6274   */\n      tag_271\n        /* \"#utility.yul\":6270:6273   */\n      dup3\n        /* \"#utility.yul\":6181:6274   */\n      tag_188\n      jump\t// in\n    tag_271:\n        /* \"#utility.yul\":6299:6301   */\n      0x20\n        /* \"#utility.yul\":6294:6297   */\n      dup3\n        /* \"#utility.yul\":6290:6302   */\n      add\n        /* \"#utility.yul\":6283:6302   */\n      swap1\n      pop\n        /* \"#utility.yul\":5942:6308   */\n      swap2\n      swap1\n      pop\n      jump\t// out\n        /* \"#utility.yul\":6314:6733   */\n    tag_73:\n        /* \"#utility.yul\":6480:6484   */\n      0x00\n        /* \"#utility.yul\":6518:6520   */\n      0x20\n        /* \"#utility.yul\":6507:6516   */\n      dup3\n        /* \"#utility.yul\":6503:6521   */\n      add\n        /* \"#utility.yul\":6495:6521   */\n      swap1\n      pop\n        /* \"#utility.yul\":6567:6576   */\n      dup2\n        /* \"#utility.yul\":6561:6565   */\n      dup2\n        /* \"#utility.yul\":6557:6577   */\n      sub\n        /* \"#utility.yul\":6553:6554   */\n      0x00\n        /* \"#utility.yul\":6542:6551   */\n      dup4\n        /* \"#utility.yul\":6538:6555   */\n      add\n        /* \"#utility.yul\":6531:6578   */\n      mstore\n        /* \"#utility.yul\":6595:6726   */\n      tag_273\n        /* \"#utility.yul\":6721:6725   */\n      dup2\n        /* \"#utility.yul\":6595:6726   */\n      tag_189\n      jump\t// in\n    tag_273:\n        /* \"#utility.yul\":6587:6726   */\n      swap1\n      pop\n        /* \"#utility.yul\":6314:6733   */\n      swap2\n      swap1\n      pop\n      jump\t// out\n        /* \"#utility.yul\":6739:6919   */\n    tag_190:\n        /* \"#utility.yul\":6787:6864   */\n      0x4e487b7100000000000000000000000000000000000000000000000000000000\n        /* \"#utility.yul\":6784:6785   */\n      0x00\n        /* \"#utility.yul\":6777:6865   */\n      mstore\n        /* \"#utility.yul\":6884:6888   */\n      0x11\n        /* \"#utility.yul\":6881:6882   */\n      0x04\n        /* \"#utility.yul\":6874:6889   */\n      mstore\n        /* \"#utility.yul\":6908:6912   */\n      0x24\n        /* \"#utility.yul\":6905:6906   */\n      0x00\n        /* \"#utility.yul\":6898:6913   */\n      revert\n        /* \"#utility.yul\":6925:7119   */\n    tag_77:\n        /* \"#utility.yul\":6965:6969   */\n      0x00\n        /* \"#utility.yul\":6985:7005   */\n      tag_276\n        /* \"#utility.yul\":7003:7004   */\n      dup3\n        /* \"#utility.yul\":6985:7005   */\n      tag_176\n      jump\t// in\n    tag_276:\n        /* \"#utility.yul\":6980:7005   */\n      swap2\n      pop\n        /* \"#utility.yul\":7019:7039   */\n      tag_277\n        /* \"#utility.yul\":7037:7038   */\n      dup4\n        /* \"#utility.yul\":7019:7039   */\n      tag_176\n      jump\t// in\n    tag_277:\n        /* \"#utility.yul\":7014:7039   */\n      swap3\n      pop\n        /* \"#utility.yul\":7063:7064   */\n      dup3\n        /* \"#utility.yul\":7060:7061   */\n      dup3\n        /* \"#utility.yul\":7056:7065   */\n      sub\n        /* \"#utility.yul\":7048:7065   */\n      swap1\n      pop\n        /* \"#utility.yul\":7087:7088   */\n      dup2\n        /* \"#utility.yul\":7081:7085   */\n      dup2\n        /* \"#utility.yul\":7078:7089   */\n      gt\n        /* \"#utility.yul\":7075:7112   */\n      iszero\n      tag_278\n      jumpi\n        /* \"#utility.yul\":7092:7110   */\n      tag_279\n      tag_190\n      jump\t// in\n    tag_279:\n        /* \"#utility.yul\":7075:7112   */\n    tag_278:\n        /* \"#utility.yul\":6925:7119   */\n      swap3\n      swap2\n      pop\n      pop\n      jump\t// out\n        /* \"#utility.yul\":7125:7305   */\n    tag_88:\n        /* \"#utility.yul\":7173:7250   */\n      0x4e487b7100000000000000000000000000000000000000000000000000000000\n        /* \"#utility.yul\":7170:7171   */\n      0x00\n        /* \"#utility.yul\":7163:7251   */\n      mstore\n        /* \"#utility.yul\":7270:7274   */\n      0x31\n        /* \"#utility.yul\":7267:7268   */\n      0x04\n        /* \"#utility.yul\":7260:7275   */\n      mstore\n        /* \"#utility.yul\":7294:7298   */\n      0x24\n        /* \"#utility.yul\":7291:7292   */\n      0x00\n        /* \"#utility.yul\":7284:7299   */\n      revert\n        /* \"#utility.yul\":7311:7429   */\n    tag_191:\n        /* \"#utility.yul\":7398:7422   */\n      tag_282\n        /* \"#utility.yul\":7416:7421   */\n      dup2\n        /* \"#utility.yul\":7398:7422   */\n      tag_173\n      jump\t// in\n    tag_282:\n        /* \"#utility.yul\":7393:7396   */\n      dup3\n        /* \"#utility.yul\":7386:7423   */\n      mstore\n        /* \"#utility.yul\":7311:7429   */\n      pop\n      pop\n      jump\t// out\n        /* \"#utility.yul\":7435:7767   */\n    tag_92:\n        /* \"#utility.yul\":7556:7560   */\n      0x00\n        /* \"#utility.yul\":7594:7596   */\n      0x40\n        /* \"#utility.yul\":7583:7592   */\n      dup3\n        /* \"#utility.yul\":7579:7597   */\n      add\n        /* \"#utility.yul\":7571:7597   */\n      swap1\n      pop\n        /* \"#utility.yul\":7607:7678   */\n      tag_284\n        /* \"#utility.yul\":7675:7676   */\n      0x00\n        /* \"#utility.yul\":7664:7673   */\n      dup4\n        /* \"#utility.yul\":7660:7677   */\n      add\n        /* \"#utility.yul\":7651:7657   */\n      dup6\n        /* \"#utility.yul\":7607:7678   */\n      tag_191\n      jump\t// in\n    tag_284:\n        /* \"#utility.yul\":7688:7760   */\n      tag_285\n        /* \"#utility.yul\":7756:7758   */\n      0x20\n        /* \"#utility.yul\":7745:7754   */\n      dup4\n        /* \"#utility.yul\":7741:7759   */\n      add\n        /* \"#utility.yul\":7732:7738   */\n      dup5\n        /* \"#utility.yul\":7688:7760   */\n      tag_179\n      jump\t// in\n    tag_285:\n        /* \"#utility.yul\":7435:7767   */\n      swap4\n      swap3\n      pop\n      pop\n      pop\n      jump\t// out\n        /* \"#utility.yul\":7773:7863   */\n    tag_192:\n        /* \"#utility.yul\":7807:7814   */\n      0x00\n        /* \"#utility.yul\":7850:7855   */\n      dup2\n        /* \"#utility.yul\":7843:7856   */\n      iszero\n        /* \"#utility.yul\":7836:7857   */\n      iszero\n        /* \"#utility.yul\":7825:7857   */\n      swap1\n      pop\n        /* \"#utility.yul\":7773:7863   */\n      swap2\n      swap1\n      pop\n      jump\t// out\n        /* \"#utility.yul\":7869:7985   */\n    tag_193:\n        /* \"#utility.yul\":7939:7960   */\n      tag_288\n        /* \"#utility.yul\":7954:7959   */\n      dup2\n        /* \"#utility.yul\":7939:7960   */\n      tag_192\n      jump\t// in\n    tag_288:\n        /* \"#utility.yul\":7932:7937   */\n      dup2\n        /* \"#utility.yul\":7929:7961   */\n      eq\n        /* \"#utility.yul\":7919:7979   */\n      tag_289\n      jumpi\n        /* \"#utility.yul\":7975:7976   */\n      0x00\n        /* \"#utility.yul\":7972:7973   */\n      dup1\n        /* \"#utility.yul\":7965:7977   */\n      revert\n        /* \"#utility.yul\":7919:7979   */\n    tag_289:\n        /* \"#utility.yul\":7869:7985   */\n      pop\n      jump\t// out\n        /* \"#utility.yul\":7991:8128   */\n    tag_194:\n        /* \"#utility.yul\":8045:8050   */\n      0x00\n        /* \"#utility.yul\":8076:8082   */\n      dup2\n        /* \"#utility.yul\":8070:8083   */\n      mload\n        /* \"#utility.yul\":8061:8083   */\n      swap1\n      pop\n        /* \"#utility.yul\":8092:8122   */\n      tag_291\n        /* \"#utility.yul\":8116:8121   */\n      dup2\n        /* \"#utility.yul\":8092:8122   */\n      tag_193\n      jump\t// in\n    tag_291:\n        /* \"#utility.yul\":7991:8128   */\n      swap3\n      swap2\n      pop\n      pop\n      jump\t// out\n        /* \"#utility.yul\":8134:8479   */\n    tag_96:\n        /* \"#utility.yul\":8201:8207   */\n      0x00\n        /* \"#utility.yul\":8250:8252   */\n      0x20\n        /* \"#utility.yul\":8238:8247   */\n      dup3\n        /* \"#utility.yul\":8229:8236   */\n      dup5\n        /* \"#utility.yul\":8225:8248   */\n      sub\n        /* \"#utility.yul\":8221:8253   */\n      slt\n        /* \"#utility.yul\":8218:8337   */\n      iszero\n      tag_293\n      jumpi\n        /* \"#utility.yul\":8256:8335   */\n      tag_294\n      tag_170\n      jump\t// in\n    tag_294:\n        /* \"#utility.yul\":8218:8337   */\n    tag_293:\n        /* \"#utility.yul\":8376:8377   */\n      0x00\n        /* \"#utility.yul\":8401:8462   */\n      tag_295\n        /* \"#utility.yul\":8454:8461   */\n      dup5\n        /* \"#utility.yul\":8445:8451   */\n      dup3\n        /* \"#utility.yul\":8434:8443   */\n      dup6\n        /* \"#utility.yul\":8430:8452   */\n      add\n        /* \"#utility.yul\":8401:8462   */\n      tag_194\n      jump\t// in\n    tag_295:\n        /* \"#utility.yul\":8391:8462   */\n      swap2\n      pop\n        /* \"#utility.yul\":8347:8472   */\n      pop\n        /* \"#utility.yul\":8134:8479   */\n      swap3\n      swap2\n      pop\n      pop\n      jump\t// out\n        /* \"#utility.yul\":8485:8650   */\n    tag_195:\n        /* \"#utility.yul\":8625:8642   */\n      0x5472616e73666572206661696c65640000000000000000000000000000000000\n        /* \"#utility.yul\":8621:8622   */\n      0x00\n        /* \"#utility.yul\":8613:8619   */\n      dup3\n        /* \"#utility.yul\":8609:8623   */\n      add\n        /* \"#utility.yul\":8602:8643   */\n      mstore\n        /* \"#utility.yul\":8485:8650   */\n      pop\n      jump\t// out\n        /* \"#utility.yul\":8656:9022   */\n    tag_196:\n        /* \"#utility.yul\":8798:8801   */\n      0x00\n        /* \"#utility.yul\":8819:8886   */\n      tag_298\n        /* \"#utility.yul\":8883:8885   */\n      0x0f\n        /* \"#utility.yul\":8878:8881   */\n      dup4\n        /* \"#utility.yul\":8819:8886   */\n      tag_185\n      jump\t// in\n    tag_298:\n        /* \"#utility.yul\":8812:8886   */\n      swap2\n      pop\n        /* \"#utility.yul\":8895:8988   */\n      tag_299\n        /* \"#utility.yul\":8984:8987   */\n      dup3\n        /* \"#utility.yul\":8895:8988   */\n      tag_195\n      jump\t// in\n    tag_299:\n        /* \"#utility.yul\":9013:9015   */\n      0x20\n        /* \"#utility.yul\":9008:9011   */\n      dup3\n        /* \"#utility.yul\":9004:9016   */\n      add\n        /* \"#utility.yul\":8997:9016   */\n      swap1\n      pop\n        /* \"#utility.yul\":8656:9022   */\n      swap2\n      swap1\n      pop\n      jump\t// out\n        /* \"#utility.yul\":9028:9447   */\n    tag_99:\n        /* \"#utility.yul\":9194:9198   */\n      0x00\n        /* \"#utility.yul\":9232:9234   */\n      0x20\n        /* \"#utility.yul\":9221:9230   */\n      dup3\n        /* \"#utility.yul\":9217:9235   */\n      add\n        /* \"#utility.yul\":9209:9235   */\n      swap1\n      pop\n        /* \"#utility.yul\":9281:9290   */\n      dup2\n        /* \"#utility.yul\":9275:9279   */\n      dup2\n        /* \"#utility.yul\":9271:9291   */\n      sub\n        /* \"#utility.yul\":9267:9268   */\n      0x00\n        /* \"#utility.yul\":9256:9265   */\n      dup4\n        /* \"#utility.yul\":9252:9269   */\n      add\n        /* \"#utility.yul\":9245:9292   */\n      mstore\n        /* \"#utility.yul\":9309:9440   */\n      tag_301\n        /* \"#utility.yul\":9435:9439   */\n      dup2\n        /* \"#utility.yul\":9309:9440   */\n      tag_196\n      jump\t// in\n    tag_301:\n        /* \"#utility.yul\":9301:9440   */\n      swap1\n      pop\n        /* \"#utility.yul\":9028:9447   */\n      swap2\n      swap1\n      pop\n      jump\t// out\n        /* \"#utility.yul\":9453:9632   */\n    tag_197:\n        /* \"#utility.yul\":9593:9624   */\n      0x416d6f756e742069732062656c6f77206d696e696d756d207374616b65000000\n        /* \"#utility.yul\":9589:9590   */\n      0x00\n        /* \"#utility.yul\":9581:9587   */\n      dup3\n        /* \"#utility.yul\":9577:9591   */\n      add\n        /* \"#utility.yul\":9570:9625   */\n      mstore\n        /* \"#utility.yul\":9453:9632   */\n      pop\n      jump\t// out\n        /* \"#utility.yul\":9638:10004   */\n    tag_198:\n        /* \"#utility.yul\":9780:9783   */\n      0x00\n        /* \"#utility.yul\":9801:9868   */\n      tag_304\n        /* \"#utility.yul\":9865:9867   */\n      0x1d\n        /* \"#utility.yul\":9860:9863   */\n      dup4\n        /* \"#utility.yul\":9801:9868   */\n      tag_185\n      jump\t// in\n    tag_304:\n        /* \"#utility.yul\":9794:9868   */\n      swap2\n      pop\n        /* \"#utility.yul\":9877:9970   */\n      tag_305\n        /* \"#utility.yul\":9966:9969   */\n      dup3\n        /* \"#utility.yul\":9877:9970   */\n      tag_197\n      jump\t// in\n    tag_305:\n        /* \"#utility.yul\":9995:9997   */\n      0x20\n        /* \"#utility.yul\":9990:9993   */\n      dup3\n        /* \"#utility.yul\":9986:9998   */\n      add\n        /* \"#utility.yul\":9979:9998   */\n      swap1\n      pop\n        /* \"#utility.yul\":9638:10004   */\n      swap2\n      swap1\n      pop\n      jump\t// out\n        /* \"#utility.yul\":10010:10429   */\n    tag_105:\n        /* \"#utility.yul\":10176:10180   */\n      0x00\n        /* \"#utility.yul\":10214:10216   */\n      0x20\n        /* \"#utility.yul\":10203:10212   */\n      dup3\n        /* \"#utility.yul\":10199:10217   */\n      add\n        /* \"#utility.yul\":10191:10217   */\n      swap1\n      pop\n        /* \"#utility.yul\":10263:10272   */\n      dup2\n        /* \"#utility.yul\":10257:10261   */\n      dup2\n        /* \"#utility.yul\":10253:10273   */\n      sub\n        /* \"#utility.yul\":10249:10250   */\n      0x00\n        /* \"#utility.yul\":10238:10247   */\n      dup4\n        /* \"#utility.yul\":10234:10251   */\n      add\n        /* \"#utility.yul\":10227:10274   */\n      mstore\n        /* \"#utility.yul\":10291:10422   */\n      tag_307\n        /* \"#utility.yul\":10417:10421   */\n      dup2\n        /* \"#utility.yul\":10291:10422   */\n      tag_198\n      jump\t// in\n    tag_307:\n        /* \"#utility.yul\":10283:10422   */\n      swap1\n      pop\n        /* \"#utility.yul\":10010:10429   */\n      swap2\n      swap1\n      pop\n      jump\t// out\n        /* \"#utility.yul\":10435:10656   */\n    tag_199:\n        /* \"#utility.yul\":10575:10609   */\n      0x4475726174696f6e206d7573742062652067726561746572207468616e207a65\n        /* \"#utility.yul\":10571:10572   */\n      0x00\n        /* \"#utility.yul\":10563:10569   */\n      dup3\n        /* \"#utility.yul\":10559:10573   */\n      add\n        /* \"#utility.yul\":10552:10610   */\n      mstore\n        /* \"#utility.yul\":10644:10648   */\n      0x726f000000000000000000000000000000000000000000000000000000000000\n        /* \"#utility.yul\":10639:10641   */\n      0x20\n        /* \"#utility.yul\":10631:10637   */\n      dup3\n        /* \"#utility.yul\":10627:10642   */\n      add\n        /* \"#utility.yul\":10620:10649   */\n      mstore\n        /* \"#utility.yul\":10435:10656   */\n      pop\n      jump\t// out\n        /* \"#utility.yul\":10662:11028   */\n    tag_200:\n        /* \"#utility.yul\":10804:10807   */\n      0x00\n        /* \"#utility.yul\":10825:10892   */\n      tag_310\n        /* \"#utility.yul\":10889:10891   */\n      0x22\n        /* \"#utility.yul\":10884:10887   */\n      dup4\n        /* \"#utility.yul\":10825:10892   */\n      tag_185\n      jump\t// in\n    tag_310:\n        /* \"#utility.yul\":10818:10892   */\n      swap2\n      pop\n        /* \"#utility.yul\":10901:10994   */\n      tag_311\n        /* \"#utility.yul\":10990:10993   */\n      dup3\n        /* \"#utility.yul\":10901:10994   */\n      tag_199\n      jump\t// in\n    tag_311:\n        /* \"#utility.yul\":11019:11021   */\n      0x40\n        /* \"#utility.yul\":11014:11017   */\n      dup3\n        /* \"#utility.yul\":11010:11022   */\n      add\n        /* \"#utility.yul\":11003:11022   */\n      swap1\n      pop\n        /* \"#utility.yul\":10662:11028   */\n      swap2\n      swap1\n      pop\n      jump\t// out\n        /* \"#utility.yul\":11034:11453   */\n    tag_108:\n        /* \"#utility.yul\":11200:11204   */\n      0x00\n        /* \"#utility.yul\":11238:11240   */\n      0x20\n        /* \"#utility.yul\":11227:11236   */\n      dup3\n        /* \"#utility.yul\":11223:11241   */\n      add\n        /* \"#utility.yul\":11215:11241   */\n      swap1\n      pop\n        /* \"#utility.yul\":11287:11296   */\n      dup2\n        /* \"#utility.yul\":11281:11285   */\n      dup2\n        /* \"#utility.yul\":11277:11297   */\n      sub\n        /* \"#utility.yul\":11273:11274   */\n      0x00\n        /* \"#utility.yul\":11262:11271   */\n      dup4\n        /* \"#utility.yul\":11258:11275   */\n      add\n        /* \"#utility.yul\":11251:11298   */\n      mstore\n        /* \"#utility.yul\":11315:11446   */\n      tag_313\n        /* \"#utility.yul\":11441:11445   */\n      dup2\n        /* \"#utility.yul\":11315:11446   */\n      tag_200\n      jump\t// in\n    tag_313:\n        /* \"#utility.yul\":11307:11446   */\n      swap1\n      pop\n        /* \"#utility.yul\":11034:11453   */\n      swap2\n      swap1\n      pop\n      jump\t// out\n        /* \"#utility.yul\":11459:11901   */\n    tag_111:\n        /* \"#utility.yul\":11608:11612   */\n      0x00\n        /* \"#utility.yul\":11646:11648   */\n      0x60\n        /* \"#utility.yul\":11635:11644   */\n      dup3\n        /* \"#utility.yul\":11631:11649   */\n      add\n        /* \"#utility.yul\":11623:11649   */\n      swap1\n      pop\n        /* \"#utility.yul\":11659:11730   */\n      tag_315\n        /* \"#utility.yul\":11727:11728   */\n      0x00\n        /* \"#utility.yul\":11716:11725   */\n      dup4\n        /* \"#utility.yul\":11712:11729   */\n      add\n        /* \"#utility.yul\":11703:11709   */\n      dup7\n        /* \"#utility.yul\":11659:11730   */\n      tag_191\n      jump\t// in\n    tag_315:\n        /* \"#utility.yul\":11740:11812   */\n      tag_316\n        /* \"#utility.yul\":11808:11810   */\n      0x20\n        /* \"#utility.yul\":11797:11806   */\n      dup4\n        /* \"#utility.yul\":11793:11811   */\n      add\n        /* \"#utility.yul\":11784:11790   */\n      dup6\n        /* \"#utility.yul\":11740:11812   */\n      tag_191\n      jump\t// in\n    tag_316:\n        /* \"#utility.yul\":11822:11894   */\n      tag_317\n        /* \"#utility.yul\":11890:11892   */\n      0x40\n        /* \"#utility.yul\":11879:11888   */\n      dup4\n        /* \"#utility.yul\":11875:11893   */\n      add\n        /* \"#utility.yul\":11866:11872   */\n      dup5\n        /* \"#utility.yul\":11822:11894   */\n      tag_179\n      jump\t// in\n    tag_317:\n        /* \"#utility.yul\":11459:11901   */\n      swap5\n      swap4\n      pop\n      pop\n      pop\n      pop\n      jump\t// out\n        /* \"#utility.yul\":11907:12076   */\n    tag_201:\n        /* \"#utility.yul\":12047:12068   */\n      0x4e6f207265776172647320746f20636c61696d00000000000000000000000000\n        /* \"#utility.yul\":12043:12044   */\n      0x00\n        /* \"#utility.yul\":12035:12041   */\n      dup3\n        /* \"#utility.yul\":12031:12045   */\n      add\n        /* \"#utility.yul\":12024:12069   */\n      mstore\n        /* \"#utility.yul\":11907:12076   */\n      pop\n      jump\t// out\n        /* \"#utility.yul\":12082:12448   */\n    tag_202:\n        /* \"#utility.yul\":12224:12227   */\n      0x00\n        /* \"#utility.yul\":12245:12312   */\n      tag_320\n        /* \"#utility.yul\":12309:12311   */\n      0x13\n        /* \"#utility.yul\":12304:12307   */\n      dup4\n        /* \"#utility.yul\":12245:12312   */\n      tag_185\n      jump\t// in\n    tag_320:\n        /* \"#utility.yul\":12238:12312   */\n      swap2\n      pop\n        /* \"#utility.yul\":12321:12414   */\n      tag_321\n        /* \"#utility.yul\":12410:12413   */\n      dup3\n        /* \"#utility.yul\":12321:12414   */\n      tag_201\n      jump\t// in\n    tag_321:\n        /* \"#utility.yul\":12439:12441   */\n      0x20\n        /* \"#utility.yul\":12434:12437   */\n      dup3\n        /* \"#utility.yul\":12430:12442   */\n      add\n        /* \"#utility.yul\":12423:12442   */\n      swap1\n      pop\n        /* \"#utility.yul\":12082:12448   */\n      swap2\n      swap1\n      pop\n      jump\t// out\n        /* \"#utility.yul\":12454:12873   */\n    tag_126:\n        /* \"#utility.yul\":12620:12624   */\n      0x00\n        /* \"#utility.yul\":12658:12660   */\n      0x20\n        /* \"#utility.yul\":12647:12656   */\n      dup3\n        /* \"#utility.yul\":12643:12661   */\n      add\n        /* \"#utility.yul\":12635:12661   */\n      swap1\n      pop\n        /* \"#utility.yul\":12707:12716   */\n      dup2\n        /* \"#utility.yul\":12701:12705   */\n      dup2\n        /* \"#utility.yul\":12697:12717   */\n      sub\n        /* \"#utility.yul\":12693:12694   */\n      0x00\n        /* \"#utility.yul\":12682:12691   */\n      dup4\n        /* \"#utility.yul\":12678:12695   */\n      add\n        /* \"#utility.yul\":12671:12718   */\n      mstore\n        /* \"#utility.yul\":12735:12866   */\n      tag_323\n        /* \"#utility.yul\":12861:12865   */\n      dup2\n        /* \"#utility.yul\":12735:12866   */\n      tag_202\n      jump\t// in\n    tag_323:\n        /* \"#utility.yul\":12727:12866   */\n      swap1\n      pop\n        /* \"#utility.yul\":12454:12873   */\n      swap2\n      swap1\n      pop\n      jump\t// out\n        /* \"#utility.yul\":12879:13112   */\n    tag_156:\n        /* \"#utility.yul\":12918:12921   */\n      0x00\n        /* \"#utility.yul\":12941:12965   */\n      tag_325\n        /* \"#utility.yul\":12959:12964   */\n      dup3\n        /* \"#utility.yul\":12941:12965   */\n      tag_176\n      jump\t// in\n    tag_325:\n        /* \"#utility.yul\":12932:12965   */\n      swap2\n      pop\n        /* \"#utility.yul\":12987:13053   */\n      0xffffffffffffffffffffffffffffffffffffffffffffffffffffffffffffffff\n        /* \"#utility.yul\":12980:12985   */\n      dup3\n        /* \"#utility.yul\":12977:13054   */\n      sub\n        /* \"#utility.yul\":12974:13077   */\n      tag_326\n      jumpi\n        /* \"#utility.yul\":13057:13075   */\n      tag_327\n      tag_190\n      jump\t// in\n    tag_327:\n        /* \"#utility.yul\":12974:13077   */\n    tag_326:\n        /* \"#utility.yul\":13104:13105   */\n      0x01\n        /* \"#utility.yul\":13097:13102   */\n      dup3\n        /* \"#utility.yul\":13093:13106   */\n      add\n        /* \"#utility.yul\":13086:13106   */\n      swap1\n      pop\n        /* \"#utility.yul\":12879:13112   */\n      swap2\n      swap1\n      pop\n      jump\t// out\n        /* \"#utility.yul\":13118:13528   */\n    tag_162:\n        /* \"#utility.yul\":13158:13165   */\n      0x00\n        /* \"#utility.yul\":13181:13201   */\n      tag_329\n        /* \"#utility.yul\":13199:13200   */\n      dup3\n        /* \"#utility.yul\":13181:13201   */\n      tag_176\n      jump\t// in\n    tag_329:\n        /* \"#utility.yul\":13176:13201   */\n      swap2\n      pop\n        /* \"#utility.yul\":13215:13235   */\n      tag_330\n        /* \"#utility.yul\":13233:13234   */\n      dup4\n        /* \"#utility.yul\":13215:13235   */\n      tag_176\n      jump\t// in\n    tag_330:\n        /* \"#utility.yul\":13210:13235   */\n      swap3\n      pop\n        /* \"#utility.yul\":13270:13271   */\n      dup3\n        /* \"#utility.yul\":13267:13268   */\n      dup3\n        /* \"#utility.yul\":13263:13272   */\n      mul\n        /* \"#utility.yul\":13292:13322   */\n      tag_331\n        /* \"#utility.yul\":13310:13321   */\n      dup2\n        /* \"#utility.yul\":13292:13322   */\n      tag_176\n      jump\t// in\n    tag_331:\n        /* \"#utility.yul\":13281:13322   */\n      swap2\n      pop\n        /* \"#utility.yul\":13471:13472   */\n      dup3\n        /* \"#utility.yul\":13462:13469   */\n      dup3\n        /* \"#utility.yul\":13458:13473   */\n      div\n        /* \"#utility.yul\":13455:13456   */\n      dup5\n        /* \"#utility.yul\":13452:13474   */\n      eq\n        /* \"#utility.yul\":13432:13433   */\n      dup4\n        /* \"#utility.yul\":13425:13434   */\n      iszero\n        /* \"#utility.yul\":13405:13488   */\n      or\n        /* \"#utility.yul\":13382:13521   */\n      tag_332\n      jumpi\n        /* \"#utility.yul\":13501:13519   */\n      tag_333\n      tag_190\n      jump\t// in\n    tag_333:\n        /* \"#utility.yul\":13382:13521   */\n    tag_332:\n        /* \"#utility.yul\":13166:13528   */\n      pop\n        /* \"#utility.yul\":13118:13528   */\n      swap3\n      swap2\n      pop\n      pop\n      jump\t// out\n        /* \"#utility.yul\":13534:13714   */\n    tag_203:\n        /* \"#utility.yul\":13582:13659   */\n      0x4e487b7100000000000000000000000000000000000000000000000000000000\n        /* \"#utility.yul\":13579:13580   */\n      0x00\n        /* \"#utility.yul\":13572:13660   */\n      mstore\n        /* \"#utility.yul\":13679:13683   */\n      0x12\n        /* \"#utility.yul\":13676:13677   */\n      0x04\n        /* \"#utility.yul\":13669:13684   */\n      mstore\n        /* \"#utility.yul\":13703:13707   */\n      0x24\n        /* \"#utility.yul\":13700:13701   */\n      0x00\n        /* \"#utility.yul\":13693:13708   */\n      revert\n        /* \"#utility.yul\":13720:13905   */\n    tag_165:\n        /* \"#utility.yul\":13760:13761   */\n      0x00\n        /* \"#utility.yul\":13777:13797   */\n      tag_336\n        /* \"#utility.yul\":13795:13796   */\n      dup3\n        /* \"#utility.yul\":13777:13797   */\n      tag_176\n      jump\t// in\n    tag_336:\n        /* \"#utility.yul\":13772:13797   */\n      swap2\n      pop\n        /* \"#utility.yul\":13811:13831   */\n      tag_337\n        /* \"#utility.yul\":13829:13830   */\n      dup4\n        /* \"#utility.yul\":13811:13831   */\n      tag_176\n      jump\t// in\n    tag_337:\n        /* \"#utility.yul\":13806:13831   */\n      swap3\n      pop\n        /* \"#utility.yul\":13850:13851   */\n      dup3\n        /* \"#utility.yul\":13840:13875   */\n      tag_338\n      jumpi\n        /* \"#utility.yul\":13855:13873   */\n      tag_339\n      tag_203\n      jump\t// in\n    tag_339:\n        /* \"#utility.yul\":13840:13875   */\n    tag_338:\n        /* \"#utility.yul\":13897:13898   */\n      dup3\n        /* \"#utility.yul\":13894:13895   */\n      dup3\n        /* \"#utility.yul\":13890:13899   */\n      div\n        /* \"#utility.yul\":13885:13899   */\n      swap1\n      pop\n        /* \"#utility.yul\":13720:13905   */\n      swap3\n      swap2\n      pop\n      pop\n      jump\t// out\n        /* \"#utility.yul\":13911:14102   */\n    tag_168:\n        /* \"#utility.yul\":13951:13954   */\n      0x00\n        /* \"#utility.yul\":13970:13990   */\n      tag_341\n        /* \"#utility.yul\":13988:13989   */\n      dup3\n        /* \"#utility.yul\":13970:13990   */\n      tag_176\n      jump\t// in\n    tag_341:\n        /* \"#utility.yul\":13965:13990   */\n      swap2\n      pop\n        /* \"#utility.yul\":14004:14024   */\n      tag_342\n        /* \"#utility.yul\":14022:14023   */\n      dup4\n        /* \"#utility.yul\":14004:14024   */\n      tag_176\n      jump\t// in\n    tag_342:\n        /* \"#utility.yul\":13999:14024   */\n      swap3\n      pop\n        /* \"#utility.yul\":14047:14048   */\n      dup3\n        /* \"#utility.yul\":14044:14045   */\n      dup3\n        /* \"#utility.yul\":14040:14049   */\n      add\n        /* \"#utility.yul\":14033:14049   */\n      swap1\n      pop\n        /* \"#utility.yul\":14068:14071   */\n      dup1\n        /* \"#utility.yul\":14065:14066   */\n      dup3\n        /* \"#utility.yul\":14062:14072   */\n      gt\n        /* \"#utility.yul\":14059:14095   */\n      iszero\n      tag_343\n      jumpi\n        /* \"#utility.yul\":14075:14093   */\n      tag_344\n      tag_190\n      jump\t// in\n    tag_344:\n        /* \"#utility.yul\":14059:14095   */\n    tag_343:\n        /* \"#utility.yul\":13911:14102   */\n      swap3\n      swap2\n      pop\n      pop\n      jump\t// out\n\n    auxdata: 0xa264697066735822122009eb44648486d9bc4993272008a33df1c6b2553bfe0eb3a31c1e70d8436f9cbe64736f6c63430008150033\n}\n",
				"bytecode": {
					"linkReferences": {},
					"object": "608060405260018055606460025534801562000019575f80fd5b50604051620016483803806200164883398181016040528101906200003f9190620000ea565b805f806101000a81548173ffffffffffffffffffffffffffffffffffffffff021916908373ffffffffffffffffffffffffffffffffffffffff160217905550506200011a565b5f80fd5b5f73ffffffffffffffffffffffffffffffffffffffff82169050919050565b5f620000b48262000089565b9050919050565b620000c681620000a8565b8114620000d1575f80fd5b50565b5f81519050620000e481620000bb565b92915050565b5f6020828403121562000102576200010162000085565b5b5f6200011184828501620000d4565b91505092915050565b61152080620001285f395ff3fe608060405234801561000f575f80fd5b506004361061009c575f3560e01c8063cf57ee6911610064578063cf57ee6914610131578063d5a849e914610161578063d82e396214610191578063f1887684146101c1578063fc0c546a146101df5761009c565b80630f0a4fef146100a05780632e17de78146100d15780637b0472f0146100ed5780637b0a47ee14610109578063b88a802f14610127575b5f80fd5b6100ba60048036038101906100b59190610e12565b6101fd565b6040516100c8929190610e5f565b60405180910390f35b6100eb60048036038101906100e69190610e86565b6102f4565b005b61010760048036038101906101029190610eb1565b61071f565b005b610111610986565b60405161011e9190610eef565b60405180910390f35b61012f61098c565b005b61014b60048036038101906101469190610f08565b610b62565b6040516101589190610eef565b60405180910390f35b61017b60048036038101906101769190610f08565b610bab565b6040516101889190610eef565b60405180910390f35b6101ab60048036038101906101a69190610f08565b610bf1565b6040516101b89190610eef565b60405180910390f35b6101c9610cfd565b6040516101d69190610eef565b60405180910390f35b6101e7610d03565b6040516101f49190610f8e565b60405180910390f35b5f8060035f8573ffffffffffffffffffffffffffffffffffffffff1673ffffffffffffffffffffffffffffffffffffffff1681526020019081526020015f20805490508310610281576040517f08c379a000000000000000000000000000000000000000000000000000000000815260040161027890611001565b60405180910390fd5b5f60035f8673ffffffffffffffffffffffffffffffffffffffff1673ffffffffffffffffffffffffffffffffffffffff1681526020019081526020015f2084815481106102d1576102d061101f565b5b905f5260205f2090600302019050805f0154816001015492509250509250929050565b60035f6102ff610d26565b73ffffffffffffffffffffffffffffffffffffffff1673ffffffffffffffffffffffffffffffffffffffff1681526020019081526020015f2080549050811061037d576040517f08c379a000000000000000000000000000000000000000000000000000000000815260040161037490611001565b60405180910390fd5b5f60035f610389610d26565b73ffffffffffffffffffffffffffffffffffffffff1673ffffffffffffffffffffffffffffffffffffffff1681526020019081526020015f2082815481106103d4576103d361101f565b5b905f5260205f20906003020190508060010154421015610429576040517f08c379a000000000000000000000000000000000000000000000000000000000815260040161042090611096565b60405180910390fd5b5f815f0154905060035f61043b610d26565b73ffffffffffffffffffffffffffffffffffffffff1673ffffffffffffffffffffffffffffffffffffffff1681526020019081526020015f20600160035f610481610d26565b73ffffffffffffffffffffffffffffffffffffffff1673ffffffffffffffffffffffffffffffffffffffff1681526020019081526020015f20805490506104c891906110e1565b815481106104d9576104d861101f565b5b905f5260205f20906003020160035f6104f0610d26565b73ffffffffffffffffffffffffffffffffffffffff1673ffffffffffffffffffffffffffffffffffffffff1681526020019081526020015f20848154811061053b5761053a61101f565b5b905f5260205f2090600302015f820154815f0155600182015481600101556002820154816002015590505060035f610571610d26565b73ffffffffffffffffffffffffffffffffffffffff1673ffffffffffffffffffffffffffffffffffffffff1681526020019081526020015f208054806105ba576105b9611114565b5b600190038181905f5260205f2090600302015f8082015f9055600182015f9055600282015f9055505090555f8054906101000a900473ffffffffffffffffffffffffffffffffffffffff1673ffffffffffffffffffffffffffffffffffffffff1663a9059cbb610628610d26565b836040518363ffffffff1660e01b8152600401610646929190611150565b6020604051808303815f875af1158015610662573d5f803e3d5ffd5b505050506040513d601f19601f8201168201806040525081019061068691906111ac565b6106c5576040517f08c379a00000000000000000000000000000000000000000000000000000000081526004016106bc90611221565b60405180910390fd5b6106cd610d26565b73ffffffffffffffffffffffffffffffffffffffff167f0f5bb82176feb1b5e747e28471aa92156a04d9f3ab9f45f28e2d704232b93f75826040516107129190610eef565b60405180910390a2505050565b600254821015610764576040517f08c379a000000000000000000000000000000000000000000000000000000000815260040161075b90611289565b60405180910390fd5b5f81116107a6576040517f08c379a000000000000000000000000000000000000000000000000000000000815260040161079d90611317565b60405180910390fd5b5f8054906101000a900473ffffffffffffffffffffffffffffffffffffffff1673ffffffffffffffffffffffffffffffffffffffff166323b872dd6107e9610d26565b30856040518463ffffffff1660e01b815260040161080993929190611335565b6020604051808303815f875af1158015610825573d5f803e3d5ffd5b505050506040513d601f19601f8201168201806040525081019061084991906111ac565b610888576040517f08c379a000000000000000000000000000000000000000000000000000000000815260040161087f90611221565b60405180910390fd5b60035f610893610d26565b73ffffffffffffffffffffffffffffffffffffffff1673ffffffffffffffffffffffffffffffffffffffff1681526020019081526020015f20604051806060016040528084815260200142815260200183815250908060018154018082558091505060019003905f5260205f2090600302015f909190919091505f820151815f015560208201518160010155604082015181600201555050610933610d26565b73ffffffffffffffffffffffffffffffffffffffff167f1449c6dd7851abc30abf37f57715f492010519147cc2652fbc38202c18a6ee90838360405161097a929190610e5f565b60405180910390a25050565b60015481565b5f61099d610998610d26565b610bf1565b90505f81116109e1576040517f08c379a00000000000000000000000000000000000000000000000000000000081526004016109d8906113b4565b60405180910390fd5b5f60045f6109ed610d26565b73ffffffffffffffffffffffffffffffffffffffff1673ffffffffffffffffffffffffffffffffffffffff1681526020019081526020015f20819055505f8054906101000a900473ffffffffffffffffffffffffffffffffffffffff1673ffffffffffffffffffffffffffffffffffffffff1663a9059cbb610a6d610d26565b836040518363ffffffff1660e01b8152600401610a8b929190611150565b6020604051808303815f875af1158015610aa7573d5f803e3d5ffd5b505050506040513d601f19601f82011682018060405250810190610acb91906111ac565b610b0a576040517f08c379a0000000000000000000000000000000000000000000000000000000008152600401610b0190611221565b60405180910390fd5b610b12610d26565b73ffffffffffffffffffffffffffffffffffffffff167f106f923f993c2149d49b4255ff723acafa1f2d94393f561d3eda32ae348f724182604051610b579190610eef565b60405180910390a250565b5f60035f8373ffffffffffffffffffffffffffffffffffffffff1673ffffffffffffffffffffffffffffffffffffffff1681526020019081526020015f20805490509050919050565b5f60045f8373ffffffffffffffffffffffffffffffffffffffff1673ffffffffffffffffffffffffffffffffffffffff1681526020019081526020015f20549050919050565b5f805f90505f60035f8573ffffffffffffffffffffffffffffffffffffffff1673ffffffffffffffffffffffffffffffffffffffff1681526020019081526020015f2090505f5b8180549050811015610cf2575f828281548110610c5857610c5761101f565b5b905f5260205f20906003020190505f610c7e826001015442610d2d90919063ffffffff16565b90505f610cc5670de0b6b3a7640000610cb7600154610ca986885f0154610d4290919063ffffffff16565b610d4290919063ffffffff16565b610d5790919063ffffffff16565b9050610cda8187610d6c90919063ffffffff16565b95505050508080610cea906113d2565b915050610c38565b508192505050919050565b60025481565b5f8054906101000a900473ffffffffffffffffffffffffffffffffffffffff1681565b5f33905090565b5f8183610d3a91906110e1565b905092915050565b5f8183610d4f9190611419565b905092915050565b5f8183610d649190611487565b905092915050565b5f8183610d7991906114b7565b905092915050565b5f80fd5b5f73ffffffffffffffffffffffffffffffffffffffff82169050919050565b5f610dae82610d85565b9050919050565b610dbe81610da4565b8114610dc8575f80fd5b50565b5f81359050610dd981610db5565b92915050565b5f819050919050565b610df181610ddf565b8114610dfb575f80fd5b50565b5f81359050610e0c81610de8565b92915050565b5f8060408385031215610e2857610e27610d81565b5b5f610e3585828601610dcb565b9250506020610e4685828601610dfe565b9150509250929050565b610e5981610ddf565b82525050565b5f604082019050610e725f830185610e50565b610e7f6020830184610e50565b9392505050565b5f60208284031215610e9b57610e9a610d81565b5b5f610ea884828501610dfe565b91505092915050565b5f8060408385031215610ec757610ec6610d81565b5b5f610ed485828601610dfe565b9250506020610ee585828601610dfe565b9150509250929050565b5f602082019050610f025f830184610e50565b92915050565b5f60208284031215610f1d57610f1c610d81565b5b5f610f2a84828501610dcb565b91505092915050565b5f819050919050565b5f610f56610f51610f4c84610d85565b610f33565b610d85565b9050919050565b5f610f6782610f3c565b9050919050565b5f610f7882610f5d565b9050919050565b610f8881610f6e565b82525050565b5f602082019050610fa15f830184610f7f565b92915050565b5f82825260208201905092915050565b7f496e76616c6964207374616b6520696e646578000000000000000000000000005f82015250565b5f610feb601383610fa7565b9150610ff682610fb7565b602082019050919050565b5f6020820190508181035f83015261101881610fdf565b9050919050565b7f4e487b71000000000000000000000000000000000000000000000000000000005f52603260045260245ffd5b7f5374616b696e6720706572696f64206e6f7420636f6d706c65746564000000005f82015250565b5f611080601c83610fa7565b915061108b8261104c565b602082019050919050565b5f6020820190508181035f8301526110ad81611074565b9050919050565b7f4e487b71000000000000000000000000000000000000000000000000000000005f52601160045260245ffd5b5f6110eb82610ddf565b91506110f683610ddf565b925082820390508181111561110e5761110d6110b4565b5b92915050565b7f4e487b71000000000000000000000000000000000000000000000000000000005f52603160045260245ffd5b61114a81610da4565b82525050565b5f6040820190506111635f830185611141565b6111706020830184610e50565b9392505050565b5f8115159050919050565b61118b81611177565b8114611195575f80fd5b50565b5f815190506111a681611182565b92915050565b5f602082840312156111c1576111c0610d81565b5b5f6111ce84828501611198565b91505092915050565b7f5472616e73666572206661696c656400000000000000000000000000000000005f82015250565b5f61120b600f83610fa7565b9150611216826111d7565b602082019050919050565b5f6020820190508181035f830152611238816111ff565b9050919050565b7f416d6f756e742069732062656c6f77206d696e696d756d207374616b650000005f82015250565b5f611273601d83610fa7565b915061127e8261123f565b602082019050919050565b5f6020820190508181035f8301526112a081611267565b9050919050565b7f4475726174696f6e206d7573742062652067726561746572207468616e207a655f8201527f726f000000000000000000000000000000000000000000000000000000000000602082015250565b5f611301602283610fa7565b915061130c826112a7565b604082019050919050565b5f6020820190508181035f83015261132e816112f5565b9050919050565b5f6060820190506113485f830186611141565b6113556020830185611141565b6113626040830184610e50565b949350505050565b7f4e6f207265776172647320746f20636c61696d000000000000000000000000005f82015250565b5f61139e601383610fa7565b91506113a98261136a565b602082019050919050565b5f6020820190508181035f8301526113cb81611392565b9050919050565b5f6113dc82610ddf565b91507fffffffffffffffffffffffffffffffffffffffffffffffffffffffffffffffff820361140e5761140d6110b4565b5b600182019050919050565b5f61142382610ddf565b915061142e83610ddf565b925082820261143c81610ddf565b91508282048414831517611453576114526110b4565b5b5092915050565b7f4e487b71000000000000000000000000000000000000000000000000000000005f52601260045260245ffd5b5f61149182610ddf565b915061149c83610ddf565b9250826114ac576114ab61145a565b5b828204905092915050565b5f6114c182610ddf565b91506114cc83610ddf565b92508282019050808211156114e4576114e36110b4565b5b9291505056fea264697066735822122009eb44648486d9bc4993272008a33df1c6b2553bfe0eb3a31c1e70d8436f9cbe64736f6c63430008150033",
					"opcodes": "PUSH1 0x80 PUSH1 0x40 MSTORE PUSH1 0x1 DUP1 SSTORE PUSH1 0x64 PUSH1 0x2 SSTORE CALLVALUE DUP1 ISZERO PUSH3 0x19 JUMPI PUSH0 DUP1 REVERT JUMPDEST POP PUSH1 0x40 MLOAD PUSH3 0x1648 CODESIZE SUB DUP1 PUSH3 0x1648 DUP4 CODECOPY DUP2 DUP2 ADD PUSH1 0x40 MSTORE DUP2 ADD SWAP1 PUSH3 0x3F SWAP2 SWAP1 PUSH3 0xEA JUMP JUMPDEST DUP1 PUSH0 DUP1 PUSH2 0x100 EXP DUP2 SLOAD DUP2 PUSH20 0xFFFFFFFFFFFFFFFFFFFFFFFFFFFFFFFFFFFFFFFF MUL NOT AND SWAP1 DUP4 PUSH20 0xFFFFFFFFFFFFFFFFFFFFFFFFFFFFFFFFFFFFFFFF AND MUL OR SWAP1 SSTORE POP POP PUSH3 0x11A JUMP JUMPDEST PUSH0 DUP1 REVERT JUMPDEST PUSH0 PUSH20 0xFFFFFFFFFFFFFFFFFFFFFFFFFFFFFFFFFFFFFFFF DUP3 AND SWAP1 POP SWAP2 SWAP1 POP JUMP JUMPDEST PUSH0 PUSH3 0xB4 DUP3 PUSH3 0x89 JUMP JUMPDEST SWAP1 POP SWAP2 SWAP1 POP JUMP JUMPDEST PUSH3 0xC6 DUP2 PUSH3 0xA8 JUMP JUMPDEST DUP2 EQ PUSH3 0xD1 JUMPI PUSH0 DUP1 REVERT JUMPDEST POP JUMP JUMPDEST PUSH0 DUP2 MLOAD SWAP1 POP PUSH3 0xE4 DUP2 PUSH3 0xBB JUMP JUMPDEST SWAP3 SWAP2 POP POP JUMP JUMPDEST PUSH0 PUSH1 0x20 DUP3 DUP5 SUB SLT ISZERO PUSH3 0x102 JUMPI PUSH3 0x101 PUSH3 0x85 JUMP JUMPDEST JUMPDEST PUSH0 PUSH3 0x111 DUP5 DUP3 DUP6 ADD PUSH3 0xD4 JUMP JUMPDEST SWAP2 POP POP SWAP3 SWAP2 POP POP JUMP JUMPDEST PUSH2 0x1520 DUP1 PUSH3 0x128 PUSH0 CODECOPY PUSH0 RETURN INVALID PUSH1 0x80 PUSH1 0x40 MSTORE CALLVALUE DUP1 ISZERO PUSH2 0xF JUMPI PUSH0 DUP1 REVERT JUMPDEST POP PUSH1 0x4 CALLDATASIZE LT PUSH2 0x9C JUMPI PUSH0 CALLDATALOAD PUSH1 0xE0 SHR DUP1 PUSH4 0xCF57EE69 GT PUSH2 0x64 JUMPI DUP1 PUSH4 0xCF57EE69 EQ PUSH2 0x131 JUMPI DUP1 PUSH4 0xD5A849E9 EQ PUSH2 0x161 JUMPI DUP1 PUSH4 0xD82E3962 EQ PUSH2 0x191 JUMPI DUP1 PUSH4 0xF1887684 EQ PUSH2 0x1C1 JUMPI DUP1 PUSH4 0xFC0C546A EQ PUSH2 0x1DF JUMPI PUSH2 0x9C JUMP JUMPDEST DUP1 PUSH4 0xF0A4FEF EQ PUSH2 0xA0 JUMPI DUP1 PUSH4 0x2E17DE78 EQ PUSH2 0xD1 JUMPI DUP1 PUSH4 0x7B0472F0 EQ PUSH2 0xED JUMPI DUP1 PUSH4 0x7B0A47EE EQ PUSH2 0x109 JUMPI DUP1 PUSH4 0xB88A802F EQ PUSH2 0x127 JUMPI JUMPDEST PUSH0 DUP1 REVERT JUMPDEST PUSH2 0xBA PUSH1 0x4 DUP1 CALLDATASIZE SUB DUP2 ADD SWAP1 PUSH2 0xB5 SWAP2 SWAP1 PUSH2 0xE12 JUMP JUMPDEST PUSH2 0x1FD JUMP JUMPDEST PUSH1 0x40 MLOAD PUSH2 0xC8 SWAP3 SWAP2 SWAP1 PUSH2 0xE5F JUMP JUMPDEST PUSH1 0x40 MLOAD DUP1 SWAP2 SUB SWAP1 RETURN JUMPDEST PUSH2 0xEB PUSH1 0x4 DUP1 CALLDATASIZE SUB DUP2 ADD SWAP1 PUSH2 0xE6 SWAP2 SWAP1 PUSH2 0xE86 JUMP JUMPDEST PUSH2 0x2F4 JUMP JUMPDEST STOP JUMPDEST PUSH2 0x107 PUSH1 0x4 DUP1 CALLDATASIZE SUB DUP2 ADD SWAP1 PUSH2 0x102 SWAP2 SWAP1 PUSH2 0xEB1 JUMP JUMPDEST PUSH2 0x71F JUMP JUMPDEST STOP JUMPDEST PUSH2 0x111 PUSH2 0x986 JUMP JUMPDEST PUSH1 0x40 MLOAD PUSH2 0x11E SWAP2 SWAP1 PUSH2 0xEEF JUMP JUMPDEST PUSH1 0x40 MLOAD DUP1 SWAP2 SUB SWAP1 RETURN JUMPDEST PUSH2 0x12F PUSH2 0x98C JUMP JUMPDEST STOP JUMPDEST PUSH2 0x14B PUSH1 0x4 DUP1 CALLDATASIZE SUB DUP2 ADD SWAP1 PUSH2 0x146 SWAP2 SWAP1 PUSH2 0xF08 JUMP JUMPDEST PUSH2 0xB62 JUMP JUMPDEST PUSH1 0x40 MLOAD PUSH2 0x158 SWAP2 SWAP1 PUSH2 0xEEF JUMP JUMPDEST PUSH1 0x40 MLOAD DUP1 SWAP2 SUB SWAP1 RETURN JUMPDEST PUSH2 0x17B PUSH1 0x4 DUP1 CALLDATASIZE SUB DUP2 ADD SWAP1 PUSH2 0x176 SWAP2 SWAP1 PUSH2 0xF08 JUMP JUMPDEST PUSH2 0xBAB JUMP JUMPDEST PUSH1 0x40 MLOAD PUSH2 0x188 SWAP2 SWAP1 PUSH2 0xEEF JUMP JUMPDEST PUSH1 0x40 MLOAD DUP1 SWAP2 SUB SWAP1 RETURN JUMPDEST PUSH2 0x1AB PUSH1 0x4 DUP1 CALLDATASIZE SUB DUP2 ADD SWAP1 PUSH2 0x1A6 SWAP2 SWAP1 PUSH2 0xF08 JUMP JUMPDEST PUSH2 0xBF1 JUMP JUMPDEST PUSH1 0x40 MLOAD PUSH2 0x1B8 SWAP2 SWAP1 PUSH2 0xEEF JUMP JUMPDEST PUSH1 0x40 MLOAD DUP1 SWAP2 SUB SWAP1 RETURN JUMPDEST PUSH2 0x1C9 PUSH2 0xCFD JUMP JUMPDEST PUSH1 0x40 MLOAD PUSH2 0x1D6 SWAP2 SWAP1 PUSH2 0xEEF JUMP JUMPDEST PUSH1 0x40 MLOAD DUP1 SWAP2 SUB SWAP1 RETURN JUMPDEST PUSH2 0x1E7 PUSH2 0xD03 JUMP JUMPDEST PUSH1 0x40 MLOAD PUSH2 0x1F4 SWAP2 SWAP1 PUSH2 0xF8E JUMP JUMPDEST PUSH1 0x40 MLOAD DUP1 SWAP2 SUB SWAP1 RETURN JUMPDEST PUSH0 DUP1 PUSH1 0x3 PUSH0 DUP6 PUSH20 0xFFFFFFFFFFFFFFFFFFFFFFFFFFFFFFFFFFFFFFFF AND PUSH20 0xFFFFFFFFFFFFFFFFFFFFFFFFFFFFFFFFFFFFFFFF AND DUP2 MSTORE PUSH1 0x20 ADD SWAP1 DUP2 MSTORE PUSH1 0x20 ADD PUSH0 KECCAK256 DUP1 SLOAD SWAP1 POP DUP4 LT PUSH2 0x281 JUMPI PUSH1 0x40 MLOAD PUSH32 0x8C379A000000000000000000000000000000000000000000000000000000000 DUP2 MSTORE PUSH1 0x4 ADD PUSH2 0x278 SWAP1 PUSH2 0x1001 JUMP JUMPDEST PUSH1 0x40 MLOAD DUP1 SWAP2 SUB SWAP1 REVERT JUMPDEST PUSH0 PUSH1 0x3 PUSH0 DUP7 PUSH20 0xFFFFFFFFFFFFFFFFFFFFFFFFFFFFFFFFFFFFFFFF AND PUSH20 0xFFFFFFFFFFFFFFFFFFFFFFFFFFFFFFFFFFFFFFFF AND DUP2 MSTORE PUSH1 0x20 ADD SWAP1 DUP2 MSTORE PUSH1 0x20 ADD PUSH0 KECCAK256 DUP5 DUP2 SLOAD DUP2 LT PUSH2 0x2D1 JUMPI PUSH2 0x2D0 PUSH2 0x101F JUMP JUMPDEST JUMPDEST SWAP1 PUSH0 MSTORE PUSH1 0x20 PUSH0 KECCAK256 SWAP1 PUSH1 0x3 MUL ADD SWAP1 POP DUP1 PUSH0 ADD SLOAD DUP2 PUSH1 0x1 ADD SLOAD SWAP3 POP SWAP3 POP POP SWAP3 POP SWAP3 SWAP1 POP JUMP JUMPDEST PUSH1 0x3 PUSH0 PUSH2 0x2FF PUSH2 0xD26 JUMP JUMPDEST PUSH20 0xFFFFFFFFFFFFFFFFFFFFFFFFFFFFFFFFFFFFFFFF AND PUSH20 0xFFFFFFFFFFFFFFFFFFFFFFFFFFFFFFFFFFFFFFFF AND DUP2 MSTORE PUSH1 0x20 ADD SWAP1 DUP2 MSTORE PUSH1 0x20 ADD PUSH0 KECCAK256 DUP1 SLOAD SWAP1 POP DUP2 LT PUSH2 0x37D JUMPI PUSH1 0x40 MLOAD PUSH32 0x8C379A000000000000000000000000000000000000000000000000000000000 DUP2 MSTORE PUSH1 0x4 ADD PUSH2 0x374 SWAP1 PUSH2 0x1001 JUMP JUMPDEST PUSH1 0x40 MLOAD DUP1 SWAP2 SUB SWAP1 REVERT JUMPDEST PUSH0 PUSH1 0x3 PUSH0 PUSH2 0x389 PUSH2 0xD26 JUMP JUMPDEST PUSH20 0xFFFFFFFFFFFFFFFFFFFFFFFFFFFFFFFFFFFFFFFF AND PUSH20 0xFFFFFFFFFFFFFFFFFFFFFFFFFFFFFFFFFFFFFFFF AND DUP2 MSTORE PUSH1 0x20 ADD SWAP1 DUP2 MSTORE PUSH1 0x20 ADD PUSH0 KECCAK256 DUP3 DUP2 SLOAD DUP2 LT PUSH2 0x3D4 JUMPI PUSH2 0x3D3 PUSH2 0x101F JUMP JUMPDEST JUMPDEST SWAP1 PUSH0 MSTORE PUSH1 0x20 PUSH0 KECCAK256 SWAP1 PUSH1 0x3 MUL ADD SWAP1 POP DUP1 PUSH1 0x1 ADD SLOAD TIMESTAMP LT ISZERO PUSH2 0x429 JUMPI PUSH1 0x40 MLOAD PUSH32 0x8C379A000000000000000000000000000000000000000000000000000000000 DUP2 MSTORE PUSH1 0x4 ADD PUSH2 0x420 SWAP1 PUSH2 0x1096 JUMP JUMPDEST PUSH1 0x40 MLOAD DUP1 SWAP2 SUB SWAP1 REVERT JUMPDEST PUSH0 DUP2 PUSH0 ADD SLOAD SWAP1 POP PUSH1 0x3 PUSH0 PUSH2 0x43B PUSH2 0xD26 JUMP JUMPDEST PUSH20 0xFFFFFFFFFFFFFFFFFFFFFFFFFFFFFFFFFFFFFFFF AND PUSH20 0xFFFFFFFFFFFFFFFFFFFFFFFFFFFFFFFFFFFFFFFF AND DUP2 MSTORE PUSH1 0x20 ADD SWAP1 DUP2 MSTORE PUSH1 0x20 ADD PUSH0 KECCAK256 PUSH1 0x1 PUSH1 0x3 PUSH0 PUSH2 0x481 PUSH2 0xD26 JUMP JUMPDEST PUSH20 0xFFFFFFFFFFFFFFFFFFFFFFFFFFFFFFFFFFFFFFFF AND PUSH20 0xFFFFFFFFFFFFFFFFFFFFFFFFFFFFFFFFFFFFFFFF AND DUP2 MSTORE PUSH1 0x20 ADD SWAP1 DUP2 MSTORE PUSH1 0x20 ADD PUSH0 KECCAK256 DUP1 SLOAD SWAP1 POP PUSH2 0x4C8 SWAP2 SWAP1 PUSH2 0x10E1 JUMP JUMPDEST DUP2 SLOAD DUP2 LT PUSH2 0x4D9 JUMPI PUSH2 0x4D8 PUSH2 0x101F JUMP JUMPDEST JUMPDEST SWAP1 PUSH0 MSTORE PUSH1 0x20 PUSH0 KECCAK256 SWAP1 PUSH1 0x3 MUL ADD PUSH1 0x3 PUSH0 PUSH2 0x4F0 PUSH2 0xD26 JUMP JUMPDEST PUSH20 0xFFFFFFFFFFFFFFFFFFFFFFFFFFFFFFFFFFFFFFFF AND PUSH20 0xFFFFFFFFFFFFFFFFFFFFFFFFFFFFFFFFFFFFFFFF AND DUP2 MSTORE PUSH1 0x20 ADD SWAP1 DUP2 MSTORE PUSH1 0x20 ADD PUSH0 KECCAK256 DUP5 DUP2 SLOAD DUP2 LT PUSH2 0x53B JUMPI PUSH2 0x53A PUSH2 0x101F JUMP JUMPDEST JUMPDEST SWAP1 PUSH0 MSTORE PUSH1 0x20 PUSH0 KECCAK256 SWAP1 PUSH1 0x3 MUL ADD PUSH0 DUP3 ADD SLOAD DUP2 PUSH0 ADD SSTORE PUSH1 0x1 DUP3 ADD SLOAD DUP2 PUSH1 0x1 ADD SSTORE PUSH1 0x2 DUP3 ADD SLOAD DUP2 PUSH1 0x2 ADD SSTORE SWAP1 POP POP PUSH1 0x3 PUSH0 PUSH2 0x571 PUSH2 0xD26 JUMP JUMPDEST PUSH20 0xFFFFFFFFFFFFFFFFFFFFFFFFFFFFFFFFFFFFFFFF AND PUSH20 0xFFFFFFFFFFFFFFFFFFFFFFFFFFFFFFFFFFFFFFFF AND DUP2 MSTORE PUSH1 0x20 ADD SWAP1 DUP2 MSTORE PUSH1 0x20 ADD PUSH0 KECCAK256 DUP1 SLOAD DUP1 PUSH2 0x5BA JUMPI PUSH2 0x5B9 PUSH2 0x1114 JUMP JUMPDEST JUMPDEST PUSH1 0x1 SWAP1 SUB DUP2 DUP2 SWAP1 PUSH0 MSTORE PUSH1 0x20 PUSH0 KECCAK256 SWAP1 PUSH1 0x3 MUL ADD PUSH0 DUP1 DUP3 ADD PUSH0 SWAP1 SSTORE PUSH1 0x1 DUP3 ADD PUSH0 SWAP1 SSTORE PUSH1 0x2 DUP3 ADD PUSH0 SWAP1 SSTORE POP POP SWAP1 SSTORE PUSH0 DUP1 SLOAD SWAP1 PUSH2 0x100 EXP SWAP1 DIV PUSH20 0xFFFFFFFFFFFFFFFFFFFFFFFFFFFFFFFFFFFFFFFF AND PUSH20 0xFFFFFFFFFFFFFFFFFFFFFFFFFFFFFFFFFFFFFFFF AND PUSH4 0xA9059CBB PUSH2 0x628 PUSH2 0xD26 JUMP JUMPDEST DUP4 PUSH1 0x40 MLOAD DUP4 PUSH4 0xFFFFFFFF AND PUSH1 0xE0 SHL DUP2 MSTORE PUSH1 0x4 ADD PUSH2 0x646 SWAP3 SWAP2 SWAP1 PUSH2 0x1150 JUMP JUMPDEST PUSH1 0x20 PUSH1 0x40 MLOAD DUP1 DUP4 SUB DUP2 PUSH0 DUP8 GAS CALL ISZERO DUP1 ISZERO PUSH2 0x662 JUMPI RETURNDATASIZE PUSH0 DUP1 RETURNDATACOPY RETURNDATASIZE PUSH0 REVERT JUMPDEST POP POP POP POP PUSH1 0x40 MLOAD RETURNDATASIZE PUSH1 0x1F NOT PUSH1 0x1F DUP3 ADD AND DUP3 ADD DUP1 PUSH1 0x40 MSTORE POP DUP2 ADD SWAP1 PUSH2 0x686 SWAP2 SWAP1 PUSH2 0x11AC JUMP JUMPDEST PUSH2 0x6C5 JUMPI PUSH1 0x40 MLOAD PUSH32 0x8C379A000000000000000000000000000000000000000000000000000000000 DUP2 MSTORE PUSH1 0x4 ADD PUSH2 0x6BC SWAP1 PUSH2 0x1221 JUMP JUMPDEST PUSH1 0x40 MLOAD DUP1 SWAP2 SUB SWAP1 REVERT JUMPDEST PUSH2 0x6CD PUSH2 0xD26 JUMP JUMPDEST PUSH20 0xFFFFFFFFFFFFFFFFFFFFFFFFFFFFFFFFFFFFFFFF AND PUSH32 0xF5BB82176FEB1B5E747E28471AA92156A04D9F3AB9F45F28E2D704232B93F75 DUP3 PUSH1 0x40 MLOAD PUSH2 0x712 SWAP2 SWAP1 PUSH2 0xEEF JUMP JUMPDEST PUSH1 0x40 MLOAD DUP1 SWAP2 SUB SWAP1 LOG2 POP POP POP JUMP JUMPDEST PUSH1 0x2 SLOAD DUP3 LT ISZERO PUSH2 0x764 JUMPI PUSH1 0x40 MLOAD PUSH32 0x8C379A000000000000000000000000000000000000000000000000000000000 DUP2 MSTORE PUSH1 0x4 ADD PUSH2 0x75B SWAP1 PUSH2 0x1289 JUMP JUMPDEST PUSH1 0x40 MLOAD DUP1 SWAP2 SUB SWAP1 REVERT JUMPDEST PUSH0 DUP2 GT PUSH2 0x7A6 JUMPI PUSH1 0x40 MLOAD PUSH32 0x8C379A000000000000000000000000000000000000000000000000000000000 DUP2 MSTORE PUSH1 0x4 ADD PUSH2 0x79D SWAP1 PUSH2 0x1317 JUMP JUMPDEST PUSH1 0x40 MLOAD DUP1 SWAP2 SUB SWAP1 REVERT JUMPDEST PUSH0 DUP1 SLOAD SWAP1 PUSH2 0x100 EXP SWAP1 DIV PUSH20 0xFFFFFFFFFFFFFFFFFFFFFFFFFFFFFFFFFFFFFFFF AND PUSH20 0xFFFFFFFFFFFFFFFFFFFFFFFFFFFFFFFFFFFFFFFF AND PUSH4 0x23B872DD PUSH2 0x7E9 PUSH2 0xD26 JUMP JUMPDEST ADDRESS DUP6 PUSH1 0x40 MLOAD DUP5 PUSH4 0xFFFFFFFF AND PUSH1 0xE0 SHL DUP2 MSTORE PUSH1 0x4 ADD PUSH2 0x809 SWAP4 SWAP3 SWAP2 SWAP1 PUSH2 0x1335 JUMP JUMPDEST PUSH1 0x20 PUSH1 0x40 MLOAD DUP1 DUP4 SUB DUP2 PUSH0 DUP8 GAS CALL ISZERO DUP1 ISZERO PUSH2 0x825 JUMPI RETURNDATASIZE PUSH0 DUP1 RETURNDATACOPY RETURNDATASIZE PUSH0 REVERT JUMPDEST POP POP POP POP PUSH1 0x40 MLOAD RETURNDATASIZE PUSH1 0x1F NOT PUSH1 0x1F DUP3 ADD AND DUP3 ADD DUP1 PUSH1 0x40 MSTORE POP DUP2 ADD SWAP1 PUSH2 0x849 SWAP2 SWAP1 PUSH2 0x11AC JUMP JUMPDEST PUSH2 0x888 JUMPI PUSH1 0x40 MLOAD PUSH32 0x8C379A000000000000000000000000000000000000000000000000000000000 DUP2 MSTORE PUSH1 0x4 ADD PUSH2 0x87F SWAP1 PUSH2 0x1221 JUMP JUMPDEST PUSH1 0x40 MLOAD DUP1 SWAP2 SUB SWAP1 REVERT JUMPDEST PUSH1 0x3 PUSH0 PUSH2 0x893 PUSH2 0xD26 JUMP JUMPDEST PUSH20 0xFFFFFFFFFFFFFFFFFFFFFFFFFFFFFFFFFFFFFFFF AND PUSH20 0xFFFFFFFFFFFFFFFFFFFFFFFFFFFFFFFFFFFFFFFF AND DUP2 MSTORE PUSH1 0x20 ADD SWAP1 DUP2 MSTORE PUSH1 0x20 ADD PUSH0 KECCAK256 PUSH1 0x40 MLOAD DUP1 PUSH1 0x60 ADD PUSH1 0x40 MSTORE DUP1 DUP5 DUP2 MSTORE PUSH1 0x20 ADD TIMESTAMP DUP2 MSTORE PUSH1 0x20 ADD DUP4 DUP2 MSTORE POP SWAP1 DUP1 PUSH1 0x1 DUP2 SLOAD ADD DUP1 DUP3 SSTORE DUP1 SWAP2 POP POP PUSH1 0x1 SWAP1 SUB SWAP1 PUSH0 MSTORE PUSH1 0x20 PUSH0 KECCAK256 SWAP1 PUSH1 0x3 MUL ADD PUSH0 SWAP1 SWAP2 SWAP1 SWAP2 SWAP1 SWAP2 POP PUSH0 DUP3 ADD MLOAD DUP2 PUSH0 ADD SSTORE PUSH1 0x20 DUP3 ADD MLOAD DUP2 PUSH1 0x1 ADD SSTORE PUSH1 0x40 DUP3 ADD MLOAD DUP2 PUSH1 0x2 ADD SSTORE POP POP PUSH2 0x933 PUSH2 0xD26 JUMP JUMPDEST PUSH20 0xFFFFFFFFFFFFFFFFFFFFFFFFFFFFFFFFFFFFFFFF AND PUSH32 0x1449C6DD7851ABC30ABF37F57715F492010519147CC2652FBC38202C18A6EE90 DUP4 DUP4 PUSH1 0x40 MLOAD PUSH2 0x97A SWAP3 SWAP2 SWAP1 PUSH2 0xE5F JUMP JUMPDEST PUSH1 0x40 MLOAD DUP1 SWAP2 SUB SWAP1 LOG2 POP POP JUMP JUMPDEST PUSH1 0x1 SLOAD DUP2 JUMP JUMPDEST PUSH0 PUSH2 0x99D PUSH2 0x998 PUSH2 0xD26 JUMP JUMPDEST PUSH2 0xBF1 JUMP JUMPDEST SWAP1 POP PUSH0 DUP2 GT PUSH2 0x9E1 JUMPI PUSH1 0x40 MLOAD PUSH32 0x8C379A000000000000000000000000000000000000000000000000000000000 DUP2 MSTORE PUSH1 0x4 ADD PUSH2 0x9D8 SWAP1 PUSH2 0x13B4 JUMP JUMPDEST PUSH1 0x40 MLOAD DUP1 SWAP2 SUB SWAP1 REVERT JUMPDEST PUSH0 PUSH1 0x4 PUSH0 PUSH2 0x9ED PUSH2 0xD26 JUMP JUMPDEST PUSH20 0xFFFFFFFFFFFFFFFFFFFFFFFFFFFFFFFFFFFFFFFF AND PUSH20 0xFFFFFFFFFFFFFFFFFFFFFFFFFFFFFFFFFFFFFFFF AND DUP2 MSTORE PUSH1 0x20 ADD SWAP1 DUP2 MSTORE PUSH1 0x20 ADD PUSH0 KECCAK256 DUP2 SWAP1 SSTORE POP PUSH0 DUP1 SLOAD SWAP1 PUSH2 0x100 EXP SWAP1 DIV PUSH20 0xFFFFFFFFFFFFFFFFFFFFFFFFFFFFFFFFFFFFFFFF AND PUSH20 0xFFFFFFFFFFFFFFFFFFFFFFFFFFFFFFFFFFFFFFFF AND PUSH4 0xA9059CBB PUSH2 0xA6D PUSH2 0xD26 JUMP JUMPDEST DUP4 PUSH1 0x40 MLOAD DUP4 PUSH4 0xFFFFFFFF AND PUSH1 0xE0 SHL DUP2 MSTORE PUSH1 0x4 ADD PUSH2 0xA8B SWAP3 SWAP2 SWAP1 PUSH2 0x1150 JUMP JUMPDEST PUSH1 0x20 PUSH1 0x40 MLOAD DUP1 DUP4 SUB DUP2 PUSH0 DUP8 GAS CALL ISZERO DUP1 ISZERO PUSH2 0xAA7 JUMPI RETURNDATASIZE PUSH0 DUP1 RETURNDATACOPY RETURNDATASIZE PUSH0 REVERT JUMPDEST POP POP POP POP PUSH1 0x40 MLOAD RETURNDATASIZE PUSH1 0x1F NOT PUSH1 0x1F DUP3 ADD AND DUP3 ADD DUP1 PUSH1 0x40 MSTORE POP DUP2 ADD SWAP1 PUSH2 0xACB SWAP2 SWAP1 PUSH2 0x11AC JUMP JUMPDEST PUSH2 0xB0A JUMPI PUSH1 0x40 MLOAD PUSH32 0x8C379A000000000000000000000000000000000000000000000000000000000 DUP2 MSTORE PUSH1 0x4 ADD PUSH2 0xB01 SWAP1 PUSH2 0x1221 JUMP JUMPDEST PUSH1 0x40 MLOAD DUP1 SWAP2 SUB SWAP1 REVERT JUMPDEST PUSH2 0xB12 PUSH2 0xD26 JUMP JUMPDEST PUSH20 0xFFFFFFFFFFFFFFFFFFFFFFFFFFFFFFFFFFFFFFFF AND PUSH32 0x106F923F993C2149D49B4255FF723ACAFA1F2D94393F561D3EDA32AE348F7241 DUP3 PUSH1 0x40 MLOAD PUSH2 0xB57 SWAP2 SWAP1 PUSH2 0xEEF JUMP JUMPDEST PUSH1 0x40 MLOAD DUP1 SWAP2 SUB SWAP1 LOG2 POP JUMP JUMPDEST PUSH0 PUSH1 0x3 PUSH0 DUP4 PUSH20 0xFFFFFFFFFFFFFFFFFFFFFFFFFFFFFFFFFFFFFFFF AND PUSH20 0xFFFFFFFFFFFFFFFFFFFFFFFFFFFFFFFFFFFFFFFF AND DUP2 MSTORE PUSH1 0x20 ADD SWAP1 DUP2 MSTORE PUSH1 0x20 ADD PUSH0 KECCAK256 DUP1 SLOAD SWAP1 POP SWAP1 POP SWAP2 SWAP1 POP JUMP JUMPDEST PUSH0 PUSH1 0x4 PUSH0 DUP4 PUSH20 0xFFFFFFFFFFFFFFFFFFFFFFFFFFFFFFFFFFFFFFFF AND PUSH20 0xFFFFFFFFFFFFFFFFFFFFFFFFFFFFFFFFFFFFFFFF AND DUP2 MSTORE PUSH1 0x20 ADD SWAP1 DUP2 MSTORE PUSH1 0x20 ADD PUSH0 KECCAK256 SLOAD SWAP1 POP SWAP2 SWAP1 POP JUMP JUMPDEST PUSH0 DUP1 PUSH0 SWAP1 POP PUSH0 PUSH1 0x3 PUSH0 DUP6 PUSH20 0xFFFFFFFFFFFFFFFFFFFFFFFFFFFFFFFFFFFFFFFF AND PUSH20 0xFFFFFFFFFFFFFFFFFFFFFFFFFFFFFFFFFFFFFFFF AND DUP2 MSTORE PUSH1 0x20 ADD SWAP1 DUP2 MSTORE PUSH1 0x20 ADD PUSH0 KECCAK256 SWAP1 POP PUSH0 JUMPDEST DUP2 DUP1 SLOAD SWAP1 POP DUP2 LT ISZERO PUSH2 0xCF2 JUMPI PUSH0 DUP3 DUP3 DUP2 SLOAD DUP2 LT PUSH2 0xC58 JUMPI PUSH2 0xC57 PUSH2 0x101F JUMP JUMPDEST JUMPDEST SWAP1 PUSH0 MSTORE PUSH1 0x20 PUSH0 KECCAK256 SWAP1 PUSH1 0x3 MUL ADD SWAP1 POP PUSH0 PUSH2 0xC7E DUP3 PUSH1 0x1 ADD SLOAD TIMESTAMP PUSH2 0xD2D SWAP1 SWAP2 SWAP1 PUSH4 0xFFFFFFFF AND JUMP JUMPDEST SWAP1 POP PUSH0 PUSH2 0xCC5 PUSH8 0xDE0B6B3A7640000 PUSH2 0xCB7 PUSH1 0x1 SLOAD PUSH2 0xCA9 DUP7 DUP9 PUSH0 ADD SLOAD PUSH2 0xD42 SWAP1 SWAP2 SWAP1 PUSH4 0xFFFFFFFF AND JUMP JUMPDEST PUSH2 0xD42 SWAP1 SWAP2 SWAP1 PUSH4 0xFFFFFFFF AND JUMP JUMPDEST PUSH2 0xD57 SWAP1 SWAP2 SWAP1 PUSH4 0xFFFFFFFF AND JUMP JUMPDEST SWAP1 POP PUSH2 0xCDA DUP2 DUP8 PUSH2 0xD6C SWAP1 SWAP2 SWAP1 PUSH4 0xFFFFFFFF AND JUMP JUMPDEST SWAP6 POP POP POP POP DUP1 DUP1 PUSH2 0xCEA SWAP1 PUSH2 0x13D2 JUMP JUMPDEST SWAP2 POP POP PUSH2 0xC38 JUMP JUMPDEST POP DUP2 SWAP3 POP POP POP SWAP2 SWAP1 POP JUMP JUMPDEST PUSH1 0x2 SLOAD DUP2 JUMP JUMPDEST PUSH0 DUP1 SLOAD SWAP1 PUSH2 0x100 EXP SWAP1 DIV PUSH20 0xFFFFFFFFFFFFFFFFFFFFFFFFFFFFFFFFFFFFFFFF AND DUP2 JUMP JUMPDEST PUSH0 CALLER SWAP1 POP SWAP1 JUMP JUMPDEST PUSH0 DUP2 DUP4 PUSH2 0xD3A SWAP2 SWAP1 PUSH2 0x10E1 JUMP JUMPDEST SWAP1 POP SWAP3 SWAP2 POP POP JUMP JUMPDEST PUSH0 DUP2 DUP4 PUSH2 0xD4F SWAP2 SWAP1 PUSH2 0x1419 JUMP JUMPDEST SWAP1 POP SWAP3 SWAP2 POP POP JUMP JUMPDEST PUSH0 DUP2 DUP4 PUSH2 0xD64 SWAP2 SWAP1 PUSH2 0x1487 JUMP JUMPDEST SWAP1 POP SWAP3 SWAP2 POP POP JUMP JUMPDEST PUSH0 DUP2 DUP4 PUSH2 0xD79 SWAP2 SWAP1 PUSH2 0x14B7 JUMP JUMPDEST SWAP1 POP SWAP3 SWAP2 POP POP JUMP JUMPDEST PUSH0 DUP1 REVERT JUMPDEST PUSH0 PUSH20 0xFFFFFFFFFFFFFFFFFFFFFFFFFFFFFFFFFFFFFFFF DUP3 AND SWAP1 POP SWAP2 SWAP1 POP JUMP JUMPDEST PUSH0 PUSH2 0xDAE DUP3 PUSH2 0xD85 JUMP JUMPDEST SWAP1 POP SWAP2 SWAP1 POP JUMP JUMPDEST PUSH2 0xDBE DUP2 PUSH2 0xDA4 JUMP JUMPDEST DUP2 EQ PUSH2 0xDC8 JUMPI PUSH0 DUP1 REVERT JUMPDEST POP JUMP JUMPDEST PUSH0 DUP2 CALLDATALOAD SWAP1 POP PUSH2 0xDD9 DUP2 PUSH2 0xDB5 JUMP JUMPDEST SWAP3 SWAP2 POP POP JUMP JUMPDEST PUSH0 DUP2 SWAP1 POP SWAP2 SWAP1 POP JUMP JUMPDEST PUSH2 0xDF1 DUP2 PUSH2 0xDDF JUMP JUMPDEST DUP2 EQ PUSH2 0xDFB JUMPI PUSH0 DUP1 REVERT JUMPDEST POP JUMP JUMPDEST PUSH0 DUP2 CALLDATALOAD SWAP1 POP PUSH2 0xE0C DUP2 PUSH2 0xDE8 JUMP JUMPDEST SWAP3 SWAP2 POP POP JUMP JUMPDEST PUSH0 DUP1 PUSH1 0x40 DUP4 DUP6 SUB SLT ISZERO PUSH2 0xE28 JUMPI PUSH2 0xE27 PUSH2 0xD81 JUMP JUMPDEST JUMPDEST PUSH0 PUSH2 0xE35 DUP6 DUP3 DUP7 ADD PUSH2 0xDCB JUMP JUMPDEST SWAP3 POP POP PUSH1 0x20 PUSH2 0xE46 DUP6 DUP3 DUP7 ADD PUSH2 0xDFE JUMP JUMPDEST SWAP2 POP POP SWAP3 POP SWAP3 SWAP1 POP JUMP JUMPDEST PUSH2 0xE59 DUP2 PUSH2 0xDDF JUMP JUMPDEST DUP3 MSTORE POP POP JUMP JUMPDEST PUSH0 PUSH1 0x40 DUP3 ADD SWAP1 POP PUSH2 0xE72 PUSH0 DUP4 ADD DUP6 PUSH2 0xE50 JUMP JUMPDEST PUSH2 0xE7F PUSH1 0x20 DUP4 ADD DUP5 PUSH2 0xE50 JUMP JUMPDEST SWAP4 SWAP3 POP POP POP JUMP JUMPDEST PUSH0 PUSH1 0x20 DUP3 DUP5 SUB SLT ISZERO PUSH2 0xE9B JUMPI PUSH2 0xE9A PUSH2 0xD81 JUMP JUMPDEST JUMPDEST PUSH0 PUSH2 0xEA8 DUP5 DUP3 DUP6 ADD PUSH2 0xDFE JUMP JUMPDEST SWAP2 POP POP SWAP3 SWAP2 POP POP JUMP JUMPDEST PUSH0 DUP1 PUSH1 0x40 DUP4 DUP6 SUB SLT ISZERO PUSH2 0xEC7 JUMPI PUSH2 0xEC6 PUSH2 0xD81 JUMP JUMPDEST JUMPDEST PUSH0 PUSH2 0xED4 DUP6 DUP3 DUP7 ADD PUSH2 0xDFE JUMP JUMPDEST SWAP3 POP POP PUSH1 0x20 PUSH2 0xEE5 DUP6 DUP3 DUP7 ADD PUSH2 0xDFE JUMP JUMPDEST SWAP2 POP POP SWAP3 POP SWAP3 SWAP1 POP JUMP JUMPDEST PUSH0 PUSH1 0x20 DUP3 ADD SWAP1 POP PUSH2 0xF02 PUSH0 DUP4 ADD DUP5 PUSH2 0xE50 JUMP JUMPDEST SWAP3 SWAP2 POP POP JUMP JUMPDEST PUSH0 PUSH1 0x20 DUP3 DUP5 SUB SLT ISZERO PUSH2 0xF1D JUMPI PUSH2 0xF1C PUSH2 0xD81 JUMP JUMPDEST JUMPDEST PUSH0 PUSH2 0xF2A DUP5 DUP3 DUP6 ADD PUSH2 0xDCB JUMP JUMPDEST SWAP2 POP POP SWAP3 SWAP2 POP POP JUMP JUMPDEST PUSH0 DUP2 SWAP1 POP SWAP2 SWAP1 POP JUMP JUMPDEST PUSH0 PUSH2 0xF56 PUSH2 0xF51 PUSH2 0xF4C DUP5 PUSH2 0xD85 JUMP JUMPDEST PUSH2 0xF33 JUMP JUMPDEST PUSH2 0xD85 JUMP JUMPDEST SWAP1 POP SWAP2 SWAP1 POP JUMP JUMPDEST PUSH0 PUSH2 0xF67 DUP3 PUSH2 0xF3C JUMP JUMPDEST SWAP1 POP SWAP2 SWAP1 POP JUMP JUMPDEST PUSH0 PUSH2 0xF78 DUP3 PUSH2 0xF5D JUMP JUMPDEST SWAP1 POP SWAP2 SWAP1 POP JUMP JUMPDEST PUSH2 0xF88 DUP2 PUSH2 0xF6E JUMP JUMPDEST DUP3 MSTORE POP POP JUMP JUMPDEST PUSH0 PUSH1 0x20 DUP3 ADD SWAP1 POP PUSH2 0xFA1 PUSH0 DUP4 ADD DUP5 PUSH2 0xF7F JUMP JUMPDEST SWAP3 SWAP2 POP POP JUMP JUMPDEST PUSH0 DUP3 DUP3 MSTORE PUSH1 0x20 DUP3 ADD SWAP1 POP SWAP3 SWAP2 POP POP JUMP JUMPDEST PUSH32 0x496E76616C6964207374616B6520696E64657800000000000000000000000000 PUSH0 DUP3 ADD MSTORE POP JUMP JUMPDEST PUSH0 PUSH2 0xFEB PUSH1 0x13 DUP4 PUSH2 0xFA7 JUMP JUMPDEST SWAP2 POP PUSH2 0xFF6 DUP3 PUSH2 0xFB7 JUMP JUMPDEST PUSH1 0x20 DUP3 ADD SWAP1 POP SWAP2 SWAP1 POP JUMP JUMPDEST PUSH0 PUSH1 0x20 DUP3 ADD SWAP1 POP DUP2 DUP2 SUB PUSH0 DUP4 ADD MSTORE PUSH2 0x1018 DUP2 PUSH2 0xFDF JUMP JUMPDEST SWAP1 POP SWAP2 SWAP1 POP JUMP JUMPDEST PUSH32 0x4E487B7100000000000000000000000000000000000000000000000000000000 PUSH0 MSTORE PUSH1 0x32 PUSH1 0x4 MSTORE PUSH1 0x24 PUSH0 REVERT JUMPDEST PUSH32 0x5374616B696E6720706572696F64206E6F7420636F6D706C6574656400000000 PUSH0 DUP3 ADD MSTORE POP JUMP JUMPDEST PUSH0 PUSH2 0x1080 PUSH1 0x1C DUP4 PUSH2 0xFA7 JUMP JUMPDEST SWAP2 POP PUSH2 0x108B DUP3 PUSH2 0x104C JUMP JUMPDEST PUSH1 0x20 DUP3 ADD SWAP1 POP SWAP2 SWAP1 POP JUMP JUMPDEST PUSH0 PUSH1 0x20 DUP3 ADD SWAP1 POP DUP2 DUP2 SUB PUSH0 DUP4 ADD MSTORE PUSH2 0x10AD DUP2 PUSH2 0x1074 JUMP JUMPDEST SWAP1 POP SWAP2 SWAP1 POP JUMP JUMPDEST PUSH32 0x4E487B7100000000000000000000000000000000000000000000000000000000 PUSH0 MSTORE PUSH1 0x11 PUSH1 0x4 MSTORE PUSH1 0x24 PUSH0 REVERT JUMPDEST PUSH0 PUSH2 0x10EB DUP3 PUSH2 0xDDF JUMP JUMPDEST SWAP2 POP PUSH2 0x10F6 DUP4 PUSH2 0xDDF JUMP JUMPDEST SWAP3 POP DUP3 DUP3 SUB SWAP1 POP DUP2 DUP2 GT ISZERO PUSH2 0x110E JUMPI PUSH2 0x110D PUSH2 0x10B4 JUMP JUMPDEST JUMPDEST SWAP3 SWAP2 POP POP JUMP JUMPDEST PUSH32 0x4E487B7100000000000000000000000000000000000000000000000000000000 PUSH0 MSTORE PUSH1 0x31 PUSH1 0x4 MSTORE PUSH1 0x24 PUSH0 REVERT JUMPDEST PUSH2 0x114A DUP2 PUSH2 0xDA4 JUMP JUMPDEST DUP3 MSTORE POP POP JUMP JUMPDEST PUSH0 PUSH1 0x40 DUP3 ADD SWAP1 POP PUSH2 0x1163 PUSH0 DUP4 ADD DUP6 PUSH2 0x1141 JUMP JUMPDEST PUSH2 0x1170 PUSH1 0x20 DUP4 ADD DUP5 PUSH2 0xE50 JUMP JUMPDEST SWAP4 SWAP3 POP POP POP JUMP JUMPDEST PUSH0 DUP2 ISZERO ISZERO SWAP1 POP SWAP2 SWAP1 POP JUMP JUMPDEST PUSH2 0x118B DUP2 PUSH2 0x1177 JUMP JUMPDEST DUP2 EQ PUSH2 0x1195 JUMPI PUSH0 DUP1 REVERT JUMPDEST POP JUMP JUMPDEST PUSH0 DUP2 MLOAD SWAP1 POP PUSH2 0x11A6 DUP2 PUSH2 0x1182 JUMP JUMPDEST SWAP3 SWAP2 POP POP JUMP JUMPDEST PUSH0 PUSH1 0x20 DUP3 DUP5 SUB SLT ISZERO PUSH2 0x11C1 JUMPI PUSH2 0x11C0 PUSH2 0xD81 JUMP JUMPDEST JUMPDEST PUSH0 PUSH2 0x11CE DUP5 DUP3 DUP6 ADD PUSH2 0x1198 JUMP JUMPDEST SWAP2 POP POP SWAP3 SWAP2 POP POP JUMP JUMPDEST PUSH32 0x5472616E73666572206661696C65640000000000000000000000000000000000 PUSH0 DUP3 ADD MSTORE POP JUMP JUMPDEST PUSH0 PUSH2 0x120B PUSH1 0xF DUP4 PUSH2 0xFA7 JUMP JUMPDEST SWAP2 POP PUSH2 0x1216 DUP3 PUSH2 0x11D7 JUMP JUMPDEST PUSH1 0x20 DUP3 ADD SWAP1 POP SWAP2 SWAP1 POP JUMP JUMPDEST PUSH0 PUSH1 0x20 DUP3 ADD SWAP1 POP DUP2 DUP2 SUB PUSH0 DUP4 ADD MSTORE PUSH2 0x1238 DUP2 PUSH2 0x11FF JUMP JUMPDEST SWAP1 POP SWAP2 SWAP1 POP JUMP JUMPDEST PUSH32 0x416D6F756E742069732062656C6F77206D696E696D756D207374616B65000000 PUSH0 DUP3 ADD MSTORE POP JUMP JUMPDEST PUSH0 PUSH2 0x1273 PUSH1 0x1D DUP4 PUSH2 0xFA7 JUMP JUMPDEST SWAP2 POP PUSH2 0x127E DUP3 PUSH2 0x123F JUMP JUMPDEST PUSH1 0x20 DUP3 ADD SWAP1 POP SWAP2 SWAP1 POP JUMP JUMPDEST PUSH0 PUSH1 0x20 DUP3 ADD SWAP1 POP DUP2 DUP2 SUB PUSH0 DUP4 ADD MSTORE PUSH2 0x12A0 DUP2 PUSH2 0x1267 JUMP JUMPDEST SWAP1 POP SWAP2 SWAP1 POP JUMP JUMPDEST PUSH32 0x4475726174696F6E206D7573742062652067726561746572207468616E207A65 PUSH0 DUP3 ADD MSTORE PUSH32 0x726F000000000000000000000000000000000000000000000000000000000000 PUSH1 0x20 DUP3 ADD MSTORE POP JUMP JUMPDEST PUSH0 PUSH2 0x1301 PUSH1 0x22 DUP4 PUSH2 0xFA7 JUMP JUMPDEST SWAP2 POP PUSH2 0x130C DUP3 PUSH2 0x12A7 JUMP JUMPDEST PUSH1 0x40 DUP3 ADD SWAP1 POP SWAP2 SWAP1 POP JUMP JUMPDEST PUSH0 PUSH1 0x20 DUP3 ADD SWAP1 POP DUP2 DUP2 SUB PUSH0 DUP4 ADD MSTORE PUSH2 0x132E DUP2 PUSH2 0x12F5 JUMP JUMPDEST SWAP1 POP SWAP2 SWAP1 POP JUMP JUMPDEST PUSH0 PUSH1 0x60 DUP3 ADD SWAP1 POP PUSH2 0x1348 PUSH0 DUP4 ADD DUP7 PUSH2 0x1141 JUMP JUMPDEST PUSH2 0x1355 PUSH1 0x20 DUP4 ADD DUP6 PUSH2 0x1141 JUMP JUMPDEST PUSH2 0x1362 PUSH1 0x40 DUP4 ADD DUP5 PUSH2 0xE50 JUMP JUMPDEST SWAP5 SWAP4 POP POP POP POP JUMP JUMPDEST PUSH32 0x4E6F207265776172647320746F20636C61696D00000000000000000000000000 PUSH0 DUP3 ADD MSTORE POP JUMP JUMPDEST PUSH0 PUSH2 0x139E PUSH1 0x13 DUP4 PUSH2 0xFA7 JUMP JUMPDEST SWAP2 POP PUSH2 0x13A9 DUP3 PUSH2 0x136A JUMP JUMPDEST PUSH1 0x20 DUP3 ADD SWAP1 POP SWAP2 SWAP1 POP JUMP JUMPDEST PUSH0 PUSH1 0x20 DUP3 ADD SWAP1 POP DUP2 DUP2 SUB PUSH0 DUP4 ADD MSTORE PUSH2 0x13CB DUP2 PUSH2 0x1392 JUMP JUMPDEST SWAP1 POP SWAP2 SWAP1 POP JUMP JUMPDEST PUSH0 PUSH2 0x13DC DUP3 PUSH2 0xDDF JUMP JUMPDEST SWAP2 POP PUSH32 0xFFFFFFFFFFFFFFFFFFFFFFFFFFFFFFFFFFFFFFFFFFFFFFFFFFFFFFFFFFFFFFFF DUP3 SUB PUSH2 0x140E JUMPI PUSH2 0x140D PUSH2 0x10B4 JUMP JUMPDEST JUMPDEST PUSH1 0x1 DUP3 ADD SWAP1 POP SWAP2 SWAP1 POP JUMP JUMPDEST PUSH0 PUSH2 0x1423 DUP3 PUSH2 0xDDF JUMP JUMPDEST SWAP2 POP PUSH2 0x142E DUP4 PUSH2 0xDDF JUMP JUMPDEST SWAP3 POP DUP3 DUP3 MUL PUSH2 0x143C DUP2 PUSH2 0xDDF JUMP JUMPDEST SWAP2 POP DUP3 DUP3 DIV DUP5 EQ DUP4 ISZERO OR PUSH2 0x1453 JUMPI PUSH2 0x1452 PUSH2 0x10B4 JUMP JUMPDEST JUMPDEST POP SWAP3 SWAP2 POP POP JUMP JUMPDEST PUSH32 0x4E487B7100000000000000000000000000000000000000000000000000000000 PUSH0 MSTORE PUSH1 0x12 PUSH1 0x4 MSTORE PUSH1 0x24 PUSH0 REVERT JUMPDEST PUSH0 PUSH2 0x1491 DUP3 PUSH2 0xDDF JUMP JUMPDEST SWAP2 POP PUSH2 0x149C DUP4 PUSH2 0xDDF JUMP JUMPDEST SWAP3 POP DUP3 PUSH2 0x14AC JUMPI PUSH2 0x14AB PUSH2 0x145A JUMP JUMPDEST JUMPDEST DUP3 DUP3 DIV SWAP1 POP SWAP3 SWAP2 POP POP JUMP JUMPDEST PUSH0 PUSH2 0x14C1 DUP3 PUSH2 0xDDF JUMP JUMPDEST SWAP2 POP PUSH2 0x14CC DUP4 PUSH2 0xDDF JUMP JUMPDEST SWAP3 POP DUP3 DUP3 ADD SWAP1 POP DUP1 DUP3 GT ISZERO PUSH2 0x14E4 JUMPI PUSH2 0x14E3 PUSH2 0x10B4 JUMP JUMPDEST JUMPDEST SWAP3 SWAP2 POP POP JUMP INVALID LOG2 PUSH5 0x6970667358 0x22 SLT KECCAK256 MULMOD 0xEB PREVRANDAO PUSH5 0x8486D9BC49 SWAP4 0x27 KECCAK256 ADDMOD LOG3 RETURNDATASIZE CALL 0xC6 0xB2 SSTORE EXTCODESIZE INVALID 0xE 0xB3 LOG3 SHR 0x1E PUSH17 0xD8436F9CBE64736F6C6343000815003300 "
				},
				"gasEstimates": {
					"creation": {
						"codeDepositCost": "1081600",
						"executionCost": "infinite",
						"totalCost": "infinite"
					},
					"external": {
						"calculateReward(address)": "infinite",
						"claimReward()": "infinite",
						"getRewardBalance(address)": "2851",
						"getStakeCount(address)": "2837",
						"getStakeDetails(address,uint256)": "infinite",
						"minStakeAmount()": "2491",
						"rewardRate()": "2492",
						"stake(uint256,uint256)": "infinite",
						"token()": "infinite",
						"unstake(uint256)": "infinite"
					}
				},
				"methodIdentifiers": {
					"calculateReward(address)": "d82e3962",
					"claimReward()": "b88a802f",
					"getRewardBalance(address)": "d5a849e9",
					"getStakeCount(address)": "cf57ee69",
					"getStakeDetails(address,uint256)": "0f0a4fef",
					"minStakeAmount()": "f1887684",
					"rewardRate()": "7b0a47ee",
					"stake(uint256,uint256)": "7b0472f0",
					"token()": "fc0c546a",
					"unstake(uint256)": "2e17de78"
				}
			},
			"storageLayout": {
				"storage": [
					{
						"astId": 424,
						"contract": "stk.sol:StakingContract",
						"label": "token",
						"offset": 0,
						"slot": "0",
						"type": "t_contract(IERC20)77"
					},
					{
						"astId": 427,
						"contract": "stk.sol:StakingContract",
						"label": "rewardRate",
						"offset": 0,
						"slot": "1",
						"type": "t_uint256"
					},
					{
						"astId": 430,
						"contract": "stk.sol:StakingContract",
						"label": "minStakeAmount",
						"offset": 0,
						"slot": "2",
						"type": "t_uint256"
					},
					{
						"astId": 443,
						"contract": "stk.sol:StakingContract",
						"label": "stakes",
						"offset": 0,
						"slot": "3",
						"type": "t_mapping(t_address,t_array(t_struct(Stake)437_storage)dyn_storage)"
					},
					{
						"astId": 447,
						"contract": "stk.sol:StakingContract",
						"label": "rewards",
						"offset": 0,
						"slot": "4",
						"type": "t_mapping(t_address,t_uint256)"
					}
				],
				"types": {
					"t_address": {
						"encoding": "inplace",
						"label": "address",
						"numberOfBytes": "20"
					},
					"t_array(t_struct(Stake)437_storage)dyn_storage": {
						"base": "t_struct(Stake)437_storage",
						"encoding": "dynamic_array",
						"label": "struct StakingContract.Stake[]",
						"numberOfBytes": "32"
					},
					"t_contract(IERC20)77": {
						"encoding": "inplace",
						"label": "contract IERC20",
						"numberOfBytes": "20"
					},
					"t_mapping(t_address,t_array(t_struct(Stake)437_storage)dyn_storage)": {
						"encoding": "mapping",
						"key": "t_address",
						"label": "mapping(address => struct StakingContract.Stake[])",
						"numberOfBytes": "32",
						"value": "t_array(t_struct(Stake)437_storage)dyn_storage"
					},
					"t_mapping(t_address,t_uint256)": {
						"encoding": "mapping",
						"key": "t_address",
						"label": "mapping(address => uint256)",
						"numberOfBytes": "32",
						"value": "t_uint256"
					},
					"t_struct(Stake)437_storage": {
						"encoding": "inplace",
						"label": "struct StakingContract.Stake",
						"members": [
							{
								"astId": 432,
								"contract": "stk.sol:StakingContract",
								"label": "amount",
								"offset": 0,
								"slot": "0",
								"type": "t_uint256"
							},
							{
								"astId": 434,
								"contract": "stk.sol:StakingContract",
								"label": "startTime",
								"offset": 0,
								"slot": "1",
								"type": "t_uint256"
							},
							{
								"astId": 436,
								"contract": "stk.sol:StakingContract",
								"label": "duration",
								"offset": 0,
								"slot": "2",
								"type": "t_uint256"
							}
						],
						"numberOfBytes": "96"
					},
					"t_uint256": {
						"encoding": "inplace",
						"label": "uint256",
						"numberOfBytes": "32"
					}
				}
			},
			"userdoc": {
				"kind": "user",
				"methods": {},
				"version": 1
			}
		}
	}
}