{
	"compound_3/MyDeFiProject.sol": {
		"MyDeFiProject": {
			"abi": [
				{
					"inputs": [
						{
							"internalType": "address",
							"name": "_comptroller",
							"type": "address"
						},
						{
							"internalType": "address",
							"name": "_token",
							"type": "address"
						},
						{
							"internalType": "address",
							"name": "_cToken",
							"type": "address"
						}
					],
					"stateMutability": "nonpayable",
					"type": "constructor"
				},
				{
					"inputs": [
						{
							"internalType": "uint256",
							"name": "borrowAmount",
							"type": "uint256"
						}
					],
					"name": "borrow",
					"outputs": [],
					"stateMutability": "nonpayable",
					"type": "function"
				},
				{
					"inputs": [],
					"name": "cToken",
					"outputs": [
						{
							"internalType": "contract CTokenInterface",
							"name": "",
							"type": "address"
						}
					],
					"stateMutability": "view",
					"type": "function"
				},
				{
					"inputs": [],
					"name": "comptroller",
					"outputs": [
						{
							"internalType": "contract ComptrollerInterface",
							"name": "",
							"type": "address"
						}
					],
					"stateMutability": "view",
					"type": "function"
				},
				{
					"inputs": [],
					"name": "enterMarket",
					"outputs": [],
					"stateMutability": "nonpayable",
					"type": "function"
				},
				{
					"inputs": [
						{
							"internalType": "uint256",
							"name": "cTokenAmount",
							"type": "uint256"
						}
					],
					"name": "redeem",
					"outputs": [],
					"stateMutability": "nonpayable",
					"type": "function"
				},
				{
					"inputs": [
						{
							"internalType": "uint256",
							"name": "underlyingAmount",
							"type": "uint256"
						}
					],
					"name": "repayBorrow",
					"outputs": [],
					"stateMutability": "nonpayable",
					"type": "function"
				},
				{
					"inputs": [
						{
							"internalType": "uint256",
							"name": "underlyingAmount",
							"type": "uint256"
						}
					],
					"name": "supply",
					"outputs": [],
					"stateMutability": "nonpayable",
					"type": "function"
				},
				{
					"inputs": [],
					"name": "token",
					"outputs": [
						{
							"internalType": "contract IERC20",
							"name": "",
							"type": "address"
						}
					],
					"stateMutability": "view",
					"type": "function"
				},
				{
					"inputs": [
						{
							"internalType": "address payable",
							"name": "receiver",
							"type": "address"
						}
					],
					"name": "transferEther",
					"outputs": [],
					"stateMutability": "payable",
					"type": "function"
				}
			],
			"devdoc": {
				"kind": "dev",
				"methods": {},
				"version": 1
			},
			"evm": {
				"assembly": "    /* \"compound_3/MyDeFiProject.sol\":223:2642  contract MyDeFiProject {... */\n  mstore(0x40, 0x80)\n    /* \"compound_3/MyDeFiProject.sol\":405:734  constructor(... */\n  callvalue\n  dup1\n  iszero\n  tag_1\n  jumpi\n  0x00\n  dup1\n  revert\ntag_1:\n  pop\n  mload(0x40)\n  sub(codesize, bytecodeSize)\n  dup1\n  bytecodeSize\n  dup4\n  codecopy\n  dup2\n  dup2\n  add\n  0x40\n  mstore\n  dup2\n  add\n  swap1\n  tag_2\n  swap2\n  swap1\n  tag_3\n  jump\t// in\ntag_2:\n    /* \"compound_3/MyDeFiProject.sol\":579:591  _comptroller */\n  dup3\n    /* \"compound_3/MyDeFiProject.sol\":544:555  comptroller */\n  0x00\n  dup1\n    /* \"compound_3/MyDeFiProject.sol\":544:592  comptroller = ComptrollerInterface(_comptroller) */\n  0x0100\n  exp\n  dup2\n  sload\n  dup2\n  0xffffffffffffffffffffffffffffffffffffffff\n  mul\n  not\n  and\n  swap1\n  dup4\n  0xffffffffffffffffffffffffffffffffffffffff\n  and\n  mul\n  or\n  swap1\n  sstore\n  pop\n    /* \"compound_3/MyDeFiProject.sol\":687:694  _cToken */\n  dup1\n    /* \"compound_3/MyDeFiProject.sol\":662:668  cToken */\n  0x02\n  0x00\n    /* \"compound_3/MyDeFiProject.sol\":662:695  cToken = CTokenInterface(_cToken) */\n  0x0100\n  exp\n  dup2\n  sload\n  dup2\n  0xffffffffffffffffffffffffffffffffffffffff\n  mul\n  not\n  and\n  swap1\n  dup4\n  0xffffffffffffffffffffffffffffffffffffffff\n  and\n  mul\n  or\n  swap1\n  sstore\n  pop\n    /* \"compound_3/MyDeFiProject.sol\":720:726  _token */\n  dup2\n    /* \"compound_3/MyDeFiProject.sol\":705:710  token */\n  0x01\n  0x00\n    /* \"compound_3/MyDeFiProject.sol\":705:727  token = IERC20(_token) */\n  0x0100\n  exp\n  dup2\n  sload\n  dup2\n  0xffffffffffffffffffffffffffffffffffffffff\n  mul\n  not\n  and\n  swap1\n  dup4\n  0xffffffffffffffffffffffffffffffffffffffff\n  and\n  mul\n  or\n  swap1\n  sstore\n  pop\n    /* \"compound_3/MyDeFiProject.sol\":405:734  constructor(... */\n  pop\n  pop\n  pop\n    /* \"compound_3/MyDeFiProject.sol\":223:2642  contract MyDeFiProject {... */\n  jump(tag_6)\n    /* \"#utility.yul\":88:205   */\ntag_8:\n    /* \"#utility.yul\":197:198   */\n  0x00\n    /* \"#utility.yul\":194:195   */\n  dup1\n    /* \"#utility.yul\":187:199   */\n  revert\n    /* \"#utility.yul\":334:460   */\ntag_10:\n    /* \"#utility.yul\":371:378   */\n  0x00\n    /* \"#utility.yul\":411:453   */\n  0xffffffffffffffffffffffffffffffffffffffff\n    /* \"#utility.yul\":404:409   */\n  dup3\n    /* \"#utility.yul\":400:454   */\n  and\n    /* \"#utility.yul\":389:454   */\n  swap1\n  pop\n    /* \"#utility.yul\":334:460   */\n  swap2\n  swap1\n  pop\n  jump\t// out\n    /* \"#utility.yul\":466:562   */\ntag_11:\n    /* \"#utility.yul\":503:510   */\n  0x00\n    /* \"#utility.yul\":532:556   */\n  tag_20\n    /* \"#utility.yul\":550:555   */\n  dup3\n    /* \"#utility.yul\":532:556   */\n  tag_10\n  jump\t// in\ntag_20:\n    /* \"#utility.yul\":521:556   */\n  swap1\n  pop\n    /* \"#utility.yul\":466:562   */\n  swap2\n  swap1\n  pop\n  jump\t// out\n    /* \"#utility.yul\":568:690   */\ntag_12:\n    /* \"#utility.yul\":641:665   */\n  tag_22\n    /* \"#utility.yul\":659:664   */\n  dup2\n    /* \"#utility.yul\":641:665   */\n  tag_11\n  jump\t// in\ntag_22:\n    /* \"#utility.yul\":634:639   */\n  dup2\n    /* \"#utility.yul\":631:666   */\n  eq\n    /* \"#utility.yul\":621:684   */\n  tag_23\n  jumpi\n    /* \"#utility.yul\":680:681   */\n  0x00\n    /* \"#utility.yul\":677:678   */\n  dup1\n    /* \"#utility.yul\":670:682   */\n  revert\n    /* \"#utility.yul\":621:684   */\ntag_23:\n    /* \"#utility.yul\":568:690   */\n  pop\n  jump\t// out\n    /* \"#utility.yul\":696:839   */\ntag_13:\n    /* \"#utility.yul\":753:758   */\n  0x00\n    /* \"#utility.yul\":784:790   */\n  dup2\n    /* \"#utility.yul\":778:791   */\n  mload\n    /* \"#utility.yul\":769:791   */\n  swap1\n  pop\n    /* \"#utility.yul\":800:833   */\n  tag_25\n    /* \"#utility.yul\":827:832   */\n  dup2\n    /* \"#utility.yul\":800:833   */\n  tag_12\n  jump\t// in\ntag_25:\n    /* \"#utility.yul\":696:839   */\n  swap3\n  swap2\n  pop\n  pop\n  jump\t// out\n    /* \"#utility.yul\":845:1508   */\ntag_3:\n    /* \"#utility.yul\":933:939   */\n  0x00\n    /* \"#utility.yul\":941:947   */\n  dup1\n    /* \"#utility.yul\":949:955   */\n  0x00\n    /* \"#utility.yul\":998:1000   */\n  0x60\n    /* \"#utility.yul\":986:995   */\n  dup5\n    /* \"#utility.yul\":977:984   */\n  dup7\n    /* \"#utility.yul\":973:996   */\n  sub\n    /* \"#utility.yul\":969:1001   */\n  slt\n    /* \"#utility.yul\":966:1085   */\n  iszero\n  tag_27\n  jumpi\n    /* \"#utility.yul\":1004:1083   */\n  tag_28\n  tag_8\n  jump\t// in\ntag_28:\n    /* \"#utility.yul\":966:1085   */\ntag_27:\n    /* \"#utility.yul\":1124:1125   */\n  0x00\n    /* \"#utility.yul\":1149:1213   */\n  tag_29\n    /* \"#utility.yul\":1205:1212   */\n  dup7\n    /* \"#utility.yul\":1196:1202   */\n  dup3\n    /* \"#utility.yul\":1185:1194   */\n  dup8\n    /* \"#utility.yul\":1181:1203   */\n  add\n    /* \"#utility.yul\":1149:1213   */\n  tag_13\n  jump\t// in\ntag_29:\n    /* \"#utility.yul\":1139:1213   */\n  swap4\n  pop\n    /* \"#utility.yul\":1095:1223   */\n  pop\n    /* \"#utility.yul\":1262:1264   */\n  0x20\n    /* \"#utility.yul\":1288:1352   */\n  tag_30\n    /* \"#utility.yul\":1344:1351   */\n  dup7\n    /* \"#utility.yul\":1335:1341   */\n  dup3\n    /* \"#utility.yul\":1324:1333   */\n  dup8\n    /* \"#utility.yul\":1320:1342   */\n  add\n    /* \"#utility.yul\":1288:1352   */\n  tag_13\n  jump\t// in\ntag_30:\n    /* \"#utility.yul\":1278:1352   */\n  swap3\n  pop\n    /* \"#utility.yul\":1233:1362   */\n  pop\n    /* \"#utility.yul\":1401:1403   */\n  0x40\n    /* \"#utility.yul\":1427:1491   */\n  tag_31\n    /* \"#utility.yul\":1483:1490   */\n  dup7\n    /* \"#utility.yul\":1474:1480   */\n  dup3\n    /* \"#utility.yul\":1463:1472   */\n  dup8\n    /* \"#utility.yul\":1459:1481   */\n  add\n    /* \"#utility.yul\":1427:1491   */\n  tag_13\n  jump\t// in\ntag_31:\n    /* \"#utility.yul\":1417:1491   */\n  swap2\n  pop\n    /* \"#utility.yul\":1372:1501   */\n  pop\n    /* \"#utility.yul\":845:1508   */\n  swap3\n  pop\n  swap3\n  pop\n  swap3\n  jump\t// out\n    /* \"compound_3/MyDeFiProject.sol\":223:2642  contract MyDeFiProject {... */\ntag_6:\n  dataSize(sub_0)\n  dup1\n  dataOffset(sub_0)\n  0x00\n  codecopy\n  0x00\n  return\nstop\n\nsub_0: assembly {\n        /* \"compound_3/MyDeFiProject.sol\":223:2642  contract MyDeFiProject {... */\n      mstore(0x40, 0x80)\n      jumpi(tag_1, lt(calldatasize, 0x04))\n      shr(0xe0, calldataload(0x00))\n      dup1\n      0x6b55e991\n      gt\n      tag_11\n      jumpi\n      dup1\n      0x6b55e991\n      eq\n      tag_6\n      jumpi\n      dup1\n      0xc5ebeaec\n      eq\n      tag_7\n      jumpi\n      dup1\n      0xdb006a75\n      eq\n      tag_8\n      jumpi\n      dup1\n      0xfc0c546a\n      eq\n      tag_9\n      jumpi\n      dup1\n      0xfd5bfb54\n      eq\n      tag_10\n      jumpi\n      jump(tag_1)\n    tag_11:\n      dup1\n      0x0e752702\n      eq\n      tag_2\n      jumpi\n      dup1\n      0x35403023\n      eq\n      tag_3\n      jumpi\n      dup1\n      0x5fe3b567\n      eq\n      tag_4\n      jumpi\n      dup1\n      0x69e527da\n      eq\n      tag_5\n      jumpi\n    tag_1:\n      0x00\n      dup1\n      revert\n        /* \"compound_3/MyDeFiProject.sol\":1668:1977  function repayBorrow(uint underlyingAmount) external {... */\n    tag_2:\n      callvalue\n      dup1\n      iszero\n      tag_12\n      jumpi\n      0x00\n      dup1\n      revert\n    tag_12:\n      pop\n      tag_13\n      0x04\n      dup1\n      calldatasize\n      sub\n      dup2\n      add\n      swap1\n      tag_14\n      swap2\n      swap1\n      tag_15\n      jump\t// in\n    tag_14:\n      tag_16\n      jump\t// in\n    tag_13:\n      stop\n        /* \"compound_3/MyDeFiProject.sol\":740:1028  function supply(uint underlyingAmount) public {... */\n    tag_3:\n      callvalue\n      dup1\n      iszero\n      tag_17\n      jumpi\n      0x00\n      dup1\n      revert\n    tag_17:\n      pop\n      tag_18\n      0x04\n      dup1\n      calldatasize\n      sub\n      dup2\n      add\n      swap1\n      tag_19\n      swap2\n      swap1\n      tag_15\n      jump\t// in\n    tag_19:\n      tag_20\n      jump\t// in\n    tag_18:\n      stop\n        /* \"compound_3/MyDeFiProject.sol\":252:291  ComptrollerInterface public comptroller */\n    tag_4:\n      callvalue\n      dup1\n      iszero\n      tag_21\n      jumpi\n      0x00\n      dup1\n      revert\n    tag_21:\n      pop\n      tag_22\n      tag_23\n      jump\t// in\n    tag_22:\n      mload(0x40)\n      tag_24\n      swap2\n      swap1\n      tag_25\n      jump\t// in\n    tag_24:\n      mload(0x40)\n      dup1\n      swap2\n      sub\n      swap1\n      return\n        /* \"compound_3/MyDeFiProject.sol\":369:398  CTokenInterface public cToken */\n    tag_5:\n      callvalue\n      dup1\n      iszero\n      tag_26\n      jumpi\n      0x00\n      dup1\n      revert\n    tag_26:\n      pop\n      tag_27\n      tag_28\n      jump\t// in\n    tag_27:\n      mload(0x40)\n      tag_29\n      swap2\n      swap1\n      tag_30\n      jump\t// in\n    tag_29:\n      mload(0x40)\n      dup1\n      swap2\n      sub\n      swap1\n      return\n        /* \"compound_3/MyDeFiProject.sol\":1983:2150  function transferEther(address payable receiver) public payable {... */\n    tag_6:\n      tag_31\n      0x04\n      dup1\n      calldatasize\n      sub\n      dup2\n      add\n      swap1\n      tag_32\n      swap2\n      swap1\n      tag_33\n      jump\t// in\n    tag_32:\n      tag_34\n      jump\t// in\n    tag_31:\n      stop\n        /* \"compound_3/MyDeFiProject.sol\":1452:1662  function borrow(uint borrowAmount) external {... */\n    tag_7:\n      callvalue\n      dup1\n      iszero\n      tag_35\n      jumpi\n      0x00\n      dup1\n      revert\n    tag_35:\n      pop\n      tag_36\n      0x04\n      dup1\n      calldatasize\n      sub\n      dup2\n      add\n      swap1\n      tag_37\n      swap2\n      swap1\n      tag_15\n      jump\t// in\n    tag_37:\n      tag_38\n      jump\t// in\n    tag_36:\n      stop\n        /* \"compound_3/MyDeFiProject.sol\":1034:1185  function redeem(uint cTokenAmount) external {... */\n    tag_8:\n      callvalue\n      dup1\n      iszero\n      tag_39\n      jumpi\n      0x00\n      dup1\n      revert\n    tag_39:\n      pop\n      tag_40\n      0x04\n      dup1\n      calldatasize\n      sub\n      dup2\n      add\n      swap1\n      tag_41\n      swap2\n      swap1\n      tag_15\n      jump\t// in\n    tag_41:\n      tag_42\n      jump\t// in\n    tag_40:\n      stop\n        /* \"compound_3/MyDeFiProject.sol\":344:363  IERC20 public token */\n    tag_9:\n      callvalue\n      dup1\n      iszero\n      tag_43\n      jumpi\n      0x00\n      dup1\n      revert\n    tag_43:\n      pop\n      tag_44\n      tag_45\n      jump\t// in\n    tag_44:\n      mload(0x40)\n      tag_46\n      swap2\n      swap1\n      tag_47\n      jump\t// in\n    tag_46:\n      mload(0x40)\n      dup1\n      swap2\n      sub\n      swap1\n      return\n        /* \"compound_3/MyDeFiProject.sol\":1191:1446  function enterMarket() external {... */\n    tag_10:\n      callvalue\n      dup1\n      iszero\n      tag_48\n      jumpi\n      0x00\n      dup1\n      revert\n    tag_48:\n      pop\n      tag_49\n      tag_50\n      jump\t// in\n    tag_49:\n      stop\n        /* \"compound_3/MyDeFiProject.sol\":1668:1977  function repayBorrow(uint underlyingAmount) external {... */\n    tag_16:\n        /* \"compound_3/MyDeFiProject.sol\":1731:1756  address underlyingAddress */\n      0x00\n        /* \"compound_3/MyDeFiProject.sol\":1759:1765  cToken */\n      0x02\n      0x00\n      swap1\n      sload\n      swap1\n      0x0100\n      exp\n      swap1\n      div\n      0xffffffffffffffffffffffffffffffffffffffff\n      and\n        /* \"compound_3/MyDeFiProject.sol\":1759:1776  cToken.underlying */\n      0xffffffffffffffffffffffffffffffffffffffff\n      and\n      0x6f307dc3\n        /* \"compound_3/MyDeFiProject.sol\":1759:1778  cToken.underlying() */\n      mload(0x40)\n      dup2\n      0xffffffff\n      and\n      0xe0\n      shl\n      dup2\n      mstore\n      0x04\n      add\n      0x20\n      mload(0x40)\n      dup1\n      dup4\n      sub\n      dup2\n      dup7\n      gas\n      staticcall\n      iszero\n      dup1\n      iszero\n      tag_53\n      jumpi\n      returndatasize\n      0x00\n      dup1\n      returndatacopy\n      revert(0x00, returndatasize)\n    tag_53:\n      pop\n      pop\n      pop\n      pop\n      mload(0x40)\n      returndatasize\n      not(0x1f)\n      0x1f\n      dup3\n      add\n      and\n      dup3\n      add\n      dup1\n      0x40\n      mstore\n      pop\n      dup2\n      add\n      swap1\n      tag_54\n      swap2\n      swap1\n      tag_55\n      jump\t// in\n    tag_54:\n        /* \"compound_3/MyDeFiProject.sol\":1731:1778  address underlyingAddress = cToken.underlying() */\n      swap1\n      pop\n        /* \"compound_3/MyDeFiProject.sol\":1795:1812  underlyingAddress */\n      dup1\n        /* \"compound_3/MyDeFiProject.sol\":1788:1821  IERC20(underlyingAddress).approve */\n      0xffffffffffffffffffffffffffffffffffffffff\n      and\n      0x095ea7b3\n        /* \"compound_3/MyDeFiProject.sol\":1830:1836  cToken */\n      0x02\n      0x00\n      swap1\n      sload\n      swap1\n      0x0100\n      exp\n      swap1\n      div\n      0xffffffffffffffffffffffffffffffffffffffff\n      and\n        /* \"compound_3/MyDeFiProject.sol\":1839:1855  underlyingAmount */\n      dup5\n        /* \"compound_3/MyDeFiProject.sol\":1788:1856  IERC20(underlyingAddress).approve(address(cToken), underlyingAmount) */\n      mload(0x40)\n      dup4\n      0xffffffff\n      and\n      0xe0\n      shl\n      dup2\n      mstore\n      0x04\n      add\n      tag_56\n      swap3\n      swap2\n      swap1\n      tag_57\n      jump\t// in\n    tag_56:\n      0x20\n      mload(0x40)\n      dup1\n      dup4\n      sub\n      dup2\n      0x00\n      dup8\n      gas\n      call\n      iszero\n      dup1\n      iszero\n      tag_59\n      jumpi\n      returndatasize\n      0x00\n      dup1\n      returndatacopy\n      revert(0x00, returndatasize)\n    tag_59:\n      pop\n      pop\n      pop\n      pop\n      mload(0x40)\n      returndatasize\n      not(0x1f)\n      0x1f\n      dup3\n      add\n      and\n      dup3\n      add\n      dup1\n      0x40\n      mstore\n      pop\n      dup2\n      add\n      swap1\n      tag_60\n      swap2\n      swap1\n      tag_61\n      jump\t// in\n    tag_60:\n      pop\n        /* \"compound_3/MyDeFiProject.sol\":1866:1877  uint result */\n      0x00\n        /* \"compound_3/MyDeFiProject.sol\":1880:1886  cToken */\n      0x02\n      0x00\n      swap1\n      sload\n      swap1\n      0x0100\n      exp\n      swap1\n      div\n      0xffffffffffffffffffffffffffffffffffffffff\n      and\n        /* \"compound_3/MyDeFiProject.sol\":1880:1898  cToken.repayBorrow */\n      0xffffffffffffffffffffffffffffffffffffffff\n      and\n      0x0e752702\n        /* \"compound_3/MyDeFiProject.sol\":1899:1915  underlyingAmount */\n      dup5\n        /* \"compound_3/MyDeFiProject.sol\":1880:1916  cToken.repayBorrow(underlyingAmount) */\n      mload(0x40)\n      dup3\n      0xffffffff\n      and\n      0xe0\n      shl\n      dup2\n      mstore\n      0x04\n      add\n      tag_62\n      swap2\n      swap1\n      tag_63\n      jump\t// in\n    tag_62:\n      0x20\n      mload(0x40)\n      dup1\n      dup4\n      sub\n      dup2\n      0x00\n      dup8\n      gas\n      call\n      iszero\n      dup1\n      iszero\n      tag_65\n      jumpi\n      returndatasize\n      0x00\n      dup1\n      returndatacopy\n      revert(0x00, returndatasize)\n    tag_65:\n      pop\n      pop\n      pop\n      pop\n      mload(0x40)\n      returndatasize\n      not(0x1f)\n      0x1f\n      dup3\n      add\n      and\n      dup3\n      add\n      dup1\n      0x40\n      mstore\n      pop\n      dup2\n      add\n      swap1\n      tag_66\n      swap2\n      swap1\n      tag_67\n      jump\t// in\n    tag_66:\n        /* \"compound_3/MyDeFiProject.sol\":1866:1916  uint result = cToken.repayBorrow(underlyingAmount) */\n      swap1\n      pop\n        /* \"compound_3/MyDeFiProject.sol\":1944:1945  0 */\n      0x00\n        /* \"compound_3/MyDeFiProject.sol\":1934:1940  result */\n      dup2\n        /* \"compound_3/MyDeFiProject.sol\":1934:1945  result == 0 */\n      eq\n        /* \"compound_3/MyDeFiProject.sol\":1926:1970  require(result == 0, \"repayBorrow() failed\") */\n      tag_68\n      jumpi\n      mload(0x40)\n      0x08c379a000000000000000000000000000000000000000000000000000000000\n      dup2\n      mstore\n      0x04\n      add\n      tag_69\n      swap1\n      tag_70\n      jump\t// in\n    tag_69:\n      mload(0x40)\n      dup1\n      swap2\n      sub\n      swap1\n      revert\n    tag_68:\n        /* \"compound_3/MyDeFiProject.sol\":1721:1977  {... */\n      pop\n      pop\n        /* \"compound_3/MyDeFiProject.sol\":1668:1977  function repayBorrow(uint underlyingAmount) external {... */\n      pop\n      jump\t// out\n        /* \"compound_3/MyDeFiProject.sol\":740:1028  function supply(uint underlyingAmount) public {... */\n    tag_20:\n        /* \"compound_3/MyDeFiProject.sol\":796:821  address underlyingAddress */\n      0x00\n        /* \"compound_3/MyDeFiProject.sol\":824:830  cToken */\n      0x02\n      0x00\n      swap1\n      sload\n      swap1\n      0x0100\n      exp\n      swap1\n      div\n      0xffffffffffffffffffffffffffffffffffffffff\n      and\n        /* \"compound_3/MyDeFiProject.sol\":824:841  cToken.underlying */\n      0xffffffffffffffffffffffffffffffffffffffff\n      and\n      0x6f307dc3\n        /* \"compound_3/MyDeFiProject.sol\":824:843  cToken.underlying() */\n      mload(0x40)\n      dup2\n      0xffffffff\n      and\n      0xe0\n      shl\n      dup2\n      mstore\n      0x04\n      add\n      0x20\n      mload(0x40)\n      dup1\n      dup4\n      sub\n      dup2\n      dup7\n      gas\n      staticcall\n      iszero\n      dup1\n      iszero\n      tag_73\n      jumpi\n      returndatasize\n      0x00\n      dup1\n      returndatacopy\n      revert(0x00, returndatasize)\n    tag_73:\n      pop\n      pop\n      pop\n      pop\n      mload(0x40)\n      returndatasize\n      not(0x1f)\n      0x1f\n      dup3\n      add\n      and\n      dup3\n      add\n      dup1\n      0x40\n      mstore\n      pop\n      dup2\n      add\n      swap1\n      tag_74\n      swap2\n      swap1\n      tag_55\n      jump\t// in\n    tag_74:\n        /* \"compound_3/MyDeFiProject.sol\":796:843  address underlyingAddress = cToken.underlying() */\n      swap1\n      pop\n        /* \"compound_3/MyDeFiProject.sol\":860:877  underlyingAddress */\n      dup1\n        /* \"compound_3/MyDeFiProject.sol\":853:886  IERC20(underlyingAddress).approve */\n      0xffffffffffffffffffffffffffffffffffffffff\n      and\n      0x095ea7b3\n        /* \"compound_3/MyDeFiProject.sol\":895:901  cToken */\n      0x02\n      0x00\n      swap1\n      sload\n      swap1\n      0x0100\n      exp\n      swap1\n      div\n      0xffffffffffffffffffffffffffffffffffffffff\n      and\n        /* \"compound_3/MyDeFiProject.sol\":904:920  underlyingAmount */\n      dup5\n        /* \"compound_3/MyDeFiProject.sol\":853:921  IERC20(underlyingAddress).approve(address(cToken), underlyingAmount) */\n      mload(0x40)\n      dup4\n      0xffffffff\n      and\n      0xe0\n      shl\n      dup2\n      mstore\n      0x04\n      add\n      tag_75\n      swap3\n      swap2\n      swap1\n      tag_57\n      jump\t// in\n    tag_75:\n      0x20\n      mload(0x40)\n      dup1\n      dup4\n      sub\n      dup2\n      0x00\n      dup8\n      gas\n      call\n      iszero\n      dup1\n      iszero\n      tag_77\n      jumpi\n      returndatasize\n      0x00\n      dup1\n      returndatacopy\n      revert(0x00, returndatasize)\n    tag_77:\n      pop\n      pop\n      pop\n      pop\n      mload(0x40)\n      returndatasize\n      not(0x1f)\n      0x1f\n      dup3\n      add\n      and\n      dup3\n      add\n      dup1\n      0x40\n      mstore\n      pop\n      dup2\n      add\n      swap1\n      tag_78\n      swap2\n      swap1\n      tag_61\n      jump\t// in\n    tag_78:\n      pop\n        /* \"compound_3/MyDeFiProject.sol\":931:942  uint result */\n      0x00\n        /* \"compound_3/MyDeFiProject.sol\":945:951  cToken */\n      0x02\n      0x00\n      swap1\n      sload\n      swap1\n      0x0100\n      exp\n      swap1\n      div\n      0xffffffffffffffffffffffffffffffffffffffff\n      and\n        /* \"compound_3/MyDeFiProject.sol\":945:956  cToken.mint */\n      0xffffffffffffffffffffffffffffffffffffffff\n      and\n      0xa0712d68\n        /* \"compound_3/MyDeFiProject.sol\":957:973  underlyingAmount */\n      dup5\n        /* \"compound_3/MyDeFiProject.sol\":945:974  cToken.mint(underlyingAmount) */\n      mload(0x40)\n      dup3\n      0xffffffff\n      and\n      0xe0\n      shl\n      dup2\n      mstore\n      0x04\n      add\n      tag_79\n      swap2\n      swap1\n      tag_63\n      jump\t// in\n    tag_79:\n      0x20\n      mload(0x40)\n      dup1\n      dup4\n      sub\n      dup2\n      0x00\n      dup8\n      gas\n      call\n      iszero\n      dup1\n      iszero\n      tag_81\n      jumpi\n      returndatasize\n      0x00\n      dup1\n      returndatacopy\n      revert(0x00, returndatasize)\n    tag_81:\n      pop\n      pop\n      pop\n      pop\n      mload(0x40)\n      returndatasize\n      not(0x1f)\n      0x1f\n      dup3\n      add\n      and\n      dup3\n      add\n      dup1\n      0x40\n      mstore\n      pop\n      dup2\n      add\n      swap1\n      tag_82\n      swap2\n      swap1\n      tag_67\n      jump\t// in\n    tag_82:\n        /* \"compound_3/MyDeFiProject.sol\":931:974  uint result = cToken.mint(underlyingAmount) */\n      swap1\n      pop\n        /* \"compound_3/MyDeFiProject.sol\":1002:1003  0 */\n      0x00\n        /* \"compound_3/MyDeFiProject.sol\":992:998  result */\n      dup2\n        /* \"compound_3/MyDeFiProject.sol\":992:1003  result == 0 */\n      eq\n        /* \"compound_3/MyDeFiProject.sol\":984:1021  require(result == 0, \"mint() failed\") */\n      tag_83\n      jumpi\n      mload(0x40)\n      0x08c379a000000000000000000000000000000000000000000000000000000000\n      dup2\n      mstore\n      0x04\n      add\n      tag_84\n      swap1\n      tag_85\n      jump\t// in\n    tag_84:\n      mload(0x40)\n      dup1\n      swap2\n      sub\n      swap1\n      revert\n    tag_83:\n        /* \"compound_3/MyDeFiProject.sol\":786:1028  {... */\n      pop\n      pop\n        /* \"compound_3/MyDeFiProject.sol\":740:1028  function supply(uint underlyingAmount) public {... */\n      pop\n      jump\t// out\n        /* \"compound_3/MyDeFiProject.sol\":252:291  ComptrollerInterface public comptroller */\n    tag_23:\n      0x00\n      dup1\n      sload\n      swap1\n      0x0100\n      exp\n      swap1\n      div\n      0xffffffffffffffffffffffffffffffffffffffff\n      and\n      dup2\n      jump\t// out\n        /* \"compound_3/MyDeFiProject.sol\":369:398  CTokenInterface public cToken */\n    tag_28:\n      0x02\n      0x00\n      swap1\n      sload\n      swap1\n      0x0100\n      exp\n      swap1\n      div\n      0xffffffffffffffffffffffffffffffffffffffff\n      and\n      dup2\n      jump\t// out\n        /* \"compound_3/MyDeFiProject.sol\":1983:2150  function transferEther(address payable receiver) public payable {... */\n    tag_34:\n        /* \"compound_3/MyDeFiProject.sol\":2077:2078  0 */\n      0x00\n        /* \"compound_3/MyDeFiProject.sol\":2065:2074  msg.value */\n      callvalue\n        /* \"compound_3/MyDeFiProject.sol\":2065:2078  msg.value > 0 */\n      gt\n        /* \"compound_3/MyDeFiProject.sol\":2057:2105  require(msg.value > 0, \"Please send some Ether\") */\n      tag_87\n      jumpi\n      mload(0x40)\n      0x08c379a000000000000000000000000000000000000000000000000000000000\n      dup2\n      mstore\n      0x04\n      add\n      tag_88\n      swap1\n      tag_89\n      jump\t// in\n    tag_88:\n      mload(0x40)\n      dup1\n      swap2\n      sub\n      swap1\n      revert\n    tag_87:\n        /* \"compound_3/MyDeFiProject.sol\":2115:2123  receiver */\n      dup1\n        /* \"compound_3/MyDeFiProject.sol\":2115:2132  receiver.transfer */\n      0xffffffffffffffffffffffffffffffffffffffff\n      and\n        /* \"compound_3/MyDeFiProject.sol\":2115:2143  receiver.transfer(msg.value) */\n      0x08fc\n        /* \"compound_3/MyDeFiProject.sol\":2133:2142  msg.value */\n      callvalue\n        /* \"compound_3/MyDeFiProject.sol\":2115:2143  receiver.transfer(msg.value) */\n      swap1\n      dup2\n      iszero\n      mul\n      swap1\n      mload(0x40)\n      0x00\n      mload(0x40)\n      dup1\n      dup4\n      sub\n      dup2\n      dup6\n      dup9\n      dup9\n      call\n      swap4\n      pop\n      pop\n      pop\n      pop\n      iszero\n      dup1\n      iszero\n      tag_91\n      jumpi\n      returndatasize\n      0x00\n      dup1\n      returndatacopy\n      revert(0x00, returndatasize)\n    tag_91:\n      pop\n        /* \"compound_3/MyDeFiProject.sol\":1983:2150  function transferEther(address payable receiver) public payable {... */\n      pop\n      jump\t// out\n        /* \"compound_3/MyDeFiProject.sol\":1452:1662  function borrow(uint borrowAmount) external {... */\n    tag_38:\n        /* \"compound_3/MyDeFiProject.sol\":1565:1576  uint result */\n      0x00\n        /* \"compound_3/MyDeFiProject.sol\":1579:1585  cToken */\n      0x02\n      0x00\n      swap1\n      sload\n      swap1\n      0x0100\n      exp\n      swap1\n      div\n      0xffffffffffffffffffffffffffffffffffffffff\n      and\n        /* \"compound_3/MyDeFiProject.sol\":1579:1592  cToken.borrow */\n      0xffffffffffffffffffffffffffffffffffffffff\n      and\n      0xc5ebeaec\n        /* \"compound_3/MyDeFiProject.sol\":1593:1605  borrowAmount */\n      dup4\n        /* \"compound_3/MyDeFiProject.sol\":1579:1606  cToken.borrow(borrowAmount) */\n      mload(0x40)\n      dup3\n      0xffffffff\n      and\n      0xe0\n      shl\n      dup2\n      mstore\n      0x04\n      add\n      tag_93\n      swap2\n      swap1\n      tag_63\n      jump\t// in\n    tag_93:\n      0x20\n      mload(0x40)\n      dup1\n      dup4\n      sub\n      dup2\n      0x00\n      dup8\n      gas\n      call\n      iszero\n      dup1\n      iszero\n      tag_95\n      jumpi\n      returndatasize\n      0x00\n      dup1\n      returndatacopy\n      revert(0x00, returndatasize)\n    tag_95:\n      pop\n      pop\n      pop\n      pop\n      mload(0x40)\n      returndatasize\n      not(0x1f)\n      0x1f\n      dup3\n      add\n      and\n      dup3\n      add\n      dup1\n      0x40\n      mstore\n      pop\n      dup2\n      add\n      swap1\n      tag_96\n      swap2\n      swap1\n      tag_67\n      jump\t// in\n    tag_96:\n        /* \"compound_3/MyDeFiProject.sol\":1565:1606  uint result = cToken.borrow(borrowAmount) */\n      swap1\n      pop\n        /* \"compound_3/MyDeFiProject.sol\":1634:1635  0 */\n      0x00\n        /* \"compound_3/MyDeFiProject.sol\":1624:1630  result */\n      dup2\n        /* \"compound_3/MyDeFiProject.sol\":1624:1635  result == 0 */\n      eq\n        /* \"compound_3/MyDeFiProject.sol\":1616:1655  require(result == 0, \"borrow() failed\") */\n      tag_97\n      jumpi\n      mload(0x40)\n      0x08c379a000000000000000000000000000000000000000000000000000000000\n      dup2\n      mstore\n      0x04\n      add\n      tag_98\n      swap1\n      tag_99\n      jump\t// in\n    tag_98:\n      mload(0x40)\n      dup1\n      swap2\n      sub\n      swap1\n      revert\n    tag_97:\n        /* \"compound_3/MyDeFiProject.sol\":1496:1662  {... */\n      pop\n        /* \"compound_3/MyDeFiProject.sol\":1452:1662  function borrow(uint borrowAmount) external {... */\n      pop\n      jump\t// out\n        /* \"compound_3/MyDeFiProject.sol\":1034:1185  function redeem(uint cTokenAmount) external {... */\n    tag_42:\n        /* \"compound_3/MyDeFiProject.sol\":1088:1099  uint result */\n      0x00\n        /* \"compound_3/MyDeFiProject.sol\":1102:1108  cToken */\n      0x02\n      0x00\n      swap1\n      sload\n      swap1\n      0x0100\n      exp\n      swap1\n      div\n      0xffffffffffffffffffffffffffffffffffffffff\n      and\n        /* \"compound_3/MyDeFiProject.sol\":1102:1115  cToken.redeem */\n      0xffffffffffffffffffffffffffffffffffffffff\n      and\n      0xdb006a75\n        /* \"compound_3/MyDeFiProject.sol\":1116:1128  cTokenAmount */\n      dup4\n        /* \"compound_3/MyDeFiProject.sol\":1102:1129  cToken.redeem(cTokenAmount) */\n      mload(0x40)\n      dup3\n      0xffffffff\n      and\n      0xe0\n      shl\n      dup2\n      mstore\n      0x04\n      add\n      tag_101\n      swap2\n      swap1\n      tag_63\n      jump\t// in\n    tag_101:\n      0x20\n      mload(0x40)\n      dup1\n      dup4\n      sub\n      dup2\n      0x00\n      dup8\n      gas\n      call\n      iszero\n      dup1\n      iszero\n      tag_103\n      jumpi\n      returndatasize\n      0x00\n      dup1\n      returndatacopy\n      revert(0x00, returndatasize)\n    tag_103:\n      pop\n      pop\n      pop\n      pop\n      mload(0x40)\n      returndatasize\n      not(0x1f)\n      0x1f\n      dup3\n      add\n      and\n      dup3\n      add\n      dup1\n      0x40\n      mstore\n      pop\n      dup2\n      add\n      swap1\n      tag_104\n      swap2\n      swap1\n      tag_67\n      jump\t// in\n    tag_104:\n        /* \"compound_3/MyDeFiProject.sol\":1088:1129  uint result = cToken.redeem(cTokenAmount) */\n      swap1\n      pop\n        /* \"compound_3/MyDeFiProject.sol\":1157:1158  0 */\n      0x00\n        /* \"compound_3/MyDeFiProject.sol\":1147:1153  result */\n      dup2\n        /* \"compound_3/MyDeFiProject.sol\":1147:1158  result == 0 */\n      eq\n        /* \"compound_3/MyDeFiProject.sol\":1139:1178  require(result == 0, \"redeem() failed\") */\n      tag_105\n      jumpi\n      mload(0x40)\n      0x08c379a000000000000000000000000000000000000000000000000000000000\n      dup2\n      mstore\n      0x04\n      add\n      tag_106\n      swap1\n      tag_107\n      jump\t// in\n    tag_106:\n      mload(0x40)\n      dup1\n      swap2\n      sub\n      swap1\n      revert\n    tag_105:\n        /* \"compound_3/MyDeFiProject.sol\":1078:1185  {... */\n      pop\n        /* \"compound_3/MyDeFiProject.sol\":1034:1185  function redeem(uint cTokenAmount) external {... */\n      pop\n      jump\t// out\n        /* \"compound_3/MyDeFiProject.sol\":344:363  IERC20 public token */\n    tag_45:\n      0x01\n      0x00\n      swap1\n      sload\n      swap1\n      0x0100\n      exp\n      swap1\n      div\n      0xffffffffffffffffffffffffffffffffffffffff\n      and\n      dup2\n      jump\t// out\n        /* \"compound_3/MyDeFiProject.sol\":1191:1446  function enterMarket() external {... */\n    tag_50:\n        /* \"compound_3/MyDeFiProject.sol\":1233:1257  address[] memory markets */\n      0x00\n        /* \"compound_3/MyDeFiProject.sol\":1274:1275  1 */\n      0x01\n        /* \"compound_3/MyDeFiProject.sol\":1260:1276  new address[](1) */\n      0xffffffffffffffff\n      dup2\n      gt\n      iszero\n      tag_109\n      jumpi\n      tag_110\n      tag_111\n      jump\t// in\n    tag_110:\n    tag_109:\n      mload(0x40)\n      swap1\n      dup1\n      dup3\n      mstore\n      dup1\n      0x20\n      mul\n      0x20\n      add\n      dup3\n      add\n      0x40\n      mstore\n      dup1\n      iszero\n      tag_112\n      jumpi\n      dup2\n      0x20\n      add\n      0x20\n      dup3\n      mul\n      dup1\n      calldatasize\n      dup4\n      calldatacopy\n      dup1\n      dup3\n      add\n      swap2\n      pop\n      pop\n      swap1\n      pop\n    tag_112:\n      pop\n        /* \"compound_3/MyDeFiProject.sol\":1233:1276  address[] memory markets = new address[](1) */\n      swap1\n      pop\n        /* \"compound_3/MyDeFiProject.sol\":1307:1313  cToken */\n      0x02\n      0x00\n      swap1\n      sload\n      swap1\n      0x0100\n      exp\n      swap1\n      div\n      0xffffffffffffffffffffffffffffffffffffffff\n      and\n        /* \"compound_3/MyDeFiProject.sol\":1286:1293  markets */\n      dup2\n        /* \"compound_3/MyDeFiProject.sol\":1294:1295  0 */\n      0x00\n        /* \"compound_3/MyDeFiProject.sol\":1286:1296  markets[0] */\n      dup2\n      mload\n      dup2\n      lt\n      tag_113\n      jumpi\n      tag_114\n      tag_115\n      jump\t// in\n    tag_114:\n    tag_113:\n      0x20\n      mul\n      0x20\n      add\n      add\n        /* \"compound_3/MyDeFiProject.sol\":1286:1314  markets[0] = address(cToken) */\n      swap1\n      0xffffffffffffffffffffffffffffffffffffffff\n      and\n      swap1\n      dup2\n      0xffffffffffffffffffffffffffffffffffffffff\n      and\n      dup2\n      mstore\n      pop\n      pop\n        /* \"compound_3/MyDeFiProject.sol\":1324:1345  uint[] memory results */\n      0x00\n        /* \"compound_3/MyDeFiProject.sol\":1348:1359  comptroller */\n      dup1\n      0x00\n      swap1\n      sload\n      swap1\n      0x0100\n      exp\n      swap1\n      div\n      0xffffffffffffffffffffffffffffffffffffffff\n      and\n        /* \"compound_3/MyDeFiProject.sol\":1348:1372  comptroller.enterMarkets */\n      0xffffffffffffffffffffffffffffffffffffffff\n      and\n      0xc2998238\n        /* \"compound_3/MyDeFiProject.sol\":1373:1380  markets */\n      dup4\n        /* \"compound_3/MyDeFiProject.sol\":1348:1381  comptroller.enterMarkets(markets) */\n      mload(0x40)\n      dup3\n      0xffffffff\n      and\n      0xe0\n      shl\n      dup2\n      mstore\n      0x04\n      add\n      tag_116\n      swap2\n      swap1\n      tag_117\n      jump\t// in\n    tag_116:\n      0x00\n      mload(0x40)\n      dup1\n      dup4\n      sub\n      dup2\n      0x00\n      dup8\n      gas\n      call\n      iszero\n      dup1\n      iszero\n      tag_119\n      jumpi\n      returndatasize\n      0x00\n      dup1\n      returndatacopy\n      revert(0x00, returndatasize)\n    tag_119:\n      pop\n      pop\n      pop\n      pop\n      mload(0x40)\n      returndatasize\n      0x00\n      dup3\n      returndatacopy\n      returndatasize\n      not(0x1f)\n      0x1f\n      dup3\n      add\n      and\n      dup3\n      add\n      dup1\n      0x40\n      mstore\n      pop\n      dup2\n      add\n      swap1\n      tag_120\n      swap2\n      swap1\n      tag_121\n      jump\t// in\n    tag_120:\n        /* \"compound_3/MyDeFiProject.sol\":1324:1381  uint[] memory results = comptroller.enterMarkets(markets) */\n      swap1\n      pop\n        /* \"compound_3/MyDeFiProject.sol\":1413:1414  0 */\n      0x00\n        /* \"compound_3/MyDeFiProject.sol\":1399:1406  results */\n      dup2\n        /* \"compound_3/MyDeFiProject.sol\":1407:1408  0 */\n      0x00\n        /* \"compound_3/MyDeFiProject.sol\":1399:1409  results[0] */\n      dup2\n      mload\n      dup2\n      lt\n      tag_122\n      jumpi\n      tag_123\n      tag_115\n      jump\t// in\n    tag_123:\n    tag_122:\n      0x20\n      mul\n      0x20\n      add\n      add\n      mload\n        /* \"compound_3/MyDeFiProject.sol\":1399:1414  results[0] == 0 */\n      eq\n        /* \"compound_3/MyDeFiProject.sol\":1391:1439  require(results[0] == 0, \"enterMarket() failed\") */\n      tag_124\n      jumpi\n      mload(0x40)\n      0x08c379a000000000000000000000000000000000000000000000000000000000\n      dup2\n      mstore\n      0x04\n      add\n      tag_125\n      swap1\n      tag_126\n      jump\t// in\n    tag_125:\n      mload(0x40)\n      dup1\n      swap2\n      sub\n      swap1\n      revert\n    tag_124:\n        /* \"compound_3/MyDeFiProject.sol\":1223:1446  {... */\n      pop\n      pop\n        /* \"compound_3/MyDeFiProject.sol\":1191:1446  function enterMarket() external {... */\n      jump\t// out\n        /* \"#utility.yul\":7:82   */\n    tag_127:\n        /* \"#utility.yul\":40:46   */\n      0x00\n        /* \"#utility.yul\":73:75   */\n      0x40\n        /* \"#utility.yul\":67:76   */\n      mload\n        /* \"#utility.yul\":57:76   */\n      swap1\n      pop\n        /* \"#utility.yul\":7:82   */\n      swap1\n      jump\t// out\n        /* \"#utility.yul\":88:205   */\n    tag_128:\n        /* \"#utility.yul\":197:198   */\n      0x00\n        /* \"#utility.yul\":194:195   */\n      dup1\n        /* \"#utility.yul\":187:199   */\n      revert\n        /* \"#utility.yul\":211:328   */\n    tag_129:\n        /* \"#utility.yul\":320:321   */\n      0x00\n        /* \"#utility.yul\":317:318   */\n      dup1\n        /* \"#utility.yul\":310:322   */\n      revert\n        /* \"#utility.yul\":334:411   */\n    tag_130:\n        /* \"#utility.yul\":371:378   */\n      0x00\n        /* \"#utility.yul\":400:405   */\n      dup2\n        /* \"#utility.yul\":389:405   */\n      swap1\n      pop\n        /* \"#utility.yul\":334:411   */\n      swap2\n      swap1\n      pop\n      jump\t// out\n        /* \"#utility.yul\":417:539   */\n    tag_131:\n        /* \"#utility.yul\":490:514   */\n      tag_189\n        /* \"#utility.yul\":508:513   */\n      dup2\n        /* \"#utility.yul\":490:514   */\n      tag_130\n      jump\t// in\n    tag_189:\n        /* \"#utility.yul\":483:488   */\n      dup2\n        /* \"#utility.yul\":480:515   */\n      eq\n        /* \"#utility.yul\":470:533   */\n      tag_190\n      jumpi\n        /* \"#utility.yul\":529:530   */\n      0x00\n        /* \"#utility.yul\":526:527   */\n      dup1\n        /* \"#utility.yul\":519:531   */\n      revert\n        /* \"#utility.yul\":470:533   */\n    tag_190:\n        /* \"#utility.yul\":417:539   */\n      pop\n      jump\t// out\n        /* \"#utility.yul\":545:684   */\n    tag_132:\n        /* \"#utility.yul\":591:596   */\n      0x00\n        /* \"#utility.yul\":629:635   */\n      dup2\n        /* \"#utility.yul\":616:636   */\n      calldataload\n        /* \"#utility.yul\":607:636   */\n      swap1\n      pop\n        /* \"#utility.yul\":645:678   */\n      tag_192\n        /* \"#utility.yul\":672:677   */\n      dup2\n        /* \"#utility.yul\":645:678   */\n      tag_131\n      jump\t// in\n    tag_192:\n        /* \"#utility.yul\":545:684   */\n      swap3\n      swap2\n      pop\n      pop\n      jump\t// out\n        /* \"#utility.yul\":690:1019   */\n    tag_15:\n        /* \"#utility.yul\":749:755   */\n      0x00\n        /* \"#utility.yul\":798:800   */\n      0x20\n        /* \"#utility.yul\":786:795   */\n      dup3\n        /* \"#utility.yul\":777:784   */\n      dup5\n        /* \"#utility.yul\":773:796   */\n      sub\n        /* \"#utility.yul\":769:801   */\n      slt\n        /* \"#utility.yul\":766:885   */\n      iszero\n      tag_194\n      jumpi\n        /* \"#utility.yul\":804:883   */\n      tag_195\n      tag_128\n      jump\t// in\n    tag_195:\n        /* \"#utility.yul\":766:885   */\n    tag_194:\n        /* \"#utility.yul\":924:925   */\n      0x00\n        /* \"#utility.yul\":949:1002   */\n      tag_196\n        /* \"#utility.yul\":994:1001   */\n      dup5\n        /* \"#utility.yul\":985:991   */\n      dup3\n        /* \"#utility.yul\":974:983   */\n      dup6\n        /* \"#utility.yul\":970:992   */\n      add\n        /* \"#utility.yul\":949:1002   */\n      tag_132\n      jump\t// in\n    tag_196:\n        /* \"#utility.yul\":939:1002   */\n      swap2\n      pop\n        /* \"#utility.yul\":895:1012   */\n      pop\n        /* \"#utility.yul\":690:1019   */\n      swap3\n      swap2\n      pop\n      pop\n      jump\t// out\n        /* \"#utility.yul\":1025:1151   */\n    tag_133:\n        /* \"#utility.yul\":1062:1069   */\n      0x00\n        /* \"#utility.yul\":1102:1144   */\n      0xffffffffffffffffffffffffffffffffffffffff\n        /* \"#utility.yul\":1095:1100   */\n      dup3\n        /* \"#utility.yul\":1091:1145   */\n      and\n        /* \"#utility.yul\":1080:1145   */\n      swap1\n      pop\n        /* \"#utility.yul\":1025:1151   */\n      swap2\n      swap1\n      pop\n      jump\t// out\n        /* \"#utility.yul\":1157:1217   */\n    tag_134:\n        /* \"#utility.yul\":1185:1188   */\n      0x00\n        /* \"#utility.yul\":1206:1211   */\n      dup2\n        /* \"#utility.yul\":1199:1211   */\n      swap1\n      pop\n        /* \"#utility.yul\":1157:1217   */\n      swap2\n      swap1\n      pop\n      jump\t// out\n        /* \"#utility.yul\":1223:1365   */\n    tag_135:\n        /* \"#utility.yul\":1273:1282   */\n      0x00\n        /* \"#utility.yul\":1306:1359   */\n      tag_200\n        /* \"#utility.yul\":1324:1358   */\n      tag_201\n        /* \"#utility.yul\":1333:1357   */\n      tag_202\n        /* \"#utility.yul\":1351:1356   */\n      dup5\n        /* \"#utility.yul\":1333:1357   */\n      tag_133\n      jump\t// in\n    tag_202:\n        /* \"#utility.yul\":1324:1358   */\n      tag_134\n      jump\t// in\n    tag_201:\n        /* \"#utility.yul\":1306:1359   */\n      tag_133\n      jump\t// in\n    tag_200:\n        /* \"#utility.yul\":1293:1359   */\n      swap1\n      pop\n        /* \"#utility.yul\":1223:1365   */\n      swap2\n      swap1\n      pop\n      jump\t// out\n        /* \"#utility.yul\":1371:1497   */\n    tag_136:\n        /* \"#utility.yul\":1421:1430   */\n      0x00\n        /* \"#utility.yul\":1454:1491   */\n      tag_204\n        /* \"#utility.yul\":1485:1490   */\n      dup3\n        /* \"#utility.yul\":1454:1491   */\n      tag_135\n      jump\t// in\n    tag_204:\n        /* \"#utility.yul\":1441:1491   */\n      swap1\n      pop\n        /* \"#utility.yul\":1371:1497   */\n      swap2\n      swap1\n      pop\n      jump\t// out\n        /* \"#utility.yul\":1503:1657   */\n    tag_137:\n        /* \"#utility.yul\":1581:1590   */\n      0x00\n        /* \"#utility.yul\":1614:1651   */\n      tag_206\n        /* \"#utility.yul\":1645:1650   */\n      dup3\n        /* \"#utility.yul\":1614:1651   */\n      tag_136\n      jump\t// in\n    tag_206:\n        /* \"#utility.yul\":1601:1651   */\n      swap1\n      pop\n        /* \"#utility.yul\":1503:1657   */\n      swap2\n      swap1\n      pop\n      jump\t// out\n        /* \"#utility.yul\":1663:1850   */\n    tag_138:\n        /* \"#utility.yul\":1778:1843   */\n      tag_208\n        /* \"#utility.yul\":1837:1842   */\n      dup2\n        /* \"#utility.yul\":1778:1843   */\n      tag_137\n      jump\t// in\n    tag_208:\n        /* \"#utility.yul\":1773:1776   */\n      dup3\n        /* \"#utility.yul\":1766:1844   */\n      mstore\n        /* \"#utility.yul\":1663:1850   */\n      pop\n      pop\n      jump\t// out\n        /* \"#utility.yul\":1856:2134   */\n    tag_25:\n        /* \"#utility.yul\":1977:1981   */\n      0x00\n        /* \"#utility.yul\":2015:2017   */\n      0x20\n        /* \"#utility.yul\":2004:2013   */\n      dup3\n        /* \"#utility.yul\":2000:2018   */\n      add\n        /* \"#utility.yul\":1992:2018   */\n      swap1\n      pop\n        /* \"#utility.yul\":2028:2127   */\n      tag_210\n        /* \"#utility.yul\":2124:2125   */\n      0x00\n        /* \"#utility.yul\":2113:2122   */\n      dup4\n        /* \"#utility.yul\":2109:2126   */\n      add\n        /* \"#utility.yul\":2100:2106   */\n      dup5\n        /* \"#utility.yul\":2028:2127   */\n      tag_138\n      jump\t// in\n    tag_210:\n        /* \"#utility.yul\":1856:2134   */\n      swap3\n      swap2\n      pop\n      pop\n      jump\t// out\n        /* \"#utility.yul\":2140:2289   */\n    tag_139:\n        /* \"#utility.yul\":2213:2222   */\n      0x00\n        /* \"#utility.yul\":2246:2283   */\n      tag_212\n        /* \"#utility.yul\":2277:2282   */\n      dup3\n        /* \"#utility.yul\":2246:2283   */\n      tag_136\n      jump\t// in\n    tag_212:\n        /* \"#utility.yul\":2233:2283   */\n      swap1\n      pop\n        /* \"#utility.yul\":2140:2289   */\n      swap2\n      swap1\n      pop\n      jump\t// out\n        /* \"#utility.yul\":2295:2472   */\n    tag_140:\n        /* \"#utility.yul\":2405:2465   */\n      tag_214\n        /* \"#utility.yul\":2459:2464   */\n      dup2\n        /* \"#utility.yul\":2405:2465   */\n      tag_139\n      jump\t// in\n    tag_214:\n        /* \"#utility.yul\":2400:2403   */\n      dup3\n        /* \"#utility.yul\":2393:2466   */\n      mstore\n        /* \"#utility.yul\":2295:2472   */\n      pop\n      pop\n      jump\t// out\n        /* \"#utility.yul\":2478:2746   */\n    tag_30:\n        /* \"#utility.yul\":2594:2598   */\n      0x00\n        /* \"#utility.yul\":2632:2634   */\n      0x20\n        /* \"#utility.yul\":2621:2630   */\n      dup3\n        /* \"#utility.yul\":2617:2635   */\n      add\n        /* \"#utility.yul\":2609:2635   */\n      swap1\n      pop\n        /* \"#utility.yul\":2645:2739   */\n      tag_216\n        /* \"#utility.yul\":2736:2737   */\n      0x00\n        /* \"#utility.yul\":2725:2734   */\n      dup4\n        /* \"#utility.yul\":2721:2738   */\n      add\n        /* \"#utility.yul\":2712:2718   */\n      dup5\n        /* \"#utility.yul\":2645:2739   */\n      tag_140\n      jump\t// in\n    tag_216:\n        /* \"#utility.yul\":2478:2746   */\n      swap3\n      swap2\n      pop\n      pop\n      jump\t// out\n        /* \"#utility.yul\":2752:2856   */\n    tag_141:\n        /* \"#utility.yul\":2797:2804   */\n      0x00\n        /* \"#utility.yul\":2826:2850   */\n      tag_218\n        /* \"#utility.yul\":2844:2849   */\n      dup3\n        /* \"#utility.yul\":2826:2850   */\n      tag_133\n      jump\t// in\n    tag_218:\n        /* \"#utility.yul\":2815:2850   */\n      swap1\n      pop\n        /* \"#utility.yul\":2752:2856   */\n      swap2\n      swap1\n      pop\n      jump\t// out\n        /* \"#utility.yul\":2862:3000   */\n    tag_142:\n        /* \"#utility.yul\":2943:2975   */\n      tag_220\n        /* \"#utility.yul\":2969:2974   */\n      dup2\n        /* \"#utility.yul\":2943:2975   */\n      tag_141\n      jump\t// in\n    tag_220:\n        /* \"#utility.yul\":2936:2941   */\n      dup2\n        /* \"#utility.yul\":2933:2976   */\n      eq\n        /* \"#utility.yul\":2923:2994   */\n      tag_221\n      jumpi\n        /* \"#utility.yul\":2990:2991   */\n      0x00\n        /* \"#utility.yul\":2987:2988   */\n      dup1\n        /* \"#utility.yul\":2980:2992   */\n      revert\n        /* \"#utility.yul\":2923:2994   */\n    tag_221:\n        /* \"#utility.yul\":2862:3000   */\n      pop\n      jump\t// out\n        /* \"#utility.yul\":3006:3161   */\n    tag_143:\n        /* \"#utility.yul\":3060:3065   */\n      0x00\n        /* \"#utility.yul\":3098:3104   */\n      dup2\n        /* \"#utility.yul\":3085:3105   */\n      calldataload\n        /* \"#utility.yul\":3076:3105   */\n      swap1\n      pop\n        /* \"#utility.yul\":3114:3155   */\n      tag_223\n        /* \"#utility.yul\":3149:3154   */\n      dup2\n        /* \"#utility.yul\":3114:3155   */\n      tag_142\n      jump\t// in\n    tag_223:\n        /* \"#utility.yul\":3006:3161   */\n      swap3\n      swap2\n      pop\n      pop\n      jump\t// out\n        /* \"#utility.yul\":3167:3512   */\n    tag_33:\n        /* \"#utility.yul\":3234:3240   */\n      0x00\n        /* \"#utility.yul\":3283:3285   */\n      0x20\n        /* \"#utility.yul\":3271:3280   */\n      dup3\n        /* \"#utility.yul\":3262:3269   */\n      dup5\n        /* \"#utility.yul\":3258:3281   */\n      sub\n        /* \"#utility.yul\":3254:3286   */\n      slt\n        /* \"#utility.yul\":3251:3370   */\n      iszero\n      tag_225\n      jumpi\n        /* \"#utility.yul\":3289:3368   */\n      tag_226\n      tag_128\n      jump\t// in\n    tag_226:\n        /* \"#utility.yul\":3251:3370   */\n    tag_225:\n        /* \"#utility.yul\":3409:3410   */\n      0x00\n        /* \"#utility.yul\":3434:3495   */\n      tag_227\n        /* \"#utility.yul\":3487:3494   */\n      dup5\n        /* \"#utility.yul\":3478:3484   */\n      dup3\n        /* \"#utility.yul\":3467:3476   */\n      dup6\n        /* \"#utility.yul\":3463:3485   */\n      add\n        /* \"#utility.yul\":3434:3495   */\n      tag_143\n      jump\t// in\n    tag_227:\n        /* \"#utility.yul\":3424:3495   */\n      swap2\n      pop\n        /* \"#utility.yul\":3380:3505   */\n      pop\n        /* \"#utility.yul\":3167:3512   */\n      swap3\n      swap2\n      pop\n      pop\n      jump\t// out\n        /* \"#utility.yul\":3518:3657   */\n    tag_144:\n        /* \"#utility.yul\":3581:3590   */\n      0x00\n        /* \"#utility.yul\":3614:3651   */\n      tag_229\n        /* \"#utility.yul\":3645:3650   */\n      dup3\n        /* \"#utility.yul\":3614:3651   */\n      tag_136\n      jump\t// in\n    tag_229:\n        /* \"#utility.yul\":3601:3651   */\n      swap1\n      pop\n        /* \"#utility.yul\":3518:3657   */\n      swap2\n      swap1\n      pop\n      jump\t// out\n        /* \"#utility.yul\":3663:3820   */\n    tag_145:\n        /* \"#utility.yul\":3763:3813   */\n      tag_231\n        /* \"#utility.yul\":3807:3812   */\n      dup2\n        /* \"#utility.yul\":3763:3813   */\n      tag_144\n      jump\t// in\n    tag_231:\n        /* \"#utility.yul\":3758:3761   */\n      dup3\n        /* \"#utility.yul\":3751:3814   */\n      mstore\n        /* \"#utility.yul\":3663:3820   */\n      pop\n      pop\n      jump\t// out\n        /* \"#utility.yul\":3826:4074   */\n    tag_47:\n        /* \"#utility.yul\":3932:3936   */\n      0x00\n        /* \"#utility.yul\":3970:3972   */\n      0x20\n        /* \"#utility.yul\":3959:3968   */\n      dup3\n        /* \"#utility.yul\":3955:3973   */\n      add\n        /* \"#utility.yul\":3947:3973   */\n      swap1\n      pop\n        /* \"#utility.yul\":3983:4067   */\n      tag_233\n        /* \"#utility.yul\":4064:4065   */\n      0x00\n        /* \"#utility.yul\":4053:4062   */\n      dup4\n        /* \"#utility.yul\":4049:4066   */\n      add\n        /* \"#utility.yul\":4040:4046   */\n      dup5\n        /* \"#utility.yul\":3983:4067   */\n      tag_145\n      jump\t// in\n    tag_233:\n        /* \"#utility.yul\":3826:4074   */\n      swap3\n      swap2\n      pop\n      pop\n      jump\t// out\n        /* \"#utility.yul\":4080:4176   */\n    tag_146:\n        /* \"#utility.yul\":4117:4124   */\n      0x00\n        /* \"#utility.yul\":4146:4170   */\n      tag_235\n        /* \"#utility.yul\":4164:4169   */\n      dup3\n        /* \"#utility.yul\":4146:4170   */\n      tag_133\n      jump\t// in\n    tag_235:\n        /* \"#utility.yul\":4135:4170   */\n      swap1\n      pop\n        /* \"#utility.yul\":4080:4176   */\n      swap2\n      swap1\n      pop\n      jump\t// out\n        /* \"#utility.yul\":4182:4304   */\n    tag_147:\n        /* \"#utility.yul\":4255:4279   */\n      tag_237\n        /* \"#utility.yul\":4273:4278   */\n      dup2\n        /* \"#utility.yul\":4255:4279   */\n      tag_146\n      jump\t// in\n    tag_237:\n        /* \"#utility.yul\":4248:4253   */\n      dup2\n        /* \"#utility.yul\":4245:4280   */\n      eq\n        /* \"#utility.yul\":4235:4298   */\n      tag_238\n      jumpi\n        /* \"#utility.yul\":4294:4295   */\n      0x00\n        /* \"#utility.yul\":4291:4292   */\n      dup1\n        /* \"#utility.yul\":4284:4296   */\n      revert\n        /* \"#utility.yul\":4235:4298   */\n    tag_238:\n        /* \"#utility.yul\":4182:4304   */\n      pop\n      jump\t// out\n        /* \"#utility.yul\":4310:4453   */\n    tag_148:\n        /* \"#utility.yul\":4367:4372   */\n      0x00\n        /* \"#utility.yul\":4398:4404   */\n      dup2\n        /* \"#utility.yul\":4392:4405   */\n      mload\n        /* \"#utility.yul\":4383:4405   */\n      swap1\n      pop\n        /* \"#utility.yul\":4414:4447   */\n      tag_240\n        /* \"#utility.yul\":4441:4446   */\n      dup2\n        /* \"#utility.yul\":4414:4447   */\n      tag_147\n      jump\t// in\n    tag_240:\n        /* \"#utility.yul\":4310:4453   */\n      swap3\n      swap2\n      pop\n      pop\n      jump\t// out\n        /* \"#utility.yul\":4459:4810   */\n    tag_55:\n        /* \"#utility.yul\":4529:4535   */\n      0x00\n        /* \"#utility.yul\":4578:4580   */\n      0x20\n        /* \"#utility.yul\":4566:4575   */\n      dup3\n        /* \"#utility.yul\":4557:4564   */\n      dup5\n        /* \"#utility.yul\":4553:4576   */\n      sub\n        /* \"#utility.yul\":4549:4581   */\n      slt\n        /* \"#utility.yul\":4546:4665   */\n      iszero\n      tag_242\n      jumpi\n        /* \"#utility.yul\":4584:4663   */\n      tag_243\n      tag_128\n      jump\t// in\n    tag_243:\n        /* \"#utility.yul\":4546:4665   */\n    tag_242:\n        /* \"#utility.yul\":4704:4705   */\n      0x00\n        /* \"#utility.yul\":4729:4793   */\n      tag_244\n        /* \"#utility.yul\":4785:4792   */\n      dup5\n        /* \"#utility.yul\":4776:4782   */\n      dup3\n        /* \"#utility.yul\":4765:4774   */\n      dup6\n        /* \"#utility.yul\":4761:4783   */\n      add\n        /* \"#utility.yul\":4729:4793   */\n      tag_148\n      jump\t// in\n    tag_244:\n        /* \"#utility.yul\":4719:4793   */\n      swap2\n      pop\n        /* \"#utility.yul\":4675:4803   */\n      pop\n        /* \"#utility.yul\":4459:4810   */\n      swap3\n      swap2\n      pop\n      pop\n      jump\t// out\n        /* \"#utility.yul\":4816:4934   */\n    tag_149:\n        /* \"#utility.yul\":4903:4927   */\n      tag_246\n        /* \"#utility.yul\":4921:4926   */\n      dup2\n        /* \"#utility.yul\":4903:4927   */\n      tag_146\n      jump\t// in\n    tag_246:\n        /* \"#utility.yul\":4898:4901   */\n      dup3\n        /* \"#utility.yul\":4891:4928   */\n      mstore\n        /* \"#utility.yul\":4816:4934   */\n      pop\n      pop\n      jump\t// out\n        /* \"#utility.yul\":4940:5058   */\n    tag_150:\n        /* \"#utility.yul\":5027:5051   */\n      tag_248\n        /* \"#utility.yul\":5045:5050   */\n      dup2\n        /* \"#utility.yul\":5027:5051   */\n      tag_130\n      jump\t// in\n    tag_248:\n        /* \"#utility.yul\":5022:5025   */\n      dup3\n        /* \"#utility.yul\":5015:5052   */\n      mstore\n        /* \"#utility.yul\":4940:5058   */\n      pop\n      pop\n      jump\t// out\n        /* \"#utility.yul\":5064:5396   */\n    tag_57:\n        /* \"#utility.yul\":5185:5189   */\n      0x00\n        /* \"#utility.yul\":5223:5225   */\n      0x40\n        /* \"#utility.yul\":5212:5221   */\n      dup3\n        /* \"#utility.yul\":5208:5226   */\n      add\n        /* \"#utility.yul\":5200:5226   */\n      swap1\n      pop\n        /* \"#utility.yul\":5236:5307   */\n      tag_250\n        /* \"#utility.yul\":5304:5305   */\n      0x00\n        /* \"#utility.yul\":5293:5302   */\n      dup4\n        /* \"#utility.yul\":5289:5306   */\n      add\n        /* \"#utility.yul\":5280:5286   */\n      dup6\n        /* \"#utility.yul\":5236:5307   */\n      tag_149\n      jump\t// in\n    tag_250:\n        /* \"#utility.yul\":5317:5389   */\n      tag_251\n        /* \"#utility.yul\":5385:5387   */\n      0x20\n        /* \"#utility.yul\":5374:5383   */\n      dup4\n        /* \"#utility.yul\":5370:5388   */\n      add\n        /* \"#utility.yul\":5361:5367   */\n      dup5\n        /* \"#utility.yul\":5317:5389   */\n      tag_150\n      jump\t// in\n    tag_251:\n        /* \"#utility.yul\":5064:5396   */\n      swap4\n      swap3\n      pop\n      pop\n      pop\n      jump\t// out\n        /* \"#utility.yul\":5402:5492   */\n    tag_151:\n        /* \"#utility.yul\":5436:5443   */\n      0x00\n        /* \"#utility.yul\":5479:5484   */\n      dup2\n        /* \"#utility.yul\":5472:5485   */\n      iszero\n        /* \"#utility.yul\":5465:5486   */\n      iszero\n        /* \"#utility.yul\":5454:5486   */\n      swap1\n      pop\n        /* \"#utility.yul\":5402:5492   */\n      swap2\n      swap1\n      pop\n      jump\t// out\n        /* \"#utility.yul\":5498:5614   */\n    tag_152:\n        /* \"#utility.yul\":5568:5589   */\n      tag_254\n        /* \"#utility.yul\":5583:5588   */\n      dup2\n        /* \"#utility.yul\":5568:5589   */\n      tag_151\n      jump\t// in\n    tag_254:\n        /* \"#utility.yul\":5561:5566   */\n      dup2\n        /* \"#utility.yul\":5558:5590   */\n      eq\n        /* \"#utility.yul\":5548:5608   */\n      tag_255\n      jumpi\n        /* \"#utility.yul\":5604:5605   */\n      0x00\n        /* \"#utility.yul\":5601:5602   */\n      dup1\n        /* \"#utility.yul\":5594:5606   */\n      revert\n        /* \"#utility.yul\":5548:5608   */\n    tag_255:\n        /* \"#utility.yul\":5498:5614   */\n      pop\n      jump\t// out\n        /* \"#utility.yul\":5620:5757   */\n    tag_153:\n        /* \"#utility.yul\":5674:5679   */\n      0x00\n        /* \"#utility.yul\":5705:5711   */\n      dup2\n        /* \"#utility.yul\":5699:5712   */\n      mload\n        /* \"#utility.yul\":5690:5712   */\n      swap1\n      pop\n        /* \"#utility.yul\":5721:5751   */\n      tag_257\n        /* \"#utility.yul\":5745:5750   */\n      dup2\n        /* \"#utility.yul\":5721:5751   */\n      tag_152\n      jump\t// in\n    tag_257:\n        /* \"#utility.yul\":5620:5757   */\n      swap3\n      swap2\n      pop\n      pop\n      jump\t// out\n        /* \"#utility.yul\":5763:6108   */\n    tag_61:\n        /* \"#utility.yul\":5830:5836   */\n      0x00\n        /* \"#utility.yul\":5879:5881   */\n      0x20\n        /* \"#utility.yul\":5867:5876   */\n      dup3\n        /* \"#utility.yul\":5858:5865   */\n      dup5\n        /* \"#utility.yul\":5854:5877   */\n      sub\n        /* \"#utility.yul\":5850:5882   */\n      slt\n        /* \"#utility.yul\":5847:5966   */\n      iszero\n      tag_259\n      jumpi\n        /* \"#utility.yul\":5885:5964   */\n      tag_260\n      tag_128\n      jump\t// in\n    tag_260:\n        /* \"#utility.yul\":5847:5966   */\n    tag_259:\n        /* \"#utility.yul\":6005:6006   */\n      0x00\n        /* \"#utility.yul\":6030:6091   */\n      tag_261\n        /* \"#utility.yul\":6083:6090   */\n      dup5\n        /* \"#utility.yul\":6074:6080   */\n      dup3\n        /* \"#utility.yul\":6063:6072   */\n      dup6\n        /* \"#utility.yul\":6059:6081   */\n      add\n        /* \"#utility.yul\":6030:6091   */\n      tag_153\n      jump\t// in\n    tag_261:\n        /* \"#utility.yul\":6020:6091   */\n      swap2\n      pop\n        /* \"#utility.yul\":5976:6101   */\n      pop\n        /* \"#utility.yul\":5763:6108   */\n      swap3\n      swap2\n      pop\n      pop\n      jump\t// out\n        /* \"#utility.yul\":6114:6336   */\n    tag_63:\n        /* \"#utility.yul\":6207:6211   */\n      0x00\n        /* \"#utility.yul\":6245:6247   */\n      0x20\n        /* \"#utility.yul\":6234:6243   */\n      dup3\n        /* \"#utility.yul\":6230:6248   */\n      add\n        /* \"#utility.yul\":6222:6248   */\n      swap1\n      pop\n        /* \"#utility.yul\":6258:6329   */\n      tag_263\n        /* \"#utility.yul\":6326:6327   */\n      0x00\n        /* \"#utility.yul\":6315:6324   */\n      dup4\n        /* \"#utility.yul\":6311:6328   */\n      add\n        /* \"#utility.yul\":6302:6308   */\n      dup5\n        /* \"#utility.yul\":6258:6329   */\n      tag_150\n      jump\t// in\n    tag_263:\n        /* \"#utility.yul\":6114:6336   */\n      swap3\n      swap2\n      pop\n      pop\n      jump\t// out\n        /* \"#utility.yul\":6342:6485   */\n    tag_154:\n        /* \"#utility.yul\":6399:6404   */\n      0x00\n        /* \"#utility.yul\":6430:6436   */\n      dup2\n        /* \"#utility.yul\":6424:6437   */\n      mload\n        /* \"#utility.yul\":6415:6437   */\n      swap1\n      pop\n        /* \"#utility.yul\":6446:6479   */\n      tag_265\n        /* \"#utility.yul\":6473:6478   */\n      dup2\n        /* \"#utility.yul\":6446:6479   */\n      tag_131\n      jump\t// in\n    tag_265:\n        /* \"#utility.yul\":6342:6485   */\n      swap3\n      swap2\n      pop\n      pop\n      jump\t// out\n        /* \"#utility.yul\":6491:6842   */\n    tag_67:\n        /* \"#utility.yul\":6561:6567   */\n      0x00\n        /* \"#utility.yul\":6610:6612   */\n      0x20\n        /* \"#utility.yul\":6598:6607   */\n      dup3\n        /* \"#utility.yul\":6589:6596   */\n      dup5\n        /* \"#utility.yul\":6585:6608   */\n      sub\n        /* \"#utility.yul\":6581:6613   */\n      slt\n        /* \"#utility.yul\":6578:6697   */\n      iszero\n      tag_267\n      jumpi\n        /* \"#utility.yul\":6616:6695   */\n      tag_268\n      tag_128\n      jump\t// in\n    tag_268:\n        /* \"#utility.yul\":6578:6697   */\n    tag_267:\n        /* \"#utility.yul\":6736:6737   */\n      0x00\n        /* \"#utility.yul\":6761:6825   */\n      tag_269\n        /* \"#utility.yul\":6817:6824   */\n      dup5\n        /* \"#utility.yul\":6808:6814   */\n      dup3\n        /* \"#utility.yul\":6797:6806   */\n      dup6\n        /* \"#utility.yul\":6793:6815   */\n      add\n        /* \"#utility.yul\":6761:6825   */\n      tag_154\n      jump\t// in\n    tag_269:\n        /* \"#utility.yul\":6751:6825   */\n      swap2\n      pop\n        /* \"#utility.yul\":6707:6835   */\n      pop\n        /* \"#utility.yul\":6491:6842   */\n      swap3\n      swap2\n      pop\n      pop\n      jump\t// out\n        /* \"#utility.yul\":6848:7017   */\n    tag_155:\n        /* \"#utility.yul\":6932:6943   */\n      0x00\n        /* \"#utility.yul\":6966:6972   */\n      dup3\n        /* \"#utility.yul\":6961:6964   */\n      dup3\n        /* \"#utility.yul\":6954:6973   */\n      mstore\n        /* \"#utility.yul\":7006:7010   */\n      0x20\n        /* \"#utility.yul\":7001:7004   */\n      dup3\n        /* \"#utility.yul\":6997:7011   */\n      add\n        /* \"#utility.yul\":6982:7011   */\n      swap1\n      pop\n        /* \"#utility.yul\":6848:7017   */\n      swap3\n      swap2\n      pop\n      pop\n      jump\t// out\n        /* \"#utility.yul\":7023:7193   */\n    tag_156:\n        /* \"#utility.yul\":7163:7185   */\n      0x7265706179426f72726f772829206661696c6564000000000000000000000000\n        /* \"#utility.yul\":7159:7160   */\n      0x00\n        /* \"#utility.yul\":7151:7157   */\n      dup3\n        /* \"#utility.yul\":7147:7161   */\n      add\n        /* \"#utility.yul\":7140:7186   */\n      mstore\n        /* \"#utility.yul\":7023:7193   */\n      pop\n      jump\t// out\n        /* \"#utility.yul\":7199:7565   */\n    tag_157:\n        /* \"#utility.yul\":7341:7344   */\n      0x00\n        /* \"#utility.yul\":7362:7429   */\n      tag_273\n        /* \"#utility.yul\":7426:7428   */\n      0x14\n        /* \"#utility.yul\":7421:7424   */\n      dup4\n        /* \"#utility.yul\":7362:7429   */\n      tag_155\n      jump\t// in\n    tag_273:\n        /* \"#utility.yul\":7355:7429   */\n      swap2\n      pop\n        /* \"#utility.yul\":7438:7531   */\n      tag_274\n        /* \"#utility.yul\":7527:7530   */\n      dup3\n        /* \"#utility.yul\":7438:7531   */\n      tag_156\n      jump\t// in\n    tag_274:\n        /* \"#utility.yul\":7556:7558   */\n      0x20\n        /* \"#utility.yul\":7551:7554   */\n      dup3\n        /* \"#utility.yul\":7547:7559   */\n      add\n        /* \"#utility.yul\":7540:7559   */\n      swap1\n      pop\n        /* \"#utility.yul\":7199:7565   */\n      swap2\n      swap1\n      pop\n      jump\t// out\n        /* \"#utility.yul\":7571:7990   */\n    tag_70:\n        /* \"#utility.yul\":7737:7741   */\n      0x00\n        /* \"#utility.yul\":7775:7777   */\n      0x20\n        /* \"#utility.yul\":7764:7773   */\n      dup3\n        /* \"#utility.yul\":7760:7778   */\n      add\n        /* \"#utility.yul\":7752:7778   */\n      swap1\n      pop\n        /* \"#utility.yul\":7824:7833   */\n      dup2\n        /* \"#utility.yul\":7818:7822   */\n      dup2\n        /* \"#utility.yul\":7814:7834   */\n      sub\n        /* \"#utility.yul\":7810:7811   */\n      0x00\n        /* \"#utility.yul\":7799:7808   */\n      dup4\n        /* \"#utility.yul\":7795:7812   */\n      add\n        /* \"#utility.yul\":7788:7835   */\n      mstore\n        /* \"#utility.yul\":7852:7983   */\n      tag_276\n        /* \"#utility.yul\":7978:7982   */\n      dup2\n        /* \"#utility.yul\":7852:7983   */\n      tag_157\n      jump\t// in\n    tag_276:\n        /* \"#utility.yul\":7844:7983   */\n      swap1\n      pop\n        /* \"#utility.yul\":7571:7990   */\n      swap2\n      swap1\n      pop\n      jump\t// out\n        /* \"#utility.yul\":7996:8159   */\n    tag_158:\n        /* \"#utility.yul\":8136:8151   */\n      0x6d696e742829206661696c656400000000000000000000000000000000000000\n        /* \"#utility.yul\":8132:8133   */\n      0x00\n        /* \"#utility.yul\":8124:8130   */\n      dup3\n        /* \"#utility.yul\":8120:8134   */\n      add\n        /* \"#utility.yul\":8113:8152   */\n      mstore\n        /* \"#utility.yul\":7996:8159   */\n      pop\n      jump\t// out\n        /* \"#utility.yul\":8165:8531   */\n    tag_159:\n        /* \"#utility.yul\":8307:8310   */\n      0x00\n        /* \"#utility.yul\":8328:8395   */\n      tag_279\n        /* \"#utility.yul\":8392:8394   */\n      0x0d\n        /* \"#utility.yul\":8387:8390   */\n      dup4\n        /* \"#utility.yul\":8328:8395   */\n      tag_155\n      jump\t// in\n    tag_279:\n        /* \"#utility.yul\":8321:8395   */\n      swap2\n      pop\n        /* \"#utility.yul\":8404:8497   */\n      tag_280\n        /* \"#utility.yul\":8493:8496   */\n      dup3\n        /* \"#utility.yul\":8404:8497   */\n      tag_158\n      jump\t// in\n    tag_280:\n        /* \"#utility.yul\":8522:8524   */\n      0x20\n        /* \"#utility.yul\":8517:8520   */\n      dup3\n        /* \"#utility.yul\":8513:8525   */\n      add\n        /* \"#utility.yul\":8506:8525   */\n      swap1\n      pop\n        /* \"#utility.yul\":8165:8531   */\n      swap2\n      swap1\n      pop\n      jump\t// out\n        /* \"#utility.yul\":8537:8956   */\n    tag_85:\n        /* \"#utility.yul\":8703:8707   */\n      0x00\n        /* \"#utility.yul\":8741:8743   */\n      0x20\n        /* \"#utility.yul\":8730:8739   */\n      dup3\n        /* \"#utility.yul\":8726:8744   */\n      add\n        /* \"#utility.yul\":8718:8744   */\n      swap1\n      pop\n        /* \"#utility.yul\":8790:8799   */\n      dup2\n        /* \"#utility.yul\":8784:8788   */\n      dup2\n        /* \"#utility.yul\":8780:8800   */\n      sub\n        /* \"#utility.yul\":8776:8777   */\n      0x00\n        /* \"#utility.yul\":8765:8774   */\n      dup4\n        /* \"#utility.yul\":8761:8778   */\n      add\n        /* \"#utility.yul\":8754:8801   */\n      mstore\n        /* \"#utility.yul\":8818:8949   */\n      tag_282\n        /* \"#utility.yul\":8944:8948   */\n      dup2\n        /* \"#utility.yul\":8818:8949   */\n      tag_159\n      jump\t// in\n    tag_282:\n        /* \"#utility.yul\":8810:8949   */\n      swap1\n      pop\n        /* \"#utility.yul\":8537:8956   */\n      swap2\n      swap1\n      pop\n      jump\t// out\n        /* \"#utility.yul\":8962:9134   */\n    tag_160:\n        /* \"#utility.yul\":9102:9126   */\n      0x506c656173652073656e6420736f6d6520457468657200000000000000000000\n        /* \"#utility.yul\":9098:9099   */\n      0x00\n        /* \"#utility.yul\":9090:9096   */\n      dup3\n        /* \"#utility.yul\":9086:9100   */\n      add\n        /* \"#utility.yul\":9079:9127   */\n      mstore\n        /* \"#utility.yul\":8962:9134   */\n      pop\n      jump\t// out\n        /* \"#utility.yul\":9140:9506   */\n    tag_161:\n        /* \"#utility.yul\":9282:9285   */\n      0x00\n        /* \"#utility.yul\":9303:9370   */\n      tag_285\n        /* \"#utility.yul\":9367:9369   */\n      0x16\n        /* \"#utility.yul\":9362:9365   */\n      dup4\n        /* \"#utility.yul\":9303:9370   */\n      tag_155\n      jump\t// in\n    tag_285:\n        /* \"#utility.yul\":9296:9370   */\n      swap2\n      pop\n        /* \"#utility.yul\":9379:9472   */\n      tag_286\n        /* \"#utility.yul\":9468:9471   */\n      dup3\n        /* \"#utility.yul\":9379:9472   */\n      tag_160\n      jump\t// in\n    tag_286:\n        /* \"#utility.yul\":9497:9499   */\n      0x20\n        /* \"#utility.yul\":9492:9495   */\n      dup3\n        /* \"#utility.yul\":9488:9500   */\n      add\n        /* \"#utility.yul\":9481:9500   */\n      swap1\n      pop\n        /* \"#utility.yul\":9140:9506   */\n      swap2\n      swap1\n      pop\n      jump\t// out\n        /* \"#utility.yul\":9512:9931   */\n    tag_89:\n        /* \"#utility.yul\":9678:9682   */\n      0x00\n        /* \"#utility.yul\":9716:9718   */\n      0x20\n        /* \"#utility.yul\":9705:9714   */\n      dup3\n        /* \"#utility.yul\":9701:9719   */\n      add\n        /* \"#utility.yul\":9693:9719   */\n      swap1\n      pop\n        /* \"#utility.yul\":9765:9774   */\n      dup2\n        /* \"#utility.yul\":9759:9763   */\n      dup2\n        /* \"#utility.yul\":9755:9775   */\n      sub\n        /* \"#utility.yul\":9751:9752   */\n      0x00\n        /* \"#utility.yul\":9740:9749   */\n      dup4\n        /* \"#utility.yul\":9736:9753   */\n      add\n        /* \"#utility.yul\":9729:9776   */\n      mstore\n        /* \"#utility.yul\":9793:9924   */\n      tag_288\n        /* \"#utility.yul\":9919:9923   */\n      dup2\n        /* \"#utility.yul\":9793:9924   */\n      tag_161\n      jump\t// in\n    tag_288:\n        /* \"#utility.yul\":9785:9924   */\n      swap1\n      pop\n        /* \"#utility.yul\":9512:9931   */\n      swap2\n      swap1\n      pop\n      jump\t// out\n        /* \"#utility.yul\":9937:10102   */\n    tag_162:\n        /* \"#utility.yul\":10077:10094   */\n      0x626f72726f772829206661696c65640000000000000000000000000000000000\n        /* \"#utility.yul\":10073:10074   */\n      0x00\n        /* \"#utility.yul\":10065:10071   */\n      dup3\n        /* \"#utility.yul\":10061:10075   */\n      add\n        /* \"#utility.yul\":10054:10095   */\n      mstore\n        /* \"#utility.yul\":9937:10102   */\n      pop\n      jump\t// out\n        /* \"#utility.yul\":10108:10474   */\n    tag_163:\n        /* \"#utility.yul\":10250:10253   */\n      0x00\n        /* \"#utility.yul\":10271:10338   */\n      tag_291\n        /* \"#utility.yul\":10335:10337   */\n      0x0f\n        /* \"#utility.yul\":10330:10333   */\n      dup4\n        /* \"#utility.yul\":10271:10338   */\n      tag_155\n      jump\t// in\n    tag_291:\n        /* \"#utility.yul\":10264:10338   */\n      swap2\n      pop\n        /* \"#utility.yul\":10347:10440   */\n      tag_292\n        /* \"#utility.yul\":10436:10439   */\n      dup3\n        /* \"#utility.yul\":10347:10440   */\n      tag_162\n      jump\t// in\n    tag_292:\n        /* \"#utility.yul\":10465:10467   */\n      0x20\n        /* \"#utility.yul\":10460:10463   */\n      dup3\n        /* \"#utility.yul\":10456:10468   */\n      add\n        /* \"#utility.yul\":10449:10468   */\n      swap1\n      pop\n        /* \"#utility.yul\":10108:10474   */\n      swap2\n      swap1\n      pop\n      jump\t// out\n        /* \"#utility.yul\":10480:10899   */\n    tag_99:\n        /* \"#utility.yul\":10646:10650   */\n      0x00\n        /* \"#utility.yul\":10684:10686   */\n      0x20\n        /* \"#utility.yul\":10673:10682   */\n      dup3\n        /* \"#utility.yul\":10669:10687   */\n      add\n        /* \"#utility.yul\":10661:10687   */\n      swap1\n      pop\n        /* \"#utility.yul\":10733:10742   */\n      dup2\n        /* \"#utility.yul\":10727:10731   */\n      dup2\n        /* \"#utility.yul\":10723:10743   */\n      sub\n        /* \"#utility.yul\":10719:10720   */\n      0x00\n        /* \"#utility.yul\":10708:10717   */\n      dup4\n        /* \"#utility.yul\":10704:10721   */\n      add\n        /* \"#utility.yul\":10697:10744   */\n      mstore\n        /* \"#utility.yul\":10761:10892   */\n      tag_294\n        /* \"#utility.yul\":10887:10891   */\n      dup2\n        /* \"#utility.yul\":10761:10892   */\n      tag_163\n      jump\t// in\n    tag_294:\n        /* \"#utility.yul\":10753:10892   */\n      swap1\n      pop\n        /* \"#utility.yul\":10480:10899   */\n      swap2\n      swap1\n      pop\n      jump\t// out\n        /* \"#utility.yul\":10905:11070   */\n    tag_164:\n        /* \"#utility.yul\":11045:11062   */\n      0x72656465656d2829206661696c65640000000000000000000000000000000000\n        /* \"#utility.yul\":11041:11042   */\n      0x00\n        /* \"#utility.yul\":11033:11039   */\n      dup3\n        /* \"#utility.yul\":11029:11043   */\n      add\n        /* \"#utility.yul\":11022:11063   */\n      mstore\n        /* \"#utility.yul\":10905:11070   */\n      pop\n      jump\t// out\n        /* \"#utility.yul\":11076:11442   */\n    tag_165:\n        /* \"#utility.yul\":11218:11221   */\n      0x00\n        /* \"#utility.yul\":11239:11306   */\n      tag_297\n        /* \"#utility.yul\":11303:11305   */\n      0x0f\n        /* \"#utility.yul\":11298:11301   */\n      dup4\n        /* \"#utility.yul\":11239:11306   */\n      tag_155\n      jump\t// in\n    tag_297:\n        /* \"#utility.yul\":11232:11306   */\n      swap2\n      pop\n        /* \"#utility.yul\":11315:11408   */\n      tag_298\n        /* \"#utility.yul\":11404:11407   */\n      dup3\n        /* \"#utility.yul\":11315:11408   */\n      tag_164\n      jump\t// in\n    tag_298:\n        /* \"#utility.yul\":11433:11435   */\n      0x20\n        /* \"#utility.yul\":11428:11431   */\n      dup3\n        /* \"#utility.yul\":11424:11436   */\n      add\n        /* \"#utility.yul\":11417:11436   */\n      swap1\n      pop\n        /* \"#utility.yul\":11076:11442   */\n      swap2\n      swap1\n      pop\n      jump\t// out\n        /* \"#utility.yul\":11448:11867   */\n    tag_107:\n        /* \"#utility.yul\":11614:11618   */\n      0x00\n        /* \"#utility.yul\":11652:11654   */\n      0x20\n        /* \"#utility.yul\":11641:11650   */\n      dup3\n        /* \"#utility.yul\":11637:11655   */\n      add\n        /* \"#utility.yul\":11629:11655   */\n      swap1\n      pop\n        /* \"#utility.yul\":11701:11710   */\n      dup2\n        /* \"#utility.yul\":11695:11699   */\n      dup2\n        /* \"#utility.yul\":11691:11711   */\n      sub\n        /* \"#utility.yul\":11687:11688   */\n      0x00\n        /* \"#utility.yul\":11676:11685   */\n      dup4\n        /* \"#utility.yul\":11672:11689   */\n      add\n        /* \"#utility.yul\":11665:11712   */\n      mstore\n        /* \"#utility.yul\":11729:11860   */\n      tag_300\n        /* \"#utility.yul\":11855:11859   */\n      dup2\n        /* \"#utility.yul\":11729:11860   */\n      tag_165\n      jump\t// in\n    tag_300:\n        /* \"#utility.yul\":11721:11860   */\n      swap1\n      pop\n        /* \"#utility.yul\":11448:11867   */\n      swap2\n      swap1\n      pop\n      jump\t// out\n        /* \"#utility.yul\":11873:12053   */\n    tag_111:\n        /* \"#utility.yul\":11921:11998   */\n      0x4e487b7100000000000000000000000000000000000000000000000000000000\n        /* \"#utility.yul\":11918:11919   */\n      0x00\n        /* \"#utility.yul\":11911:11999   */\n      mstore\n        /* \"#utility.yul\":12018:12022   */\n      0x41\n        /* \"#utility.yul\":12015:12016   */\n      0x04\n        /* \"#utility.yul\":12008:12023   */\n      mstore\n        /* \"#utility.yul\":12042:12046   */\n      0x24\n        /* \"#utility.yul\":12039:12040   */\n      0x00\n        /* \"#utility.yul\":12032:12047   */\n      revert\n        /* \"#utility.yul\":12059:12239   */\n    tag_115:\n        /* \"#utility.yul\":12107:12184   */\n      0x4e487b7100000000000000000000000000000000000000000000000000000000\n        /* \"#utility.yul\":12104:12105   */\n      0x00\n        /* \"#utility.yul\":12097:12185   */\n      mstore\n        /* \"#utility.yul\":12204:12208   */\n      0x32\n        /* \"#utility.yul\":12201:12202   */\n      0x04\n        /* \"#utility.yul\":12194:12209   */\n      mstore\n        /* \"#utility.yul\":12228:12232   */\n      0x24\n        /* \"#utility.yul\":12225:12226   */\n      0x00\n        /* \"#utility.yul\":12218:12233   */\n      revert\n        /* \"#utility.yul\":12245:12359   */\n    tag_166:\n        /* \"#utility.yul\":12312:12318   */\n      0x00\n        /* \"#utility.yul\":12346:12351   */\n      dup2\n        /* \"#utility.yul\":12340:12352   */\n      mload\n        /* \"#utility.yul\":12330:12352   */\n      swap1\n      pop\n        /* \"#utility.yul\":12245:12359   */\n      swap2\n      swap1\n      pop\n      jump\t// out\n        /* \"#utility.yul\":12365:12549   */\n    tag_167:\n        /* \"#utility.yul\":12464:12475   */\n      0x00\n        /* \"#utility.yul\":12498:12504   */\n      dup3\n        /* \"#utility.yul\":12493:12496   */\n      dup3\n        /* \"#utility.yul\":12486:12505   */\n      mstore\n        /* \"#utility.yul\":12538:12542   */\n      0x20\n        /* \"#utility.yul\":12533:12536   */\n      dup3\n        /* \"#utility.yul\":12529:12543   */\n      add\n        /* \"#utility.yul\":12514:12543   */\n      swap1\n      pop\n        /* \"#utility.yul\":12365:12549   */\n      swap3\n      swap2\n      pop\n      pop\n      jump\t// out\n        /* \"#utility.yul\":12555:12687   */\n    tag_168:\n        /* \"#utility.yul\":12622:12626   */\n      0x00\n        /* \"#utility.yul\":12645:12648   */\n      dup2\n        /* \"#utility.yul\":12637:12648   */\n      swap1\n      pop\n        /* \"#utility.yul\":12675:12679   */\n      0x20\n        /* \"#utility.yul\":12670:12673   */\n      dup3\n        /* \"#utility.yul\":12666:12680   */\n      add\n        /* \"#utility.yul\":12658:12680   */\n      swap1\n      pop\n        /* \"#utility.yul\":12555:12687   */\n      swap2\n      swap1\n      pop\n      jump\t// out\n        /* \"#utility.yul\":12693:12801   */\n    tag_169:\n        /* \"#utility.yul\":12770:12794   */\n      tag_307\n        /* \"#utility.yul\":12788:12793   */\n      dup2\n        /* \"#utility.yul\":12770:12794   */\n      tag_146\n      jump\t// in\n    tag_307:\n        /* \"#utility.yul\":12765:12768   */\n      dup3\n        /* \"#utility.yul\":12758:12795   */\n      mstore\n        /* \"#utility.yul\":12693:12801   */\n      pop\n      pop\n      jump\t// out\n        /* \"#utility.yul\":12807:12986   */\n    tag_170:\n        /* \"#utility.yul\":12876:12886   */\n      0x00\n        /* \"#utility.yul\":12897:12943   */\n      tag_309\n        /* \"#utility.yul\":12939:12942   */\n      dup4\n        /* \"#utility.yul\":12931:12937   */\n      dup4\n        /* \"#utility.yul\":12897:12943   */\n      tag_169\n      jump\t// in\n    tag_309:\n        /* \"#utility.yul\":12975:12979   */\n      0x20\n        /* \"#utility.yul\":12970:12973   */\n      dup4\n        /* \"#utility.yul\":12966:12980   */\n      add\n        /* \"#utility.yul\":12952:12980   */\n      swap1\n      pop\n        /* \"#utility.yul\":12807:12986   */\n      swap3\n      swap2\n      pop\n      pop\n      jump\t// out\n        /* \"#utility.yul\":12992:13105   */\n    tag_171:\n        /* \"#utility.yul\":13062:13066   */\n      0x00\n        /* \"#utility.yul\":13094:13098   */\n      0x20\n        /* \"#utility.yul\":13089:13092   */\n      dup3\n        /* \"#utility.yul\":13085:13099   */\n      add\n        /* \"#utility.yul\":13077:13099   */\n      swap1\n      pop\n        /* \"#utility.yul\":12992:13105   */\n      swap2\n      swap1\n      pop\n      jump\t// out\n        /* \"#utility.yul\":13141:13873   */\n    tag_172:\n        /* \"#utility.yul\":13260:13263   */\n      0x00\n        /* \"#utility.yul\":13289:13343   */\n      tag_312\n        /* \"#utility.yul\":13337:13342   */\n      dup3\n        /* \"#utility.yul\":13289:13343   */\n      tag_166\n      jump\t// in\n    tag_312:\n        /* \"#utility.yul\":13359:13445   */\n      tag_313\n        /* \"#utility.yul\":13438:13444   */\n      dup2\n        /* \"#utility.yul\":13433:13436   */\n      dup6\n        /* \"#utility.yul\":13359:13445   */\n      tag_167\n      jump\t// in\n    tag_313:\n        /* \"#utility.yul\":13352:13445   */\n      swap4\n      pop\n        /* \"#utility.yul\":13469:13525   */\n      tag_314\n        /* \"#utility.yul\":13519:13524   */\n      dup4\n        /* \"#utility.yul\":13469:13525   */\n      tag_168\n      jump\t// in\n    tag_314:\n        /* \"#utility.yul\":13548:13555   */\n      dup1\n        /* \"#utility.yul\":13579:13580   */\n      0x00\n        /* \"#utility.yul\":13564:13848   */\n    tag_315:\n        /* \"#utility.yul\":13589:13595   */\n      dup4\n        /* \"#utility.yul\":13586:13587   */\n      dup2\n        /* \"#utility.yul\":13583:13596   */\n      lt\n        /* \"#utility.yul\":13564:13848   */\n      iszero\n      tag_317\n      jumpi\n        /* \"#utility.yul\":13665:13671   */\n      dup2\n        /* \"#utility.yul\":13659:13672   */\n      mload\n        /* \"#utility.yul\":13692:13755   */\n      tag_318\n        /* \"#utility.yul\":13751:13754   */\n      dup9\n        /* \"#utility.yul\":13736:13749   */\n      dup3\n        /* \"#utility.yul\":13692:13755   */\n      tag_170\n      jump\t// in\n    tag_318:\n        /* \"#utility.yul\":13685:13755   */\n      swap8\n      pop\n        /* \"#utility.yul\":13778:13838   */\n      tag_319\n        /* \"#utility.yul\":13831:13837   */\n      dup4\n        /* \"#utility.yul\":13778:13838   */\n      tag_171\n      jump\t// in\n    tag_319:\n        /* \"#utility.yul\":13768:13838   */\n      swap3\n      pop\n        /* \"#utility.yul\":13624:13848   */\n      pop\n        /* \"#utility.yul\":13611:13612   */\n      0x01\n        /* \"#utility.yul\":13608:13609   */\n      dup2\n        /* \"#utility.yul\":13604:13613   */\n      add\n        /* \"#utility.yul\":13599:13613   */\n      swap1\n      pop\n        /* \"#utility.yul\":13564:13848   */\n      jump(tag_315)\n    tag_317:\n        /* \"#utility.yul\":13568:13582   */\n      pop\n        /* \"#utility.yul\":13864:13867   */\n      dup6\n        /* \"#utility.yul\":13857:13867   */\n      swap4\n      pop\n        /* \"#utility.yul\":13265:13873   */\n      pop\n      pop\n      pop\n        /* \"#utility.yul\":13141:13873   */\n      swap3\n      swap2\n      pop\n      pop\n      jump\t// out\n        /* \"#utility.yul\":13879:14252   */\n    tag_117:\n        /* \"#utility.yul\":14022:14026   */\n      0x00\n        /* \"#utility.yul\":14060:14062   */\n      0x20\n        /* \"#utility.yul\":14049:14058   */\n      dup3\n        /* \"#utility.yul\":14045:14063   */\n      add\n        /* \"#utility.yul\":14037:14063   */\n      swap1\n      pop\n        /* \"#utility.yul\":14109:14118   */\n      dup2\n        /* \"#utility.yul\":14103:14107   */\n      dup2\n        /* \"#utility.yul\":14099:14119   */\n      sub\n        /* \"#utility.yul\":14095:14096   */\n      0x00\n        /* \"#utility.yul\":14084:14093   */\n      dup4\n        /* \"#utility.yul\":14080:14097   */\n      add\n        /* \"#utility.yul\":14073:14120   */\n      mstore\n        /* \"#utility.yul\":14137:14245   */\n      tag_321\n        /* \"#utility.yul\":14240:14244   */\n      dup2\n        /* \"#utility.yul\":14231:14237   */\n      dup5\n        /* \"#utility.yul\":14137:14245   */\n      tag_172\n      jump\t// in\n    tag_321:\n        /* \"#utility.yul\":14129:14245   */\n      swap1\n      pop\n        /* \"#utility.yul\":13879:14252   */\n      swap3\n      swap2\n      pop\n      pop\n      jump\t// out\n        /* \"#utility.yul\":14258:14375   */\n    tag_173:\n        /* \"#utility.yul\":14367:14368   */\n      0x00\n        /* \"#utility.yul\":14364:14365   */\n      dup1\n        /* \"#utility.yul\":14357:14369   */\n      revert\n        /* \"#utility.yul\":14381:14483   */\n    tag_174:\n        /* \"#utility.yul\":14422:14428   */\n      0x00\n        /* \"#utility.yul\":14473:14475   */\n      0x1f\n        /* \"#utility.yul\":14469:14476   */\n      not\n        /* \"#utility.yul\":14464:14466   */\n      0x1f\n        /* \"#utility.yul\":14457:14462   */\n      dup4\n        /* \"#utility.yul\":14453:14467   */\n      add\n        /* \"#utility.yul\":14449:14477   */\n      and\n        /* \"#utility.yul\":14439:14477   */\n      swap1\n      pop\n        /* \"#utility.yul\":14381:14483   */\n      swap2\n      swap1\n      pop\n      jump\t// out\n        /* \"#utility.yul\":14489:14770   */\n    tag_175:\n        /* \"#utility.yul\":14572:14599   */\n      tag_325\n        /* \"#utility.yul\":14594:14598   */\n      dup3\n        /* \"#utility.yul\":14572:14599   */\n      tag_174\n      jump\t// in\n    tag_325:\n        /* \"#utility.yul\":14564:14570   */\n      dup2\n        /* \"#utility.yul\":14560:14600   */\n      add\n        /* \"#utility.yul\":14702:14708   */\n      dup2\n        /* \"#utility.yul\":14690:14700   */\n      dup2\n        /* \"#utility.yul\":14687:14709   */\n      lt\n        /* \"#utility.yul\":14666:14684   */\n      0xffffffffffffffff\n        /* \"#utility.yul\":14654:14664   */\n      dup3\n        /* \"#utility.yul\":14651:14685   */\n      gt\n        /* \"#utility.yul\":14648:14710   */\n      or\n        /* \"#utility.yul\":14645:14733   */\n      iszero\n      tag_326\n      jumpi\n        /* \"#utility.yul\":14713:14731   */\n      tag_327\n      tag_111\n      jump\t// in\n    tag_327:\n        /* \"#utility.yul\":14645:14733   */\n    tag_326:\n        /* \"#utility.yul\":14753:14763   */\n      dup1\n        /* \"#utility.yul\":14749:14751   */\n      0x40\n        /* \"#utility.yul\":14742:14764   */\n      mstore\n        /* \"#utility.yul\":14532:14770   */\n      pop\n        /* \"#utility.yul\":14489:14770   */\n      pop\n      pop\n      jump\t// out\n        /* \"#utility.yul\":14776:14905   */\n    tag_176:\n        /* \"#utility.yul\":14810:14816   */\n      0x00\n        /* \"#utility.yul\":14837:14857   */\n      tag_329\n      tag_127\n      jump\t// in\n    tag_329:\n        /* \"#utility.yul\":14827:14857   */\n      swap1\n      pop\n        /* \"#utility.yul\":14866:14899   */\n      tag_330\n        /* \"#utility.yul\":14894:14898   */\n      dup3\n        /* \"#utility.yul\":14886:14892   */\n      dup3\n        /* \"#utility.yul\":14866:14899   */\n      tag_175\n      jump\t// in\n    tag_330:\n        /* \"#utility.yul\":14776:14905   */\n      swap2\n      swap1\n      pop\n      jump\t// out\n        /* \"#utility.yul\":14911:15222   */\n    tag_177:\n        /* \"#utility.yul\":14988:14992   */\n      0x00\n        /* \"#utility.yul\":15078:15096   */\n      0xffffffffffffffff\n        /* \"#utility.yul\":15070:15076   */\n      dup3\n        /* \"#utility.yul\":15067:15097   */\n      gt\n        /* \"#utility.yul\":15064:15120   */\n      iszero\n      tag_332\n      jumpi\n        /* \"#utility.yul\":15100:15118   */\n      tag_333\n      tag_111\n      jump\t// in\n    tag_333:\n        /* \"#utility.yul\":15064:15120   */\n    tag_332:\n        /* \"#utility.yul\":15150:15154   */\n      0x20\n        /* \"#utility.yul\":15142:15148   */\n      dup3\n        /* \"#utility.yul\":15138:15155   */\n      mul\n        /* \"#utility.yul\":15130:15155   */\n      swap1\n      pop\n        /* \"#utility.yul\":15210:15214   */\n      0x20\n        /* \"#utility.yul\":15204:15208   */\n      dup2\n        /* \"#utility.yul\":15200:15215   */\n      add\n        /* \"#utility.yul\":15192:15215   */\n      swap1\n      pop\n        /* \"#utility.yul\":14911:15222   */\n      swap2\n      swap1\n      pop\n      jump\t// out\n        /* \"#utility.yul\":15228:15345   */\n    tag_178:\n        /* \"#utility.yul\":15337:15338   */\n      0x00\n        /* \"#utility.yul\":15334:15335   */\n      dup1\n        /* \"#utility.yul\":15327:15339   */\n      revert\n        /* \"#utility.yul\":15368:16100   */\n    tag_179:\n        /* \"#utility.yul\":15475:15480   */\n      0x00\n        /* \"#utility.yul\":15500:15581   */\n      tag_336\n        /* \"#utility.yul\":15516:15580   */\n      tag_337\n        /* \"#utility.yul\":15573:15579   */\n      dup5\n        /* \"#utility.yul\":15516:15580   */\n      tag_177\n      jump\t// in\n    tag_337:\n        /* \"#utility.yul\":15500:15581   */\n      tag_176\n      jump\t// in\n    tag_336:\n        /* \"#utility.yul\":15491:15581   */\n      swap1\n      pop\n        /* \"#utility.yul\":15601:15606   */\n      dup1\n        /* \"#utility.yul\":15630:15636   */\n      dup4\n        /* \"#utility.yul\":15623:15628   */\n      dup3\n        /* \"#utility.yul\":15616:15637   */\n      mstore\n        /* \"#utility.yul\":15664:15668   */\n      0x20\n        /* \"#utility.yul\":15657:15662   */\n      dup3\n        /* \"#utility.yul\":15653:15669   */\n      add\n        /* \"#utility.yul\":15646:15669   */\n      swap1\n      pop\n        /* \"#utility.yul\":15717:15721   */\n      0x20\n        /* \"#utility.yul\":15709:15715   */\n      dup5\n        /* \"#utility.yul\":15705:15722   */\n      mul\n        /* \"#utility.yul\":15697:15703   */\n      dup4\n        /* \"#utility.yul\":15693:15723   */\n      add\n        /* \"#utility.yul\":15746:15749   */\n      dup6\n        /* \"#utility.yul\":15738:15744   */\n      dup2\n        /* \"#utility.yul\":15735:15750   */\n      gt\n        /* \"#utility.yul\":15732:15854   */\n      iszero\n      tag_338\n      jumpi\n        /* \"#utility.yul\":15765:15844   */\n      tag_339\n      tag_178\n      jump\t// in\n    tag_339:\n        /* \"#utility.yul\":15732:15854   */\n    tag_338:\n        /* \"#utility.yul\":15880:15886   */\n      dup4\n        /* \"#utility.yul\":15863:16094   */\n    tag_340:\n        /* \"#utility.yul\":15897:15903   */\n      dup2\n        /* \"#utility.yul\":15892:15895   */\n      dup2\n        /* \"#utility.yul\":15889:15904   */\n      lt\n        /* \"#utility.yul\":15863:16094   */\n      iszero\n      tag_342\n      jumpi\n        /* \"#utility.yul\":15972:15975   */\n      dup1\n        /* \"#utility.yul\":16001:16049   */\n      tag_343\n        /* \"#utility.yul\":16045:16048   */\n      dup9\n        /* \"#utility.yul\":16033:16043   */\n      dup3\n        /* \"#utility.yul\":16001:16049   */\n      tag_154\n      jump\t// in\n    tag_343:\n        /* \"#utility.yul\":15996:15999   */\n      dup5\n        /* \"#utility.yul\":15989:16050   */\n      mstore\n        /* \"#utility.yul\":16079:16083   */\n      0x20\n        /* \"#utility.yul\":16074:16077   */\n      dup5\n        /* \"#utility.yul\":16070:16084   */\n      add\n        /* \"#utility.yul\":16063:16084   */\n      swap4\n      pop\n        /* \"#utility.yul\":15939:16094   */\n      pop\n        /* \"#utility.yul\":15923:15927   */\n      0x20\n        /* \"#utility.yul\":15918:15921   */\n      dup2\n        /* \"#utility.yul\":15914:15928   */\n      add\n        /* \"#utility.yul\":15907:15928   */\n      swap1\n      pop\n        /* \"#utility.yul\":15863:16094   */\n      jump(tag_340)\n    tag_342:\n        /* \"#utility.yul\":15867:15888   */\n      pop\n        /* \"#utility.yul\":15481:16100   */\n      pop\n      pop\n        /* \"#utility.yul\":15368:16100   */\n      swap4\n      swap3\n      pop\n      pop\n      pop\n      jump\t// out\n        /* \"#utility.yul\":16123:16508   */\n    tag_180:\n        /* \"#utility.yul\":16205:16210   */\n      0x00\n        /* \"#utility.yul\":16254:16257   */\n      dup3\n        /* \"#utility.yul\":16247:16251   */\n      0x1f\n        /* \"#utility.yul\":16239:16245   */\n      dup4\n        /* \"#utility.yul\":16235:16252   */\n      add\n        /* \"#utility.yul\":16231:16258   */\n      slt\n        /* \"#utility.yul\":16221:16343   */\n      tag_345\n      jumpi\n        /* \"#utility.yul\":16262:16341   */\n      tag_346\n      tag_173\n      jump\t// in\n    tag_346:\n        /* \"#utility.yul\":16221:16343   */\n    tag_345:\n        /* \"#utility.yul\":16372:16378   */\n      dup2\n        /* \"#utility.yul\":16366:16379   */\n      mload\n        /* \"#utility.yul\":16397:16502   */\n      tag_347\n        /* \"#utility.yul\":16498:16501   */\n      dup5\n        /* \"#utility.yul\":16490:16496   */\n      dup3\n        /* \"#utility.yul\":16483:16487   */\n      0x20\n        /* \"#utility.yul\":16475:16481   */\n      dup7\n        /* \"#utility.yul\":16471:16488   */\n      add\n        /* \"#utility.yul\":16397:16502   */\n      tag_179\n      jump\t// in\n    tag_347:\n        /* \"#utility.yul\":16388:16502   */\n      swap2\n      pop\n        /* \"#utility.yul\":16211:16508   */\n      pop\n        /* \"#utility.yul\":16123:16508   */\n      swap3\n      swap2\n      pop\n      pop\n      jump\t// out\n        /* \"#utility.yul\":16514:17068   */\n    tag_121:\n        /* \"#utility.yul\":16609:16615   */\n      0x00\n        /* \"#utility.yul\":16658:16660   */\n      0x20\n        /* \"#utility.yul\":16646:16655   */\n      dup3\n        /* \"#utility.yul\":16637:16644   */\n      dup5\n        /* \"#utility.yul\":16633:16656   */\n      sub\n        /* \"#utility.yul\":16629:16661   */\n      slt\n        /* \"#utility.yul\":16626:16745   */\n      iszero\n      tag_349\n      jumpi\n        /* \"#utility.yul\":16664:16743   */\n      tag_350\n      tag_128\n      jump\t// in\n    tag_350:\n        /* \"#utility.yul\":16626:16745   */\n    tag_349:\n        /* \"#utility.yul\":16805:16806   */\n      0x00\n        /* \"#utility.yul\":16794:16803   */\n      dup3\n        /* \"#utility.yul\":16790:16807   */\n      add\n        /* \"#utility.yul\":16784:16808   */\n      mload\n        /* \"#utility.yul\":16835:16853   */\n      0xffffffffffffffff\n        /* \"#utility.yul\":16827:16833   */\n      dup2\n        /* \"#utility.yul\":16824:16854   */\n      gt\n        /* \"#utility.yul\":16821:16938   */\n      iszero\n      tag_351\n      jumpi\n        /* \"#utility.yul\":16857:16936   */\n      tag_352\n      tag_129\n      jump\t// in\n    tag_352:\n        /* \"#utility.yul\":16821:16938   */\n    tag_351:\n        /* \"#utility.yul\":16962:17051   */\n      tag_353\n        /* \"#utility.yul\":17043:17050   */\n      dup5\n        /* \"#utility.yul\":17034:17040   */\n      dup3\n        /* \"#utility.yul\":17023:17032   */\n      dup6\n        /* \"#utility.yul\":17019:17041   */\n      add\n        /* \"#utility.yul\":16962:17051   */\n      tag_180\n      jump\t// in\n    tag_353:\n        /* \"#utility.yul\":16952:17051   */\n      swap2\n      pop\n        /* \"#utility.yul\":16755:17061   */\n      pop\n        /* \"#utility.yul\":16514:17068   */\n      swap3\n      swap2\n      pop\n      pop\n      jump\t// out\n        /* \"#utility.yul\":17074:17244   */\n    tag_181:\n        /* \"#utility.yul\":17214:17236   */\n      0x656e7465724d61726b65742829206661696c6564000000000000000000000000\n        /* \"#utility.yul\":17210:17211   */\n      0x00\n        /* \"#utility.yul\":17202:17208   */\n      dup3\n        /* \"#utility.yul\":17198:17212   */\n      add\n        /* \"#utility.yul\":17191:17237   */\n      mstore\n        /* \"#utility.yul\":17074:17244   */\n      pop\n      jump\t// out\n        /* \"#utility.yul\":17250:17616   */\n    tag_182:\n        /* \"#utility.yul\":17392:17395   */\n      0x00\n        /* \"#utility.yul\":17413:17480   */\n      tag_356\n        /* \"#utility.yul\":17477:17479   */\n      0x14\n        /* \"#utility.yul\":17472:17475   */\n      dup4\n        /* \"#utility.yul\":17413:17480   */\n      tag_155\n      jump\t// in\n    tag_356:\n        /* \"#utility.yul\":17406:17480   */\n      swap2\n      pop\n        /* \"#utility.yul\":17489:17582   */\n      tag_357\n        /* \"#utility.yul\":17578:17581   */\n      dup3\n        /* \"#utility.yul\":17489:17582   */\n      tag_181\n      jump\t// in\n    tag_357:\n        /* \"#utility.yul\":17607:17609   */\n      0x20\n        /* \"#utility.yul\":17602:17605   */\n      dup3\n        /* \"#utility.yul\":17598:17610   */\n      add\n        /* \"#utility.yul\":17591:17610   */\n      swap1\n      pop\n        /* \"#utility.yul\":17250:17616   */\n      swap2\n      swap1\n      pop\n      jump\t// out\n        /* \"#utility.yul\":17622:18041   */\n    tag_126:\n        /* \"#utility.yul\":17788:17792   */\n      0x00\n        /* \"#utility.yul\":17826:17828   */\n      0x20\n        /* \"#utility.yul\":17815:17824   */\n      dup3\n        /* \"#utility.yul\":17811:17829   */\n      add\n        /* \"#utility.yul\":17803:17829   */\n      swap1\n      pop\n        /* \"#utility.yul\":17875:17884   */\n      dup2\n        /* \"#utility.yul\":17869:17873   */\n      dup2\n        /* \"#utility.yul\":17865:17885   */\n      sub\n        /* \"#utility.yul\":17861:17862   */\n      0x00\n        /* \"#utility.yul\":17850:17859   */\n      dup4\n        /* \"#utility.yul\":17846:17863   */\n      add\n        /* \"#utility.yul\":17839:17886   */\n      mstore\n        /* \"#utility.yul\":17903:18034   */\n      tag_359\n        /* \"#utility.yul\":18029:18033   */\n      dup2\n        /* \"#utility.yul\":17903:18034   */\n      tag_182\n      jump\t// in\n    tag_359:\n        /* \"#utility.yul\":17895:18034   */\n      swap1\n      pop\n        /* \"#utility.yul\":17622:18041   */\n      swap2\n      swap1\n      pop\n      jump\t// out\n\n    auxdata: 0xa264697066735822122075024e4131369309ebdf861d3184a09b31faeaad3f31862e03994f0edec1337d64736f6c63430008120033\n}\n",
				"bytecode": {
					"linkReferences": {},
					"object": "60806040523480156200001157600080fd5b50604051620015793803806200157983398181016040528101906200003791906200016c565b826000806101000a81548173ffffffffffffffffffffffffffffffffffffffff021916908373ffffffffffffffffffffffffffffffffffffffff16021790555080600260006101000a81548173ffffffffffffffffffffffffffffffffffffffff021916908373ffffffffffffffffffffffffffffffffffffffff16021790555081600160006101000a81548173ffffffffffffffffffffffffffffffffffffffff021916908373ffffffffffffffffffffffffffffffffffffffff160217905550505050620001c8565b600080fd5b600073ffffffffffffffffffffffffffffffffffffffff82169050919050565b6000620001348262000107565b9050919050565b620001468162000127565b81146200015257600080fd5b50565b60008151905062000166816200013b565b92915050565b60008060006060848603121562000188576200018762000102565b5b6000620001988682870162000155565b9350506020620001ab8682870162000155565b9250506040620001be8682870162000155565b9150509250925092565b6113a180620001d86000396000f3fe6080604052600436106100865760003560e01c80636b55e991116100595780636b55e99114610133578063c5ebeaec1461014f578063db006a7514610178578063fc0c546a146101a1578063fd5bfb54146101cc57610086565b80630e7527021461008b57806335403023146100b45780635fe3b567146100dd57806369e527da14610108575b600080fd5b34801561009757600080fd5b506100b260048036038101906100ad9190610b03565b6101e3565b005b3480156100c057600080fd5b506100db60048036038101906100d69190610b03565b610403565b005b3480156100e957600080fd5b506100f2610623565b6040516100ff9190610baf565b60405180910390f35b34801561011457600080fd5b5061011d610647565b60405161012a9190610beb565b60405180910390f35b61014d60048036038101906101489190610c44565b61066d565b005b34801561015b57600080fd5b5061017660048036038101906101719190610b03565b6106fa565b005b34801561018457600080fd5b5061019f600480360381019061019a9190610b03565b6107e3565b005b3480156101ad57600080fd5b506101b66108cc565b6040516101c39190610c92565b60405180910390f35b3480156101d857600080fd5b506101e16108f2565b005b6000600260009054906101000a900473ffffffffffffffffffffffffffffffffffffffff1673ffffffffffffffffffffffffffffffffffffffff16636f307dc36040518163ffffffff1660e01b8152600401602060405180830381865afa158015610252573d6000803e3d6000fd5b505050506040513d601f19601f820116820180604052508101906102769190610ceb565b90508073ffffffffffffffffffffffffffffffffffffffff1663095ea7b3600260009054906101000a900473ffffffffffffffffffffffffffffffffffffffff16846040518363ffffffff1660e01b81526004016102d5929190610d36565b6020604051808303816000875af11580156102f4573d6000803e3d6000fd5b505050506040513d601f19601f820116820180604052508101906103189190610d97565b506000600260009054906101000a900473ffffffffffffffffffffffffffffffffffffffff1673ffffffffffffffffffffffffffffffffffffffff16630e752702846040518263ffffffff1660e01b81526004016103769190610dc4565b6020604051808303816000875af1158015610395573d6000803e3d6000fd5b505050506040513d601f19601f820116820180604052508101906103b99190610df4565b9050600081146103fe576040517f08c379a00000000000000000000000000000000000000000000000000000000081526004016103f590610e7e565b60405180910390fd5b505050565b6000600260009054906101000a900473ffffffffffffffffffffffffffffffffffffffff1673ffffffffffffffffffffffffffffffffffffffff16636f307dc36040518163ffffffff1660e01b8152600401602060405180830381865afa158015610472573d6000803e3d6000fd5b505050506040513d601f19601f820116820180604052508101906104969190610ceb565b90508073ffffffffffffffffffffffffffffffffffffffff1663095ea7b3600260009054906101000a900473ffffffffffffffffffffffffffffffffffffffff16846040518363ffffffff1660e01b81526004016104f5929190610d36565b6020604051808303816000875af1158015610514573d6000803e3d6000fd5b505050506040513d601f19601f820116820180604052508101906105389190610d97565b506000600260009054906101000a900473ffffffffffffffffffffffffffffffffffffffff1673ffffffffffffffffffffffffffffffffffffffff1663a0712d68846040518263ffffffff1660e01b81526004016105969190610dc4565b6020604051808303816000875af11580156105b5573d6000803e3d6000fd5b505050506040513d601f19601f820116820180604052508101906105d99190610df4565b90506000811461061e576040517f08c379a000000000000000000000000000000000000000000000000000000000815260040161061590610eea565b60405180910390fd5b505050565b60008054906101000a900473ffffffffffffffffffffffffffffffffffffffff1681565b600260009054906101000a900473ffffffffffffffffffffffffffffffffffffffff1681565b600034116106b0576040517f08c379a00000000000000000000000000000000000000000000000000000000081526004016106a790610f56565b60405180910390fd5b8073ffffffffffffffffffffffffffffffffffffffff166108fc349081150290604051600060405180830381858888f193505050501580156106f6573d6000803e3d6000fd5b5050565b6000600260009054906101000a900473ffffffffffffffffffffffffffffffffffffffff1673ffffffffffffffffffffffffffffffffffffffff1663c5ebeaec836040518263ffffffff1660e01b81526004016107579190610dc4565b6020604051808303816000875af1158015610776573d6000803e3d6000fd5b505050506040513d601f19601f8201168201806040525081019061079a9190610df4565b9050600081146107df576040517f08c379a00000000000000000000000000000000000000000000000000000000081526004016107d690610fc2565b60405180910390fd5b5050565b6000600260009054906101000a900473ffffffffffffffffffffffffffffffffffffffff1673ffffffffffffffffffffffffffffffffffffffff1663db006a75836040518263ffffffff1660e01b81526004016108409190610dc4565b6020604051808303816000875af115801561085f573d6000803e3d6000fd5b505050506040513d601f19601f820116820180604052508101906108839190610df4565b9050600081146108c8576040517f08c379a00000000000000000000000000000000000000000000000000000000081526004016108bf9061102e565b60405180910390fd5b5050565b600160009054906101000a900473ffffffffffffffffffffffffffffffffffffffff1681565b6000600167ffffffffffffffff81111561090f5761090e61104e565b5b60405190808252806020026020018201604052801561093d5781602001602082028036833780820191505090505b509050600260009054906101000a900473ffffffffffffffffffffffffffffffffffffffff16816000815181106109775761097661107d565b5b602002602001019073ffffffffffffffffffffffffffffffffffffffff16908173ffffffffffffffffffffffffffffffffffffffff168152505060008060009054906101000a900473ffffffffffffffffffffffffffffffffffffffff1673ffffffffffffffffffffffffffffffffffffffff1663c2998238836040518263ffffffff1660e01b8152600401610a0d919061116a565b6000604051808303816000875af1158015610a2c573d6000803e3d6000fd5b505050506040513d6000823e3d601f19601f82011682018060405250810190610a5591906112b6565b9050600081600081518110610a6d57610a6c61107d565b5b602002602001015114610ab5576040517f08c379a0000000000000000000000000000000000000000000000000000000008152600401610aac9061134b565b60405180910390fd5b5050565b6000604051905090565b600080fd5b600080fd5b6000819050919050565b610ae081610acd565b8114610aeb57600080fd5b50565b600081359050610afd81610ad7565b92915050565b600060208284031215610b1957610b18610ac3565b5b6000610b2784828501610aee565b91505092915050565b600073ffffffffffffffffffffffffffffffffffffffff82169050919050565b6000819050919050565b6000610b75610b70610b6b84610b30565b610b50565b610b30565b9050919050565b6000610b8782610b5a565b9050919050565b6000610b9982610b7c565b9050919050565b610ba981610b8e565b82525050565b6000602082019050610bc46000830184610ba0565b92915050565b6000610bd582610b7c565b9050919050565b610be581610bca565b82525050565b6000602082019050610c006000830184610bdc565b92915050565b6000610c1182610b30565b9050919050565b610c2181610c06565b8114610c2c57600080fd5b50565b600081359050610c3e81610c18565b92915050565b600060208284031215610c5a57610c59610ac3565b5b6000610c6884828501610c2f565b91505092915050565b6000610c7c82610b7c565b9050919050565b610c8c81610c71565b82525050565b6000602082019050610ca76000830184610c83565b92915050565b6000610cb882610b30565b9050919050565b610cc881610cad565b8114610cd357600080fd5b50565b600081519050610ce581610cbf565b92915050565b600060208284031215610d0157610d00610ac3565b5b6000610d0f84828501610cd6565b91505092915050565b610d2181610cad565b82525050565b610d3081610acd565b82525050565b6000604082019050610d4b6000830185610d18565b610d586020830184610d27565b9392505050565b60008115159050919050565b610d7481610d5f565b8114610d7f57600080fd5b50565b600081519050610d9181610d6b565b92915050565b600060208284031215610dad57610dac610ac3565b5b6000610dbb84828501610d82565b91505092915050565b6000602082019050610dd96000830184610d27565b92915050565b600081519050610dee81610ad7565b92915050565b600060208284031215610e0a57610e09610ac3565b5b6000610e1884828501610ddf565b91505092915050565b600082825260208201905092915050565b7f7265706179426f72726f772829206661696c6564000000000000000000000000600082015250565b6000610e68601483610e21565b9150610e7382610e32565b602082019050919050565b60006020820190508181036000830152610e9781610e5b565b9050919050565b7f6d696e742829206661696c656400000000000000000000000000000000000000600082015250565b6000610ed4600d83610e21565b9150610edf82610e9e565b602082019050919050565b60006020820190508181036000830152610f0381610ec7565b9050919050565b7f506c656173652073656e6420736f6d6520457468657200000000000000000000600082015250565b6000610f40601683610e21565b9150610f4b82610f0a565b602082019050919050565b60006020820190508181036000830152610f6f81610f33565b9050919050565b7f626f72726f772829206661696c65640000000000000000000000000000000000600082015250565b6000610fac600f83610e21565b9150610fb782610f76565b602082019050919050565b60006020820190508181036000830152610fdb81610f9f565b9050919050565b7f72656465656d2829206661696c65640000000000000000000000000000000000600082015250565b6000611018600f83610e21565b915061102382610fe2565b602082019050919050565b600060208201905081810360008301526110478161100b565b9050919050565b7f4e487b7100000000000000000000000000000000000000000000000000000000600052604160045260246000fd5b7f4e487b7100000000000000000000000000000000000000000000000000000000600052603260045260246000fd5b600081519050919050565b600082825260208201905092915050565b6000819050602082019050919050565b6110e181610cad565b82525050565b60006110f383836110d8565b60208301905092915050565b6000602082019050919050565b6000611117826110ac565b61112181856110b7565b935061112c836110c8565b8060005b8381101561115d57815161114488826110e7565b975061114f836110ff565b925050600181019050611130565b5085935050505092915050565b60006020820190508181036000830152611184818461110c565b905092915050565b600080fd5b6000601f19601f8301169050919050565b6111ab82611191565b810181811067ffffffffffffffff821117156111ca576111c961104e565b5b80604052505050565b60006111dd610ab9565b90506111e982826111a2565b919050565b600067ffffffffffffffff8211156112095761120861104e565b5b602082029050602081019050919050565b600080fd5b600061123261122d846111ee565b6111d3565b905080838252602082019050602084028301858111156112555761125461121a565b5b835b8181101561127e578061126a8882610ddf565b845260208401935050602081019050611257565b5050509392505050565b600082601f83011261129d5761129c61118c565b5b81516112ad84826020860161121f565b91505092915050565b6000602082840312156112cc576112cb610ac3565b5b600082015167ffffffffffffffff8111156112ea576112e9610ac8565b5b6112f684828501611288565b91505092915050565b7f656e7465724d61726b65742829206661696c6564000000000000000000000000600082015250565b6000611335601483610e21565b9150611340826112ff565b602082019050919050565b6000602082019050818103600083015261136481611328565b905091905056fea264697066735822122075024e4131369309ebdf861d3184a09b31faeaad3f31862e03994f0edec1337d64736f6c63430008120033",
					"opcodes": "PUSH1 0x80 PUSH1 0x40 MSTORE CALLVALUE DUP1 ISZERO PUSH3 0x11 JUMPI PUSH1 0x0 DUP1 REVERT JUMPDEST POP PUSH1 0x40 MLOAD PUSH3 0x1579 CODESIZE SUB DUP1 PUSH3 0x1579 DUP4 CODECOPY DUP2 DUP2 ADD PUSH1 0x40 MSTORE DUP2 ADD SWAP1 PUSH3 0x37 SWAP2 SWAP1 PUSH3 0x16C JUMP JUMPDEST DUP3 PUSH1 0x0 DUP1 PUSH2 0x100 EXP DUP2 SLOAD DUP2 PUSH20 0xFFFFFFFFFFFFFFFFFFFFFFFFFFFFFFFFFFFFFFFF MUL NOT AND SWAP1 DUP4 PUSH20 0xFFFFFFFFFFFFFFFFFFFFFFFFFFFFFFFFFFFFFFFF AND MUL OR SWAP1 SSTORE POP DUP1 PUSH1 0x2 PUSH1 0x0 PUSH2 0x100 EXP DUP2 SLOAD DUP2 PUSH20 0xFFFFFFFFFFFFFFFFFFFFFFFFFFFFFFFFFFFFFFFF MUL NOT AND SWAP1 DUP4 PUSH20 0xFFFFFFFFFFFFFFFFFFFFFFFFFFFFFFFFFFFFFFFF AND MUL OR SWAP1 SSTORE POP DUP2 PUSH1 0x1 PUSH1 0x0 PUSH2 0x100 EXP DUP2 SLOAD DUP2 PUSH20 0xFFFFFFFFFFFFFFFFFFFFFFFFFFFFFFFFFFFFFFFF MUL NOT AND SWAP1 DUP4 PUSH20 0xFFFFFFFFFFFFFFFFFFFFFFFFFFFFFFFFFFFFFFFF AND MUL OR SWAP1 SSTORE POP POP POP POP PUSH3 0x1C8 JUMP JUMPDEST PUSH1 0x0 DUP1 REVERT JUMPDEST PUSH1 0x0 PUSH20 0xFFFFFFFFFFFFFFFFFFFFFFFFFFFFFFFFFFFFFFFF DUP3 AND SWAP1 POP SWAP2 SWAP1 POP JUMP JUMPDEST PUSH1 0x0 PUSH3 0x134 DUP3 PUSH3 0x107 JUMP JUMPDEST SWAP1 POP SWAP2 SWAP1 POP JUMP JUMPDEST PUSH3 0x146 DUP2 PUSH3 0x127 JUMP JUMPDEST DUP2 EQ PUSH3 0x152 JUMPI PUSH1 0x0 DUP1 REVERT JUMPDEST POP JUMP JUMPDEST PUSH1 0x0 DUP2 MLOAD SWAP1 POP PUSH3 0x166 DUP2 PUSH3 0x13B JUMP JUMPDEST SWAP3 SWAP2 POP POP JUMP JUMPDEST PUSH1 0x0 DUP1 PUSH1 0x0 PUSH1 0x60 DUP5 DUP7 SUB SLT ISZERO PUSH3 0x188 JUMPI PUSH3 0x187 PUSH3 0x102 JUMP JUMPDEST JUMPDEST PUSH1 0x0 PUSH3 0x198 DUP7 DUP3 DUP8 ADD PUSH3 0x155 JUMP JUMPDEST SWAP4 POP POP PUSH1 0x20 PUSH3 0x1AB DUP7 DUP3 DUP8 ADD PUSH3 0x155 JUMP JUMPDEST SWAP3 POP POP PUSH1 0x40 PUSH3 0x1BE DUP7 DUP3 DUP8 ADD PUSH3 0x155 JUMP JUMPDEST SWAP2 POP POP SWAP3 POP SWAP3 POP SWAP3 JUMP JUMPDEST PUSH2 0x13A1 DUP1 PUSH3 0x1D8 PUSH1 0x0 CODECOPY PUSH1 0x0 RETURN INVALID PUSH1 0x80 PUSH1 0x40 MSTORE PUSH1 0x4 CALLDATASIZE LT PUSH2 0x86 JUMPI PUSH1 0x0 CALLDATALOAD PUSH1 0xE0 SHR DUP1 PUSH4 0x6B55E991 GT PUSH2 0x59 JUMPI DUP1 PUSH4 0x6B55E991 EQ PUSH2 0x133 JUMPI DUP1 PUSH4 0xC5EBEAEC EQ PUSH2 0x14F JUMPI DUP1 PUSH4 0xDB006A75 EQ PUSH2 0x178 JUMPI DUP1 PUSH4 0xFC0C546A EQ PUSH2 0x1A1 JUMPI DUP1 PUSH4 0xFD5BFB54 EQ PUSH2 0x1CC JUMPI PUSH2 0x86 JUMP JUMPDEST DUP1 PUSH4 0xE752702 EQ PUSH2 0x8B JUMPI DUP1 PUSH4 0x35403023 EQ PUSH2 0xB4 JUMPI DUP1 PUSH4 0x5FE3B567 EQ PUSH2 0xDD JUMPI DUP1 PUSH4 0x69E527DA EQ PUSH2 0x108 JUMPI JUMPDEST PUSH1 0x0 DUP1 REVERT JUMPDEST CALLVALUE DUP1 ISZERO PUSH2 0x97 JUMPI PUSH1 0x0 DUP1 REVERT JUMPDEST POP PUSH2 0xB2 PUSH1 0x4 DUP1 CALLDATASIZE SUB DUP2 ADD SWAP1 PUSH2 0xAD SWAP2 SWAP1 PUSH2 0xB03 JUMP JUMPDEST PUSH2 0x1E3 JUMP JUMPDEST STOP JUMPDEST CALLVALUE DUP1 ISZERO PUSH2 0xC0 JUMPI PUSH1 0x0 DUP1 REVERT JUMPDEST POP PUSH2 0xDB PUSH1 0x4 DUP1 CALLDATASIZE SUB DUP2 ADD SWAP1 PUSH2 0xD6 SWAP2 SWAP1 PUSH2 0xB03 JUMP JUMPDEST PUSH2 0x403 JUMP JUMPDEST STOP JUMPDEST CALLVALUE DUP1 ISZERO PUSH2 0xE9 JUMPI PUSH1 0x0 DUP1 REVERT JUMPDEST POP PUSH2 0xF2 PUSH2 0x623 JUMP JUMPDEST PUSH1 0x40 MLOAD PUSH2 0xFF SWAP2 SWAP1 PUSH2 0xBAF JUMP JUMPDEST PUSH1 0x40 MLOAD DUP1 SWAP2 SUB SWAP1 RETURN JUMPDEST CALLVALUE DUP1 ISZERO PUSH2 0x114 JUMPI PUSH1 0x0 DUP1 REVERT JUMPDEST POP PUSH2 0x11D PUSH2 0x647 JUMP JUMPDEST PUSH1 0x40 MLOAD PUSH2 0x12A SWAP2 SWAP1 PUSH2 0xBEB JUMP JUMPDEST PUSH1 0x40 MLOAD DUP1 SWAP2 SUB SWAP1 RETURN JUMPDEST PUSH2 0x14D PUSH1 0x4 DUP1 CALLDATASIZE SUB DUP2 ADD SWAP1 PUSH2 0x148 SWAP2 SWAP1 PUSH2 0xC44 JUMP JUMPDEST PUSH2 0x66D JUMP JUMPDEST STOP JUMPDEST CALLVALUE DUP1 ISZERO PUSH2 0x15B JUMPI PUSH1 0x0 DUP1 REVERT JUMPDEST POP PUSH2 0x176 PUSH1 0x4 DUP1 CALLDATASIZE SUB DUP2 ADD SWAP1 PUSH2 0x171 SWAP2 SWAP1 PUSH2 0xB03 JUMP JUMPDEST PUSH2 0x6FA JUMP JUMPDEST STOP JUMPDEST CALLVALUE DUP1 ISZERO PUSH2 0x184 JUMPI PUSH1 0x0 DUP1 REVERT JUMPDEST POP PUSH2 0x19F PUSH1 0x4 DUP1 CALLDATASIZE SUB DUP2 ADD SWAP1 PUSH2 0x19A SWAP2 SWAP1 PUSH2 0xB03 JUMP JUMPDEST PUSH2 0x7E3 JUMP JUMPDEST STOP JUMPDEST CALLVALUE DUP1 ISZERO PUSH2 0x1AD JUMPI PUSH1 0x0 DUP1 REVERT JUMPDEST POP PUSH2 0x1B6 PUSH2 0x8CC JUMP JUMPDEST PUSH1 0x40 MLOAD PUSH2 0x1C3 SWAP2 SWAP1 PUSH2 0xC92 JUMP JUMPDEST PUSH1 0x40 MLOAD DUP1 SWAP2 SUB SWAP1 RETURN JUMPDEST CALLVALUE DUP1 ISZERO PUSH2 0x1D8 JUMPI PUSH1 0x0 DUP1 REVERT JUMPDEST POP PUSH2 0x1E1 PUSH2 0x8F2 JUMP JUMPDEST STOP JUMPDEST PUSH1 0x0 PUSH1 0x2 PUSH1 0x0 SWAP1 SLOAD SWAP1 PUSH2 0x100 EXP SWAP1 DIV PUSH20 0xFFFFFFFFFFFFFFFFFFFFFFFFFFFFFFFFFFFFFFFF AND PUSH20 0xFFFFFFFFFFFFFFFFFFFFFFFFFFFFFFFFFFFFFFFF AND PUSH4 0x6F307DC3 PUSH1 0x40 MLOAD DUP2 PUSH4 0xFFFFFFFF AND PUSH1 0xE0 SHL DUP2 MSTORE PUSH1 0x4 ADD PUSH1 0x20 PUSH1 0x40 MLOAD DUP1 DUP4 SUB DUP2 DUP7 GAS STATICCALL ISZERO DUP1 ISZERO PUSH2 0x252 JUMPI RETURNDATASIZE PUSH1 0x0 DUP1 RETURNDATACOPY RETURNDATASIZE PUSH1 0x0 REVERT JUMPDEST POP POP POP POP PUSH1 0x40 MLOAD RETURNDATASIZE PUSH1 0x1F NOT PUSH1 0x1F DUP3 ADD AND DUP3 ADD DUP1 PUSH1 0x40 MSTORE POP DUP2 ADD SWAP1 PUSH2 0x276 SWAP2 SWAP1 PUSH2 0xCEB JUMP JUMPDEST SWAP1 POP DUP1 PUSH20 0xFFFFFFFFFFFFFFFFFFFFFFFFFFFFFFFFFFFFFFFF AND PUSH4 0x95EA7B3 PUSH1 0x2 PUSH1 0x0 SWAP1 SLOAD SWAP1 PUSH2 0x100 EXP SWAP1 DIV PUSH20 0xFFFFFFFFFFFFFFFFFFFFFFFFFFFFFFFFFFFFFFFF AND DUP5 PUSH1 0x40 MLOAD DUP4 PUSH4 0xFFFFFFFF AND PUSH1 0xE0 SHL DUP2 MSTORE PUSH1 0x4 ADD PUSH2 0x2D5 SWAP3 SWAP2 SWAP1 PUSH2 0xD36 JUMP JUMPDEST PUSH1 0x20 PUSH1 0x40 MLOAD DUP1 DUP4 SUB DUP2 PUSH1 0x0 DUP8 GAS CALL ISZERO DUP1 ISZERO PUSH2 0x2F4 JUMPI RETURNDATASIZE PUSH1 0x0 DUP1 RETURNDATACOPY RETURNDATASIZE PUSH1 0x0 REVERT JUMPDEST POP POP POP POP PUSH1 0x40 MLOAD RETURNDATASIZE PUSH1 0x1F NOT PUSH1 0x1F DUP3 ADD AND DUP3 ADD DUP1 PUSH1 0x40 MSTORE POP DUP2 ADD SWAP1 PUSH2 0x318 SWAP2 SWAP1 PUSH2 0xD97 JUMP JUMPDEST POP PUSH1 0x0 PUSH1 0x2 PUSH1 0x0 SWAP1 SLOAD SWAP1 PUSH2 0x100 EXP SWAP1 DIV PUSH20 0xFFFFFFFFFFFFFFFFFFFFFFFFFFFFFFFFFFFFFFFF AND PUSH20 0xFFFFFFFFFFFFFFFFFFFFFFFFFFFFFFFFFFFFFFFF AND PUSH4 0xE752702 DUP5 PUSH1 0x40 MLOAD DUP3 PUSH4 0xFFFFFFFF AND PUSH1 0xE0 SHL DUP2 MSTORE PUSH1 0x4 ADD PUSH2 0x376 SWAP2 SWAP1 PUSH2 0xDC4 JUMP JUMPDEST PUSH1 0x20 PUSH1 0x40 MLOAD DUP1 DUP4 SUB DUP2 PUSH1 0x0 DUP8 GAS CALL ISZERO DUP1 ISZERO PUSH2 0x395 JUMPI RETURNDATASIZE PUSH1 0x0 DUP1 RETURNDATACOPY RETURNDATASIZE PUSH1 0x0 REVERT JUMPDEST POP POP POP POP PUSH1 0x40 MLOAD RETURNDATASIZE PUSH1 0x1F NOT PUSH1 0x1F DUP3 ADD AND DUP3 ADD DUP1 PUSH1 0x40 MSTORE POP DUP2 ADD SWAP1 PUSH2 0x3B9 SWAP2 SWAP1 PUSH2 0xDF4 JUMP JUMPDEST SWAP1 POP PUSH1 0x0 DUP2 EQ PUSH2 0x3FE JUMPI PUSH1 0x40 MLOAD PUSH32 0x8C379A000000000000000000000000000000000000000000000000000000000 DUP2 MSTORE PUSH1 0x4 ADD PUSH2 0x3F5 SWAP1 PUSH2 0xE7E JUMP JUMPDEST PUSH1 0x40 MLOAD DUP1 SWAP2 SUB SWAP1 REVERT JUMPDEST POP POP POP JUMP JUMPDEST PUSH1 0x0 PUSH1 0x2 PUSH1 0x0 SWAP1 SLOAD SWAP1 PUSH2 0x100 EXP SWAP1 DIV PUSH20 0xFFFFFFFFFFFFFFFFFFFFFFFFFFFFFFFFFFFFFFFF AND PUSH20 0xFFFFFFFFFFFFFFFFFFFFFFFFFFFFFFFFFFFFFFFF AND PUSH4 0x6F307DC3 PUSH1 0x40 MLOAD DUP2 PUSH4 0xFFFFFFFF AND PUSH1 0xE0 SHL DUP2 MSTORE PUSH1 0x4 ADD PUSH1 0x20 PUSH1 0x40 MLOAD DUP1 DUP4 SUB DUP2 DUP7 GAS STATICCALL ISZERO DUP1 ISZERO PUSH2 0x472 JUMPI RETURNDATASIZE PUSH1 0x0 DUP1 RETURNDATACOPY RETURNDATASIZE PUSH1 0x0 REVERT JUMPDEST POP POP POP POP PUSH1 0x40 MLOAD RETURNDATASIZE PUSH1 0x1F NOT PUSH1 0x1F DUP3 ADD AND DUP3 ADD DUP1 PUSH1 0x40 MSTORE POP DUP2 ADD SWAP1 PUSH2 0x496 SWAP2 SWAP1 PUSH2 0xCEB JUMP JUMPDEST SWAP1 POP DUP1 PUSH20 0xFFFFFFFFFFFFFFFFFFFFFFFFFFFFFFFFFFFFFFFF AND PUSH4 0x95EA7B3 PUSH1 0x2 PUSH1 0x0 SWAP1 SLOAD SWAP1 PUSH2 0x100 EXP SWAP1 DIV PUSH20 0xFFFFFFFFFFFFFFFFFFFFFFFFFFFFFFFFFFFFFFFF AND DUP5 PUSH1 0x40 MLOAD DUP4 PUSH4 0xFFFFFFFF AND PUSH1 0xE0 SHL DUP2 MSTORE PUSH1 0x4 ADD PUSH2 0x4F5 SWAP3 SWAP2 SWAP1 PUSH2 0xD36 JUMP JUMPDEST PUSH1 0x20 PUSH1 0x40 MLOAD DUP1 DUP4 SUB DUP2 PUSH1 0x0 DUP8 GAS CALL ISZERO DUP1 ISZERO PUSH2 0x514 JUMPI RETURNDATASIZE PUSH1 0x0 DUP1 RETURNDATACOPY RETURNDATASIZE PUSH1 0x0 REVERT JUMPDEST POP POP POP POP PUSH1 0x40 MLOAD RETURNDATASIZE PUSH1 0x1F NOT PUSH1 0x1F DUP3 ADD AND DUP3 ADD DUP1 PUSH1 0x40 MSTORE POP DUP2 ADD SWAP1 PUSH2 0x538 SWAP2 SWAP1 PUSH2 0xD97 JUMP JUMPDEST POP PUSH1 0x0 PUSH1 0x2 PUSH1 0x0 SWAP1 SLOAD SWAP1 PUSH2 0x100 EXP SWAP1 DIV PUSH20 0xFFFFFFFFFFFFFFFFFFFFFFFFFFFFFFFFFFFFFFFF AND PUSH20 0xFFFFFFFFFFFFFFFFFFFFFFFFFFFFFFFFFFFFFFFF AND PUSH4 0xA0712D68 DUP5 PUSH1 0x40 MLOAD DUP3 PUSH4 0xFFFFFFFF AND PUSH1 0xE0 SHL DUP2 MSTORE PUSH1 0x4 ADD PUSH2 0x596 SWAP2 SWAP1 PUSH2 0xDC4 JUMP JUMPDEST PUSH1 0x20 PUSH1 0x40 MLOAD DUP1 DUP4 SUB DUP2 PUSH1 0x0 DUP8 GAS CALL ISZERO DUP1 ISZERO PUSH2 0x5B5 JUMPI RETURNDATASIZE PUSH1 0x0 DUP1 RETURNDATACOPY RETURNDATASIZE PUSH1 0x0 REVERT JUMPDEST POP POP POP POP PUSH1 0x40 MLOAD RETURNDATASIZE PUSH1 0x1F NOT PUSH1 0x1F DUP3 ADD AND DUP3 ADD DUP1 PUSH1 0x40 MSTORE POP DUP2 ADD SWAP1 PUSH2 0x5D9 SWAP2 SWAP1 PUSH2 0xDF4 JUMP JUMPDEST SWAP1 POP PUSH1 0x0 DUP2 EQ PUSH2 0x61E JUMPI PUSH1 0x40 MLOAD PUSH32 0x8C379A000000000000000000000000000000000000000000000000000000000 DUP2 MSTORE PUSH1 0x4 ADD PUSH2 0x615 SWAP1 PUSH2 0xEEA JUMP JUMPDEST PUSH1 0x40 MLOAD DUP1 SWAP2 SUB SWAP1 REVERT JUMPDEST POP POP POP JUMP JUMPDEST PUSH1 0x0 DUP1 SLOAD SWAP1 PUSH2 0x100 EXP SWAP1 DIV PUSH20 0xFFFFFFFFFFFFFFFFFFFFFFFFFFFFFFFFFFFFFFFF AND DUP2 JUMP JUMPDEST PUSH1 0x2 PUSH1 0x0 SWAP1 SLOAD SWAP1 PUSH2 0x100 EXP SWAP1 DIV PUSH20 0xFFFFFFFFFFFFFFFFFFFFFFFFFFFFFFFFFFFFFFFF AND DUP2 JUMP JUMPDEST PUSH1 0x0 CALLVALUE GT PUSH2 0x6B0 JUMPI PUSH1 0x40 MLOAD PUSH32 0x8C379A000000000000000000000000000000000000000000000000000000000 DUP2 MSTORE PUSH1 0x4 ADD PUSH2 0x6A7 SWAP1 PUSH2 0xF56 JUMP JUMPDEST PUSH1 0x40 MLOAD DUP1 SWAP2 SUB SWAP1 REVERT JUMPDEST DUP1 PUSH20 0xFFFFFFFFFFFFFFFFFFFFFFFFFFFFFFFFFFFFFFFF AND PUSH2 0x8FC CALLVALUE SWAP1 DUP2 ISZERO MUL SWAP1 PUSH1 0x40 MLOAD PUSH1 0x0 PUSH1 0x40 MLOAD DUP1 DUP4 SUB DUP2 DUP6 DUP9 DUP9 CALL SWAP4 POP POP POP POP ISZERO DUP1 ISZERO PUSH2 0x6F6 JUMPI RETURNDATASIZE PUSH1 0x0 DUP1 RETURNDATACOPY RETURNDATASIZE PUSH1 0x0 REVERT JUMPDEST POP POP JUMP JUMPDEST PUSH1 0x0 PUSH1 0x2 PUSH1 0x0 SWAP1 SLOAD SWAP1 PUSH2 0x100 EXP SWAP1 DIV PUSH20 0xFFFFFFFFFFFFFFFFFFFFFFFFFFFFFFFFFFFFFFFF AND PUSH20 0xFFFFFFFFFFFFFFFFFFFFFFFFFFFFFFFFFFFFFFFF AND PUSH4 0xC5EBEAEC DUP4 PUSH1 0x40 MLOAD DUP3 PUSH4 0xFFFFFFFF AND PUSH1 0xE0 SHL DUP2 MSTORE PUSH1 0x4 ADD PUSH2 0x757 SWAP2 SWAP1 PUSH2 0xDC4 JUMP JUMPDEST PUSH1 0x20 PUSH1 0x40 MLOAD DUP1 DUP4 SUB DUP2 PUSH1 0x0 DUP8 GAS CALL ISZERO DUP1 ISZERO PUSH2 0x776 JUMPI RETURNDATASIZE PUSH1 0x0 DUP1 RETURNDATACOPY RETURNDATASIZE PUSH1 0x0 REVERT JUMPDEST POP POP POP POP PUSH1 0x40 MLOAD RETURNDATASIZE PUSH1 0x1F NOT PUSH1 0x1F DUP3 ADD AND DUP3 ADD DUP1 PUSH1 0x40 MSTORE POP DUP2 ADD SWAP1 PUSH2 0x79A SWAP2 SWAP1 PUSH2 0xDF4 JUMP JUMPDEST SWAP1 POP PUSH1 0x0 DUP2 EQ PUSH2 0x7DF JUMPI PUSH1 0x40 MLOAD PUSH32 0x8C379A000000000000000000000000000000000000000000000000000000000 DUP2 MSTORE PUSH1 0x4 ADD PUSH2 0x7D6 SWAP1 PUSH2 0xFC2 JUMP JUMPDEST PUSH1 0x40 MLOAD DUP1 SWAP2 SUB SWAP1 REVERT JUMPDEST POP POP JUMP JUMPDEST PUSH1 0x0 PUSH1 0x2 PUSH1 0x0 SWAP1 SLOAD SWAP1 PUSH2 0x100 EXP SWAP1 DIV PUSH20 0xFFFFFFFFFFFFFFFFFFFFFFFFFFFFFFFFFFFFFFFF AND PUSH20 0xFFFFFFFFFFFFFFFFFFFFFFFFFFFFFFFFFFFFFFFF AND PUSH4 0xDB006A75 DUP4 PUSH1 0x40 MLOAD DUP3 PUSH4 0xFFFFFFFF AND PUSH1 0xE0 SHL DUP2 MSTORE PUSH1 0x4 ADD PUSH2 0x840 SWAP2 SWAP1 PUSH2 0xDC4 JUMP JUMPDEST PUSH1 0x20 PUSH1 0x40 MLOAD DUP1 DUP4 SUB DUP2 PUSH1 0x0 DUP8 GAS CALL ISZERO DUP1 ISZERO PUSH2 0x85F JUMPI RETURNDATASIZE PUSH1 0x0 DUP1 RETURNDATACOPY RETURNDATASIZE PUSH1 0x0 REVERT JUMPDEST POP POP POP POP PUSH1 0x40 MLOAD RETURNDATASIZE PUSH1 0x1F NOT PUSH1 0x1F DUP3 ADD AND DUP3 ADD DUP1 PUSH1 0x40 MSTORE POP DUP2 ADD SWAP1 PUSH2 0x883 SWAP2 SWAP1 PUSH2 0xDF4 JUMP JUMPDEST SWAP1 POP PUSH1 0x0 DUP2 EQ PUSH2 0x8C8 JUMPI PUSH1 0x40 MLOAD PUSH32 0x8C379A000000000000000000000000000000000000000000000000000000000 DUP2 MSTORE PUSH1 0x4 ADD PUSH2 0x8BF SWAP1 PUSH2 0x102E JUMP JUMPDEST PUSH1 0x40 MLOAD DUP1 SWAP2 SUB SWAP1 REVERT JUMPDEST POP POP JUMP JUMPDEST PUSH1 0x1 PUSH1 0x0 SWAP1 SLOAD SWAP1 PUSH2 0x100 EXP SWAP1 DIV PUSH20 0xFFFFFFFFFFFFFFFFFFFFFFFFFFFFFFFFFFFFFFFF AND DUP2 JUMP JUMPDEST PUSH1 0x0 PUSH1 0x1 PUSH8 0xFFFFFFFFFFFFFFFF DUP2 GT ISZERO PUSH2 0x90F JUMPI PUSH2 0x90E PUSH2 0x104E JUMP JUMPDEST JUMPDEST PUSH1 0x40 MLOAD SWAP1 DUP1 DUP3 MSTORE DUP1 PUSH1 0x20 MUL PUSH1 0x20 ADD DUP3 ADD PUSH1 0x40 MSTORE DUP1 ISZERO PUSH2 0x93D JUMPI DUP2 PUSH1 0x20 ADD PUSH1 0x20 DUP3 MUL DUP1 CALLDATASIZE DUP4 CALLDATACOPY DUP1 DUP3 ADD SWAP2 POP POP SWAP1 POP JUMPDEST POP SWAP1 POP PUSH1 0x2 PUSH1 0x0 SWAP1 SLOAD SWAP1 PUSH2 0x100 EXP SWAP1 DIV PUSH20 0xFFFFFFFFFFFFFFFFFFFFFFFFFFFFFFFFFFFFFFFF AND DUP2 PUSH1 0x0 DUP2 MLOAD DUP2 LT PUSH2 0x977 JUMPI PUSH2 0x976 PUSH2 0x107D JUMP JUMPDEST JUMPDEST PUSH1 0x20 MUL PUSH1 0x20 ADD ADD SWAP1 PUSH20 0xFFFFFFFFFFFFFFFFFFFFFFFFFFFFFFFFFFFFFFFF AND SWAP1 DUP2 PUSH20 0xFFFFFFFFFFFFFFFFFFFFFFFFFFFFFFFFFFFFFFFF AND DUP2 MSTORE POP POP PUSH1 0x0 DUP1 PUSH1 0x0 SWAP1 SLOAD SWAP1 PUSH2 0x100 EXP SWAP1 DIV PUSH20 0xFFFFFFFFFFFFFFFFFFFFFFFFFFFFFFFFFFFFFFFF AND PUSH20 0xFFFFFFFFFFFFFFFFFFFFFFFFFFFFFFFFFFFFFFFF AND PUSH4 0xC2998238 DUP4 PUSH1 0x40 MLOAD DUP3 PUSH4 0xFFFFFFFF AND PUSH1 0xE0 SHL DUP2 MSTORE PUSH1 0x4 ADD PUSH2 0xA0D SWAP2 SWAP1 PUSH2 0x116A JUMP JUMPDEST PUSH1 0x0 PUSH1 0x40 MLOAD DUP1 DUP4 SUB DUP2 PUSH1 0x0 DUP8 GAS CALL ISZERO DUP1 ISZERO PUSH2 0xA2C JUMPI RETURNDATASIZE PUSH1 0x0 DUP1 RETURNDATACOPY RETURNDATASIZE PUSH1 0x0 REVERT JUMPDEST POP POP POP POP PUSH1 0x40 MLOAD RETURNDATASIZE PUSH1 0x0 DUP3 RETURNDATACOPY RETURNDATASIZE PUSH1 0x1F NOT PUSH1 0x1F DUP3 ADD AND DUP3 ADD DUP1 PUSH1 0x40 MSTORE POP DUP2 ADD SWAP1 PUSH2 0xA55 SWAP2 SWAP1 PUSH2 0x12B6 JUMP JUMPDEST SWAP1 POP PUSH1 0x0 DUP2 PUSH1 0x0 DUP2 MLOAD DUP2 LT PUSH2 0xA6D JUMPI PUSH2 0xA6C PUSH2 0x107D JUMP JUMPDEST JUMPDEST PUSH1 0x20 MUL PUSH1 0x20 ADD ADD MLOAD EQ PUSH2 0xAB5 JUMPI PUSH1 0x40 MLOAD PUSH32 0x8C379A000000000000000000000000000000000000000000000000000000000 DUP2 MSTORE PUSH1 0x4 ADD PUSH2 0xAAC SWAP1 PUSH2 0x134B JUMP JUMPDEST PUSH1 0x40 MLOAD DUP1 SWAP2 SUB SWAP1 REVERT JUMPDEST POP POP JUMP JUMPDEST PUSH1 0x0 PUSH1 0x40 MLOAD SWAP1 POP SWAP1 JUMP JUMPDEST PUSH1 0x0 DUP1 REVERT JUMPDEST PUSH1 0x0 DUP1 REVERT JUMPDEST PUSH1 0x0 DUP2 SWAP1 POP SWAP2 SWAP1 POP JUMP JUMPDEST PUSH2 0xAE0 DUP2 PUSH2 0xACD JUMP JUMPDEST DUP2 EQ PUSH2 0xAEB JUMPI PUSH1 0x0 DUP1 REVERT JUMPDEST POP JUMP JUMPDEST PUSH1 0x0 DUP2 CALLDATALOAD SWAP1 POP PUSH2 0xAFD DUP2 PUSH2 0xAD7 JUMP JUMPDEST SWAP3 SWAP2 POP POP JUMP JUMPDEST PUSH1 0x0 PUSH1 0x20 DUP3 DUP5 SUB SLT ISZERO PUSH2 0xB19 JUMPI PUSH2 0xB18 PUSH2 0xAC3 JUMP JUMPDEST JUMPDEST PUSH1 0x0 PUSH2 0xB27 DUP5 DUP3 DUP6 ADD PUSH2 0xAEE JUMP JUMPDEST SWAP2 POP POP SWAP3 SWAP2 POP POP JUMP JUMPDEST PUSH1 0x0 PUSH20 0xFFFFFFFFFFFFFFFFFFFFFFFFFFFFFFFFFFFFFFFF DUP3 AND SWAP1 POP SWAP2 SWAP1 POP JUMP JUMPDEST PUSH1 0x0 DUP2 SWAP1 POP SWAP2 SWAP1 POP JUMP JUMPDEST PUSH1 0x0 PUSH2 0xB75 PUSH2 0xB70 PUSH2 0xB6B DUP5 PUSH2 0xB30 JUMP JUMPDEST PUSH2 0xB50 JUMP JUMPDEST PUSH2 0xB30 JUMP JUMPDEST SWAP1 POP SWAP2 SWAP1 POP JUMP JUMPDEST PUSH1 0x0 PUSH2 0xB87 DUP3 PUSH2 0xB5A JUMP JUMPDEST SWAP1 POP SWAP2 SWAP1 POP JUMP JUMPDEST PUSH1 0x0 PUSH2 0xB99 DUP3 PUSH2 0xB7C JUMP JUMPDEST SWAP1 POP SWAP2 SWAP1 POP JUMP JUMPDEST PUSH2 0xBA9 DUP2 PUSH2 0xB8E JUMP JUMPDEST DUP3 MSTORE POP POP JUMP JUMPDEST PUSH1 0x0 PUSH1 0x20 DUP3 ADD SWAP1 POP PUSH2 0xBC4 PUSH1 0x0 DUP4 ADD DUP5 PUSH2 0xBA0 JUMP JUMPDEST SWAP3 SWAP2 POP POP JUMP JUMPDEST PUSH1 0x0 PUSH2 0xBD5 DUP3 PUSH2 0xB7C JUMP JUMPDEST SWAP1 POP SWAP2 SWAP1 POP JUMP JUMPDEST PUSH2 0xBE5 DUP2 PUSH2 0xBCA JUMP JUMPDEST DUP3 MSTORE POP POP JUMP JUMPDEST PUSH1 0x0 PUSH1 0x20 DUP3 ADD SWAP1 POP PUSH2 0xC00 PUSH1 0x0 DUP4 ADD DUP5 PUSH2 0xBDC JUMP JUMPDEST SWAP3 SWAP2 POP POP JUMP JUMPDEST PUSH1 0x0 PUSH2 0xC11 DUP3 PUSH2 0xB30 JUMP JUMPDEST SWAP1 POP SWAP2 SWAP1 POP JUMP JUMPDEST PUSH2 0xC21 DUP2 PUSH2 0xC06 JUMP JUMPDEST DUP2 EQ PUSH2 0xC2C JUMPI PUSH1 0x0 DUP1 REVERT JUMPDEST POP JUMP JUMPDEST PUSH1 0x0 DUP2 CALLDATALOAD SWAP1 POP PUSH2 0xC3E DUP2 PUSH2 0xC18 JUMP JUMPDEST SWAP3 SWAP2 POP POP JUMP JUMPDEST PUSH1 0x0 PUSH1 0x20 DUP3 DUP5 SUB SLT ISZERO PUSH2 0xC5A JUMPI PUSH2 0xC59 PUSH2 0xAC3 JUMP JUMPDEST JUMPDEST PUSH1 0x0 PUSH2 0xC68 DUP5 DUP3 DUP6 ADD PUSH2 0xC2F JUMP JUMPDEST SWAP2 POP POP SWAP3 SWAP2 POP POP JUMP JUMPDEST PUSH1 0x0 PUSH2 0xC7C DUP3 PUSH2 0xB7C JUMP JUMPDEST SWAP1 POP SWAP2 SWAP1 POP JUMP JUMPDEST PUSH2 0xC8C DUP2 PUSH2 0xC71 JUMP JUMPDEST DUP3 MSTORE POP POP JUMP JUMPDEST PUSH1 0x0 PUSH1 0x20 DUP3 ADD SWAP1 POP PUSH2 0xCA7 PUSH1 0x0 DUP4 ADD DUP5 PUSH2 0xC83 JUMP JUMPDEST SWAP3 SWAP2 POP POP JUMP JUMPDEST PUSH1 0x0 PUSH2 0xCB8 DUP3 PUSH2 0xB30 JUMP JUMPDEST SWAP1 POP SWAP2 SWAP1 POP JUMP JUMPDEST PUSH2 0xCC8 DUP2 PUSH2 0xCAD JUMP JUMPDEST DUP2 EQ PUSH2 0xCD3 JUMPI PUSH1 0x0 DUP1 REVERT JUMPDEST POP JUMP JUMPDEST PUSH1 0x0 DUP2 MLOAD SWAP1 POP PUSH2 0xCE5 DUP2 PUSH2 0xCBF JUMP JUMPDEST SWAP3 SWAP2 POP POP JUMP JUMPDEST PUSH1 0x0 PUSH1 0x20 DUP3 DUP5 SUB SLT ISZERO PUSH2 0xD01 JUMPI PUSH2 0xD00 PUSH2 0xAC3 JUMP JUMPDEST JUMPDEST PUSH1 0x0 PUSH2 0xD0F DUP5 DUP3 DUP6 ADD PUSH2 0xCD6 JUMP JUMPDEST SWAP2 POP POP SWAP3 SWAP2 POP POP JUMP JUMPDEST PUSH2 0xD21 DUP2 PUSH2 0xCAD JUMP JUMPDEST DUP3 MSTORE POP POP JUMP JUMPDEST PUSH2 0xD30 DUP2 PUSH2 0xACD JUMP JUMPDEST DUP3 MSTORE POP POP JUMP JUMPDEST PUSH1 0x0 PUSH1 0x40 DUP3 ADD SWAP1 POP PUSH2 0xD4B PUSH1 0x0 DUP4 ADD DUP6 PUSH2 0xD18 JUMP JUMPDEST PUSH2 0xD58 PUSH1 0x20 DUP4 ADD DUP5 PUSH2 0xD27 JUMP JUMPDEST SWAP4 SWAP3 POP POP POP JUMP JUMPDEST PUSH1 0x0 DUP2 ISZERO ISZERO SWAP1 POP SWAP2 SWAP1 POP JUMP JUMPDEST PUSH2 0xD74 DUP2 PUSH2 0xD5F JUMP JUMPDEST DUP2 EQ PUSH2 0xD7F JUMPI PUSH1 0x0 DUP1 REVERT JUMPDEST POP JUMP JUMPDEST PUSH1 0x0 DUP2 MLOAD SWAP1 POP PUSH2 0xD91 DUP2 PUSH2 0xD6B JUMP JUMPDEST SWAP3 SWAP2 POP POP JUMP JUMPDEST PUSH1 0x0 PUSH1 0x20 DUP3 DUP5 SUB SLT ISZERO PUSH2 0xDAD JUMPI PUSH2 0xDAC PUSH2 0xAC3 JUMP JUMPDEST JUMPDEST PUSH1 0x0 PUSH2 0xDBB DUP5 DUP3 DUP6 ADD PUSH2 0xD82 JUMP JUMPDEST SWAP2 POP POP SWAP3 SWAP2 POP POP JUMP JUMPDEST PUSH1 0x0 PUSH1 0x20 DUP3 ADD SWAP1 POP PUSH2 0xDD9 PUSH1 0x0 DUP4 ADD DUP5 PUSH2 0xD27 JUMP JUMPDEST SWAP3 SWAP2 POP POP JUMP JUMPDEST PUSH1 0x0 DUP2 MLOAD SWAP1 POP PUSH2 0xDEE DUP2 PUSH2 0xAD7 JUMP JUMPDEST SWAP3 SWAP2 POP POP JUMP JUMPDEST PUSH1 0x0 PUSH1 0x20 DUP3 DUP5 SUB SLT ISZERO PUSH2 0xE0A JUMPI PUSH2 0xE09 PUSH2 0xAC3 JUMP JUMPDEST JUMPDEST PUSH1 0x0 PUSH2 0xE18 DUP5 DUP3 DUP6 ADD PUSH2 0xDDF JUMP JUMPDEST SWAP2 POP POP SWAP3 SWAP2 POP POP JUMP JUMPDEST PUSH1 0x0 DUP3 DUP3 MSTORE PUSH1 0x20 DUP3 ADD SWAP1 POP SWAP3 SWAP2 POP POP JUMP JUMPDEST PUSH32 0x7265706179426F72726F772829206661696C6564000000000000000000000000 PUSH1 0x0 DUP3 ADD MSTORE POP JUMP JUMPDEST PUSH1 0x0 PUSH2 0xE68 PUSH1 0x14 DUP4 PUSH2 0xE21 JUMP JUMPDEST SWAP2 POP PUSH2 0xE73 DUP3 PUSH2 0xE32 JUMP JUMPDEST PUSH1 0x20 DUP3 ADD SWAP1 POP SWAP2 SWAP1 POP JUMP JUMPDEST PUSH1 0x0 PUSH1 0x20 DUP3 ADD SWAP1 POP DUP2 DUP2 SUB PUSH1 0x0 DUP4 ADD MSTORE PUSH2 0xE97 DUP2 PUSH2 0xE5B JUMP JUMPDEST SWAP1 POP SWAP2 SWAP1 POP JUMP JUMPDEST PUSH32 0x6D696E742829206661696C656400000000000000000000000000000000000000 PUSH1 0x0 DUP3 ADD MSTORE POP JUMP JUMPDEST PUSH1 0x0 PUSH2 0xED4 PUSH1 0xD DUP4 PUSH2 0xE21 JUMP JUMPDEST SWAP2 POP PUSH2 0xEDF DUP3 PUSH2 0xE9E JUMP JUMPDEST PUSH1 0x20 DUP3 ADD SWAP1 POP SWAP2 SWAP1 POP JUMP JUMPDEST PUSH1 0x0 PUSH1 0x20 DUP3 ADD SWAP1 POP DUP2 DUP2 SUB PUSH1 0x0 DUP4 ADD MSTORE PUSH2 0xF03 DUP2 PUSH2 0xEC7 JUMP JUMPDEST SWAP1 POP SWAP2 SWAP1 POP JUMP JUMPDEST PUSH32 0x506C656173652073656E6420736F6D6520457468657200000000000000000000 PUSH1 0x0 DUP3 ADD MSTORE POP JUMP JUMPDEST PUSH1 0x0 PUSH2 0xF40 PUSH1 0x16 DUP4 PUSH2 0xE21 JUMP JUMPDEST SWAP2 POP PUSH2 0xF4B DUP3 PUSH2 0xF0A JUMP JUMPDEST PUSH1 0x20 DUP3 ADD SWAP1 POP SWAP2 SWAP1 POP JUMP JUMPDEST PUSH1 0x0 PUSH1 0x20 DUP3 ADD SWAP1 POP DUP2 DUP2 SUB PUSH1 0x0 DUP4 ADD MSTORE PUSH2 0xF6F DUP2 PUSH2 0xF33 JUMP JUMPDEST SWAP1 POP SWAP2 SWAP1 POP JUMP JUMPDEST PUSH32 0x626F72726F772829206661696C65640000000000000000000000000000000000 PUSH1 0x0 DUP3 ADD MSTORE POP JUMP JUMPDEST PUSH1 0x0 PUSH2 0xFAC PUSH1 0xF DUP4 PUSH2 0xE21 JUMP JUMPDEST SWAP2 POP PUSH2 0xFB7 DUP3 PUSH2 0xF76 JUMP JUMPDEST PUSH1 0x20 DUP3 ADD SWAP1 POP SWAP2 SWAP1 POP JUMP JUMPDEST PUSH1 0x0 PUSH1 0x20 DUP3 ADD SWAP1 POP DUP2 DUP2 SUB PUSH1 0x0 DUP4 ADD MSTORE PUSH2 0xFDB DUP2 PUSH2 0xF9F JUMP JUMPDEST SWAP1 POP SWAP2 SWAP1 POP JUMP JUMPDEST PUSH32 0x72656465656D2829206661696C65640000000000000000000000000000000000 PUSH1 0x0 DUP3 ADD MSTORE POP JUMP JUMPDEST PUSH1 0x0 PUSH2 0x1018 PUSH1 0xF DUP4 PUSH2 0xE21 JUMP JUMPDEST SWAP2 POP PUSH2 0x1023 DUP3 PUSH2 0xFE2 JUMP JUMPDEST PUSH1 0x20 DUP3 ADD SWAP1 POP SWAP2 SWAP1 POP JUMP JUMPDEST PUSH1 0x0 PUSH1 0x20 DUP3 ADD SWAP1 POP DUP2 DUP2 SUB PUSH1 0x0 DUP4 ADD MSTORE PUSH2 0x1047 DUP2 PUSH2 0x100B JUMP JUMPDEST SWAP1 POP SWAP2 SWAP1 POP JUMP JUMPDEST PUSH32 0x4E487B7100000000000000000000000000000000000000000000000000000000 PUSH1 0x0 MSTORE PUSH1 0x41 PUSH1 0x4 MSTORE PUSH1 0x24 PUSH1 0x0 REVERT JUMPDEST PUSH32 0x4E487B7100000000000000000000000000000000000000000000000000000000 PUSH1 0x0 MSTORE PUSH1 0x32 PUSH1 0x4 MSTORE PUSH1 0x24 PUSH1 0x0 REVERT JUMPDEST PUSH1 0x0 DUP2 MLOAD SWAP1 POP SWAP2 SWAP1 POP JUMP JUMPDEST PUSH1 0x0 DUP3 DUP3 MSTORE PUSH1 0x20 DUP3 ADD SWAP1 POP SWAP3 SWAP2 POP POP JUMP JUMPDEST PUSH1 0x0 DUP2 SWAP1 POP PUSH1 0x20 DUP3 ADD SWAP1 POP SWAP2 SWAP1 POP JUMP JUMPDEST PUSH2 0x10E1 DUP2 PUSH2 0xCAD JUMP JUMPDEST DUP3 MSTORE POP POP JUMP JUMPDEST PUSH1 0x0 PUSH2 0x10F3 DUP4 DUP4 PUSH2 0x10D8 JUMP JUMPDEST PUSH1 0x20 DUP4 ADD SWAP1 POP SWAP3 SWAP2 POP POP JUMP JUMPDEST PUSH1 0x0 PUSH1 0x20 DUP3 ADD SWAP1 POP SWAP2 SWAP1 POP JUMP JUMPDEST PUSH1 0x0 PUSH2 0x1117 DUP3 PUSH2 0x10AC JUMP JUMPDEST PUSH2 0x1121 DUP2 DUP6 PUSH2 0x10B7 JUMP JUMPDEST SWAP4 POP PUSH2 0x112C DUP4 PUSH2 0x10C8 JUMP JUMPDEST DUP1 PUSH1 0x0 JUMPDEST DUP4 DUP2 LT ISZERO PUSH2 0x115D JUMPI DUP2 MLOAD PUSH2 0x1144 DUP9 DUP3 PUSH2 0x10E7 JUMP JUMPDEST SWAP8 POP PUSH2 0x114F DUP4 PUSH2 0x10FF JUMP JUMPDEST SWAP3 POP POP PUSH1 0x1 DUP2 ADD SWAP1 POP PUSH2 0x1130 JUMP JUMPDEST POP DUP6 SWAP4 POP POP POP POP SWAP3 SWAP2 POP POP JUMP JUMPDEST PUSH1 0x0 PUSH1 0x20 DUP3 ADD SWAP1 POP DUP2 DUP2 SUB PUSH1 0x0 DUP4 ADD MSTORE PUSH2 0x1184 DUP2 DUP5 PUSH2 0x110C JUMP JUMPDEST SWAP1 POP SWAP3 SWAP2 POP POP JUMP JUMPDEST PUSH1 0x0 DUP1 REVERT JUMPDEST PUSH1 0x0 PUSH1 0x1F NOT PUSH1 0x1F DUP4 ADD AND SWAP1 POP SWAP2 SWAP1 POP JUMP JUMPDEST PUSH2 0x11AB DUP3 PUSH2 0x1191 JUMP JUMPDEST DUP2 ADD DUP2 DUP2 LT PUSH8 0xFFFFFFFFFFFFFFFF DUP3 GT OR ISZERO PUSH2 0x11CA JUMPI PUSH2 0x11C9 PUSH2 0x104E JUMP JUMPDEST JUMPDEST DUP1 PUSH1 0x40 MSTORE POP POP POP JUMP JUMPDEST PUSH1 0x0 PUSH2 0x11DD PUSH2 0xAB9 JUMP JUMPDEST SWAP1 POP PUSH2 0x11E9 DUP3 DUP3 PUSH2 0x11A2 JUMP JUMPDEST SWAP2 SWAP1 POP JUMP JUMPDEST PUSH1 0x0 PUSH8 0xFFFFFFFFFFFFFFFF DUP3 GT ISZERO PUSH2 0x1209 JUMPI PUSH2 0x1208 PUSH2 0x104E JUMP JUMPDEST JUMPDEST PUSH1 0x20 DUP3 MUL SWAP1 POP PUSH1 0x20 DUP2 ADD SWAP1 POP SWAP2 SWAP1 POP JUMP JUMPDEST PUSH1 0x0 DUP1 REVERT JUMPDEST PUSH1 0x0 PUSH2 0x1232 PUSH2 0x122D DUP5 PUSH2 0x11EE JUMP JUMPDEST PUSH2 0x11D3 JUMP JUMPDEST SWAP1 POP DUP1 DUP4 DUP3 MSTORE PUSH1 0x20 DUP3 ADD SWAP1 POP PUSH1 0x20 DUP5 MUL DUP4 ADD DUP6 DUP2 GT ISZERO PUSH2 0x1255 JUMPI PUSH2 0x1254 PUSH2 0x121A JUMP JUMPDEST JUMPDEST DUP4 JUMPDEST DUP2 DUP2 LT ISZERO PUSH2 0x127E JUMPI DUP1 PUSH2 0x126A DUP9 DUP3 PUSH2 0xDDF JUMP JUMPDEST DUP5 MSTORE PUSH1 0x20 DUP5 ADD SWAP4 POP POP PUSH1 0x20 DUP2 ADD SWAP1 POP PUSH2 0x1257 JUMP JUMPDEST POP POP POP SWAP4 SWAP3 POP POP POP JUMP JUMPDEST PUSH1 0x0 DUP3 PUSH1 0x1F DUP4 ADD SLT PUSH2 0x129D JUMPI PUSH2 0x129C PUSH2 0x118C JUMP JUMPDEST JUMPDEST DUP2 MLOAD PUSH2 0x12AD DUP5 DUP3 PUSH1 0x20 DUP7 ADD PUSH2 0x121F JUMP JUMPDEST SWAP2 POP POP SWAP3 SWAP2 POP POP JUMP JUMPDEST PUSH1 0x0 PUSH1 0x20 DUP3 DUP5 SUB SLT ISZERO PUSH2 0x12CC JUMPI PUSH2 0x12CB PUSH2 0xAC3 JUMP JUMPDEST JUMPDEST PUSH1 0x0 DUP3 ADD MLOAD PUSH8 0xFFFFFFFFFFFFFFFF DUP2 GT ISZERO PUSH2 0x12EA JUMPI PUSH2 0x12E9 PUSH2 0xAC8 JUMP JUMPDEST JUMPDEST PUSH2 0x12F6 DUP5 DUP3 DUP6 ADD PUSH2 0x1288 JUMP JUMPDEST SWAP2 POP POP SWAP3 SWAP2 POP POP JUMP JUMPDEST PUSH32 0x656E7465724D61726B65742829206661696C6564000000000000000000000000 PUSH1 0x0 DUP3 ADD MSTORE POP JUMP JUMPDEST PUSH1 0x0 PUSH2 0x1335 PUSH1 0x14 DUP4 PUSH2 0xE21 JUMP JUMPDEST SWAP2 POP PUSH2 0x1340 DUP3 PUSH2 0x12FF JUMP JUMPDEST PUSH1 0x20 DUP3 ADD SWAP1 POP SWAP2 SWAP1 POP JUMP JUMPDEST PUSH1 0x0 PUSH1 0x20 DUP3 ADD SWAP1 POP DUP2 DUP2 SUB PUSH1 0x0 DUP4 ADD MSTORE PUSH2 0x1364 DUP2 PUSH2 0x1328 JUMP JUMPDEST SWAP1 POP SWAP2 SWAP1 POP JUMP INVALID LOG2 PUSH5 0x6970667358 0x22 SLT KECCAK256 PUSH22 0x24E4131369309EBDF861D3184A09B31FAEAAD3F3186 0x2E SUB SWAP10 0x4F 0xE 0xDE 0xC1 CALLER PUSH30 0x64736F6C6343000812003300000000000000000000000000000000000000 "
				},
				"gasEstimates": {
					"creation": {
						"codeDepositCost": "1005000",
						"executionCost": "infinite",
						"totalCost": "infinite"
					},
					"external": {
						"borrow(uint256)": "infinite",
						"cToken()": "infinite",
						"comptroller()": "infinite",
						"enterMarket()": "infinite",
						"redeem(uint256)": "infinite",
						"repayBorrow(uint256)": "infinite",
						"supply(uint256)": "infinite",
						"token()": "infinite",
						"transferEther(address)": "infinite"
					}
				},
				"methodIdentifiers": {
					"borrow(uint256)": "c5ebeaec",
					"cToken()": "69e527da",
					"comptroller()": "5fe3b567",
					"enterMarket()": "fd5bfb54",
					"redeem(uint256)": "db006a75",
					"repayBorrow(uint256)": "0e752702",
					"supply(uint256)": "35403023",
					"token()": "fc0c546a",
					"transferEther(address)": "6b55e991"
				}
			},
			"storageLayout": {
				"storage": [
					{
						"astId": 151,
						"contract": "compound_3/MyDeFiProject.sol:MyDeFiProject",
						"label": "comptroller",
						"offset": 0,
						"slot": "0",
						"type": "t_contract(ComptrollerInterface)143"
					},
					{
						"astId": 154,
						"contract": "compound_3/MyDeFiProject.sol:MyDeFiProject",
						"label": "token",
						"offset": 0,
						"slot": "1",
						"type": "t_contract(IERC20)77"
					},
					{
						"astId": 157,
						"contract": "compound_3/MyDeFiProject.sol:MyDeFiProject",
						"label": "cToken",
						"offset": 0,
						"slot": "2",
						"type": "t_contract(CTokenInterface)120"
					}
				],
				"types": {
					"t_contract(CTokenInterface)120": {
						"encoding": "inplace",
						"label": "contract CTokenInterface",
						"numberOfBytes": "20"
					},
					"t_contract(ComptrollerInterface)143": {
						"encoding": "inplace",
						"label": "contract ComptrollerInterface",
						"numberOfBytes": "20"
					},
					"t_contract(IERC20)77": {
						"encoding": "inplace",
						"label": "contract IERC20",
						"numberOfBytes": "20"
					}
				}
			},
			"userdoc": {
				"kind": "user",
				"methods": {},
				"version": 1
			}
		}
	}
}